{
  "_format": "hh-sol-artifact-1",
  "contractName": "DocumentToken",
  "sourceName": "contracts/erc721.sol",
  "abi": [
    {
      "inputs": [],
      "stateMutability": "nonpayable",
      "type": "constructor"
    },
    {
      "inputs": [
        {
          "internalType": "address",
          "name": "sender",
          "type": "address"
        },
        {
          "internalType": "uint256",
          "name": "tokenId",
          "type": "uint256"
        },
        {
          "internalType": "address",
          "name": "owner",
          "type": "address"
        }
      ],
      "name": "ERC721IncorrectOwner",
      "type": "error"
    },
    {
      "inputs": [
        {
          "internalType": "address",
          "name": "operator",
          "type": "address"
        },
        {
          "internalType": "uint256",
          "name": "tokenId",
          "type": "uint256"
        }
      ],
      "name": "ERC721InsufficientApproval",
      "type": "error"
    },
    {
      "inputs": [
        {
          "internalType": "address",
          "name": "approver",
          "type": "address"
        }
      ],
      "name": "ERC721InvalidApprover",
      "type": "error"
    },
    {
      "inputs": [
        {
          "internalType": "address",
          "name": "operator",
          "type": "address"
        }
      ],
      "name": "ERC721InvalidOperator",
      "type": "error"
    },
    {
      "inputs": [
        {
          "internalType": "address",
          "name": "owner",
          "type": "address"
        }
      ],
      "name": "ERC721InvalidOwner",
      "type": "error"
    },
    {
      "inputs": [
        {
          "internalType": "address",
          "name": "receiver",
          "type": "address"
        }
      ],
      "name": "ERC721InvalidReceiver",
      "type": "error"
    },
    {
      "inputs": [
        {
          "internalType": "address",
          "name": "sender",
          "type": "address"
        }
      ],
      "name": "ERC721InvalidSender",
      "type": "error"
    },
    {
      "inputs": [
        {
          "internalType": "uint256",
          "name": "tokenId",
          "type": "uint256"
        }
      ],
      "name": "ERC721NonexistentToken",
      "type": "error"
    },
    {
      "inputs": [
        {
          "internalType": "address",
          "name": "owner",
          "type": "address"
        }
      ],
      "name": "OwnableInvalidOwner",
      "type": "error"
    },
    {
      "inputs": [
        {
          "internalType": "address",
          "name": "account",
          "type": "address"
        }
      ],
      "name": "OwnableUnauthorizedAccount",
      "type": "error"
    },
    {
      "anonymous": false,
      "inputs": [
        {
          "indexed": true,
          "internalType": "address",
          "name": "owner",
          "type": "address"
        },
        {
          "indexed": true,
          "internalType": "address",
          "name": "approved",
          "type": "address"
        },
        {
          "indexed": true,
          "internalType": "uint256",
          "name": "tokenId",
          "type": "uint256"
        }
      ],
      "name": "Approval",
      "type": "event"
    },
    {
      "anonymous": false,
      "inputs": [
        {
          "indexed": true,
          "internalType": "address",
          "name": "owner",
          "type": "address"
        },
        {
          "indexed": true,
          "internalType": "address",
          "name": "operator",
          "type": "address"
        },
        {
          "indexed": false,
          "internalType": "bool",
          "name": "approved",
          "type": "bool"
        }
      ],
      "name": "ApprovalForAll",
      "type": "event"
    },
    {
      "anonymous": false,
      "inputs": [
        {
          "indexed": false,
          "internalType": "uint256",
          "name": "_fromTokenId",
          "type": "uint256"
        },
        {
          "indexed": false,
          "internalType": "uint256",
          "name": "_toTokenId",
          "type": "uint256"
        }
      ],
      "name": "BatchMetadataUpdate",
      "type": "event"
    },
    {
      "anonymous": false,
      "inputs": [
        {
          "indexed": false,
          "internalType": "uint256",
          "name": "tokenId",
          "type": "uint256"
        },
        {
          "indexed": false,
          "internalType": "string",
          "name": "name",
          "type": "string"
        },
        {
          "indexed": false,
          "internalType": "string",
          "name": "description",
          "type": "string"
        }
      ],
      "name": "DocumentTokenized",
      "type": "event"
    },
    {
      "anonymous": false,
      "inputs": [
        {
          "indexed": false,
          "internalType": "uint256",
          "name": "_tokenId",
          "type": "uint256"
        }
      ],
      "name": "MetadataUpdate",
      "type": "event"
    },
    {
      "anonymous": false,
      "inputs": [
        {
          "indexed": true,
          "internalType": "address",
          "name": "previousOwner",
          "type": "address"
        },
        {
          "indexed": true,
          "internalType": "address",
          "name": "newOwner",
          "type": "address"
        }
      ],
      "name": "OwnershipTransferred",
      "type": "event"
    },
    {
      "anonymous": false,
      "inputs": [
        {
          "indexed": true,
          "internalType": "address",
          "name": "from",
          "type": "address"
        },
        {
          "indexed": true,
          "internalType": "address",
          "name": "to",
          "type": "address"
        },
        {
          "indexed": true,
          "internalType": "uint256",
          "name": "tokenId",
          "type": "uint256"
        }
      ],
      "name": "Transfer",
      "type": "event"
    },
    {
      "inputs": [
        {
          "internalType": "address",
          "name": "to",
          "type": "address"
        },
        {
          "internalType": "uint256",
          "name": "tokenId",
          "type": "uint256"
        }
      ],
      "name": "approve",
      "outputs": [],
      "stateMutability": "nonpayable",
      "type": "function"
    },
    {
      "inputs": [
        {
          "internalType": "address",
          "name": "owner",
          "type": "address"
        }
      ],
      "name": "balanceOf",
      "outputs": [
        {
          "internalType": "uint256",
          "name": "",
          "type": "uint256"
        }
      ],
      "stateMutability": "view",
      "type": "function"
    },
    {
      "inputs": [
        {
          "internalType": "uint256",
          "name": "",
          "type": "uint256"
        }
      ],
      "name": "contents",
      "outputs": [
        {
          "internalType": "string",
          "name": "",
          "type": "string"
        }
      ],
      "stateMutability": "view",
      "type": "function"
    },
    {
      "inputs": [
        {
          "internalType": "uint256",
          "name": "",
          "type": "uint256"
        }
      ],
      "name": "documents",
      "outputs": [
        {
          "internalType": "string",
          "name": "name",
          "type": "string"
        },
        {
          "internalType": "string",
          "name": "description",
          "type": "string"
        }
      ],
      "stateMutability": "view",
      "type": "function"
    },
    {
      "inputs": [
        {
          "internalType": "uint256",
          "name": "tokenId",
          "type": "uint256"
        }
      ],
      "name": "getApproved",
      "outputs": [
        {
          "internalType": "address",
          "name": "",
          "type": "address"
        }
      ],
      "stateMutability": "view",
      "type": "function"
    },
    {
      "inputs": [
        {
          "internalType": "uint256",
          "name": "tokenId",
          "type": "uint256"
        }
      ],
      "name": "getDocument",
      "outputs": [
        {
          "internalType": "string",
          "name": "",
          "type": "string"
        }
      ],
      "stateMutability": "view",
      "type": "function"
    },
    {
      "inputs": [
        {
          "internalType": "uint256",
          "name": "tokenId",
          "type": "uint256"
        }
      ],
      "name": "getDocumentMetadata",
      "outputs": [
        {
          "components": [
            {
              "internalType": "string",
              "name": "name",
              "type": "string"
            },
            {
              "internalType": "string",
              "name": "description",
              "type": "string"
            }
          ],
          "internalType": "struct DocumentToken.Document",
          "name": "",
          "type": "tuple"
        }
      ],
      "stateMutability": "view",
      "type": "function"
    },
    {
      "inputs": [
        {
          "internalType": "address",
          "name": "owner",
          "type": "address"
        },
        {
          "internalType": "address",
          "name": "operator",
          "type": "address"
        }
      ],
      "name": "isApprovedForAll",
      "outputs": [
        {
          "internalType": "bool",
          "name": "",
          "type": "bool"
        }
      ],
      "stateMutability": "view",
      "type": "function"
    },
    {
      "inputs": [],
      "name": "name",
      "outputs": [
        {
          "internalType": "string",
          "name": "",
          "type": "string"
        }
      ],
      "stateMutability": "view",
      "type": "function"
    },
    {
      "inputs": [],
      "name": "owner",
      "outputs": [
        {
          "internalType": "address",
          "name": "",
          "type": "address"
        }
      ],
      "stateMutability": "view",
      "type": "function"
    },
    {
      "inputs": [
        {
          "internalType": "uint256",
          "name": "tokenId",
          "type": "uint256"
        }
      ],
      "name": "ownerOf",
      "outputs": [
        {
          "internalType": "address",
          "name": "",
          "type": "address"
        }
      ],
      "stateMutability": "view",
      "type": "function"
    },
    {
      "inputs": [],
      "name": "renounceOwnership",
      "outputs": [],
      "stateMutability": "nonpayable",
      "type": "function"
    },
    {
      "inputs": [
        {
          "internalType": "address",
          "name": "from",
          "type": "address"
        },
        {
          "internalType": "address",
          "name": "to",
          "type": "address"
        },
        {
          "internalType": "uint256",
          "name": "tokenId",
          "type": "uint256"
        }
      ],
      "name": "safeTransferFrom",
      "outputs": [],
      "stateMutability": "nonpayable",
      "type": "function"
    },
    {
      "inputs": [
        {
          "internalType": "address",
          "name": "from",
          "type": "address"
        },
        {
          "internalType": "address",
          "name": "to",
          "type": "address"
        },
        {
          "internalType": "uint256",
          "name": "tokenId",
          "type": "uint256"
        },
        {
          "internalType": "bytes",
          "name": "data",
          "type": "bytes"
        }
      ],
      "name": "safeTransferFrom",
      "outputs": [],
      "stateMutability": "nonpayable",
      "type": "function"
    },
    {
      "inputs": [
        {
          "internalType": "address",
          "name": "operator",
          "type": "address"
        },
        {
          "internalType": "bool",
          "name": "approved",
          "type": "bool"
        }
      ],
      "name": "setApprovalForAll",
      "outputs": [],
      "stateMutability": "nonpayable",
      "type": "function"
    },
    {
      "inputs": [
        {
          "internalType": "uint256",
          "name": "tokenId",
          "type": "uint256"
        },
        {
          "internalType": "string",
          "name": "cid",
          "type": "string"
        }
      ],
      "name": "setTokenURI",
      "outputs": [],
      "stateMutability": "nonpayable",
      "type": "function"
    },
    {
      "inputs": [
        {
          "internalType": "bytes4",
          "name": "interfaceId",
          "type": "bytes4"
        }
      ],
      "name": "supportsInterface",
      "outputs": [
        {
          "internalType": "bool",
          "name": "",
          "type": "bool"
        }
      ],
      "stateMutability": "view",
      "type": "function"
    },
    {
      "inputs": [],
      "name": "symbol",
      "outputs": [
        {
          "internalType": "string",
          "name": "",
          "type": "string"
        }
      ],
      "stateMutability": "view",
      "type": "function"
    },
    {
      "inputs": [
        {
          "internalType": "uint256",
          "name": "tokenId",
          "type": "uint256"
        }
      ],
      "name": "tokenURI",
      "outputs": [
        {
          "internalType": "string",
          "name": "",
          "type": "string"
        }
      ],
      "stateMutability": "view",
      "type": "function"
    },
    {
      "inputs": [
        {
          "internalType": "string",
          "name": "name",
          "type": "string"
        },
        {
          "internalType": "string",
          "name": "description",
          "type": "string"
        },
        {
          "internalType": "string",
          "name": "content",
          "type": "string"
        }
      ],
      "name": "tokenizeDocument",
      "outputs": [],
      "stateMutability": "nonpayable",
      "type": "function"
    },
    {
      "inputs": [
        {
          "internalType": "address",
          "name": "from",
          "type": "address"
        },
        {
          "internalType": "address",
          "name": "to",
          "type": "address"
        },
        {
          "internalType": "uint256",
          "name": "tokenId",
          "type": "uint256"
        }
      ],
      "name": "transferFrom",
      "outputs": [],
      "stateMutability": "nonpayable",
      "type": "function"
    },
    {
      "inputs": [
        {
          "internalType": "address",
          "name": "newOwner",
          "type": "address"
        }
      ],
      "name": "transferOwnership",
      "outputs": [],
      "stateMutability": "nonpayable",
      "type": "function"
    }
  ],
  "bytecode": "0x60806040523480156200001157600080fd5b50336040518060400160405280601581526020017f496e74656c6c65637475616c2050726f706572747900000000000000000000008152506040518060400160405280600281526020017f4950000000000000000000000000000000000000000000000000000000000000815250816000908162000090919062000472565b508060019081620000a2919062000472565b505050600073ffffffffffffffffffffffffffffffffffffffff168173ffffffffffffffffffffffffffffffffffffffff16036200011a5760006040517f1e4fbdf70000000000000000000000000000000000000000000000000000000081526004016200011191906200059e565b60405180910390fd5b6200012b816200013260201b60201c565b50620005bb565b6000600760009054906101000a900473ffffffffffffffffffffffffffffffffffffffff16905081600760006101000a81548173ffffffffffffffffffffffffffffffffffffffff021916908373ffffffffffffffffffffffffffffffffffffffff1602179055508173ffffffffffffffffffffffffffffffffffffffff168173ffffffffffffffffffffffffffffffffffffffff167f8be0079c531659141344cd1fd0a4f28419497f9722a3daafe3b4186f6b6457e060405160405180910390a35050565b600081519050919050565b7f4e487b7100000000000000000000000000000000000000000000000000000000600052604160045260246000fd5b7f4e487b7100000000000000000000000000000000000000000000000000000000600052602260045260246000fd5b600060028204905060018216806200027a57607f821691505b60208210810362000290576200028f62000232565b5b50919050565b60008190508160005260206000209050919050565b60006020601f8301049050919050565b600082821b905092915050565b600060088302620002fa7fffffffffffffffffffffffffffffffffffffffffffffffffffffffffffffffff82620002bb565b620003068683620002bb565b95508019841693508086168417925050509392505050565b6000819050919050565b6000819050919050565b6000620003536200034d62000347846200031e565b62000328565b6200031e565b9050919050565b6000819050919050565b6200036f8362000332565b620003876200037e826200035a565b848454620002c8565b825550505050565b600090565b6200039e6200038f565b620003ab81848462000364565b505050565b5b81811015620003d357620003c760008262000394565b600181019050620003b1565b5050565b601f8211156200042257620003ec8162000296565b620003f784620002ab565b8101602085101562000407578190505b6200041f6200041685620002ab565b830182620003b0565b50505b505050565b600082821c905092915050565b6000620004476000198460080262000427565b1980831691505092915050565b600062000462838362000434565b9150826002028217905092915050565b6200047d82620001f8565b67ffffffffffffffff81111562000499576200049862000203565b5b620004a5825462000261565b620004b2828285620003d7565b600060209050601f831160018114620004ea5760008415620004d5578287015190505b620004e1858262000454565b86555062000551565b601f198416620004fa8662000296565b60005b828110156200052457848901518255600182019150602085019450602081019050620004fd565b8683101562000544578489015162000540601f89168262000434565b8355505b6001600288020188555050505b505050505050565b600073ffffffffffffffffffffffffffffffffffffffff82169050919050565b6000620005868262000559565b9050919050565b620005988162000579565b82525050565b6000602082019050620005b560008301846200058d565b92915050565b612f2b80620005cb6000396000f3fe608060405234801561001057600080fd5b50600436106101425760003560e01c8063715018a6116100b8578063b88d4fde1161007c578063b88d4fde14610373578063c2ed2b051461038f578063c87b56dd146103c0578063e245affc146103f0578063e985e9c514610420578063f2fde38b1461045057610142565b8063715018a6146102e15780638da5cb5b146102eb57806395d89b4114610309578063a22cb46514610327578063b5ecf9121461034357610142565b8063162094c41161010a578063162094c4146101fd57806323b872dd146102195780633f9b250a1461023557806342842e0e146102655780636352211e1461028157806370a08231146102b157610142565b806301ffc9a71461014757806306fdde0314610177578063081812fc14610195578063084eb770146101c5578063095ea7b3146101e1575b600080fd5b610161600480360381019061015c9190612144565b61046c565b60405161016e919061218c565b60405180910390f35b61017f6104cd565b60405161018c9190612237565b60405180910390f35b6101af60048036038101906101aa919061228f565b61055f565b6040516101bc91906122fd565b60405180910390f35b6101df60048036038101906101da919061244d565b61057b565b005b6101fb60048036038101906101f69190612520565b610665565b005b61021760048036038101906102129190612560565b61067b565b005b610233600480360381019061022e91906125bc565b6106d9565b005b61024f600480360381019061024a919061228f565b6107db565b60405161025c9190612237565b60405180910390f35b61027f600480360381019061027a91906125bc565b6108d0565b005b61029b6004803603810190610296919061228f565b6108f0565b6040516102a891906122fd565b60405180910390f35b6102cb60048036038101906102c6919061260f565b610902565b6040516102d8919061264b565b60405180910390f35b6102e96109bc565b005b6102f36109d0565b60405161030091906122fd565b60405180910390f35b6103116109fa565b60405161031e9190612237565b60405180910390f35b610341600480360381019061033c9190612692565b610a8c565b005b61035d6004803603810190610358919061228f565b610aa2565b60405161036a9190612237565b60405180910390f35b61038d60048036038101906103889190612773565b610b42565b005b6103a960048036038101906103a4919061228f565b610b67565b6040516103b79291906127f6565b60405180910390f35b6103da60048036038101906103d5919061228f565b610c9b565b6040516103e79190612237565b60405180910390f35b61040a6004803603810190610405919061228f565b610dae565b60405161041791906128bb565b60405180910390f35b61043a600480360381019061043591906128dd565b610f47565b604051610447919061218c565b60405180910390f35b61046a6004803603810190610465919061260f565b610fdb565b005b6000634906490660e01b7bffffffffffffffffffffffffffffffffffffffffffffffffffffffff1916827bffffffffffffffffffffffffffffffffffffffffffffffffffffffff191614806104c657506104c582611061565b5b9050919050565b6060600080546104dc9061294c565b80601f01602080910402602001604051908101604052809291908181526020018280546105089061294c565b80156105555780601f1061052a57610100808354040283529160200191610555565b820191906000526020600020905b81548152906001019060200180831161053857829003601f168201915b5050505050905090565b600061056a82611143565b50610574826111cb565b9050919050565b610583611208565b60006008549050610594338261128f565b6040518060400160405280858152602001848152506009600083815260200190815260200160002060008201518160000190816105d19190612b29565b5060208201518160010190816105e79190612b29565b5090505081600a6000838152602001908152602001600020908161060b9190612b29565b507f94b88a21917056f1cb32f00265c75326b787b843e5c328981cbdd22def0c099d81858560405161063f93929190612bfb565b60405180910390a16008600081548092919061065a90612c6f565b919050555050505050565b6106778282610672611388565b611390565b5050565b610683611208565b61068c826113a2565b6106cb576040517f08c379a00000000000000000000000000000000000000000000000000000000081526004016106c290612d03565b60405180910390fd5b6106d582826113d0565b5050565b600073ffffffffffffffffffffffffffffffffffffffff168273ffffffffffffffffffffffffffffffffffffffff160361074b5760006040517f64a0ae9200000000000000000000000000000000000000000000000000000000815260040161074291906122fd565b60405180910390fd5b600061075f838361075a611388565b61142c565b90508373ffffffffffffffffffffffffffffffffffffffff168173ffffffffffffffffffffffffffffffffffffffff16146107d5578382826040517f64283d7b0000000000000000000000000000000000000000000000000000000081526004016107cc93929190612d23565b60405180910390fd5b50505050565b60606107e5611208565b6107ee826113a2565b61082d576040517f08c379a000000000000000000000000000000000000000000000000000000000815260040161082490612d03565b60405180910390fd5b600a6000838152602001908152602001600020805461084b9061294c565b80601f01602080910402602001604051908101604052809291908181526020018280546108779061294c565b80156108c45780601f10610899576101008083540402835291602001916108c4565b820191906000526020600020905b8154815290600101906020018083116108a757829003601f168201915b50505050509050919050565b6108eb83838360405180602001604052806000815250610b42565b505050565b60006108fb82611143565b9050919050565b60008073ffffffffffffffffffffffffffffffffffffffff168273ffffffffffffffffffffffffffffffffffffffff16036109755760006040517f89c62b6400000000000000000000000000000000000000000000000000000000815260040161096c91906122fd565b60405180910390fd5b600360008373ffffffffffffffffffffffffffffffffffffffff1673ffffffffffffffffffffffffffffffffffffffff168152602001908152602001600020549050919050565b6109c4611208565b6109ce6000611646565b565b6000600760009054906101000a900473ffffffffffffffffffffffffffffffffffffffff16905090565b606060018054610a099061294c565b80601f0160208091040260200160405190810160405280929190818152602001828054610a359061294c565b8015610a825780601f10610a5757610100808354040283529160200191610a82565b820191906000526020600020905b815481529060010190602001808311610a6557829003601f168201915b5050505050905090565b610a9e610a97611388565b838361170c565b5050565b600a6020528060005260406000206000915090508054610ac19061294c565b80601f0160208091040260200160405190810160405280929190818152602001828054610aed9061294c565b8015610b3a5780601f10610b0f57610100808354040283529160200191610b3a565b820191906000526020600020905b815481529060010190602001808311610b1d57829003601f168201915b505050505081565b610b4d8484846106d9565b610b61610b58611388565b8585858561187b565b50505050565b6009602052806000526040600020600091509050806000018054610b8a9061294c565b80601f0160208091040260200160405190810160405280929190818152602001828054610bb69061294c565b8015610c035780601f10610bd857610100808354040283529160200191610c03565b820191906000526020600020905b815481529060010190602001808311610be657829003601f168201915b505050505090806001018054610c189061294c565b80601f0160208091040260200160405190810160405280929190818152602001828054610c449061294c565b8015610c915780601f10610c6657610100808354040283529160200191610c91565b820191906000526020600020905b815481529060010190602001808311610c7457829003601f168201915b5050505050905082565b6060610ca682611143565b506000600660008481526020019081526020016000208054610cc79061294c565b80601f0160208091040260200160405190810160405280929190818152602001828054610cf39061294c565b8015610d405780601f10610d1557610100808354040283529160200191610d40565b820191906000526020600020905b815481529060010190602001808311610d2357829003601f168201915b505050505090506000610d51611a2c565b90506000815103610d66578192505050610da9565b600082511115610d9b578082604051602001610d83929190612d96565b60405160208183030381529060405292505050610da9565b610da484611a43565b925050505b919050565b610db66120be565b610dbf826113a2565b610dfe576040517f08c379a0000000000000000000000000000000000000000000000000000000008152600401610df590612d03565b60405180910390fd5b60096000838152602001908152602001600020604051806040016040529081600082018054610e2c9061294c565b80601f0160208091040260200160405190810160405280929190818152602001828054610e589061294c565b8015610ea55780601f10610e7a57610100808354040283529160200191610ea5565b820191906000526020600020905b815481529060010190602001808311610e8857829003601f168201915b50505050508152602001600182018054610ebe9061294c565b80601f0160208091040260200160405190810160405280929190818152602001828054610eea9061294c565b8015610f375780601f10610f0c57610100808354040283529160200191610f37565b820191906000526020600020905b815481529060010190602001808311610f1a57829003601f168201915b5050505050815250509050919050565b6000600560008473ffffffffffffffffffffffffffffffffffffffff1673ffffffffffffffffffffffffffffffffffffffff16815260200190815260200160002060008373ffffffffffffffffffffffffffffffffffffffff1673ffffffffffffffffffffffffffffffffffffffff16815260200190815260200160002060009054906101000a900460ff16905092915050565b610fe3611208565b600073ffffffffffffffffffffffffffffffffffffffff168173ffffffffffffffffffffffffffffffffffffffff16036110555760006040517f1e4fbdf700000000000000000000000000000000000000000000000000000000815260040161104c91906122fd565b60405180910390fd5b61105e81611646565b50565b60007f80ac58cd000000000000000000000000000000000000000000000000000000007bffffffffffffffffffffffffffffffffffffffffffffffffffffffff1916827bffffffffffffffffffffffffffffffffffffffffffffffffffffffff1916148061112c57507f5b5e139f000000000000000000000000000000000000000000000000000000007bffffffffffffffffffffffffffffffffffffffffffffffffffffffff1916827bffffffffffffffffffffffffffffffffffffffffffffffffffffffff1916145b8061113c575061113b82611aac565b5b9050919050565b60008061114f83611b16565b9050600073ffffffffffffffffffffffffffffffffffffffff168173ffffffffffffffffffffffffffffffffffffffff16036111c257826040517f7e2732890000000000000000000000000000000000000000000000000000000081526004016111b9919061264b565b60405180910390fd5b80915050919050565b60006004600083815260200190815260200160002060009054906101000a900473ffffffffffffffffffffffffffffffffffffffff169050919050565b611210611388565b73ffffffffffffffffffffffffffffffffffffffff1661122e6109d0565b73ffffffffffffffffffffffffffffffffffffffff161461128d57611251611388565b6040517f118cdaa700000000000000000000000000000000000000000000000000000000815260040161128491906122fd565b60405180910390fd5b565b600073ffffffffffffffffffffffffffffffffffffffff168273ffffffffffffffffffffffffffffffffffffffff16036113015760006040517f64a0ae920000000000000000000000000000000000000000000000000000000081526004016112f891906122fd565b60405180910390fd5b600061130f8383600061142c565b9050600073ffffffffffffffffffffffffffffffffffffffff168173ffffffffffffffffffffffffffffffffffffffff16146113835760006040517f73c6ac6e00000000000000000000000000000000000000000000000000000000815260040161137a91906122fd565b60405180910390fd5b505050565b600033905090565b61139d8383836001611b53565b505050565b6000806009600084815260200190815260200160002060000180546113c69061294c565b9050119050919050565b806006600084815260200190815260200160002090816113f09190612b29565b507ff8e1a15aba9398e019f0b49df1a4fde98ee17ae345cb5f6b5e2c27f5033e8ce782604051611420919061264b565b60405180910390a15050565b60008061143884611b16565b9050600073ffffffffffffffffffffffffffffffffffffffff168373ffffffffffffffffffffffffffffffffffffffff161461147a57611479818486611d18565b5b600073ffffffffffffffffffffffffffffffffffffffff168173ffffffffffffffffffffffffffffffffffffffff161461150b576114bc600085600080611b53565b6001600360008373ffffffffffffffffffffffffffffffffffffffff1673ffffffffffffffffffffffffffffffffffffffff168152602001908152602001600020600082825403925050819055505b600073ffffffffffffffffffffffffffffffffffffffff168573ffffffffffffffffffffffffffffffffffffffff161461158e576001600360008773ffffffffffffffffffffffffffffffffffffffff1673ffffffffffffffffffffffffffffffffffffffff168152602001908152602001600020600082825401925050819055505b846002600086815260200190815260200160002060006101000a81548173ffffffffffffffffffffffffffffffffffffffff021916908373ffffffffffffffffffffffffffffffffffffffff160217905550838573ffffffffffffffffffffffffffffffffffffffff168273ffffffffffffffffffffffffffffffffffffffff167fddf252ad1be2c89b69c2b068fc378daa952ba7f163c4a11628f55a4df523b3ef60405160405180910390a4809150509392505050565b6000600760009054906101000a900473ffffffffffffffffffffffffffffffffffffffff16905081600760006101000a81548173ffffffffffffffffffffffffffffffffffffffff021916908373ffffffffffffffffffffffffffffffffffffffff1602179055508173ffffffffffffffffffffffffffffffffffffffff168173ffffffffffffffffffffffffffffffffffffffff167f8be0079c531659141344cd1fd0a4f28419497f9722a3daafe3b4186f6b6457e060405160405180910390a35050565b600073ffffffffffffffffffffffffffffffffffffffff168273ffffffffffffffffffffffffffffffffffffffff160361177d57816040517f5b08ba1800000000000000000000000000000000000000000000000000000000815260040161177491906122fd565b60405180910390fd5b80600560008573ffffffffffffffffffffffffffffffffffffffff1673ffffffffffffffffffffffffffffffffffffffff16815260200190815260200160002060008473ffffffffffffffffffffffffffffffffffffffff1673ffffffffffffffffffffffffffffffffffffffff16815260200190815260200160002060006101000a81548160ff0219169083151502179055508173ffffffffffffffffffffffffffffffffffffffff168373ffffffffffffffffffffffffffffffffffffffff167f17307eab39ab6107e8899845ad3d59bd9653f200f220920489ca2b5937696c318360405161186e919061218c565b60405180910390a3505050565b60008373ffffffffffffffffffffffffffffffffffffffff163b1115611a25578273ffffffffffffffffffffffffffffffffffffffff1663150b7a02868685856040518563ffffffff1660e01b81526004016118da9493929190612e0f565b6020604051808303816000875af192505050801561191657506040513d601f19601f820116820180604052508101906119139190612e70565b60015b61199a573d8060008114611946576040519150601f19603f3d011682016040523d82523d6000602084013e61194b565b606091505b50600081510361199257836040517f64a0ae9200000000000000000000000000000000000000000000000000000000815260040161198991906122fd565b60405180910390fd5b805181602001fd5b63150b7a0260e01b7bffffffffffffffffffffffffffffffffffffffffffffffffffffffff1916817bffffffffffffffffffffffffffffffffffffffffffffffffffffffff191614611a2357836040517f64a0ae92000000000000000000000000000000000000000000000000000000008152600401611a1a91906122fd565b60405180910390fd5b505b5050505050565b606060405180602001604052806000815250905090565b6060611a4e82611143565b506000611a59611a2c565b90506000815111611a795760405180602001604052806000815250611aa4565b80611a8384611ddc565b604051602001611a94929190612d96565b6040516020818303038152906040525b915050919050565b60007f01ffc9a7000000000000000000000000000000000000000000000000000000007bffffffffffffffffffffffffffffffffffffffffffffffffffffffff1916827bffffffffffffffffffffffffffffffffffffffffffffffffffffffff1916149050919050565b60006002600083815260200190815260200160002060009054906101000a900473ffffffffffffffffffffffffffffffffffffffff169050919050565b8080611b8c5750600073ffffffffffffffffffffffffffffffffffffffff168273ffffffffffffffffffffffffffffffffffffffff1614155b15611cc0576000611b9c84611143565b9050600073ffffffffffffffffffffffffffffffffffffffff168373ffffffffffffffffffffffffffffffffffffffff1614158015611c0757508273ffffffffffffffffffffffffffffffffffffffff168173ffffffffffffffffffffffffffffffffffffffff1614155b8015611c1a5750611c188184610f47565b155b15611c5c57826040517fa9fbf51f000000000000000000000000000000000000000000000000000000008152600401611c5391906122fd565b60405180910390fd5b8115611cbe57838573ffffffffffffffffffffffffffffffffffffffff168273ffffffffffffffffffffffffffffffffffffffff167f8c5be1e5ebec7d5bd14f71427d1e84f3dd0314c0f7b2291e5b200ac8c7c3b92560405160405180910390a45b505b836004600085815260200190815260200160002060006101000a81548173ffffffffffffffffffffffffffffffffffffffff021916908373ffffffffffffffffffffffffffffffffffffffff16021790555050505050565b611d23838383611eaa565b611dd757600073ffffffffffffffffffffffffffffffffffffffff168373ffffffffffffffffffffffffffffffffffffffff1603611d9857806040517f7e273289000000000000000000000000000000000000000000000000000000008152600401611d8f919061264b565b60405180910390fd5b81816040517f177e802f000000000000000000000000000000000000000000000000000000008152600401611dce929190612e9d565b60405180910390fd5b505050565b606060006001611deb84611f6b565b01905060008167ffffffffffffffff811115611e0a57611e09612322565b5b6040519080825280601f01601f191660200182016040528015611e3c5781602001600182028036833780820191505090505b509050600082602001820190505b600115611e9f578080600190039150507f3031323334353637383961626364656600000000000000000000000000000000600a86061a8153600a8581611e9357611e92612ec6565b5b04945060008503611e4a575b819350505050919050565b60008073ffffffffffffffffffffffffffffffffffffffff168373ffffffffffffffffffffffffffffffffffffffff1614158015611f6257508273ffffffffffffffffffffffffffffffffffffffff168473ffffffffffffffffffffffffffffffffffffffff161480611f235750611f228484610f47565b5b80611f6157508273ffffffffffffffffffffffffffffffffffffffff16611f49836111cb565b73ffffffffffffffffffffffffffffffffffffffff16145b5b90509392505050565b600080600090507a184f03e93ff9f4daa797ed6e38ed64bf6a1f0100000000000000008310611fc9577a184f03e93ff9f4daa797ed6e38ed64bf6a1f0100000000000000008381611fbf57611fbe612ec6565b5b0492506040810190505b6d04ee2d6d415b85acef81000000008310612006576d04ee2d6d415b85acef81000000008381611ffc57611ffb612ec6565b5b0492506020810190505b662386f26fc10000831061203557662386f26fc10000838161202b5761202a612ec6565b5b0492506010810190505b6305f5e100831061205e576305f5e100838161205457612053612ec6565b5b0492506008810190505b612710831061208357612710838161207957612078612ec6565b5b0492506004810190505b606483106120a6576064838161209c5761209b612ec6565b5b0492506002810190505b600a83106120b5576001810190505b80915050919050565b604051806040016040528060608152602001606081525090565b6000604051905090565b600080fd5b600080fd5b60007fffffffff0000000000000000000000000000000000000000000000000000000082169050919050565b612121816120ec565b811461212c57600080fd5b50565b60008135905061213e81612118565b92915050565b60006020828403121561215a576121596120e2565b5b60006121688482850161212f565b91505092915050565b60008115159050919050565b61218681612171565b82525050565b60006020820190506121a1600083018461217d565b92915050565b600081519050919050565b600082825260208201905092915050565b60005b838110156121e15780820151818401526020810190506121c6565b60008484015250505050565b6000601f19601f8301169050919050565b6000612209826121a7565b61221381856121b2565b93506122238185602086016121c3565b61222c816121ed565b840191505092915050565b6000602082019050818103600083015261225181846121fe565b905092915050565b6000819050919050565b61226c81612259565b811461227757600080fd5b50565b60008135905061228981612263565b92915050565b6000602082840312156122a5576122a46120e2565b5b60006122b38482850161227a565b91505092915050565b600073ffffffffffffffffffffffffffffffffffffffff82169050919050565b60006122e7826122bc565b9050919050565b6122f7816122dc565b82525050565b600060208201905061231260008301846122ee565b92915050565b600080fd5b600080fd5b7f4e487b7100000000000000000000000000000000000000000000000000000000600052604160045260246000fd5b61235a826121ed565b810181811067ffffffffffffffff8211171561237957612378612322565b5b80604052505050565b600061238c6120d8565b90506123988282612351565b919050565b600067ffffffffffffffff8211156123b8576123b7612322565b5b6123c1826121ed565b9050602081019050919050565b82818337600083830152505050565b60006123f06123eb8461239d565b612382565b90508281526020810184848401111561240c5761240b61231d565b5b6124178482856123ce565b509392505050565b600082601f83011261243457612433612318565b5b81356124448482602086016123dd565b91505092915050565b600080600060608486031215612466576124656120e2565b5b600084013567ffffffffffffffff811115612484576124836120e7565b5b6124908682870161241f565b935050602084013567ffffffffffffffff8111156124b1576124b06120e7565b5b6124bd8682870161241f565b925050604084013567ffffffffffffffff8111156124de576124dd6120e7565b5b6124ea8682870161241f565b9150509250925092565b6124fd816122dc565b811461250857600080fd5b50565b60008135905061251a816124f4565b92915050565b60008060408385031215612537576125366120e2565b5b60006125458582860161250b565b92505060206125568582860161227a565b9150509250929050565b60008060408385031215612577576125766120e2565b5b60006125858582860161227a565b925050602083013567ffffffffffffffff8111156125a6576125a56120e7565b5b6125b28582860161241f565b9150509250929050565b6000806000606084860312156125d5576125d46120e2565b5b60006125e38682870161250b565b93505060206125f48682870161250b565b92505060406126058682870161227a565b9150509250925092565b600060208284031215612625576126246120e2565b5b60006126338482850161250b565b91505092915050565b61264581612259565b82525050565b6000602082019050612660600083018461263c565b92915050565b61266f81612171565b811461267a57600080fd5b50565b60008135905061268c81612666565b92915050565b600080604083850312156126a9576126a86120e2565b5b60006126b78582860161250b565b92505060206126c88582860161267d565b9150509250929050565b600067ffffffffffffffff8211156126ed576126ec612322565b5b6126f6826121ed565b9050602081019050919050565b6000612716612711846126d2565b612382565b9050828152602081018484840111156127325761273161231d565b5b61273d8482856123ce565b509392505050565b600082601f83011261275a57612759612318565b5b813561276a848260208601612703565b91505092915050565b6000806000806080858703121561278d5761278c6120e2565b5b600061279b8782880161250b565b94505060206127ac8782880161250b565b93505060406127bd8782880161227a565b925050606085013567ffffffffffffffff8111156127de576127dd6120e7565b5b6127ea87828801612745565b91505092959194509250565b6000604082019050818103600083015261281081856121fe565b9050818103602083015261282481846121fe565b90509392505050565b600082825260208201905092915050565b6000612849826121a7565b612853818561282d565b93506128638185602086016121c3565b61286c816121ed565b840191505092915050565b60006040830160008301518482036000860152612894828261283e565b915050602083015184820360208601526128ae828261283e565b9150508091505092915050565b600060208201905081810360008301526128d58184612877565b905092915050565b600080604083850312156128f4576128f36120e2565b5b60006129028582860161250b565b92505060206129138582860161250b565b9150509250929050565b7f4e487b7100000000000000000000000000000000000000000000000000000000600052602260045260246000fd5b6000600282049050600182168061296457607f821691505b6020821081036129775761297661291d565b5b50919050565b60008190508160005260206000209050919050565b60006020601f8301049050919050565b600082821b905092915050565b6000600883026129df7fffffffffffffffffffffffffffffffffffffffffffffffffffffffffffffffff826129a2565b6129e986836129a2565b95508019841693508086168417925050509392505050565b6000819050919050565b6000612a26612a21612a1c84612259565b612a01565b612259565b9050919050565b6000819050919050565b612a4083612a0b565b612a54612a4c82612a2d565b8484546129af565b825550505050565b600090565b612a69612a5c565b612a74818484612a37565b505050565b5b81811015612a9857612a8d600082612a61565b600181019050612a7a565b5050565b601f821115612add57612aae8161297d565b612ab784612992565b81016020851015612ac6578190505b612ada612ad285612992565b830182612a79565b50505b505050565b600082821c905092915050565b6000612b0060001984600802612ae2565b1980831691505092915050565b6000612b198383612aef565b9150826002028217905092915050565b612b32826121a7565b67ffffffffffffffff811115612b4b57612b4a612322565b5b612b55825461294c565b612b60828285612a9c565b600060209050601f831160018114612b935760008415612b81578287015190505b612b8b8582612b0d565b865550612bf3565b601f198416612ba18661297d565b60005b82811015612bc957848901518255600182019150602085019450602081019050612ba4565b86831015612be65784890151612be2601f891682612aef565b8355505b6001600288020188555050505b505050505050565b6000606082019050612c10600083018661263c565b8181036020830152612c2281856121fe565b90508181036040830152612c3681846121fe565b9050949350505050565b7f4e487b7100000000000000000000000000000000000000000000000000000000600052601160045260246000fd5b6000612c7a82612259565b91507fffffffffffffffffffffffffffffffffffffffffffffffffffffffffffffffff8203612cac57612cab612c40565b5b600182019050919050565b7f546f6b656e20646f6573206e6f74206578697374000000000000000000000000600082015250565b6000612ced6014836121b2565b9150612cf882612cb7565b602082019050919050565b60006020820190508181036000830152612d1c81612ce0565b9050919050565b6000606082019050612d3860008301866122ee565b612d45602083018561263c565b612d5260408301846122ee565b949350505050565b600081905092915050565b6000612d70826121a7565b612d7a8185612d5a565b9350612d8a8185602086016121c3565b80840191505092915050565b6000612da28285612d65565b9150612dae8284612d65565b91508190509392505050565b600081519050919050565b600082825260208201905092915050565b6000612de182612dba565b612deb8185612dc5565b9350612dfb8185602086016121c3565b612e04816121ed565b840191505092915050565b6000608082019050612e2460008301876122ee565b612e3160208301866122ee565b612e3e604083018561263c565b8181036060830152612e508184612dd6565b905095945050505050565b600081519050612e6a81612118565b92915050565b600060208284031215612e8657612e856120e2565b5b6000612e9484828501612e5b565b91505092915050565b6000604082019050612eb260008301856122ee565b612ebf602083018461263c565b9392505050565b7f4e487b7100000000000000000000000000000000000000000000000000000000600052601260045260246000fdfea2646970667358221220ba4980a5c1e42ae50ebc06fc6af70d67eaaa5a820b76e509fc61f9623f0e09b964736f6c63430008140033",
  "linkReferences": {},
  "deployedLinkReferences": {}
}