{
  "_format": "hh-sol-artifact-1",
  "contractName": "IPDocV14",
  "sourceName": "contracts/IPDocV14.sol",
  "abi": [
    {
      "inputs": [
        {
          "internalType": "address",
          "name": "defaultAdmin",
          "type": "address"
        },
        {
          "internalType": "address",
          "name": "pauser",
          "type": "address"
        },
        {
          "internalType": "address",
          "name": "minter",
          "type": "address"
        }
      ],
      "stateMutability": "nonpayable",
      "type": "constructor"
    },
    {
      "inputs": [],
      "name": "AccessControlBadConfirmation",
      "type": "error"
    },
    {
      "inputs": [
        {
          "internalType": "address",
          "name": "account",
          "type": "address"
        },
        {
          "internalType": "bytes32",
          "name": "neededRole",
          "type": "bytes32"
        }
      ],
      "name": "AccessControlUnauthorizedAccount",
      "type": "error"
    },
    {
      "inputs": [],
      "name": "ECDSAInvalidSignature",
      "type": "error"
    },
    {
      "inputs": [
        {
          "internalType": "uint256",
          "name": "length",
          "type": "uint256"
        }
      ],
      "name": "ECDSAInvalidSignatureLength",
      "type": "error"
    },
    {
      "inputs": [
        {
          "internalType": "bytes32",
          "name": "s",
          "type": "bytes32"
        }
      ],
      "name": "ECDSAInvalidSignatureS",
      "type": "error"
    },
    {
      "inputs": [
        {
          "internalType": "address",
          "name": "sender",
          "type": "address"
        },
        {
          "internalType": "uint256",
          "name": "balance",
          "type": "uint256"
        },
        {
          "internalType": "uint256",
          "name": "needed",
          "type": "uint256"
        },
        {
          "internalType": "uint256",
          "name": "tokenId",
          "type": "uint256"
        }
      ],
      "name": "ERC1155InsufficientBalance",
      "type": "error"
    },
    {
      "inputs": [
        {
          "internalType": "address",
          "name": "approver",
          "type": "address"
        }
      ],
      "name": "ERC1155InvalidApprover",
      "type": "error"
    },
    {
      "inputs": [
        {
          "internalType": "uint256",
          "name": "idsLength",
          "type": "uint256"
        },
        {
          "internalType": "uint256",
          "name": "valuesLength",
          "type": "uint256"
        }
      ],
      "name": "ERC1155InvalidArrayLength",
      "type": "error"
    },
    {
      "inputs": [
        {
          "internalType": "address",
          "name": "operator",
          "type": "address"
        }
      ],
      "name": "ERC1155InvalidOperator",
      "type": "error"
    },
    {
      "inputs": [
        {
          "internalType": "address",
          "name": "receiver",
          "type": "address"
        }
      ],
      "name": "ERC1155InvalidReceiver",
      "type": "error"
    },
    {
      "inputs": [
        {
          "internalType": "address",
          "name": "sender",
          "type": "address"
        }
      ],
      "name": "ERC1155InvalidSender",
      "type": "error"
    },
    {
      "inputs": [
        {
          "internalType": "address",
          "name": "operator",
          "type": "address"
        },
        {
          "internalType": "address",
          "name": "owner",
          "type": "address"
        }
      ],
      "name": "ERC1155MissingApprovalForAll",
      "type": "error"
    },
    {
      "inputs": [],
      "name": "EnforcedPause",
      "type": "error"
    },
    {
      "inputs": [],
      "name": "ExpectedPause",
      "type": "error"
    },
    {
      "anonymous": false,
      "inputs": [
        {
          "indexed": true,
          "internalType": "address",
          "name": "account",
          "type": "address"
        },
        {
          "indexed": true,
          "internalType": "address",
          "name": "operator",
          "type": "address"
        },
        {
          "indexed": false,
          "internalType": "bool",
          "name": "approved",
          "type": "bool"
        }
      ],
      "name": "ApprovalForAll",
      "type": "event"
    },
    {
      "anonymous": false,
      "inputs": [
        {
          "indexed": true,
          "internalType": "address",
          "name": "account",
          "type": "address"
        },
        {
          "indexed": true,
          "internalType": "uint256",
          "name": "tokenId",
          "type": "uint256"
        },
        {
          "indexed": false,
          "internalType": "uint256",
          "name": "expirationTime",
          "type": "uint256"
        }
      ],
      "name": "ExpirationSet",
      "type": "event"
    },
    {
      "anonymous": false,
      "inputs": [
        {
          "indexed": true,
          "internalType": "uint256",
          "name": "tokenId",
          "type": "uint256"
        },
        {
          "indexed": true,
          "internalType": "address",
          "name": "previousOwner",
          "type": "address"
        },
        {
          "indexed": true,
          "internalType": "address",
          "name": "newOwner",
          "type": "address"
        }
      ],
      "name": "OwnershipTransferred",
      "type": "event"
    },
    {
      "anonymous": false,
      "inputs": [
        {
          "indexed": false,
          "internalType": "address",
          "name": "account",
          "type": "address"
        }
      ],
      "name": "Paused",
      "type": "event"
    },
    {
      "anonymous": false,
      "inputs": [
        {
          "indexed": true,
          "internalType": "bytes32",
          "name": "role",
          "type": "bytes32"
        },
        {
          "indexed": true,
          "internalType": "bytes32",
          "name": "previousAdminRole",
          "type": "bytes32"
        },
        {
          "indexed": true,
          "internalType": "bytes32",
          "name": "newAdminRole",
          "type": "bytes32"
        }
      ],
      "name": "RoleAdminChanged",
      "type": "event"
    },
    {
      "anonymous": false,
      "inputs": [
        {
          "indexed": true,
          "internalType": "bytes32",
          "name": "role",
          "type": "bytes32"
        },
        {
          "indexed": true,
          "internalType": "address",
          "name": "account",
          "type": "address"
        },
        {
          "indexed": true,
          "internalType": "address",
          "name": "sender",
          "type": "address"
        }
      ],
      "name": "RoleGranted",
      "type": "event"
    },
    {
      "anonymous": false,
      "inputs": [
        {
          "indexed": true,
          "internalType": "bytes32",
          "name": "role",
          "type": "bytes32"
        },
        {
          "indexed": true,
          "internalType": "address",
          "name": "account",
          "type": "address"
        },
        {
          "indexed": true,
          "internalType": "address",
          "name": "sender",
          "type": "address"
        }
      ],
      "name": "RoleRevoked",
      "type": "event"
    },
    {
      "anonymous": false,
      "inputs": [
        {
          "indexed": true,
          "internalType": "address",
          "name": "operator",
          "type": "address"
        },
        {
          "indexed": true,
          "internalType": "address",
          "name": "from",
          "type": "address"
        },
        {
          "indexed": true,
          "internalType": "address",
          "name": "to",
          "type": "address"
        },
        {
          "indexed": false,
          "internalType": "uint256[]",
          "name": "ids",
          "type": "uint256[]"
        },
        {
          "indexed": false,
          "internalType": "uint256[]",
          "name": "values",
          "type": "uint256[]"
        }
      ],
      "name": "TransferBatch",
      "type": "event"
    },
    {
      "anonymous": false,
      "inputs": [
        {
          "indexed": true,
          "internalType": "address",
          "name": "operator",
          "type": "address"
        },
        {
          "indexed": true,
          "internalType": "address",
          "name": "from",
          "type": "address"
        },
        {
          "indexed": true,
          "internalType": "address",
          "name": "to",
          "type": "address"
        },
        {
          "indexed": false,
          "internalType": "uint256",
          "name": "id",
          "type": "uint256"
        },
        {
          "indexed": false,
          "internalType": "uint256",
          "name": "value",
          "type": "uint256"
        }
      ],
      "name": "TransferSingle",
      "type": "event"
    },
    {
      "anonymous": false,
      "inputs": [
        {
          "indexed": false,
          "internalType": "string",
          "name": "value",
          "type": "string"
        },
        {
          "indexed": true,
          "internalType": "uint256",
          "name": "id",
          "type": "uint256"
        }
      ],
      "name": "URI",
      "type": "event"
    },
    {
      "anonymous": false,
      "inputs": [
        {
          "indexed": false,
          "internalType": "address",
          "name": "account",
          "type": "address"
        }
      ],
      "name": "Unpaused",
      "type": "event"
    },
    {
      "inputs": [],
      "name": "DEFAULT_ADMIN_ROLE",
      "outputs": [
        {
          "internalType": "bytes32",
          "name": "",
          "type": "bytes32"
        }
      ],
      "stateMutability": "view",
      "type": "function"
    },
    {
      "inputs": [],
      "name": "EXPIRATION_MANAGER_ROLE",
      "outputs": [
        {
          "internalType": "bytes32",
          "name": "",
          "type": "bytes32"
        }
      ],
      "stateMutability": "view",
      "type": "function"
    },
    {
      "inputs": [],
      "name": "MINTER_ROLE",
      "outputs": [
        {
          "internalType": "bytes32",
          "name": "",
          "type": "bytes32"
        }
      ],
      "stateMutability": "view",
      "type": "function"
    },
    {
      "inputs": [],
      "name": "PAUSER_ROLE",
      "outputs": [
        {
          "internalType": "bytes32",
          "name": "",
          "type": "bytes32"
        }
      ],
      "stateMutability": "view",
      "type": "function"
    },
    {
      "inputs": [],
      "name": "URI_SETTER_ROLE",
      "outputs": [
        {
          "internalType": "bytes32",
          "name": "",
          "type": "bytes32"
        }
      ],
      "stateMutability": "view",
      "type": "function"
    },
    {
      "inputs": [
        {
          "internalType": "address",
          "name": "account",
          "type": "address"
        },
        {
          "internalType": "uint256",
          "name": "id",
          "type": "uint256"
        }
      ],
      "name": "balanceOf",
      "outputs": [
        {
          "internalType": "uint256",
          "name": "",
          "type": "uint256"
        }
      ],
      "stateMutability": "view",
      "type": "function"
    },
    {
      "inputs": [
        {
          "internalType": "address[]",
          "name": "accounts",
          "type": "address[]"
        },
        {
          "internalType": "uint256[]",
          "name": "ids",
          "type": "uint256[]"
        }
      ],
      "name": "balanceOfBatch",
      "outputs": [
        {
          "internalType": "uint256[]",
          "name": "",
          "type": "uint256[]"
        }
      ],
      "stateMutability": "view",
      "type": "function"
    },
    {
      "inputs": [
        {
          "internalType": "address",
          "name": "account",
          "type": "address"
        },
        {
          "internalType": "uint256",
          "name": "id",
          "type": "uint256"
        },
        {
          "internalType": "uint256",
          "name": "value",
          "type": "uint256"
        }
      ],
      "name": "burn",
      "outputs": [],
      "stateMutability": "nonpayable",
      "type": "function"
    },
    {
      "inputs": [
        {
          "internalType": "address",
          "name": "account",
          "type": "address"
        },
        {
          "internalType": "uint256[]",
          "name": "ids",
          "type": "uint256[]"
        },
        {
          "internalType": "uint256[]",
          "name": "values",
          "type": "uint256[]"
        }
      ],
      "name": "burnBatch",
      "outputs": [],
      "stateMutability": "nonpayable",
      "type": "function"
    },
    {
      "inputs": [
        {
          "internalType": "uint256",
          "name": "id",
          "type": "uint256"
        }
      ],
      "name": "exists",
      "outputs": [
        {
          "internalType": "bool",
          "name": "",
          "type": "bool"
        }
      ],
      "stateMutability": "view",
      "type": "function"
    },
    {
      "inputs": [
        {
          "internalType": "address",
          "name": "account",
          "type": "address"
        },
        {
          "internalType": "uint256",
          "name": "id",
          "type": "uint256"
        }
      ],
      "name": "getExpiration",
      "outputs": [
        {
          "internalType": "uint256",
          "name": "",
          "type": "uint256"
        }
      ],
      "stateMutability": "view",
      "type": "function"
    },
    {
      "inputs": [
        {
          "internalType": "bytes32",
          "name": "role",
          "type": "bytes32"
        }
      ],
      "name": "getRoleAdmin",
      "outputs": [
        {
          "internalType": "bytes32",
          "name": "",
          "type": "bytes32"
        }
      ],
      "stateMutability": "view",
      "type": "function"
    },
    {
      "inputs": [
        {
          "internalType": "bytes32",
          "name": "role",
          "type": "bytes32"
        },
        {
          "internalType": "address",
          "name": "account",
          "type": "address"
        }
      ],
      "name": "grantRole",
      "outputs": [],
      "stateMutability": "nonpayable",
      "type": "function"
    },
    {
      "inputs": [
        {
          "internalType": "bytes32",
          "name": "role",
          "type": "bytes32"
        },
        {
          "internalType": "address",
          "name": "account",
          "type": "address"
        }
      ],
      "name": "hasRole",
      "outputs": [
        {
          "internalType": "bool",
          "name": "",
          "type": "bool"
        }
      ],
      "stateMutability": "view",
      "type": "function"
    },
    {
      "inputs": [
        {
          "internalType": "address",
          "name": "account",
          "type": "address"
        },
        {
          "internalType": "address",
          "name": "operator",
          "type": "address"
        }
      ],
      "name": "isApprovedForAll",
      "outputs": [
        {
          "internalType": "bool",
          "name": "",
          "type": "bool"
        }
      ],
      "stateMutability": "view",
      "type": "function"
    },
    {
      "inputs": [
        {
          "internalType": "address",
          "name": "account",
          "type": "address"
        },
        {
          "internalType": "uint256",
          "name": "id",
          "type": "uint256"
        }
      ],
      "name": "isExpired",
      "outputs": [
        {
          "internalType": "bool",
          "name": "",
          "type": "bool"
        }
      ],
      "stateMutability": "view",
      "type": "function"
    },
    {
      "inputs": [
        {
          "internalType": "address",
          "name": "account",
          "type": "address"
        },
        {
          "internalType": "uint256",
          "name": "id",
          "type": "uint256"
        },
        {
          "internalType": "uint256",
          "name": "amount",
          "type": "uint256"
        },
        {
          "internalType": "bytes",
          "name": "data",
          "type": "bytes"
        }
      ],
      "name": "mint",
      "outputs": [],
      "stateMutability": "nonpayable",
      "type": "function"
    },
    {
      "inputs": [
        {
          "internalType": "address",
          "name": "to",
          "type": "address"
        },
        {
          "internalType": "uint256",
          "name": "tokenId",
          "type": "uint256"
        },
        {
          "internalType": "uint256",
          "name": "amount",
          "type": "uint256"
        },
        {
          "internalType": "uint256",
          "name": "expirationTime",
          "type": "uint256"
        },
        {
          "internalType": "bytes",
          "name": "data",
          "type": "bytes"
        }
      ],
      "name": "mintWithExpiration",
      "outputs": [],
      "stateMutability": "nonpayable",
      "type": "function"
    },
    {
      "inputs": [
        {
          "internalType": "address",
          "name": "to",
          "type": "address"
        },
        {
          "internalType": "uint256",
          "name": "tokenId",
          "type": "uint256"
        },
        {
          "internalType": "uint256",
          "name": "amount",
          "type": "uint256"
        },
        {
          "internalType": "uint256",
          "name": "expirationTime",
          "type": "uint256"
        },
        {
          "internalType": "bytes",
          "name": "data",
          "type": "bytes"
        },
        {
          "internalType": "bytes",
          "name": "signature",
          "type": "bytes"
        }
      ],
      "name": "mintWithSignature",
      "outputs": [],
      "stateMutability": "nonpayable",
      "type": "function"
    },
    {
      "inputs": [
        {
          "internalType": "uint256",
          "name": "tokenId",
          "type": "uint256"
        }
      ],
      "name": "originalOwnerOf",
      "outputs": [
        {
          "internalType": "address",
          "name": "",
          "type": "address"
        }
      ],
      "stateMutability": "view",
      "type": "function"
    },
    {
      "inputs": [
        {
          "internalType": "uint256",
          "name": "tokenId",
          "type": "uint256"
        }
      ],
      "name": "ownerOf",
      "outputs": [
        {
          "internalType": "address",
          "name": "",
          "type": "address"
        }
      ],
      "stateMutability": "view",
      "type": "function"
    },
    {
      "inputs": [],
      "name": "pause",
      "outputs": [],
      "stateMutability": "nonpayable",
      "type": "function"
    },
    {
      "inputs": [],
      "name": "paused",
      "outputs": [
        {
          "internalType": "bool",
          "name": "",
          "type": "bool"
        }
      ],
      "stateMutability": "view",
      "type": "function"
    },
    {
      "inputs": [
        {
          "internalType": "bytes32",
          "name": "role",
          "type": "bytes32"
        },
        {
          "internalType": "address",
          "name": "callerConfirmation",
          "type": "address"
        }
      ],
      "name": "renounceRole",
      "outputs": [],
      "stateMutability": "nonpayable",
      "type": "function"
    },
    {
      "inputs": [
        {
          "internalType": "bytes32",
          "name": "role",
          "type": "bytes32"
        },
        {
          "internalType": "address",
          "name": "account",
          "type": "address"
        }
      ],
      "name": "revokeRole",
      "outputs": [],
      "stateMutability": "nonpayable",
      "type": "function"
    },
    {
      "inputs": [
        {
          "internalType": "address",
          "name": "from",
          "type": "address"
        },
        {
          "internalType": "address",
          "name": "to",
          "type": "address"
        },
        {
          "internalType": "uint256[]",
          "name": "ids",
          "type": "uint256[]"
        },
        {
          "internalType": "uint256[]",
          "name": "values",
          "type": "uint256[]"
        },
        {
          "internalType": "bytes",
          "name": "data",
          "type": "bytes"
        }
      ],
      "name": "safeBatchTransferFrom",
      "outputs": [],
      "stateMutability": "nonpayable",
      "type": "function"
    },
    {
      "inputs": [
        {
          "internalType": "address",
          "name": "from",
          "type": "address"
        },
        {
          "internalType": "address",
          "name": "to",
          "type": "address"
        },
        {
          "internalType": "uint256",
          "name": "id",
          "type": "uint256"
        },
        {
          "internalType": "uint256",
          "name": "value",
          "type": "uint256"
        },
        {
          "internalType": "bytes",
          "name": "data",
          "type": "bytes"
        }
      ],
      "name": "safeTransferFrom",
      "outputs": [],
      "stateMutability": "nonpayable",
      "type": "function"
    },
    {
      "inputs": [
        {
          "internalType": "address",
          "name": "operator",
          "type": "address"
        },
        {
          "internalType": "bool",
          "name": "approved",
          "type": "bool"
        }
      ],
      "name": "setApprovalForAll",
      "outputs": [],
      "stateMutability": "nonpayable",
      "type": "function"
    },
    {
      "inputs": [
        {
          "internalType": "string",
          "name": "baseURI",
          "type": "string"
        }
      ],
      "name": "setBaseURI",
      "outputs": [],
      "stateMutability": "nonpayable",
      "type": "function"
    },
    {
      "inputs": [
        {
          "internalType": "address",
          "name": "account",
          "type": "address"
        },
        {
          "internalType": "uint256",
          "name": "id",
          "type": "uint256"
        },
        {
          "internalType": "uint256",
          "name": "expirationTime",
          "type": "uint256"
        }
      ],
      "name": "setExpiration",
      "outputs": [],
      "stateMutability": "nonpayable",
      "type": "function"
    },
    {
      "inputs": [
        {
          "internalType": "uint256",
          "name": "tokenId",
          "type": "uint256"
        },
        {
          "internalType": "string",
          "name": "tokenURI",
          "type": "string"
        }
      ],
      "name": "setTokenURI",
      "outputs": [],
      "stateMutability": "nonpayable",
      "type": "function"
    },
    {
      "inputs": [
        {
          "internalType": "string",
          "name": "newuri",
          "type": "string"
        }
      ],
      "name": "setURI",
      "outputs": [],
      "stateMutability": "nonpayable",
      "type": "function"
    },
    {
      "inputs": [
        {
          "internalType": "bytes4",
          "name": "interfaceId",
          "type": "bytes4"
        }
      ],
      "name": "supportsInterface",
      "outputs": [
        {
          "internalType": "bool",
          "name": "",
          "type": "bool"
        }
      ],
      "stateMutability": "view",
      "type": "function"
    },
    {
      "inputs": [],
      "name": "totalSupply",
      "outputs": [
        {
          "internalType": "uint256",
          "name": "",
          "type": "uint256"
        }
      ],
      "stateMutability": "view",
      "type": "function"
    },
    {
      "inputs": [
        {
          "internalType": "uint256",
          "name": "id",
          "type": "uint256"
        }
      ],
      "name": "totalSupply",
      "outputs": [
        {
          "internalType": "uint256",
          "name": "",
          "type": "uint256"
        }
      ],
      "stateMutability": "view",
      "type": "function"
    },
    {
      "inputs": [
        {
          "internalType": "uint256",
          "name": "tokenId",
          "type": "uint256"
        },
        {
          "internalType": "address",
          "name": "newOwner",
          "type": "address"
        }
      ],
      "name": "transferOwnership",
      "outputs": [],
      "stateMutability": "nonpayable",
      "type": "function"
    },
    {
      "inputs": [],
      "name": "unpause",
      "outputs": [],
      "stateMutability": "nonpayable",
      "type": "function"
    },
    {
      "inputs": [
        {
          "internalType": "uint256",
          "name": "tokenId",
          "type": "uint256"
        }
      ],
      "name": "uri",
      "outputs": [
        {
          "internalType": "string",
          "name": "",
          "type": "string"
        }
      ],
      "stateMutability": "view",
      "type": "function"
    }
  ],
  "bytecode": "0x60806040526040518060200160405280600081525060079081620000249190620005ac565b503480156200003257600080fd5b5060405162005bb438038062005bb48339818101604052810190620000589190620006fd565b6040518060400160405280601d81526020017f68747470733a2f2f73616665696465612e6e65742f646f632f7b69647d0000008152506200009f81620001a660201b60201c565b506000600460006101000a81548160ff021916908315150217905550620000d06000801b84620001bb60201b60201c565b50620001037f7804d923f43a17d325d77e781528e0793b2edd9890ab45fc64efd7b4b427744c84620001bb60201b60201c565b50620001367f65d7a28e3265b37a6474929f336521b332c1681b933f6cb9f3376673440d862a83620001bb60201b60201c565b50620001697f9f2df0fed2c77648de5860a4cc508cd0818c85b8b8a1ab4ceeef8d981c8956a682620001bb60201b60201c565b506200019c7f5bd33557d028fa6327a6c10090602e75b5763bcbc8c9d2f602672edd0eee7a0882620001bb60201b60201c565b5050505062000759565b8060029081620001b79190620005ac565b5050565b6000620001cf8383620002bf60201b60201c565b620002b45760016003600085815260200190815260200160002060000160008473ffffffffffffffffffffffffffffffffffffffff1673ffffffffffffffffffffffffffffffffffffffff16815260200190815260200160002060006101000a81548160ff021916908315150217905550620002506200032a60201b60201c565b73ffffffffffffffffffffffffffffffffffffffff168273ffffffffffffffffffffffffffffffffffffffff16847f2f8788117e7eff1d82e926ec794901d17c78024a50270940304540a733656f0d60405160405180910390a460019050620002b9565b600090505b92915050565b60006003600084815260200190815260200160002060000160008373ffffffffffffffffffffffffffffffffffffffff1673ffffffffffffffffffffffffffffffffffffffff16815260200190815260200160002060009054906101000a900460ff16905092915050565b600033905090565b600081519050919050565b7f4e487b7100000000000000000000000000000000000000000000000000000000600052604160045260246000fd5b7f4e487b7100000000000000000000000000000000000000000000000000000000600052602260045260246000fd5b60006002820490506001821680620003b457607f821691505b602082108103620003ca57620003c96200036c565b5b50919050565b60008190508160005260206000209050919050565b60006020601f8301049050919050565b600082821b905092915050565b600060088302620004347fffffffffffffffffffffffffffffffffffffffffffffffffffffffffffffffff82620003f5565b620004408683620003f5565b95508019841693508086168417925050509392505050565b6000819050919050565b6000819050919050565b60006200048d62000487620004818462000458565b62000462565b62000458565b9050919050565b6000819050919050565b620004a9836200046c565b620004c1620004b88262000494565b84845462000402565b825550505050565b600090565b620004d8620004c9565b620004e58184846200049e565b505050565b5b818110156200050d5762000501600082620004ce565b600181019050620004eb565b5050565b601f8211156200055c576200052681620003d0565b6200053184620003e5565b8101602085101562000541578190505b620005596200055085620003e5565b830182620004ea565b50505b505050565b600082821c905092915050565b6000620005816000198460080262000561565b1980831691505092915050565b60006200059c83836200056e565b9150826002028217905092915050565b620005b78262000332565b67ffffffffffffffff811115620005d357620005d26200033d565b5b620005df82546200039b565b620005ec82828562000511565b600060209050601f8311600181146200062457600084156200060f578287015190505b6200061b85826200058e565b8655506200068b565b601f1984166200063486620003d0565b60005b828110156200065e5784890151825560018201915060208501945060208101905062000637565b868310156200067e57848901516200067a601f8916826200056e565b8355505b6001600288020188555050505b505050505050565b600080fd5b600073ffffffffffffffffffffffffffffffffffffffff82169050919050565b6000620006c58262000698565b9050919050565b620006d781620006b8565b8114620006e357600080fd5b50565b600081519050620006f781620006cc565b92915050565b60008060006060848603121562000719576200071862000693565b5b60006200072986828701620006e6565b93505060206200073c86828701620006e6565b92505060406200074f86828701620006e6565b9150509250925092565b61544b80620007696000396000f3fe608060405234801561001057600080fd5b50600436106102315760003560e01c80635c975abb11610130578063a22cb465116100b8578063d547741f1161007c578063d547741f146106aa578063e63ab1e9146106c6578063e985e9c5146106e4578063f242432a14610714578063f5298aca1461073057610231565b8063a22cb46514610608578063afd0d93014610624578063bd85b03914610640578063d4e5e76c14610670578063d53913931461068c57610231565b806373b64ac5116100ff57806373b64ac5146105625780637f345710146105925780638456cb59146105b057806391d14854146105ba578063a217fddf146105ea57610231565b80635c975abb146104dc5780636352211e146104fa5780636b20c4541461052a578063731133e91461054657610231565b806329507f73116101be5780633f4ba83a116101825780633f4ba83a146104385780634943f8f8146104425780634e1273f4146104605780634f558e791461049057806355f804b3146104c057610231565b806329507f73146103985780632cac49c4146103b45780632eb2c2d6146103e45780632f2ff15d1461040057806336568abe1461041c57610231565b8063151497931161020557806315149793146102e2578063162094c41461031257806318160ddd1461032e5780631af189e11461034c578063248a9ca31461036857610231565b8062fdd58e1461023657806301ffc9a71461026657806302fe5305146102965780630e89341c146102b2575b600080fd5b610250600480360381019061024b91906138a6565b61074c565b60405161025d91906138f5565b60405180910390f35b610280600480360381019061027b9190613968565b610827565b60405161028d91906139b0565b60405180910390f35b6102b060048036038101906102ab9190613b11565b610839565b005b6102cc60048036038101906102c79190613b5a565b610870565b6040516102d99190613c06565b60405180910390f35b6102fc60048036038101906102f791906138a6565b610882565b60405161030991906139b0565b60405180910390f35b61032c60048036038101906103279190613c28565b6108f2565b005b61033661092b565b60405161034391906138f5565b60405180910390f35b61036660048036038101906103619190613c84565b610935565b005b610382600480360381019061037d9190613d0d565b610a55565b60405161038f9190613d49565b60405180910390f35b6103b260048036038101906103ad9190613d64565b610a75565b005b6103ce60048036038101906103c991906138a6565b610c76565b6040516103db91906138f5565b60405180910390f35b6103fe60048036038101906103f99190613f0d565b610cd1565b005b61041a60048036038101906104159190613fdc565b610d79565b005b61043660048036038101906104319190613fdc565b610d9b565b005b610440610e16565b005b61044a610e4b565b6040516104579190613d49565b60405180910390f35b61047a600480360381019061047591906140df565b610e6f565b6040516104879190614215565b60405180910390f35b6104aa60048036038101906104a59190613b5a565b610f7e565b6040516104b791906139b0565b60405180910390f35b6104da60048036038101906104d59190613b11565b610f92565b005b6104e4610fc9565b6040516104f191906139b0565b60405180910390f35b610514600480360381019061050f9190613b5a565b610fe0565b6040516105219190614246565b60405180910390f35b610544600480360381019061053f9190614261565b611091565b005b610560600480360381019061055b91906142ec565b61113d565b005b61057c60048036038101906105779190613b5a565b6112c6565b6040516105899190614246565b60405180910390f35b61059a611377565b6040516105a79190613d49565b60405180910390f35b6105b861139b565b005b6105d460048036038101906105cf9190613fdc565b6113d0565b6040516105e191906139b0565b60405180910390f35b6105f261143b565b6040516105ff9190613d49565b60405180910390f35b610622600480360381019061061d919061439b565b611442565b005b61063e600480360381019061063991906143db565b611458565b005b61065a60048036038101906106559190613b5a565b611697565b60405161066791906138f5565b60405180910390f35b61068a600480360381019061068591906144a0565b6116b4565b005b610694611848565b6040516106a19190613d49565b60405180910390f35b6106c460048036038101906106bf9190613fdc565b61186c565b005b6106ce61188e565b6040516106db9190613d49565b60405180910390f35b6106fe60048036038101906106f99190614537565b6118b2565b60405161070b91906139b0565b60405180910390f35b61072e60048036038101906107299190614577565b611946565b005b61074a60048036038101906107459190613c84565b6119ee565b005b6000806107598484611a9a565b905060008114806107965750600073ffffffffffffffffffffffffffffffffffffffff168473ffffffffffffffffffffffffffffffffffffffff16145b156107a5576000915050610821565b6000600960008673ffffffffffffffffffffffffffffffffffffffff1673ffffffffffffffffffffffffffffffffffffffff16815260200190815260200160002060008581526020019081526020016000205490506000811415801561080b5750428111155b1561081b57600092505050610821565b81925050505b92915050565b600061083282611af4565b9050919050565b7f7804d923f43a17d325d77e781528e0793b2edd9890ab45fc64efd7b4b427744c61086381611b6e565b61086c82611b82565b5050565b606061087b82611b95565b9050919050565b600080600960008573ffffffffffffffffffffffffffffffffffffffff1673ffffffffffffffffffffffffffffffffffffffff1681526020019081526020016000206000848152602001908152602001600020549050600081141580156108e95750428111155b91505092915050565b7f7804d923f43a17d325d77e781528e0793b2edd9890ab45fc64efd7b4b427744c61091c81611b6e565b6109268383611c7a565b505050565b6000600654905090565b7f5bd33557d028fa6327a6c10090602e75b5763bcbc8c9d2f602672edd0eee7a0861095f81611b6e565b600061096b8585611a9a565b116109ab576040517f08c379a00000000000000000000000000000000000000000000000000000000081526004016109a290614680565b60405180910390fd5b81600960008673ffffffffffffffffffffffffffffffffffffffff1673ffffffffffffffffffffffffffffffffffffffff168152602001908152602001600020600085815260200190815260200160002081905550828473ffffffffffffffffffffffffffffffffffffffff167f1347ce935d48b1622e772cb855c5f27a0956e54f183acdd65752106fa013cd0884604051610a4791906138f5565b60405180910390a350505050565b600060036000838152602001908152602001600020600101549050919050565b610a7d611cdf565b73ffffffffffffffffffffffffffffffffffffffff16600b600084815260200190815260200160002060009054906101000a900473ffffffffffffffffffffffffffffffffffffffff1673ffffffffffffffffffffffffffffffffffffffff1614610b1d576040517f08c379a0000000000000000000000000000000000000000000000000000000008152600401610b1490614712565b60405180910390fd5b600073ffffffffffffffffffffffffffffffffffffffff168173ffffffffffffffffffffffffffffffffffffffff1603610b8c576040517f08c379a0000000000000000000000000000000000000000000000000000000008152600401610b83906147a4565b60405180910390fd5b6000600b600084815260200190815260200160002060009054906101000a900473ffffffffffffffffffffffffffffffffffffffff16905081600b600085815260200190815260200160002060006101000a81548173ffffffffffffffffffffffffffffffffffffffff021916908373ffffffffffffffffffffffffffffffffffffffff1602179055508173ffffffffffffffffffffffffffffffffffffffff168173ffffffffffffffffffffffffffffffffffffffff16847f16b85f49bf01212961345d3016c9a531894accf62eb7680f2045d79185cc0ec060405160405180910390a4505050565b6000600960008473ffffffffffffffffffffffffffffffffffffffff1673ffffffffffffffffffffffffffffffffffffffff168152602001908152602001600020600083815260200190815260200160002054905092915050565b6000610cdb611cdf565b90508073ffffffffffffffffffffffffffffffffffffffff168673ffffffffffffffffffffffffffffffffffffffff1614158015610d205750610d1e86826118b2565b155b15610d645780866040517fe237d922000000000000000000000000000000000000000000000000000000008152600401610d5b9291906147c4565b60405180910390fd5b610d718686868686611ce7565b505050505050565b610d8282610a55565b610d8b81611b6e565b610d958383611ddf565b50505050565b610da3611cdf565b73ffffffffffffffffffffffffffffffffffffffff168173ffffffffffffffffffffffffffffffffffffffff1614610e07576040517f6697b23200000000000000000000000000000000000000000000000000000000815260040160405180910390fd5b610e118282611ed1565b505050565b7f65d7a28e3265b37a6474929f336521b332c1681b933f6cb9f3376673440d862a610e4081611b6e565b610e48611fc4565b50565b7f5bd33557d028fa6327a6c10090602e75b5763bcbc8c9d2f602672edd0eee7a0881565b60608151835114610ebb57815183516040517f5b059991000000000000000000000000000000000000000000000000000000008152600401610eb29291906147ed565b60405180910390fd5b6000835167ffffffffffffffff811115610ed857610ed76139e6565b5b604051908082528060200260200182016040528015610f065781602001602082028036833780820191505090505b50905060005b8451811015610f7357610f43610f2b828761202790919063ffffffff16565b610f3e838761203b90919063ffffffff16565b61074c565b828281518110610f5657610f55614816565b5b60200260200101818152505080610f6c90614874565b9050610f0c565b508091505092915050565b600080610f8a83611697565b119050919050565b7f7804d923f43a17d325d77e781528e0793b2edd9890ab45fc64efd7b4b427744c610fbc81611b6e565b610fc58261204f565b5050565b6000600460009054906101000a900460ff16905090565b600080600b600084815260200190815260200160002060009054906101000a900473ffffffffffffffffffffffffffffffffffffffff169050600073ffffffffffffffffffffffffffffffffffffffff168173ffffffffffffffffffffffffffffffffffffffff1603611088576040517f08c379a000000000000000000000000000000000000000000000000000000000815260040161107f9061492e565b60405180910390fd5b80915050919050565b611099611cdf565b73ffffffffffffffffffffffffffffffffffffffff168373ffffffffffffffffffffffffffffffffffffffff16141580156110e257506110e0836110db611cdf565b6118b2565b155b1561112d576110ef611cdf565b836040517fe237d9220000000000000000000000000000000000000000000000000000000081526004016111249291906147c4565b60405180910390fd5b611138838383612062565b505050565b7f9f2df0fed2c77648de5860a4cc508cd0818c85b8b8a1ab4ceeef8d981c8956a661116781611b6e565b6000600a600086815260200190815260200160002060009054906101000a900473ffffffffffffffffffffffffffffffffffffffff169050600073ffffffffffffffffffffffffffffffffffffffff168173ffffffffffffffffffffffffffffffffffffffff161461120e576040517f08c379a00000000000000000000000000000000000000000000000000000000081526004016112059061499a565b60405180910390fd5b61121a868686866120f6565b85600a600087815260200190815260200160002060006101000a81548173ffffffffffffffffffffffffffffffffffffffff021916908373ffffffffffffffffffffffffffffffffffffffff16021790555085600b600087815260200190815260200160002060006101000a81548173ffffffffffffffffffffffffffffffffffffffff021916908373ffffffffffffffffffffffffffffffffffffffff160217905550505050505050565b600080600a600084815260200190815260200160002060009054906101000a900473ffffffffffffffffffffffffffffffffffffffff169050600073ffffffffffffffffffffffffffffffffffffffff168173ffffffffffffffffffffffffffffffffffffffff160361136e576040517f08c379a000000000000000000000000000000000000000000000000000000000815260040161136590614a06565b60405180910390fd5b80915050919050565b7f7804d923f43a17d325d77e781528e0793b2edd9890ab45fc64efd7b4b427744c81565b7f65d7a28e3265b37a6474929f336521b332c1681b933f6cb9f3376673440d862a6113c581611b6e565b6113cd61218f565b50565b60006003600084815260200190815260200160002060000160008373ffffffffffffffffffffffffffffffffffffffff1673ffffffffffffffffffffffffffffffffffffffff16815260200190815260200160002060009054906101000a900460ff16905092915050565b6000801b81565b61145461144d611cdf565b83836121f2565b5050565b6000600b600087815260200190815260200160002060009054906101000a900473ffffffffffffffffffffffffffffffffffffffff169050600073ffffffffffffffffffffffffffffffffffffffff168173ffffffffffffffffffffffffffffffffffffffff16036114ff576040517f08c379a00000000000000000000000000000000000000000000000000000000081526004016114f690614a98565b60405180910390fd5b6000878787306040516020016115189493929190614b21565b6040516020818303038152906040528051906020012060405160200161153e9190614be7565b60405160208183030381529060405280519060200120905060006115628285612362565b90508273ffffffffffffffffffffffffffffffffffffffff168173ffffffffffffffffffffffffffffffffffffffff16146115d2576040517f08c379a00000000000000000000000000000000000000000000000000000000081526004016115c990614c59565b60405180910390fd5b6115de898989886120f6565b600086111561168c5785600960008b73ffffffffffffffffffffffffffffffffffffffff1673ffffffffffffffffffffffffffffffffffffffff16815260200190815260200160002060008a815260200190815260200160002081905550878973ffffffffffffffffffffffffffffffffffffffff167f1347ce935d48b1622e772cb855c5f27a0956e54f183acdd65752106fa013cd088860405161168391906138f5565b60405180910390a35b505050505050505050565b600060056000838152602001908152602001600020549050919050565b7f9f2df0fed2c77648de5860a4cc508cd0818c85b8b8a1ab4ceeef8d981c8956a66116de81611b6e565b6000600b600087815260200190815260200160002060009054906101000a900473ffffffffffffffffffffffffffffffffffffffff169050600073ffffffffffffffffffffffffffffffffffffffff168173ffffffffffffffffffffffffffffffffffffffff1603611785576040517f08c379a000000000000000000000000000000000000000000000000000000000815260040161177c90614a98565b60405180910390fd5b611791878787866120f6565b600084111561183f5783600960008973ffffffffffffffffffffffffffffffffffffffff1673ffffffffffffffffffffffffffffffffffffffff168152602001908152602001600020600088815260200190815260200160002081905550858773ffffffffffffffffffffffffffffffffffffffff167f1347ce935d48b1622e772cb855c5f27a0956e54f183acdd65752106fa013cd088660405161183691906138f5565b60405180910390a35b50505050505050565b7f9f2df0fed2c77648de5860a4cc508cd0818c85b8b8a1ab4ceeef8d981c8956a681565b61187582610a55565b61187e81611b6e565b6118888383611ed1565b50505050565b7f65d7a28e3265b37a6474929f336521b332c1681b933f6cb9f3376673440d862a81565b6000600160008473ffffffffffffffffffffffffffffffffffffffff1673ffffffffffffffffffffffffffffffffffffffff16815260200190815260200160002060008373ffffffffffffffffffffffffffffffffffffffff1673ffffffffffffffffffffffffffffffffffffffff16815260200190815260200160002060009054906101000a900460ff16905092915050565b6000611950611cdf565b90508073ffffffffffffffffffffffffffffffffffffffff168673ffffffffffffffffffffffffffffffffffffffff1614158015611995575061199386826118b2565b155b156119d95780866040517fe237d9220000000000000000000000000000000000000000000000000000000081526004016119d09291906147c4565b60405180910390fd5b6119e6868686868661238e565b505050505050565b6119f6611cdf565b73ffffffffffffffffffffffffffffffffffffffff168373ffffffffffffffffffffffffffffffffffffffff1614158015611a3f5750611a3d83611a38611cdf565b6118b2565b155b15611a8a57611a4c611cdf565b836040517fe237d922000000000000000000000000000000000000000000000000000000008152600401611a819291906147c4565b60405180910390fd5b611a95838383612499565b505050565b600080600083815260200190815260200160002060008473ffffffffffffffffffffffffffffffffffffffff1673ffffffffffffffffffffffffffffffffffffffff16815260200190815260200160002054905092915050565b60007f7965db0b000000000000000000000000000000000000000000000000000000007bffffffffffffffffffffffffffffffffffffffffffffffffffffffff1916827bffffffffffffffffffffffffffffffffffffffffffffffffffffffff19161480611b675750611b6682612540565b5b9050919050565b611b7f81611b7a611cdf565b612622565b50565b8060029081611b919190614e85565b5050565b60606000600860008481526020019081526020016000208054611bb790614ca8565b80601f0160208091040260200160405190810160405280929190818152602001828054611be390614ca8565b8015611c305780601f10611c0557610100808354040283529160200191611c30565b820191906000526020600020905b815481529060010190602001808311611c1357829003601f168201915b505050505090506000815111611c4e57611c4983612673565b611c72565b600781604051602001611c6292919061500b565b6040516020818303038152906040525b915050919050565b80600860008481526020019081526020016000209081611c9a9190614e85565b50817f6bb7ff708619ba0610cba295a58592e0451dee2622938c8755667688daf3529b611cc684610870565b604051611cd39190613c06565b60405180910390a25050565b600033905090565b600073ffffffffffffffffffffffffffffffffffffffff168473ffffffffffffffffffffffffffffffffffffffff1603611d595760006040517f57f447ce000000000000000000000000000000000000000000000000000000008152600401611d509190614246565b60405180910390fd5b600073ffffffffffffffffffffffffffffffffffffffff168573ffffffffffffffffffffffffffffffffffffffff1603611dcb5760006040517f01a83514000000000000000000000000000000000000000000000000000000008152600401611dc29190614246565b60405180910390fd5b611dd88585858585612707565b5050505050565b6000611deb83836113d0565b611ec65760016003600085815260200190815260200160002060000160008473ffffffffffffffffffffffffffffffffffffffff1673ffffffffffffffffffffffffffffffffffffffff16815260200190815260200160002060006101000a81548160ff021916908315150217905550611e63611cdf565b73ffffffffffffffffffffffffffffffffffffffff168273ffffffffffffffffffffffffffffffffffffffff16847f2f8788117e7eff1d82e926ec794901d17c78024a50270940304540a733656f0d60405160405180910390a460019050611ecb565b600090505b92915050565b6000611edd83836113d0565b15611fb95760006003600085815260200190815260200160002060000160008473ffffffffffffffffffffffffffffffffffffffff1673ffffffffffffffffffffffffffffffffffffffff16815260200190815260200160002060006101000a81548160ff021916908315150217905550611f56611cdf565b73ffffffffffffffffffffffffffffffffffffffff168273ffffffffffffffffffffffffffffffffffffffff16847ff6391f5c32d9c69d2a47ea670b442974b53935d1edc7fd64eb21e047a839171b60405160405180910390a460019050611fbe565b600090505b92915050565b611fcc6127b9565b6000600460006101000a81548160ff0219169083151502179055507f5db9ee0a495bf2e6ff9c91a7834c1ba4fdd244a5e8aa4e537bd38aeae4b073aa612010611cdf565b60405161201d9190614246565b60405180910390a1565b600060208202602084010151905092915050565b600060208202602084010151905092915050565b806007908161205e9190614e85565b5050565b600073ffffffffffffffffffffffffffffffffffffffff168373ffffffffffffffffffffffffffffffffffffffff16036120d45760006040517f01a835140000000000000000000000000000000000000000000000000000000081526004016120cb9190614246565b60405180910390fd5b6120f1836000848460405180602001604052806000815250612707565b505050565b600073ffffffffffffffffffffffffffffffffffffffff168473ffffffffffffffffffffffffffffffffffffffff16036121685760006040517f57f447ce00000000000000000000000000000000000000000000000000000000815260040161215f9190614246565b60405180910390fd5b60008061217585856127f9565b91509150612187600087848487612707565b505050505050565b612197612829565b6001600460006101000a81548160ff0219169083151502179055507f62e78cea01bee320cd4e420270b5ea74000d11b0c9f74754ebdbfc544b05a2586121db611cdf565b6040516121e89190614246565b60405180910390a1565b600073ffffffffffffffffffffffffffffffffffffffff168273ffffffffffffffffffffffffffffffffffffffff16036122645760006040517fced3e10000000000000000000000000000000000000000000000000000000000815260040161225b9190614246565b60405180910390fd5b80600160008573ffffffffffffffffffffffffffffffffffffffff1673ffffffffffffffffffffffffffffffffffffffff16815260200190815260200160002060008473ffffffffffffffffffffffffffffffffffffffff1673ffffffffffffffffffffffffffffffffffffffff16815260200190815260200160002060006101000a81548160ff0219169083151502179055508173ffffffffffffffffffffffffffffffffffffffff168373ffffffffffffffffffffffffffffffffffffffff167f17307eab39ab6107e8899845ad3d59bd9653f200f220920489ca2b5937696c318360405161235591906139b0565b60405180910390a3505050565b600080600080612372868661286a565b92509250925061238282826128c6565b82935050505092915050565b600073ffffffffffffffffffffffffffffffffffffffff168473ffffffffffffffffffffffffffffffffffffffff16036124005760006040517f57f447ce0000000000000000000000000000000000000000000000000000000081526004016123f79190614246565b60405180910390fd5b600073ffffffffffffffffffffffffffffffffffffffff168573ffffffffffffffffffffffffffffffffffffffff16036124725760006040517f01a835140000000000000000000000000000000000000000000000000000000081526004016124699190614246565b60405180910390fd5b60008061247f85856127f9565b915091506124908787848487612707565b50505050505050565b600073ffffffffffffffffffffffffffffffffffffffff168373ffffffffffffffffffffffffffffffffffffffff160361250b5760006040517f01a835140000000000000000000000000000000000000000000000000000000081526004016125029190614246565b60405180910390fd5b60008061251884846127f9565b91509150612539856000848460405180602001604052806000815250612707565b5050505050565b60007fd9b67a26000000000000000000000000000000000000000000000000000000007bffffffffffffffffffffffffffffffffffffffffffffffffffffffff1916827bffffffffffffffffffffffffffffffffffffffffffffffffffffffff1916148061260b57507f0e89341c000000000000000000000000000000000000000000000000000000007bffffffffffffffffffffffffffffffffffffffffffffffffffffffff1916827bffffffffffffffffffffffffffffffffffffffffffffffffffffffff1916145b8061261b575061261a82612a2a565b5b9050919050565b61262c82826113d0565b61266f5780826040517fe2517d3f00000000000000000000000000000000000000000000000000000000815260040161266692919061502f565b60405180910390fd5b5050565b60606002805461268290614ca8565b80601f01602080910402602001604051908101604052809291908181526020018280546126ae90614ca8565b80156126fb5780601f106126d0576101008083540402835291602001916126fb565b820191906000526020600020905b8154815290600101906020018083116126de57829003601f168201915b50505050509050919050565b61271385858585612a94565b600073ffffffffffffffffffffffffffffffffffffffff168473ffffffffffffffffffffffffffffffffffffffff16146127b2576000612751611cdf565b905060018451036127a157600061277260008661203b90919063ffffffff16565b9050600061278a60008661203b90919063ffffffff16565b905061279a838989858589612e43565b50506127b0565b6127af818787878787612ff7565b5b505b5050505050565b6127c1610fc9565b6127f7576040517f8dfc202b00000000000000000000000000000000000000000000000000000000815260040160405180910390fd5b565b60608060405191506001825283602083015260408201905060018152826020820152604081016040529250929050565b612831610fc9565b15612868576040517fd93c066500000000000000000000000000000000000000000000000000000000815260040160405180910390fd5b565b600080600060418451036128af5760008060006020870151925060408701519150606087015160001a90506128a1888285856131ab565b9550955095505050506128bf565b60006002855160001b9250925092505b9250925092565b600060038111156128da576128d9615058565b5b8260038111156128ed576128ec615058565b5b0315612a26576001600381111561290757612906615058565b5b82600381111561291a57612919615058565b5b03612951576040517ff645eedf00000000000000000000000000000000000000000000000000000000815260040160405180910390fd5b6002600381111561296557612964615058565b5b82600381111561297857612977615058565b5b036129bd578060001c6040517ffce698f70000000000000000000000000000000000000000000000000000000081526004016129b491906138f5565b60405180910390fd5b6003808111156129d0576129cf615058565b5b8260038111156129e3576129e2615058565b5b03612a2557806040517fd78bce0c000000000000000000000000000000000000000000000000000000008152600401612a1c9190613d49565b60405180910390fd5b5b5050565b60007f01ffc9a7000000000000000000000000000000000000000000000000000000007bffffffffffffffffffffffffffffffffffffffffffffffffffffffff1916827bffffffffffffffffffffffffffffffffffffffffffffffffffffffff1916149050919050565b600073ffffffffffffffffffffffffffffffffffffffff168473ffffffffffffffffffffffffffffffffffffffff1614158015612afe5750600073ffffffffffffffffffffffffffffffffffffffff168373ffffffffffffffffffffffffffffffffffffffff1614155b15612b7457612b347f9f2df0fed2c77648de5860a4cc508cd0818c85b8b8a1ab4ceeef8d981c8956a6612b2f611cdf565b6113d0565b612b73576040517f08c379a0000000000000000000000000000000000000000000000000000000008152600401612b6a906150f9565b60405180910390fd5b5b600073ffffffffffffffffffffffffffffffffffffffff168473ffffffffffffffffffffffffffffffffffffffff1614612ce35760005b8251811015612ce1576000828281518110612bc957612bc8614816565b5b60200260200101511115612cce576000600960008773ffffffffffffffffffffffffffffffffffffffff1673ffffffffffffffffffffffffffffffffffffffff1681526020019081526020016000206000858481518110612c2d57612c2c614816565b5b6020026020010151815260200190815260200160002054905060008114158015612c575750428111155b15612ccc57600073ffffffffffffffffffffffffffffffffffffffff168573ffffffffffffffffffffffffffffffffffffffff1614612ccb576040517f08c379a0000000000000000000000000000000000000000000000000000000008152600401612cc29061518b565b60405180910390fd5b5b505b8080612cd990614874565b915050612bab565b505b612cef8484848461329f565b600073ffffffffffffffffffffffffffffffffffffffff168373ffffffffffffffffffffffffffffffffffffffff1614158015612d595750600073ffffffffffffffffffffffffffffffffffffffff168473ffffffffffffffffffffffffffffffffffffffff1614155b15612e3d5760005b8251811015612e3b576000828281518110612d7f57612d7e614816565b5b60200260200101511115612e28576000612db386858481518110612da657612da5614816565b5b6020026020010151611a9a565b03612e2757600960008673ffffffffffffffffffffffffffffffffffffffff1673ffffffffffffffffffffffffffffffffffffffff1681526020019081526020016000206000848381518110612e0c57612e0b614816565b5b60200260200101518152602001908152602001600020600090555b5b8080612e3390614874565b915050612d61565b505b50505050565b60008473ffffffffffffffffffffffffffffffffffffffff163b1115612fef578373ffffffffffffffffffffffffffffffffffffffff1663f23a6e6187878686866040518663ffffffff1660e01b8152600401612ea4959493929190615200565b6020604051808303816000875af1925050508015612ee057506040513d601f19601f82011682018060405250810190612edd919061526f565b60015b612f64573d8060008114612f10576040519150601f19603f3d011682016040523d82523d6000602084013e612f15565b606091505b506000815103612f5c57846040517f57f447ce000000000000000000000000000000000000000000000000000000008152600401612f539190614246565b60405180910390fd5b805181602001fd5b63f23a6e6160e01b7bffffffffffffffffffffffffffffffffffffffffffffffffffffffff1916817bffffffffffffffffffffffffffffffffffffffffffffffffffffffff191614612fed57846040517f57f447ce000000000000000000000000000000000000000000000000000000008152600401612fe49190614246565b60405180910390fd5b505b505050505050565b60008473ffffffffffffffffffffffffffffffffffffffff163b11156131a3578373ffffffffffffffffffffffffffffffffffffffff1663bc197c8187878686866040518663ffffffff1660e01b815260040161305895949392919061529c565b6020604051808303816000875af192505050801561309457506040513d601f19601f82011682018060405250810190613091919061526f565b60015b613118573d80600081146130c4576040519150601f19603f3d011682016040523d82523d6000602084013e6130c9565b606091505b50600081510361311057846040517f57f447ce0000000000000000000000000000000000000000000000000000000081526004016131079190614246565b60405180910390fd5b805181602001fd5b63bc197c8160e01b7bffffffffffffffffffffffffffffffffffffffffffffffffffffffff1916817bffffffffffffffffffffffffffffffffffffffffffffffffffffffff1916146131a157846040517f57f447ce0000000000000000000000000000000000000000000000000000000081526004016131989190614246565b60405180910390fd5b505b505050505050565b60008060007f7fffffffffffffffffffffffffffffff5d576e7357a4501ddfe92f46681b20a08460001c11156131eb576000600385925092509250613295565b6000600188888888604051600081526020016040526040516132109493929190615320565b6020604051602081039080840390855afa158015613232573d6000803e3d6000fd5b505050602060405103519050600073ffffffffffffffffffffffffffffffffffffffff168173ffffffffffffffffffffffffffffffffffffffff160361328657600060016000801b93509350935050613295565b8060008060001b935093509350505b9450945094915050565b6132ab84848484613436565b600073ffffffffffffffffffffffffffffffffffffffff168473ffffffffffffffffffffffffffffffffffffffff160361337b576000805b835181101561335f576000613301828561203b90919063ffffffff16565b9050806005600061331b858961203b90919063ffffffff16565b815260200190815260200160002060008282546133389190615365565b92505081905550808361334b9190615365565b9250508061335890614874565b90506132e3565b5080600660008282546133729190615365565b92505081905550505b600073ffffffffffffffffffffffffffffffffffffffff168373ffffffffffffffffffffffffffffffffffffffff1603613430576000805b835181101561341d5760006133d1828561203b90919063ffffffff16565b905080600560006133eb858961203b90919063ffffffff16565b8152602001908152602001600020600082825403925050819055508083019250508061341690614874565b90506133b3565b5080600660008282540392505081905550505b50505050565b61343e612829565b61344a84848484613450565b50505050565b805182511461349a57815181516040517f5b0599910000000000000000000000000000000000000000000000000000000081526004016134919291906147ed565b60405180910390fd5b60006134a4611cdf565b905060005b83518110156136b95760006134c7828661203b90919063ffffffff16565b905060006134de838661203b90919063ffffffff16565b9050600073ffffffffffffffffffffffffffffffffffffffff168873ffffffffffffffffffffffffffffffffffffffff161461360b57600080600084815260200190815260200160002060008a73ffffffffffffffffffffffffffffffffffffffff1673ffffffffffffffffffffffffffffffffffffffff168152602001908152602001600020549050818110156135b357888183856040517f03dee4c50000000000000000000000000000000000000000000000000000000081526004016135aa9493929190615399565b60405180910390fd5b81810360008085815260200190815260200160002060008b73ffffffffffffffffffffffffffffffffffffffff1673ffffffffffffffffffffffffffffffffffffffff16815260200190815260200160002081905550505b600073ffffffffffffffffffffffffffffffffffffffff168773ffffffffffffffffffffffffffffffffffffffff16146136a6578060008084815260200190815260200160002060008973ffffffffffffffffffffffffffffffffffffffff1673ffffffffffffffffffffffffffffffffffffffff168152602001908152602001600020600082825461369e9190615365565b925050819055505b5050806136b290614874565b90506134a9565b5060018351036137785760006136d960008561203b90919063ffffffff16565b905060006136f160008561203b90919063ffffffff16565b90508573ffffffffffffffffffffffffffffffffffffffff168773ffffffffffffffffffffffffffffffffffffffff168473ffffffffffffffffffffffffffffffffffffffff167fc3d58168c5ae7397731d063d5bbf3d657854427343f4c083240f7aacaa2d0f6285856040516137699291906147ed565b60405180910390a450506137f7565b8373ffffffffffffffffffffffffffffffffffffffff168573ffffffffffffffffffffffffffffffffffffffff168273ffffffffffffffffffffffffffffffffffffffff167f4a39dc06d4c0dbc64b70af90fd698a233a518aa5d07e595d983b8c0526c8f7fb86866040516137ee9291906153de565b60405180910390a45b5050505050565b6000604051905090565b600080fd5b600080fd5b600073ffffffffffffffffffffffffffffffffffffffff82169050919050565b600061383d82613812565b9050919050565b61384d81613832565b811461385857600080fd5b50565b60008135905061386a81613844565b92915050565b6000819050919050565b61388381613870565b811461388e57600080fd5b50565b6000813590506138a08161387a565b92915050565b600080604083850312156138bd576138bc613808565b5b60006138cb8582860161385b565b92505060206138dc85828601613891565b9150509250929050565b6138ef81613870565b82525050565b600060208201905061390a60008301846138e6565b92915050565b60007fffffffff0000000000000000000000000000000000000000000000000000000082169050919050565b61394581613910565b811461395057600080fd5b50565b6000813590506139628161393c565b92915050565b60006020828403121561397e5761397d613808565b5b600061398c84828501613953565b91505092915050565b60008115159050919050565b6139aa81613995565b82525050565b60006020820190506139c560008301846139a1565b92915050565b600080fd5b600080fd5b6000601f19601f8301169050919050565b7f4e487b7100000000000000000000000000000000000000000000000000000000600052604160045260246000fd5b613a1e826139d5565b810181811067ffffffffffffffff82111715613a3d57613a3c6139e6565b5b80604052505050565b6000613a506137fe565b9050613a5c8282613a15565b919050565b600067ffffffffffffffff821115613a7c57613a7b6139e6565b5b613a85826139d5565b9050602081019050919050565b82818337600083830152505050565b6000613ab4613aaf84613a61565b613a46565b905082815260208101848484011115613ad057613acf6139d0565b5b613adb848285613a92565b509392505050565b600082601f830112613af857613af76139cb565b5b8135613b08848260208601613aa1565b91505092915050565b600060208284031215613b2757613b26613808565b5b600082013567ffffffffffffffff811115613b4557613b4461380d565b5b613b5184828501613ae3565b91505092915050565b600060208284031215613b7057613b6f613808565b5b6000613b7e84828501613891565b91505092915050565b600081519050919050565b600082825260208201905092915050565b60005b83811015613bc1578082015181840152602081019050613ba6565b60008484015250505050565b6000613bd882613b87565b613be28185613b92565b9350613bf2818560208601613ba3565b613bfb816139d5565b840191505092915050565b60006020820190508181036000830152613c208184613bcd565b905092915050565b60008060408385031215613c3f57613c3e613808565b5b6000613c4d85828601613891565b925050602083013567ffffffffffffffff811115613c6e57613c6d61380d565b5b613c7a85828601613ae3565b9150509250929050565b600080600060608486031215613c9d57613c9c613808565b5b6000613cab8682870161385b565b9350506020613cbc86828701613891565b9250506040613ccd86828701613891565b9150509250925092565b6000819050919050565b613cea81613cd7565b8114613cf557600080fd5b50565b600081359050613d0781613ce1565b92915050565b600060208284031215613d2357613d22613808565b5b6000613d3184828501613cf8565b91505092915050565b613d4381613cd7565b82525050565b6000602082019050613d5e6000830184613d3a565b92915050565b60008060408385031215613d7b57613d7a613808565b5b6000613d8985828601613891565b9250506020613d9a8582860161385b565b9150509250929050565b600067ffffffffffffffff821115613dbf57613dbe6139e6565b5b602082029050602081019050919050565b600080fd5b6000613de8613de384613da4565b613a46565b90508083825260208201905060208402830185811115613e0b57613e0a613dd0565b5b835b81811015613e345780613e208882613891565b845260208401935050602081019050613e0d565b5050509392505050565b600082601f830112613e5357613e526139cb565b5b8135613e63848260208601613dd5565b91505092915050565b600067ffffffffffffffff821115613e8757613e866139e6565b5b613e90826139d5565b9050602081019050919050565b6000613eb0613eab84613e6c565b613a46565b905082815260208101848484011115613ecc57613ecb6139d0565b5b613ed7848285613a92565b509392505050565b600082601f830112613ef457613ef36139cb565b5b8135613f04848260208601613e9d565b91505092915050565b600080600080600060a08688031215613f2957613f28613808565b5b6000613f378882890161385b565b9550506020613f488882890161385b565b945050604086013567ffffffffffffffff811115613f6957613f6861380d565b5b613f7588828901613e3e565b935050606086013567ffffffffffffffff811115613f9657613f9561380d565b5b613fa288828901613e3e565b925050608086013567ffffffffffffffff811115613fc357613fc261380d565b5b613fcf88828901613edf565b9150509295509295909350565b60008060408385031215613ff357613ff2613808565b5b600061400185828601613cf8565b92505060206140128582860161385b565b9150509250929050565b600067ffffffffffffffff821115614037576140366139e6565b5b602082029050602081019050919050565b600061405b6140568461401c565b613a46565b9050808382526020820190506020840283018581111561407e5761407d613dd0565b5b835b818110156140a75780614093888261385b565b845260208401935050602081019050614080565b5050509392505050565b600082601f8301126140c6576140c56139cb565b5b81356140d6848260208601614048565b91505092915050565b600080604083850312156140f6576140f5613808565b5b600083013567ffffffffffffffff8111156141145761411361380d565b5b614120858286016140b1565b925050602083013567ffffffffffffffff8111156141415761414061380d565b5b61414d85828601613e3e565b9150509250929050565b600081519050919050565b600082825260208201905092915050565b6000819050602082019050919050565b61418c81613870565b82525050565b600061419e8383614183565b60208301905092915050565b6000602082019050919050565b60006141c282614157565b6141cc8185614162565b93506141d783614173565b8060005b838110156142085781516141ef8882614192565b97506141fa836141aa565b9250506001810190506141db565b5085935050505092915050565b6000602082019050818103600083015261422f81846141b7565b905092915050565b61424081613832565b82525050565b600060208201905061425b6000830184614237565b92915050565b60008060006060848603121561427a57614279613808565b5b60006142888682870161385b565b935050602084013567ffffffffffffffff8111156142a9576142a861380d565b5b6142b586828701613e3e565b925050604084013567ffffffffffffffff8111156142d6576142d561380d565b5b6142e286828701613e3e565b9150509250925092565b6000806000806080858703121561430657614305613808565b5b60006143148782880161385b565b945050602061432587828801613891565b935050604061433687828801613891565b925050606085013567ffffffffffffffff8111156143575761435661380d565b5b61436387828801613edf565b91505092959194509250565b61437881613995565b811461438357600080fd5b50565b6000813590506143958161436f565b92915050565b600080604083850312156143b2576143b1613808565b5b60006143c08582860161385b565b92505060206143d185828601614386565b9150509250929050565b60008060008060008060c087890312156143f8576143f7613808565b5b600061440689828a0161385b565b965050602061441789828a01613891565b955050604061442889828a01613891565b945050606061443989828a01613891565b935050608087013567ffffffffffffffff81111561445a5761445961380d565b5b61446689828a01613edf565b92505060a087013567ffffffffffffffff8111156144875761448661380d565b5b61449389828a01613edf565b9150509295509295509295565b600080600080600060a086880312156144bc576144bb613808565b5b60006144ca8882890161385b565b95505060206144db88828901613891565b94505060406144ec88828901613891565b93505060606144fd88828901613891565b925050608086013567ffffffffffffffff81111561451e5761451d61380d565b5b61452a88828901613edf565b9150509295509295909350565b6000806040838503121561454e5761454d613808565b5b600061455c8582860161385b565b925050602061456d8582860161385b565b9150509250929050565b600080600080600060a0868803121561459357614592613808565b5b60006145a18882890161385b565b95505060206145b28882890161385b565b94505060406145c388828901613891565b93505060606145d488828901613891565b925050608086013567ffffffffffffffff8111156145f5576145f461380d565b5b61460188828901613edf565b9150509295509295909350565b7f4950446f635631323a204163636f756e7420686173206e6f2062616c616e636560008201527f20746f2065787069726500000000000000000000000000000000000000000000602082015250565b600061466a602a83613b92565b91506146758261460e565b604082019050919050565b600060208201905081810360008301526146998161465d565b9050919050565b7f4950446f635631323a206f6e6c792063757272656e74206f776e65722063616e60008201527f207472616e73666572206f776e65727368697000000000000000000000000000602082015250565b60006146fc603383613b92565b9150614707826146a0565b604082019050919050565b6000602082019050818103600083015261472b816146ef565b9050919050565b7f4950446f635631323a2063616e6e6f74207472616e73666572206f776e65727360008201527f68697020746f20746865207a65726f2061646472657373000000000000000000602082015250565b600061478e603783613b92565b915061479982614732565b604082019050919050565b600060208201905081810360008301526147bd81614781565b9050919050565b60006040820190506147d96000830185614237565b6147e66020830184614237565b9392505050565b600060408201905061480260008301856138e6565b61480f60208301846138e6565b9392505050565b7f4e487b7100000000000000000000000000000000000000000000000000000000600052603260045260246000fd5b7f4e487b7100000000000000000000000000000000000000000000000000000000600052601160045260246000fd5b600061487f82613870565b91507fffffffffffffffffffffffffffffffffffffffffffffffffffffffffffffffff82036148b1576148b0614845565b5b600182019050919050565b7f4950446f635631323a20746f6b656e20646f6573206e6f74206578697374206f60008201527f72206f776e657273686970206e6f74206578706c696369746c79207365740000602082015250565b6000614918603e83613b92565b9150614923826148bc565b604082019050919050565b600060208201905081810360008301526149478161490b565b9050919050565b7f4950446f635631323a20746f6b656e20616c7265616479206973206f776e6564600082015250565b6000614984602083613b92565b915061498f8261494e565b602082019050919050565b600060208201905081810360008301526149b381614977565b9050919050565b7f4950446f635631323a20746f6b656e20646f6573206e6f742065786973740000600082015250565b60006149f0601e83613b92565b91506149fb826149ba565b602082019050919050565b60006020820190508181036000830152614a1f816149e3565b9050919050565b7f4950446f635631323a20746f6b656e20646f6573206e6f74206578697374206f60008201527f7220686173206e6f206f776e6572000000000000000000000000000000000000602082015250565b6000614a82602e83613b92565b9150614a8d82614a26565b604082019050919050565b60006020820190508181036000830152614ab181614a75565b9050919050565b60008160601b9050919050565b6000614ad082614ab8565b9050919050565b6000614ae282614ac5565b9050919050565b614afa614af582613832565b614ad7565b82525050565b6000819050919050565b614b1b614b1682613870565b614b00565b82525050565b6000614b2d8287614ae9565b601482019150614b3d8286614b0a565b602082019150614b4d8285614b0a565b602082019150614b5d8284614ae9565b60148201915081905095945050505050565b600081905092915050565b7f19457468657265756d205369676e6564204d6573736167653a0a333200000000600082015250565b6000614bb0601c83614b6f565b9150614bbb82614b7a565b601c82019050919050565b6000819050919050565b614be1614bdc82613cd7565b614bc6565b82525050565b6000614bf282614ba3565b9150614bfe8284614bd0565b60208201915081905092915050565b7f4950446f635631323a20696e76616c6964207369676e61747572650000000000600082015250565b6000614c43601b83613b92565b9150614c4e82614c0d565b602082019050919050565b60006020820190508181036000830152614c7281614c36565b9050919050565b7f4e487b7100000000000000000000000000000000000000000000000000000000600052602260045260246000fd5b60006002820490506001821680614cc057607f821691505b602082108103614cd357614cd2614c79565b5b50919050565b60008190508160005260206000209050919050565b60006020601f8301049050919050565b600082821b905092915050565b600060088302614d3b7fffffffffffffffffffffffffffffffffffffffffffffffffffffffffffffffff82614cfe565b614d458683614cfe565b95508019841693508086168417925050509392505050565b6000819050919050565b6000614d82614d7d614d7884613870565b614d5d565b613870565b9050919050565b6000819050919050565b614d9c83614d67565b614db0614da882614d89565b848454614d0b565b825550505050565b600090565b614dc5614db8565b614dd0818484614d93565b505050565b5b81811015614df457614de9600082614dbd565b600181019050614dd6565b5050565b601f821115614e3957614e0a81614cd9565b614e1384614cee565b81016020851015614e22578190505b614e36614e2e85614cee565b830182614dd5565b50505b505050565b600082821c905092915050565b6000614e5c60001984600802614e3e565b1980831691505092915050565b6000614e758383614e4b565b9150826002028217905092915050565b614e8e82613b87565b67ffffffffffffffff811115614ea757614ea66139e6565b5b614eb18254614ca8565b614ebc828285614df8565b600060209050601f831160018114614eef5760008415614edd578287015190505b614ee78582614e69565b865550614f4f565b601f198416614efd86614cd9565b60005b82811015614f2557848901518255600182019150602085019450602081019050614f00565b86831015614f425784890151614f3e601f891682614e4b565b8355505b6001600288020188555050505b505050505050565b60008154614f6481614ca8565b614f6e8186614b6f565b94506001821660008114614f895760018114614f9e57614fd1565b60ff1983168652811515820286019350614fd1565b614fa785614cd9565b60005b83811015614fc957815481890152600182019150602081019050614faa565b838801955050505b50505092915050565b6000614fe582613b87565b614fef8185614b6f565b9350614fff818560208601613ba3565b80840191505092915050565b60006150178285614f57565b91506150238284614fda565b91508190509392505050565b60006040820190506150446000830185614237565b6150516020830184613d3a565b9392505050565b7f4e487b7100000000000000000000000000000000000000000000000000000000600052602160045260246000fd5b7f4950446f635631323a206d7573742068617665206d696e74657220726f6c652060008201527f746f207472616e73666572000000000000000000000000000000000000000000602082015250565b60006150e3602b83613b92565b91506150ee82615087565b604082019050919050565b60006020820190508181036000830152615112816150d6565b9050919050565b7f4950446f635631323a2043616e6e6f74207472616e736665722065787069726560008201527f6420746f6b656e732065786365707420746f206275726e000000000000000000602082015250565b6000615175603783613b92565b915061518082615119565b604082019050919050565b600060208201905081810360008301526151a481615168565b9050919050565b600081519050919050565b600082825260208201905092915050565b60006151d2826151ab565b6151dc81856151b6565b93506151ec818560208601613ba3565b6151f5816139d5565b840191505092915050565b600060a0820190506152156000830188614237565b6152226020830187614237565b61522f60408301866138e6565b61523c60608301856138e6565b818103608083015261524e81846151c7565b90509695505050505050565b6000815190506152698161393c565b92915050565b60006020828403121561528557615284613808565b5b60006152938482850161525a565b91505092915050565b600060a0820190506152b16000830188614237565b6152be6020830187614237565b81810360408301526152d081866141b7565b905081810360608301526152e481856141b7565b905081810360808301526152f881846151c7565b90509695505050505050565b600060ff82169050919050565b61531a81615304565b82525050565b60006080820190506153356000830187613d3a565b6153426020830186615311565b61534f6040830185613d3a565b61535c6060830184613d3a565b95945050505050565b600061537082613870565b915061537b83613870565b925082820190508082111561539357615392614845565b5b92915050565b60006080820190506153ae6000830187614237565b6153bb60208301866138e6565b6153c860408301856138e6565b6153d560608301846138e6565b95945050505050565b600060408201905081810360008301526153f881856141b7565b9050818103602083015261540c81846141b7565b9050939250505056fea264697066735822122018b79c7b6813e131c3c950472f79e87eabaaeb89f3ab750bd9ef140e5dbf572264736f6c63430008140033",
  "linkReferences": {},
  "deployedLinkReferences": {}
}