{
  "_format": "hh-sol-artifact-1",
  "contractName": "IPDocV4",
  "sourceName": "contracts/IDDocV4.sol",
  "abi": [
    {
      "inputs": [
        {
          "internalType": "address",
          "name": "defaultAdmin",
          "type": "address"
        },
        {
          "internalType": "address",
          "name": "pauser",
          "type": "address"
        },
        {
          "internalType": "address",
          "name": "minter",
          "type": "address"
        }
      ],
      "stateMutability": "nonpayable",
      "type": "constructor"
    },
    {
      "inputs": [],
      "name": "AccessControlBadConfirmation",
      "type": "error"
    },
    {
      "inputs": [
        {
          "internalType": "address",
          "name": "account",
          "type": "address"
        },
        {
          "internalType": "bytes32",
          "name": "neededRole",
          "type": "bytes32"
        }
      ],
      "name": "AccessControlUnauthorizedAccount",
      "type": "error"
    },
    {
      "inputs": [
        {
          "internalType": "address",
          "name": "sender",
          "type": "address"
        },
        {
          "internalType": "uint256",
          "name": "balance",
          "type": "uint256"
        },
        {
          "internalType": "uint256",
          "name": "needed",
          "type": "uint256"
        },
        {
          "internalType": "uint256",
          "name": "tokenId",
          "type": "uint256"
        }
      ],
      "name": "ERC1155InsufficientBalance",
      "type": "error"
    },
    {
      "inputs": [
        {
          "internalType": "address",
          "name": "approver",
          "type": "address"
        }
      ],
      "name": "ERC1155InvalidApprover",
      "type": "error"
    },
    {
      "inputs": [
        {
          "internalType": "uint256",
          "name": "idsLength",
          "type": "uint256"
        },
        {
          "internalType": "uint256",
          "name": "valuesLength",
          "type": "uint256"
        }
      ],
      "name": "ERC1155InvalidArrayLength",
      "type": "error"
    },
    {
      "inputs": [
        {
          "internalType": "address",
          "name": "operator",
          "type": "address"
        }
      ],
      "name": "ERC1155InvalidOperator",
      "type": "error"
    },
    {
      "inputs": [
        {
          "internalType": "address",
          "name": "receiver",
          "type": "address"
        }
      ],
      "name": "ERC1155InvalidReceiver",
      "type": "error"
    },
    {
      "inputs": [
        {
          "internalType": "address",
          "name": "sender",
          "type": "address"
        }
      ],
      "name": "ERC1155InvalidSender",
      "type": "error"
    },
    {
      "inputs": [
        {
          "internalType": "address",
          "name": "operator",
          "type": "address"
        },
        {
          "internalType": "address",
          "name": "owner",
          "type": "address"
        }
      ],
      "name": "ERC1155MissingApprovalForAll",
      "type": "error"
    },
    {
      "inputs": [],
      "name": "EnforcedPause",
      "type": "error"
    },
    {
      "inputs": [],
      "name": "ExpectedPause",
      "type": "error"
    },
    {
      "anonymous": false,
      "inputs": [
        {
          "indexed": true,
          "internalType": "address",
          "name": "account",
          "type": "address"
        },
        {
          "indexed": true,
          "internalType": "address",
          "name": "operator",
          "type": "address"
        },
        {
          "indexed": false,
          "internalType": "bool",
          "name": "approved",
          "type": "bool"
        }
      ],
      "name": "ApprovalForAll",
      "type": "event"
    },
    {
      "anonymous": false,
      "inputs": [
        {
          "indexed": false,
          "internalType": "address",
          "name": "account",
          "type": "address"
        }
      ],
      "name": "Paused",
      "type": "event"
    },
    {
      "anonymous": false,
      "inputs": [
        {
          "indexed": true,
          "internalType": "bytes32",
          "name": "role",
          "type": "bytes32"
        },
        {
          "indexed": true,
          "internalType": "bytes32",
          "name": "previousAdminRole",
          "type": "bytes32"
        },
        {
          "indexed": true,
          "internalType": "bytes32",
          "name": "newAdminRole",
          "type": "bytes32"
        }
      ],
      "name": "RoleAdminChanged",
      "type": "event"
    },
    {
      "anonymous": false,
      "inputs": [
        {
          "indexed": true,
          "internalType": "bytes32",
          "name": "role",
          "type": "bytes32"
        },
        {
          "indexed": true,
          "internalType": "address",
          "name": "account",
          "type": "address"
        },
        {
          "indexed": true,
          "internalType": "address",
          "name": "sender",
          "type": "address"
        }
      ],
      "name": "RoleGranted",
      "type": "event"
    },
    {
      "anonymous": false,
      "inputs": [
        {
          "indexed": true,
          "internalType": "bytes32",
          "name": "role",
          "type": "bytes32"
        },
        {
          "indexed": true,
          "internalType": "address",
          "name": "account",
          "type": "address"
        },
        {
          "indexed": true,
          "internalType": "address",
          "name": "sender",
          "type": "address"
        }
      ],
      "name": "RoleRevoked",
      "type": "event"
    },
    {
      "anonymous": false,
      "inputs": [
        {
          "indexed": true,
          "internalType": "address",
          "name": "operator",
          "type": "address"
        },
        {
          "indexed": true,
          "internalType": "address",
          "name": "from",
          "type": "address"
        },
        {
          "indexed": true,
          "internalType": "address",
          "name": "to",
          "type": "address"
        },
        {
          "indexed": false,
          "internalType": "uint256[]",
          "name": "ids",
          "type": "uint256[]"
        },
        {
          "indexed": false,
          "internalType": "uint256[]",
          "name": "values",
          "type": "uint256[]"
        }
      ],
      "name": "TransferBatch",
      "type": "event"
    },
    {
      "anonymous": false,
      "inputs": [
        {
          "indexed": true,
          "internalType": "address",
          "name": "operator",
          "type": "address"
        },
        {
          "indexed": true,
          "internalType": "address",
          "name": "from",
          "type": "address"
        },
        {
          "indexed": true,
          "internalType": "address",
          "name": "to",
          "type": "address"
        },
        {
          "indexed": false,
          "internalType": "uint256",
          "name": "id",
          "type": "uint256"
        },
        {
          "indexed": false,
          "internalType": "uint256",
          "name": "value",
          "type": "uint256"
        }
      ],
      "name": "TransferSingle",
      "type": "event"
    },
    {
      "anonymous": false,
      "inputs": [
        {
          "indexed": false,
          "internalType": "string",
          "name": "value",
          "type": "string"
        },
        {
          "indexed": true,
          "internalType": "uint256",
          "name": "id",
          "type": "uint256"
        }
      ],
      "name": "URI",
      "type": "event"
    },
    {
      "anonymous": false,
      "inputs": [
        {
          "indexed": false,
          "internalType": "address",
          "name": "account",
          "type": "address"
        }
      ],
      "name": "Unpaused",
      "type": "event"
    },
    {
      "inputs": [],
      "name": "DEFAULT_ADMIN_ROLE",
      "outputs": [
        {
          "internalType": "bytes32",
          "name": "",
          "type": "bytes32"
        }
      ],
      "stateMutability": "view",
      "type": "function"
    },
    {
      "inputs": [],
      "name": "MINTER_ROLE",
      "outputs": [
        {
          "internalType": "bytes32",
          "name": "",
          "type": "bytes32"
        }
      ],
      "stateMutability": "view",
      "type": "function"
    },
    {
      "inputs": [],
      "name": "PAUSER_ROLE",
      "outputs": [
        {
          "internalType": "bytes32",
          "name": "",
          "type": "bytes32"
        }
      ],
      "stateMutability": "view",
      "type": "function"
    },
    {
      "inputs": [],
      "name": "URI_SETTER_ROLE",
      "outputs": [
        {
          "internalType": "bytes32",
          "name": "",
          "type": "bytes32"
        }
      ],
      "stateMutability": "view",
      "type": "function"
    },
    {
      "inputs": [
        {
          "internalType": "address",
          "name": "account",
          "type": "address"
        },
        {
          "internalType": "uint256",
          "name": "id",
          "type": "uint256"
        }
      ],
      "name": "balanceOf",
      "outputs": [
        {
          "internalType": "uint256",
          "name": "",
          "type": "uint256"
        }
      ],
      "stateMutability": "view",
      "type": "function"
    },
    {
      "inputs": [
        {
          "internalType": "address[]",
          "name": "accounts",
          "type": "address[]"
        },
        {
          "internalType": "uint256[]",
          "name": "ids",
          "type": "uint256[]"
        }
      ],
      "name": "balanceOfBatch",
      "outputs": [
        {
          "internalType": "uint256[]",
          "name": "",
          "type": "uint256[]"
        }
      ],
      "stateMutability": "view",
      "type": "function"
    },
    {
      "inputs": [
        {
          "internalType": "address",
          "name": "account",
          "type": "address"
        },
        {
          "internalType": "uint256",
          "name": "id",
          "type": "uint256"
        },
        {
          "internalType": "uint256",
          "name": "value",
          "type": "uint256"
        }
      ],
      "name": "burn",
      "outputs": [],
      "stateMutability": "nonpayable",
      "type": "function"
    },
    {
      "inputs": [
        {
          "internalType": "address",
          "name": "account",
          "type": "address"
        },
        {
          "internalType": "uint256[]",
          "name": "ids",
          "type": "uint256[]"
        },
        {
          "internalType": "uint256[]",
          "name": "values",
          "type": "uint256[]"
        }
      ],
      "name": "burnBatch",
      "outputs": [],
      "stateMutability": "nonpayable",
      "type": "function"
    },
    {
      "inputs": [
        {
          "internalType": "bytes32",
          "name": "externalId",
          "type": "bytes32"
        }
      ],
      "name": "createId",
      "outputs": [
        {
          "internalType": "uint256",
          "name": "",
          "type": "uint256"
        }
      ],
      "stateMutability": "nonpayable",
      "type": "function"
    },
    {
      "inputs": [
        {
          "internalType": "bytes32[]",
          "name": "externalIds",
          "type": "bytes32[]"
        }
      ],
      "name": "createIds",
      "outputs": [
        {
          "internalType": "uint256[]",
          "name": "",
          "type": "uint256[]"
        }
      ],
      "stateMutability": "nonpayable",
      "type": "function"
    },
    {
      "inputs": [
        {
          "internalType": "uint256",
          "name": "id",
          "type": "uint256"
        }
      ],
      "name": "exists",
      "outputs": [
        {
          "internalType": "bool",
          "name": "",
          "type": "bool"
        }
      ],
      "stateMutability": "view",
      "type": "function"
    },
    {
      "inputs": [
        {
          "internalType": "uint256",
          "name": "tokenId",
          "type": "uint256"
        }
      ],
      "name": "getExternalId",
      "outputs": [
        {
          "internalType": "bytes32",
          "name": "",
          "type": "bytes32"
        }
      ],
      "stateMutability": "view",
      "type": "function"
    },
    {
      "inputs": [
        {
          "internalType": "bytes32",
          "name": "externalId",
          "type": "bytes32"
        }
      ],
      "name": "getId",
      "outputs": [
        {
          "internalType": "uint256",
          "name": "",
          "type": "uint256"
        }
      ],
      "stateMutability": "view",
      "type": "function"
    },
    {
      "inputs": [
        {
          "internalType": "bytes32",
          "name": "role",
          "type": "bytes32"
        }
      ],
      "name": "getRoleAdmin",
      "outputs": [
        {
          "internalType": "bytes32",
          "name": "",
          "type": "bytes32"
        }
      ],
      "stateMutability": "view",
      "type": "function"
    },
    {
      "inputs": [
        {
          "internalType": "bytes32",
          "name": "role",
          "type": "bytes32"
        },
        {
          "internalType": "address",
          "name": "account",
          "type": "address"
        }
      ],
      "name": "grantRole",
      "outputs": [],
      "stateMutability": "nonpayable",
      "type": "function"
    },
    {
      "inputs": [
        {
          "internalType": "bytes32",
          "name": "role",
          "type": "bytes32"
        },
        {
          "internalType": "address",
          "name": "account",
          "type": "address"
        }
      ],
      "name": "hasRole",
      "outputs": [
        {
          "internalType": "bool",
          "name": "",
          "type": "bool"
        }
      ],
      "stateMutability": "view",
      "type": "function"
    },
    {
      "inputs": [
        {
          "internalType": "address",
          "name": "account",
          "type": "address"
        },
        {
          "internalType": "address",
          "name": "operator",
          "type": "address"
        }
      ],
      "name": "isApprovedForAll",
      "outputs": [
        {
          "internalType": "bool",
          "name": "",
          "type": "bool"
        }
      ],
      "stateMutability": "view",
      "type": "function"
    },
    {
      "inputs": [
        {
          "internalType": "address",
          "name": "account",
          "type": "address"
        },
        {
          "internalType": "uint256",
          "name": "id",
          "type": "uint256"
        },
        {
          "internalType": "uint256",
          "name": "amount",
          "type": "uint256"
        },
        {
          "internalType": "bytes",
          "name": "data",
          "type": "bytes"
        }
      ],
      "name": "mint",
      "outputs": [],
      "stateMutability": "nonpayable",
      "type": "function"
    },
    {
      "inputs": [
        {
          "internalType": "address",
          "name": "to",
          "type": "address"
        },
        {
          "internalType": "uint256[]",
          "name": "ids",
          "type": "uint256[]"
        },
        {
          "internalType": "uint256[]",
          "name": "amounts",
          "type": "uint256[]"
        },
        {
          "internalType": "bytes",
          "name": "data",
          "type": "bytes"
        }
      ],
      "name": "mintBatch",
      "outputs": [],
      "stateMutability": "nonpayable",
      "type": "function"
    },
    {
      "inputs": [],
      "name": "pause",
      "outputs": [],
      "stateMutability": "nonpayable",
      "type": "function"
    },
    {
      "inputs": [],
      "name": "paused",
      "outputs": [
        {
          "internalType": "bool",
          "name": "",
          "type": "bool"
        }
      ],
      "stateMutability": "view",
      "type": "function"
    },
    {
      "inputs": [
        {
          "internalType": "bytes32",
          "name": "role",
          "type": "bytes32"
        },
        {
          "internalType": "address",
          "name": "callerConfirmation",
          "type": "address"
        }
      ],
      "name": "renounceRole",
      "outputs": [],
      "stateMutability": "nonpayable",
      "type": "function"
    },
    {
      "inputs": [
        {
          "internalType": "bytes32",
          "name": "role",
          "type": "bytes32"
        },
        {
          "internalType": "address",
          "name": "account",
          "type": "address"
        }
      ],
      "name": "revokeRole",
      "outputs": [],
      "stateMutability": "nonpayable",
      "type": "function"
    },
    {
      "inputs": [
        {
          "internalType": "address",
          "name": "from",
          "type": "address"
        },
        {
          "internalType": "address",
          "name": "to",
          "type": "address"
        },
        {
          "internalType": "uint256[]",
          "name": "ids",
          "type": "uint256[]"
        },
        {
          "internalType": "uint256[]",
          "name": "values",
          "type": "uint256[]"
        },
        {
          "internalType": "bytes",
          "name": "data",
          "type": "bytes"
        }
      ],
      "name": "safeBatchTransferFrom",
      "outputs": [],
      "stateMutability": "nonpayable",
      "type": "function"
    },
    {
      "inputs": [
        {
          "internalType": "address",
          "name": "from",
          "type": "address"
        },
        {
          "internalType": "address",
          "name": "to",
          "type": "address"
        },
        {
          "internalType": "uint256",
          "name": "id",
          "type": "uint256"
        },
        {
          "internalType": "uint256",
          "name": "value",
          "type": "uint256"
        },
        {
          "internalType": "bytes",
          "name": "data",
          "type": "bytes"
        }
      ],
      "name": "safeTransferFrom",
      "outputs": [],
      "stateMutability": "nonpayable",
      "type": "function"
    },
    {
      "inputs": [
        {
          "internalType": "address",
          "name": "operator",
          "type": "address"
        },
        {
          "internalType": "bool",
          "name": "approved",
          "type": "bool"
        }
      ],
      "name": "setApprovalForAll",
      "outputs": [],
      "stateMutability": "nonpayable",
      "type": "function"
    },
    {
      "inputs": [
        {
          "internalType": "string",
          "name": "baseURI",
          "type": "string"
        }
      ],
      "name": "setBaseURI",
      "outputs": [],
      "stateMutability": "nonpayable",
      "type": "function"
    },
    {
      "inputs": [
        {
          "internalType": "uint256",
          "name": "tokenId",
          "type": "uint256"
        },
        {
          "internalType": "string",
          "name": "tokenURI",
          "type": "string"
        }
      ],
      "name": "setTokenURI",
      "outputs": [],
      "stateMutability": "nonpayable",
      "type": "function"
    },
    {
      "inputs": [
        {
          "internalType": "string",
          "name": "newuri",
          "type": "string"
        }
      ],
      "name": "setURI",
      "outputs": [],
      "stateMutability": "nonpayable",
      "type": "function"
    },
    {
      "inputs": [
        {
          "internalType": "bytes4",
          "name": "interfaceId",
          "type": "bytes4"
        }
      ],
      "name": "supportsInterface",
      "outputs": [
        {
          "internalType": "bool",
          "name": "",
          "type": "bool"
        }
      ],
      "stateMutability": "view",
      "type": "function"
    },
    {
      "inputs": [],
      "name": "totalSupply",
      "outputs": [
        {
          "internalType": "uint256",
          "name": "",
          "type": "uint256"
        }
      ],
      "stateMutability": "view",
      "type": "function"
    },
    {
      "inputs": [
        {
          "internalType": "uint256",
          "name": "id",
          "type": "uint256"
        }
      ],
      "name": "totalSupply",
      "outputs": [
        {
          "internalType": "uint256",
          "name": "",
          "type": "uint256"
        }
      ],
      "stateMutability": "view",
      "type": "function"
    },
    {
      "inputs": [],
      "name": "unpause",
      "outputs": [],
      "stateMutability": "nonpayable",
      "type": "function"
    },
    {
      "inputs": [
        {
          "internalType": "uint256",
          "name": "tokenId",
          "type": "uint256"
        }
      ],
      "name": "uri",
      "outputs": [
        {
          "internalType": "string",
          "name": "",
          "type": "string"
        }
      ],
      "stateMutability": "view",
      "type": "function"
    }
  ],
  "bytecode": "0x608060405260405180602001604052806000815250600790816200002491906200057e565b506001600b553480156200003757600080fd5b50604051620044ba380380620044ba83398181016040528101906200005d9190620006cf565b6040518060400160405280601d81526020017f68747470733a2f2f73616665696465612e6e65742f646f632f7b69647d000000815250620000a4816200017860201b60201c565b506000600460006101000a81548160ff021916908315150217905550620000d56000801b846200018d60201b60201c565b50620001087f7804d923f43a17d325d77e781528e0793b2edd9890ab45fc64efd7b4b427744c846200018d60201b60201c565b506200013b7f65d7a28e3265b37a6474929f336521b332c1681b933f6cb9f3376673440d862a836200018d60201b60201c565b506200016e7f9f2df0fed2c77648de5860a4cc508cd0818c85b8b8a1ab4ceeef8d981c8956a6826200018d60201b60201c565b505050506200072b565b80600290816200018991906200057e565b5050565b6000620001a183836200029160201b60201c565b620002865760016003600085815260200190815260200160002060000160008473ffffffffffffffffffffffffffffffffffffffff1673ffffffffffffffffffffffffffffffffffffffff16815260200190815260200160002060006101000a81548160ff02191690831515021790555062000222620002fc60201b60201c565b73ffffffffffffffffffffffffffffffffffffffff168273ffffffffffffffffffffffffffffffffffffffff16847f2f8788117e7eff1d82e926ec794901d17c78024a50270940304540a733656f0d60405160405180910390a4600190506200028b565b600090505b92915050565b60006003600084815260200190815260200160002060000160008373ffffffffffffffffffffffffffffffffffffffff1673ffffffffffffffffffffffffffffffffffffffff16815260200190815260200160002060009054906101000a900460ff16905092915050565b600033905090565b600081519050919050565b7f4e487b7100000000000000000000000000000000000000000000000000000000600052604160045260246000fd5b7f4e487b7100000000000000000000000000000000000000000000000000000000600052602260045260246000fd5b600060028204905060018216806200038657607f821691505b6020821081036200039c576200039b6200033e565b5b50919050565b60008190508160005260206000209050919050565b60006020601f8301049050919050565b600082821b905092915050565b600060088302620004067fffffffffffffffffffffffffffffffffffffffffffffffffffffffffffffffff82620003c7565b620004128683620003c7565b95508019841693508086168417925050509392505050565b6000819050919050565b6000819050919050565b60006200045f6200045962000453846200042a565b62000434565b6200042a565b9050919050565b6000819050919050565b6200047b836200043e565b620004936200048a8262000466565b848454620003d4565b825550505050565b600090565b620004aa6200049b565b620004b781848462000470565b505050565b5b81811015620004df57620004d3600082620004a0565b600181019050620004bd565b5050565b601f8211156200052e57620004f881620003a2565b6200050384620003b7565b8101602085101562000513578190505b6200052b6200052285620003b7565b830182620004bc565b50505b505050565b600082821c905092915050565b6000620005536000198460080262000533565b1980831691505092915050565b60006200056e838362000540565b9150826002028217905092915050565b620005898262000304565b67ffffffffffffffff811115620005a557620005a46200030f565b5b620005b182546200036d565b620005be828285620004e3565b600060209050601f831160018114620005f65760008415620005e1578287015190505b620005ed858262000560565b8655506200065d565b601f1984166200060686620003a2565b60005b82811015620006305784890151825560018201915060208501945060208101905062000609565b868310156200065057848901516200064c601f89168262000540565b8355505b6001600288020188555050505b505050505050565b600080fd5b600073ffffffffffffffffffffffffffffffffffffffff82169050919050565b600062000697826200066a565b9050919050565b620006a9816200068a565b8114620006b557600080fd5b50565b600081519050620006c9816200069e565b92915050565b600080600060608486031215620006eb57620006ea62000665565b5b6000620006fb86828701620006b8565b93505060206200070e86828701620006b8565b92505060406200072186828701620006b8565b9150509250925092565b613d7f806200073b6000396000f3fe608060405234801561001057600080fd5b50600436106102055760003560e01c80636b20c4541161011a578063d5391393116100ad578063e985e9c51161007c578063e985e9c5146105e6578063ee037bf914610616578063f07f552014610646578063f242432a14610676578063f5298aca1461069257610205565b8063d53913931461055e578063d547741f1461057c578063e556977314610598578063e63ab1e9146105c857610205565b806391d14854116100e957806391d14854146104c4578063a217fddf146104f4578063a22cb46514610512578063bd85b0391461052e57610205565b80636b20c45414610464578063731133e9146104805780637f3457101461049c5780638456cb59146104ba57610205565b8063248a9ca31161019d5780633f4ba83a1161016c5780633f4ba83a146103c05780634e1273f4146103ca5780634f558e79146103fa57806355f804b31461042a5780635c975abb1461044657610205565b8063248a9ca31461033c5780632eb2c2d61461036c5780632f2ff15d1461038857806336568abe146103a457610205565b80630e89341c116101d95780630e89341c146102b6578063162094c4146102e657806318160ddd146103025780631f7fdffa1461032057610205565b8062fdd58e1461020a57806301ffc9a71461023a57806302fe53051461026a57806309dca9ce14610286575b600080fd5b610224600480360381019061021f91906128cb565b6106ae565b604051610231919061291a565b60405180910390f35b610254600480360381019061024f919061298d565b610708565b60405161026191906129d5565b60405180910390f35b610284600480360381019061027f9190612b36565b61071a565b005b6102a0600480360381019061029b9190612c7d565b610751565b6040516102ad9190612d84565b60405180910390f35b6102d060048036038101906102cb9190612da6565b610837565b6040516102dd9190612e52565b60405180910390f35b61030060048036038101906102fb9190612e74565b610849565b005b61030a610882565b604051610317919061291a565b60405180910390f35b61033a60048036038101906103359190613034565b61088c565b005b610356600480360381019061035191906130ef565b6108c9565b604051610363919061312b565b60405180910390f35b61038660048036038101906103819190613146565b6108e9565b005b6103a2600480360381019061039d9190613215565b610991565b005b6103be60048036038101906103b99190613215565b6109b3565b005b6103c8610a2e565b005b6103e460048036038101906103df9190613318565b610a63565b6040516103f19190612d84565b60405180910390f35b610414600480360381019061040f9190612da6565b610b72565b60405161042191906129d5565b60405180910390f35b610444600480360381019061043f9190612b36565b610b86565b005b61044e610bbd565b60405161045b91906129d5565b60405180910390f35b61047e60048036038101906104799190613390565b610bd4565b005b61049a6004803603810190610495919061341b565b610c80565b005b6104a4610cbd565b6040516104b1919061312b565b60405180910390f35b6104c2610ce1565b005b6104de60048036038101906104d99190613215565b610d16565b6040516104eb91906129d5565b60405180910390f35b6104fc610d81565b604051610509919061312b565b60405180910390f35b61052c600480360381019061052791906134ca565b610d88565b005b61054860048036038101906105439190612da6565b610d9e565b604051610555919061291a565b60405180910390f35b610566610dbb565b604051610573919061312b565b60405180910390f35b61059660048036038101906105919190613215565b610ddf565b005b6105b260048036038101906105ad91906130ef565b610e01565b6040516105bf919061291a565b60405180910390f35b6105d0610e1e565b6040516105dd919061312b565b60405180910390f35b61060060048036038101906105fb919061350a565b610e42565b60405161060d91906129d5565b60405180910390f35b610630600480360381019061062b9190612da6565b610ed6565b60405161063d919061312b565b60405180910390f35b610660600480360381019061065b91906130ef565b610ef3565b60405161066d919061291a565b60405180910390f35b610690600480360381019061068b919061354a565b610f30565b005b6106ac60048036038101906106a791906135e1565b610fd8565b005b600080600083815260200190815260200160002060008473ffffffffffffffffffffffffffffffffffffffff1673ffffffffffffffffffffffffffffffffffffffff16815260200190815260200160002054905092915050565b600061071382611084565b9050919050565b7f7804d923f43a17d325d77e781528e0793b2edd9890ab45fc64efd7b4b427744c610744816110fe565b61074d82611112565b5050565b60607f9f2df0fed2c77648de5860a4cc508cd0818c85b8b8a1ab4ceeef8d981c8956a661077d816110fe565b6000835167ffffffffffffffff81111561079a57610799612a0b565b5b6040519080825280602002602001820160405280156107c85781602001602082028036833780820191505090505b50905060005b845181101561082c576107fa8582815181106107ed576107ec613634565b5b6020026020010151611125565b82828151811061080d5761080c613634565b5b602002602001018181525050808061082490613692565b9150506107ce565b508092505050919050565b6060610842826111b1565b9050919050565b7f7804d923f43a17d325d77e781528e0793b2edd9890ab45fc64efd7b4b427744c610873816110fe565b61087d8383611296565b505050565b6000600654905090565b7f9f2df0fed2c77648de5860a4cc508cd0818c85b8b8a1ab4ceeef8d981c8956a66108b6816110fe565b6108c2858585856112fb565b5050505050565b600060036000838152602001908152602001600020600101549050919050565b60006108f3611381565b90508073ffffffffffffffffffffffffffffffffffffffff168673ffffffffffffffffffffffffffffffffffffffff161415801561093857506109368682610e42565b155b1561097c5780866040517fe237d9220000000000000000000000000000000000000000000000000000000081526004016109739291906136e9565b60405180910390fd5b6109898686868686611389565b505050505050565b61099a826108c9565b6109a3816110fe565b6109ad8383611481565b50505050565b6109bb611381565b73ffffffffffffffffffffffffffffffffffffffff168173ffffffffffffffffffffffffffffffffffffffff1614610a1f576040517f6697b23200000000000000000000000000000000000000000000000000000000815260040160405180910390fd5b610a298282611573565b505050565b7f65d7a28e3265b37a6474929f336521b332c1681b933f6cb9f3376673440d862a610a58816110fe565b610a60611666565b50565b60608151835114610aaf57815183516040517f5b059991000000000000000000000000000000000000000000000000000000008152600401610aa6929190613712565b60405180910390fd5b6000835167ffffffffffffffff811115610acc57610acb612a0b565b5b604051908082528060200260200182016040528015610afa5781602001602082028036833780820191505090505b50905060005b8451811015610b6757610b37610b1f82876116c990919063ffffffff16565b610b3283876116dd90919063ffffffff16565b6106ae565b828281518110610b4a57610b49613634565b5b60200260200101818152505080610b6090613692565b9050610b00565b508091505092915050565b600080610b7e83610d9e565b119050919050565b7f7804d923f43a17d325d77e781528e0793b2edd9890ab45fc64efd7b4b427744c610bb0816110fe565b610bb9826116f1565b5050565b6000600460009054906101000a900460ff16905090565b610bdc611381565b73ffffffffffffffffffffffffffffffffffffffff168373ffffffffffffffffffffffffffffffffffffffff1614158015610c255750610c2383610c1e611381565b610e42565b155b15610c7057610c32611381565b836040517fe237d922000000000000000000000000000000000000000000000000000000008152600401610c679291906136e9565b60405180910390fd5b610c7b838383611704565b505050565b7f9f2df0fed2c77648de5860a4cc508cd0818c85b8b8a1ab4ceeef8d981c8956a6610caa816110fe565b610cb685858585611798565b5050505050565b7f7804d923f43a17d325d77e781528e0793b2edd9890ab45fc64efd7b4b427744c81565b7f65d7a28e3265b37a6474929f336521b332c1681b933f6cb9f3376673440d862a610d0b816110fe565b610d13611831565b50565b60006003600084815260200190815260200160002060000160008373ffffffffffffffffffffffffffffffffffffffff1673ffffffffffffffffffffffffffffffffffffffff16815260200190815260200160002060009054906101000a900460ff16905092915050565b6000801b81565b610d9a610d93611381565b8383611894565b5050565b600060056000838152602001908152602001600020549050919050565b7f9f2df0fed2c77648de5860a4cc508cd0818c85b8b8a1ab4ceeef8d981c8956a681565b610de8826108c9565b610df1816110fe565b610dfb8383611573565b50505050565b600060096000838152602001908152602001600020549050919050565b7f65d7a28e3265b37a6474929f336521b332c1681b933f6cb9f3376673440d862a81565b6000600160008473ffffffffffffffffffffffffffffffffffffffff1673ffffffffffffffffffffffffffffffffffffffff16815260200190815260200160002060008373ffffffffffffffffffffffffffffffffffffffff1673ffffffffffffffffffffffffffffffffffffffff16815260200190815260200160002060009054906101000a900460ff16905092915050565b6000600a6000838152602001908152602001600020549050919050565b60007f9f2df0fed2c77648de5860a4cc508cd0818c85b8b8a1ab4ceeef8d981c8956a6610f1f816110fe565b610f2883611125565b915050919050565b6000610f3a611381565b90508073ffffffffffffffffffffffffffffffffffffffff168673ffffffffffffffffffffffffffffffffffffffff1614158015610f7f5750610f7d8682610e42565b155b15610fc35780866040517fe237d922000000000000000000000000000000000000000000000000000000008152600401610fba9291906136e9565b60405180910390fd5b610fd08686868686611a04565b505050505050565b610fe0611381565b73ffffffffffffffffffffffffffffffffffffffff168373ffffffffffffffffffffffffffffffffffffffff1614158015611029575061102783611022611381565b610e42565b155b1561107457611036611381565b836040517fe237d92200000000000000000000000000000000000000000000000000000000815260040161106b9291906136e9565b60405180910390fd5b61107f838383611b0f565b505050565b60007f7965db0b000000000000000000000000000000000000000000000000000000007bffffffffffffffffffffffffffffffffffffffffffffffffffffffff1916827bffffffffffffffffffffffffffffffffffffffffffffffffffffffff191614806110f757506110f682611bb6565b5b9050919050565b61110f8161110a611381565b611c98565b50565b80600290816111219190613947565b5050565b60008060096000848152602001908152602001600020541461115c57600960008381526020019081526020016000205490506111ac565b6000600b600081548092919061117190613692565b91905055905080600960008581526020019081526020016000208190555082600a600083815260200190815260200160002081905550809150505b919050565b606060006008600084815260200190815260200160002080546111d39061376a565b80601f01602080910402602001604051908101604052809291908181526020018280546111ff9061376a565b801561124c5780601f106112215761010080835404028352916020019161124c565b820191906000526020600020905b81548152906001019060200180831161122f57829003601f168201915b50505050509050600081511161126a5761126583611ce9565b61128e565b60078160405160200161127e929190613ad8565b6040516020818303038152906040525b915050919050565b806008600084815260200190815260200160002090816112b69190613947565b50817f6bb7ff708619ba0610cba295a58592e0451dee2622938c8755667688daf3529b6112e284610837565b6040516112ef9190612e52565b60405180910390a25050565b600073ffffffffffffffffffffffffffffffffffffffff168473ffffffffffffffffffffffffffffffffffffffff160361136d5760006040517f57f447ce0000000000000000000000000000000000000000000000000000000081526004016113649190613afc565b60405180910390fd5b61137b600085858585611d7d565b50505050565b600033905090565b600073ffffffffffffffffffffffffffffffffffffffff168473ffffffffffffffffffffffffffffffffffffffff16036113fb5760006040517f57f447ce0000000000000000000000000000000000000000000000000000000081526004016113f29190613afc565b60405180910390fd5b600073ffffffffffffffffffffffffffffffffffffffff168573ffffffffffffffffffffffffffffffffffffffff160361146d5760006040517f01a835140000000000000000000000000000000000000000000000000000000081526004016114649190613afc565b60405180910390fd5b61147a8585858585611d7d565b5050505050565b600061148d8383610d16565b6115685760016003600085815260200190815260200160002060000160008473ffffffffffffffffffffffffffffffffffffffff1673ffffffffffffffffffffffffffffffffffffffff16815260200190815260200160002060006101000a81548160ff021916908315150217905550611505611381565b73ffffffffffffffffffffffffffffffffffffffff168273ffffffffffffffffffffffffffffffffffffffff16847f2f8788117e7eff1d82e926ec794901d17c78024a50270940304540a733656f0d60405160405180910390a46001905061156d565b600090505b92915050565b600061157f8383610d16565b1561165b5760006003600085815260200190815260200160002060000160008473ffffffffffffffffffffffffffffffffffffffff1673ffffffffffffffffffffffffffffffffffffffff16815260200190815260200160002060006101000a81548160ff0219169083151502179055506115f8611381565b73ffffffffffffffffffffffffffffffffffffffff168273ffffffffffffffffffffffffffffffffffffffff16847ff6391f5c32d9c69d2a47ea670b442974b53935d1edc7fd64eb21e047a839171b60405160405180910390a460019050611660565b600090505b92915050565b61166e611e2f565b6000600460006101000a81548160ff0219169083151502179055507f5db9ee0a495bf2e6ff9c91a7834c1ba4fdd244a5e8aa4e537bd38aeae4b073aa6116b2611381565b6040516116bf9190613afc565b60405180910390a1565b600060208202602084010151905092915050565b600060208202602084010151905092915050565b80600790816117009190613947565b5050565b600073ffffffffffffffffffffffffffffffffffffffff168373ffffffffffffffffffffffffffffffffffffffff16036117765760006040517f01a8351400000000000000000000000000000000000000000000000000000000815260040161176d9190613afc565b60405180910390fd5b611793836000848460405180602001604052806000815250611d7d565b505050565b600073ffffffffffffffffffffffffffffffffffffffff168473ffffffffffffffffffffffffffffffffffffffff160361180a5760006040517f57f447ce0000000000000000000000000000000000000000000000000000000081526004016118019190613afc565b60405180910390fd5b6000806118178585611e6f565b91509150611829600087848487611d7d565b505050505050565b611839611e9f565b6001600460006101000a81548160ff0219169083151502179055507f62e78cea01bee320cd4e420270b5ea74000d11b0c9f74754ebdbfc544b05a25861187d611381565b60405161188a9190613afc565b60405180910390a1565b600073ffffffffffffffffffffffffffffffffffffffff168273ffffffffffffffffffffffffffffffffffffffff16036119065760006040517fced3e1000000000000000000000000000000000000000000000000000000000081526004016118fd9190613afc565b60405180910390fd5b80600160008573ffffffffffffffffffffffffffffffffffffffff1673ffffffffffffffffffffffffffffffffffffffff16815260200190815260200160002060008473ffffffffffffffffffffffffffffffffffffffff1673ffffffffffffffffffffffffffffffffffffffff16815260200190815260200160002060006101000a81548160ff0219169083151502179055508173ffffffffffffffffffffffffffffffffffffffff168373ffffffffffffffffffffffffffffffffffffffff167f17307eab39ab6107e8899845ad3d59bd9653f200f220920489ca2b5937696c31836040516119f791906129d5565b60405180910390a3505050565b600073ffffffffffffffffffffffffffffffffffffffff168473ffffffffffffffffffffffffffffffffffffffff1603611a765760006040517f57f447ce000000000000000000000000000000000000000000000000000000008152600401611a6d9190613afc565b60405180910390fd5b600073ffffffffffffffffffffffffffffffffffffffff168573ffffffffffffffffffffffffffffffffffffffff1603611ae85760006040517f01a83514000000000000000000000000000000000000000000000000000000008152600401611adf9190613afc565b60405180910390fd5b600080611af58585611e6f565b91509150611b068787848487611d7d565b50505050505050565b600073ffffffffffffffffffffffffffffffffffffffff168373ffffffffffffffffffffffffffffffffffffffff1603611b815760006040517f01a83514000000000000000000000000000000000000000000000000000000008152600401611b789190613afc565b60405180910390fd5b600080611b8e8484611e6f565b91509150611baf856000848460405180602001604052806000815250611d7d565b5050505050565b60007fd9b67a26000000000000000000000000000000000000000000000000000000007bffffffffffffffffffffffffffffffffffffffffffffffffffffffff1916827bffffffffffffffffffffffffffffffffffffffffffffffffffffffff19161480611c8157507f0e89341c000000000000000000000000000000000000000000000000000000007bffffffffffffffffffffffffffffffffffffffffffffffffffffffff1916827bffffffffffffffffffffffffffffffffffffffffffffffffffffffff1916145b80611c915750611c9082611ee0565b5b9050919050565b611ca28282610d16565b611ce55780826040517fe2517d3f000000000000000000000000000000000000000000000000000000008152600401611cdc929190613b17565b60405180910390fd5b5050565b606060028054611cf89061376a565b80601f0160208091040260200160405190810160405280929190818152602001828054611d249061376a565b8015611d715780601f10611d4657610100808354040283529160200191611d71565b820191906000526020600020905b815481529060010190602001808311611d5457829003601f168201915b50505050509050919050565b611d8985858585611f4a565b600073ffffffffffffffffffffffffffffffffffffffff168473ffffffffffffffffffffffffffffffffffffffff1614611e28576000611dc7611381565b90506001845103611e17576000611de86000866116dd90919063ffffffff16565b90506000611e006000866116dd90919063ffffffff16565b9050611e10838989858589611f5c565b5050611e26565b611e25818787878787612110565b5b505b5050505050565b611e37610bbd565b611e6d576040517f8dfc202b00000000000000000000000000000000000000000000000000000000815260040160405180910390fd5b565b60608060405191506001825283602083015260408201905060018152826020820152604081016040529250929050565b611ea7610bbd565b15611ede576040517fd93c066500000000000000000000000000000000000000000000000000000000815260040160405180910390fd5b565b60007f01ffc9a7000000000000000000000000000000000000000000000000000000007bffffffffffffffffffffffffffffffffffffffffffffffffffffffff1916827bffffffffffffffffffffffffffffffffffffffffffffffffffffffff1916149050919050565b611f56848484846122c4565b50505050565b60008473ffffffffffffffffffffffffffffffffffffffff163b1115612108578373ffffffffffffffffffffffffffffffffffffffff1663f23a6e6187878686866040518663ffffffff1660e01b8152600401611fbd959493929190613b95565b6020604051808303816000875af1925050508015611ff957506040513d601f19601f82011682018060405250810190611ff69190613c04565b60015b61207d573d8060008114612029576040519150601f19603f3d011682016040523d82523d6000602084013e61202e565b606091505b50600081510361207557846040517f57f447ce00000000000000000000000000000000000000000000000000000000815260040161206c9190613afc565b60405180910390fd5b805181602001fd5b63f23a6e6160e01b7bffffffffffffffffffffffffffffffffffffffffffffffffffffffff1916817bffffffffffffffffffffffffffffffffffffffffffffffffffffffff19161461210657846040517f57f447ce0000000000000000000000000000000000000000000000000000000081526004016120fd9190613afc565b60405180910390fd5b505b505050505050565b60008473ffffffffffffffffffffffffffffffffffffffff163b11156122bc578373ffffffffffffffffffffffffffffffffffffffff1663bc197c8187878686866040518663ffffffff1660e01b8152600401612171959493929190613c31565b6020604051808303816000875af19250505080156121ad57506040513d601f19601f820116820180604052508101906121aa9190613c04565b60015b612231573d80600081146121dd576040519150601f19603f3d011682016040523d82523d6000602084013e6121e2565b606091505b50600081510361222957846040517f57f447ce0000000000000000000000000000000000000000000000000000000081526004016122209190613afc565b60405180910390fd5b805181602001fd5b63bc197c8160e01b7bffffffffffffffffffffffffffffffffffffffffffffffffffffffff1916817bffffffffffffffffffffffffffffffffffffffffffffffffffffffff1916146122ba57846040517f57f447ce0000000000000000000000000000000000000000000000000000000081526004016122b19190613afc565b60405180910390fd5b505b505050505050565b6122d08484848461245b565b600073ffffffffffffffffffffffffffffffffffffffff168473ffffffffffffffffffffffffffffffffffffffff16036123a0576000805b835181101561238457600061232682856116dd90919063ffffffff16565b9050806005600061234085896116dd90919063ffffffff16565b8152602001908152602001600020600082825461235d9190613c99565b9250508190555080836123709190613c99565b9250508061237d90613692565b9050612308565b5080600660008282546123979190613c99565b92505081905550505b600073ffffffffffffffffffffffffffffffffffffffff168373ffffffffffffffffffffffffffffffffffffffff1603612455576000805b83518110156124425760006123f682856116dd90919063ffffffff16565b9050806005600061241085896116dd90919063ffffffff16565b8152602001908152602001600020600082825403925050819055508083019250508061243b90613692565b90506123d8565b5080600660008282540392505081905550505b50505050565b612463611e9f565b61246f84848484612475565b50505050565b80518251146124bf57815181516040517f5b0599910000000000000000000000000000000000000000000000000000000081526004016124b6929190613712565b60405180910390fd5b60006124c9611381565b905060005b83518110156126de5760006124ec82866116dd90919063ffffffff16565b9050600061250383866116dd90919063ffffffff16565b9050600073ffffffffffffffffffffffffffffffffffffffff168873ffffffffffffffffffffffffffffffffffffffff161461263057600080600084815260200190815260200160002060008a73ffffffffffffffffffffffffffffffffffffffff1673ffffffffffffffffffffffffffffffffffffffff168152602001908152602001600020549050818110156125d857888183856040517f03dee4c50000000000000000000000000000000000000000000000000000000081526004016125cf9493929190613ccd565b60405180910390fd5b81810360008085815260200190815260200160002060008b73ffffffffffffffffffffffffffffffffffffffff1673ffffffffffffffffffffffffffffffffffffffff16815260200190815260200160002081905550505b600073ffffffffffffffffffffffffffffffffffffffff168773ffffffffffffffffffffffffffffffffffffffff16146126cb578060008084815260200190815260200160002060008973ffffffffffffffffffffffffffffffffffffffff1673ffffffffffffffffffffffffffffffffffffffff16815260200190815260200160002060008282546126c39190613c99565b925050819055505b5050806126d790613692565b90506124ce565b50600183510361279d5760006126fe6000856116dd90919063ffffffff16565b905060006127166000856116dd90919063ffffffff16565b90508573ffffffffffffffffffffffffffffffffffffffff168773ffffffffffffffffffffffffffffffffffffffff168473ffffffffffffffffffffffffffffffffffffffff167fc3d58168c5ae7397731d063d5bbf3d657854427343f4c083240f7aacaa2d0f62858560405161278e929190613712565b60405180910390a4505061281c565b8373ffffffffffffffffffffffffffffffffffffffff168573ffffffffffffffffffffffffffffffffffffffff168273ffffffffffffffffffffffffffffffffffffffff167f4a39dc06d4c0dbc64b70af90fd698a233a518aa5d07e595d983b8c0526c8f7fb8686604051612813929190613d12565b60405180910390a45b5050505050565b6000604051905090565b600080fd5b600080fd5b600073ffffffffffffffffffffffffffffffffffffffff82169050919050565b600061286282612837565b9050919050565b61287281612857565b811461287d57600080fd5b50565b60008135905061288f81612869565b92915050565b6000819050919050565b6128a881612895565b81146128b357600080fd5b50565b6000813590506128c58161289f565b92915050565b600080604083850312156128e2576128e161282d565b5b60006128f085828601612880565b9250506020612901858286016128b6565b9150509250929050565b61291481612895565b82525050565b600060208201905061292f600083018461290b565b92915050565b60007fffffffff0000000000000000000000000000000000000000000000000000000082169050919050565b61296a81612935565b811461297557600080fd5b50565b60008135905061298781612961565b92915050565b6000602082840312156129a3576129a261282d565b5b60006129b184828501612978565b91505092915050565b60008115159050919050565b6129cf816129ba565b82525050565b60006020820190506129ea60008301846129c6565b92915050565b600080fd5b600080fd5b6000601f19601f8301169050919050565b7f4e487b7100000000000000000000000000000000000000000000000000000000600052604160045260246000fd5b612a43826129fa565b810181811067ffffffffffffffff82111715612a6257612a61612a0b565b5b80604052505050565b6000612a75612823565b9050612a818282612a3a565b919050565b600067ffffffffffffffff821115612aa157612aa0612a0b565b5b612aaa826129fa565b9050602081019050919050565b82818337600083830152505050565b6000612ad9612ad484612a86565b612a6b565b905082815260208101848484011115612af557612af46129f5565b5b612b00848285612ab7565b509392505050565b600082601f830112612b1d57612b1c6129f0565b5b8135612b2d848260208601612ac6565b91505092915050565b600060208284031215612b4c57612b4b61282d565b5b600082013567ffffffffffffffff811115612b6a57612b69612832565b5b612b7684828501612b08565b91505092915050565b600067ffffffffffffffff821115612b9a57612b99612a0b565b5b602082029050602081019050919050565b600080fd5b6000819050919050565b612bc381612bb0565b8114612bce57600080fd5b50565b600081359050612be081612bba565b92915050565b6000612bf9612bf484612b7f565b612a6b565b90508083825260208201905060208402830185811115612c1c57612c1b612bab565b5b835b81811015612c455780612c318882612bd1565b845260208401935050602081019050612c1e565b5050509392505050565b600082601f830112612c6457612c636129f0565b5b8135612c74848260208601612be6565b91505092915050565b600060208284031215612c9357612c9261282d565b5b600082013567ffffffffffffffff811115612cb157612cb0612832565b5b612cbd84828501612c4f565b91505092915050565b600081519050919050565b600082825260208201905092915050565b6000819050602082019050919050565b612cfb81612895565b82525050565b6000612d0d8383612cf2565b60208301905092915050565b6000602082019050919050565b6000612d3182612cc6565b612d3b8185612cd1565b9350612d4683612ce2565b8060005b83811015612d77578151612d5e8882612d01565b9750612d6983612d19565b925050600181019050612d4a565b5085935050505092915050565b60006020820190508181036000830152612d9e8184612d26565b905092915050565b600060208284031215612dbc57612dbb61282d565b5b6000612dca848285016128b6565b91505092915050565b600081519050919050565b600082825260208201905092915050565b60005b83811015612e0d578082015181840152602081019050612df2565b60008484015250505050565b6000612e2482612dd3565b612e2e8185612dde565b9350612e3e818560208601612def565b612e47816129fa565b840191505092915050565b60006020820190508181036000830152612e6c8184612e19565b905092915050565b60008060408385031215612e8b57612e8a61282d565b5b6000612e99858286016128b6565b925050602083013567ffffffffffffffff811115612eba57612eb9612832565b5b612ec685828601612b08565b9150509250929050565b600067ffffffffffffffff821115612eeb57612eea612a0b565b5b602082029050602081019050919050565b6000612f0f612f0a84612ed0565b612a6b565b90508083825260208201905060208402830185811115612f3257612f31612bab565b5b835b81811015612f5b5780612f4788826128b6565b845260208401935050602081019050612f34565b5050509392505050565b600082601f830112612f7a57612f796129f0565b5b8135612f8a848260208601612efc565b91505092915050565b600067ffffffffffffffff821115612fae57612fad612a0b565b5b612fb7826129fa565b9050602081019050919050565b6000612fd7612fd284612f93565b612a6b565b905082815260208101848484011115612ff357612ff26129f5565b5b612ffe848285612ab7565b509392505050565b600082601f83011261301b5761301a6129f0565b5b813561302b848260208601612fc4565b91505092915050565b6000806000806080858703121561304e5761304d61282d565b5b600061305c87828801612880565b945050602085013567ffffffffffffffff81111561307d5761307c612832565b5b61308987828801612f65565b935050604085013567ffffffffffffffff8111156130aa576130a9612832565b5b6130b687828801612f65565b925050606085013567ffffffffffffffff8111156130d7576130d6612832565b5b6130e387828801613006565b91505092959194509250565b6000602082840312156131055761310461282d565b5b600061311384828501612bd1565b91505092915050565b61312581612bb0565b82525050565b6000602082019050613140600083018461311c565b92915050565b600080600080600060a086880312156131625761316161282d565b5b600061317088828901612880565b955050602061318188828901612880565b945050604086013567ffffffffffffffff8111156131a2576131a1612832565b5b6131ae88828901612f65565b935050606086013567ffffffffffffffff8111156131cf576131ce612832565b5b6131db88828901612f65565b925050608086013567ffffffffffffffff8111156131fc576131fb612832565b5b61320888828901613006565b9150509295509295909350565b6000806040838503121561322c5761322b61282d565b5b600061323a85828601612bd1565b925050602061324b85828601612880565b9150509250929050565b600067ffffffffffffffff8211156132705761326f612a0b565b5b602082029050602081019050919050565b600061329461328f84613255565b612a6b565b905080838252602082019050602084028301858111156132b7576132b6612bab565b5b835b818110156132e057806132cc8882612880565b8452602084019350506020810190506132b9565b5050509392505050565b600082601f8301126132ff576132fe6129f0565b5b813561330f848260208601613281565b91505092915050565b6000806040838503121561332f5761332e61282d565b5b600083013567ffffffffffffffff81111561334d5761334c612832565b5b613359858286016132ea565b925050602083013567ffffffffffffffff81111561337a57613379612832565b5b61338685828601612f65565b9150509250929050565b6000806000606084860312156133a9576133a861282d565b5b60006133b786828701612880565b935050602084013567ffffffffffffffff8111156133d8576133d7612832565b5b6133e486828701612f65565b925050604084013567ffffffffffffffff81111561340557613404612832565b5b61341186828701612f65565b9150509250925092565b600080600080608085870312156134355761343461282d565b5b600061344387828801612880565b9450506020613454878288016128b6565b9350506040613465878288016128b6565b925050606085013567ffffffffffffffff81111561348657613485612832565b5b61349287828801613006565b91505092959194509250565b6134a7816129ba565b81146134b257600080fd5b50565b6000813590506134c48161349e565b92915050565b600080604083850312156134e1576134e061282d565b5b60006134ef85828601612880565b9250506020613500858286016134b5565b9150509250929050565b600080604083850312156135215761352061282d565b5b600061352f85828601612880565b925050602061354085828601612880565b9150509250929050565b600080600080600060a086880312156135665761356561282d565b5b600061357488828901612880565b955050602061358588828901612880565b9450506040613596888289016128b6565b93505060606135a7888289016128b6565b925050608086013567ffffffffffffffff8111156135c8576135c7612832565b5b6135d488828901613006565b9150509295509295909350565b6000806000606084860312156135fa576135f961282d565b5b600061360886828701612880565b9350506020613619868287016128b6565b925050604061362a868287016128b6565b9150509250925092565b7f4e487b7100000000000000000000000000000000000000000000000000000000600052603260045260246000fd5b7f4e487b7100000000000000000000000000000000000000000000000000000000600052601160045260246000fd5b600061369d82612895565b91507fffffffffffffffffffffffffffffffffffffffffffffffffffffffffffffffff82036136cf576136ce613663565b5b600182019050919050565b6136e381612857565b82525050565b60006040820190506136fe60008301856136da565b61370b60208301846136da565b9392505050565b6000604082019050613727600083018561290b565b613734602083018461290b565b9392505050565b7f4e487b7100000000000000000000000000000000000000000000000000000000600052602260045260246000fd5b6000600282049050600182168061378257607f821691505b6020821081036137955761379461373b565b5b50919050565b60008190508160005260206000209050919050565b60006020601f8301049050919050565b600082821b905092915050565b6000600883026137fd7fffffffffffffffffffffffffffffffffffffffffffffffffffffffffffffffff826137c0565b61380786836137c0565b95508019841693508086168417925050509392505050565b6000819050919050565b600061384461383f61383a84612895565b61381f565b612895565b9050919050565b6000819050919050565b61385e83613829565b61387261386a8261384b565b8484546137cd565b825550505050565b600090565b61388761387a565b613892818484613855565b505050565b5b818110156138b6576138ab60008261387f565b600181019050613898565b5050565b601f8211156138fb576138cc8161379b565b6138d5846137b0565b810160208510156138e4578190505b6138f86138f0856137b0565b830182613897565b50505b505050565b600082821c905092915050565b600061391e60001984600802613900565b1980831691505092915050565b6000613937838361390d565b9150826002028217905092915050565b61395082612dd3565b67ffffffffffffffff81111561396957613968612a0b565b5b613973825461376a565b61397e8282856138ba565b600060209050601f8311600181146139b1576000841561399f578287015190505b6139a9858261392b565b865550613a11565b601f1984166139bf8661379b565b60005b828110156139e7578489015182556001820191506020850194506020810190506139c2565b86831015613a045784890151613a00601f89168261390d565b8355505b6001600288020188555050505b505050505050565b600081905092915050565b60008154613a318161376a565b613a3b8186613a19565b94506001821660008114613a565760018114613a6b57613a9e565b60ff1983168652811515820286019350613a9e565b613a748561379b565b60005b83811015613a9657815481890152600182019150602081019050613a77565b838801955050505b50505092915050565b6000613ab282612dd3565b613abc8185613a19565b9350613acc818560208601612def565b80840191505092915050565b6000613ae48285613a24565b9150613af08284613aa7565b91508190509392505050565b6000602082019050613b1160008301846136da565b92915050565b6000604082019050613b2c60008301856136da565b613b39602083018461311c565b9392505050565b600081519050919050565b600082825260208201905092915050565b6000613b6782613b40565b613b718185613b4b565b9350613b81818560208601612def565b613b8a816129fa565b840191505092915050565b600060a082019050613baa60008301886136da565b613bb760208301876136da565b613bc4604083018661290b565b613bd1606083018561290b565b8181036080830152613be38184613b5c565b90509695505050505050565b600081519050613bfe81612961565b92915050565b600060208284031215613c1a57613c1961282d565b5b6000613c2884828501613bef565b91505092915050565b600060a082019050613c4660008301886136da565b613c5360208301876136da565b8181036040830152613c658186612d26565b90508181036060830152613c798185612d26565b90508181036080830152613c8d8184613b5c565b90509695505050505050565b6000613ca482612895565b9150613caf83612895565b9250828201905080821115613cc757613cc6613663565b5b92915050565b6000608082019050613ce260008301876136da565b613cef602083018661290b565b613cfc604083018561290b565b613d09606083018461290b565b95945050505050565b60006040820190508181036000830152613d2c8185612d26565b90508181036020830152613d408184612d26565b9050939250505056fea2646970667358221220b8f173fe17fe02707bdb5f4ac5659d96631163af57a9a759d5a5a5402ca4e1a864736f6c63430008140033",
  "linkReferences": {},
  "deployedLinkReferences": {}
}