{
  "_format": "hh-sol-artifact-1",
  "contractName": "IPDocV13",
  "sourceName": "contracts/IPDocV13.sol",
  "abi": [
    {
      "inputs": [
        {
          "internalType": "address",
          "name": "defaultAdmin",
          "type": "address"
        },
        {
          "internalType": "address",
          "name": "pauser",
          "type": "address"
        },
        {
          "internalType": "address",
          "name": "minter",
          "type": "address"
        }
      ],
      "stateMutability": "nonpayable",
      "type": "constructor"
    },
    {
      "inputs": [],
      "name": "AccessControlBadConfirmation",
      "type": "error"
    },
    {
      "inputs": [
        {
          "internalType": "address",
          "name": "account",
          "type": "address"
        },
        {
          "internalType": "bytes32",
          "name": "neededRole",
          "type": "bytes32"
        }
      ],
      "name": "AccessControlUnauthorizedAccount",
      "type": "error"
    },
    {
      "inputs": [],
      "name": "ECDSAInvalidSignature",
      "type": "error"
    },
    {
      "inputs": [
        {
          "internalType": "uint256",
          "name": "length",
          "type": "uint256"
        }
      ],
      "name": "ECDSAInvalidSignatureLength",
      "type": "error"
    },
    {
      "inputs": [
        {
          "internalType": "bytes32",
          "name": "s",
          "type": "bytes32"
        }
      ],
      "name": "ECDSAInvalidSignatureS",
      "type": "error"
    },
    {
      "inputs": [
        {
          "internalType": "address",
          "name": "sender",
          "type": "address"
        },
        {
          "internalType": "uint256",
          "name": "balance",
          "type": "uint256"
        },
        {
          "internalType": "uint256",
          "name": "needed",
          "type": "uint256"
        },
        {
          "internalType": "uint256",
          "name": "tokenId",
          "type": "uint256"
        }
      ],
      "name": "ERC1155InsufficientBalance",
      "type": "error"
    },
    {
      "inputs": [
        {
          "internalType": "address",
          "name": "approver",
          "type": "address"
        }
      ],
      "name": "ERC1155InvalidApprover",
      "type": "error"
    },
    {
      "inputs": [
        {
          "internalType": "uint256",
          "name": "idsLength",
          "type": "uint256"
        },
        {
          "internalType": "uint256",
          "name": "valuesLength",
          "type": "uint256"
        }
      ],
      "name": "ERC1155InvalidArrayLength",
      "type": "error"
    },
    {
      "inputs": [
        {
          "internalType": "address",
          "name": "operator",
          "type": "address"
        }
      ],
      "name": "ERC1155InvalidOperator",
      "type": "error"
    },
    {
      "inputs": [
        {
          "internalType": "address",
          "name": "receiver",
          "type": "address"
        }
      ],
      "name": "ERC1155InvalidReceiver",
      "type": "error"
    },
    {
      "inputs": [
        {
          "internalType": "address",
          "name": "sender",
          "type": "address"
        }
      ],
      "name": "ERC1155InvalidSender",
      "type": "error"
    },
    {
      "inputs": [
        {
          "internalType": "address",
          "name": "operator",
          "type": "address"
        },
        {
          "internalType": "address",
          "name": "owner",
          "type": "address"
        }
      ],
      "name": "ERC1155MissingApprovalForAll",
      "type": "error"
    },
    {
      "inputs": [],
      "name": "EnforcedPause",
      "type": "error"
    },
    {
      "inputs": [],
      "name": "ExpectedPause",
      "type": "error"
    },
    {
      "anonymous": false,
      "inputs": [
        {
          "indexed": true,
          "internalType": "address",
          "name": "account",
          "type": "address"
        },
        {
          "indexed": true,
          "internalType": "address",
          "name": "operator",
          "type": "address"
        },
        {
          "indexed": false,
          "internalType": "bool",
          "name": "approved",
          "type": "bool"
        }
      ],
      "name": "ApprovalForAll",
      "type": "event"
    },
    {
      "anonymous": false,
      "inputs": [
        {
          "indexed": true,
          "internalType": "address",
          "name": "account",
          "type": "address"
        },
        {
          "indexed": true,
          "internalType": "uint256",
          "name": "tokenId",
          "type": "uint256"
        },
        {
          "indexed": false,
          "internalType": "uint256",
          "name": "expirationTime",
          "type": "uint256"
        }
      ],
      "name": "ExpirationSet",
      "type": "event"
    },
    {
      "anonymous": false,
      "inputs": [
        {
          "indexed": true,
          "internalType": "uint256",
          "name": "tokenId",
          "type": "uint256"
        },
        {
          "indexed": true,
          "internalType": "address",
          "name": "previousOwner",
          "type": "address"
        },
        {
          "indexed": true,
          "internalType": "address",
          "name": "newOwner",
          "type": "address"
        }
      ],
      "name": "OwnershipTransferred",
      "type": "event"
    },
    {
      "anonymous": false,
      "inputs": [
        {
          "indexed": false,
          "internalType": "address",
          "name": "account",
          "type": "address"
        }
      ],
      "name": "Paused",
      "type": "event"
    },
    {
      "anonymous": false,
      "inputs": [
        {
          "indexed": true,
          "internalType": "bytes32",
          "name": "role",
          "type": "bytes32"
        },
        {
          "indexed": true,
          "internalType": "bytes32",
          "name": "previousAdminRole",
          "type": "bytes32"
        },
        {
          "indexed": true,
          "internalType": "bytes32",
          "name": "newAdminRole",
          "type": "bytes32"
        }
      ],
      "name": "RoleAdminChanged",
      "type": "event"
    },
    {
      "anonymous": false,
      "inputs": [
        {
          "indexed": true,
          "internalType": "bytes32",
          "name": "role",
          "type": "bytes32"
        },
        {
          "indexed": true,
          "internalType": "address",
          "name": "account",
          "type": "address"
        },
        {
          "indexed": true,
          "internalType": "address",
          "name": "sender",
          "type": "address"
        }
      ],
      "name": "RoleGranted",
      "type": "event"
    },
    {
      "anonymous": false,
      "inputs": [
        {
          "indexed": true,
          "internalType": "bytes32",
          "name": "role",
          "type": "bytes32"
        },
        {
          "indexed": true,
          "internalType": "address",
          "name": "account",
          "type": "address"
        },
        {
          "indexed": true,
          "internalType": "address",
          "name": "sender",
          "type": "address"
        }
      ],
      "name": "RoleRevoked",
      "type": "event"
    },
    {
      "anonymous": false,
      "inputs": [
        {
          "indexed": true,
          "internalType": "address",
          "name": "operator",
          "type": "address"
        },
        {
          "indexed": true,
          "internalType": "address",
          "name": "from",
          "type": "address"
        },
        {
          "indexed": true,
          "internalType": "address",
          "name": "to",
          "type": "address"
        },
        {
          "indexed": false,
          "internalType": "uint256[]",
          "name": "ids",
          "type": "uint256[]"
        },
        {
          "indexed": false,
          "internalType": "uint256[]",
          "name": "values",
          "type": "uint256[]"
        }
      ],
      "name": "TransferBatch",
      "type": "event"
    },
    {
      "anonymous": false,
      "inputs": [
        {
          "indexed": true,
          "internalType": "address",
          "name": "operator",
          "type": "address"
        },
        {
          "indexed": true,
          "internalType": "address",
          "name": "from",
          "type": "address"
        },
        {
          "indexed": true,
          "internalType": "address",
          "name": "to",
          "type": "address"
        },
        {
          "indexed": false,
          "internalType": "uint256",
          "name": "id",
          "type": "uint256"
        },
        {
          "indexed": false,
          "internalType": "uint256",
          "name": "value",
          "type": "uint256"
        }
      ],
      "name": "TransferSingle",
      "type": "event"
    },
    {
      "anonymous": false,
      "inputs": [
        {
          "indexed": false,
          "internalType": "string",
          "name": "value",
          "type": "string"
        },
        {
          "indexed": true,
          "internalType": "uint256",
          "name": "id",
          "type": "uint256"
        }
      ],
      "name": "URI",
      "type": "event"
    },
    {
      "anonymous": false,
      "inputs": [
        {
          "indexed": false,
          "internalType": "address",
          "name": "account",
          "type": "address"
        }
      ],
      "name": "Unpaused",
      "type": "event"
    },
    {
      "inputs": [],
      "name": "DEFAULT_ADMIN_ROLE",
      "outputs": [
        {
          "internalType": "bytes32",
          "name": "",
          "type": "bytes32"
        }
      ],
      "stateMutability": "view",
      "type": "function"
    },
    {
      "inputs": [],
      "name": "EXPIRATION_MANAGER_ROLE",
      "outputs": [
        {
          "internalType": "bytes32",
          "name": "",
          "type": "bytes32"
        }
      ],
      "stateMutability": "view",
      "type": "function"
    },
    {
      "inputs": [],
      "name": "MINTER_ROLE",
      "outputs": [
        {
          "internalType": "bytes32",
          "name": "",
          "type": "bytes32"
        }
      ],
      "stateMutability": "view",
      "type": "function"
    },
    {
      "inputs": [],
      "name": "PAUSER_ROLE",
      "outputs": [
        {
          "internalType": "bytes32",
          "name": "",
          "type": "bytes32"
        }
      ],
      "stateMutability": "view",
      "type": "function"
    },
    {
      "inputs": [],
      "name": "URI_SETTER_ROLE",
      "outputs": [
        {
          "internalType": "bytes32",
          "name": "",
          "type": "bytes32"
        }
      ],
      "stateMutability": "view",
      "type": "function"
    },
    {
      "inputs": [
        {
          "internalType": "address",
          "name": "account",
          "type": "address"
        },
        {
          "internalType": "uint256",
          "name": "id",
          "type": "uint256"
        }
      ],
      "name": "balanceOf",
      "outputs": [
        {
          "internalType": "uint256",
          "name": "",
          "type": "uint256"
        }
      ],
      "stateMutability": "view",
      "type": "function"
    },
    {
      "inputs": [
        {
          "internalType": "address[]",
          "name": "accounts",
          "type": "address[]"
        },
        {
          "internalType": "uint256[]",
          "name": "ids",
          "type": "uint256[]"
        }
      ],
      "name": "balanceOfBatch",
      "outputs": [
        {
          "internalType": "uint256[]",
          "name": "",
          "type": "uint256[]"
        }
      ],
      "stateMutability": "view",
      "type": "function"
    },
    {
      "inputs": [
        {
          "internalType": "address",
          "name": "account",
          "type": "address"
        },
        {
          "internalType": "uint256",
          "name": "id",
          "type": "uint256"
        },
        {
          "internalType": "uint256",
          "name": "value",
          "type": "uint256"
        }
      ],
      "name": "burn",
      "outputs": [],
      "stateMutability": "nonpayable",
      "type": "function"
    },
    {
      "inputs": [
        {
          "internalType": "address",
          "name": "account",
          "type": "address"
        },
        {
          "internalType": "uint256[]",
          "name": "ids",
          "type": "uint256[]"
        },
        {
          "internalType": "uint256[]",
          "name": "values",
          "type": "uint256[]"
        }
      ],
      "name": "burnBatch",
      "outputs": [],
      "stateMutability": "nonpayable",
      "type": "function"
    },
    {
      "inputs": [
        {
          "internalType": "uint256",
          "name": "id",
          "type": "uint256"
        }
      ],
      "name": "exists",
      "outputs": [
        {
          "internalType": "bool",
          "name": "",
          "type": "bool"
        }
      ],
      "stateMutability": "view",
      "type": "function"
    },
    {
      "inputs": [
        {
          "internalType": "address",
          "name": "account",
          "type": "address"
        },
        {
          "internalType": "uint256",
          "name": "id",
          "type": "uint256"
        }
      ],
      "name": "getExpiration",
      "outputs": [
        {
          "internalType": "uint256",
          "name": "",
          "type": "uint256"
        }
      ],
      "stateMutability": "view",
      "type": "function"
    },
    {
      "inputs": [
        {
          "internalType": "bytes32",
          "name": "role",
          "type": "bytes32"
        }
      ],
      "name": "getRoleAdmin",
      "outputs": [
        {
          "internalType": "bytes32",
          "name": "",
          "type": "bytes32"
        }
      ],
      "stateMutability": "view",
      "type": "function"
    },
    {
      "inputs": [
        {
          "internalType": "bytes32",
          "name": "role",
          "type": "bytes32"
        },
        {
          "internalType": "address",
          "name": "account",
          "type": "address"
        }
      ],
      "name": "grantRole",
      "outputs": [],
      "stateMutability": "nonpayable",
      "type": "function"
    },
    {
      "inputs": [
        {
          "internalType": "bytes32",
          "name": "role",
          "type": "bytes32"
        },
        {
          "internalType": "address",
          "name": "account",
          "type": "address"
        }
      ],
      "name": "hasRole",
      "outputs": [
        {
          "internalType": "bool",
          "name": "",
          "type": "bool"
        }
      ],
      "stateMutability": "view",
      "type": "function"
    },
    {
      "inputs": [
        {
          "internalType": "address",
          "name": "account",
          "type": "address"
        },
        {
          "internalType": "address",
          "name": "operator",
          "type": "address"
        }
      ],
      "name": "isApprovedForAll",
      "outputs": [
        {
          "internalType": "bool",
          "name": "",
          "type": "bool"
        }
      ],
      "stateMutability": "view",
      "type": "function"
    },
    {
      "inputs": [
        {
          "internalType": "address",
          "name": "account",
          "type": "address"
        },
        {
          "internalType": "uint256",
          "name": "id",
          "type": "uint256"
        }
      ],
      "name": "isExpired",
      "outputs": [
        {
          "internalType": "bool",
          "name": "",
          "type": "bool"
        }
      ],
      "stateMutability": "view",
      "type": "function"
    },
    {
      "inputs": [
        {
          "internalType": "address",
          "name": "account",
          "type": "address"
        },
        {
          "internalType": "uint256",
          "name": "id",
          "type": "uint256"
        },
        {
          "internalType": "uint256",
          "name": "amount",
          "type": "uint256"
        },
        {
          "internalType": "bytes",
          "name": "data",
          "type": "bytes"
        }
      ],
      "name": "mint",
      "outputs": [],
      "stateMutability": "nonpayable",
      "type": "function"
    },
    {
      "inputs": [
        {
          "internalType": "address",
          "name": "to",
          "type": "address"
        },
        {
          "internalType": "uint256",
          "name": "tokenId",
          "type": "uint256"
        },
        {
          "internalType": "uint256",
          "name": "amount",
          "type": "uint256"
        },
        {
          "internalType": "uint256",
          "name": "expirationTime",
          "type": "uint256"
        },
        {
          "internalType": "bytes",
          "name": "data",
          "type": "bytes"
        },
        {
          "internalType": "bytes",
          "name": "signature",
          "type": "bytes"
        }
      ],
      "name": "mintWithSignature",
      "outputs": [],
      "stateMutability": "nonpayable",
      "type": "function"
    },
    {
      "inputs": [
        {
          "internalType": "uint256",
          "name": "tokenId",
          "type": "uint256"
        }
      ],
      "name": "originalOwnerOf",
      "outputs": [
        {
          "internalType": "address",
          "name": "",
          "type": "address"
        }
      ],
      "stateMutability": "view",
      "type": "function"
    },
    {
      "inputs": [
        {
          "internalType": "uint256",
          "name": "tokenId",
          "type": "uint256"
        }
      ],
      "name": "ownerOf",
      "outputs": [
        {
          "internalType": "address",
          "name": "",
          "type": "address"
        }
      ],
      "stateMutability": "view",
      "type": "function"
    },
    {
      "inputs": [],
      "name": "pause",
      "outputs": [],
      "stateMutability": "nonpayable",
      "type": "function"
    },
    {
      "inputs": [],
      "name": "paused",
      "outputs": [
        {
          "internalType": "bool",
          "name": "",
          "type": "bool"
        }
      ],
      "stateMutability": "view",
      "type": "function"
    },
    {
      "inputs": [
        {
          "internalType": "bytes32",
          "name": "role",
          "type": "bytes32"
        },
        {
          "internalType": "address",
          "name": "callerConfirmation",
          "type": "address"
        }
      ],
      "name": "renounceRole",
      "outputs": [],
      "stateMutability": "nonpayable",
      "type": "function"
    },
    {
      "inputs": [
        {
          "internalType": "bytes32",
          "name": "role",
          "type": "bytes32"
        },
        {
          "internalType": "address",
          "name": "account",
          "type": "address"
        }
      ],
      "name": "revokeRole",
      "outputs": [],
      "stateMutability": "nonpayable",
      "type": "function"
    },
    {
      "inputs": [
        {
          "internalType": "address",
          "name": "from",
          "type": "address"
        },
        {
          "internalType": "address",
          "name": "to",
          "type": "address"
        },
        {
          "internalType": "uint256[]",
          "name": "ids",
          "type": "uint256[]"
        },
        {
          "internalType": "uint256[]",
          "name": "values",
          "type": "uint256[]"
        },
        {
          "internalType": "bytes",
          "name": "data",
          "type": "bytes"
        }
      ],
      "name": "safeBatchTransferFrom",
      "outputs": [],
      "stateMutability": "nonpayable",
      "type": "function"
    },
    {
      "inputs": [
        {
          "internalType": "address",
          "name": "from",
          "type": "address"
        },
        {
          "internalType": "address",
          "name": "to",
          "type": "address"
        },
        {
          "internalType": "uint256",
          "name": "id",
          "type": "uint256"
        },
        {
          "internalType": "uint256",
          "name": "value",
          "type": "uint256"
        },
        {
          "internalType": "bytes",
          "name": "data",
          "type": "bytes"
        }
      ],
      "name": "safeTransferFrom",
      "outputs": [],
      "stateMutability": "nonpayable",
      "type": "function"
    },
    {
      "inputs": [
        {
          "internalType": "address",
          "name": "operator",
          "type": "address"
        },
        {
          "internalType": "bool",
          "name": "approved",
          "type": "bool"
        }
      ],
      "name": "setApprovalForAll",
      "outputs": [],
      "stateMutability": "nonpayable",
      "type": "function"
    },
    {
      "inputs": [
        {
          "internalType": "string",
          "name": "baseURI",
          "type": "string"
        }
      ],
      "name": "setBaseURI",
      "outputs": [],
      "stateMutability": "nonpayable",
      "type": "function"
    },
    {
      "inputs": [
        {
          "internalType": "address",
          "name": "account",
          "type": "address"
        },
        {
          "internalType": "uint256",
          "name": "id",
          "type": "uint256"
        },
        {
          "internalType": "uint256",
          "name": "expirationTime",
          "type": "uint256"
        }
      ],
      "name": "setExpiration",
      "outputs": [],
      "stateMutability": "nonpayable",
      "type": "function"
    },
    {
      "inputs": [
        {
          "internalType": "uint256",
          "name": "tokenId",
          "type": "uint256"
        },
        {
          "internalType": "string",
          "name": "tokenURI",
          "type": "string"
        }
      ],
      "name": "setTokenURI",
      "outputs": [],
      "stateMutability": "nonpayable",
      "type": "function"
    },
    {
      "inputs": [
        {
          "internalType": "string",
          "name": "newuri",
          "type": "string"
        }
      ],
      "name": "setURI",
      "outputs": [],
      "stateMutability": "nonpayable",
      "type": "function"
    },
    {
      "inputs": [
        {
          "internalType": "bytes4",
          "name": "interfaceId",
          "type": "bytes4"
        }
      ],
      "name": "supportsInterface",
      "outputs": [
        {
          "internalType": "bool",
          "name": "",
          "type": "bool"
        }
      ],
      "stateMutability": "view",
      "type": "function"
    },
    {
      "inputs": [],
      "name": "totalSupply",
      "outputs": [
        {
          "internalType": "uint256",
          "name": "",
          "type": "uint256"
        }
      ],
      "stateMutability": "view",
      "type": "function"
    },
    {
      "inputs": [
        {
          "internalType": "uint256",
          "name": "id",
          "type": "uint256"
        }
      ],
      "name": "totalSupply",
      "outputs": [
        {
          "internalType": "uint256",
          "name": "",
          "type": "uint256"
        }
      ],
      "stateMutability": "view",
      "type": "function"
    },
    {
      "inputs": [
        {
          "internalType": "uint256",
          "name": "tokenId",
          "type": "uint256"
        },
        {
          "internalType": "address",
          "name": "newOwner",
          "type": "address"
        }
      ],
      "name": "transferOwnership",
      "outputs": [],
      "stateMutability": "nonpayable",
      "type": "function"
    },
    {
      "inputs": [],
      "name": "unpause",
      "outputs": [],
      "stateMutability": "nonpayable",
      "type": "function"
    },
    {
      "inputs": [
        {
          "internalType": "uint256",
          "name": "tokenId",
          "type": "uint256"
        }
      ],
      "name": "uri",
      "outputs": [
        {
          "internalType": "string",
          "name": "",
          "type": "string"
        }
      ],
      "stateMutability": "view",
      "type": "function"
    }
  ],
  "bytecode": "0x60806040526040518060200160405280600081525060079081620000249190620005ac565b503480156200003257600080fd5b50604051620058b6380380620058b68339818101604052810190620000589190620006fd565b6040518060400160405280601d81526020017f68747470733a2f2f73616665696465612e6e65742f646f632f7b69647d0000008152506200009f81620001a660201b60201c565b506000600460006101000a81548160ff021916908315150217905550620000d06000801b84620001bb60201b60201c565b50620001037f7804d923f43a17d325d77e781528e0793b2edd9890ab45fc64efd7b4b427744c84620001bb60201b60201c565b50620001367f65d7a28e3265b37a6474929f336521b332c1681b933f6cb9f3376673440d862a83620001bb60201b60201c565b50620001697f9f2df0fed2c77648de5860a4cc508cd0818c85b8b8a1ab4ceeef8d981c8956a682620001bb60201b60201c565b506200019c7f5bd33557d028fa6327a6c10090602e75b5763bcbc8c9d2f602672edd0eee7a0882620001bb60201b60201c565b5050505062000759565b8060029081620001b79190620005ac565b5050565b6000620001cf8383620002bf60201b60201c565b620002b45760016003600085815260200190815260200160002060000160008473ffffffffffffffffffffffffffffffffffffffff1673ffffffffffffffffffffffffffffffffffffffff16815260200190815260200160002060006101000a81548160ff021916908315150217905550620002506200032a60201b60201c565b73ffffffffffffffffffffffffffffffffffffffff168273ffffffffffffffffffffffffffffffffffffffff16847f2f8788117e7eff1d82e926ec794901d17c78024a50270940304540a733656f0d60405160405180910390a460019050620002b9565b600090505b92915050565b60006003600084815260200190815260200160002060000160008373ffffffffffffffffffffffffffffffffffffffff1673ffffffffffffffffffffffffffffffffffffffff16815260200190815260200160002060009054906101000a900460ff16905092915050565b600033905090565b600081519050919050565b7f4e487b7100000000000000000000000000000000000000000000000000000000600052604160045260246000fd5b7f4e487b7100000000000000000000000000000000000000000000000000000000600052602260045260246000fd5b60006002820490506001821680620003b457607f821691505b602082108103620003ca57620003c96200036c565b5b50919050565b60008190508160005260206000209050919050565b60006020601f8301049050919050565b600082821b905092915050565b600060088302620004347fffffffffffffffffffffffffffffffffffffffffffffffffffffffffffffffff82620003f5565b620004408683620003f5565b95508019841693508086168417925050509392505050565b6000819050919050565b6000819050919050565b60006200048d62000487620004818462000458565b62000462565b62000458565b9050919050565b6000819050919050565b620004a9836200046c565b620004c1620004b88262000494565b84845462000402565b825550505050565b600090565b620004d8620004c9565b620004e58184846200049e565b505050565b5b818110156200050d5762000501600082620004ce565b600181019050620004eb565b5050565b601f8211156200055c576200052681620003d0565b6200053184620003e5565b8101602085101562000541578190505b620005596200055085620003e5565b830182620004ea565b50505b505050565b600082821c905092915050565b6000620005816000198460080262000561565b1980831691505092915050565b60006200059c83836200056e565b9150826002028217905092915050565b620005b78262000332565b67ffffffffffffffff811115620005d357620005d26200033d565b5b620005df82546200039b565b620005ec82828562000511565b600060209050601f8311600181146200062457600084156200060f578287015190505b6200061b85826200058e565b8655506200068b565b601f1984166200063486620003d0565b60005b828110156200065e5784890151825560018201915060208501945060208101905062000637565b868310156200067e57848901516200067a601f8916826200056e565b8355505b6001600288020188555050505b505050505050565b600080fd5b600073ffffffffffffffffffffffffffffffffffffffff82169050919050565b6000620006c58262000698565b9050919050565b620006d781620006b8565b8114620006e357600080fd5b50565b600081519050620006f781620006cc565b92915050565b60008060006060848603121562000719576200071862000693565b5b60006200072986828701620006e6565b93505060206200073c86828701620006e6565b92505060406200074f86828701620006e6565b9150509250925092565b61514d80620007696000396000f3fe608060405234801561001057600080fd5b50600436106102265760003560e01c806355f804b311610130578063a217fddf116100b8578063d547741f1161007c578063d547741f14610683578063e63ab1e91461069f578063e985e9c5146106bd578063f242432a146106ed578063f5298aca1461070957610226565b8063a217fddf146105df578063a22cb465146105fd578063afd0d93014610619578063bd85b03914610635578063d53913931461066557610226565b8063731133e9116100ff578063731133e91461053b57806373b64ac5146105575780637f345710146105875780638456cb59146105a557806391d14854146105af57610226565b806355f804b3146104b55780635c975abb146104d15780636352211e146104ef5780636b20c4541461051f57610226565b806329507f73116101b357806336568abe1161018257806336568abe146104115780633f4ba83a1461042d5780634943f8f8146104375780634e1273f4146104555780634f558e791461048557610226565b806329507f731461038d5780632cac49c4146103a95780632eb2c2d6146103d95780632f2ff15d146103f557610226565b806315149793116101fa57806315149793146102d7578063162094c41461030757806318160ddd146103235780631af189e114610341578063248a9ca31461035d57610226565b8062fdd58e1461022b57806301ffc9a71461025b57806302fe53051461028b5780630e89341c146102a7575b600080fd5b610245600480360381019061024091906136ab565b610725565b60405161025291906136fa565b60405180910390f35b6102756004803603810190610270919061376d565b610800565b60405161028291906137b5565b60405180910390f35b6102a560048036038101906102a09190613916565b610812565b005b6102c160048036038101906102bc919061395f565b610849565b6040516102ce9190613a0b565b60405180910390f35b6102f160048036038101906102ec91906136ab565b61085b565b6040516102fe91906137b5565b60405180910390f35b610321600480360381019061031c9190613a2d565b6108cb565b005b61032b610904565b60405161033891906136fa565b60405180910390f35b61035b60048036038101906103569190613a89565b61090e565b005b61037760048036038101906103729190613b12565b610a2e565b6040516103849190613b4e565b60405180910390f35b6103a760048036038101906103a29190613b69565b610a4e565b005b6103c360048036038101906103be91906136ab565b610c4f565b6040516103d091906136fa565b60405180910390f35b6103f360048036038101906103ee9190613d12565b610caa565b005b61040f600480360381019061040a9190613de1565b610d52565b005b61042b60048036038101906104269190613de1565b610d74565b005b610435610def565b005b61043f610e24565b60405161044c9190613b4e565b60405180910390f35b61046f600480360381019061046a9190613ee4565b610e48565b60405161047c919061401a565b60405180910390f35b61049f600480360381019061049a919061395f565b610f57565b6040516104ac91906137b5565b60405180910390f35b6104cf60048036038101906104ca9190613916565b610f6b565b005b6104d9610fa2565b6040516104e691906137b5565b60405180910390f35b6105096004803603810190610504919061395f565b610fb9565b604051610516919061404b565b60405180910390f35b61053960048036038101906105349190614066565b61106a565b005b610555600480360381019061055091906140f1565b611116565b005b610571600480360381019061056c919061395f565b61125f565b60405161057e919061404b565b60405180910390f35b61058f611310565b60405161059c9190613b4e565b60405180910390f35b6105ad611334565b005b6105c960048036038101906105c49190613de1565b611369565b6040516105d691906137b5565b60405180910390f35b6105e76113d4565b6040516105f49190613b4e565b60405180910390f35b610617600480360381019061061291906141a0565b6113db565b005b610633600480360381019061062e91906141e0565b6113f1565b005b61064f600480360381019061064a919061395f565b611630565b60405161065c91906136fa565b60405180910390f35b61066d61164d565b60405161067a9190613b4e565b60405180910390f35b61069d60048036038101906106989190613de1565b611671565b005b6106a7611693565b6040516106b49190613b4e565b60405180910390f35b6106d760048036038101906106d291906142a5565b6116b7565b6040516106e491906137b5565b60405180910390f35b610707600480360381019061070291906142e5565b61174b565b005b610723600480360381019061071e9190613a89565b6117f3565b005b600080610732848461189f565b9050600081148061076f5750600073ffffffffffffffffffffffffffffffffffffffff168473ffffffffffffffffffffffffffffffffffffffff16145b1561077e5760009150506107fa565b6000600960008673ffffffffffffffffffffffffffffffffffffffff1673ffffffffffffffffffffffffffffffffffffffff1681526020019081526020016000206000858152602001908152602001600020549050600081141580156107e45750428111155b156107f4576000925050506107fa565b81925050505b92915050565b600061080b826118f9565b9050919050565b7f7804d923f43a17d325d77e781528e0793b2edd9890ab45fc64efd7b4b427744c61083c81611973565b61084582611987565b5050565b60606108548261199a565b9050919050565b600080600960008573ffffffffffffffffffffffffffffffffffffffff1673ffffffffffffffffffffffffffffffffffffffff1681526020019081526020016000206000848152602001908152602001600020549050600081141580156108c25750428111155b91505092915050565b7f7804d923f43a17d325d77e781528e0793b2edd9890ab45fc64efd7b4b427744c6108f581611973565b6108ff8383611a7f565b505050565b6000600654905090565b7f5bd33557d028fa6327a6c10090602e75b5763bcbc8c9d2f602672edd0eee7a0861093881611973565b6000610944858561189f565b11610984576040517f08c379a000000000000000000000000000000000000000000000000000000000815260040161097b906143ee565b60405180910390fd5b81600960008673ffffffffffffffffffffffffffffffffffffffff1673ffffffffffffffffffffffffffffffffffffffff168152602001908152602001600020600085815260200190815260200160002081905550828473ffffffffffffffffffffffffffffffffffffffff167f1347ce935d48b1622e772cb855c5f27a0956e54f183acdd65752106fa013cd0884604051610a2091906136fa565b60405180910390a350505050565b600060036000838152602001908152602001600020600101549050919050565b610a56611ae4565b73ffffffffffffffffffffffffffffffffffffffff16600b600084815260200190815260200160002060009054906101000a900473ffffffffffffffffffffffffffffffffffffffff1673ffffffffffffffffffffffffffffffffffffffff1614610af6576040517f08c379a0000000000000000000000000000000000000000000000000000000008152600401610aed90614480565b60405180910390fd5b600073ffffffffffffffffffffffffffffffffffffffff168173ffffffffffffffffffffffffffffffffffffffff1603610b65576040517f08c379a0000000000000000000000000000000000000000000000000000000008152600401610b5c90614512565b60405180910390fd5b6000600b600084815260200190815260200160002060009054906101000a900473ffffffffffffffffffffffffffffffffffffffff16905081600b600085815260200190815260200160002060006101000a81548173ffffffffffffffffffffffffffffffffffffffff021916908373ffffffffffffffffffffffffffffffffffffffff1602179055508173ffffffffffffffffffffffffffffffffffffffff168173ffffffffffffffffffffffffffffffffffffffff16847f16b85f49bf01212961345d3016c9a531894accf62eb7680f2045d79185cc0ec060405160405180910390a4505050565b6000600960008473ffffffffffffffffffffffffffffffffffffffff1673ffffffffffffffffffffffffffffffffffffffff168152602001908152602001600020600083815260200190815260200160002054905092915050565b6000610cb4611ae4565b90508073ffffffffffffffffffffffffffffffffffffffff168673ffffffffffffffffffffffffffffffffffffffff1614158015610cf95750610cf786826116b7565b155b15610d3d5780866040517fe237d922000000000000000000000000000000000000000000000000000000008152600401610d34929190614532565b60405180910390fd5b610d4a8686868686611aec565b505050505050565b610d5b82610a2e565b610d6481611973565b610d6e8383611be4565b50505050565b610d7c611ae4565b73ffffffffffffffffffffffffffffffffffffffff168173ffffffffffffffffffffffffffffffffffffffff1614610de0576040517f6697b23200000000000000000000000000000000000000000000000000000000815260040160405180910390fd5b610dea8282611cd6565b505050565b7f65d7a28e3265b37a6474929f336521b332c1681b933f6cb9f3376673440d862a610e1981611973565b610e21611dc9565b50565b7f5bd33557d028fa6327a6c10090602e75b5763bcbc8c9d2f602672edd0eee7a0881565b60608151835114610e9457815183516040517f5b059991000000000000000000000000000000000000000000000000000000008152600401610e8b92919061455b565b60405180910390fd5b6000835167ffffffffffffffff811115610eb157610eb06137eb565b5b604051908082528060200260200182016040528015610edf5781602001602082028036833780820191505090505b50905060005b8451811015610f4c57610f1c610f048287611e2c90919063ffffffff16565b610f178387611e4090919063ffffffff16565b610725565b828281518110610f2f57610f2e614584565b5b60200260200101818152505080610f45906145e2565b9050610ee5565b508091505092915050565b600080610f6383611630565b119050919050565b7f7804d923f43a17d325d77e781528e0793b2edd9890ab45fc64efd7b4b427744c610f9581611973565b610f9e82611e54565b5050565b6000600460009054906101000a900460ff16905090565b600080600b600084815260200190815260200160002060009054906101000a900473ffffffffffffffffffffffffffffffffffffffff169050600073ffffffffffffffffffffffffffffffffffffffff168173ffffffffffffffffffffffffffffffffffffffff1603611061576040517f08c379a00000000000000000000000000000000000000000000000000000000081526004016110589061469c565b60405180910390fd5b80915050919050565b611072611ae4565b73ffffffffffffffffffffffffffffffffffffffff168373ffffffffffffffffffffffffffffffffffffffff16141580156110bb57506110b9836110b4611ae4565b6116b7565b155b15611106576110c8611ae4565b836040517fe237d9220000000000000000000000000000000000000000000000000000000081526004016110fd929190614532565b60405180910390fd5b611111838383611e67565b505050565b7f9f2df0fed2c77648de5860a4cc508cd0818c85b8b8a1ab4ceeef8d981c8956a661114081611973565b61114c85858585611efb565b600073ffffffffffffffffffffffffffffffffffffffff16600a600086815260200190815260200160002060009054906101000a900473ffffffffffffffffffffffffffffffffffffffff1673ffffffffffffffffffffffffffffffffffffffff16036112585784600a600086815260200190815260200160002060006101000a81548173ffffffffffffffffffffffffffffffffffffffff021916908373ffffffffffffffffffffffffffffffffffffffff16021790555084600b600086815260200190815260200160002060006101000a81548173ffffffffffffffffffffffffffffffffffffffff021916908373ffffffffffffffffffffffffffffffffffffffff1602179055505b5050505050565b600080600a600084815260200190815260200160002060009054906101000a900473ffffffffffffffffffffffffffffffffffffffff169050600073ffffffffffffffffffffffffffffffffffffffff168173ffffffffffffffffffffffffffffffffffffffff1603611307576040517f08c379a00000000000000000000000000000000000000000000000000000000081526004016112fe90614708565b60405180910390fd5b80915050919050565b7f7804d923f43a17d325d77e781528e0793b2edd9890ab45fc64efd7b4b427744c81565b7f65d7a28e3265b37a6474929f336521b332c1681b933f6cb9f3376673440d862a61135e81611973565b611366611f94565b50565b60006003600084815260200190815260200160002060000160008373ffffffffffffffffffffffffffffffffffffffff1673ffffffffffffffffffffffffffffffffffffffff16815260200190815260200160002060009054906101000a900460ff16905092915050565b6000801b81565b6113ed6113e6611ae4565b8383611ff7565b5050565b6000600b600087815260200190815260200160002060009054906101000a900473ffffffffffffffffffffffffffffffffffffffff169050600073ffffffffffffffffffffffffffffffffffffffff168173ffffffffffffffffffffffffffffffffffffffff1603611498576040517f08c379a000000000000000000000000000000000000000000000000000000000815260040161148f9061479a565b60405180910390fd5b6000878787306040516020016114b19493929190614823565b604051602081830303815290604052805190602001206040516020016114d791906148e9565b60405160208183030381529060405280519060200120905060006114fb8285612167565b90508273ffffffffffffffffffffffffffffffffffffffff168173ffffffffffffffffffffffffffffffffffffffff161461156b576040517f08c379a00000000000000000000000000000000000000000000000000000000081526004016115629061495b565b60405180910390fd5b61157789898988611efb565b60008611156116255785600960008b73ffffffffffffffffffffffffffffffffffffffff1673ffffffffffffffffffffffffffffffffffffffff16815260200190815260200160002060008a815260200190815260200160002081905550878973ffffffffffffffffffffffffffffffffffffffff167f1347ce935d48b1622e772cb855c5f27a0956e54f183acdd65752106fa013cd088860405161161c91906136fa565b60405180910390a35b505050505050505050565b600060056000838152602001908152602001600020549050919050565b7f9f2df0fed2c77648de5860a4cc508cd0818c85b8b8a1ab4ceeef8d981c8956a681565b61167a82610a2e565b61168381611973565b61168d8383611cd6565b50505050565b7f65d7a28e3265b37a6474929f336521b332c1681b933f6cb9f3376673440d862a81565b6000600160008473ffffffffffffffffffffffffffffffffffffffff1673ffffffffffffffffffffffffffffffffffffffff16815260200190815260200160002060008373ffffffffffffffffffffffffffffffffffffffff1673ffffffffffffffffffffffffffffffffffffffff16815260200190815260200160002060009054906101000a900460ff16905092915050565b6000611755611ae4565b90508073ffffffffffffffffffffffffffffffffffffffff168673ffffffffffffffffffffffffffffffffffffffff161415801561179a575061179886826116b7565b155b156117de5780866040517fe237d9220000000000000000000000000000000000000000000000000000000081526004016117d5929190614532565b60405180910390fd5b6117eb8686868686612193565b505050505050565b6117fb611ae4565b73ffffffffffffffffffffffffffffffffffffffff168373ffffffffffffffffffffffffffffffffffffffff161415801561184457506118428361183d611ae4565b6116b7565b155b1561188f57611851611ae4565b836040517fe237d922000000000000000000000000000000000000000000000000000000008152600401611886929190614532565b60405180910390fd5b61189a83838361229e565b505050565b600080600083815260200190815260200160002060008473ffffffffffffffffffffffffffffffffffffffff1673ffffffffffffffffffffffffffffffffffffffff16815260200190815260200160002054905092915050565b60007f7965db0b000000000000000000000000000000000000000000000000000000007bffffffffffffffffffffffffffffffffffffffffffffffffffffffff1916827bffffffffffffffffffffffffffffffffffffffffffffffffffffffff1916148061196c575061196b82612345565b5b9050919050565b6119848161197f611ae4565b612427565b50565b80600290816119969190614b87565b5050565b606060006008600084815260200190815260200160002080546119bc906149aa565b80601f01602080910402602001604051908101604052809291908181526020018280546119e8906149aa565b8015611a355780601f10611a0a57610100808354040283529160200191611a35565b820191906000526020600020905b815481529060010190602001808311611a1857829003601f168201915b505050505090506000815111611a5357611a4e83612478565b611a77565b600781604051602001611a67929190614d0d565b6040516020818303038152906040525b915050919050565b80600860008481526020019081526020016000209081611a9f9190614b87565b50817f6bb7ff708619ba0610cba295a58592e0451dee2622938c8755667688daf3529b611acb84610849565b604051611ad89190613a0b565b60405180910390a25050565b600033905090565b600073ffffffffffffffffffffffffffffffffffffffff168473ffffffffffffffffffffffffffffffffffffffff1603611b5e5760006040517f57f447ce000000000000000000000000000000000000000000000000000000008152600401611b55919061404b565b60405180910390fd5b600073ffffffffffffffffffffffffffffffffffffffff168573ffffffffffffffffffffffffffffffffffffffff1603611bd05760006040517f01a83514000000000000000000000000000000000000000000000000000000008152600401611bc7919061404b565b60405180910390fd5b611bdd858585858561250c565b5050505050565b6000611bf08383611369565b611ccb5760016003600085815260200190815260200160002060000160008473ffffffffffffffffffffffffffffffffffffffff1673ffffffffffffffffffffffffffffffffffffffff16815260200190815260200160002060006101000a81548160ff021916908315150217905550611c68611ae4565b73ffffffffffffffffffffffffffffffffffffffff168273ffffffffffffffffffffffffffffffffffffffff16847f2f8788117e7eff1d82e926ec794901d17c78024a50270940304540a733656f0d60405160405180910390a460019050611cd0565b600090505b92915050565b6000611ce28383611369565b15611dbe5760006003600085815260200190815260200160002060000160008473ffffffffffffffffffffffffffffffffffffffff1673ffffffffffffffffffffffffffffffffffffffff16815260200190815260200160002060006101000a81548160ff021916908315150217905550611d5b611ae4565b73ffffffffffffffffffffffffffffffffffffffff168273ffffffffffffffffffffffffffffffffffffffff16847ff6391f5c32d9c69d2a47ea670b442974b53935d1edc7fd64eb21e047a839171b60405160405180910390a460019050611dc3565b600090505b92915050565b611dd16125be565b6000600460006101000a81548160ff0219169083151502179055507f5db9ee0a495bf2e6ff9c91a7834c1ba4fdd244a5e8aa4e537bd38aeae4b073aa611e15611ae4565b604051611e22919061404b565b60405180910390a1565b600060208202602084010151905092915050565b600060208202602084010151905092915050565b8060079081611e639190614b87565b5050565b600073ffffffffffffffffffffffffffffffffffffffff168373ffffffffffffffffffffffffffffffffffffffff1603611ed95760006040517f01a83514000000000000000000000000000000000000000000000000000000008152600401611ed0919061404b565b60405180910390fd5b611ef683600084846040518060200160405280600081525061250c565b505050565b600073ffffffffffffffffffffffffffffffffffffffff168473ffffffffffffffffffffffffffffffffffffffff1603611f6d5760006040517f57f447ce000000000000000000000000000000000000000000000000000000008152600401611f64919061404b565b60405180910390fd5b600080611f7a85856125fe565b91509150611f8c60008784848761250c565b505050505050565b611f9c61262e565b6001600460006101000a81548160ff0219169083151502179055507f62e78cea01bee320cd4e420270b5ea74000d11b0c9f74754ebdbfc544b05a258611fe0611ae4565b604051611fed919061404b565b60405180910390a1565b600073ffffffffffffffffffffffffffffffffffffffff168273ffffffffffffffffffffffffffffffffffffffff16036120695760006040517fced3e100000000000000000000000000000000000000000000000000000000008152600401612060919061404b565b60405180910390fd5b80600160008573ffffffffffffffffffffffffffffffffffffffff1673ffffffffffffffffffffffffffffffffffffffff16815260200190815260200160002060008473ffffffffffffffffffffffffffffffffffffffff1673ffffffffffffffffffffffffffffffffffffffff16815260200190815260200160002060006101000a81548160ff0219169083151502179055508173ffffffffffffffffffffffffffffffffffffffff168373ffffffffffffffffffffffffffffffffffffffff167f17307eab39ab6107e8899845ad3d59bd9653f200f220920489ca2b5937696c318360405161215a91906137b5565b60405180910390a3505050565b600080600080612177868661266f565b92509250925061218782826126cb565b82935050505092915050565b600073ffffffffffffffffffffffffffffffffffffffff168473ffffffffffffffffffffffffffffffffffffffff16036122055760006040517f57f447ce0000000000000000000000000000000000000000000000000000000081526004016121fc919061404b565b60405180910390fd5b600073ffffffffffffffffffffffffffffffffffffffff168573ffffffffffffffffffffffffffffffffffffffff16036122775760006040517f01a8351400000000000000000000000000000000000000000000000000000000815260040161226e919061404b565b60405180910390fd5b60008061228485856125fe565b91509150612295878784848761250c565b50505050505050565b600073ffffffffffffffffffffffffffffffffffffffff168373ffffffffffffffffffffffffffffffffffffffff16036123105760006040517f01a83514000000000000000000000000000000000000000000000000000000008152600401612307919061404b565b60405180910390fd5b60008061231d84846125fe565b9150915061233e85600084846040518060200160405280600081525061250c565b5050505050565b60007fd9b67a26000000000000000000000000000000000000000000000000000000007bffffffffffffffffffffffffffffffffffffffffffffffffffffffff1916827bffffffffffffffffffffffffffffffffffffffffffffffffffffffff1916148061241057507f0e89341c000000000000000000000000000000000000000000000000000000007bffffffffffffffffffffffffffffffffffffffffffffffffffffffff1916827bffffffffffffffffffffffffffffffffffffffffffffffffffffffff1916145b80612420575061241f8261282f565b5b9050919050565b6124318282611369565b6124745780826040517fe2517d3f00000000000000000000000000000000000000000000000000000000815260040161246b929190614d31565b60405180910390fd5b5050565b606060028054612487906149aa565b80601f01602080910402602001604051908101604052809291908181526020018280546124b3906149aa565b80156125005780601f106124d557610100808354040283529160200191612500565b820191906000526020600020905b8154815290600101906020018083116124e357829003601f168201915b50505050509050919050565b61251885858585612899565b600073ffffffffffffffffffffffffffffffffffffffff168473ffffffffffffffffffffffffffffffffffffffff16146125b7576000612556611ae4565b905060018451036125a6576000612577600086611e4090919063ffffffff16565b9050600061258f600086611e4090919063ffffffff16565b905061259f838989858589612c48565b50506125b5565b6125b4818787878787612dfc565b5b505b5050505050565b6125c6610fa2565b6125fc576040517f8dfc202b00000000000000000000000000000000000000000000000000000000815260040160405180910390fd5b565b60608060405191506001825283602083015260408201905060018152826020820152604081016040529250929050565b612636610fa2565b1561266d576040517fd93c066500000000000000000000000000000000000000000000000000000000815260040160405180910390fd5b565b600080600060418451036126b45760008060006020870151925060408701519150606087015160001a90506126a688828585612fb0565b9550955095505050506126c4565b60006002855160001b9250925092505b9250925092565b600060038111156126df576126de614d5a565b5b8260038111156126f2576126f1614d5a565b5b031561282b576001600381111561270c5761270b614d5a565b5b82600381111561271f5761271e614d5a565b5b03612756576040517ff645eedf00000000000000000000000000000000000000000000000000000000815260040160405180910390fd5b6002600381111561276a57612769614d5a565b5b82600381111561277d5761277c614d5a565b5b036127c2578060001c6040517ffce698f70000000000000000000000000000000000000000000000000000000081526004016127b991906136fa565b60405180910390fd5b6003808111156127d5576127d4614d5a565b5b8260038111156127e8576127e7614d5a565b5b0361282a57806040517fd78bce0c0000000000000000000000000000000000000000000000000000000081526004016128219190613b4e565b60405180910390fd5b5b5050565b60007f01ffc9a7000000000000000000000000000000000000000000000000000000007bffffffffffffffffffffffffffffffffffffffffffffffffffffffff1916827bffffffffffffffffffffffffffffffffffffffffffffffffffffffff1916149050919050565b600073ffffffffffffffffffffffffffffffffffffffff168473ffffffffffffffffffffffffffffffffffffffff16141580156129035750600073ffffffffffffffffffffffffffffffffffffffff168373ffffffffffffffffffffffffffffffffffffffff1614155b15612979576129397f9f2df0fed2c77648de5860a4cc508cd0818c85b8b8a1ab4ceeef8d981c8956a6612934611ae4565b611369565b612978576040517f08c379a000000000000000000000000000000000000000000000000000000000815260040161296f90614dfb565b60405180910390fd5b5b600073ffffffffffffffffffffffffffffffffffffffff168473ffffffffffffffffffffffffffffffffffffffff1614612ae85760005b8251811015612ae65760008282815181106129ce576129cd614584565b5b60200260200101511115612ad3576000600960008773ffffffffffffffffffffffffffffffffffffffff1673ffffffffffffffffffffffffffffffffffffffff1681526020019081526020016000206000858481518110612a3257612a31614584565b5b6020026020010151815260200190815260200160002054905060008114158015612a5c5750428111155b15612ad157600073ffffffffffffffffffffffffffffffffffffffff168573ffffffffffffffffffffffffffffffffffffffff1614612ad0576040517f08c379a0000000000000000000000000000000000000000000000000000000008152600401612ac790614e8d565b60405180910390fd5b5b505b8080612ade906145e2565b9150506129b0565b505b612af4848484846130a4565b600073ffffffffffffffffffffffffffffffffffffffff168373ffffffffffffffffffffffffffffffffffffffff1614158015612b5e5750600073ffffffffffffffffffffffffffffffffffffffff168473ffffffffffffffffffffffffffffffffffffffff1614155b15612c425760005b8251811015612c40576000828281518110612b8457612b83614584565b5b60200260200101511115612c2d576000612bb886858481518110612bab57612baa614584565b5b602002602001015161189f565b03612c2c57600960008673ffffffffffffffffffffffffffffffffffffffff1673ffffffffffffffffffffffffffffffffffffffff1681526020019081526020016000206000848381518110612c1157612c10614584565b5b60200260200101518152602001908152602001600020600090555b5b8080612c38906145e2565b915050612b66565b505b50505050565b60008473ffffffffffffffffffffffffffffffffffffffff163b1115612df4578373ffffffffffffffffffffffffffffffffffffffff1663f23a6e6187878686866040518663ffffffff1660e01b8152600401612ca9959493929190614f02565b6020604051808303816000875af1925050508015612ce557506040513d601f19601f82011682018060405250810190612ce29190614f71565b60015b612d69573d8060008114612d15576040519150601f19603f3d011682016040523d82523d6000602084013e612d1a565b606091505b506000815103612d6157846040517f57f447ce000000000000000000000000000000000000000000000000000000008152600401612d58919061404b565b60405180910390fd5b805181602001fd5b63f23a6e6160e01b7bffffffffffffffffffffffffffffffffffffffffffffffffffffffff1916817bffffffffffffffffffffffffffffffffffffffffffffffffffffffff191614612df257846040517f57f447ce000000000000000000000000000000000000000000000000000000008152600401612de9919061404b565b60405180910390fd5b505b505050505050565b60008473ffffffffffffffffffffffffffffffffffffffff163b1115612fa8578373ffffffffffffffffffffffffffffffffffffffff1663bc197c8187878686866040518663ffffffff1660e01b8152600401612e5d959493929190614f9e565b6020604051808303816000875af1925050508015612e9957506040513d601f19601f82011682018060405250810190612e969190614f71565b60015b612f1d573d8060008114612ec9576040519150601f19603f3d011682016040523d82523d6000602084013e612ece565b606091505b506000815103612f1557846040517f57f447ce000000000000000000000000000000000000000000000000000000008152600401612f0c919061404b565b60405180910390fd5b805181602001fd5b63bc197c8160e01b7bffffffffffffffffffffffffffffffffffffffffffffffffffffffff1916817bffffffffffffffffffffffffffffffffffffffffffffffffffffffff191614612fa657846040517f57f447ce000000000000000000000000000000000000000000000000000000008152600401612f9d919061404b565b60405180910390fd5b505b505050505050565b60008060007f7fffffffffffffffffffffffffffffff5d576e7357a4501ddfe92f46681b20a08460001c1115612ff057600060038592509250925061309a565b6000600188888888604051600081526020016040526040516130159493929190615022565b6020604051602081039080840390855afa158015613037573d6000803e3d6000fd5b505050602060405103519050600073ffffffffffffffffffffffffffffffffffffffff168173ffffffffffffffffffffffffffffffffffffffff160361308b57600060016000801b9350935093505061309a565b8060008060001b935093509350505b9450945094915050565b6130b08484848461323b565b600073ffffffffffffffffffffffffffffffffffffffff168473ffffffffffffffffffffffffffffffffffffffff1603613180576000805b83518110156131645760006131068285611e4090919063ffffffff16565b905080600560006131208589611e4090919063ffffffff16565b8152602001908152602001600020600082825461313d9190615067565b9250508190555080836131509190615067565b9250508061315d906145e2565b90506130e8565b5080600660008282546131779190615067565b92505081905550505b600073ffffffffffffffffffffffffffffffffffffffff168373ffffffffffffffffffffffffffffffffffffffff1603613235576000805b83518110156132225760006131d68285611e4090919063ffffffff16565b905080600560006131f08589611e4090919063ffffffff16565b8152602001908152602001600020600082825403925050819055508083019250508061321b906145e2565b90506131b8565b5080600660008282540392505081905550505b50505050565b61324361262e565b61324f84848484613255565b50505050565b805182511461329f57815181516040517f5b05999100000000000000000000000000000000000000000000000000000000815260040161329692919061455b565b60405180910390fd5b60006132a9611ae4565b905060005b83518110156134be5760006132cc8286611e4090919063ffffffff16565b905060006132e38386611e4090919063ffffffff16565b9050600073ffffffffffffffffffffffffffffffffffffffff168873ffffffffffffffffffffffffffffffffffffffff161461341057600080600084815260200190815260200160002060008a73ffffffffffffffffffffffffffffffffffffffff1673ffffffffffffffffffffffffffffffffffffffff168152602001908152602001600020549050818110156133b857888183856040517f03dee4c50000000000000000000000000000000000000000000000000000000081526004016133af949392919061509b565b60405180910390fd5b81810360008085815260200190815260200160002060008b73ffffffffffffffffffffffffffffffffffffffff1673ffffffffffffffffffffffffffffffffffffffff16815260200190815260200160002081905550505b600073ffffffffffffffffffffffffffffffffffffffff168773ffffffffffffffffffffffffffffffffffffffff16146134ab578060008084815260200190815260200160002060008973ffffffffffffffffffffffffffffffffffffffff1673ffffffffffffffffffffffffffffffffffffffff16815260200190815260200160002060008282546134a39190615067565b925050819055505b5050806134b7906145e2565b90506132ae565b50600183510361357d5760006134de600085611e4090919063ffffffff16565b905060006134f6600085611e4090919063ffffffff16565b90508573ffffffffffffffffffffffffffffffffffffffff168773ffffffffffffffffffffffffffffffffffffffff168473ffffffffffffffffffffffffffffffffffffffff167fc3d58168c5ae7397731d063d5bbf3d657854427343f4c083240f7aacaa2d0f62858560405161356e92919061455b565b60405180910390a450506135fc565b8373ffffffffffffffffffffffffffffffffffffffff168573ffffffffffffffffffffffffffffffffffffffff168273ffffffffffffffffffffffffffffffffffffffff167f4a39dc06d4c0dbc64b70af90fd698a233a518aa5d07e595d983b8c0526c8f7fb86866040516135f39291906150e0565b60405180910390a45b5050505050565b6000604051905090565b600080fd5b600080fd5b600073ffffffffffffffffffffffffffffffffffffffff82169050919050565b600061364282613617565b9050919050565b61365281613637565b811461365d57600080fd5b50565b60008135905061366f81613649565b92915050565b6000819050919050565b61368881613675565b811461369357600080fd5b50565b6000813590506136a58161367f565b92915050565b600080604083850312156136c2576136c161360d565b5b60006136d085828601613660565b92505060206136e185828601613696565b9150509250929050565b6136f481613675565b82525050565b600060208201905061370f60008301846136eb565b92915050565b60007fffffffff0000000000000000000000000000000000000000000000000000000082169050919050565b61374a81613715565b811461375557600080fd5b50565b60008135905061376781613741565b92915050565b6000602082840312156137835761378261360d565b5b600061379184828501613758565b91505092915050565b60008115159050919050565b6137af8161379a565b82525050565b60006020820190506137ca60008301846137a6565b92915050565b600080fd5b600080fd5b6000601f19601f8301169050919050565b7f4e487b7100000000000000000000000000000000000000000000000000000000600052604160045260246000fd5b613823826137da565b810181811067ffffffffffffffff82111715613842576138416137eb565b5b80604052505050565b6000613855613603565b9050613861828261381a565b919050565b600067ffffffffffffffff821115613881576138806137eb565b5b61388a826137da565b9050602081019050919050565b82818337600083830152505050565b60006138b96138b484613866565b61384b565b9050828152602081018484840111156138d5576138d46137d5565b5b6138e0848285613897565b509392505050565b600082601f8301126138fd576138fc6137d0565b5b813561390d8482602086016138a6565b91505092915050565b60006020828403121561392c5761392b61360d565b5b600082013567ffffffffffffffff81111561394a57613949613612565b5b613956848285016138e8565b91505092915050565b6000602082840312156139755761397461360d565b5b600061398384828501613696565b91505092915050565b600081519050919050565b600082825260208201905092915050565b60005b838110156139c65780820151818401526020810190506139ab565b60008484015250505050565b60006139dd8261398c565b6139e78185613997565b93506139f78185602086016139a8565b613a00816137da565b840191505092915050565b60006020820190508181036000830152613a2581846139d2565b905092915050565b60008060408385031215613a4457613a4361360d565b5b6000613a5285828601613696565b925050602083013567ffffffffffffffff811115613a7357613a72613612565b5b613a7f858286016138e8565b9150509250929050565b600080600060608486031215613aa257613aa161360d565b5b6000613ab086828701613660565b9350506020613ac186828701613696565b9250506040613ad286828701613696565b9150509250925092565b6000819050919050565b613aef81613adc565b8114613afa57600080fd5b50565b600081359050613b0c81613ae6565b92915050565b600060208284031215613b2857613b2761360d565b5b6000613b3684828501613afd565b91505092915050565b613b4881613adc565b82525050565b6000602082019050613b636000830184613b3f565b92915050565b60008060408385031215613b8057613b7f61360d565b5b6000613b8e85828601613696565b9250506020613b9f85828601613660565b9150509250929050565b600067ffffffffffffffff821115613bc457613bc36137eb565b5b602082029050602081019050919050565b600080fd5b6000613bed613be884613ba9565b61384b565b90508083825260208201905060208402830185811115613c1057613c0f613bd5565b5b835b81811015613c395780613c258882613696565b845260208401935050602081019050613c12565b5050509392505050565b600082601f830112613c5857613c576137d0565b5b8135613c68848260208601613bda565b91505092915050565b600067ffffffffffffffff821115613c8c57613c8b6137eb565b5b613c95826137da565b9050602081019050919050565b6000613cb5613cb084613c71565b61384b565b905082815260208101848484011115613cd157613cd06137d5565b5b613cdc848285613897565b509392505050565b600082601f830112613cf957613cf86137d0565b5b8135613d09848260208601613ca2565b91505092915050565b600080600080600060a08688031215613d2e57613d2d61360d565b5b6000613d3c88828901613660565b9550506020613d4d88828901613660565b945050604086013567ffffffffffffffff811115613d6e57613d6d613612565b5b613d7a88828901613c43565b935050606086013567ffffffffffffffff811115613d9b57613d9a613612565b5b613da788828901613c43565b925050608086013567ffffffffffffffff811115613dc857613dc7613612565b5b613dd488828901613ce4565b9150509295509295909350565b60008060408385031215613df857613df761360d565b5b6000613e0685828601613afd565b9250506020613e1785828601613660565b9150509250929050565b600067ffffffffffffffff821115613e3c57613e3b6137eb565b5b602082029050602081019050919050565b6000613e60613e5b84613e21565b61384b565b90508083825260208201905060208402830185811115613e8357613e82613bd5565b5b835b81811015613eac5780613e988882613660565b845260208401935050602081019050613e85565b5050509392505050565b600082601f830112613ecb57613eca6137d0565b5b8135613edb848260208601613e4d565b91505092915050565b60008060408385031215613efb57613efa61360d565b5b600083013567ffffffffffffffff811115613f1957613f18613612565b5b613f2585828601613eb6565b925050602083013567ffffffffffffffff811115613f4657613f45613612565b5b613f5285828601613c43565b9150509250929050565b600081519050919050565b600082825260208201905092915050565b6000819050602082019050919050565b613f9181613675565b82525050565b6000613fa38383613f88565b60208301905092915050565b6000602082019050919050565b6000613fc782613f5c565b613fd18185613f67565b9350613fdc83613f78565b8060005b8381101561400d578151613ff48882613f97565b9750613fff83613faf565b925050600181019050613fe0565b5085935050505092915050565b600060208201905081810360008301526140348184613fbc565b905092915050565b61404581613637565b82525050565b6000602082019050614060600083018461403c565b92915050565b60008060006060848603121561407f5761407e61360d565b5b600061408d86828701613660565b935050602084013567ffffffffffffffff8111156140ae576140ad613612565b5b6140ba86828701613c43565b925050604084013567ffffffffffffffff8111156140db576140da613612565b5b6140e786828701613c43565b9150509250925092565b6000806000806080858703121561410b5761410a61360d565b5b600061411987828801613660565b945050602061412a87828801613696565b935050604061413b87828801613696565b925050606085013567ffffffffffffffff81111561415c5761415b613612565b5b61416887828801613ce4565b91505092959194509250565b61417d8161379a565b811461418857600080fd5b50565b60008135905061419a81614174565b92915050565b600080604083850312156141b7576141b661360d565b5b60006141c585828601613660565b92505060206141d68582860161418b565b9150509250929050565b60008060008060008060c087890312156141fd576141fc61360d565b5b600061420b89828a01613660565b965050602061421c89828a01613696565b955050604061422d89828a01613696565b945050606061423e89828a01613696565b935050608087013567ffffffffffffffff81111561425f5761425e613612565b5b61426b89828a01613ce4565b92505060a087013567ffffffffffffffff81111561428c5761428b613612565b5b61429889828a01613ce4565b9150509295509295509295565b600080604083850312156142bc576142bb61360d565b5b60006142ca85828601613660565b92505060206142db85828601613660565b9150509250929050565b600080600080600060a086880312156143015761430061360d565b5b600061430f88828901613660565b955050602061432088828901613660565b945050604061433188828901613696565b935050606061434288828901613696565b925050608086013567ffffffffffffffff81111561436357614362613612565b5b61436f88828901613ce4565b9150509295509295909350565b7f4950446f635631323a204163636f756e7420686173206e6f2062616c616e636560008201527f20746f2065787069726500000000000000000000000000000000000000000000602082015250565b60006143d8602a83613997565b91506143e38261437c565b604082019050919050565b60006020820190508181036000830152614407816143cb565b9050919050565b7f4950446f635631323a206f6e6c792063757272656e74206f776e65722063616e60008201527f207472616e73666572206f776e65727368697000000000000000000000000000602082015250565b600061446a603383613997565b91506144758261440e565b604082019050919050565b600060208201905081810360008301526144998161445d565b9050919050565b7f4950446f635631323a2063616e6e6f74207472616e73666572206f776e65727360008201527f68697020746f20746865207a65726f2061646472657373000000000000000000602082015250565b60006144fc603783613997565b9150614507826144a0565b604082019050919050565b6000602082019050818103600083015261452b816144ef565b9050919050565b6000604082019050614547600083018561403c565b614554602083018461403c565b9392505050565b600060408201905061457060008301856136eb565b61457d60208301846136eb565b9392505050565b7f4e487b7100000000000000000000000000000000000000000000000000000000600052603260045260246000fd5b7f4e487b7100000000000000000000000000000000000000000000000000000000600052601160045260246000fd5b60006145ed82613675565b91507fffffffffffffffffffffffffffffffffffffffffffffffffffffffffffffffff820361461f5761461e6145b3565b5b600182019050919050565b7f4950446f635631323a20746f6b656e20646f6573206e6f74206578697374206f60008201527f72206f776e657273686970206e6f74206578706c696369746c79207365740000602082015250565b6000614686603e83613997565b91506146918261462a565b604082019050919050565b600060208201905081810360008301526146b581614679565b9050919050565b7f4950446f635631323a20746f6b656e20646f6573206e6f742065786973740000600082015250565b60006146f2601e83613997565b91506146fd826146bc565b602082019050919050565b60006020820190508181036000830152614721816146e5565b9050919050565b7f4950446f635631323a20746f6b656e20646f6573206e6f74206578697374206f60008201527f7220686173206e6f206f776e6572000000000000000000000000000000000000602082015250565b6000614784602e83613997565b915061478f82614728565b604082019050919050565b600060208201905081810360008301526147b381614777565b9050919050565b60008160601b9050919050565b60006147d2826147ba565b9050919050565b60006147e4826147c7565b9050919050565b6147fc6147f782613637565b6147d9565b82525050565b6000819050919050565b61481d61481882613675565b614802565b82525050565b600061482f82876147eb565b60148201915061483f828661480c565b60208201915061484f828561480c565b60208201915061485f82846147eb565b60148201915081905095945050505050565b600081905092915050565b7f19457468657265756d205369676e6564204d6573736167653a0a333200000000600082015250565b60006148b2601c83614871565b91506148bd8261487c565b601c82019050919050565b6000819050919050565b6148e36148de82613adc565b6148c8565b82525050565b60006148f4826148a5565b915061490082846148d2565b60208201915081905092915050565b7f4950446f635631323a20696e76616c6964207369676e61747572650000000000600082015250565b6000614945601b83613997565b91506149508261490f565b602082019050919050565b6000602082019050818103600083015261497481614938565b9050919050565b7f4e487b7100000000000000000000000000000000000000000000000000000000600052602260045260246000fd5b600060028204905060018216806149c257607f821691505b6020821081036149d5576149d461497b565b5b50919050565b60008190508160005260206000209050919050565b60006020601f8301049050919050565b600082821b905092915050565b600060088302614a3d7fffffffffffffffffffffffffffffffffffffffffffffffffffffffffffffffff82614a00565b614a478683614a00565b95508019841693508086168417925050509392505050565b6000819050919050565b6000614a84614a7f614a7a84613675565b614a5f565b613675565b9050919050565b6000819050919050565b614a9e83614a69565b614ab2614aaa82614a8b565b848454614a0d565b825550505050565b600090565b614ac7614aba565b614ad2818484614a95565b505050565b5b81811015614af657614aeb600082614abf565b600181019050614ad8565b5050565b601f821115614b3b57614b0c816149db565b614b15846149f0565b81016020851015614b24578190505b614b38614b30856149f0565b830182614ad7565b50505b505050565b600082821c905092915050565b6000614b5e60001984600802614b40565b1980831691505092915050565b6000614b778383614b4d565b9150826002028217905092915050565b614b908261398c565b67ffffffffffffffff811115614ba957614ba86137eb565b5b614bb382546149aa565b614bbe828285614afa565b600060209050601f831160018114614bf15760008415614bdf578287015190505b614be98582614b6b565b865550614c51565b601f198416614bff866149db565b60005b82811015614c2757848901518255600182019150602085019450602081019050614c02565b86831015614c445784890151614c40601f891682614b4d565b8355505b6001600288020188555050505b505050505050565b60008154614c66816149aa565b614c708186614871565b94506001821660008114614c8b5760018114614ca057614cd3565b60ff1983168652811515820286019350614cd3565b614ca9856149db565b60005b83811015614ccb57815481890152600182019150602081019050614cac565b838801955050505b50505092915050565b6000614ce78261398c565b614cf18185614871565b9350614d018185602086016139a8565b80840191505092915050565b6000614d198285614c59565b9150614d258284614cdc565b91508190509392505050565b6000604082019050614d46600083018561403c565b614d536020830184613b3f565b9392505050565b7f4e487b7100000000000000000000000000000000000000000000000000000000600052602160045260246000fd5b7f4950446f635631323a206d7573742068617665206d696e74657220726f6c652060008201527f746f207472616e73666572000000000000000000000000000000000000000000602082015250565b6000614de5602b83613997565b9150614df082614d89565b604082019050919050565b60006020820190508181036000830152614e1481614dd8565b9050919050565b7f4950446f635631323a2043616e6e6f74207472616e736665722065787069726560008201527f6420746f6b656e732065786365707420746f206275726e000000000000000000602082015250565b6000614e77603783613997565b9150614e8282614e1b565b604082019050919050565b60006020820190508181036000830152614ea681614e6a565b9050919050565b600081519050919050565b600082825260208201905092915050565b6000614ed482614ead565b614ede8185614eb8565b9350614eee8185602086016139a8565b614ef7816137da565b840191505092915050565b600060a082019050614f17600083018861403c565b614f24602083018761403c565b614f3160408301866136eb565b614f3e60608301856136eb565b8181036080830152614f508184614ec9565b90509695505050505050565b600081519050614f6b81613741565b92915050565b600060208284031215614f8757614f8661360d565b5b6000614f9584828501614f5c565b91505092915050565b600060a082019050614fb3600083018861403c565b614fc0602083018761403c565b8181036040830152614fd28186613fbc565b90508181036060830152614fe68185613fbc565b90508181036080830152614ffa8184614ec9565b90509695505050505050565b600060ff82169050919050565b61501c81615006565b82525050565b60006080820190506150376000830187613b3f565b6150446020830186615013565b6150516040830185613b3f565b61505e6060830184613b3f565b95945050505050565b600061507282613675565b915061507d83613675565b9250828201905080821115615095576150946145b3565b5b92915050565b60006080820190506150b0600083018761403c565b6150bd60208301866136eb565b6150ca60408301856136eb565b6150d760608301846136eb565b95945050505050565b600060408201905081810360008301526150fa8185613fbc565b9050818103602083015261510e8184613fbc565b9050939250505056fea264697066735822122081b645835d8f31cf2677f1052942433717218907c4eb4fc4262bde0aaa45dd2864736f6c63430008140033",
  "linkReferences": {},
  "deployedLinkReferences": {}
}