{
  "_format": "hh-sol-artifact-1",
  "contractName": "IPDocV2",
  "sourceName": "contracts/IPDocV2.sol",
  "abi": [
    {
      "inputs": [
        {
          "internalType": "address",
          "name": "defaultAdmin",
          "type": "address"
        },
        {
          "internalType": "address",
          "name": "pauser",
          "type": "address"
        },
        {
          "internalType": "address",
          "name": "minter",
          "type": "address"
        }
      ],
      "stateMutability": "nonpayable",
      "type": "constructor"
    },
    {
      "inputs": [],
      "name": "AccessControlBadConfirmation",
      "type": "error"
    },
    {
      "inputs": [
        {
          "internalType": "address",
          "name": "account",
          "type": "address"
        },
        {
          "internalType": "bytes32",
          "name": "neededRole",
          "type": "bytes32"
        }
      ],
      "name": "AccessControlUnauthorizedAccount",
      "type": "error"
    },
    {
      "inputs": [
        {
          "internalType": "address",
          "name": "sender",
          "type": "address"
        },
        {
          "internalType": "uint256",
          "name": "balance",
          "type": "uint256"
        },
        {
          "internalType": "uint256",
          "name": "needed",
          "type": "uint256"
        },
        {
          "internalType": "uint256",
          "name": "tokenId",
          "type": "uint256"
        }
      ],
      "name": "ERC1155InsufficientBalance",
      "type": "error"
    },
    {
      "inputs": [
        {
          "internalType": "address",
          "name": "approver",
          "type": "address"
        }
      ],
      "name": "ERC1155InvalidApprover",
      "type": "error"
    },
    {
      "inputs": [
        {
          "internalType": "uint256",
          "name": "idsLength",
          "type": "uint256"
        },
        {
          "internalType": "uint256",
          "name": "valuesLength",
          "type": "uint256"
        }
      ],
      "name": "ERC1155InvalidArrayLength",
      "type": "error"
    },
    {
      "inputs": [
        {
          "internalType": "address",
          "name": "operator",
          "type": "address"
        }
      ],
      "name": "ERC1155InvalidOperator",
      "type": "error"
    },
    {
      "inputs": [
        {
          "internalType": "address",
          "name": "receiver",
          "type": "address"
        }
      ],
      "name": "ERC1155InvalidReceiver",
      "type": "error"
    },
    {
      "inputs": [
        {
          "internalType": "address",
          "name": "sender",
          "type": "address"
        }
      ],
      "name": "ERC1155InvalidSender",
      "type": "error"
    },
    {
      "inputs": [
        {
          "internalType": "address",
          "name": "operator",
          "type": "address"
        },
        {
          "internalType": "address",
          "name": "owner",
          "type": "address"
        }
      ],
      "name": "ERC1155MissingApprovalForAll",
      "type": "error"
    },
    {
      "inputs": [],
      "name": "EnforcedPause",
      "type": "error"
    },
    {
      "inputs": [],
      "name": "ExpectedPause",
      "type": "error"
    },
    {
      "anonymous": false,
      "inputs": [
        {
          "indexed": true,
          "internalType": "address",
          "name": "account",
          "type": "address"
        },
        {
          "indexed": true,
          "internalType": "address",
          "name": "operator",
          "type": "address"
        },
        {
          "indexed": false,
          "internalType": "bool",
          "name": "approved",
          "type": "bool"
        }
      ],
      "name": "ApprovalForAll",
      "type": "event"
    },
    {
      "anonymous": false,
      "inputs": [
        {
          "indexed": false,
          "internalType": "address",
          "name": "account",
          "type": "address"
        }
      ],
      "name": "Paused",
      "type": "event"
    },
    {
      "anonymous": false,
      "inputs": [
        {
          "indexed": true,
          "internalType": "bytes32",
          "name": "role",
          "type": "bytes32"
        },
        {
          "indexed": true,
          "internalType": "bytes32",
          "name": "previousAdminRole",
          "type": "bytes32"
        },
        {
          "indexed": true,
          "internalType": "bytes32",
          "name": "newAdminRole",
          "type": "bytes32"
        }
      ],
      "name": "RoleAdminChanged",
      "type": "event"
    },
    {
      "anonymous": false,
      "inputs": [
        {
          "indexed": true,
          "internalType": "bytes32",
          "name": "role",
          "type": "bytes32"
        },
        {
          "indexed": true,
          "internalType": "address",
          "name": "account",
          "type": "address"
        },
        {
          "indexed": true,
          "internalType": "address",
          "name": "sender",
          "type": "address"
        }
      ],
      "name": "RoleGranted",
      "type": "event"
    },
    {
      "anonymous": false,
      "inputs": [
        {
          "indexed": true,
          "internalType": "bytes32",
          "name": "role",
          "type": "bytes32"
        },
        {
          "indexed": true,
          "internalType": "address",
          "name": "account",
          "type": "address"
        },
        {
          "indexed": true,
          "internalType": "address",
          "name": "sender",
          "type": "address"
        }
      ],
      "name": "RoleRevoked",
      "type": "event"
    },
    {
      "anonymous": false,
      "inputs": [
        {
          "indexed": true,
          "internalType": "address",
          "name": "operator",
          "type": "address"
        },
        {
          "indexed": true,
          "internalType": "address",
          "name": "from",
          "type": "address"
        },
        {
          "indexed": true,
          "internalType": "address",
          "name": "to",
          "type": "address"
        },
        {
          "indexed": false,
          "internalType": "uint256[]",
          "name": "ids",
          "type": "uint256[]"
        },
        {
          "indexed": false,
          "internalType": "uint256[]",
          "name": "values",
          "type": "uint256[]"
        }
      ],
      "name": "TransferBatch",
      "type": "event"
    },
    {
      "anonymous": false,
      "inputs": [
        {
          "indexed": true,
          "internalType": "address",
          "name": "operator",
          "type": "address"
        },
        {
          "indexed": true,
          "internalType": "address",
          "name": "from",
          "type": "address"
        },
        {
          "indexed": true,
          "internalType": "address",
          "name": "to",
          "type": "address"
        },
        {
          "indexed": false,
          "internalType": "uint256",
          "name": "id",
          "type": "uint256"
        },
        {
          "indexed": false,
          "internalType": "uint256",
          "name": "value",
          "type": "uint256"
        }
      ],
      "name": "TransferSingle",
      "type": "event"
    },
    {
      "anonymous": false,
      "inputs": [
        {
          "indexed": false,
          "internalType": "string",
          "name": "value",
          "type": "string"
        },
        {
          "indexed": true,
          "internalType": "uint256",
          "name": "id",
          "type": "uint256"
        }
      ],
      "name": "URI",
      "type": "event"
    },
    {
      "anonymous": false,
      "inputs": [
        {
          "indexed": false,
          "internalType": "address",
          "name": "account",
          "type": "address"
        }
      ],
      "name": "Unpaused",
      "type": "event"
    },
    {
      "inputs": [],
      "name": "DEFAULT_ADMIN_ROLE",
      "outputs": [
        {
          "internalType": "bytes32",
          "name": "",
          "type": "bytes32"
        }
      ],
      "stateMutability": "view",
      "type": "function"
    },
    {
      "inputs": [],
      "name": "MINTER_ROLE",
      "outputs": [
        {
          "internalType": "bytes32",
          "name": "",
          "type": "bytes32"
        }
      ],
      "stateMutability": "view",
      "type": "function"
    },
    {
      "inputs": [],
      "name": "PAUSER_ROLE",
      "outputs": [
        {
          "internalType": "bytes32",
          "name": "",
          "type": "bytes32"
        }
      ],
      "stateMutability": "view",
      "type": "function"
    },
    {
      "inputs": [],
      "name": "URI_SETTER_ROLE",
      "outputs": [
        {
          "internalType": "bytes32",
          "name": "",
          "type": "bytes32"
        }
      ],
      "stateMutability": "view",
      "type": "function"
    },
    {
      "inputs": [
        {
          "internalType": "address",
          "name": "account",
          "type": "address"
        },
        {
          "internalType": "uint256",
          "name": "id",
          "type": "uint256"
        }
      ],
      "name": "balanceOf",
      "outputs": [
        {
          "internalType": "uint256",
          "name": "",
          "type": "uint256"
        }
      ],
      "stateMutability": "view",
      "type": "function"
    },
    {
      "inputs": [
        {
          "internalType": "address[]",
          "name": "accounts",
          "type": "address[]"
        },
        {
          "internalType": "uint256[]",
          "name": "ids",
          "type": "uint256[]"
        }
      ],
      "name": "balanceOfBatch",
      "outputs": [
        {
          "internalType": "uint256[]",
          "name": "",
          "type": "uint256[]"
        }
      ],
      "stateMutability": "view",
      "type": "function"
    },
    {
      "inputs": [
        {
          "internalType": "address",
          "name": "account",
          "type": "address"
        },
        {
          "internalType": "uint256",
          "name": "id",
          "type": "uint256"
        },
        {
          "internalType": "uint256",
          "name": "value",
          "type": "uint256"
        }
      ],
      "name": "burn",
      "outputs": [],
      "stateMutability": "nonpayable",
      "type": "function"
    },
    {
      "inputs": [
        {
          "internalType": "address",
          "name": "account",
          "type": "address"
        },
        {
          "internalType": "uint256[]",
          "name": "ids",
          "type": "uint256[]"
        },
        {
          "internalType": "uint256[]",
          "name": "values",
          "type": "uint256[]"
        }
      ],
      "name": "burnBatch",
      "outputs": [],
      "stateMutability": "nonpayable",
      "type": "function"
    },
    {
      "inputs": [
        {
          "internalType": "uint256",
          "name": "id",
          "type": "uint256"
        }
      ],
      "name": "exists",
      "outputs": [
        {
          "internalType": "bool",
          "name": "",
          "type": "bool"
        }
      ],
      "stateMutability": "view",
      "type": "function"
    },
    {
      "inputs": [
        {
          "internalType": "bytes32",
          "name": "role",
          "type": "bytes32"
        }
      ],
      "name": "getRoleAdmin",
      "outputs": [
        {
          "internalType": "bytes32",
          "name": "",
          "type": "bytes32"
        }
      ],
      "stateMutability": "view",
      "type": "function"
    },
    {
      "inputs": [
        {
          "internalType": "bytes32",
          "name": "role",
          "type": "bytes32"
        },
        {
          "internalType": "address",
          "name": "account",
          "type": "address"
        }
      ],
      "name": "grantRole",
      "outputs": [],
      "stateMutability": "nonpayable",
      "type": "function"
    },
    {
      "inputs": [
        {
          "internalType": "bytes32",
          "name": "role",
          "type": "bytes32"
        },
        {
          "internalType": "address",
          "name": "account",
          "type": "address"
        }
      ],
      "name": "hasRole",
      "outputs": [
        {
          "internalType": "bool",
          "name": "",
          "type": "bool"
        }
      ],
      "stateMutability": "view",
      "type": "function"
    },
    {
      "inputs": [
        {
          "internalType": "address",
          "name": "account",
          "type": "address"
        },
        {
          "internalType": "address",
          "name": "operator",
          "type": "address"
        }
      ],
      "name": "isApprovedForAll",
      "outputs": [
        {
          "internalType": "bool",
          "name": "",
          "type": "bool"
        }
      ],
      "stateMutability": "view",
      "type": "function"
    },
    {
      "inputs": [
        {
          "internalType": "address",
          "name": "account",
          "type": "address"
        },
        {
          "internalType": "uint256",
          "name": "id",
          "type": "uint256"
        },
        {
          "internalType": "uint256",
          "name": "amount",
          "type": "uint256"
        },
        {
          "internalType": "bytes",
          "name": "data",
          "type": "bytes"
        }
      ],
      "name": "mint",
      "outputs": [],
      "stateMutability": "nonpayable",
      "type": "function"
    },
    {
      "inputs": [
        {
          "internalType": "address",
          "name": "to",
          "type": "address"
        },
        {
          "internalType": "uint256[]",
          "name": "ids",
          "type": "uint256[]"
        },
        {
          "internalType": "uint256[]",
          "name": "amounts",
          "type": "uint256[]"
        },
        {
          "internalType": "bytes",
          "name": "data",
          "type": "bytes"
        }
      ],
      "name": "mintBatch",
      "outputs": [],
      "stateMutability": "nonpayable",
      "type": "function"
    },
    {
      "inputs": [],
      "name": "pause",
      "outputs": [],
      "stateMutability": "nonpayable",
      "type": "function"
    },
    {
      "inputs": [],
      "name": "paused",
      "outputs": [
        {
          "internalType": "bool",
          "name": "",
          "type": "bool"
        }
      ],
      "stateMutability": "view",
      "type": "function"
    },
    {
      "inputs": [
        {
          "internalType": "bytes32",
          "name": "role",
          "type": "bytes32"
        },
        {
          "internalType": "address",
          "name": "callerConfirmation",
          "type": "address"
        }
      ],
      "name": "renounceRole",
      "outputs": [],
      "stateMutability": "nonpayable",
      "type": "function"
    },
    {
      "inputs": [
        {
          "internalType": "bytes32",
          "name": "role",
          "type": "bytes32"
        },
        {
          "internalType": "address",
          "name": "account",
          "type": "address"
        }
      ],
      "name": "revokeRole",
      "outputs": [],
      "stateMutability": "nonpayable",
      "type": "function"
    },
    {
      "inputs": [
        {
          "internalType": "address",
          "name": "from",
          "type": "address"
        },
        {
          "internalType": "address",
          "name": "to",
          "type": "address"
        },
        {
          "internalType": "uint256[]",
          "name": "ids",
          "type": "uint256[]"
        },
        {
          "internalType": "uint256[]",
          "name": "values",
          "type": "uint256[]"
        },
        {
          "internalType": "bytes",
          "name": "data",
          "type": "bytes"
        }
      ],
      "name": "safeBatchTransferFrom",
      "outputs": [],
      "stateMutability": "nonpayable",
      "type": "function"
    },
    {
      "inputs": [
        {
          "internalType": "address",
          "name": "from",
          "type": "address"
        },
        {
          "internalType": "address",
          "name": "to",
          "type": "address"
        },
        {
          "internalType": "uint256",
          "name": "id",
          "type": "uint256"
        },
        {
          "internalType": "uint256",
          "name": "value",
          "type": "uint256"
        },
        {
          "internalType": "bytes",
          "name": "data",
          "type": "bytes"
        }
      ],
      "name": "safeTransferFrom",
      "outputs": [],
      "stateMutability": "nonpayable",
      "type": "function"
    },
    {
      "inputs": [
        {
          "internalType": "address",
          "name": "operator",
          "type": "address"
        },
        {
          "internalType": "bool",
          "name": "approved",
          "type": "bool"
        }
      ],
      "name": "setApprovalForAll",
      "outputs": [],
      "stateMutability": "nonpayable",
      "type": "function"
    },
    {
      "inputs": [
        {
          "internalType": "string",
          "name": "baseURI",
          "type": "string"
        }
      ],
      "name": "setBaseURI",
      "outputs": [],
      "stateMutability": "nonpayable",
      "type": "function"
    },
    {
      "inputs": [
        {
          "internalType": "uint256",
          "name": "tokenId",
          "type": "uint256"
        },
        {
          "internalType": "string",
          "name": "tokenURI",
          "type": "string"
        }
      ],
      "name": "setTokenURI",
      "outputs": [],
      "stateMutability": "nonpayable",
      "type": "function"
    },
    {
      "inputs": [
        {
          "internalType": "string",
          "name": "newuri",
          "type": "string"
        }
      ],
      "name": "setURI",
      "outputs": [],
      "stateMutability": "nonpayable",
      "type": "function"
    },
    {
      "inputs": [
        {
          "internalType": "bytes4",
          "name": "interfaceId",
          "type": "bytes4"
        }
      ],
      "name": "supportsInterface",
      "outputs": [
        {
          "internalType": "bool",
          "name": "",
          "type": "bool"
        }
      ],
      "stateMutability": "view",
      "type": "function"
    },
    {
      "inputs": [],
      "name": "totalSupply",
      "outputs": [
        {
          "internalType": "uint256",
          "name": "",
          "type": "uint256"
        }
      ],
      "stateMutability": "view",
      "type": "function"
    },
    {
      "inputs": [
        {
          "internalType": "uint256",
          "name": "id",
          "type": "uint256"
        }
      ],
      "name": "totalSupply",
      "outputs": [
        {
          "internalType": "uint256",
          "name": "",
          "type": "uint256"
        }
      ],
      "stateMutability": "view",
      "type": "function"
    },
    {
      "inputs": [],
      "name": "unpause",
      "outputs": [],
      "stateMutability": "nonpayable",
      "type": "function"
    },
    {
      "inputs": [
        {
          "internalType": "uint256",
          "name": "tokenId",
          "type": "uint256"
        }
      ],
      "name": "uri",
      "outputs": [
        {
          "internalType": "string",
          "name": "",
          "type": "string"
        }
      ],
      "stateMutability": "view",
      "type": "function"
    }
  ],
  "bytecode": "0x6080604052604051806020016040528060008152506007908162000024919062000579565b503480156200003257600080fd5b50604051620040d4380380620040d48339818101604052810190620000589190620006ca565b6040518060400160405280601d81526020017f68747470733a2f2f73616665696465612e6e65742f646f632f7b69647d0000008152506200009f816200017360201b60201c565b506000600460006101000a81548160ff021916908315150217905550620000d06000801b846200018860201b60201c565b50620001037f7804d923f43a17d325d77e781528e0793b2edd9890ab45fc64efd7b4b427744c846200018860201b60201c565b50620001367f65d7a28e3265b37a6474929f336521b332c1681b933f6cb9f3376673440d862a836200018860201b60201c565b50620001697f9f2df0fed2c77648de5860a4cc508cd0818c85b8b8a1ab4ceeef8d981c8956a6826200018860201b60201c565b5050505062000726565b806002908162000184919062000579565b5050565b60006200019c83836200028c60201b60201c565b620002815760016003600085815260200190815260200160002060000160008473ffffffffffffffffffffffffffffffffffffffff1673ffffffffffffffffffffffffffffffffffffffff16815260200190815260200160002060006101000a81548160ff0219169083151502179055506200021d620002f760201b60201c565b73ffffffffffffffffffffffffffffffffffffffff168273ffffffffffffffffffffffffffffffffffffffff16847f2f8788117e7eff1d82e926ec794901d17c78024a50270940304540a733656f0d60405160405180910390a46001905062000286565b600090505b92915050565b60006003600084815260200190815260200160002060000160008373ffffffffffffffffffffffffffffffffffffffff1673ffffffffffffffffffffffffffffffffffffffff16815260200190815260200160002060009054906101000a900460ff16905092915050565b600033905090565b600081519050919050565b7f4e487b7100000000000000000000000000000000000000000000000000000000600052604160045260246000fd5b7f4e487b7100000000000000000000000000000000000000000000000000000000600052602260045260246000fd5b600060028204905060018216806200038157607f821691505b60208210810362000397576200039662000339565b5b50919050565b60008190508160005260206000209050919050565b60006020601f8301049050919050565b600082821b905092915050565b600060088302620004017fffffffffffffffffffffffffffffffffffffffffffffffffffffffffffffffff82620003c2565b6200040d8683620003c2565b95508019841693508086168417925050509392505050565b6000819050919050565b6000819050919050565b60006200045a620004546200044e8462000425565b6200042f565b62000425565b9050919050565b6000819050919050565b620004768362000439565b6200048e620004858262000461565b848454620003cf565b825550505050565b600090565b620004a562000496565b620004b28184846200046b565b505050565b5b81811015620004da57620004ce6000826200049b565b600181019050620004b8565b5050565b601f8211156200052957620004f3816200039d565b620004fe84620003b2565b810160208510156200050e578190505b620005266200051d85620003b2565b830182620004b7565b50505b505050565b600082821c905092915050565b60006200054e600019846008026200052e565b1980831691505092915050565b60006200056983836200053b565b9150826002028217905092915050565b6200058482620002ff565b67ffffffffffffffff811115620005a0576200059f6200030a565b5b620005ac825462000368565b620005b9828285620004de565b600060209050601f831160018114620005f15760008415620005dc578287015190505b620005e885826200055b565b86555062000658565b601f19841662000601866200039d565b60005b828110156200062b5784890151825560018201915060208501945060208101905062000604565b868310156200064b578489015162000647601f8916826200053b565b8355505b6001600288020188555050505b505050505050565b600080fd5b600073ffffffffffffffffffffffffffffffffffffffff82169050919050565b6000620006928262000665565b9050919050565b620006a48162000685565b8114620006b057600080fd5b50565b600081519050620006c48162000699565b92915050565b600080600060608486031215620006e657620006e562000660565b5b6000620006f686828701620006b3565b93505060206200070986828701620006b3565b92505060406200071c86828701620006b3565b9150509250925092565b61399e80620007366000396000f3fe608060405234801561001057600080fd5b50600436106101d95760003560e01c80635c975abb11610104578063a22cb465116100a2578063e63ab1e911610071578063e63ab1e91461053c578063e985e9c51461055a578063f242432a1461058a578063f5298aca146105a6576101d9565b8063a22cb465146104b6578063bd85b039146104d2578063d539139314610502578063d547741f14610520576101d9565b80637f345710116100de5780637f345710146104405780638456cb591461045e57806391d1485414610468578063a217fddf14610498576101d9565b80635c975abb146103ea5780636b20c45414610408578063731133e914610424576101d9565b8063248a9ca31161017c5780633f4ba83a1161014b5780633f4ba83a146103645780634e1273f41461036e5780634f558e791461039e57806355f804b3146103ce576101d9565b8063248a9ca3146102e05780632eb2c2d6146103105780632f2ff15d1461032c57806336568abe14610348576101d9565b80630e89341c116101b85780630e89341c1461025a578063162094c41461028a57806318160ddd146102a65780631f7fdffa146102c4576101d9565b8062fdd58e146101de57806301ffc9a71461020e57806302fe53051461023e575b600080fd5b6101f860048036038101906101f391906125f6565b6105c2565b6040516102059190612645565b60405180910390f35b610228600480360381019061022391906126b8565b61061c565b6040516102359190612700565b60405180910390f35b61025860048036038101906102539190612861565b61062e565b005b610274600480360381019061026f91906128aa565b610665565b6040516102819190612956565b60405180910390f35b6102a4600480360381019061029f9190612978565b610677565b005b6102ae6106b0565b6040516102bb9190612645565b60405180910390f35b6102de60048036038101906102d99190612b3d565b6106ba565b005b6102fa60048036038101906102f59190612c2e565b6106f7565b6040516103079190612c6a565b60405180910390f35b61032a60048036038101906103259190612c85565b610717565b005b61034660048036038101906103419190612d54565b6107bf565b005b610362600480360381019061035d9190612d54565b6107e1565b005b61036c61085c565b005b61038860048036038101906103839190612e57565b610891565b6040516103959190612f8d565b60405180910390f35b6103b860048036038101906103b391906128aa565b6109a0565b6040516103c59190612700565b60405180910390f35b6103e860048036038101906103e39190612861565b6109b4565b005b6103f26109eb565b6040516103ff9190612700565b60405180910390f35b610422600480360381019061041d9190612faf565b610a02565b005b61043e6004803603810190610439919061303a565b610aae565b005b610448610aeb565b6040516104559190612c6a565b60405180910390f35b610466610b0f565b005b610482600480360381019061047d9190612d54565b610b44565b60405161048f9190612700565b60405180910390f35b6104a0610baf565b6040516104ad9190612c6a565b60405180910390f35b6104d060048036038101906104cb91906130e9565b610bb6565b005b6104ec60048036038101906104e791906128aa565b610bcc565b6040516104f99190612645565b60405180910390f35b61050a610be9565b6040516105179190612c6a565b60405180910390f35b61053a60048036038101906105359190612d54565b610c0d565b005b610544610c2f565b6040516105519190612c6a565b60405180910390f35b610574600480360381019061056f9190613129565b610c53565b6040516105819190612700565b60405180910390f35b6105a4600480360381019061059f9190613169565b610ce7565b005b6105c060048036038101906105bb9190613200565b610d8f565b005b600080600083815260200190815260200160002060008473ffffffffffffffffffffffffffffffffffffffff1673ffffffffffffffffffffffffffffffffffffffff16815260200190815260200160002054905092915050565b600061062782610e3b565b9050919050565b7f7804d923f43a17d325d77e781528e0793b2edd9890ab45fc64efd7b4b427744c61065881610eb5565b61066182610ec9565b5050565b606061067082610edc565b9050919050565b7f7804d923f43a17d325d77e781528e0793b2edd9890ab45fc64efd7b4b427744c6106a181610eb5565b6106ab8383610fc1565b505050565b6000600654905090565b7f9f2df0fed2c77648de5860a4cc508cd0818c85b8b8a1ab4ceeef8d981c8956a66106e481610eb5565b6106f085858585611026565b5050505050565b600060036000838152602001908152602001600020600101549050919050565b60006107216110ac565b90508073ffffffffffffffffffffffffffffffffffffffff168673ffffffffffffffffffffffffffffffffffffffff161415801561076657506107648682610c53565b155b156107aa5780866040517fe237d9220000000000000000000000000000000000000000000000000000000081526004016107a1929190613262565b60405180910390fd5b6107b786868686866110b4565b505050505050565b6107c8826106f7565b6107d181610eb5565b6107db83836111ac565b50505050565b6107e96110ac565b73ffffffffffffffffffffffffffffffffffffffff168173ffffffffffffffffffffffffffffffffffffffff161461084d576040517f6697b23200000000000000000000000000000000000000000000000000000000815260040160405180910390fd5b610857828261129e565b505050565b7f65d7a28e3265b37a6474929f336521b332c1681b933f6cb9f3376673440d862a61088681610eb5565b61088e611391565b50565b606081518351146108dd57815183516040517f5b0599910000000000000000000000000000000000000000000000000000000081526004016108d492919061328b565b60405180910390fd5b6000835167ffffffffffffffff8111156108fa576108f9612736565b5b6040519080825280602002602001820160405280156109285781602001602082028036833780820191505090505b50905060005b84518110156109955761096561094d82876113f490919063ffffffff16565b610960838761140890919063ffffffff16565b6105c2565b828281518110610978576109776132b4565b5b6020026020010181815250508061098e90613312565b905061092e565b508091505092915050565b6000806109ac83610bcc565b119050919050565b7f7804d923f43a17d325d77e781528e0793b2edd9890ab45fc64efd7b4b427744c6109de81610eb5565b6109e78261141c565b5050565b6000600460009054906101000a900460ff16905090565b610a0a6110ac565b73ffffffffffffffffffffffffffffffffffffffff168373ffffffffffffffffffffffffffffffffffffffff1614158015610a535750610a5183610a4c6110ac565b610c53565b155b15610a9e57610a606110ac565b836040517fe237d922000000000000000000000000000000000000000000000000000000008152600401610a95929190613262565b60405180910390fd5b610aa983838361142f565b505050565b7f9f2df0fed2c77648de5860a4cc508cd0818c85b8b8a1ab4ceeef8d981c8956a6610ad881610eb5565b610ae4858585856114c3565b5050505050565b7f7804d923f43a17d325d77e781528e0793b2edd9890ab45fc64efd7b4b427744c81565b7f65d7a28e3265b37a6474929f336521b332c1681b933f6cb9f3376673440d862a610b3981610eb5565b610b4161155c565b50565b60006003600084815260200190815260200160002060000160008373ffffffffffffffffffffffffffffffffffffffff1673ffffffffffffffffffffffffffffffffffffffff16815260200190815260200160002060009054906101000a900460ff16905092915050565b6000801b81565b610bc8610bc16110ac565b83836115bf565b5050565b600060056000838152602001908152602001600020549050919050565b7f9f2df0fed2c77648de5860a4cc508cd0818c85b8b8a1ab4ceeef8d981c8956a681565b610c16826106f7565b610c1f81610eb5565b610c29838361129e565b50505050565b7f65d7a28e3265b37a6474929f336521b332c1681b933f6cb9f3376673440d862a81565b6000600160008473ffffffffffffffffffffffffffffffffffffffff1673ffffffffffffffffffffffffffffffffffffffff16815260200190815260200160002060008373ffffffffffffffffffffffffffffffffffffffff1673ffffffffffffffffffffffffffffffffffffffff16815260200190815260200160002060009054906101000a900460ff16905092915050565b6000610cf16110ac565b90508073ffffffffffffffffffffffffffffffffffffffff168673ffffffffffffffffffffffffffffffffffffffff1614158015610d365750610d348682610c53565b155b15610d7a5780866040517fe237d922000000000000000000000000000000000000000000000000000000008152600401610d71929190613262565b60405180910390fd5b610d87868686868661172f565b505050505050565b610d976110ac565b73ffffffffffffffffffffffffffffffffffffffff168373ffffffffffffffffffffffffffffffffffffffff1614158015610de05750610dde83610dd96110ac565b610c53565b155b15610e2b57610ded6110ac565b836040517fe237d922000000000000000000000000000000000000000000000000000000008152600401610e22929190613262565b60405180910390fd5b610e3683838361183a565b505050565b60007f7965db0b000000000000000000000000000000000000000000000000000000007bffffffffffffffffffffffffffffffffffffffffffffffffffffffff1916827bffffffffffffffffffffffffffffffffffffffffffffffffffffffff19161480610eae5750610ead826118e1565b5b9050919050565b610ec681610ec16110ac565b6119c3565b50565b8060029081610ed89190613566565b5050565b60606000600860008481526020019081526020016000208054610efe90613389565b80601f0160208091040260200160405190810160405280929190818152602001828054610f2a90613389565b8015610f775780601f10610f4c57610100808354040283529160200191610f77565b820191906000526020600020905b815481529060010190602001808311610f5a57829003601f168201915b505050505090506000815111610f9557610f9083611a14565b610fb9565b600781604051602001610fa99291906136f7565b6040516020818303038152906040525b915050919050565b80600860008481526020019081526020016000209081610fe19190613566565b50817f6bb7ff708619ba0610cba295a58592e0451dee2622938c8755667688daf3529b61100d84610665565b60405161101a9190612956565b60405180910390a25050565b600073ffffffffffffffffffffffffffffffffffffffff168473ffffffffffffffffffffffffffffffffffffffff16036110985760006040517f57f447ce00000000000000000000000000000000000000000000000000000000815260040161108f919061371b565b60405180910390fd5b6110a6600085858585611aa8565b50505050565b600033905090565b600073ffffffffffffffffffffffffffffffffffffffff168473ffffffffffffffffffffffffffffffffffffffff16036111265760006040517f57f447ce00000000000000000000000000000000000000000000000000000000815260040161111d919061371b565b60405180910390fd5b600073ffffffffffffffffffffffffffffffffffffffff168573ffffffffffffffffffffffffffffffffffffffff16036111985760006040517f01a8351400000000000000000000000000000000000000000000000000000000815260040161118f919061371b565b60405180910390fd5b6111a58585858585611aa8565b5050505050565b60006111b88383610b44565b6112935760016003600085815260200190815260200160002060000160008473ffffffffffffffffffffffffffffffffffffffff1673ffffffffffffffffffffffffffffffffffffffff16815260200190815260200160002060006101000a81548160ff0219169083151502179055506112306110ac565b73ffffffffffffffffffffffffffffffffffffffff168273ffffffffffffffffffffffffffffffffffffffff16847f2f8788117e7eff1d82e926ec794901d17c78024a50270940304540a733656f0d60405160405180910390a460019050611298565b600090505b92915050565b60006112aa8383610b44565b156113865760006003600085815260200190815260200160002060000160008473ffffffffffffffffffffffffffffffffffffffff1673ffffffffffffffffffffffffffffffffffffffff16815260200190815260200160002060006101000a81548160ff0219169083151502179055506113236110ac565b73ffffffffffffffffffffffffffffffffffffffff168273ffffffffffffffffffffffffffffffffffffffff16847ff6391f5c32d9c69d2a47ea670b442974b53935d1edc7fd64eb21e047a839171b60405160405180910390a46001905061138b565b600090505b92915050565b611399611b5a565b6000600460006101000a81548160ff0219169083151502179055507f5db9ee0a495bf2e6ff9c91a7834c1ba4fdd244a5e8aa4e537bd38aeae4b073aa6113dd6110ac565b6040516113ea919061371b565b60405180910390a1565b600060208202602084010151905092915050565b600060208202602084010151905092915050565b806007908161142b9190613566565b5050565b600073ffffffffffffffffffffffffffffffffffffffff168373ffffffffffffffffffffffffffffffffffffffff16036114a15760006040517f01a83514000000000000000000000000000000000000000000000000000000008152600401611498919061371b565b60405180910390fd5b6114be836000848460405180602001604052806000815250611aa8565b505050565b600073ffffffffffffffffffffffffffffffffffffffff168473ffffffffffffffffffffffffffffffffffffffff16036115355760006040517f57f447ce00000000000000000000000000000000000000000000000000000000815260040161152c919061371b565b60405180910390fd5b6000806115428585611b9a565b91509150611554600087848487611aa8565b505050505050565b611564611bca565b6001600460006101000a81548160ff0219169083151502179055507f62e78cea01bee320cd4e420270b5ea74000d11b0c9f74754ebdbfc544b05a2586115a86110ac565b6040516115b5919061371b565b60405180910390a1565b600073ffffffffffffffffffffffffffffffffffffffff168273ffffffffffffffffffffffffffffffffffffffff16036116315760006040517fced3e100000000000000000000000000000000000000000000000000000000008152600401611628919061371b565b60405180910390fd5b80600160008573ffffffffffffffffffffffffffffffffffffffff1673ffffffffffffffffffffffffffffffffffffffff16815260200190815260200160002060008473ffffffffffffffffffffffffffffffffffffffff1673ffffffffffffffffffffffffffffffffffffffff16815260200190815260200160002060006101000a81548160ff0219169083151502179055508173ffffffffffffffffffffffffffffffffffffffff168373ffffffffffffffffffffffffffffffffffffffff167f17307eab39ab6107e8899845ad3d59bd9653f200f220920489ca2b5937696c31836040516117229190612700565b60405180910390a3505050565b600073ffffffffffffffffffffffffffffffffffffffff168473ffffffffffffffffffffffffffffffffffffffff16036117a15760006040517f57f447ce000000000000000000000000000000000000000000000000000000008152600401611798919061371b565b60405180910390fd5b600073ffffffffffffffffffffffffffffffffffffffff168573ffffffffffffffffffffffffffffffffffffffff16036118135760006040517f01a8351400000000000000000000000000000000000000000000000000000000815260040161180a919061371b565b60405180910390fd5b6000806118208585611b9a565b915091506118318787848487611aa8565b50505050505050565b600073ffffffffffffffffffffffffffffffffffffffff168373ffffffffffffffffffffffffffffffffffffffff16036118ac5760006040517f01a835140000000000000000000000000000000000000000000000000000000081526004016118a3919061371b565b60405180910390fd5b6000806118b98484611b9a565b915091506118da856000848460405180602001604052806000815250611aa8565b5050505050565b60007fd9b67a26000000000000000000000000000000000000000000000000000000007bffffffffffffffffffffffffffffffffffffffffffffffffffffffff1916827bffffffffffffffffffffffffffffffffffffffffffffffffffffffff191614806119ac57507f0e89341c000000000000000000000000000000000000000000000000000000007bffffffffffffffffffffffffffffffffffffffffffffffffffffffff1916827bffffffffffffffffffffffffffffffffffffffffffffffffffffffff1916145b806119bc57506119bb82611c0b565b5b9050919050565b6119cd8282610b44565b611a105780826040517fe2517d3f000000000000000000000000000000000000000000000000000000008152600401611a07929190613736565b60405180910390fd5b5050565b606060028054611a2390613389565b80601f0160208091040260200160405190810160405280929190818152602001828054611a4f90613389565b8015611a9c5780601f10611a7157610100808354040283529160200191611a9c565b820191906000526020600020905b815481529060010190602001808311611a7f57829003601f168201915b50505050509050919050565b611ab485858585611c75565b600073ffffffffffffffffffffffffffffffffffffffff168473ffffffffffffffffffffffffffffffffffffffff1614611b53576000611af26110ac565b90506001845103611b42576000611b1360008661140890919063ffffffff16565b90506000611b2b60008661140890919063ffffffff16565b9050611b3b838989858589611c87565b5050611b51565b611b50818787878787611e3b565b5b505b5050505050565b611b626109eb565b611b98576040517f8dfc202b00000000000000000000000000000000000000000000000000000000815260040160405180910390fd5b565b60608060405191506001825283602083015260408201905060018152826020820152604081016040529250929050565b611bd26109eb565b15611c09576040517fd93c066500000000000000000000000000000000000000000000000000000000815260040160405180910390fd5b565b60007f01ffc9a7000000000000000000000000000000000000000000000000000000007bffffffffffffffffffffffffffffffffffffffffffffffffffffffff1916827bffffffffffffffffffffffffffffffffffffffffffffffffffffffff1916149050919050565b611c8184848484611fef565b50505050565b60008473ffffffffffffffffffffffffffffffffffffffff163b1115611e33578373ffffffffffffffffffffffffffffffffffffffff1663f23a6e6187878686866040518663ffffffff1660e01b8152600401611ce89594939291906137b4565b6020604051808303816000875af1925050508015611d2457506040513d601f19601f82011682018060405250810190611d219190613823565b60015b611da8573d8060008114611d54576040519150601f19603f3d011682016040523d82523d6000602084013e611d59565b606091505b506000815103611da057846040517f57f447ce000000000000000000000000000000000000000000000000000000008152600401611d97919061371b565b60405180910390fd5b805181602001fd5b63f23a6e6160e01b7bffffffffffffffffffffffffffffffffffffffffffffffffffffffff1916817bffffffffffffffffffffffffffffffffffffffffffffffffffffffff191614611e3157846040517f57f447ce000000000000000000000000000000000000000000000000000000008152600401611e28919061371b565b60405180910390fd5b505b505050505050565b60008473ffffffffffffffffffffffffffffffffffffffff163b1115611fe7578373ffffffffffffffffffffffffffffffffffffffff1663bc197c8187878686866040518663ffffffff1660e01b8152600401611e9c959493929190613850565b6020604051808303816000875af1925050508015611ed857506040513d601f19601f82011682018060405250810190611ed59190613823565b60015b611f5c573d8060008114611f08576040519150601f19603f3d011682016040523d82523d6000602084013e611f0d565b606091505b506000815103611f5457846040517f57f447ce000000000000000000000000000000000000000000000000000000008152600401611f4b919061371b565b60405180910390fd5b805181602001fd5b63bc197c8160e01b7bffffffffffffffffffffffffffffffffffffffffffffffffffffffff1916817bffffffffffffffffffffffffffffffffffffffffffffffffffffffff191614611fe557846040517f57f447ce000000000000000000000000000000000000000000000000000000008152600401611fdc919061371b565b60405180910390fd5b505b505050505050565b611ffb84848484612186565b600073ffffffffffffffffffffffffffffffffffffffff168473ffffffffffffffffffffffffffffffffffffffff16036120cb576000805b83518110156120af576000612051828561140890919063ffffffff16565b9050806005600061206b858961140890919063ffffffff16565b8152602001908152602001600020600082825461208891906138b8565b92505081905550808361209b91906138b8565b925050806120a890613312565b9050612033565b5080600660008282546120c291906138b8565b92505081905550505b600073ffffffffffffffffffffffffffffffffffffffff168373ffffffffffffffffffffffffffffffffffffffff1603612180576000805b835181101561216d576000612121828561140890919063ffffffff16565b9050806005600061213b858961140890919063ffffffff16565b8152602001908152602001600020600082825403925050819055508083019250508061216690613312565b9050612103565b5080600660008282540392505081905550505b50505050565b61218e611bca565b61219a848484846121a0565b50505050565b80518251146121ea57815181516040517f5b0599910000000000000000000000000000000000000000000000000000000081526004016121e192919061328b565b60405180910390fd5b60006121f46110ac565b905060005b8351811015612409576000612217828661140890919063ffffffff16565b9050600061222e838661140890919063ffffffff16565b9050600073ffffffffffffffffffffffffffffffffffffffff168873ffffffffffffffffffffffffffffffffffffffff161461235b57600080600084815260200190815260200160002060008a73ffffffffffffffffffffffffffffffffffffffff1673ffffffffffffffffffffffffffffffffffffffff1681526020019081526020016000205490508181101561230357888183856040517f03dee4c50000000000000000000000000000000000000000000000000000000081526004016122fa94939291906138ec565b60405180910390fd5b81810360008085815260200190815260200160002060008b73ffffffffffffffffffffffffffffffffffffffff1673ffffffffffffffffffffffffffffffffffffffff16815260200190815260200160002081905550505b600073ffffffffffffffffffffffffffffffffffffffff168773ffffffffffffffffffffffffffffffffffffffff16146123f6578060008084815260200190815260200160002060008973ffffffffffffffffffffffffffffffffffffffff1673ffffffffffffffffffffffffffffffffffffffff16815260200190815260200160002060008282546123ee91906138b8565b925050819055505b50508061240290613312565b90506121f9565b5060018351036124c857600061242960008561140890919063ffffffff16565b9050600061244160008561140890919063ffffffff16565b90508573ffffffffffffffffffffffffffffffffffffffff168773ffffffffffffffffffffffffffffffffffffffff168473ffffffffffffffffffffffffffffffffffffffff167fc3d58168c5ae7397731d063d5bbf3d657854427343f4c083240f7aacaa2d0f6285856040516124b992919061328b565b60405180910390a45050612547565b8373ffffffffffffffffffffffffffffffffffffffff168573ffffffffffffffffffffffffffffffffffffffff168273ffffffffffffffffffffffffffffffffffffffff167f4a39dc06d4c0dbc64b70af90fd698a233a518aa5d07e595d983b8c0526c8f7fb868660405161253e929190613931565b60405180910390a45b5050505050565b6000604051905090565b600080fd5b600080fd5b600073ffffffffffffffffffffffffffffffffffffffff82169050919050565b600061258d82612562565b9050919050565b61259d81612582565b81146125a857600080fd5b50565b6000813590506125ba81612594565b92915050565b6000819050919050565b6125d3816125c0565b81146125de57600080fd5b50565b6000813590506125f0816125ca565b92915050565b6000806040838503121561260d5761260c612558565b5b600061261b858286016125ab565b925050602061262c858286016125e1565b9150509250929050565b61263f816125c0565b82525050565b600060208201905061265a6000830184612636565b92915050565b60007fffffffff0000000000000000000000000000000000000000000000000000000082169050919050565b61269581612660565b81146126a057600080fd5b50565b6000813590506126b28161268c565b92915050565b6000602082840312156126ce576126cd612558565b5b60006126dc848285016126a3565b91505092915050565b60008115159050919050565b6126fa816126e5565b82525050565b600060208201905061271560008301846126f1565b92915050565b600080fd5b600080fd5b6000601f19601f8301169050919050565b7f4e487b7100000000000000000000000000000000000000000000000000000000600052604160045260246000fd5b61276e82612725565b810181811067ffffffffffffffff8211171561278d5761278c612736565b5b80604052505050565b60006127a061254e565b90506127ac8282612765565b919050565b600067ffffffffffffffff8211156127cc576127cb612736565b5b6127d582612725565b9050602081019050919050565b82818337600083830152505050565b60006128046127ff846127b1565b612796565b9050828152602081018484840111156128205761281f612720565b5b61282b8482856127e2565b509392505050565b600082601f8301126128485761284761271b565b5b81356128588482602086016127f1565b91505092915050565b60006020828403121561287757612876612558565b5b600082013567ffffffffffffffff8111156128955761289461255d565b5b6128a184828501612833565b91505092915050565b6000602082840312156128c0576128bf612558565b5b60006128ce848285016125e1565b91505092915050565b600081519050919050565b600082825260208201905092915050565b60005b838110156129115780820151818401526020810190506128f6565b60008484015250505050565b6000612928826128d7565b61293281856128e2565b93506129428185602086016128f3565b61294b81612725565b840191505092915050565b60006020820190508181036000830152612970818461291d565b905092915050565b6000806040838503121561298f5761298e612558565b5b600061299d858286016125e1565b925050602083013567ffffffffffffffff8111156129be576129bd61255d565b5b6129ca85828601612833565b9150509250929050565b600067ffffffffffffffff8211156129ef576129ee612736565b5b602082029050602081019050919050565b600080fd5b6000612a18612a13846129d4565b612796565b90508083825260208201905060208402830185811115612a3b57612a3a612a00565b5b835b81811015612a645780612a5088826125e1565b845260208401935050602081019050612a3d565b5050509392505050565b600082601f830112612a8357612a8261271b565b5b8135612a93848260208601612a05565b91505092915050565b600067ffffffffffffffff821115612ab757612ab6612736565b5b612ac082612725565b9050602081019050919050565b6000612ae0612adb84612a9c565b612796565b905082815260208101848484011115612afc57612afb612720565b5b612b078482856127e2565b509392505050565b600082601f830112612b2457612b2361271b565b5b8135612b34848260208601612acd565b91505092915050565b60008060008060808587031215612b5757612b56612558565b5b6000612b65878288016125ab565b945050602085013567ffffffffffffffff811115612b8657612b8561255d565b5b612b9287828801612a6e565b935050604085013567ffffffffffffffff811115612bb357612bb261255d565b5b612bbf87828801612a6e565b925050606085013567ffffffffffffffff811115612be057612bdf61255d565b5b612bec87828801612b0f565b91505092959194509250565b6000819050919050565b612c0b81612bf8565b8114612c1657600080fd5b50565b600081359050612c2881612c02565b92915050565b600060208284031215612c4457612c43612558565b5b6000612c5284828501612c19565b91505092915050565b612c6481612bf8565b82525050565b6000602082019050612c7f6000830184612c5b565b92915050565b600080600080600060a08688031215612ca157612ca0612558565b5b6000612caf888289016125ab565b9550506020612cc0888289016125ab565b945050604086013567ffffffffffffffff811115612ce157612ce061255d565b5b612ced88828901612a6e565b935050606086013567ffffffffffffffff811115612d0e57612d0d61255d565b5b612d1a88828901612a6e565b925050608086013567ffffffffffffffff811115612d3b57612d3a61255d565b5b612d4788828901612b0f565b9150509295509295909350565b60008060408385031215612d6b57612d6a612558565b5b6000612d7985828601612c19565b9250506020612d8a858286016125ab565b9150509250929050565b600067ffffffffffffffff821115612daf57612dae612736565b5b602082029050602081019050919050565b6000612dd3612dce84612d94565b612796565b90508083825260208201905060208402830185811115612df657612df5612a00565b5b835b81811015612e1f5780612e0b88826125ab565b845260208401935050602081019050612df8565b5050509392505050565b600082601f830112612e3e57612e3d61271b565b5b8135612e4e848260208601612dc0565b91505092915050565b60008060408385031215612e6e57612e6d612558565b5b600083013567ffffffffffffffff811115612e8c57612e8b61255d565b5b612e9885828601612e29565b925050602083013567ffffffffffffffff811115612eb957612eb861255d565b5b612ec585828601612a6e565b9150509250929050565b600081519050919050565b600082825260208201905092915050565b6000819050602082019050919050565b612f04816125c0565b82525050565b6000612f168383612efb565b60208301905092915050565b6000602082019050919050565b6000612f3a82612ecf565b612f448185612eda565b9350612f4f83612eeb565b8060005b83811015612f80578151612f678882612f0a565b9750612f7283612f22565b925050600181019050612f53565b5085935050505092915050565b60006020820190508181036000830152612fa78184612f2f565b905092915050565b600080600060608486031215612fc857612fc7612558565b5b6000612fd6868287016125ab565b935050602084013567ffffffffffffffff811115612ff757612ff661255d565b5b61300386828701612a6e565b925050604084013567ffffffffffffffff8111156130245761302361255d565b5b61303086828701612a6e565b9150509250925092565b6000806000806080858703121561305457613053612558565b5b6000613062878288016125ab565b9450506020613073878288016125e1565b9350506040613084878288016125e1565b925050606085013567ffffffffffffffff8111156130a5576130a461255d565b5b6130b187828801612b0f565b91505092959194509250565b6130c6816126e5565b81146130d157600080fd5b50565b6000813590506130e3816130bd565b92915050565b60008060408385031215613100576130ff612558565b5b600061310e858286016125ab565b925050602061311f858286016130d4565b9150509250929050565b600080604083850312156131405761313f612558565b5b600061314e858286016125ab565b925050602061315f858286016125ab565b9150509250929050565b600080600080600060a0868803121561318557613184612558565b5b6000613193888289016125ab565b95505060206131a4888289016125ab565b94505060406131b5888289016125e1565b93505060606131c6888289016125e1565b925050608086013567ffffffffffffffff8111156131e7576131e661255d565b5b6131f388828901612b0f565b9150509295509295909350565b60008060006060848603121561321957613218612558565b5b6000613227868287016125ab565b9350506020613238868287016125e1565b9250506040613249868287016125e1565b9150509250925092565b61325c81612582565b82525050565b60006040820190506132776000830185613253565b6132846020830184613253565b9392505050565b60006040820190506132a06000830185612636565b6132ad6020830184612636565b9392505050565b7f4e487b7100000000000000000000000000000000000000000000000000000000600052603260045260246000fd5b7f4e487b7100000000000000000000000000000000000000000000000000000000600052601160045260246000fd5b600061331d826125c0565b91507fffffffffffffffffffffffffffffffffffffffffffffffffffffffffffffffff820361334f5761334e6132e3565b5b600182019050919050565b7f4e487b7100000000000000000000000000000000000000000000000000000000600052602260045260246000fd5b600060028204905060018216806133a157607f821691505b6020821081036133b4576133b361335a565b5b50919050565b60008190508160005260206000209050919050565b60006020601f8301049050919050565b600082821b905092915050565b60006008830261341c7fffffffffffffffffffffffffffffffffffffffffffffffffffffffffffffffff826133df565b61342686836133df565b95508019841693508086168417925050509392505050565b6000819050919050565b600061346361345e613459846125c0565b61343e565b6125c0565b9050919050565b6000819050919050565b61347d83613448565b6134916134898261346a565b8484546133ec565b825550505050565b600090565b6134a6613499565b6134b1818484613474565b505050565b5b818110156134d5576134ca60008261349e565b6001810190506134b7565b5050565b601f82111561351a576134eb816133ba565b6134f4846133cf565b81016020851015613503578190505b61351761350f856133cf565b8301826134b6565b50505b505050565b600082821c905092915050565b600061353d6000198460080261351f565b1980831691505092915050565b6000613556838361352c565b9150826002028217905092915050565b61356f826128d7565b67ffffffffffffffff81111561358857613587612736565b5b6135928254613389565b61359d8282856134d9565b600060209050601f8311600181146135d057600084156135be578287015190505b6135c8858261354a565b865550613630565b601f1984166135de866133ba565b60005b82811015613606578489015182556001820191506020850194506020810190506135e1565b86831015613623578489015161361f601f89168261352c565b8355505b6001600288020188555050505b505050505050565b600081905092915050565b6000815461365081613389565b61365a8186613638565b94506001821660008114613675576001811461368a576136bd565b60ff19831686528115158202860193506136bd565b613693856133ba565b60005b838110156136b557815481890152600182019150602081019050613696565b838801955050505b50505092915050565b60006136d1826128d7565b6136db8185613638565b93506136eb8185602086016128f3565b80840191505092915050565b60006137038285613643565b915061370f82846136c6565b91508190509392505050565b60006020820190506137306000830184613253565b92915050565b600060408201905061374b6000830185613253565b6137586020830184612c5b565b9392505050565b600081519050919050565b600082825260208201905092915050565b60006137868261375f565b613790818561376a565b93506137a08185602086016128f3565b6137a981612725565b840191505092915050565b600060a0820190506137c96000830188613253565b6137d66020830187613253565b6137e36040830186612636565b6137f06060830185612636565b8181036080830152613802818461377b565b90509695505050505050565b60008151905061381d8161268c565b92915050565b60006020828403121561383957613838612558565b5b60006138478482850161380e565b91505092915050565b600060a0820190506138656000830188613253565b6138726020830187613253565b81810360408301526138848186612f2f565b905081810360608301526138988185612f2f565b905081810360808301526138ac818461377b565b90509695505050505050565b60006138c3826125c0565b91506138ce836125c0565b92508282019050808211156138e6576138e56132e3565b5b92915050565b60006080820190506139016000830187613253565b61390e6020830186612636565b61391b6040830185612636565b6139286060830184612636565b95945050505050565b6000604082019050818103600083015261394b8185612f2f565b9050818103602083015261395f8184612f2f565b9050939250505056fea264697066735822122028779534bbf00be7ecbf7c838c5715be76e1a8b7ce4bce5805efee537d3cc79364736f6c63430008140033",
  "linkReferences": {},
  "deployedLinkReferences": {}
}