{
  "_format": "hh-sol-artifact-1",
  "contractName": "IPDocV12",
  "sourceName": "contracts/IPDocV12.sol",
  "abi": [
    {
      "inputs": [
        {
          "internalType": "address",
          "name": "defaultAdmin",
          "type": "address"
        },
        {
          "internalType": "address",
          "name": "pauser",
          "type": "address"
        },
        {
          "internalType": "address",
          "name": "minter",
          "type": "address"
        }
      ],
      "stateMutability": "nonpayable",
      "type": "constructor"
    },
    {
      "inputs": [],
      "name": "AccessControlBadConfirmation",
      "type": "error"
    },
    {
      "inputs": [
        {
          "internalType": "address",
          "name": "account",
          "type": "address"
        },
        {
          "internalType": "bytes32",
          "name": "neededRole",
          "type": "bytes32"
        }
      ],
      "name": "AccessControlUnauthorizedAccount",
      "type": "error"
    },
    {
      "inputs": [],
      "name": "ECDSAInvalidSignature",
      "type": "error"
    },
    {
      "inputs": [
        {
          "internalType": "uint256",
          "name": "length",
          "type": "uint256"
        }
      ],
      "name": "ECDSAInvalidSignatureLength",
      "type": "error"
    },
    {
      "inputs": [
        {
          "internalType": "bytes32",
          "name": "s",
          "type": "bytes32"
        }
      ],
      "name": "ECDSAInvalidSignatureS",
      "type": "error"
    },
    {
      "inputs": [
        {
          "internalType": "address",
          "name": "sender",
          "type": "address"
        },
        {
          "internalType": "uint256",
          "name": "balance",
          "type": "uint256"
        },
        {
          "internalType": "uint256",
          "name": "needed",
          "type": "uint256"
        },
        {
          "internalType": "uint256",
          "name": "tokenId",
          "type": "uint256"
        }
      ],
      "name": "ERC1155InsufficientBalance",
      "type": "error"
    },
    {
      "inputs": [
        {
          "internalType": "address",
          "name": "approver",
          "type": "address"
        }
      ],
      "name": "ERC1155InvalidApprover",
      "type": "error"
    },
    {
      "inputs": [
        {
          "internalType": "uint256",
          "name": "idsLength",
          "type": "uint256"
        },
        {
          "internalType": "uint256",
          "name": "valuesLength",
          "type": "uint256"
        }
      ],
      "name": "ERC1155InvalidArrayLength",
      "type": "error"
    },
    {
      "inputs": [
        {
          "internalType": "address",
          "name": "operator",
          "type": "address"
        }
      ],
      "name": "ERC1155InvalidOperator",
      "type": "error"
    },
    {
      "inputs": [
        {
          "internalType": "address",
          "name": "receiver",
          "type": "address"
        }
      ],
      "name": "ERC1155InvalidReceiver",
      "type": "error"
    },
    {
      "inputs": [
        {
          "internalType": "address",
          "name": "sender",
          "type": "address"
        }
      ],
      "name": "ERC1155InvalidSender",
      "type": "error"
    },
    {
      "inputs": [
        {
          "internalType": "address",
          "name": "operator",
          "type": "address"
        },
        {
          "internalType": "address",
          "name": "owner",
          "type": "address"
        }
      ],
      "name": "ERC1155MissingApprovalForAll",
      "type": "error"
    },
    {
      "inputs": [],
      "name": "EnforcedPause",
      "type": "error"
    },
    {
      "inputs": [],
      "name": "ExpectedPause",
      "type": "error"
    },
    {
      "anonymous": false,
      "inputs": [
        {
          "indexed": true,
          "internalType": "address",
          "name": "account",
          "type": "address"
        },
        {
          "indexed": true,
          "internalType": "address",
          "name": "operator",
          "type": "address"
        },
        {
          "indexed": false,
          "internalType": "bool",
          "name": "approved",
          "type": "bool"
        }
      ],
      "name": "ApprovalForAll",
      "type": "event"
    },
    {
      "anonymous": false,
      "inputs": [
        {
          "indexed": true,
          "internalType": "address",
          "name": "account",
          "type": "address"
        },
        {
          "indexed": true,
          "internalType": "uint256",
          "name": "tokenId",
          "type": "uint256"
        },
        {
          "indexed": false,
          "internalType": "uint256",
          "name": "expirationTime",
          "type": "uint256"
        }
      ],
      "name": "ExpirationSet",
      "type": "event"
    },
    {
      "anonymous": false,
      "inputs": [
        {
          "indexed": true,
          "internalType": "uint256",
          "name": "tokenId",
          "type": "uint256"
        },
        {
          "indexed": true,
          "internalType": "address",
          "name": "previousOwner",
          "type": "address"
        },
        {
          "indexed": true,
          "internalType": "address",
          "name": "newOwner",
          "type": "address"
        }
      ],
      "name": "OwnershipTransferred",
      "type": "event"
    },
    {
      "anonymous": false,
      "inputs": [
        {
          "indexed": false,
          "internalType": "address",
          "name": "account",
          "type": "address"
        }
      ],
      "name": "Paused",
      "type": "event"
    },
    {
      "anonymous": false,
      "inputs": [
        {
          "indexed": true,
          "internalType": "bytes32",
          "name": "role",
          "type": "bytes32"
        },
        {
          "indexed": true,
          "internalType": "bytes32",
          "name": "previousAdminRole",
          "type": "bytes32"
        },
        {
          "indexed": true,
          "internalType": "bytes32",
          "name": "newAdminRole",
          "type": "bytes32"
        }
      ],
      "name": "RoleAdminChanged",
      "type": "event"
    },
    {
      "anonymous": false,
      "inputs": [
        {
          "indexed": true,
          "internalType": "bytes32",
          "name": "role",
          "type": "bytes32"
        },
        {
          "indexed": true,
          "internalType": "address",
          "name": "account",
          "type": "address"
        },
        {
          "indexed": true,
          "internalType": "address",
          "name": "sender",
          "type": "address"
        }
      ],
      "name": "RoleGranted",
      "type": "event"
    },
    {
      "anonymous": false,
      "inputs": [
        {
          "indexed": true,
          "internalType": "bytes32",
          "name": "role",
          "type": "bytes32"
        },
        {
          "indexed": true,
          "internalType": "address",
          "name": "account",
          "type": "address"
        },
        {
          "indexed": true,
          "internalType": "address",
          "name": "sender",
          "type": "address"
        }
      ],
      "name": "RoleRevoked",
      "type": "event"
    },
    {
      "anonymous": false,
      "inputs": [
        {
          "indexed": true,
          "internalType": "address",
          "name": "operator",
          "type": "address"
        },
        {
          "indexed": true,
          "internalType": "address",
          "name": "from",
          "type": "address"
        },
        {
          "indexed": true,
          "internalType": "address",
          "name": "to",
          "type": "address"
        },
        {
          "indexed": false,
          "internalType": "uint256[]",
          "name": "ids",
          "type": "uint256[]"
        },
        {
          "indexed": false,
          "internalType": "uint256[]",
          "name": "values",
          "type": "uint256[]"
        }
      ],
      "name": "TransferBatch",
      "type": "event"
    },
    {
      "anonymous": false,
      "inputs": [
        {
          "indexed": true,
          "internalType": "address",
          "name": "operator",
          "type": "address"
        },
        {
          "indexed": true,
          "internalType": "address",
          "name": "from",
          "type": "address"
        },
        {
          "indexed": true,
          "internalType": "address",
          "name": "to",
          "type": "address"
        },
        {
          "indexed": false,
          "internalType": "uint256",
          "name": "id",
          "type": "uint256"
        },
        {
          "indexed": false,
          "internalType": "uint256",
          "name": "value",
          "type": "uint256"
        }
      ],
      "name": "TransferSingle",
      "type": "event"
    },
    {
      "anonymous": false,
      "inputs": [
        {
          "indexed": false,
          "internalType": "string",
          "name": "value",
          "type": "string"
        },
        {
          "indexed": true,
          "internalType": "uint256",
          "name": "id",
          "type": "uint256"
        }
      ],
      "name": "URI",
      "type": "event"
    },
    {
      "anonymous": false,
      "inputs": [
        {
          "indexed": false,
          "internalType": "address",
          "name": "account",
          "type": "address"
        }
      ],
      "name": "Unpaused",
      "type": "event"
    },
    {
      "inputs": [],
      "name": "DEFAULT_ADMIN_ROLE",
      "outputs": [
        {
          "internalType": "bytes32",
          "name": "",
          "type": "bytes32"
        }
      ],
      "stateMutability": "view",
      "type": "function"
    },
    {
      "inputs": [],
      "name": "EXPIRATION_MANAGER_ROLE",
      "outputs": [
        {
          "internalType": "bytes32",
          "name": "",
          "type": "bytes32"
        }
      ],
      "stateMutability": "view",
      "type": "function"
    },
    {
      "inputs": [],
      "name": "MINTER_ROLE",
      "outputs": [
        {
          "internalType": "bytes32",
          "name": "",
          "type": "bytes32"
        }
      ],
      "stateMutability": "view",
      "type": "function"
    },
    {
      "inputs": [],
      "name": "PAUSER_ROLE",
      "outputs": [
        {
          "internalType": "bytes32",
          "name": "",
          "type": "bytes32"
        }
      ],
      "stateMutability": "view",
      "type": "function"
    },
    {
      "inputs": [],
      "name": "URI_SETTER_ROLE",
      "outputs": [
        {
          "internalType": "bytes32",
          "name": "",
          "type": "bytes32"
        }
      ],
      "stateMutability": "view",
      "type": "function"
    },
    {
      "inputs": [
        {
          "internalType": "address",
          "name": "account",
          "type": "address"
        },
        {
          "internalType": "uint256",
          "name": "id",
          "type": "uint256"
        }
      ],
      "name": "balanceOf",
      "outputs": [
        {
          "internalType": "uint256",
          "name": "",
          "type": "uint256"
        }
      ],
      "stateMutability": "view",
      "type": "function"
    },
    {
      "inputs": [
        {
          "internalType": "address[]",
          "name": "accounts",
          "type": "address[]"
        },
        {
          "internalType": "uint256[]",
          "name": "ids",
          "type": "uint256[]"
        }
      ],
      "name": "balanceOfBatch",
      "outputs": [
        {
          "internalType": "uint256[]",
          "name": "",
          "type": "uint256[]"
        }
      ],
      "stateMutability": "view",
      "type": "function"
    },
    {
      "inputs": [
        {
          "internalType": "address",
          "name": "account",
          "type": "address"
        },
        {
          "internalType": "uint256",
          "name": "id",
          "type": "uint256"
        },
        {
          "internalType": "uint256",
          "name": "value",
          "type": "uint256"
        }
      ],
      "name": "burn",
      "outputs": [],
      "stateMutability": "nonpayable",
      "type": "function"
    },
    {
      "inputs": [
        {
          "internalType": "address",
          "name": "account",
          "type": "address"
        },
        {
          "internalType": "uint256[]",
          "name": "ids",
          "type": "uint256[]"
        },
        {
          "internalType": "uint256[]",
          "name": "values",
          "type": "uint256[]"
        }
      ],
      "name": "burnBatch",
      "outputs": [],
      "stateMutability": "nonpayable",
      "type": "function"
    },
    {
      "inputs": [
        {
          "internalType": "uint256",
          "name": "id",
          "type": "uint256"
        }
      ],
      "name": "exists",
      "outputs": [
        {
          "internalType": "bool",
          "name": "",
          "type": "bool"
        }
      ],
      "stateMutability": "view",
      "type": "function"
    },
    {
      "inputs": [
        {
          "internalType": "address",
          "name": "account",
          "type": "address"
        },
        {
          "internalType": "uint256",
          "name": "id",
          "type": "uint256"
        }
      ],
      "name": "getExpiration",
      "outputs": [
        {
          "internalType": "uint256",
          "name": "",
          "type": "uint256"
        }
      ],
      "stateMutability": "view",
      "type": "function"
    },
    {
      "inputs": [
        {
          "internalType": "bytes32",
          "name": "role",
          "type": "bytes32"
        }
      ],
      "name": "getRoleAdmin",
      "outputs": [
        {
          "internalType": "bytes32",
          "name": "",
          "type": "bytes32"
        }
      ],
      "stateMutability": "view",
      "type": "function"
    },
    {
      "inputs": [
        {
          "internalType": "bytes32",
          "name": "role",
          "type": "bytes32"
        },
        {
          "internalType": "address",
          "name": "account",
          "type": "address"
        }
      ],
      "name": "grantRole",
      "outputs": [],
      "stateMutability": "nonpayable",
      "type": "function"
    },
    {
      "inputs": [
        {
          "internalType": "bytes32",
          "name": "role",
          "type": "bytes32"
        },
        {
          "internalType": "address",
          "name": "account",
          "type": "address"
        }
      ],
      "name": "hasRole",
      "outputs": [
        {
          "internalType": "bool",
          "name": "",
          "type": "bool"
        }
      ],
      "stateMutability": "view",
      "type": "function"
    },
    {
      "inputs": [
        {
          "internalType": "address",
          "name": "account",
          "type": "address"
        },
        {
          "internalType": "address",
          "name": "operator",
          "type": "address"
        }
      ],
      "name": "isApprovedForAll",
      "outputs": [
        {
          "internalType": "bool",
          "name": "",
          "type": "bool"
        }
      ],
      "stateMutability": "view",
      "type": "function"
    },
    {
      "inputs": [
        {
          "internalType": "address",
          "name": "account",
          "type": "address"
        },
        {
          "internalType": "uint256",
          "name": "id",
          "type": "uint256"
        }
      ],
      "name": "isExpired",
      "outputs": [
        {
          "internalType": "bool",
          "name": "",
          "type": "bool"
        }
      ],
      "stateMutability": "view",
      "type": "function"
    },
    {
      "inputs": [
        {
          "internalType": "address",
          "name": "account",
          "type": "address"
        },
        {
          "internalType": "uint256",
          "name": "id",
          "type": "uint256"
        },
        {
          "internalType": "uint256",
          "name": "amount",
          "type": "uint256"
        },
        {
          "internalType": "bytes",
          "name": "data",
          "type": "bytes"
        }
      ],
      "name": "mint",
      "outputs": [],
      "stateMutability": "nonpayable",
      "type": "function"
    },
    {
      "inputs": [
        {
          "internalType": "address",
          "name": "to",
          "type": "address"
        },
        {
          "internalType": "uint256[]",
          "name": "ids",
          "type": "uint256[]"
        },
        {
          "internalType": "uint256[]",
          "name": "amounts",
          "type": "uint256[]"
        },
        {
          "internalType": "bytes",
          "name": "data",
          "type": "bytes"
        }
      ],
      "name": "mintBatch",
      "outputs": [],
      "stateMutability": "nonpayable",
      "type": "function"
    },
    {
      "inputs": [
        {
          "internalType": "address",
          "name": "to",
          "type": "address"
        },
        {
          "internalType": "uint256",
          "name": "tokenId",
          "type": "uint256"
        },
        {
          "internalType": "uint256",
          "name": "amount",
          "type": "uint256"
        },
        {
          "internalType": "bytes",
          "name": "data",
          "type": "bytes"
        },
        {
          "internalType": "bytes",
          "name": "signature",
          "type": "bytes"
        }
      ],
      "name": "mintWithSignature",
      "outputs": [],
      "stateMutability": "nonpayable",
      "type": "function"
    },
    {
      "inputs": [
        {
          "internalType": "uint256",
          "name": "tokenId",
          "type": "uint256"
        }
      ],
      "name": "originalOwnerOf",
      "outputs": [
        {
          "internalType": "address",
          "name": "",
          "type": "address"
        }
      ],
      "stateMutability": "view",
      "type": "function"
    },
    {
      "inputs": [
        {
          "internalType": "uint256",
          "name": "tokenId",
          "type": "uint256"
        }
      ],
      "name": "ownerOf",
      "outputs": [
        {
          "internalType": "address",
          "name": "",
          "type": "address"
        }
      ],
      "stateMutability": "view",
      "type": "function"
    },
    {
      "inputs": [],
      "name": "pause",
      "outputs": [],
      "stateMutability": "nonpayable",
      "type": "function"
    },
    {
      "inputs": [],
      "name": "paused",
      "outputs": [
        {
          "internalType": "bool",
          "name": "",
          "type": "bool"
        }
      ],
      "stateMutability": "view",
      "type": "function"
    },
    {
      "inputs": [
        {
          "internalType": "bytes32",
          "name": "role",
          "type": "bytes32"
        },
        {
          "internalType": "address",
          "name": "callerConfirmation",
          "type": "address"
        }
      ],
      "name": "renounceRole",
      "outputs": [],
      "stateMutability": "nonpayable",
      "type": "function"
    },
    {
      "inputs": [
        {
          "internalType": "bytes32",
          "name": "role",
          "type": "bytes32"
        },
        {
          "internalType": "address",
          "name": "account",
          "type": "address"
        }
      ],
      "name": "revokeRole",
      "outputs": [],
      "stateMutability": "nonpayable",
      "type": "function"
    },
    {
      "inputs": [
        {
          "internalType": "address",
          "name": "from",
          "type": "address"
        },
        {
          "internalType": "address",
          "name": "to",
          "type": "address"
        },
        {
          "internalType": "uint256[]",
          "name": "ids",
          "type": "uint256[]"
        },
        {
          "internalType": "uint256[]",
          "name": "values",
          "type": "uint256[]"
        },
        {
          "internalType": "bytes",
          "name": "data",
          "type": "bytes"
        }
      ],
      "name": "safeBatchTransferFrom",
      "outputs": [],
      "stateMutability": "nonpayable",
      "type": "function"
    },
    {
      "inputs": [
        {
          "internalType": "address",
          "name": "from",
          "type": "address"
        },
        {
          "internalType": "address",
          "name": "to",
          "type": "address"
        },
        {
          "internalType": "uint256[]",
          "name": "ids",
          "type": "uint256[]"
        },
        {
          "internalType": "uint256[]",
          "name": "amounts",
          "type": "uint256[]"
        },
        {
          "internalType": "uint256[]",
          "name": "expirationTimes",
          "type": "uint256[]"
        },
        {
          "internalType": "bytes",
          "name": "data",
          "type": "bytes"
        }
      ],
      "name": "safeBatchTransferFromWithExpiration",
      "outputs": [],
      "stateMutability": "nonpayable",
      "type": "function"
    },
    {
      "inputs": [
        {
          "internalType": "address",
          "name": "from",
          "type": "address"
        },
        {
          "internalType": "address",
          "name": "to",
          "type": "address"
        },
        {
          "internalType": "uint256",
          "name": "id",
          "type": "uint256"
        },
        {
          "internalType": "uint256",
          "name": "value",
          "type": "uint256"
        },
        {
          "internalType": "bytes",
          "name": "data",
          "type": "bytes"
        }
      ],
      "name": "safeTransferFrom",
      "outputs": [],
      "stateMutability": "nonpayable",
      "type": "function"
    },
    {
      "inputs": [
        {
          "internalType": "address",
          "name": "from",
          "type": "address"
        },
        {
          "internalType": "address",
          "name": "to",
          "type": "address"
        },
        {
          "internalType": "uint256",
          "name": "id",
          "type": "uint256"
        },
        {
          "internalType": "uint256",
          "name": "amount",
          "type": "uint256"
        },
        {
          "internalType": "uint256",
          "name": "expirationTime",
          "type": "uint256"
        },
        {
          "internalType": "bytes",
          "name": "data",
          "type": "bytes"
        }
      ],
      "name": "safeTransferFromWithExpiration",
      "outputs": [],
      "stateMutability": "nonpayable",
      "type": "function"
    },
    {
      "inputs": [
        {
          "internalType": "address",
          "name": "operator",
          "type": "address"
        },
        {
          "internalType": "bool",
          "name": "approved",
          "type": "bool"
        }
      ],
      "name": "setApprovalForAll",
      "outputs": [],
      "stateMutability": "nonpayable",
      "type": "function"
    },
    {
      "inputs": [
        {
          "internalType": "string",
          "name": "baseURI",
          "type": "string"
        }
      ],
      "name": "setBaseURI",
      "outputs": [],
      "stateMutability": "nonpayable",
      "type": "function"
    },
    {
      "inputs": [
        {
          "internalType": "address",
          "name": "account",
          "type": "address"
        },
        {
          "internalType": "uint256[]",
          "name": "ids",
          "type": "uint256[]"
        },
        {
          "internalType": "uint256[]",
          "name": "expirationTimes",
          "type": "uint256[]"
        }
      ],
      "name": "setBatchExpiration",
      "outputs": [],
      "stateMutability": "nonpayable",
      "type": "function"
    },
    {
      "inputs": [
        {
          "internalType": "address",
          "name": "account",
          "type": "address"
        },
        {
          "internalType": "uint256",
          "name": "id",
          "type": "uint256"
        },
        {
          "internalType": "uint256",
          "name": "expirationTime",
          "type": "uint256"
        }
      ],
      "name": "setExpiration",
      "outputs": [],
      "stateMutability": "nonpayable",
      "type": "function"
    },
    {
      "inputs": [
        {
          "internalType": "uint256",
          "name": "tokenId",
          "type": "uint256"
        },
        {
          "internalType": "string",
          "name": "tokenURI",
          "type": "string"
        }
      ],
      "name": "setTokenURI",
      "outputs": [],
      "stateMutability": "nonpayable",
      "type": "function"
    },
    {
      "inputs": [
        {
          "internalType": "string",
          "name": "newuri",
          "type": "string"
        }
      ],
      "name": "setURI",
      "outputs": [],
      "stateMutability": "nonpayable",
      "type": "function"
    },
    {
      "inputs": [
        {
          "internalType": "bytes4",
          "name": "interfaceId",
          "type": "bytes4"
        }
      ],
      "name": "supportsInterface",
      "outputs": [
        {
          "internalType": "bool",
          "name": "",
          "type": "bool"
        }
      ],
      "stateMutability": "view",
      "type": "function"
    },
    {
      "inputs": [],
      "name": "totalSupply",
      "outputs": [
        {
          "internalType": "uint256",
          "name": "",
          "type": "uint256"
        }
      ],
      "stateMutability": "view",
      "type": "function"
    },
    {
      "inputs": [
        {
          "internalType": "uint256",
          "name": "id",
          "type": "uint256"
        }
      ],
      "name": "totalSupply",
      "outputs": [
        {
          "internalType": "uint256",
          "name": "",
          "type": "uint256"
        }
      ],
      "stateMutability": "view",
      "type": "function"
    },
    {
      "inputs": [
        {
          "internalType": "uint256",
          "name": "tokenId",
          "type": "uint256"
        },
        {
          "internalType": "address",
          "name": "newOwner",
          "type": "address"
        }
      ],
      "name": "transferOwnership",
      "outputs": [],
      "stateMutability": "nonpayable",
      "type": "function"
    },
    {
      "inputs": [],
      "name": "unpause",
      "outputs": [],
      "stateMutability": "nonpayable",
      "type": "function"
    },
    {
      "inputs": [
        {
          "internalType": "uint256",
          "name": "tokenId",
          "type": "uint256"
        }
      ],
      "name": "uri",
      "outputs": [
        {
          "internalType": "string",
          "name": "",
          "type": "string"
        }
      ],
      "stateMutability": "view",
      "type": "function"
    }
  ],
  "bytecode": "0x60806040526040518060200160405280600081525060079081620000249190620005ac565b503480156200003257600080fd5b5060405162006311380380620063118339818101604052810190620000589190620006fd565b6040518060400160405280601d81526020017f68747470733a2f2f73616665696465612e6e65742f646f632f7b69647d0000008152506200009f81620001a660201b60201c565b506000600460006101000a81548160ff021916908315150217905550620000d06000801b84620001bb60201b60201c565b50620001037f7804d923f43a17d325d77e781528e0793b2edd9890ab45fc64efd7b4b427744c84620001bb60201b60201c565b50620001367f65d7a28e3265b37a6474929f336521b332c1681b933f6cb9f3376673440d862a83620001bb60201b60201c565b50620001697f9f2df0fed2c77648de5860a4cc508cd0818c85b8b8a1ab4ceeef8d981c8956a682620001bb60201b60201c565b506200019c7f5bd33557d028fa6327a6c10090602e75b5763bcbc8c9d2f602672edd0eee7a0882620001bb60201b60201c565b5050505062000759565b8060029081620001b79190620005ac565b5050565b6000620001cf8383620002bf60201b60201c565b620002b45760016003600085815260200190815260200160002060000160008473ffffffffffffffffffffffffffffffffffffffff1673ffffffffffffffffffffffffffffffffffffffff16815260200190815260200160002060006101000a81548160ff021916908315150217905550620002506200032a60201b60201c565b73ffffffffffffffffffffffffffffffffffffffff168273ffffffffffffffffffffffffffffffffffffffff16847f2f8788117e7eff1d82e926ec794901d17c78024a50270940304540a733656f0d60405160405180910390a460019050620002b9565b600090505b92915050565b60006003600084815260200190815260200160002060000160008373ffffffffffffffffffffffffffffffffffffffff1673ffffffffffffffffffffffffffffffffffffffff16815260200190815260200160002060009054906101000a900460ff16905092915050565b600033905090565b600081519050919050565b7f4e487b7100000000000000000000000000000000000000000000000000000000600052604160045260246000fd5b7f4e487b7100000000000000000000000000000000000000000000000000000000600052602260045260246000fd5b60006002820490506001821680620003b457607f821691505b602082108103620003ca57620003c96200036c565b5b50919050565b60008190508160005260206000209050919050565b60006020601f8301049050919050565b600082821b905092915050565b600060088302620004347fffffffffffffffffffffffffffffffffffffffffffffffffffffffffffffffff82620003f5565b620004408683620003f5565b95508019841693508086168417925050509392505050565b6000819050919050565b6000819050919050565b60006200048d62000487620004818462000458565b62000462565b62000458565b9050919050565b6000819050919050565b620004a9836200046c565b620004c1620004b88262000494565b84845462000402565b825550505050565b600090565b620004d8620004c9565b620004e58184846200049e565b505050565b5b818110156200050d5762000501600082620004ce565b600181019050620004eb565b5050565b601f8211156200055c576200052681620003d0565b6200053184620003e5565b8101602085101562000541578190505b620005596200055085620003e5565b830182620004ea565b50505b505050565b600082821c905092915050565b6000620005816000198460080262000561565b1980831691505092915050565b60006200059c83836200056e565b9150826002028217905092915050565b620005b78262000332565b67ffffffffffffffff811115620005d357620005d26200033d565b5b620005df82546200039b565b620005ec82828562000511565b600060209050601f8311600181146200062457600084156200060f578287015190505b6200061b85826200058e565b8655506200068b565b601f1984166200063486620003d0565b60005b828110156200065e5784890151825560018201915060208501945060208101905062000637565b868310156200067e57848901516200067a601f8916826200056e565b8355505b6001600288020188555050505b505050505050565b600080fd5b600073ffffffffffffffffffffffffffffffffffffffff82169050919050565b6000620006c58262000698565b9050919050565b620006d781620006b8565b8114620006e357600080fd5b50565b600081519050620006f781620006cc565b92915050565b60008060006060848603121562000719576200071862000693565b5b60006200072986828701620006e6565b93505060206200073c86828701620006e6565b92505060406200074f86828701620006e6565b9150509250925092565b615ba880620007696000396000f3fe608060405234801561001057600080fd5b50600436106102525760003560e01c80634e1273f4116101465780638456cb59116100c3578063d539139311610087578063d539139314610701578063d547741f1461071f578063e63ab1e91461073b578063e985e9c514610759578063f242432a14610789578063f5298aca146107a557610252565b80638456cb591461065d57806391d1485414610667578063a217fddf14610697578063a22cb465146106b5578063bd85b039146106d157610252565b806367614e621161010a57806367614e62146105bb5780636b20c454146105d7578063731133e9146105f357806373b64ac51461060f5780637f3457101461063f57610252565b80634e1273f4146104f15780634f558e791461052157806355f804b3146105515780635c975abb1461056d5780636352211e1461058b57610252565b80631f7fdffa116101d45780632f2ff15d116101985780632f2ff15d1461047557806334f1cf4c1461049157806336568abe146104ad5780633f4ba83a146104c95780634943f8f8146104d357610252565b80631f7fdffa146103c1578063248a9ca3146103dd57806329507f731461040d5780632cac49c4146104295780632eb2c2d61461045957610252565b8063151497931161021b578063151497931461031f578063162094c41461034f57806318160ddd1461036b5780631a69d180146103895780631af189e1146103a557610252565b8062fdd58e1461025757806301ffc9a71461028757806302fe5305146102b75780630866be00146102d35780630e89341c146102ef575b600080fd5b610271600480360381019061026c9190613d93565b6107c1565b60405161027e9190613de2565b60405180910390f35b6102a1600480360381019061029c9190613e55565b61089c565b6040516102ae9190613e9d565b60405180910390f35b6102d160048036038101906102cc9190613ffe565b6108ae565b005b6102ed60048036038101906102e891906141b0565b6108e5565b005b610309600480360381019061030491906142ad565b610ab9565b6040516103169190614359565b60405180910390f35b61033960048036038101906103349190613d93565b610acb565b6040516103469190613e9d565b60405180910390f35b6103696004803603810190610364919061437b565b610b3b565b005b610373610b74565b6040516103809190613de2565b60405180910390f35b6103a3600480360381019061039e91906143d7565b610b7e565b005b6103bf60048036038101906103ba9190614480565b610c6c565b005b6103db60048036038101906103d691906144d3565b610d8c565b005b6103f760048036038101906103f291906145c4565b610f43565b6040516104049190614600565b60405180910390f35b6104276004803603810190610422919061461b565b610f63565b005b610443600480360381019061043e9190613d93565b611164565b6040516104509190613de2565b60405180910390f35b610473600480360381019061046e919061465b565b6111bf565b005b61048f600480360381019061048a919061472a565b611267565b005b6104ab60048036038101906104a6919061476a565b611289565b005b6104c760048036038101906104c2919061472a565b611419565b005b6104d1611494565b005b6104db6114c9565b6040516104e89190614600565b60405180910390f35b61050b600480360381019061050691906148e0565b6114ed565b6040516105189190614a16565b60405180910390f35b61053b600480360381019061053691906142ad565b611606565b6040516105489190613e9d565b60405180910390f35b61056b60048036038101906105669190613ffe565b61161a565b005b610575611651565b6040516105829190613e9d565b60405180910390f35b6105a560048036038101906105a091906142ad565b611668565b6040516105b29190614a47565b60405180910390f35b6105d560048036038101906105d09190614a62565b611719565b005b6105f160048036038101906105ec9190614a62565b61191f565b005b61060d60048036038101906106089190614aed565b6119cb565b005b610629600480360381019061062491906142ad565b611b14565b6040516106369190614a47565b60405180910390f35b610647611bc5565b6040516106549190614600565b60405180910390f35b610665611be9565b005b610681600480360381019061067c919061472a565b611c1e565b60405161068e9190613e9d565b60405180910390f35b61069f611c89565b6040516106ac9190614600565b60405180910390f35b6106cf60048036038101906106ca9190614b9c565b611c90565b005b6106eb60048036038101906106e691906142ad565b611ca6565b6040516106f89190613de2565b60405180910390f35b610709611cc3565b6040516107169190614600565b60405180910390f35b6107396004803603810190610734919061472a565b611ce7565b005b610743611d09565b6040516107509190614600565b60405180910390f35b610773600480360381019061076e9190614bdc565b611d2d565b6040516107809190613e9d565b60405180910390f35b6107a3600480360381019061079e9190614c1c565b611dc1565b005b6107bf60048036038101906107ba9190614480565b611e69565b005b6000806107ce8484611f15565b9050600081148061080b5750600073ffffffffffffffffffffffffffffffffffffffff168473ffffffffffffffffffffffffffffffffffffffff16145b1561081a576000915050610896565b6000600960008673ffffffffffffffffffffffffffffffffffffffff1673ffffffffffffffffffffffffffffffffffffffff1681526020019081526020016000206000858152602001908152602001600020549050600081141580156108805750428111155b1561089057600092505050610896565b81925050505b92915050565b60006108a782611f6f565b9050919050565b7f7804d923f43a17d325d77e781528e0793b2edd9890ab45fc64efd7b4b427744c6108d881611fe9565b6108e182611ffd565b5050565b7f9f2df0fed2c77648de5860a4cc508cd0818c85b8b8a1ab4ceeef8d981c8956a661090f81611fe9565b8251855114610953576040517f08c379a000000000000000000000000000000000000000000000000000000000815260040161094a90614d25565b60405180910390fd5b61096087878787866111bf565b60005b8551811015610aaf57600084828151811061098157610980614d45565b5b60200260200101511115610a9c578381815181106109a2576109a1614d45565b5b6020026020010151600960008973ffffffffffffffffffffffffffffffffffffffff1673ffffffffffffffffffffffffffffffffffffffff16815260200190815260200160002060008884815181106109fe576109fd614d45565b5b6020026020010151815260200190815260200160002081905550858181518110610a2b57610a2a614d45565b5b60200260200101518773ffffffffffffffffffffffffffffffffffffffff167f1347ce935d48b1622e772cb855c5f27a0956e54f183acdd65752106fa013cd08868481518110610a7e57610a7d614d45565b5b6020026020010151604051610a939190613de2565b60405180910390a35b8080610aa790614da3565b915050610963565b5050505050505050565b6060610ac482612010565b9050919050565b600080600960008573ffffffffffffffffffffffffffffffffffffffff1673ffffffffffffffffffffffffffffffffffffffff168152602001908152602001600020600084815260200190815260200160002054905060008114158015610b325750428111155b91505092915050565b7f7804d923f43a17d325d77e781528e0793b2edd9890ab45fc64efd7b4b427744c610b6581611fe9565b610b6f83836120f5565b505050565b6000600654905090565b7f9f2df0fed2c77648de5860a4cc508cd0818c85b8b8a1ab4ceeef8d981c8956a6610ba881611fe9565b610bb58787878786611dc1565b6000831115610c635782600960008873ffffffffffffffffffffffffffffffffffffffff1673ffffffffffffffffffffffffffffffffffffffff168152602001908152602001600020600087815260200190815260200160002081905550848673ffffffffffffffffffffffffffffffffffffffff167f1347ce935d48b1622e772cb855c5f27a0956e54f183acdd65752106fa013cd0885604051610c5a9190613de2565b60405180910390a35b50505050505050565b7f5bd33557d028fa6327a6c10090602e75b5763bcbc8c9d2f602672edd0eee7a08610c9681611fe9565b6000610ca28585611f15565b11610ce2576040517f08c379a0000000000000000000000000000000000000000000000000000000008152600401610cd990614e5d565b60405180910390fd5b81600960008673ffffffffffffffffffffffffffffffffffffffff1673ffffffffffffffffffffffffffffffffffffffff168152602001908152602001600020600085815260200190815260200160002081905550828473ffffffffffffffffffffffffffffffffffffffff167f1347ce935d48b1622e772cb855c5f27a0956e54f183acdd65752106fa013cd0884604051610d7e9190613de2565b60405180910390a350505050565b7f9f2df0fed2c77648de5860a4cc508cd0818c85b8b8a1ab4ceeef8d981c8956a6610db681611fe9565b610dc28585858561215a565b60005b8451811015610f3b57600073ffffffffffffffffffffffffffffffffffffffff16600a6000878481518110610dfd57610dfc614d45565b5b6020026020010151815260200190815260200160002060009054906101000a900473ffffffffffffffffffffffffffffffffffffffff1673ffffffffffffffffffffffffffffffffffffffff1603610f285785600a6000878481518110610e6757610e66614d45565b5b6020026020010151815260200190815260200160002060006101000a81548173ffffffffffffffffffffffffffffffffffffffff021916908373ffffffffffffffffffffffffffffffffffffffff16021790555085600b6000878481518110610ed357610ed2614d45565b5b6020026020010151815260200190815260200160002060006101000a81548173ffffffffffffffffffffffffffffffffffffffff021916908373ffffffffffffffffffffffffffffffffffffffff1602179055505b8080610f3390614da3565b915050610dc5565b505050505050565b600060036000838152602001908152602001600020600101549050919050565b610f6b6121e0565b73ffffffffffffffffffffffffffffffffffffffff16600b600084815260200190815260200160002060009054906101000a900473ffffffffffffffffffffffffffffffffffffffff1673ffffffffffffffffffffffffffffffffffffffff161461100b576040517f08c379a000000000000000000000000000000000000000000000000000000000815260040161100290614eef565b60405180910390fd5b600073ffffffffffffffffffffffffffffffffffffffff168173ffffffffffffffffffffffffffffffffffffffff160361107a576040517f08c379a000000000000000000000000000000000000000000000000000000000815260040161107190614f81565b60405180910390fd5b6000600b600084815260200190815260200160002060009054906101000a900473ffffffffffffffffffffffffffffffffffffffff16905081600b600085815260200190815260200160002060006101000a81548173ffffffffffffffffffffffffffffffffffffffff021916908373ffffffffffffffffffffffffffffffffffffffff1602179055508173ffffffffffffffffffffffffffffffffffffffff168173ffffffffffffffffffffffffffffffffffffffff16847f16b85f49bf01212961345d3016c9a531894accf62eb7680f2045d79185cc0ec060405160405180910390a4505050565b6000600960008473ffffffffffffffffffffffffffffffffffffffff1673ffffffffffffffffffffffffffffffffffffffff168152602001908152602001600020600083815260200190815260200160002054905092915050565b60006111c96121e0565b90508073ffffffffffffffffffffffffffffffffffffffff168673ffffffffffffffffffffffffffffffffffffffff161415801561120e575061120c8682611d2d565b155b156112525780866040517fe237d922000000000000000000000000000000000000000000000000000000008152600401611249929190614fa1565b60405180910390fd5b61125f86868686866121e8565b505050505050565b61127082610f43565b61127981611fe9565b61128383836122e0565b50505050565b6000600b600086815260200190815260200160002060009054906101000a900473ffffffffffffffffffffffffffffffffffffffff169050600073ffffffffffffffffffffffffffffffffffffffff168173ffffffffffffffffffffffffffffffffffffffff1603611330576040517f08c379a00000000000000000000000000000000000000000000000000000000081526004016113279061503c565b60405180910390fd5b60008686863060405160200161134994939291906150c5565b6040516020818303038152906040528051906020012060405160200161136f919061518b565b604051602081830303815290604052805190602001209050600061139382856123d2565b90508273ffffffffffffffffffffffffffffffffffffffff168173ffffffffffffffffffffffffffffffffffffffff1614611403576040517f08c379a00000000000000000000000000000000000000000000000000000000081526004016113fa906151fd565b60405180910390fd5b61140f888888886123fe565b5050505050505050565b6114216121e0565b73ffffffffffffffffffffffffffffffffffffffff168173ffffffffffffffffffffffffffffffffffffffff1614611485576040517f6697b23200000000000000000000000000000000000000000000000000000000815260040160405180910390fd5b61148f8282612497565b505050565b7f65d7a28e3265b37a6474929f336521b332c1681b933f6cb9f3376673440d862a6114be81611fe9565b6114c661258a565b50565b7f5bd33557d028fa6327a6c10090602e75b5763bcbc8c9d2f602672edd0eee7a0881565b60608151835114611533576040517f08c379a000000000000000000000000000000000000000000000000000000000815260040161152a9061528f565b60405180910390fd5b6000835167ffffffffffffffff8111156115505761154f613ed3565b5b60405190808252806020026020018201604052801561157e5781602001602082028036833780820191505090505b50905060005b84518110156115fb576115cb8582815181106115a3576115a2614d45565b5b60200260200101518583815181106115be576115bd614d45565b5b60200260200101516107c1565b8282815181106115de576115dd614d45565b5b602002602001018181525050806115f490614da3565b9050611584565b508091505092915050565b60008061161283611ca6565b119050919050565b7f7804d923f43a17d325d77e781528e0793b2edd9890ab45fc64efd7b4b427744c61164481611fe9565b61164d826125ed565b5050565b6000600460009054906101000a900460ff16905090565b600080600b600084815260200190815260200160002060009054906101000a900473ffffffffffffffffffffffffffffffffffffffff169050600073ffffffffffffffffffffffffffffffffffffffff168173ffffffffffffffffffffffffffffffffffffffff1603611710576040517f08c379a000000000000000000000000000000000000000000000000000000000815260040161170790615321565b60405180910390fd5b80915050919050565b7f5bd33557d028fa6327a6c10090602e75b5763bcbc8c9d2f602672edd0eee7a0861174381611fe9565b8151835114611787576040517f08c379a000000000000000000000000000000000000000000000000000000000815260040161177e90614d25565b60405180910390fd5b60005b83518110156119185760006117b9868684815181106117ac576117ab614d45565b5b6020026020010151611f15565b116117f9576040517f08c379a00000000000000000000000000000000000000000000000000000000081526004016117f090614e5d565b60405180910390fd5b82818151811061180c5761180b614d45565b5b6020026020010151600960008773ffffffffffffffffffffffffffffffffffffffff1673ffffffffffffffffffffffffffffffffffffffff168152602001908152602001600020600086848151811061186857611867614d45565b5b602002602001015181526020019081526020016000208190555083818151811061189557611894614d45565b5b60200260200101518573ffffffffffffffffffffffffffffffffffffffff167f1347ce935d48b1622e772cb855c5f27a0956e54f183acdd65752106fa013cd088584815181106118e8576118e7614d45565b5b60200260200101516040516118fd9190613de2565b60405180910390a3808061191090614da3565b91505061178a565b5050505050565b6119276121e0565b73ffffffffffffffffffffffffffffffffffffffff168373ffffffffffffffffffffffffffffffffffffffff1614158015611970575061196e836119696121e0565b611d2d565b155b156119bb5761197d6121e0565b836040517fe237d9220000000000000000000000000000000000000000000000000000000081526004016119b2929190614fa1565b60405180910390fd5b6119c6838383612600565b505050565b7f9f2df0fed2c77648de5860a4cc508cd0818c85b8b8a1ab4ceeef8d981c8956a66119f581611fe9565b611a01858585856123fe565b600073ffffffffffffffffffffffffffffffffffffffff16600a600086815260200190815260200160002060009054906101000a900473ffffffffffffffffffffffffffffffffffffffff1673ffffffffffffffffffffffffffffffffffffffff1603611b0d5784600a600086815260200190815260200160002060006101000a81548173ffffffffffffffffffffffffffffffffffffffff021916908373ffffffffffffffffffffffffffffffffffffffff16021790555084600b600086815260200190815260200160002060006101000a81548173ffffffffffffffffffffffffffffffffffffffff021916908373ffffffffffffffffffffffffffffffffffffffff1602179055505b5050505050565b600080600a600084815260200190815260200160002060009054906101000a900473ffffffffffffffffffffffffffffffffffffffff169050600073ffffffffffffffffffffffffffffffffffffffff168173ffffffffffffffffffffffffffffffffffffffff1603611bbc576040517f08c379a0000000000000000000000000000000000000000000000000000000008152600401611bb39061538d565b60405180910390fd5b80915050919050565b7f7804d923f43a17d325d77e781528e0793b2edd9890ab45fc64efd7b4b427744c81565b7f65d7a28e3265b37a6474929f336521b332c1681b933f6cb9f3376673440d862a611c1381611fe9565b611c1b612694565b50565b60006003600084815260200190815260200160002060000160008373ffffffffffffffffffffffffffffffffffffffff1673ffffffffffffffffffffffffffffffffffffffff16815260200190815260200160002060009054906101000a900460ff16905092915050565b6000801b81565b611ca2611c9b6121e0565b83836126f7565b5050565b600060056000838152602001908152602001600020549050919050565b7f9f2df0fed2c77648de5860a4cc508cd0818c85b8b8a1ab4ceeef8d981c8956a681565b611cf082610f43565b611cf981611fe9565b611d038383612497565b50505050565b7f65d7a28e3265b37a6474929f336521b332c1681b933f6cb9f3376673440d862a81565b6000600160008473ffffffffffffffffffffffffffffffffffffffff1673ffffffffffffffffffffffffffffffffffffffff16815260200190815260200160002060008373ffffffffffffffffffffffffffffffffffffffff1673ffffffffffffffffffffffffffffffffffffffff16815260200190815260200160002060009054906101000a900460ff16905092915050565b6000611dcb6121e0565b90508073ffffffffffffffffffffffffffffffffffffffff168673ffffffffffffffffffffffffffffffffffffffff1614158015611e105750611e0e8682611d2d565b155b15611e545780866040517fe237d922000000000000000000000000000000000000000000000000000000008152600401611e4b929190614fa1565b60405180910390fd5b611e618686868686612867565b505050505050565b611e716121e0565b73ffffffffffffffffffffffffffffffffffffffff168373ffffffffffffffffffffffffffffffffffffffff1614158015611eba5750611eb883611eb36121e0565b611d2d565b155b15611f0557611ec76121e0565b836040517fe237d922000000000000000000000000000000000000000000000000000000008152600401611efc929190614fa1565b60405180910390fd5b611f10838383612972565b505050565b600080600083815260200190815260200160002060008473ffffffffffffffffffffffffffffffffffffffff1673ffffffffffffffffffffffffffffffffffffffff16815260200190815260200160002054905092915050565b60007f7965db0b000000000000000000000000000000000000000000000000000000007bffffffffffffffffffffffffffffffffffffffffffffffffffffffff1916827bffffffffffffffffffffffffffffffffffffffffffffffffffffffff19161480611fe25750611fe182612a19565b5b9050919050565b611ffa81611ff56121e0565b612afb565b50565b806002908161200c91906155b9565b5050565b60606000600860008481526020019081526020016000208054612032906153dc565b80601f016020809104026020016040519081016040528092919081815260200182805461205e906153dc565b80156120ab5780601f10612080576101008083540402835291602001916120ab565b820191906000526020600020905b81548152906001019060200180831161208e57829003601f168201915b5050505050905060008151116120c9576120c483612b4c565b6120ed565b6007816040516020016120dd92919061573f565b6040516020818303038152906040525b915050919050565b8060086000848152602001908152602001600020908161211591906155b9565b50817f6bb7ff708619ba0610cba295a58592e0451dee2622938c8755667688daf3529b61214184610ab9565b60405161214e9190614359565b60405180910390a25050565b600073ffffffffffffffffffffffffffffffffffffffff168473ffffffffffffffffffffffffffffffffffffffff16036121cc5760006040517f57f447ce0000000000000000000000000000000000000000000000000000000081526004016121c39190614a47565b60405180910390fd5b6121da600085858585612be0565b50505050565b600033905090565b600073ffffffffffffffffffffffffffffffffffffffff168473ffffffffffffffffffffffffffffffffffffffff160361225a5760006040517f57f447ce0000000000000000000000000000000000000000000000000000000081526004016122519190614a47565b60405180910390fd5b600073ffffffffffffffffffffffffffffffffffffffff168573ffffffffffffffffffffffffffffffffffffffff16036122cc5760006040517f01a835140000000000000000000000000000000000000000000000000000000081526004016122c39190614a47565b60405180910390fd5b6122d98585858585612be0565b5050505050565b60006122ec8383611c1e565b6123c75760016003600085815260200190815260200160002060000160008473ffffffffffffffffffffffffffffffffffffffff1673ffffffffffffffffffffffffffffffffffffffff16815260200190815260200160002060006101000a81548160ff0219169083151502179055506123646121e0565b73ffffffffffffffffffffffffffffffffffffffff168273ffffffffffffffffffffffffffffffffffffffff16847f2f8788117e7eff1d82e926ec794901d17c78024a50270940304540a733656f0d60405160405180910390a4600190506123cc565b600090505b92915050565b6000806000806123e28686612c92565b9250925092506123f28282612cee565b82935050505092915050565b600073ffffffffffffffffffffffffffffffffffffffff168473ffffffffffffffffffffffffffffffffffffffff16036124705760006040517f57f447ce0000000000000000000000000000000000000000000000000000000081526004016124679190614a47565b60405180910390fd5b60008061247d8585612e52565b9150915061248f600087848487612be0565b505050505050565b60006124a38383611c1e565b1561257f5760006003600085815260200190815260200160002060000160008473ffffffffffffffffffffffffffffffffffffffff1673ffffffffffffffffffffffffffffffffffffffff16815260200190815260200160002060006101000a81548160ff02191690831515021790555061251c6121e0565b73ffffffffffffffffffffffffffffffffffffffff168273ffffffffffffffffffffffffffffffffffffffff16847ff6391f5c32d9c69d2a47ea670b442974b53935d1edc7fd64eb21e047a839171b60405160405180910390a460019050612584565b600090505b92915050565b612592612e82565b6000600460006101000a81548160ff0219169083151502179055507f5db9ee0a495bf2e6ff9c91a7834c1ba4fdd244a5e8aa4e537bd38aeae4b073aa6125d66121e0565b6040516125e39190614a47565b60405180910390a1565b80600790816125fc91906155b9565b5050565b600073ffffffffffffffffffffffffffffffffffffffff168373ffffffffffffffffffffffffffffffffffffffff16036126725760006040517f01a835140000000000000000000000000000000000000000000000000000000081526004016126699190614a47565b60405180910390fd5b61268f836000848460405180602001604052806000815250612be0565b505050565b61269c612ec2565b6001600460006101000a81548160ff0219169083151502179055507f62e78cea01bee320cd4e420270b5ea74000d11b0c9f74754ebdbfc544b05a2586126e06121e0565b6040516126ed9190614a47565b60405180910390a1565b600073ffffffffffffffffffffffffffffffffffffffff168273ffffffffffffffffffffffffffffffffffffffff16036127695760006040517fced3e1000000000000000000000000000000000000000000000000000000000081526004016127609190614a47565b60405180910390fd5b80600160008573ffffffffffffffffffffffffffffffffffffffff1673ffffffffffffffffffffffffffffffffffffffff16815260200190815260200160002060008473ffffffffffffffffffffffffffffffffffffffff1673ffffffffffffffffffffffffffffffffffffffff16815260200190815260200160002060006101000a81548160ff0219169083151502179055508173ffffffffffffffffffffffffffffffffffffffff168373ffffffffffffffffffffffffffffffffffffffff167f17307eab39ab6107e8899845ad3d59bd9653f200f220920489ca2b5937696c318360405161285a9190613e9d565b60405180910390a3505050565b600073ffffffffffffffffffffffffffffffffffffffff168473ffffffffffffffffffffffffffffffffffffffff16036128d95760006040517f57f447ce0000000000000000000000000000000000000000000000000000000081526004016128d09190614a47565b60405180910390fd5b600073ffffffffffffffffffffffffffffffffffffffff168573ffffffffffffffffffffffffffffffffffffffff160361294b5760006040517f01a835140000000000000000000000000000000000000000000000000000000081526004016129429190614a47565b60405180910390fd5b6000806129588585612e52565b915091506129698787848487612be0565b50505050505050565b600073ffffffffffffffffffffffffffffffffffffffff168373ffffffffffffffffffffffffffffffffffffffff16036129e45760006040517f01a835140000000000000000000000000000000000000000000000000000000081526004016129db9190614a47565b60405180910390fd5b6000806129f18484612e52565b91509150612a12856000848460405180602001604052806000815250612be0565b5050505050565b60007fd9b67a26000000000000000000000000000000000000000000000000000000007bffffffffffffffffffffffffffffffffffffffffffffffffffffffff1916827bffffffffffffffffffffffffffffffffffffffffffffffffffffffff19161480612ae457507f0e89341c000000000000000000000000000000000000000000000000000000007bffffffffffffffffffffffffffffffffffffffffffffffffffffffff1916827bffffffffffffffffffffffffffffffffffffffffffffffffffffffff1916145b80612af45750612af382612f03565b5b9050919050565b612b058282611c1e565b612b485780826040517fe2517d3f000000000000000000000000000000000000000000000000000000008152600401612b3f929190615763565b60405180910390fd5b5050565b606060028054612b5b906153dc565b80601f0160208091040260200160405190810160405280929190818152602001828054612b87906153dc565b8015612bd45780601f10612ba957610100808354040283529160200191612bd4565b820191906000526020600020905b815481529060010190602001808311612bb757829003601f168201915b50505050509050919050565b612bec85858585612f6d565b600073ffffffffffffffffffffffffffffffffffffffff168473ffffffffffffffffffffffffffffffffffffffff1614612c8b576000612c2a6121e0565b90506001845103612c7a576000612c4b60008661331c90919063ffffffff16565b90506000612c6360008661331c90919063ffffffff16565b9050612c73838989858589613330565b5050612c89565b612c888187878787876134e4565b5b505b5050505050565b60008060006041845103612cd75760008060006020870151925060408701519150606087015160001a9050612cc988828585613698565b955095509550505050612ce7565b60006002855160001b9250925092505b9250925092565b60006003811115612d0257612d0161578c565b5b826003811115612d1557612d1461578c565b5b0315612e4e5760016003811115612d2f57612d2e61578c565b5b826003811115612d4257612d4161578c565b5b03612d79576040517ff645eedf00000000000000000000000000000000000000000000000000000000815260040160405180910390fd5b60026003811115612d8d57612d8c61578c565b5b826003811115612da057612d9f61578c565b5b03612de5578060001c6040517ffce698f7000000000000000000000000000000000000000000000000000000008152600401612ddc9190613de2565b60405180910390fd5b600380811115612df857612df761578c565b5b826003811115612e0b57612e0a61578c565b5b03612e4d57806040517fd78bce0c000000000000000000000000000000000000000000000000000000008152600401612e449190614600565b60405180910390fd5b5b5050565b60608060405191506001825283602083015260408201905060018152826020820152604081016040529250929050565b612e8a611651565b612ec0576040517f8dfc202b00000000000000000000000000000000000000000000000000000000815260040160405180910390fd5b565b612eca611651565b15612f01576040517fd93c066500000000000000000000000000000000000000000000000000000000815260040160405180910390fd5b565b60007f01ffc9a7000000000000000000000000000000000000000000000000000000007bffffffffffffffffffffffffffffffffffffffffffffffffffffffff1916827bffffffffffffffffffffffffffffffffffffffffffffffffffffffff1916149050919050565b600073ffffffffffffffffffffffffffffffffffffffff168473ffffffffffffffffffffffffffffffffffffffff1614158015612fd75750600073ffffffffffffffffffffffffffffffffffffffff168373ffffffffffffffffffffffffffffffffffffffff1614155b1561304d5761300d7f9f2df0fed2c77648de5860a4cc508cd0818c85b8b8a1ab4ceeef8d981c8956a66130086121e0565b611c1e565b61304c576040517f08c379a00000000000000000000000000000000000000000000000000000000081526004016130439061582d565b60405180910390fd5b5b600073ffffffffffffffffffffffffffffffffffffffff168473ffffffffffffffffffffffffffffffffffffffff16146131bc5760005b82518110156131ba5760008282815181106130a2576130a1614d45565b5b602002602001015111156131a7576000600960008773ffffffffffffffffffffffffffffffffffffffff1673ffffffffffffffffffffffffffffffffffffffff168152602001908152602001600020600085848151811061310657613105614d45565b5b60200260200101518152602001908152602001600020549050600081141580156131305750428111155b156131a557600073ffffffffffffffffffffffffffffffffffffffff168573ffffffffffffffffffffffffffffffffffffffff16146131a4576040517f08c379a000000000000000000000000000000000000000000000000000000000815260040161319b906158bf565b60405180910390fd5b5b505b80806131b290614da3565b915050613084565b505b6131c88484848461378c565b600073ffffffffffffffffffffffffffffffffffffffff168373ffffffffffffffffffffffffffffffffffffffff16141580156132325750600073ffffffffffffffffffffffffffffffffffffffff168473ffffffffffffffffffffffffffffffffffffffff1614155b156133165760005b825181101561331457600082828151811061325857613257614d45565b5b6020026020010151111561330157600061328c8685848151811061327f5761327e614d45565b5b6020026020010151611f15565b0361330057600960008673ffffffffffffffffffffffffffffffffffffffff1673ffffffffffffffffffffffffffffffffffffffff16815260200190815260200160002060008483815181106132e5576132e4614d45565b5b60200260200101518152602001908152602001600020600090555b5b808061330c90614da3565b91505061323a565b505b50505050565b600060208202602084010151905092915050565b60008473ffffffffffffffffffffffffffffffffffffffff163b11156134dc578373ffffffffffffffffffffffffffffffffffffffff1663f23a6e6187878686866040518663ffffffff1660e01b8152600401613391959493929190615934565b6020604051808303816000875af19250505080156133cd57506040513d601f19601f820116820180604052508101906133ca91906159a3565b60015b613451573d80600081146133fd576040519150601f19603f3d011682016040523d82523d6000602084013e613402565b606091505b50600081510361344957846040517f57f447ce0000000000000000000000000000000000000000000000000000000081526004016134409190614a47565b60405180910390fd5b805181602001fd5b63f23a6e6160e01b7bffffffffffffffffffffffffffffffffffffffffffffffffffffffff1916817bffffffffffffffffffffffffffffffffffffffffffffffffffffffff1916146134da57846040517f57f447ce0000000000000000000000000000000000000000000000000000000081526004016134d19190614a47565b60405180910390fd5b505b505050505050565b60008473ffffffffffffffffffffffffffffffffffffffff163b1115613690578373ffffffffffffffffffffffffffffffffffffffff1663bc197c8187878686866040518663ffffffff1660e01b81526004016135459594939291906159d0565b6020604051808303816000875af192505050801561358157506040513d601f19601f8201168201806040525081019061357e91906159a3565b60015b613605573d80600081146135b1576040519150601f19603f3d011682016040523d82523d6000602084013e6135b6565b606091505b5060008151036135fd57846040517f57f447ce0000000000000000000000000000000000000000000000000000000081526004016135f49190614a47565b60405180910390fd5b805181602001fd5b63bc197c8160e01b7bffffffffffffffffffffffffffffffffffffffffffffffffffffffff1916817bffffffffffffffffffffffffffffffffffffffffffffffffffffffff19161461368e57846040517f57f447ce0000000000000000000000000000000000000000000000000000000081526004016136859190614a47565b60405180910390fd5b505b505050505050565b60008060007f7fffffffffffffffffffffffffffffff5d576e7357a4501ddfe92f46681b20a08460001c11156136d8576000600385925092509250613782565b6000600188888888604051600081526020016040526040516136fd9493929190615a54565b6020604051602081039080840390855afa15801561371f573d6000803e3d6000fd5b505050602060405103519050600073ffffffffffffffffffffffffffffffffffffffff168173ffffffffffffffffffffffffffffffffffffffff160361377357600060016000801b93509350935050613782565b8060008060001b935093509350505b9450945094915050565b61379884848484613923565b600073ffffffffffffffffffffffffffffffffffffffff168473ffffffffffffffffffffffffffffffffffffffff1603613868576000805b835181101561384c5760006137ee828561331c90919063ffffffff16565b90508060056000613808858961331c90919063ffffffff16565b815260200190815260200160002060008282546138259190615a99565b9250508190555080836138389190615a99565b9250508061384590614da3565b90506137d0565b50806006600082825461385f9190615a99565b92505081905550505b600073ffffffffffffffffffffffffffffffffffffffff168373ffffffffffffffffffffffffffffffffffffffff160361391d576000805b835181101561390a5760006138be828561331c90919063ffffffff16565b905080600560006138d8858961331c90919063ffffffff16565b8152602001908152602001600020600082825403925050819055508083019250508061390390614da3565b90506138a0565b5080600660008282540392505081905550505b50505050565b61392b612ec2565b6139378484848461393d565b50505050565b805182511461398757815181516040517f5b05999100000000000000000000000000000000000000000000000000000000815260040161397e929190615acd565b60405180910390fd5b60006139916121e0565b905060005b8351811015613ba65760006139b4828661331c90919063ffffffff16565b905060006139cb838661331c90919063ffffffff16565b9050600073ffffffffffffffffffffffffffffffffffffffff168873ffffffffffffffffffffffffffffffffffffffff1614613af857600080600084815260200190815260200160002060008a73ffffffffffffffffffffffffffffffffffffffff1673ffffffffffffffffffffffffffffffffffffffff16815260200190815260200160002054905081811015613aa057888183856040517f03dee4c5000000000000000000000000000000000000000000000000000000008152600401613a979493929190615af6565b60405180910390fd5b81810360008085815260200190815260200160002060008b73ffffffffffffffffffffffffffffffffffffffff1673ffffffffffffffffffffffffffffffffffffffff16815260200190815260200160002081905550505b600073ffffffffffffffffffffffffffffffffffffffff168773ffffffffffffffffffffffffffffffffffffffff1614613b93578060008084815260200190815260200160002060008973ffffffffffffffffffffffffffffffffffffffff1673ffffffffffffffffffffffffffffffffffffffff1681526020019081526020016000206000828254613b8b9190615a99565b925050819055505b505080613b9f90614da3565b9050613996565b506001835103613c65576000613bc660008561331c90919063ffffffff16565b90506000613bde60008561331c90919063ffffffff16565b90508573ffffffffffffffffffffffffffffffffffffffff168773ffffffffffffffffffffffffffffffffffffffff168473ffffffffffffffffffffffffffffffffffffffff167fc3d58168c5ae7397731d063d5bbf3d657854427343f4c083240f7aacaa2d0f628585604051613c56929190615acd565b60405180910390a45050613ce4565b8373ffffffffffffffffffffffffffffffffffffffff168573ffffffffffffffffffffffffffffffffffffffff168273ffffffffffffffffffffffffffffffffffffffff167f4a39dc06d4c0dbc64b70af90fd698a233a518aa5d07e595d983b8c0526c8f7fb8686604051613cdb929190615b3b565b60405180910390a45b5050505050565b6000604051905090565b600080fd5b600080fd5b600073ffffffffffffffffffffffffffffffffffffffff82169050919050565b6000613d2a82613cff565b9050919050565b613d3a81613d1f565b8114613d4557600080fd5b50565b600081359050613d5781613d31565b92915050565b6000819050919050565b613d7081613d5d565b8114613d7b57600080fd5b50565b600081359050613d8d81613d67565b92915050565b60008060408385031215613daa57613da9613cf5565b5b6000613db885828601613d48565b9250506020613dc985828601613d7e565b9150509250929050565b613ddc81613d5d565b82525050565b6000602082019050613df76000830184613dd3565b92915050565b60007fffffffff0000000000000000000000000000000000000000000000000000000082169050919050565b613e3281613dfd565b8114613e3d57600080fd5b50565b600081359050613e4f81613e29565b92915050565b600060208284031215613e6b57613e6a613cf5565b5b6000613e7984828501613e40565b91505092915050565b60008115159050919050565b613e9781613e82565b82525050565b6000602082019050613eb26000830184613e8e565b92915050565b600080fd5b600080fd5b6000601f19601f8301169050919050565b7f4e487b7100000000000000000000000000000000000000000000000000000000600052604160045260246000fd5b613f0b82613ec2565b810181811067ffffffffffffffff82111715613f2a57613f29613ed3565b5b80604052505050565b6000613f3d613ceb565b9050613f498282613f02565b919050565b600067ffffffffffffffff821115613f6957613f68613ed3565b5b613f7282613ec2565b9050602081019050919050565b82818337600083830152505050565b6000613fa1613f9c84613f4e565b613f33565b905082815260208101848484011115613fbd57613fbc613ebd565b5b613fc8848285613f7f565b509392505050565b600082601f830112613fe557613fe4613eb8565b5b8135613ff5848260208601613f8e565b91505092915050565b60006020828403121561401457614013613cf5565b5b600082013567ffffffffffffffff81111561403257614031613cfa565b5b61403e84828501613fd0565b91505092915050565b600067ffffffffffffffff82111561406257614061613ed3565b5b602082029050602081019050919050565b600080fd5b600061408b61408684614047565b613f33565b905080838252602082019050602084028301858111156140ae576140ad614073565b5b835b818110156140d757806140c38882613d7e565b8452602084019350506020810190506140b0565b5050509392505050565b600082601f8301126140f6576140f5613eb8565b5b8135614106848260208601614078565b91505092915050565b600067ffffffffffffffff82111561412a57614129613ed3565b5b61413382613ec2565b9050602081019050919050565b600061415361414e8461410f565b613f33565b90508281526020810184848401111561416f5761416e613ebd565b5b61417a848285613f7f565b509392505050565b600082601f83011261419757614196613eb8565b5b81356141a7848260208601614140565b91505092915050565b60008060008060008060c087890312156141cd576141cc613cf5565b5b60006141db89828a01613d48565b96505060206141ec89828a01613d48565b955050604087013567ffffffffffffffff81111561420d5761420c613cfa565b5b61421989828a016140e1565b945050606087013567ffffffffffffffff81111561423a57614239613cfa565b5b61424689828a016140e1565b935050608087013567ffffffffffffffff81111561426757614266613cfa565b5b61427389828a016140e1565b92505060a087013567ffffffffffffffff81111561429457614293613cfa565b5b6142a089828a01614182565b9150509295509295509295565b6000602082840312156142c3576142c2613cf5565b5b60006142d184828501613d7e565b91505092915050565b600081519050919050565b600082825260208201905092915050565b60005b838110156143145780820151818401526020810190506142f9565b60008484015250505050565b600061432b826142da565b61433581856142e5565b93506143458185602086016142f6565b61434e81613ec2565b840191505092915050565b600060208201905081810360008301526143738184614320565b905092915050565b6000806040838503121561439257614391613cf5565b5b60006143a085828601613d7e565b925050602083013567ffffffffffffffff8111156143c1576143c0613cfa565b5b6143cd85828601613fd0565b9150509250929050565b60008060008060008060c087890312156143f4576143f3613cf5565b5b600061440289828a01613d48565b965050602061441389828a01613d48565b955050604061442489828a01613d7e565b945050606061443589828a01613d7e565b935050608061444689828a01613d7e565b92505060a087013567ffffffffffffffff81111561446757614466613cfa565b5b61447389828a01614182565b9150509295509295509295565b60008060006060848603121561449957614498613cf5565b5b60006144a786828701613d48565b93505060206144b886828701613d7e565b92505060406144c986828701613d7e565b9150509250925092565b600080600080608085870312156144ed576144ec613cf5565b5b60006144fb87828801613d48565b945050602085013567ffffffffffffffff81111561451c5761451b613cfa565b5b614528878288016140e1565b935050604085013567ffffffffffffffff81111561454957614548613cfa565b5b614555878288016140e1565b925050606085013567ffffffffffffffff81111561457657614575613cfa565b5b61458287828801614182565b91505092959194509250565b6000819050919050565b6145a18161458e565b81146145ac57600080fd5b50565b6000813590506145be81614598565b92915050565b6000602082840312156145da576145d9613cf5565b5b60006145e8848285016145af565b91505092915050565b6145fa8161458e565b82525050565b600060208201905061461560008301846145f1565b92915050565b6000806040838503121561463257614631613cf5565b5b600061464085828601613d7e565b925050602061465185828601613d48565b9150509250929050565b600080600080600060a0868803121561467757614676613cf5565b5b600061468588828901613d48565b955050602061469688828901613d48565b945050604086013567ffffffffffffffff8111156146b7576146b6613cfa565b5b6146c3888289016140e1565b935050606086013567ffffffffffffffff8111156146e4576146e3613cfa565b5b6146f0888289016140e1565b925050608086013567ffffffffffffffff81111561471157614710613cfa565b5b61471d88828901614182565b9150509295509295909350565b6000806040838503121561474157614740613cf5565b5b600061474f858286016145af565b925050602061476085828601613d48565b9150509250929050565b600080600080600060a0868803121561478657614785613cf5565b5b600061479488828901613d48565b95505060206147a588828901613d7e565b94505060406147b688828901613d7e565b935050606086013567ffffffffffffffff8111156147d7576147d6613cfa565b5b6147e388828901614182565b925050608086013567ffffffffffffffff81111561480457614803613cfa565b5b61481088828901614182565b9150509295509295909350565b600067ffffffffffffffff82111561483857614837613ed3565b5b602082029050602081019050919050565b600061485c6148578461481d565b613f33565b9050808382526020820190506020840283018581111561487f5761487e614073565b5b835b818110156148a857806148948882613d48565b845260208401935050602081019050614881565b5050509392505050565b600082601f8301126148c7576148c6613eb8565b5b81356148d7848260208601614849565b91505092915050565b600080604083850312156148f7576148f6613cf5565b5b600083013567ffffffffffffffff81111561491557614914613cfa565b5b614921858286016148b2565b925050602083013567ffffffffffffffff81111561494257614941613cfa565b5b61494e858286016140e1565b9150509250929050565b600081519050919050565b600082825260208201905092915050565b6000819050602082019050919050565b61498d81613d5d565b82525050565b600061499f8383614984565b60208301905092915050565b6000602082019050919050565b60006149c382614958565b6149cd8185614963565b93506149d883614974565b8060005b83811015614a095781516149f08882614993565b97506149fb836149ab565b9250506001810190506149dc565b5085935050505092915050565b60006020820190508181036000830152614a3081846149b8565b905092915050565b614a4181613d1f565b82525050565b6000602082019050614a5c6000830184614a38565b92915050565b600080600060608486031215614a7b57614a7a613cf5565b5b6000614a8986828701613d48565b935050602084013567ffffffffffffffff811115614aaa57614aa9613cfa565b5b614ab6868287016140e1565b925050604084013567ffffffffffffffff811115614ad757614ad6613cfa565b5b614ae3868287016140e1565b9150509250925092565b60008060008060808587031215614b0757614b06613cf5565b5b6000614b1587828801613d48565b9450506020614b2687828801613d7e565b9350506040614b3787828801613d7e565b925050606085013567ffffffffffffffff811115614b5857614b57613cfa565b5b614b6487828801614182565b91505092959194509250565b614b7981613e82565b8114614b8457600080fd5b50565b600081359050614b9681614b70565b92915050565b60008060408385031215614bb357614bb2613cf5565b5b6000614bc185828601613d48565b9250506020614bd285828601614b87565b9150509250929050565b60008060408385031215614bf357614bf2613cf5565b5b6000614c0185828601613d48565b9250506020614c1285828601613d48565b9150509250929050565b600080600080600060a08688031215614c3857614c37613cf5565b5b6000614c4688828901613d48565b9550506020614c5788828901613d48565b9450506040614c6888828901613d7e565b9350506060614c7988828901613d7e565b925050608086013567ffffffffffffffff811115614c9a57614c99613cfa565b5b614ca688828901614182565b9150509295509295909350565b7f4950446f635631323a2069647320616e642065787069726174696f6e54696d6560008201527f73206c656e677468206d69736d61746368000000000000000000000000000000602082015250565b6000614d0f6031836142e5565b9150614d1a82614cb3565b604082019050919050565b60006020820190508181036000830152614d3e81614d02565b9050919050565b7f4e487b7100000000000000000000000000000000000000000000000000000000600052603260045260246000fd5b7f4e487b7100000000000000000000000000000000000000000000000000000000600052601160045260246000fd5b6000614dae82613d5d565b91507fffffffffffffffffffffffffffffffffffffffffffffffffffffffffffffffff8203614de057614ddf614d74565b5b600182019050919050565b7f4950446f635631323a204163636f756e7420686173206e6f2062616c616e636560008201527f20746f2065787069726500000000000000000000000000000000000000000000602082015250565b6000614e47602a836142e5565b9150614e5282614deb565b604082019050919050565b60006020820190508181036000830152614e7681614e3a565b9050919050565b7f4950446f635631323a206f6e6c792063757272656e74206f776e65722063616e60008201527f207472616e73666572206f776e65727368697000000000000000000000000000602082015250565b6000614ed96033836142e5565b9150614ee482614e7d565b604082019050919050565b60006020820190508181036000830152614f0881614ecc565b9050919050565b7f4950446f635631323a2063616e6e6f74207472616e73666572206f776e65727360008201527f68697020746f20746865207a65726f2061646472657373000000000000000000602082015250565b6000614f6b6037836142e5565b9150614f7682614f0f565b604082019050919050565b60006020820190508181036000830152614f9a81614f5e565b9050919050565b6000604082019050614fb66000830185614a38565b614fc36020830184614a38565b9392505050565b7f4950446f635631323a20746f6b656e20646f6573206e6f74206578697374206f60008201527f7220686173206e6f206f776e6572000000000000000000000000000000000000602082015250565b6000615026602e836142e5565b915061503182614fca565b604082019050919050565b6000602082019050818103600083015261505581615019565b9050919050565b60008160601b9050919050565b60006150748261505c565b9050919050565b600061508682615069565b9050919050565b61509e61509982613d1f565b61507b565b82525050565b6000819050919050565b6150bf6150ba82613d5d565b6150a4565b82525050565b60006150d1828761508d565b6014820191506150e182866150ae565b6020820191506150f182856150ae565b602082019150615101828461508d565b60148201915081905095945050505050565b600081905092915050565b7f19457468657265756d205369676e6564204d6573736167653a0a333200000000600082015250565b6000615154601c83615113565b915061515f8261511e565b601c82019050919050565b6000819050919050565b6151856151808261458e565b61516a565b82525050565b600061519682615147565b91506151a28284615174565b60208201915081905092915050565b7f4950446f635631323a20696e76616c6964207369676e61747572650000000000600082015250565b60006151e7601b836142e5565b91506151f2826151b1565b602082019050919050565b60006020820190508181036000830152615216816151da565b9050919050565b7f4950446f635631323a206163636f756e747320616e6420696473206c656e677460008201527f68206d69736d6174636800000000000000000000000000000000000000000000602082015250565b6000615279602a836142e5565b91506152848261521d565b604082019050919050565b600060208201905081810360008301526152a88161526c565b9050919050565b7f4950446f635631323a20746f6b656e20646f6573206e6f74206578697374206f60008201527f72206f776e657273686970206e6f74206578706c696369746c79207365740000602082015250565b600061530b603e836142e5565b9150615316826152af565b604082019050919050565b6000602082019050818103600083015261533a816152fe565b9050919050565b7f4950446f635631323a20746f6b656e20646f6573206e6f742065786973740000600082015250565b6000615377601e836142e5565b915061538282615341565b602082019050919050565b600060208201905081810360008301526153a68161536a565b9050919050565b7f4e487b7100000000000000000000000000000000000000000000000000000000600052602260045260246000fd5b600060028204905060018216806153f457607f821691505b602082108103615407576154066153ad565b5b50919050565b60008190508160005260206000209050919050565b60006020601f8301049050919050565b600082821b905092915050565b60006008830261546f7fffffffffffffffffffffffffffffffffffffffffffffffffffffffffffffffff82615432565b6154798683615432565b95508019841693508086168417925050509392505050565b6000819050919050565b60006154b66154b16154ac84613d5d565b615491565b613d5d565b9050919050565b6000819050919050565b6154d08361549b565b6154e46154dc826154bd565b84845461543f565b825550505050565b600090565b6154f96154ec565b6155048184846154c7565b505050565b5b818110156155285761551d6000826154f1565b60018101905061550a565b5050565b601f82111561556d5761553e8161540d565b61554784615422565b81016020851015615556578190505b61556a61556285615422565b830182615509565b50505b505050565b600082821c905092915050565b600061559060001984600802615572565b1980831691505092915050565b60006155a9838361557f565b9150826002028217905092915050565b6155c2826142da565b67ffffffffffffffff8111156155db576155da613ed3565b5b6155e582546153dc565b6155f082828561552c565b600060209050601f8311600181146156235760008415615611578287015190505b61561b858261559d565b865550615683565b601f1984166156318661540d565b60005b8281101561565957848901518255600182019150602085019450602081019050615634565b868310156156765784890151615672601f89168261557f565b8355505b6001600288020188555050505b505050505050565b60008154615698816153dc565b6156a28186615113565b945060018216600081146156bd57600181146156d257615705565b60ff1983168652811515820286019350615705565b6156db8561540d565b60005b838110156156fd578154818901526001820191506020810190506156de565b838801955050505b50505092915050565b6000615719826142da565b6157238185615113565b93506157338185602086016142f6565b80840191505092915050565b600061574b828561568b565b9150615757828461570e565b91508190509392505050565b60006040820190506157786000830185614a38565b61578560208301846145f1565b9392505050565b7f4e487b7100000000000000000000000000000000000000000000000000000000600052602160045260246000fd5b7f4950446f635631323a206d7573742068617665206d696e74657220726f6c652060008201527f746f207472616e73666572000000000000000000000000000000000000000000602082015250565b6000615817602b836142e5565b9150615822826157bb565b604082019050919050565b600060208201905081810360008301526158468161580a565b9050919050565b7f4950446f635631323a2043616e6e6f74207472616e736665722065787069726560008201527f6420746f6b656e732065786365707420746f206275726e000000000000000000602082015250565b60006158a96037836142e5565b91506158b48261584d565b604082019050919050565b600060208201905081810360008301526158d88161589c565b9050919050565b600081519050919050565b600082825260208201905092915050565b6000615906826158df565b61591081856158ea565b93506159208185602086016142f6565b61592981613ec2565b840191505092915050565b600060a0820190506159496000830188614a38565b6159566020830187614a38565b6159636040830186613dd3565b6159706060830185613dd3565b818103608083015261598281846158fb565b90509695505050505050565b60008151905061599d81613e29565b92915050565b6000602082840312156159b9576159b8613cf5565b5b60006159c78482850161598e565b91505092915050565b600060a0820190506159e56000830188614a38565b6159f26020830187614a38565b8181036040830152615a0481866149b8565b90508181036060830152615a1881856149b8565b90508181036080830152615a2c81846158fb565b90509695505050505050565b600060ff82169050919050565b615a4e81615a38565b82525050565b6000608082019050615a6960008301876145f1565b615a766020830186615a45565b615a8360408301856145f1565b615a9060608301846145f1565b95945050505050565b6000615aa482613d5d565b9150615aaf83613d5d565b9250828201905080821115615ac757615ac6614d74565b5b92915050565b6000604082019050615ae26000830185613dd3565b615aef6020830184613dd3565b9392505050565b6000608082019050615b0b6000830187614a38565b615b186020830186613dd3565b615b256040830185613dd3565b615b326060830184613dd3565b95945050505050565b60006040820190508181036000830152615b5581856149b8565b90508181036020830152615b6981846149b8565b9050939250505056fea264697066735822122094830df52684c3ac51934fa6149665cdf111a8cf1be2fd0e49c5923400fce5e864736f6c63430008140033",
  "linkReferences": {},
  "deployedLinkReferences": {}
}