{
  "_format": "hh-sol-artifact-1",
  "contractName": "IPDocV11",
  "sourceName": "contracts/IPDocV11.sol",
  "abi": [
    {
      "inputs": [
        {
          "internalType": "address",
          "name": "defaultAdmin",
          "type": "address"
        },
        {
          "internalType": "address",
          "name": "pauser",
          "type": "address"
        },
        {
          "internalType": "address",
          "name": "minter",
          "type": "address"
        }
      ],
      "stateMutability": "nonpayable",
      "type": "constructor"
    },
    {
      "inputs": [],
      "name": "AccessControlBadConfirmation",
      "type": "error"
    },
    {
      "inputs": [
        {
          "internalType": "address",
          "name": "account",
          "type": "address"
        },
        {
          "internalType": "bytes32",
          "name": "neededRole",
          "type": "bytes32"
        }
      ],
      "name": "AccessControlUnauthorizedAccount",
      "type": "error"
    },
    {
      "inputs": [
        {
          "internalType": "address",
          "name": "sender",
          "type": "address"
        },
        {
          "internalType": "uint256",
          "name": "balance",
          "type": "uint256"
        },
        {
          "internalType": "uint256",
          "name": "needed",
          "type": "uint256"
        },
        {
          "internalType": "uint256",
          "name": "tokenId",
          "type": "uint256"
        }
      ],
      "name": "ERC1155InsufficientBalance",
      "type": "error"
    },
    {
      "inputs": [
        {
          "internalType": "address",
          "name": "approver",
          "type": "address"
        }
      ],
      "name": "ERC1155InvalidApprover",
      "type": "error"
    },
    {
      "inputs": [
        {
          "internalType": "uint256",
          "name": "idsLength",
          "type": "uint256"
        },
        {
          "internalType": "uint256",
          "name": "valuesLength",
          "type": "uint256"
        }
      ],
      "name": "ERC1155InvalidArrayLength",
      "type": "error"
    },
    {
      "inputs": [
        {
          "internalType": "address",
          "name": "operator",
          "type": "address"
        }
      ],
      "name": "ERC1155InvalidOperator",
      "type": "error"
    },
    {
      "inputs": [
        {
          "internalType": "address",
          "name": "receiver",
          "type": "address"
        }
      ],
      "name": "ERC1155InvalidReceiver",
      "type": "error"
    },
    {
      "inputs": [
        {
          "internalType": "address",
          "name": "sender",
          "type": "address"
        }
      ],
      "name": "ERC1155InvalidSender",
      "type": "error"
    },
    {
      "inputs": [
        {
          "internalType": "address",
          "name": "operator",
          "type": "address"
        },
        {
          "internalType": "address",
          "name": "owner",
          "type": "address"
        }
      ],
      "name": "ERC1155MissingApprovalForAll",
      "type": "error"
    },
    {
      "inputs": [],
      "name": "EnforcedPause",
      "type": "error"
    },
    {
      "inputs": [],
      "name": "ExpectedPause",
      "type": "error"
    },
    {
      "anonymous": false,
      "inputs": [
        {
          "indexed": true,
          "internalType": "address",
          "name": "account",
          "type": "address"
        },
        {
          "indexed": true,
          "internalType": "address",
          "name": "operator",
          "type": "address"
        },
        {
          "indexed": false,
          "internalType": "bool",
          "name": "approved",
          "type": "bool"
        }
      ],
      "name": "ApprovalForAll",
      "type": "event"
    },
    {
      "anonymous": false,
      "inputs": [
        {
          "indexed": true,
          "internalType": "address",
          "name": "account",
          "type": "address"
        },
        {
          "indexed": true,
          "internalType": "bytes32",
          "name": "tokenId",
          "type": "bytes32"
        },
        {
          "indexed": false,
          "internalType": "uint256",
          "name": "expirationTime",
          "type": "uint256"
        }
      ],
      "name": "ExpirationSet",
      "type": "event"
    },
    {
      "anonymous": false,
      "inputs": [
        {
          "indexed": false,
          "internalType": "address",
          "name": "account",
          "type": "address"
        }
      ],
      "name": "Paused",
      "type": "event"
    },
    {
      "anonymous": false,
      "inputs": [
        {
          "indexed": true,
          "internalType": "bytes32",
          "name": "role",
          "type": "bytes32"
        },
        {
          "indexed": true,
          "internalType": "bytes32",
          "name": "previousAdminRole",
          "type": "bytes32"
        },
        {
          "indexed": true,
          "internalType": "bytes32",
          "name": "newAdminRole",
          "type": "bytes32"
        }
      ],
      "name": "RoleAdminChanged",
      "type": "event"
    },
    {
      "anonymous": false,
      "inputs": [
        {
          "indexed": true,
          "internalType": "bytes32",
          "name": "role",
          "type": "bytes32"
        },
        {
          "indexed": true,
          "internalType": "address",
          "name": "account",
          "type": "address"
        },
        {
          "indexed": true,
          "internalType": "address",
          "name": "sender",
          "type": "address"
        }
      ],
      "name": "RoleGranted",
      "type": "event"
    },
    {
      "anonymous": false,
      "inputs": [
        {
          "indexed": true,
          "internalType": "bytes32",
          "name": "role",
          "type": "bytes32"
        },
        {
          "indexed": true,
          "internalType": "address",
          "name": "account",
          "type": "address"
        },
        {
          "indexed": true,
          "internalType": "address",
          "name": "sender",
          "type": "address"
        }
      ],
      "name": "RoleRevoked",
      "type": "event"
    },
    {
      "anonymous": false,
      "inputs": [
        {
          "indexed": true,
          "internalType": "address",
          "name": "operator",
          "type": "address"
        },
        {
          "indexed": true,
          "internalType": "address",
          "name": "from",
          "type": "address"
        },
        {
          "indexed": true,
          "internalType": "address",
          "name": "to",
          "type": "address"
        },
        {
          "indexed": false,
          "internalType": "uint256[]",
          "name": "ids",
          "type": "uint256[]"
        },
        {
          "indexed": false,
          "internalType": "uint256[]",
          "name": "values",
          "type": "uint256[]"
        }
      ],
      "name": "TransferBatch",
      "type": "event"
    },
    {
      "anonymous": false,
      "inputs": [
        {
          "indexed": true,
          "internalType": "address",
          "name": "operator",
          "type": "address"
        },
        {
          "indexed": true,
          "internalType": "address",
          "name": "from",
          "type": "address"
        },
        {
          "indexed": true,
          "internalType": "address",
          "name": "to",
          "type": "address"
        },
        {
          "indexed": false,
          "internalType": "uint256",
          "name": "id",
          "type": "uint256"
        },
        {
          "indexed": false,
          "internalType": "uint256",
          "name": "value",
          "type": "uint256"
        }
      ],
      "name": "TransferSingle",
      "type": "event"
    },
    {
      "anonymous": false,
      "inputs": [
        {
          "indexed": false,
          "internalType": "string",
          "name": "value",
          "type": "string"
        },
        {
          "indexed": true,
          "internalType": "uint256",
          "name": "id",
          "type": "uint256"
        }
      ],
      "name": "URI",
      "type": "event"
    },
    {
      "anonymous": false,
      "inputs": [
        {
          "indexed": false,
          "internalType": "address",
          "name": "account",
          "type": "address"
        }
      ],
      "name": "Unpaused",
      "type": "event"
    },
    {
      "inputs": [],
      "name": "DEFAULT_ADMIN_ROLE",
      "outputs": [
        {
          "internalType": "bytes32",
          "name": "",
          "type": "bytes32"
        }
      ],
      "stateMutability": "view",
      "type": "function"
    },
    {
      "inputs": [],
      "name": "EXPIRATION_MANAGER_ROLE",
      "outputs": [
        {
          "internalType": "bytes32",
          "name": "",
          "type": "bytes32"
        }
      ],
      "stateMutability": "view",
      "type": "function"
    },
    {
      "inputs": [],
      "name": "MINTER_ROLE",
      "outputs": [
        {
          "internalType": "bytes32",
          "name": "",
          "type": "bytes32"
        }
      ],
      "stateMutability": "view",
      "type": "function"
    },
    {
      "inputs": [],
      "name": "PAUSER_ROLE",
      "outputs": [
        {
          "internalType": "bytes32",
          "name": "",
          "type": "bytes32"
        }
      ],
      "stateMutability": "view",
      "type": "function"
    },
    {
      "inputs": [],
      "name": "URI_SETTER_ROLE",
      "outputs": [
        {
          "internalType": "bytes32",
          "name": "",
          "type": "bytes32"
        }
      ],
      "stateMutability": "view",
      "type": "function"
    },
    {
      "inputs": [
        {
          "internalType": "address",
          "name": "account",
          "type": "address"
        },
        {
          "internalType": "uint256",
          "name": "id",
          "type": "uint256"
        }
      ],
      "name": "balanceOf",
      "outputs": [
        {
          "internalType": "uint256",
          "name": "",
          "type": "uint256"
        }
      ],
      "stateMutability": "view",
      "type": "function"
    },
    {
      "inputs": [
        {
          "internalType": "address[]",
          "name": "accounts",
          "type": "address[]"
        },
        {
          "internalType": "uint256[]",
          "name": "ids",
          "type": "uint256[]"
        }
      ],
      "name": "balanceOfBatch",
      "outputs": [
        {
          "internalType": "uint256[]",
          "name": "",
          "type": "uint256[]"
        }
      ],
      "stateMutability": "view",
      "type": "function"
    },
    {
      "inputs": [
        {
          "internalType": "address",
          "name": "account",
          "type": "address"
        },
        {
          "internalType": "uint256",
          "name": "id",
          "type": "uint256"
        },
        {
          "internalType": "uint256",
          "name": "value",
          "type": "uint256"
        }
      ],
      "name": "burn",
      "outputs": [],
      "stateMutability": "nonpayable",
      "type": "function"
    },
    {
      "inputs": [
        {
          "internalType": "address",
          "name": "account",
          "type": "address"
        },
        {
          "internalType": "uint256[]",
          "name": "ids",
          "type": "uint256[]"
        },
        {
          "internalType": "uint256[]",
          "name": "values",
          "type": "uint256[]"
        }
      ],
      "name": "burnBatch",
      "outputs": [],
      "stateMutability": "nonpayable",
      "type": "function"
    },
    {
      "inputs": [
        {
          "internalType": "uint256",
          "name": "id",
          "type": "uint256"
        }
      ],
      "name": "exists",
      "outputs": [
        {
          "internalType": "bool",
          "name": "",
          "type": "bool"
        }
      ],
      "stateMutability": "view",
      "type": "function"
    },
    {
      "inputs": [
        {
          "internalType": "address",
          "name": "account",
          "type": "address"
        },
        {
          "internalType": "bytes32",
          "name": "id",
          "type": "bytes32"
        }
      ],
      "name": "getExpiration",
      "outputs": [
        {
          "internalType": "uint256",
          "name": "",
          "type": "uint256"
        }
      ],
      "stateMutability": "view",
      "type": "function"
    },
    {
      "inputs": [
        {
          "internalType": "bytes32",
          "name": "role",
          "type": "bytes32"
        }
      ],
      "name": "getRoleAdmin",
      "outputs": [
        {
          "internalType": "bytes32",
          "name": "",
          "type": "bytes32"
        }
      ],
      "stateMutability": "view",
      "type": "function"
    },
    {
      "inputs": [
        {
          "internalType": "bytes32",
          "name": "role",
          "type": "bytes32"
        },
        {
          "internalType": "address",
          "name": "account",
          "type": "address"
        }
      ],
      "name": "grantRole",
      "outputs": [],
      "stateMutability": "nonpayable",
      "type": "function"
    },
    {
      "inputs": [
        {
          "internalType": "bytes32",
          "name": "role",
          "type": "bytes32"
        },
        {
          "internalType": "address",
          "name": "account",
          "type": "address"
        }
      ],
      "name": "hasRole",
      "outputs": [
        {
          "internalType": "bool",
          "name": "",
          "type": "bool"
        }
      ],
      "stateMutability": "view",
      "type": "function"
    },
    {
      "inputs": [
        {
          "internalType": "address",
          "name": "account",
          "type": "address"
        },
        {
          "internalType": "address",
          "name": "operator",
          "type": "address"
        }
      ],
      "name": "isApprovedForAll",
      "outputs": [
        {
          "internalType": "bool",
          "name": "",
          "type": "bool"
        }
      ],
      "stateMutability": "view",
      "type": "function"
    },
    {
      "inputs": [
        {
          "internalType": "address",
          "name": "account",
          "type": "address"
        },
        {
          "internalType": "bytes32",
          "name": "id",
          "type": "bytes32"
        }
      ],
      "name": "isExpired",
      "outputs": [
        {
          "internalType": "bool",
          "name": "",
          "type": "bool"
        }
      ],
      "stateMutability": "view",
      "type": "function"
    },
    {
      "inputs": [
        {
          "internalType": "address",
          "name": "account",
          "type": "address"
        },
        {
          "internalType": "bytes32",
          "name": "id",
          "type": "bytes32"
        },
        {
          "internalType": "uint256",
          "name": "amount",
          "type": "uint256"
        },
        {
          "internalType": "bytes",
          "name": "data",
          "type": "bytes"
        }
      ],
      "name": "mint",
      "outputs": [],
      "stateMutability": "nonpayable",
      "type": "function"
    },
    {
      "inputs": [
        {
          "internalType": "address",
          "name": "to",
          "type": "address"
        },
        {
          "internalType": "bytes32[]",
          "name": "ids",
          "type": "bytes32[]"
        },
        {
          "internalType": "uint256[]",
          "name": "amounts",
          "type": "uint256[]"
        },
        {
          "internalType": "bytes",
          "name": "data",
          "type": "bytes"
        }
      ],
      "name": "mintBatch",
      "outputs": [],
      "stateMutability": "nonpayable",
      "type": "function"
    },
    {
      "inputs": [],
      "name": "pause",
      "outputs": [],
      "stateMutability": "nonpayable",
      "type": "function"
    },
    {
      "inputs": [],
      "name": "paused",
      "outputs": [
        {
          "internalType": "bool",
          "name": "",
          "type": "bool"
        }
      ],
      "stateMutability": "view",
      "type": "function"
    },
    {
      "inputs": [
        {
          "internalType": "bytes32",
          "name": "role",
          "type": "bytes32"
        },
        {
          "internalType": "address",
          "name": "callerConfirmation",
          "type": "address"
        }
      ],
      "name": "renounceRole",
      "outputs": [],
      "stateMutability": "nonpayable",
      "type": "function"
    },
    {
      "inputs": [
        {
          "internalType": "bytes32",
          "name": "role",
          "type": "bytes32"
        },
        {
          "internalType": "address",
          "name": "account",
          "type": "address"
        }
      ],
      "name": "revokeRole",
      "outputs": [],
      "stateMutability": "nonpayable",
      "type": "function"
    },
    {
      "inputs": [
        {
          "internalType": "address",
          "name": "from",
          "type": "address"
        },
        {
          "internalType": "address",
          "name": "to",
          "type": "address"
        },
        {
          "internalType": "uint256[]",
          "name": "ids",
          "type": "uint256[]"
        },
        {
          "internalType": "uint256[]",
          "name": "values",
          "type": "uint256[]"
        },
        {
          "internalType": "bytes",
          "name": "data",
          "type": "bytes"
        }
      ],
      "name": "safeBatchTransferFrom",
      "outputs": [],
      "stateMutability": "nonpayable",
      "type": "function"
    },
    {
      "inputs": [
        {
          "internalType": "address",
          "name": "from",
          "type": "address"
        },
        {
          "internalType": "address",
          "name": "to",
          "type": "address"
        },
        {
          "internalType": "bytes32[]",
          "name": "ids",
          "type": "bytes32[]"
        },
        {
          "internalType": "uint256[]",
          "name": "amounts",
          "type": "uint256[]"
        },
        {
          "internalType": "uint256[]",
          "name": "expirationTimes",
          "type": "uint256[]"
        },
        {
          "internalType": "bytes",
          "name": "data",
          "type": "bytes"
        }
      ],
      "name": "safeBatchTransferFromWithExpiration",
      "outputs": [],
      "stateMutability": "nonpayable",
      "type": "function"
    },
    {
      "inputs": [
        {
          "internalType": "address",
          "name": "from",
          "type": "address"
        },
        {
          "internalType": "address",
          "name": "to",
          "type": "address"
        },
        {
          "internalType": "uint256",
          "name": "id",
          "type": "uint256"
        },
        {
          "internalType": "uint256",
          "name": "value",
          "type": "uint256"
        },
        {
          "internalType": "bytes",
          "name": "data",
          "type": "bytes"
        }
      ],
      "name": "safeTransferFrom",
      "outputs": [],
      "stateMutability": "nonpayable",
      "type": "function"
    },
    {
      "inputs": [
        {
          "internalType": "address",
          "name": "from",
          "type": "address"
        },
        {
          "internalType": "address",
          "name": "to",
          "type": "address"
        },
        {
          "internalType": "bytes32",
          "name": "id",
          "type": "bytes32"
        },
        {
          "internalType": "uint256",
          "name": "amount",
          "type": "uint256"
        },
        {
          "internalType": "uint256",
          "name": "expirationTime",
          "type": "uint256"
        },
        {
          "internalType": "bytes",
          "name": "data",
          "type": "bytes"
        }
      ],
      "name": "safeTransferFromWithExpiration",
      "outputs": [],
      "stateMutability": "nonpayable",
      "type": "function"
    },
    {
      "inputs": [
        {
          "internalType": "address",
          "name": "operator",
          "type": "address"
        },
        {
          "internalType": "bool",
          "name": "approved",
          "type": "bool"
        }
      ],
      "name": "setApprovalForAll",
      "outputs": [],
      "stateMutability": "nonpayable",
      "type": "function"
    },
    {
      "inputs": [
        {
          "internalType": "string",
          "name": "baseURI",
          "type": "string"
        }
      ],
      "name": "setBaseURI",
      "outputs": [],
      "stateMutability": "nonpayable",
      "type": "function"
    },
    {
      "inputs": [
        {
          "internalType": "address",
          "name": "account",
          "type": "address"
        },
        {
          "internalType": "bytes32[]",
          "name": "ids",
          "type": "bytes32[]"
        },
        {
          "internalType": "uint256[]",
          "name": "expirationTimes",
          "type": "uint256[]"
        }
      ],
      "name": "setBatchExpiration",
      "outputs": [],
      "stateMutability": "nonpayable",
      "type": "function"
    },
    {
      "inputs": [
        {
          "internalType": "address",
          "name": "account",
          "type": "address"
        },
        {
          "internalType": "bytes32",
          "name": "id",
          "type": "bytes32"
        },
        {
          "internalType": "uint256",
          "name": "expirationTime",
          "type": "uint256"
        }
      ],
      "name": "setExpiration",
      "outputs": [],
      "stateMutability": "nonpayable",
      "type": "function"
    },
    {
      "inputs": [
        {
          "internalType": "uint256",
          "name": "tokenId",
          "type": "uint256"
        },
        {
          "internalType": "string",
          "name": "tokenURI",
          "type": "string"
        }
      ],
      "name": "setTokenURI",
      "outputs": [],
      "stateMutability": "nonpayable",
      "type": "function"
    },
    {
      "inputs": [
        {
          "internalType": "string",
          "name": "newuri",
          "type": "string"
        }
      ],
      "name": "setURI",
      "outputs": [],
      "stateMutability": "nonpayable",
      "type": "function"
    },
    {
      "inputs": [
        {
          "internalType": "bytes4",
          "name": "interfaceId",
          "type": "bytes4"
        }
      ],
      "name": "supportsInterface",
      "outputs": [
        {
          "internalType": "bool",
          "name": "",
          "type": "bool"
        }
      ],
      "stateMutability": "view",
      "type": "function"
    },
    {
      "inputs": [],
      "name": "totalSupply",
      "outputs": [
        {
          "internalType": "uint256",
          "name": "",
          "type": "uint256"
        }
      ],
      "stateMutability": "view",
      "type": "function"
    },
    {
      "inputs": [
        {
          "internalType": "uint256",
          "name": "id",
          "type": "uint256"
        }
      ],
      "name": "totalSupply",
      "outputs": [
        {
          "internalType": "uint256",
          "name": "",
          "type": "uint256"
        }
      ],
      "stateMutability": "view",
      "type": "function"
    },
    {
      "inputs": [],
      "name": "unpause",
      "outputs": [],
      "stateMutability": "nonpayable",
      "type": "function"
    },
    {
      "inputs": [
        {
          "internalType": "uint256",
          "name": "tokenId",
          "type": "uint256"
        }
      ],
      "name": "uri",
      "outputs": [
        {
          "internalType": "string",
          "name": "",
          "type": "string"
        }
      ],
      "stateMutability": "view",
      "type": "function"
    }
  ],
  "bytecode": "0x60806040526040518060200160405280600081525060079081620000249190620005ac565b503480156200003257600080fd5b5060405162005566380380620055668339818101604052810190620000589190620006fd565b6040518060400160405280601d81526020017f68747470733a2f2f73616665696465612e6e65742f646f632f7b69647d0000008152506200009f81620001a660201b60201c565b506000600460006101000a81548160ff021916908315150217905550620000d06000801b84620001bb60201b60201c565b50620001037f7804d923f43a17d325d77e781528e0793b2edd9890ab45fc64efd7b4b427744c84620001bb60201b60201c565b50620001367f65d7a28e3265b37a6474929f336521b332c1681b933f6cb9f3376673440d862a83620001bb60201b60201c565b50620001697f9f2df0fed2c77648de5860a4cc508cd0818c85b8b8a1ab4ceeef8d981c8956a682620001bb60201b60201c565b506200019c7f5bd33557d028fa6327a6c10090602e75b5763bcbc8c9d2f602672edd0eee7a0882620001bb60201b60201c565b5050505062000759565b8060029081620001b79190620005ac565b5050565b6000620001cf8383620002bf60201b60201c565b620002b45760016003600085815260200190815260200160002060000160008473ffffffffffffffffffffffffffffffffffffffff1673ffffffffffffffffffffffffffffffffffffffff16815260200190815260200160002060006101000a81548160ff021916908315150217905550620002506200032a60201b60201c565b73ffffffffffffffffffffffffffffffffffffffff168273ffffffffffffffffffffffffffffffffffffffff16847f2f8788117e7eff1d82e926ec794901d17c78024a50270940304540a733656f0d60405160405180910390a460019050620002b9565b600090505b92915050565b60006003600084815260200190815260200160002060000160008373ffffffffffffffffffffffffffffffffffffffff1673ffffffffffffffffffffffffffffffffffffffff16815260200190815260200160002060009054906101000a900460ff16905092915050565b600033905090565b600081519050919050565b7f4e487b7100000000000000000000000000000000000000000000000000000000600052604160045260246000fd5b7f4e487b7100000000000000000000000000000000000000000000000000000000600052602260045260246000fd5b60006002820490506001821680620003b457607f821691505b602082108103620003ca57620003c96200036c565b5b50919050565b60008190508160005260206000209050919050565b60006020601f8301049050919050565b600082821b905092915050565b600060088302620004347fffffffffffffffffffffffffffffffffffffffffffffffffffffffffffffffff82620003f5565b620004408683620003f5565b95508019841693508086168417925050509392505050565b6000819050919050565b6000819050919050565b60006200048d62000487620004818462000458565b62000462565b62000458565b9050919050565b6000819050919050565b620004a9836200046c565b620004c1620004b88262000494565b84845462000402565b825550505050565b600090565b620004d8620004c9565b620004e58184846200049e565b505050565b5b818110156200050d5762000501600082620004ce565b600181019050620004eb565b5050565b601f8211156200055c576200052681620003d0565b6200053184620003e5565b8101602085101562000541578190505b620005596200055085620003e5565b830182620004ea565b50505b505050565b600082821c905092915050565b6000620005816000198460080262000561565b1980831691505092915050565b60006200059c83836200056e565b9150826002028217905092915050565b620005b78262000332565b67ffffffffffffffff811115620005d357620005d26200033d565b5b620005df82546200039b565b620005ec82828562000511565b600060209050601f8311600181146200062457600084156200060f578287015190505b6200061b85826200058e565b8655506200068b565b601f1984166200063486620003d0565b60005b828110156200065e5784890151825560018201915060208501945060208101905062000637565b868310156200067e57848901516200067a601f8916826200056e565b8355505b6001600288020188555050505b505050505050565b600080fd5b600073ffffffffffffffffffffffffffffffffffffffff82169050919050565b6000620006c58262000698565b9050919050565b620006d781620006b8565b8114620006e357600080fd5b50565b600081519050620006f781620006cc565b92915050565b60008060006060848603121562000719576200071862000693565b5b60006200072986828701620006e6565b93505060206200073c86828701620006e6565b92505060406200074f86828701620006e6565b9150509250925092565b614dfd80620007696000396000f3fe608060405234801561001057600080fd5b50600436106102245760003560e01c80634e1273f411610130578063a217fddf116100b8578063de26648a1161007c578063de26648a14610659578063e63ab1e914610675578063e985e9c514610693578063f242432a146106c3578063f5298aca146106df57610224565b8063a217fddf146105b5578063a22cb465146105d3578063bd85b039146105ef578063d53913931461061f578063d547741f1461063d57610224565b80636b20c454116100ff5780636b20c454146105255780637f3457101461054157806382d727141461055f5780638456cb591461057b57806391d148541461058557610224565b80634e1273f41461048b5780634f558e79146104bb57806355f804b3146104eb5780635c975abb1461050757610224565b80632a401c1e116101b357806336568abe1161018257806336568abe1461040f578063392190bd1461042b5780633b134e55146104475780633f4ba83a146104635780634943f8f81461046d57610224565b80632a401c1e1461038b5780632eb2c2d6146103a75780632f2ff15d146103c357806334015a3c146103df57610224565b806302fe5305116101fa57806302fe5305146102d55780630e89341c146102f1578063162094c41461032157806318160ddd1461033d578063248a9ca31461035b57610224565b80629b2d7714610229578062f304db14610245578062fdd58e1461027557806301ffc9a7146102a5575b600080fd5b610243600480360381019061023e919061342a565b6106fb565b005b61025f600480360381019061025a919061347d565b61081e565b60405161026c91906134d8565b60405180910390f35b61028f600480360381019061028a91906134f3565b61088e565b60405161029c9190613542565b60405180910390f35b6102bf60048036038101906102ba91906135b5565b610973565b6040516102cc91906134d8565b60405180910390f35b6102ef60048036038101906102ea9190613728565b610985565b005b61030b60048036038101906103069190613771565b6109bc565b604051610318919061381d565b60405180910390f35b61033b6004803603810190610336919061383f565b6109ce565b005b610345610a07565b6040516103529190613542565b60405180910390f35b6103756004803603810190610370919061389b565b610a11565b60405161038291906138d7565b60405180910390f35b6103a560048036038101906103a09190613b1e565b610a31565b005b6103c160048036038101906103bc9190613c1b565b610cb1565b005b6103dd60048036038101906103d89190613cea565b610d59565b005b6103f960048036038101906103f4919061347d565b610d7b565b6040516104069190613542565b60405180910390f35b61042960048036038101906104249190613cea565b610dd6565b005b61044560048036038101906104409190613d2a565b610e51565b005b610461600480360381019061045c9190613de5565b610f3a565b005b61046b611143565b005b610475611178565b60405161048291906138d7565b60405180910390f35b6104a560048036038101906104a09190613f33565b61119c565b6040516104b29190614069565b60405180910390f35b6104d560048036038101906104d09190613771565b6112b5565b6040516104e291906134d8565b60405180910390f35b61050560048036038101906105009190613728565b6112c9565b005b61050f611300565b60405161051c91906134d8565b60405180910390f35b61053f600480360381019061053a919061408b565b611317565b005b6105496113c3565b60405161055691906138d7565b60405180910390f35b61057960048036038101906105749190614116565b6113e7565b005b6105836114d8565b005b61059f600480360381019061059a9190613cea565b61150d565b6040516105ac91906134d8565b60405180910390f35b6105bd611578565b6040516105ca91906138d7565b60405180910390f35b6105ed60048036038101906105e891906141eb565b61157f565b005b61060960048036038101906106049190613771565b611595565b6040516106169190613542565b60405180910390f35b6106276115b2565b60405161063491906138d7565b60405180910390f35b61065760048036038101906106529190613cea565b6115d6565b005b610673600480360381019061066e919061422b565b6115f8565b005b61067d611638565b60405161068a91906138d7565b60405180910390f35b6106ad60048036038101906106a891906142ae565b61165c565b6040516106ba91906134d8565b60405180910390f35b6106dd60048036038101906106d891906142ee565b6116f0565b005b6106f960048036038101906106f49190614385565b611798565b005b7f5bd33557d028fa6327a6c10090602e75b5763bcbc8c9d2f602672edd0eee7a0861072581611844565b6000610734858560001c611858565b11610774576040517f08c379a000000000000000000000000000000000000000000000000000000000815260040161076b9061444a565b60405180910390fd5b81600960008673ffffffffffffffffffffffffffffffffffffffff1673ffffffffffffffffffffffffffffffffffffffff168152602001908152602001600020600085815260200190815260200160002081905550828473ffffffffffffffffffffffffffffffffffffffff167f5dacc840abf1f4efc13c6454cd83e8490f6d91a08099b11db1db6bee7b7ab944846040516108109190613542565b60405180910390a350505050565b600080600960008573ffffffffffffffffffffffffffffffffffffffff1673ffffffffffffffffffffffffffffffffffffffff1681526020019081526020016000206000848152602001908152602001600020549050600081141580156108855750428111155b91505092915050565b60008061089b8484611858565b905060008114806108d85750600073ffffffffffffffffffffffffffffffffffffffff168473ffffffffffffffffffffffffffffffffffffffff16145b156108e757600091505061096d565b60008360001b90506000600960008773ffffffffffffffffffffffffffffffffffffffff1673ffffffffffffffffffffffffffffffffffffffff1681526020019081526020016000206000838152602001908152602001600020549050600081141580156109555750428111155b15610966576000935050505061096d565b8293505050505b92915050565b600061097e826118b2565b9050919050565b7f7804d923f43a17d325d77e781528e0793b2edd9890ab45fc64efd7b4b427744c6109af81611844565b6109b88261192c565b5050565b60606109c78261193f565b9050919050565b7f7804d923f43a17d325d77e781528e0793b2edd9890ab45fc64efd7b4b427744c6109f881611844565b610a028383611a24565b505050565b6000600654905090565b600060036000838152602001908152602001600020600101549050919050565b7f9f2df0fed2c77648de5860a4cc508cd0818c85b8b8a1ab4ceeef8d981c8956a6610a5b81611844565b8251855114610a9f576040517f08c379a0000000000000000000000000000000000000000000000000000000008152600401610a96906144dc565b60405180910390fd5b6000855167ffffffffffffffff811115610abc57610abb6135fd565b5b604051908082528060200260200182016040528015610aea5781602001602082028036833780820191505090505b50905060005b8651811015610b4957868181518110610b0c57610b0b6144fc565b5b602002602001015160001c828281518110610b2a57610b296144fc565b5b6020026020010181815250508080610b419061455a565b915050610af0565b50610b578888838887610cb1565b60005b8651811015610ca6576000858281518110610b7857610b776144fc565b5b60200260200101511115610c9357848181518110610b9957610b986144fc565b5b6020026020010151600960008a73ffffffffffffffffffffffffffffffffffffffff1673ffffffffffffffffffffffffffffffffffffffff1681526020019081526020016000206000898481518110610bf557610bf46144fc565b5b6020026020010151815260200190815260200160002081905550868181518110610c2257610c216144fc565b5b60200260200101518873ffffffffffffffffffffffffffffffffffffffff167f5dacc840abf1f4efc13c6454cd83e8490f6d91a08099b11db1db6bee7b7ab944878481518110610c7557610c746144fc565b5b6020026020010151604051610c8a9190613542565b60405180910390a35b8080610c9e9061455a565b915050610b5a565b505050505050505050565b6000610cbb611a89565b90508073ffffffffffffffffffffffffffffffffffffffff168673ffffffffffffffffffffffffffffffffffffffff1614158015610d005750610cfe868261165c565b155b15610d445780866040517fe237d922000000000000000000000000000000000000000000000000000000008152600401610d3b9291906145b1565b60405180910390fd5b610d518686868686611a91565b505050505050565b610d6282610a11565b610d6b81611844565b610d758383611b89565b50505050565b6000600960008473ffffffffffffffffffffffffffffffffffffffff1673ffffffffffffffffffffffffffffffffffffffff168152602001908152602001600020600083815260200190815260200160002054905092915050565b610dde611a89565b73ffffffffffffffffffffffffffffffffffffffff168173ffffffffffffffffffffffffffffffffffffffff1614610e42576040517f6697b23200000000000000000000000000000000000000000000000000000000815260040160405180910390fd5b610e4c8282611c7b565b505050565b7f9f2df0fed2c77648de5860a4cc508cd0818c85b8b8a1ab4ceeef8d981c8956a6610e7b81611844565b6000845167ffffffffffffffff811115610e9857610e976135fd565b5b604051908082528060200260200182016040528015610ec65781602001602082028036833780820191505090505b50905060005b8551811015610f2557858181518110610ee857610ee76144fc565b5b602002602001015160001c828281518110610f0657610f056144fc565b5b6020026020010181815250508080610f1d9061455a565b915050610ecc565b50610f3286828686611d6e565b505050505050565b7f5bd33557d028fa6327a6c10090602e75b5763bcbc8c9d2f602672edd0eee7a08610f6481611844565b8151835114610fa8576040517f08c379a0000000000000000000000000000000000000000000000000000000008152600401610f9f906144dc565b60405180910390fd5b60005b835181101561113c576000610fdd86868481518110610fcd57610fcc6144fc565b5b602002602001015160001c611858565b1161101d576040517f08c379a00000000000000000000000000000000000000000000000000000000081526004016110149061444a565b60405180910390fd5b8281815181106110305761102f6144fc565b5b6020026020010151600960008773ffffffffffffffffffffffffffffffffffffffff1673ffffffffffffffffffffffffffffffffffffffff168152602001908152602001600020600086848151811061108c5761108b6144fc565b5b60200260200101518152602001908152602001600020819055508381815181106110b9576110b86144fc565b5b60200260200101518573ffffffffffffffffffffffffffffffffffffffff167f5dacc840abf1f4efc13c6454cd83e8490f6d91a08099b11db1db6bee7b7ab94485848151811061110c5761110b6144fc565b5b60200260200101516040516111219190613542565b60405180910390a380806111349061455a565b915050610fab565b5050505050565b7f65d7a28e3265b37a6474929f336521b332c1681b933f6cb9f3376673440d862a61116d81611844565b611175611df4565b50565b7f5bd33557d028fa6327a6c10090602e75b5763bcbc8c9d2f602672edd0eee7a0881565b606081518351146111e2576040517f08c379a00000000000000000000000000000000000000000000000000000000081526004016111d99061464c565b60405180910390fd5b6000835167ffffffffffffffff8111156111ff576111fe6135fd565b5b60405190808252806020026020018201604052801561122d5781602001602082028036833780820191505090505b50905060005b84518110156112aa5761127a858281518110611252576112516144fc565b5b602002602001015185838151811061126d5761126c6144fc565b5b602002602001015161088e565b82828151811061128d5761128c6144fc565b5b602002602001018181525050806112a39061455a565b9050611233565b508091505092915050565b6000806112c183611595565b119050919050565b7f7804d923f43a17d325d77e781528e0793b2edd9890ab45fc64efd7b4b427744c6112f381611844565b6112fc82611e57565b5050565b6000600460009054906101000a900460ff16905090565b61131f611a89565b73ffffffffffffffffffffffffffffffffffffffff168373ffffffffffffffffffffffffffffffffffffffff1614158015611368575061136683611361611a89565b61165c565b155b156113b357611375611a89565b836040517fe237d9220000000000000000000000000000000000000000000000000000000081526004016113aa9291906145b1565b60405180910390fd5b6113be838383611e6a565b505050565b7f7804d923f43a17d325d77e781528e0793b2edd9890ab45fc64efd7b4b427744c81565b7f9f2df0fed2c77648de5860a4cc508cd0818c85b8b8a1ab4ceeef8d981c8956a661141181611844565b61142187878760001c87866116f0565b60008311156114cf5782600960008873ffffffffffffffffffffffffffffffffffffffff1673ffffffffffffffffffffffffffffffffffffffff168152602001908152602001600020600087815260200190815260200160002081905550848673ffffffffffffffffffffffffffffffffffffffff167f5dacc840abf1f4efc13c6454cd83e8490f6d91a08099b11db1db6bee7b7ab944856040516114c69190613542565b60405180910390a35b50505050505050565b7f65d7a28e3265b37a6474929f336521b332c1681b933f6cb9f3376673440d862a61150281611844565b61150a611efe565b50565b60006003600084815260200190815260200160002060000160008373ffffffffffffffffffffffffffffffffffffffff1673ffffffffffffffffffffffffffffffffffffffff16815260200190815260200160002060009054906101000a900460ff16905092915050565b6000801b81565b61159161158a611a89565b8383611f61565b5050565b600060056000838152602001908152602001600020549050919050565b7f9f2df0fed2c77648de5860a4cc508cd0818c85b8b8a1ab4ceeef8d981c8956a681565b6115df82610a11565b6115e881611844565b6115f28383611c7b565b50505050565b7f9f2df0fed2c77648de5860a4cc508cd0818c85b8b8a1ab4ceeef8d981c8956a661162281611844565b611631858560001c85856120d1565b5050505050565b7f65d7a28e3265b37a6474929f336521b332c1681b933f6cb9f3376673440d862a81565b6000600160008473ffffffffffffffffffffffffffffffffffffffff1673ffffffffffffffffffffffffffffffffffffffff16815260200190815260200160002060008373ffffffffffffffffffffffffffffffffffffffff1673ffffffffffffffffffffffffffffffffffffffff16815260200190815260200160002060009054906101000a900460ff16905092915050565b60006116fa611a89565b90508073ffffffffffffffffffffffffffffffffffffffff168673ffffffffffffffffffffffffffffffffffffffff161415801561173f575061173d868261165c565b155b156117835780866040517fe237d92200000000000000000000000000000000000000000000000000000000815260040161177a9291906145b1565b60405180910390fd5b611790868686868661216a565b505050505050565b6117a0611a89565b73ffffffffffffffffffffffffffffffffffffffff168373ffffffffffffffffffffffffffffffffffffffff16141580156117e957506117e7836117e2611a89565b61165c565b155b15611834576117f6611a89565b836040517fe237d92200000000000000000000000000000000000000000000000000000000815260040161182b9291906145b1565b60405180910390fd5b61183f838383612275565b505050565b61185581611850611a89565b61231c565b50565b600080600083815260200190815260200160002060008473ffffffffffffffffffffffffffffffffffffffff1673ffffffffffffffffffffffffffffffffffffffff16815260200190815260200160002054905092915050565b60007f7965db0b000000000000000000000000000000000000000000000000000000007bffffffffffffffffffffffffffffffffffffffffffffffffffffffff1916827bffffffffffffffffffffffffffffffffffffffffffffffffffffffff1916148061192557506119248261236d565b5b9050919050565b806002908161193b9190614878565b5050565b606060006008600084815260200190815260200160002080546119619061469b565b80601f016020809104026020016040519081016040528092919081815260200182805461198d9061469b565b80156119da5780601f106119af576101008083540402835291602001916119da565b820191906000526020600020905b8154815290600101906020018083116119bd57829003601f168201915b5050505050905060008151116119f8576119f38361244f565b611a1c565b600781604051602001611a0c929190614a09565b6040516020818303038152906040525b915050919050565b80600860008481526020019081526020016000209081611a449190614878565b50817f6bb7ff708619ba0610cba295a58592e0451dee2622938c8755667688daf3529b611a70846109bc565b604051611a7d919061381d565b60405180910390a25050565b600033905090565b600073ffffffffffffffffffffffffffffffffffffffff168473ffffffffffffffffffffffffffffffffffffffff1603611b035760006040517f57f447ce000000000000000000000000000000000000000000000000000000008152600401611afa9190614a2d565b60405180910390fd5b600073ffffffffffffffffffffffffffffffffffffffff168573ffffffffffffffffffffffffffffffffffffffff1603611b755760006040517f01a83514000000000000000000000000000000000000000000000000000000008152600401611b6c9190614a2d565b60405180910390fd5b611b8285858585856124e3565b5050505050565b6000611b95838361150d565b611c705760016003600085815260200190815260200160002060000160008473ffffffffffffffffffffffffffffffffffffffff1673ffffffffffffffffffffffffffffffffffffffff16815260200190815260200160002060006101000a81548160ff021916908315150217905550611c0d611a89565b73ffffffffffffffffffffffffffffffffffffffff168273ffffffffffffffffffffffffffffffffffffffff16847f2f8788117e7eff1d82e926ec794901d17c78024a50270940304540a733656f0d60405160405180910390a460019050611c75565b600090505b92915050565b6000611c87838361150d565b15611d635760006003600085815260200190815260200160002060000160008473ffffffffffffffffffffffffffffffffffffffff1673ffffffffffffffffffffffffffffffffffffffff16815260200190815260200160002060006101000a81548160ff021916908315150217905550611d00611a89565b73ffffffffffffffffffffffffffffffffffffffff168273ffffffffffffffffffffffffffffffffffffffff16847ff6391f5c32d9c69d2a47ea670b442974b53935d1edc7fd64eb21e047a839171b60405160405180910390a460019050611d68565b600090505b92915050565b600073ffffffffffffffffffffffffffffffffffffffff168473ffffffffffffffffffffffffffffffffffffffff1603611de05760006040517f57f447ce000000000000000000000000000000000000000000000000000000008152600401611dd79190614a2d565b60405180910390fd5b611dee6000858585856124e3565b50505050565b611dfc612595565b6000600460006101000a81548160ff0219169083151502179055507f5db9ee0a495bf2e6ff9c91a7834c1ba4fdd244a5e8aa4e537bd38aeae4b073aa611e40611a89565b604051611e4d9190614a2d565b60405180910390a1565b8060079081611e669190614878565b5050565b600073ffffffffffffffffffffffffffffffffffffffff168373ffffffffffffffffffffffffffffffffffffffff1603611edc5760006040517f01a83514000000000000000000000000000000000000000000000000000000008152600401611ed39190614a2d565b60405180910390fd5b611ef98360008484604051806020016040528060008152506124e3565b505050565b611f066125d5565b6001600460006101000a81548160ff0219169083151502179055507f62e78cea01bee320cd4e420270b5ea74000d11b0c9f74754ebdbfc544b05a258611f4a611a89565b604051611f579190614a2d565b60405180910390a1565b600073ffffffffffffffffffffffffffffffffffffffff168273ffffffffffffffffffffffffffffffffffffffff1603611fd35760006040517fced3e100000000000000000000000000000000000000000000000000000000008152600401611fca9190614a2d565b60405180910390fd5b80600160008573ffffffffffffffffffffffffffffffffffffffff1673ffffffffffffffffffffffffffffffffffffffff16815260200190815260200160002060008473ffffffffffffffffffffffffffffffffffffffff1673ffffffffffffffffffffffffffffffffffffffff16815260200190815260200160002060006101000a81548160ff0219169083151502179055508173ffffffffffffffffffffffffffffffffffffffff168373ffffffffffffffffffffffffffffffffffffffff167f17307eab39ab6107e8899845ad3d59bd9653f200f220920489ca2b5937696c31836040516120c491906134d8565b60405180910390a3505050565b600073ffffffffffffffffffffffffffffffffffffffff168473ffffffffffffffffffffffffffffffffffffffff16036121435760006040517f57f447ce00000000000000000000000000000000000000000000000000000000815260040161213a9190614a2d565b60405180910390fd5b6000806121508585612616565b915091506121626000878484876124e3565b505050505050565b600073ffffffffffffffffffffffffffffffffffffffff168473ffffffffffffffffffffffffffffffffffffffff16036121dc5760006040517f57f447ce0000000000000000000000000000000000000000000000000000000081526004016121d39190614a2d565b60405180910390fd5b600073ffffffffffffffffffffffffffffffffffffffff168573ffffffffffffffffffffffffffffffffffffffff160361224e5760006040517f01a835140000000000000000000000000000000000000000000000000000000081526004016122459190614a2d565b60405180910390fd5b60008061225b8585612616565b9150915061226c87878484876124e3565b50505050505050565b600073ffffffffffffffffffffffffffffffffffffffff168373ffffffffffffffffffffffffffffffffffffffff16036122e75760006040517f01a835140000000000000000000000000000000000000000000000000000000081526004016122de9190614a2d565b60405180910390fd5b6000806122f48484612616565b915091506123158560008484604051806020016040528060008152506124e3565b5050505050565b612326828261150d565b6123695780826040517fe2517d3f000000000000000000000000000000000000000000000000000000008152600401612360929190614a48565b60405180910390fd5b5050565b60007fd9b67a26000000000000000000000000000000000000000000000000000000007bffffffffffffffffffffffffffffffffffffffffffffffffffffffff1916827bffffffffffffffffffffffffffffffffffffffffffffffffffffffff1916148061243857507f0e89341c000000000000000000000000000000000000000000000000000000007bffffffffffffffffffffffffffffffffffffffffffffffffffffffff1916827bffffffffffffffffffffffffffffffffffffffffffffffffffffffff1916145b80612448575061244782612646565b5b9050919050565b60606002805461245e9061469b565b80601f016020809104026020016040519081016040528092919081815260200182805461248a9061469b565b80156124d75780601f106124ac576101008083540402835291602001916124d7565b820191906000526020600020905b8154815290600101906020018083116124ba57829003601f168201915b50505050509050919050565b6124ef858585856126b0565b600073ffffffffffffffffffffffffffffffffffffffff168473ffffffffffffffffffffffffffffffffffffffff161461258e57600061252d611a89565b9050600184510361257d57600061254e600086612a7190919063ffffffff16565b90506000612566600086612a7190919063ffffffff16565b9050612576838989858589612a85565b505061258c565b61258b818787878787612c39565b5b505b5050505050565b61259d611300565b6125d3576040517f8dfc202b00000000000000000000000000000000000000000000000000000000815260040160405180910390fd5b565b6125dd611300565b15612614576040517fd93c066500000000000000000000000000000000000000000000000000000000815260040160405180910390fd5b565b60608060405191506001825283602083015260408201905060018152826020820152604081016040529250929050565b60007f01ffc9a7000000000000000000000000000000000000000000000000000000007bffffffffffffffffffffffffffffffffffffffffffffffffffffffff1916827bffffffffffffffffffffffffffffffffffffffffffffffffffffffff1916149050919050565b600073ffffffffffffffffffffffffffffffffffffffff168473ffffffffffffffffffffffffffffffffffffffff161415801561271a5750600073ffffffffffffffffffffffffffffffffffffffff168373ffffffffffffffffffffffffffffffffffffffff1614155b15612790576127507f9f2df0fed2c77648de5860a4cc508cd0818c85b8b8a1ab4ceeef8d981c8956a661274b611a89565b61150d565b61278f576040517f08c379a000000000000000000000000000000000000000000000000000000000815260040161278690614ae3565b60405180910390fd5b5b600073ffffffffffffffffffffffffffffffffffffffff168473ffffffffffffffffffffffffffffffffffffffff16146129085760005b82518110156129065760008282815181106127e5576127e46144fc565b5b602002602001015111156128f3576000838281518110612808576128076144fc565b5b602002602001015160001b90506000600960008873ffffffffffffffffffffffffffffffffffffffff1673ffffffffffffffffffffffffffffffffffffffff16815260200190815260200160002060008381526020019081526020016000205490506000811415801561287b5750428111155b156128f057600073ffffffffffffffffffffffffffffffffffffffff168673ffffffffffffffffffffffffffffffffffffffff16146128ef576040517f08c379a00000000000000000000000000000000000000000000000000000000081526004016128e690614b75565b60405180910390fd5b5b50505b80806128fe9061455a565b9150506127c7565b505b61291484848484612ded565b600073ffffffffffffffffffffffffffffffffffffffff168373ffffffffffffffffffffffffffffffffffffffff161415801561297e5750600073ffffffffffffffffffffffffffffffffffffffff168473ffffffffffffffffffffffffffffffffffffffff1614155b15612a6b5760005b8251811015612a695760008282815181106129a4576129a36144fc565b5b60200260200101511115612a565760008382815181106129c7576129c66144fc565b5b602002602001015160001b905060006129fa878685815181106129ed576129ec6144fc565b5b6020026020010151611858565b03612a5457600960008773ffffffffffffffffffffffffffffffffffffffff1673ffffffffffffffffffffffffffffffffffffffff1681526020019081526020016000206000828152602001908152602001600020600090555b505b8080612a619061455a565b915050612986565b505b50505050565b600060208202602084010151905092915050565b60008473ffffffffffffffffffffffffffffffffffffffff163b1115612c31578373ffffffffffffffffffffffffffffffffffffffff1663f23a6e6187878686866040518663ffffffff1660e01b8152600401612ae6959493929190614bea565b6020604051808303816000875af1925050508015612b2257506040513d601f19601f82011682018060405250810190612b1f9190614c59565b60015b612ba6573d8060008114612b52576040519150601f19603f3d011682016040523d82523d6000602084013e612b57565b606091505b506000815103612b9e57846040517f57f447ce000000000000000000000000000000000000000000000000000000008152600401612b959190614a2d565b60405180910390fd5b805181602001fd5b63f23a6e6160e01b7bffffffffffffffffffffffffffffffffffffffffffffffffffffffff1916817bffffffffffffffffffffffffffffffffffffffffffffffffffffffff191614612c2f57846040517f57f447ce000000000000000000000000000000000000000000000000000000008152600401612c269190614a2d565b60405180910390fd5b505b505050505050565b60008473ffffffffffffffffffffffffffffffffffffffff163b1115612de5578373ffffffffffffffffffffffffffffffffffffffff1663bc197c8187878686866040518663ffffffff1660e01b8152600401612c9a959493929190614c86565b6020604051808303816000875af1925050508015612cd657506040513d601f19601f82011682018060405250810190612cd39190614c59565b60015b612d5a573d8060008114612d06576040519150601f19603f3d011682016040523d82523d6000602084013e612d0b565b606091505b506000815103612d5257846040517f57f447ce000000000000000000000000000000000000000000000000000000008152600401612d499190614a2d565b60405180910390fd5b805181602001fd5b63bc197c8160e01b7bffffffffffffffffffffffffffffffffffffffffffffffffffffffff1916817bffffffffffffffffffffffffffffffffffffffffffffffffffffffff191614612de357846040517f57f447ce000000000000000000000000000000000000000000000000000000008152600401612dda9190614a2d565b60405180910390fd5b505b505050505050565b612df984848484612f84565b600073ffffffffffffffffffffffffffffffffffffffff168473ffffffffffffffffffffffffffffffffffffffff1603612ec9576000805b8351811015612ead576000612e4f8285612a7190919063ffffffff16565b90508060056000612e698589612a7190919063ffffffff16565b81526020019081526020016000206000828254612e869190614cee565b925050819055508083612e999190614cee565b92505080612ea69061455a565b9050612e31565b508060066000828254612ec09190614cee565b92505081905550505b600073ffffffffffffffffffffffffffffffffffffffff168373ffffffffffffffffffffffffffffffffffffffff1603612f7e576000805b8351811015612f6b576000612f1f8285612a7190919063ffffffff16565b90508060056000612f398589612a7190919063ffffffff16565b81526020019081526020016000206000828254039250508190555080830192505080612f649061455a565b9050612f01565b5080600660008282540392505081905550505b50505050565b612f8c6125d5565b612f9884848484612f9e565b50505050565b8051825114612fe857815181516040517f5b059991000000000000000000000000000000000000000000000000000000008152600401612fdf929190614d22565b60405180910390fd5b6000612ff2611a89565b905060005b83518110156132075760006130158286612a7190919063ffffffff16565b9050600061302c8386612a7190919063ffffffff16565b9050600073ffffffffffffffffffffffffffffffffffffffff168873ffffffffffffffffffffffffffffffffffffffff161461315957600080600084815260200190815260200160002060008a73ffffffffffffffffffffffffffffffffffffffff1673ffffffffffffffffffffffffffffffffffffffff1681526020019081526020016000205490508181101561310157888183856040517f03dee4c50000000000000000000000000000000000000000000000000000000081526004016130f89493929190614d4b565b60405180910390fd5b81810360008085815260200190815260200160002060008b73ffffffffffffffffffffffffffffffffffffffff1673ffffffffffffffffffffffffffffffffffffffff16815260200190815260200160002081905550505b600073ffffffffffffffffffffffffffffffffffffffff168773ffffffffffffffffffffffffffffffffffffffff16146131f4578060008084815260200190815260200160002060008973ffffffffffffffffffffffffffffffffffffffff1673ffffffffffffffffffffffffffffffffffffffff16815260200190815260200160002060008282546131ec9190614cee565b925050819055505b5050806132009061455a565b9050612ff7565b5060018351036132c6576000613227600085612a7190919063ffffffff16565b9050600061323f600085612a7190919063ffffffff16565b90508573ffffffffffffffffffffffffffffffffffffffff168773ffffffffffffffffffffffffffffffffffffffff168473ffffffffffffffffffffffffffffffffffffffff167fc3d58168c5ae7397731d063d5bbf3d657854427343f4c083240f7aacaa2d0f6285856040516132b7929190614d22565b60405180910390a45050613345565b8373ffffffffffffffffffffffffffffffffffffffff168573ffffffffffffffffffffffffffffffffffffffff168273ffffffffffffffffffffffffffffffffffffffff167f4a39dc06d4c0dbc64b70af90fd698a233a518aa5d07e595d983b8c0526c8f7fb868660405161333c929190614d90565b60405180910390a45b5050505050565b6000604051905090565b600080fd5b600080fd5b600073ffffffffffffffffffffffffffffffffffffffff82169050919050565b600061338b82613360565b9050919050565b61339b81613380565b81146133a657600080fd5b50565b6000813590506133b881613392565b92915050565b6000819050919050565b6133d1816133be565b81146133dc57600080fd5b50565b6000813590506133ee816133c8565b92915050565b6000819050919050565b613407816133f4565b811461341257600080fd5b50565b600081359050613424816133fe565b92915050565b60008060006060848603121561344357613442613356565b5b6000613451868287016133a9565b9350506020613462868287016133df565b925050604061347386828701613415565b9150509250925092565b6000806040838503121561349457613493613356565b5b60006134a2858286016133a9565b92505060206134b3858286016133df565b9150509250929050565b60008115159050919050565b6134d2816134bd565b82525050565b60006020820190506134ed60008301846134c9565b92915050565b6000806040838503121561350a57613509613356565b5b6000613518858286016133a9565b925050602061352985828601613415565b9150509250929050565b61353c816133f4565b82525050565b60006020820190506135576000830184613533565b92915050565b60007fffffffff0000000000000000000000000000000000000000000000000000000082169050919050565b6135928161355d565b811461359d57600080fd5b50565b6000813590506135af81613589565b92915050565b6000602082840312156135cb576135ca613356565b5b60006135d9848285016135a0565b91505092915050565b600080fd5b600080fd5b6000601f19601f8301169050919050565b7f4e487b7100000000000000000000000000000000000000000000000000000000600052604160045260246000fd5b613635826135ec565b810181811067ffffffffffffffff82111715613654576136536135fd565b5b80604052505050565b600061366761334c565b9050613673828261362c565b919050565b600067ffffffffffffffff821115613693576136926135fd565b5b61369c826135ec565b9050602081019050919050565b82818337600083830152505050565b60006136cb6136c684613678565b61365d565b9050828152602081018484840111156136e7576136e66135e7565b5b6136f28482856136a9565b509392505050565b600082601f83011261370f5761370e6135e2565b5b813561371f8482602086016136b8565b91505092915050565b60006020828403121561373e5761373d613356565b5b600082013567ffffffffffffffff81111561375c5761375b61335b565b5b613768848285016136fa565b91505092915050565b60006020828403121561378757613786613356565b5b600061379584828501613415565b91505092915050565b600081519050919050565b600082825260208201905092915050565b60005b838110156137d85780820151818401526020810190506137bd565b60008484015250505050565b60006137ef8261379e565b6137f981856137a9565b93506138098185602086016137ba565b613812816135ec565b840191505092915050565b6000602082019050818103600083015261383781846137e4565b905092915050565b6000806040838503121561385657613855613356565b5b600061386485828601613415565b925050602083013567ffffffffffffffff8111156138855761388461335b565b5b613891858286016136fa565b9150509250929050565b6000602082840312156138b1576138b0613356565b5b60006138bf848285016133df565b91505092915050565b6138d1816133be565b82525050565b60006020820190506138ec60008301846138c8565b92915050565b600067ffffffffffffffff82111561390d5761390c6135fd565b5b602082029050602081019050919050565b600080fd5b6000613936613931846138f2565b61365d565b905080838252602082019050602084028301858111156139595761395861391e565b5b835b81811015613982578061396e88826133df565b84526020840193505060208101905061395b565b5050509392505050565b600082601f8301126139a1576139a06135e2565b5b81356139b1848260208601613923565b91505092915050565b600067ffffffffffffffff8211156139d5576139d46135fd565b5b602082029050602081019050919050565b60006139f96139f4846139ba565b61365d565b90508083825260208201905060208402830185811115613a1c57613a1b61391e565b5b835b81811015613a455780613a318882613415565b845260208401935050602081019050613a1e565b5050509392505050565b600082601f830112613a6457613a636135e2565b5b8135613a748482602086016139e6565b91505092915050565b600067ffffffffffffffff821115613a9857613a976135fd565b5b613aa1826135ec565b9050602081019050919050565b6000613ac1613abc84613a7d565b61365d565b905082815260208101848484011115613add57613adc6135e7565b5b613ae88482856136a9565b509392505050565b600082601f830112613b0557613b046135e2565b5b8135613b15848260208601613aae565b91505092915050565b60008060008060008060c08789031215613b3b57613b3a613356565b5b6000613b4989828a016133a9565b9650506020613b5a89828a016133a9565b955050604087013567ffffffffffffffff811115613b7b57613b7a61335b565b5b613b8789828a0161398c565b945050606087013567ffffffffffffffff811115613ba857613ba761335b565b5b613bb489828a01613a4f565b935050608087013567ffffffffffffffff811115613bd557613bd461335b565b5b613be189828a01613a4f565b92505060a087013567ffffffffffffffff811115613c0257613c0161335b565b5b613c0e89828a01613af0565b9150509295509295509295565b600080600080600060a08688031215613c3757613c36613356565b5b6000613c45888289016133a9565b9550506020613c56888289016133a9565b945050604086013567ffffffffffffffff811115613c7757613c7661335b565b5b613c8388828901613a4f565b935050606086013567ffffffffffffffff811115613ca457613ca361335b565b5b613cb088828901613a4f565b925050608086013567ffffffffffffffff811115613cd157613cd061335b565b5b613cdd88828901613af0565b9150509295509295909350565b60008060408385031215613d0157613d00613356565b5b6000613d0f858286016133df565b9250506020613d20858286016133a9565b9150509250929050565b60008060008060808587031215613d4457613d43613356565b5b6000613d52878288016133a9565b945050602085013567ffffffffffffffff811115613d7357613d7261335b565b5b613d7f8782880161398c565b935050604085013567ffffffffffffffff811115613da057613d9f61335b565b5b613dac87828801613a4f565b925050606085013567ffffffffffffffff811115613dcd57613dcc61335b565b5b613dd987828801613af0565b91505092959194509250565b600080600060608486031215613dfe57613dfd613356565b5b6000613e0c868287016133a9565b935050602084013567ffffffffffffffff811115613e2d57613e2c61335b565b5b613e398682870161398c565b925050604084013567ffffffffffffffff811115613e5a57613e5961335b565b5b613e6686828701613a4f565b9150509250925092565b600067ffffffffffffffff821115613e8b57613e8a6135fd565b5b602082029050602081019050919050565b6000613eaf613eaa84613e70565b61365d565b90508083825260208201905060208402830185811115613ed257613ed161391e565b5b835b81811015613efb5780613ee788826133a9565b845260208401935050602081019050613ed4565b5050509392505050565b600082601f830112613f1a57613f196135e2565b5b8135613f2a848260208601613e9c565b91505092915050565b60008060408385031215613f4a57613f49613356565b5b600083013567ffffffffffffffff811115613f6857613f6761335b565b5b613f7485828601613f05565b925050602083013567ffffffffffffffff811115613f9557613f9461335b565b5b613fa185828601613a4f565b9150509250929050565b600081519050919050565b600082825260208201905092915050565b6000819050602082019050919050565b613fe0816133f4565b82525050565b6000613ff28383613fd7565b60208301905092915050565b6000602082019050919050565b600061401682613fab565b6140208185613fb6565b935061402b83613fc7565b8060005b8381101561405c5781516140438882613fe6565b975061404e83613ffe565b92505060018101905061402f565b5085935050505092915050565b60006020820190508181036000830152614083818461400b565b905092915050565b6000806000606084860312156140a4576140a3613356565b5b60006140b2868287016133a9565b935050602084013567ffffffffffffffff8111156140d3576140d261335b565b5b6140df86828701613a4f565b925050604084013567ffffffffffffffff811115614100576140ff61335b565b5b61410c86828701613a4f565b9150509250925092565b60008060008060008060c0878903121561413357614132613356565b5b600061414189828a016133a9565b965050602061415289828a016133a9565b955050604061416389828a016133df565b945050606061417489828a01613415565b935050608061418589828a01613415565b92505060a087013567ffffffffffffffff8111156141a6576141a561335b565b5b6141b289828a01613af0565b9150509295509295509295565b6141c8816134bd565b81146141d357600080fd5b50565b6000813590506141e5816141bf565b92915050565b6000806040838503121561420257614201613356565b5b6000614210858286016133a9565b9250506020614221858286016141d6565b9150509250929050565b6000806000806080858703121561424557614244613356565b5b6000614253878288016133a9565b9450506020614264878288016133df565b935050604061427587828801613415565b925050606085013567ffffffffffffffff8111156142965761429561335b565b5b6142a287828801613af0565b91505092959194509250565b600080604083850312156142c5576142c4613356565b5b60006142d3858286016133a9565b92505060206142e4858286016133a9565b9150509250929050565b600080600080600060a0868803121561430a57614309613356565b5b6000614318888289016133a9565b9550506020614329888289016133a9565b945050604061433a88828901613415565b935050606061434b88828901613415565b925050608086013567ffffffffffffffff81111561436c5761436b61335b565b5b61437888828901613af0565b9150509295509295909350565b60008060006060848603121561439e5761439d613356565b5b60006143ac868287016133a9565b93505060206143bd86828701613415565b92505060406143ce86828701613415565b9150509250925092565b7f4950446f635631313a204163636f756e7420686173206e6f2062616c616e636560008201527f20746f2065787069726500000000000000000000000000000000000000000000602082015250565b6000614434602a836137a9565b915061443f826143d8565b604082019050919050565b6000602082019050818103600083015261446381614427565b9050919050565b7f4950446f635631313a2069647320616e642065787069726174696f6e54696d6560008201527f73206c656e677468206d69736d61746368000000000000000000000000000000602082015250565b60006144c66031836137a9565b91506144d18261446a565b604082019050919050565b600060208201905081810360008301526144f5816144b9565b9050919050565b7f4e487b7100000000000000000000000000000000000000000000000000000000600052603260045260246000fd5b7f4e487b7100000000000000000000000000000000000000000000000000000000600052601160045260246000fd5b6000614565826133f4565b91507fffffffffffffffffffffffffffffffffffffffffffffffffffffffffffffffff82036145975761459661452b565b5b600182019050919050565b6145ab81613380565b82525050565b60006040820190506145c660008301856145a2565b6145d360208301846145a2565b9392505050565b7f4950446f635631313a206163636f756e747320616e6420696473206c656e677460008201527f68206d69736d6174636800000000000000000000000000000000000000000000602082015250565b6000614636602a836137a9565b9150614641826145da565b604082019050919050565b6000602082019050818103600083015261466581614629565b9050919050565b7f4e487b7100000000000000000000000000000000000000000000000000000000600052602260045260246000fd5b600060028204905060018216806146b357607f821691505b6020821081036146c6576146c561466c565b5b50919050565b60008190508160005260206000209050919050565b60006020601f8301049050919050565b600082821b905092915050565b60006008830261472e7fffffffffffffffffffffffffffffffffffffffffffffffffffffffffffffffff826146f1565b61473886836146f1565b95508019841693508086168417925050509392505050565b6000819050919050565b600061477561477061476b846133f4565b614750565b6133f4565b9050919050565b6000819050919050565b61478f8361475a565b6147a361479b8261477c565b8484546146fe565b825550505050565b600090565b6147b86147ab565b6147c3818484614786565b505050565b5b818110156147e7576147dc6000826147b0565b6001810190506147c9565b5050565b601f82111561482c576147fd816146cc565b614806846146e1565b81016020851015614815578190505b614829614821856146e1565b8301826147c8565b50505b505050565b600082821c905092915050565b600061484f60001984600802614831565b1980831691505092915050565b6000614868838361483e565b9150826002028217905092915050565b6148818261379e565b67ffffffffffffffff81111561489a576148996135fd565b5b6148a4825461469b565b6148af8282856147eb565b600060209050601f8311600181146148e257600084156148d0578287015190505b6148da858261485c565b865550614942565b601f1984166148f0866146cc565b60005b82811015614918578489015182556001820191506020850194506020810190506148f3565b868310156149355784890151614931601f89168261483e565b8355505b6001600288020188555050505b505050505050565b600081905092915050565b600081546149628161469b565b61496c818661494a565b94506001821660008114614987576001811461499c576149cf565b60ff19831686528115158202860193506149cf565b6149a5856146cc565b60005b838110156149c7578154818901526001820191506020810190506149a8565b838801955050505b50505092915050565b60006149e38261379e565b6149ed818561494a565b93506149fd8185602086016137ba565b80840191505092915050565b6000614a158285614955565b9150614a2182846149d8565b91508190509392505050565b6000602082019050614a4260008301846145a2565b92915050565b6000604082019050614a5d60008301856145a2565b614a6a60208301846138c8565b9392505050565b7f4950446f635631313a206d7573742068617665206d696e74657220726f6c652060008201527f746f207472616e73666572000000000000000000000000000000000000000000602082015250565b6000614acd602b836137a9565b9150614ad882614a71565b604082019050919050565b60006020820190508181036000830152614afc81614ac0565b9050919050565b7f4950446f635631313a2043616e6e6f74207472616e736665722065787069726560008201527f6420746f6b656e732065786365707420746f206275726e000000000000000000602082015250565b6000614b5f6037836137a9565b9150614b6a82614b03565b604082019050919050565b60006020820190508181036000830152614b8e81614b52565b9050919050565b600081519050919050565b600082825260208201905092915050565b6000614bbc82614b95565b614bc68185614ba0565b9350614bd68185602086016137ba565b614bdf816135ec565b840191505092915050565b600060a082019050614bff60008301886145a2565b614c0c60208301876145a2565b614c196040830186613533565b614c266060830185613533565b8181036080830152614c388184614bb1565b90509695505050505050565b600081519050614c5381613589565b92915050565b600060208284031215614c6f57614c6e613356565b5b6000614c7d84828501614c44565b91505092915050565b600060a082019050614c9b60008301886145a2565b614ca860208301876145a2565b8181036040830152614cba818661400b565b90508181036060830152614cce818561400b565b90508181036080830152614ce28184614bb1565b90509695505050505050565b6000614cf9826133f4565b9150614d04836133f4565b9250828201905080821115614d1c57614d1b61452b565b5b92915050565b6000604082019050614d376000830185613533565b614d446020830184613533565b9392505050565b6000608082019050614d6060008301876145a2565b614d6d6020830186613533565b614d7a6040830185613533565b614d876060830184613533565b95945050505050565b60006040820190508181036000830152614daa818561400b565b90508181036020830152614dbe818461400b565b9050939250505056fea264697066735822122027e8f42aaa7b6908b6d7d12b092ba5fec408125f2d85cae744f093c9dd78a94264736f6c63430008140033",
  "linkReferences": {},
  "deployedLinkReferences": {}
}