{
  "_format": "hh-sol-artifact-1",
  "contractName": "IPDoc",
  "sourceName": "contracts/IPDoc.sol",
  "abi": [
    {
      "inputs": [
        {
          "internalType": "address",
          "name": "defaultAdmin",
          "type": "address"
        },
        {
          "internalType": "address",
          "name": "pauser",
          "type": "address"
        },
        {
          "internalType": "address",
          "name": "minter",
          "type": "address"
        }
      ],
      "stateMutability": "nonpayable",
      "type": "constructor"
    },
    {
      "inputs": [],
      "name": "AccessControlBadConfirmation",
      "type": "error"
    },
    {
      "inputs": [
        {
          "internalType": "address",
          "name": "account",
          "type": "address"
        },
        {
          "internalType": "bytes32",
          "name": "neededRole",
          "type": "bytes32"
        }
      ],
      "name": "AccessControlUnauthorizedAccount",
      "type": "error"
    },
    {
      "inputs": [
        {
          "internalType": "address",
          "name": "sender",
          "type": "address"
        },
        {
          "internalType": "uint256",
          "name": "balance",
          "type": "uint256"
        },
        {
          "internalType": "uint256",
          "name": "needed",
          "type": "uint256"
        },
        {
          "internalType": "uint256",
          "name": "tokenId",
          "type": "uint256"
        }
      ],
      "name": "ERC1155InsufficientBalance",
      "type": "error"
    },
    {
      "inputs": [
        {
          "internalType": "address",
          "name": "approver",
          "type": "address"
        }
      ],
      "name": "ERC1155InvalidApprover",
      "type": "error"
    },
    {
      "inputs": [
        {
          "internalType": "uint256",
          "name": "idsLength",
          "type": "uint256"
        },
        {
          "internalType": "uint256",
          "name": "valuesLength",
          "type": "uint256"
        }
      ],
      "name": "ERC1155InvalidArrayLength",
      "type": "error"
    },
    {
      "inputs": [
        {
          "internalType": "address",
          "name": "operator",
          "type": "address"
        }
      ],
      "name": "ERC1155InvalidOperator",
      "type": "error"
    },
    {
      "inputs": [
        {
          "internalType": "address",
          "name": "receiver",
          "type": "address"
        }
      ],
      "name": "ERC1155InvalidReceiver",
      "type": "error"
    },
    {
      "inputs": [
        {
          "internalType": "address",
          "name": "sender",
          "type": "address"
        }
      ],
      "name": "ERC1155InvalidSender",
      "type": "error"
    },
    {
      "inputs": [
        {
          "internalType": "address",
          "name": "operator",
          "type": "address"
        },
        {
          "internalType": "address",
          "name": "owner",
          "type": "address"
        }
      ],
      "name": "ERC1155MissingApprovalForAll",
      "type": "error"
    },
    {
      "inputs": [],
      "name": "EnforcedPause",
      "type": "error"
    },
    {
      "inputs": [],
      "name": "ExpectedPause",
      "type": "error"
    },
    {
      "anonymous": false,
      "inputs": [
        {
          "indexed": true,
          "internalType": "address",
          "name": "account",
          "type": "address"
        },
        {
          "indexed": true,
          "internalType": "address",
          "name": "operator",
          "type": "address"
        },
        {
          "indexed": false,
          "internalType": "bool",
          "name": "approved",
          "type": "bool"
        }
      ],
      "name": "ApprovalForAll",
      "type": "event"
    },
    {
      "anonymous": false,
      "inputs": [
        {
          "indexed": false,
          "internalType": "address",
          "name": "account",
          "type": "address"
        }
      ],
      "name": "Paused",
      "type": "event"
    },
    {
      "anonymous": false,
      "inputs": [
        {
          "indexed": true,
          "internalType": "bytes32",
          "name": "role",
          "type": "bytes32"
        },
        {
          "indexed": true,
          "internalType": "bytes32",
          "name": "previousAdminRole",
          "type": "bytes32"
        },
        {
          "indexed": true,
          "internalType": "bytes32",
          "name": "newAdminRole",
          "type": "bytes32"
        }
      ],
      "name": "RoleAdminChanged",
      "type": "event"
    },
    {
      "anonymous": false,
      "inputs": [
        {
          "indexed": true,
          "internalType": "bytes32",
          "name": "role",
          "type": "bytes32"
        },
        {
          "indexed": true,
          "internalType": "address",
          "name": "account",
          "type": "address"
        },
        {
          "indexed": true,
          "internalType": "address",
          "name": "sender",
          "type": "address"
        }
      ],
      "name": "RoleGranted",
      "type": "event"
    },
    {
      "anonymous": false,
      "inputs": [
        {
          "indexed": true,
          "internalType": "bytes32",
          "name": "role",
          "type": "bytes32"
        },
        {
          "indexed": true,
          "internalType": "address",
          "name": "account",
          "type": "address"
        },
        {
          "indexed": true,
          "internalType": "address",
          "name": "sender",
          "type": "address"
        }
      ],
      "name": "RoleRevoked",
      "type": "event"
    },
    {
      "anonymous": false,
      "inputs": [
        {
          "indexed": true,
          "internalType": "address",
          "name": "operator",
          "type": "address"
        },
        {
          "indexed": true,
          "internalType": "address",
          "name": "from",
          "type": "address"
        },
        {
          "indexed": true,
          "internalType": "address",
          "name": "to",
          "type": "address"
        },
        {
          "indexed": false,
          "internalType": "uint256[]",
          "name": "ids",
          "type": "uint256[]"
        },
        {
          "indexed": false,
          "internalType": "uint256[]",
          "name": "values",
          "type": "uint256[]"
        }
      ],
      "name": "TransferBatch",
      "type": "event"
    },
    {
      "anonymous": false,
      "inputs": [
        {
          "indexed": true,
          "internalType": "address",
          "name": "operator",
          "type": "address"
        },
        {
          "indexed": true,
          "internalType": "address",
          "name": "from",
          "type": "address"
        },
        {
          "indexed": true,
          "internalType": "address",
          "name": "to",
          "type": "address"
        },
        {
          "indexed": false,
          "internalType": "uint256",
          "name": "id",
          "type": "uint256"
        },
        {
          "indexed": false,
          "internalType": "uint256",
          "name": "value",
          "type": "uint256"
        }
      ],
      "name": "TransferSingle",
      "type": "event"
    },
    {
      "anonymous": false,
      "inputs": [
        {
          "indexed": false,
          "internalType": "string",
          "name": "value",
          "type": "string"
        },
        {
          "indexed": true,
          "internalType": "uint256",
          "name": "id",
          "type": "uint256"
        }
      ],
      "name": "URI",
      "type": "event"
    },
    {
      "anonymous": false,
      "inputs": [
        {
          "indexed": false,
          "internalType": "address",
          "name": "account",
          "type": "address"
        }
      ],
      "name": "Unpaused",
      "type": "event"
    },
    {
      "inputs": [],
      "name": "DEFAULT_ADMIN_ROLE",
      "outputs": [
        {
          "internalType": "bytes32",
          "name": "",
          "type": "bytes32"
        }
      ],
      "stateMutability": "view",
      "type": "function"
    },
    {
      "inputs": [],
      "name": "MINTER_ROLE",
      "outputs": [
        {
          "internalType": "bytes32",
          "name": "",
          "type": "bytes32"
        }
      ],
      "stateMutability": "view",
      "type": "function"
    },
    {
      "inputs": [],
      "name": "PAUSER_ROLE",
      "outputs": [
        {
          "internalType": "bytes32",
          "name": "",
          "type": "bytes32"
        }
      ],
      "stateMutability": "view",
      "type": "function"
    },
    {
      "inputs": [],
      "name": "URI_SETTER_ROLE",
      "outputs": [
        {
          "internalType": "bytes32",
          "name": "",
          "type": "bytes32"
        }
      ],
      "stateMutability": "view",
      "type": "function"
    },
    {
      "inputs": [
        {
          "internalType": "address",
          "name": "account",
          "type": "address"
        },
        {
          "internalType": "uint256",
          "name": "id",
          "type": "uint256"
        }
      ],
      "name": "balanceOf",
      "outputs": [
        {
          "internalType": "uint256",
          "name": "",
          "type": "uint256"
        }
      ],
      "stateMutability": "view",
      "type": "function"
    },
    {
      "inputs": [
        {
          "internalType": "address[]",
          "name": "accounts",
          "type": "address[]"
        },
        {
          "internalType": "uint256[]",
          "name": "ids",
          "type": "uint256[]"
        }
      ],
      "name": "balanceOfBatch",
      "outputs": [
        {
          "internalType": "uint256[]",
          "name": "",
          "type": "uint256[]"
        }
      ],
      "stateMutability": "view",
      "type": "function"
    },
    {
      "inputs": [
        {
          "internalType": "address",
          "name": "account",
          "type": "address"
        },
        {
          "internalType": "uint256",
          "name": "id",
          "type": "uint256"
        },
        {
          "internalType": "uint256",
          "name": "value",
          "type": "uint256"
        }
      ],
      "name": "burn",
      "outputs": [],
      "stateMutability": "nonpayable",
      "type": "function"
    },
    {
      "inputs": [
        {
          "internalType": "address",
          "name": "account",
          "type": "address"
        },
        {
          "internalType": "uint256[]",
          "name": "ids",
          "type": "uint256[]"
        },
        {
          "internalType": "uint256[]",
          "name": "values",
          "type": "uint256[]"
        }
      ],
      "name": "burnBatch",
      "outputs": [],
      "stateMutability": "nonpayable",
      "type": "function"
    },
    {
      "inputs": [
        {
          "internalType": "uint256",
          "name": "id",
          "type": "uint256"
        }
      ],
      "name": "exists",
      "outputs": [
        {
          "internalType": "bool",
          "name": "",
          "type": "bool"
        }
      ],
      "stateMutability": "view",
      "type": "function"
    },
    {
      "inputs": [
        {
          "internalType": "bytes32",
          "name": "role",
          "type": "bytes32"
        }
      ],
      "name": "getRoleAdmin",
      "outputs": [
        {
          "internalType": "bytes32",
          "name": "",
          "type": "bytes32"
        }
      ],
      "stateMutability": "view",
      "type": "function"
    },
    {
      "inputs": [
        {
          "internalType": "bytes32",
          "name": "role",
          "type": "bytes32"
        },
        {
          "internalType": "address",
          "name": "account",
          "type": "address"
        }
      ],
      "name": "grantRole",
      "outputs": [],
      "stateMutability": "nonpayable",
      "type": "function"
    },
    {
      "inputs": [
        {
          "internalType": "bytes32",
          "name": "role",
          "type": "bytes32"
        },
        {
          "internalType": "address",
          "name": "account",
          "type": "address"
        }
      ],
      "name": "hasRole",
      "outputs": [
        {
          "internalType": "bool",
          "name": "",
          "type": "bool"
        }
      ],
      "stateMutability": "view",
      "type": "function"
    },
    {
      "inputs": [
        {
          "internalType": "address",
          "name": "account",
          "type": "address"
        },
        {
          "internalType": "address",
          "name": "operator",
          "type": "address"
        }
      ],
      "name": "isApprovedForAll",
      "outputs": [
        {
          "internalType": "bool",
          "name": "",
          "type": "bool"
        }
      ],
      "stateMutability": "view",
      "type": "function"
    },
    {
      "inputs": [
        {
          "internalType": "address",
          "name": "account",
          "type": "address"
        },
        {
          "internalType": "uint256",
          "name": "id",
          "type": "uint256"
        },
        {
          "internalType": "uint256",
          "name": "amount",
          "type": "uint256"
        },
        {
          "internalType": "bytes",
          "name": "data",
          "type": "bytes"
        }
      ],
      "name": "mint",
      "outputs": [],
      "stateMutability": "nonpayable",
      "type": "function"
    },
    {
      "inputs": [
        {
          "internalType": "address",
          "name": "to",
          "type": "address"
        },
        {
          "internalType": "uint256[]",
          "name": "ids",
          "type": "uint256[]"
        },
        {
          "internalType": "uint256[]",
          "name": "amounts",
          "type": "uint256[]"
        },
        {
          "internalType": "bytes",
          "name": "data",
          "type": "bytes"
        }
      ],
      "name": "mintBatch",
      "outputs": [],
      "stateMutability": "nonpayable",
      "type": "function"
    },
    {
      "inputs": [],
      "name": "pause",
      "outputs": [],
      "stateMutability": "nonpayable",
      "type": "function"
    },
    {
      "inputs": [],
      "name": "paused",
      "outputs": [
        {
          "internalType": "bool",
          "name": "",
          "type": "bool"
        }
      ],
      "stateMutability": "view",
      "type": "function"
    },
    {
      "inputs": [
        {
          "internalType": "bytes32",
          "name": "role",
          "type": "bytes32"
        },
        {
          "internalType": "address",
          "name": "callerConfirmation",
          "type": "address"
        }
      ],
      "name": "renounceRole",
      "outputs": [],
      "stateMutability": "nonpayable",
      "type": "function"
    },
    {
      "inputs": [
        {
          "internalType": "bytes32",
          "name": "role",
          "type": "bytes32"
        },
        {
          "internalType": "address",
          "name": "account",
          "type": "address"
        }
      ],
      "name": "revokeRole",
      "outputs": [],
      "stateMutability": "nonpayable",
      "type": "function"
    },
    {
      "inputs": [
        {
          "internalType": "address",
          "name": "from",
          "type": "address"
        },
        {
          "internalType": "address",
          "name": "to",
          "type": "address"
        },
        {
          "internalType": "uint256[]",
          "name": "ids",
          "type": "uint256[]"
        },
        {
          "internalType": "uint256[]",
          "name": "values",
          "type": "uint256[]"
        },
        {
          "internalType": "bytes",
          "name": "data",
          "type": "bytes"
        }
      ],
      "name": "safeBatchTransferFrom",
      "outputs": [],
      "stateMutability": "nonpayable",
      "type": "function"
    },
    {
      "inputs": [
        {
          "internalType": "address",
          "name": "from",
          "type": "address"
        },
        {
          "internalType": "address",
          "name": "to",
          "type": "address"
        },
        {
          "internalType": "uint256",
          "name": "id",
          "type": "uint256"
        },
        {
          "internalType": "uint256",
          "name": "value",
          "type": "uint256"
        },
        {
          "internalType": "bytes",
          "name": "data",
          "type": "bytes"
        }
      ],
      "name": "safeTransferFrom",
      "outputs": [],
      "stateMutability": "nonpayable",
      "type": "function"
    },
    {
      "inputs": [
        {
          "internalType": "address",
          "name": "operator",
          "type": "address"
        },
        {
          "internalType": "bool",
          "name": "approved",
          "type": "bool"
        }
      ],
      "name": "setApprovalForAll",
      "outputs": [],
      "stateMutability": "nonpayable",
      "type": "function"
    },
    {
      "inputs": [
        {
          "internalType": "string",
          "name": "newuri",
          "type": "string"
        }
      ],
      "name": "setURI",
      "outputs": [],
      "stateMutability": "nonpayable",
      "type": "function"
    },
    {
      "inputs": [
        {
          "internalType": "bytes4",
          "name": "interfaceId",
          "type": "bytes4"
        }
      ],
      "name": "supportsInterface",
      "outputs": [
        {
          "internalType": "bool",
          "name": "",
          "type": "bool"
        }
      ],
      "stateMutability": "view",
      "type": "function"
    },
    {
      "inputs": [],
      "name": "totalSupply",
      "outputs": [
        {
          "internalType": "uint256",
          "name": "",
          "type": "uint256"
        }
      ],
      "stateMutability": "view",
      "type": "function"
    },
    {
      "inputs": [
        {
          "internalType": "uint256",
          "name": "id",
          "type": "uint256"
        }
      ],
      "name": "totalSupply",
      "outputs": [
        {
          "internalType": "uint256",
          "name": "",
          "type": "uint256"
        }
      ],
      "stateMutability": "view",
      "type": "function"
    },
    {
      "inputs": [],
      "name": "unpause",
      "outputs": [],
      "stateMutability": "nonpayable",
      "type": "function"
    },
    {
      "inputs": [
        {
          "internalType": "uint256",
          "name": "",
          "type": "uint256"
        }
      ],
      "name": "uri",
      "outputs": [
        {
          "internalType": "string",
          "name": "",
          "type": "string"
        }
      ],
      "stateMutability": "view",
      "type": "function"
    }
  ],
  "bytecode": "0x60806040523480156200001157600080fd5b5060405162003d1438038062003d14833981810160405281019062000037919062000315565b6040518060400160405280601481526020017f68747470733a2f2f73616665696465612e6e65740000000000000000000000008152506200007e816200011f60201b60201c565b506000600460006101000a81548160ff021916908315150217905550620000af6000801b846200013460201b60201c565b50620000e27f65d7a28e3265b37a6474929f336521b332c1681b933f6cb9f3376673440d862a836200013460201b60201c565b50620001157f9f2df0fed2c77648de5860a4cc508cd0818c85b8b8a1ab4ceeef8d981c8956a6826200013460201b60201c565b50505050620006d2565b8060029081620001309190620005eb565b5050565b60006200014883836200023860201b60201c565b6200022d5760016003600085815260200190815260200160002060000160008473ffffffffffffffffffffffffffffffffffffffff1673ffffffffffffffffffffffffffffffffffffffff16815260200190815260200160002060006101000a81548160ff021916908315150217905550620001c9620002a360201b60201c565b73ffffffffffffffffffffffffffffffffffffffff168273ffffffffffffffffffffffffffffffffffffffff16847f2f8788117e7eff1d82e926ec794901d17c78024a50270940304540a733656f0d60405160405180910390a46001905062000232565b600090505b92915050565b60006003600084815260200190815260200160002060000160008373ffffffffffffffffffffffffffffffffffffffff1673ffffffffffffffffffffffffffffffffffffffff16815260200190815260200160002060009054906101000a900460ff16905092915050565b600033905090565b600080fd5b600073ffffffffffffffffffffffffffffffffffffffff82169050919050565b6000620002dd82620002b0565b9050919050565b620002ef81620002d0565b8114620002fb57600080fd5b50565b6000815190506200030f81620002e4565b92915050565b600080600060608486031215620003315762000330620002ab565b5b60006200034186828701620002fe565b93505060206200035486828701620002fe565b92505060406200036786828701620002fe565b9150509250925092565b600081519050919050565b7f4e487b7100000000000000000000000000000000000000000000000000000000600052604160045260246000fd5b7f4e487b7100000000000000000000000000000000000000000000000000000000600052602260045260246000fd5b60006002820490506001821680620003f357607f821691505b602082108103620004095762000408620003ab565b5b50919050565b60008190508160005260206000209050919050565b60006020601f8301049050919050565b600082821b905092915050565b600060088302620004737fffffffffffffffffffffffffffffffffffffffffffffffffffffffffffffffff8262000434565b6200047f868362000434565b95508019841693508086168417925050509392505050565b6000819050919050565b6000819050919050565b6000620004cc620004c6620004c08462000497565b620004a1565b62000497565b9050919050565b6000819050919050565b620004e883620004ab565b62000500620004f782620004d3565b84845462000441565b825550505050565b600090565b6200051762000508565b62000524818484620004dd565b505050565b5b818110156200054c57620005406000826200050d565b6001810190506200052a565b5050565b601f8211156200059b5762000565816200040f565b620005708462000424565b8101602085101562000580578190505b620005986200058f8562000424565b83018262000529565b50505b505050565b600082821c905092915050565b6000620005c060001984600802620005a0565b1980831691505092915050565b6000620005db8383620005ad565b9150826002028217905092915050565b620005f68262000371565b67ffffffffffffffff8111156200061257620006116200037c565b5b6200061e8254620003da565b6200062b82828562000550565b600060209050601f8311600181146200066357600084156200064e578287015190505b6200065a8582620005cd565b865550620006ca565b601f19841662000673866200040f565b60005b828110156200069d5784890151825560018201915060208501945060208101905062000676565b86831015620006bd5784890151620006b9601f891682620005ad565b8355505b6001600288020188555050505b505050505050565b61363280620006e26000396000f3fe608060405234801561001057600080fd5b50600436106101c35760003560e01c80636b20c454116100f9578063bd85b03911610097578063e63ab1e911610071578063e63ab1e9146104ee578063e985e9c51461050c578063f242432a1461053c578063f5298aca14610558576101c3565b8063bd85b03914610484578063d5391393146104b4578063d547741f146104d2576101c3565b80638456cb59116100d35780638456cb591461041057806391d148541461041a578063a217fddf1461044a578063a22cb46514610468576101c3565b80636b20c454146103ba578063731133e9146103d65780637f345710146103f2576101c3565b80632eb2c2d6116101665780633f4ba83a116101405780633f4ba83a146103325780634e1273f41461033c5780634f558e791461036c5780635c975abb1461039c576101c3565b80632eb2c2d6146102de5780632f2ff15d146102fa57806336568abe14610316576101c3565b80630e89341c116101a25780630e89341c1461024457806318160ddd146102745780631f7fdffa14610292578063248a9ca3146102ae576101c3565b8062fdd58e146101c857806301ffc9a7146101f857806302fe530514610228575b600080fd5b6101e260048036038101906101dd91906123c9565b610574565b6040516101ef9190612418565b60405180910390f35b610212600480360381019061020d919061248b565b6105ce565b60405161021f91906124d3565b60405180910390f35b610242600480360381019061023d9190612634565b6105e0565b005b61025e6004803603810190610259919061267d565b610617565b60405161026b9190612729565b60405180910390f35b61027c6106ab565b6040516102899190612418565b60405180910390f35b6102ac60048036038101906102a791906128b4565b6106b5565b005b6102c860048036038101906102c391906129a5565b6106f2565b6040516102d591906129e1565b60405180910390f35b6102f860048036038101906102f391906129fc565b610712565b005b610314600480360381019061030f9190612acb565b6107ba565b005b610330600480360381019061032b9190612acb565b6107dc565b005b61033a610857565b005b61035660048036038101906103519190612bce565b61088c565b6040516103639190612d04565b60405180910390f35b6103866004803603810190610381919061267d565b61099b565b60405161039391906124d3565b60405180910390f35b6103a46109af565b6040516103b191906124d3565b60405180910390f35b6103d460048036038101906103cf9190612d26565b6109c6565b005b6103f060048036038101906103eb9190612db1565b610a72565b005b6103fa610aaf565b60405161040791906129e1565b60405180910390f35b610418610ad3565b005b610434600480360381019061042f9190612acb565b610b08565b60405161044191906124d3565b60405180910390f35b610452610b73565b60405161045f91906129e1565b60405180910390f35b610482600480360381019061047d9190612e60565b610b7a565b005b61049e6004803603810190610499919061267d565b610b90565b6040516104ab9190612418565b60405180910390f35b6104bc610bad565b6040516104c991906129e1565b60405180910390f35b6104ec60048036038101906104e79190612acb565b610bd1565b005b6104f6610bf3565b60405161050391906129e1565b60405180910390f35b61052660048036038101906105219190612ea0565b610c17565b60405161053391906124d3565b60405180910390f35b61055660048036038101906105519190612ee0565b610cab565b005b610572600480360381019061056d9190612f77565b610d53565b005b600080600083815260200190815260200160002060008473ffffffffffffffffffffffffffffffffffffffff1673ffffffffffffffffffffffffffffffffffffffff16815260200190815260200160002054905092915050565b60006105d982610dff565b9050919050565b7f7804d923f43a17d325d77e781528e0793b2edd9890ab45fc64efd7b4b427744c61060a81610e79565b61061382610e8d565b5050565b60606002805461062690612ff9565b80601f016020809104026020016040519081016040528092919081815260200182805461065290612ff9565b801561069f5780601f106106745761010080835404028352916020019161069f565b820191906000526020600020905b81548152906001019060200180831161068257829003601f168201915b50505050509050919050565b6000600654905090565b7f9f2df0fed2c77648de5860a4cc508cd0818c85b8b8a1ab4ceeef8d981c8956a66106df81610e79565b6106eb85858585610ea0565b5050505050565b600060036000838152602001908152602001600020600101549050919050565b600061071c610f26565b90508073ffffffffffffffffffffffffffffffffffffffff168673ffffffffffffffffffffffffffffffffffffffff1614158015610761575061075f8682610c17565b155b156107a55780866040517fe237d92200000000000000000000000000000000000000000000000000000000815260040161079c929190613039565b60405180910390fd5b6107b28686868686610f2e565b505050505050565b6107c3826106f2565b6107cc81610e79565b6107d68383611026565b50505050565b6107e4610f26565b73ffffffffffffffffffffffffffffffffffffffff168173ffffffffffffffffffffffffffffffffffffffff1614610848576040517f6697b23200000000000000000000000000000000000000000000000000000000815260040160405180910390fd5b6108528282611118565b505050565b7f65d7a28e3265b37a6474929f336521b332c1681b933f6cb9f3376673440d862a61088181610e79565b61088961120b565b50565b606081518351146108d857815183516040517f5b0599910000000000000000000000000000000000000000000000000000000081526004016108cf929190613062565b60405180910390fd5b6000835167ffffffffffffffff8111156108f5576108f4612509565b5b6040519080825280602002602001820160405280156109235781602001602082028036833780820191505090505b50905060005b845181101561099057610960610948828761126e90919063ffffffff16565b61095b838761128290919063ffffffff16565b610574565b8282815181106109735761097261308b565b5b60200260200101818152505080610989906130e9565b9050610929565b508091505092915050565b6000806109a783610b90565b119050919050565b6000600460009054906101000a900460ff16905090565b6109ce610f26565b73ffffffffffffffffffffffffffffffffffffffff168373ffffffffffffffffffffffffffffffffffffffff1614158015610a175750610a1583610a10610f26565b610c17565b155b15610a6257610a24610f26565b836040517fe237d922000000000000000000000000000000000000000000000000000000008152600401610a59929190613039565b60405180910390fd5b610a6d838383611296565b505050565b7f9f2df0fed2c77648de5860a4cc508cd0818c85b8b8a1ab4ceeef8d981c8956a6610a9c81610e79565b610aa88585858561132a565b5050505050565b7f7804d923f43a17d325d77e781528e0793b2edd9890ab45fc64efd7b4b427744c81565b7f65d7a28e3265b37a6474929f336521b332c1681b933f6cb9f3376673440d862a610afd81610e79565b610b056113c3565b50565b60006003600084815260200190815260200160002060000160008373ffffffffffffffffffffffffffffffffffffffff1673ffffffffffffffffffffffffffffffffffffffff16815260200190815260200160002060009054906101000a900460ff16905092915050565b6000801b81565b610b8c610b85610f26565b8383611426565b5050565b600060056000838152602001908152602001600020549050919050565b7f9f2df0fed2c77648de5860a4cc508cd0818c85b8b8a1ab4ceeef8d981c8956a681565b610bda826106f2565b610be381610e79565b610bed8383611118565b50505050565b7f65d7a28e3265b37a6474929f336521b332c1681b933f6cb9f3376673440d862a81565b6000600160008473ffffffffffffffffffffffffffffffffffffffff1673ffffffffffffffffffffffffffffffffffffffff16815260200190815260200160002060008373ffffffffffffffffffffffffffffffffffffffff1673ffffffffffffffffffffffffffffffffffffffff16815260200190815260200160002060009054906101000a900460ff16905092915050565b6000610cb5610f26565b90508073ffffffffffffffffffffffffffffffffffffffff168673ffffffffffffffffffffffffffffffffffffffff1614158015610cfa5750610cf88682610c17565b155b15610d3e5780866040517fe237d922000000000000000000000000000000000000000000000000000000008152600401610d35929190613039565b60405180910390fd5b610d4b8686868686611596565b505050505050565b610d5b610f26565b73ffffffffffffffffffffffffffffffffffffffff168373ffffffffffffffffffffffffffffffffffffffff1614158015610da45750610da283610d9d610f26565b610c17565b155b15610def57610db1610f26565b836040517fe237d922000000000000000000000000000000000000000000000000000000008152600401610de6929190613039565b60405180910390fd5b610dfa8383836116a1565b505050565b60007f7965db0b000000000000000000000000000000000000000000000000000000007bffffffffffffffffffffffffffffffffffffffffffffffffffffffff1916827bffffffffffffffffffffffffffffffffffffffffffffffffffffffff19161480610e725750610e7182611748565b5b9050919050565b610e8a81610e85610f26565b61182a565b50565b8060029081610e9c91906132dd565b5050565b600073ffffffffffffffffffffffffffffffffffffffff168473ffffffffffffffffffffffffffffffffffffffff1603610f125760006040517f57f447ce000000000000000000000000000000000000000000000000000000008152600401610f0991906133af565b60405180910390fd5b610f2060008585858561187b565b50505050565b600033905090565b600073ffffffffffffffffffffffffffffffffffffffff168473ffffffffffffffffffffffffffffffffffffffff1603610fa05760006040517f57f447ce000000000000000000000000000000000000000000000000000000008152600401610f9791906133af565b60405180910390fd5b600073ffffffffffffffffffffffffffffffffffffffff168573ffffffffffffffffffffffffffffffffffffffff16036110125760006040517f01a8351400000000000000000000000000000000000000000000000000000000815260040161100991906133af565b60405180910390fd5b61101f858585858561187b565b5050505050565b60006110328383610b08565b61110d5760016003600085815260200190815260200160002060000160008473ffffffffffffffffffffffffffffffffffffffff1673ffffffffffffffffffffffffffffffffffffffff16815260200190815260200160002060006101000a81548160ff0219169083151502179055506110aa610f26565b73ffffffffffffffffffffffffffffffffffffffff168273ffffffffffffffffffffffffffffffffffffffff16847f2f8788117e7eff1d82e926ec794901d17c78024a50270940304540a733656f0d60405160405180910390a460019050611112565b600090505b92915050565b60006111248383610b08565b156112005760006003600085815260200190815260200160002060000160008473ffffffffffffffffffffffffffffffffffffffff1673ffffffffffffffffffffffffffffffffffffffff16815260200190815260200160002060006101000a81548160ff02191690831515021790555061119d610f26565b73ffffffffffffffffffffffffffffffffffffffff168273ffffffffffffffffffffffffffffffffffffffff16847ff6391f5c32d9c69d2a47ea670b442974b53935d1edc7fd64eb21e047a839171b60405160405180910390a460019050611205565b600090505b92915050565b61121361192d565b6000600460006101000a81548160ff0219169083151502179055507f5db9ee0a495bf2e6ff9c91a7834c1ba4fdd244a5e8aa4e537bd38aeae4b073aa611257610f26565b60405161126491906133af565b60405180910390a1565b600060208202602084010151905092915050565b600060208202602084010151905092915050565b600073ffffffffffffffffffffffffffffffffffffffff168373ffffffffffffffffffffffffffffffffffffffff16036113085760006040517f01a835140000000000000000000000000000000000000000000000000000000081526004016112ff91906133af565b60405180910390fd5b61132583600084846040518060200160405280600081525061187b565b505050565b600073ffffffffffffffffffffffffffffffffffffffff168473ffffffffffffffffffffffffffffffffffffffff160361139c5760006040517f57f447ce00000000000000000000000000000000000000000000000000000000815260040161139391906133af565b60405180910390fd5b6000806113a9858561196d565b915091506113bb60008784848761187b565b505050505050565b6113cb61199d565b6001600460006101000a81548160ff0219169083151502179055507f62e78cea01bee320cd4e420270b5ea74000d11b0c9f74754ebdbfc544b05a25861140f610f26565b60405161141c91906133af565b60405180910390a1565b600073ffffffffffffffffffffffffffffffffffffffff168273ffffffffffffffffffffffffffffffffffffffff16036114985760006040517fced3e10000000000000000000000000000000000000000000000000000000000815260040161148f91906133af565b60405180910390fd5b80600160008573ffffffffffffffffffffffffffffffffffffffff1673ffffffffffffffffffffffffffffffffffffffff16815260200190815260200160002060008473ffffffffffffffffffffffffffffffffffffffff1673ffffffffffffffffffffffffffffffffffffffff16815260200190815260200160002060006101000a81548160ff0219169083151502179055508173ffffffffffffffffffffffffffffffffffffffff168373ffffffffffffffffffffffffffffffffffffffff167f17307eab39ab6107e8899845ad3d59bd9653f200f220920489ca2b5937696c318360405161158991906124d3565b60405180910390a3505050565b600073ffffffffffffffffffffffffffffffffffffffff168473ffffffffffffffffffffffffffffffffffffffff16036116085760006040517f57f447ce0000000000000000000000000000000000000000000000000000000081526004016115ff91906133af565b60405180910390fd5b600073ffffffffffffffffffffffffffffffffffffffff168573ffffffffffffffffffffffffffffffffffffffff160361167a5760006040517f01a8351400000000000000000000000000000000000000000000000000000000815260040161167191906133af565b60405180910390fd5b600080611687858561196d565b91509150611698878784848761187b565b50505050505050565b600073ffffffffffffffffffffffffffffffffffffffff168373ffffffffffffffffffffffffffffffffffffffff16036117135760006040517f01a8351400000000000000000000000000000000000000000000000000000000815260040161170a91906133af565b60405180910390fd5b600080611720848461196d565b9150915061174185600084846040518060200160405280600081525061187b565b5050505050565b60007fd9b67a26000000000000000000000000000000000000000000000000000000007bffffffffffffffffffffffffffffffffffffffffffffffffffffffff1916827bffffffffffffffffffffffffffffffffffffffffffffffffffffffff1916148061181357507f0e89341c000000000000000000000000000000000000000000000000000000007bffffffffffffffffffffffffffffffffffffffffffffffffffffffff1916827bffffffffffffffffffffffffffffffffffffffffffffffffffffffff1916145b806118235750611822826119de565b5b9050919050565b6118348282610b08565b6118775780826040517fe2517d3f00000000000000000000000000000000000000000000000000000000815260040161186e9291906133ca565b60405180910390fd5b5050565b61188785858585611a48565b600073ffffffffffffffffffffffffffffffffffffffff168473ffffffffffffffffffffffffffffffffffffffff16146119265760006118c5610f26565b905060018451036119155760006118e660008661128290919063ffffffff16565b905060006118fe60008661128290919063ffffffff16565b905061190e838989858589611a5a565b5050611924565b611923818787878787611c0e565b5b505b5050505050565b6119356109af565b61196b576040517f8dfc202b00000000000000000000000000000000000000000000000000000000815260040160405180910390fd5b565b60608060405191506001825283602083015260408201905060018152826020820152604081016040529250929050565b6119a56109af565b156119dc576040517fd93c066500000000000000000000000000000000000000000000000000000000815260040160405180910390fd5b565b60007f01ffc9a7000000000000000000000000000000000000000000000000000000007bffffffffffffffffffffffffffffffffffffffffffffffffffffffff1916827bffffffffffffffffffffffffffffffffffffffffffffffffffffffff1916149050919050565b611a5484848484611dc2565b50505050565b60008473ffffffffffffffffffffffffffffffffffffffff163b1115611c06578373ffffffffffffffffffffffffffffffffffffffff1663f23a6e6187878686866040518663ffffffff1660e01b8152600401611abb959493929190613448565b6020604051808303816000875af1925050508015611af757506040513d601f19601f82011682018060405250810190611af491906134b7565b60015b611b7b573d8060008114611b27576040519150601f19603f3d011682016040523d82523d6000602084013e611b2c565b606091505b506000815103611b7357846040517f57f447ce000000000000000000000000000000000000000000000000000000008152600401611b6a91906133af565b60405180910390fd5b805181602001fd5b63f23a6e6160e01b7bffffffffffffffffffffffffffffffffffffffffffffffffffffffff1916817bffffffffffffffffffffffffffffffffffffffffffffffffffffffff191614611c0457846040517f57f447ce000000000000000000000000000000000000000000000000000000008152600401611bfb91906133af565b60405180910390fd5b505b505050505050565b60008473ffffffffffffffffffffffffffffffffffffffff163b1115611dba578373ffffffffffffffffffffffffffffffffffffffff1663bc197c8187878686866040518663ffffffff1660e01b8152600401611c6f9594939291906134e4565b6020604051808303816000875af1925050508015611cab57506040513d601f19601f82011682018060405250810190611ca891906134b7565b60015b611d2f573d8060008114611cdb576040519150601f19603f3d011682016040523d82523d6000602084013e611ce0565b606091505b506000815103611d2757846040517f57f447ce000000000000000000000000000000000000000000000000000000008152600401611d1e91906133af565b60405180910390fd5b805181602001fd5b63bc197c8160e01b7bffffffffffffffffffffffffffffffffffffffffffffffffffffffff1916817bffffffffffffffffffffffffffffffffffffffffffffffffffffffff191614611db857846040517f57f447ce000000000000000000000000000000000000000000000000000000008152600401611daf91906133af565b60405180910390fd5b505b505050505050565b611dce84848484611f59565b600073ffffffffffffffffffffffffffffffffffffffff168473ffffffffffffffffffffffffffffffffffffffff1603611e9e576000805b8351811015611e82576000611e24828561128290919063ffffffff16565b90508060056000611e3e858961128290919063ffffffff16565b81526020019081526020016000206000828254611e5b919061354c565b925050819055508083611e6e919061354c565b92505080611e7b906130e9565b9050611e06565b508060066000828254611e95919061354c565b92505081905550505b600073ffffffffffffffffffffffffffffffffffffffff168373ffffffffffffffffffffffffffffffffffffffff1603611f53576000805b8351811015611f40576000611ef4828561128290919063ffffffff16565b90508060056000611f0e858961128290919063ffffffff16565b81526020019081526020016000206000828254039250508190555080830192505080611f39906130e9565b9050611ed6565b5080600660008282540392505081905550505b50505050565b611f6161199d565b611f6d84848484611f73565b50505050565b8051825114611fbd57815181516040517f5b059991000000000000000000000000000000000000000000000000000000008152600401611fb4929190613062565b60405180910390fd5b6000611fc7610f26565b905060005b83518110156121dc576000611fea828661128290919063ffffffff16565b90506000612001838661128290919063ffffffff16565b9050600073ffffffffffffffffffffffffffffffffffffffff168873ffffffffffffffffffffffffffffffffffffffff161461212e57600080600084815260200190815260200160002060008a73ffffffffffffffffffffffffffffffffffffffff1673ffffffffffffffffffffffffffffffffffffffff168152602001908152602001600020549050818110156120d657888183856040517f03dee4c50000000000000000000000000000000000000000000000000000000081526004016120cd9493929190613580565b60405180910390fd5b81810360008085815260200190815260200160002060008b73ffffffffffffffffffffffffffffffffffffffff1673ffffffffffffffffffffffffffffffffffffffff16815260200190815260200160002081905550505b600073ffffffffffffffffffffffffffffffffffffffff168773ffffffffffffffffffffffffffffffffffffffff16146121c9578060008084815260200190815260200160002060008973ffffffffffffffffffffffffffffffffffffffff1673ffffffffffffffffffffffffffffffffffffffff16815260200190815260200160002060008282546121c1919061354c565b925050819055505b5050806121d5906130e9565b9050611fcc565b50600183510361229b5760006121fc60008561128290919063ffffffff16565b9050600061221460008561128290919063ffffffff16565b90508573ffffffffffffffffffffffffffffffffffffffff168773ffffffffffffffffffffffffffffffffffffffff168473ffffffffffffffffffffffffffffffffffffffff167fc3d58168c5ae7397731d063d5bbf3d657854427343f4c083240f7aacaa2d0f62858560405161228c929190613062565b60405180910390a4505061231a565b8373ffffffffffffffffffffffffffffffffffffffff168573ffffffffffffffffffffffffffffffffffffffff168273ffffffffffffffffffffffffffffffffffffffff167f4a39dc06d4c0dbc64b70af90fd698a233a518aa5d07e595d983b8c0526c8f7fb86866040516123119291906135c5565b60405180910390a45b5050505050565b6000604051905090565b600080fd5b600080fd5b600073ffffffffffffffffffffffffffffffffffffffff82169050919050565b600061236082612335565b9050919050565b61237081612355565b811461237b57600080fd5b50565b60008135905061238d81612367565b92915050565b6000819050919050565b6123a681612393565b81146123b157600080fd5b50565b6000813590506123c38161239d565b92915050565b600080604083850312156123e0576123df61232b565b5b60006123ee8582860161237e565b92505060206123ff858286016123b4565b9150509250929050565b61241281612393565b82525050565b600060208201905061242d6000830184612409565b92915050565b60007fffffffff0000000000000000000000000000000000000000000000000000000082169050919050565b61246881612433565b811461247357600080fd5b50565b6000813590506124858161245f565b92915050565b6000602082840312156124a1576124a061232b565b5b60006124af84828501612476565b91505092915050565b60008115159050919050565b6124cd816124b8565b82525050565b60006020820190506124e860008301846124c4565b92915050565b600080fd5b600080fd5b6000601f19601f8301169050919050565b7f4e487b7100000000000000000000000000000000000000000000000000000000600052604160045260246000fd5b612541826124f8565b810181811067ffffffffffffffff821117156125605761255f612509565b5b80604052505050565b6000612573612321565b905061257f8282612538565b919050565b600067ffffffffffffffff82111561259f5761259e612509565b5b6125a8826124f8565b9050602081019050919050565b82818337600083830152505050565b60006125d76125d284612584565b612569565b9050828152602081018484840111156125f3576125f26124f3565b5b6125fe8482856125b5565b509392505050565b600082601f83011261261b5761261a6124ee565b5b813561262b8482602086016125c4565b91505092915050565b60006020828403121561264a5761264961232b565b5b600082013567ffffffffffffffff81111561266857612667612330565b5b61267484828501612606565b91505092915050565b6000602082840312156126935761269261232b565b5b60006126a1848285016123b4565b91505092915050565b600081519050919050565b600082825260208201905092915050565b60005b838110156126e45780820151818401526020810190506126c9565b60008484015250505050565b60006126fb826126aa565b61270581856126b5565b93506127158185602086016126c6565b61271e816124f8565b840191505092915050565b6000602082019050818103600083015261274381846126f0565b905092915050565b600067ffffffffffffffff82111561276657612765612509565b5b602082029050602081019050919050565b600080fd5b600061278f61278a8461274b565b612569565b905080838252602082019050602084028301858111156127b2576127b1612777565b5b835b818110156127db57806127c788826123b4565b8452602084019350506020810190506127b4565b5050509392505050565b600082601f8301126127fa576127f96124ee565b5b813561280a84826020860161277c565b91505092915050565b600067ffffffffffffffff82111561282e5761282d612509565b5b612837826124f8565b9050602081019050919050565b600061285761285284612813565b612569565b905082815260208101848484011115612873576128726124f3565b5b61287e8482856125b5565b509392505050565b600082601f83011261289b5761289a6124ee565b5b81356128ab848260208601612844565b91505092915050565b600080600080608085870312156128ce576128cd61232b565b5b60006128dc8782880161237e565b945050602085013567ffffffffffffffff8111156128fd576128fc612330565b5b612909878288016127e5565b935050604085013567ffffffffffffffff81111561292a57612929612330565b5b612936878288016127e5565b925050606085013567ffffffffffffffff81111561295757612956612330565b5b61296387828801612886565b91505092959194509250565b6000819050919050565b6129828161296f565b811461298d57600080fd5b50565b60008135905061299f81612979565b92915050565b6000602082840312156129bb576129ba61232b565b5b60006129c984828501612990565b91505092915050565b6129db8161296f565b82525050565b60006020820190506129f660008301846129d2565b92915050565b600080600080600060a08688031215612a1857612a1761232b565b5b6000612a268882890161237e565b9550506020612a378882890161237e565b945050604086013567ffffffffffffffff811115612a5857612a57612330565b5b612a64888289016127e5565b935050606086013567ffffffffffffffff811115612a8557612a84612330565b5b612a91888289016127e5565b925050608086013567ffffffffffffffff811115612ab257612ab1612330565b5b612abe88828901612886565b9150509295509295909350565b60008060408385031215612ae257612ae161232b565b5b6000612af085828601612990565b9250506020612b018582860161237e565b9150509250929050565b600067ffffffffffffffff821115612b2657612b25612509565b5b602082029050602081019050919050565b6000612b4a612b4584612b0b565b612569565b90508083825260208201905060208402830185811115612b6d57612b6c612777565b5b835b81811015612b965780612b82888261237e565b845260208401935050602081019050612b6f565b5050509392505050565b600082601f830112612bb557612bb46124ee565b5b8135612bc5848260208601612b37565b91505092915050565b60008060408385031215612be557612be461232b565b5b600083013567ffffffffffffffff811115612c0357612c02612330565b5b612c0f85828601612ba0565b925050602083013567ffffffffffffffff811115612c3057612c2f612330565b5b612c3c858286016127e5565b9150509250929050565b600081519050919050565b600082825260208201905092915050565b6000819050602082019050919050565b612c7b81612393565b82525050565b6000612c8d8383612c72565b60208301905092915050565b6000602082019050919050565b6000612cb182612c46565b612cbb8185612c51565b9350612cc683612c62565b8060005b83811015612cf7578151612cde8882612c81565b9750612ce983612c99565b925050600181019050612cca565b5085935050505092915050565b60006020820190508181036000830152612d1e8184612ca6565b905092915050565b600080600060608486031215612d3f57612d3e61232b565b5b6000612d4d8682870161237e565b935050602084013567ffffffffffffffff811115612d6e57612d6d612330565b5b612d7a868287016127e5565b925050604084013567ffffffffffffffff811115612d9b57612d9a612330565b5b612da7868287016127e5565b9150509250925092565b60008060008060808587031215612dcb57612dca61232b565b5b6000612dd98782880161237e565b9450506020612dea878288016123b4565b9350506040612dfb878288016123b4565b925050606085013567ffffffffffffffff811115612e1c57612e1b612330565b5b612e2887828801612886565b91505092959194509250565b612e3d816124b8565b8114612e4857600080fd5b50565b600081359050612e5a81612e34565b92915050565b60008060408385031215612e7757612e7661232b565b5b6000612e858582860161237e565b9250506020612e9685828601612e4b565b9150509250929050565b60008060408385031215612eb757612eb661232b565b5b6000612ec58582860161237e565b9250506020612ed68582860161237e565b9150509250929050565b600080600080600060a08688031215612efc57612efb61232b565b5b6000612f0a8882890161237e565b9550506020612f1b8882890161237e565b9450506040612f2c888289016123b4565b9350506060612f3d888289016123b4565b925050608086013567ffffffffffffffff811115612f5e57612f5d612330565b5b612f6a88828901612886565b9150509295509295909350565b600080600060608486031215612f9057612f8f61232b565b5b6000612f9e8682870161237e565b9350506020612faf868287016123b4565b9250506040612fc0868287016123b4565b9150509250925092565b7f4e487b7100000000000000000000000000000000000000000000000000000000600052602260045260246000fd5b6000600282049050600182168061301157607f821691505b60208210810361302457613023612fca565b5b50919050565b61303381612355565b82525050565b600060408201905061304e600083018561302a565b61305b602083018461302a565b9392505050565b60006040820190506130776000830185612409565b6130846020830184612409565b9392505050565b7f4e487b7100000000000000000000000000000000000000000000000000000000600052603260045260246000fd5b7f4e487b7100000000000000000000000000000000000000000000000000000000600052601160045260246000fd5b60006130f482612393565b91507fffffffffffffffffffffffffffffffffffffffffffffffffffffffffffffffff8203613126576131256130ba565b5b600182019050919050565b60008190508160005260206000209050919050565b60006020601f8301049050919050565b600082821b905092915050565b6000600883026131937fffffffffffffffffffffffffffffffffffffffffffffffffffffffffffffffff82613156565b61319d8683613156565b95508019841693508086168417925050509392505050565b6000819050919050565b60006131da6131d56131d084612393565b6131b5565b612393565b9050919050565b6000819050919050565b6131f4836131bf565b613208613200826131e1565b848454613163565b825550505050565b600090565b61321d613210565b6132288184846131eb565b505050565b5b8181101561324c57613241600082613215565b60018101905061322e565b5050565b601f8211156132915761326281613131565b61326b84613146565b8101602085101561327a578190505b61328e61328685613146565b83018261322d565b50505b505050565b600082821c905092915050565b60006132b460001984600802613296565b1980831691505092915050565b60006132cd83836132a3565b9150826002028217905092915050565b6132e6826126aa565b67ffffffffffffffff8111156132ff576132fe612509565b5b6133098254612ff9565b613314828285613250565b600060209050601f8311600181146133475760008415613335578287015190505b61333f85826132c1565b8655506133a7565b601f19841661335586613131565b60005b8281101561337d57848901518255600182019150602085019450602081019050613358565b8683101561339a5784890151613396601f8916826132a3565b8355505b6001600288020188555050505b505050505050565b60006020820190506133c4600083018461302a565b92915050565b60006040820190506133df600083018561302a565b6133ec60208301846129d2565b9392505050565b600081519050919050565b600082825260208201905092915050565b600061341a826133f3565b61342481856133fe565b93506134348185602086016126c6565b61343d816124f8565b840191505092915050565b600060a08201905061345d600083018861302a565b61346a602083018761302a565b6134776040830186612409565b6134846060830185612409565b8181036080830152613496818461340f565b90509695505050505050565b6000815190506134b18161245f565b92915050565b6000602082840312156134cd576134cc61232b565b5b60006134db848285016134a2565b91505092915050565b600060a0820190506134f9600083018861302a565b613506602083018761302a565b81810360408301526135188186612ca6565b9050818103606083015261352c8185612ca6565b90508181036080830152613540818461340f565b90509695505050505050565b600061355782612393565b915061356283612393565b925082820190508082111561357a576135796130ba565b5b92915050565b6000608082019050613595600083018761302a565b6135a26020830186612409565b6135af6040830185612409565b6135bc6060830184612409565b95945050505050565b600060408201905081810360008301526135df8185612ca6565b905081810360208301526135f38184612ca6565b9050939250505056fea2646970667358221220011195b1f43c85cbf2e433088ef50d1487dadb6c5d0df95c990dd7ed19710f9964736f6c63430008140033",
  "linkReferences": {},
  "deployedLinkReferences": {}
}