{
  "_format": "hh-sol-artifact-1",
  "contractName": "IPDocV9",
  "sourceName": "contracts/IPDocV9.sol",
  "abi": [
    {
      "inputs": [
        {
          "internalType": "address",
          "name": "defaultAdmin",
          "type": "address"
        },
        {
          "internalType": "address",
          "name": "pauser",
          "type": "address"
        },
        {
          "internalType": "address",
          "name": "minter",
          "type": "address"
        }
      ],
      "stateMutability": "nonpayable",
      "type": "constructor"
    },
    {
      "inputs": [],
      "name": "AccessControlBadConfirmation",
      "type": "error"
    },
    {
      "inputs": [
        {
          "internalType": "address",
          "name": "account",
          "type": "address"
        },
        {
          "internalType": "bytes32",
          "name": "neededRole",
          "type": "bytes32"
        }
      ],
      "name": "AccessControlUnauthorizedAccount",
      "type": "error"
    },
    {
      "inputs": [
        {
          "internalType": "address",
          "name": "sender",
          "type": "address"
        },
        {
          "internalType": "uint256",
          "name": "balance",
          "type": "uint256"
        },
        {
          "internalType": "uint256",
          "name": "needed",
          "type": "uint256"
        },
        {
          "internalType": "uint256",
          "name": "tokenId",
          "type": "uint256"
        }
      ],
      "name": "ERC1155InsufficientBalance",
      "type": "error"
    },
    {
      "inputs": [
        {
          "internalType": "address",
          "name": "approver",
          "type": "address"
        }
      ],
      "name": "ERC1155InvalidApprover",
      "type": "error"
    },
    {
      "inputs": [
        {
          "internalType": "uint256",
          "name": "idsLength",
          "type": "uint256"
        },
        {
          "internalType": "uint256",
          "name": "valuesLength",
          "type": "uint256"
        }
      ],
      "name": "ERC1155InvalidArrayLength",
      "type": "error"
    },
    {
      "inputs": [
        {
          "internalType": "address",
          "name": "operator",
          "type": "address"
        }
      ],
      "name": "ERC1155InvalidOperator",
      "type": "error"
    },
    {
      "inputs": [
        {
          "internalType": "address",
          "name": "receiver",
          "type": "address"
        }
      ],
      "name": "ERC1155InvalidReceiver",
      "type": "error"
    },
    {
      "inputs": [
        {
          "internalType": "address",
          "name": "sender",
          "type": "address"
        }
      ],
      "name": "ERC1155InvalidSender",
      "type": "error"
    },
    {
      "inputs": [
        {
          "internalType": "address",
          "name": "operator",
          "type": "address"
        },
        {
          "internalType": "address",
          "name": "owner",
          "type": "address"
        }
      ],
      "name": "ERC1155MissingApprovalForAll",
      "type": "error"
    },
    {
      "inputs": [],
      "name": "EnforcedPause",
      "type": "error"
    },
    {
      "inputs": [],
      "name": "ExpectedPause",
      "type": "error"
    },
    {
      "anonymous": false,
      "inputs": [
        {
          "indexed": true,
          "internalType": "address",
          "name": "account",
          "type": "address"
        },
        {
          "indexed": true,
          "internalType": "address",
          "name": "operator",
          "type": "address"
        },
        {
          "indexed": false,
          "internalType": "bool",
          "name": "approved",
          "type": "bool"
        }
      ],
      "name": "ApprovalForAll",
      "type": "event"
    },
    {
      "anonymous": false,
      "inputs": [
        {
          "indexed": true,
          "internalType": "address",
          "name": "account",
          "type": "address"
        },
        {
          "indexed": true,
          "internalType": "uint256",
          "name": "tokenId",
          "type": "uint256"
        },
        {
          "indexed": false,
          "internalType": "uint256",
          "name": "expirationTime",
          "type": "uint256"
        }
      ],
      "name": "ExpirationSet",
      "type": "event"
    },
    {
      "anonymous": false,
      "inputs": [
        {
          "indexed": true,
          "internalType": "bytes32",
          "name": "externalId",
          "type": "bytes32"
        },
        {
          "indexed": true,
          "internalType": "uint256",
          "name": "tokenId",
          "type": "uint256"
        }
      ],
      "name": "IDCreated",
      "type": "event"
    },
    {
      "anonymous": false,
      "inputs": [
        {
          "indexed": false,
          "internalType": "address",
          "name": "account",
          "type": "address"
        }
      ],
      "name": "Paused",
      "type": "event"
    },
    {
      "anonymous": false,
      "inputs": [
        {
          "indexed": true,
          "internalType": "bytes32",
          "name": "role",
          "type": "bytes32"
        },
        {
          "indexed": true,
          "internalType": "bytes32",
          "name": "previousAdminRole",
          "type": "bytes32"
        },
        {
          "indexed": true,
          "internalType": "bytes32",
          "name": "newAdminRole",
          "type": "bytes32"
        }
      ],
      "name": "RoleAdminChanged",
      "type": "event"
    },
    {
      "anonymous": false,
      "inputs": [
        {
          "indexed": true,
          "internalType": "bytes32",
          "name": "role",
          "type": "bytes32"
        },
        {
          "indexed": true,
          "internalType": "address",
          "name": "account",
          "type": "address"
        },
        {
          "indexed": true,
          "internalType": "address",
          "name": "sender",
          "type": "address"
        }
      ],
      "name": "RoleGranted",
      "type": "event"
    },
    {
      "anonymous": false,
      "inputs": [
        {
          "indexed": true,
          "internalType": "bytes32",
          "name": "role",
          "type": "bytes32"
        },
        {
          "indexed": true,
          "internalType": "address",
          "name": "account",
          "type": "address"
        },
        {
          "indexed": true,
          "internalType": "address",
          "name": "sender",
          "type": "address"
        }
      ],
      "name": "RoleRevoked",
      "type": "event"
    },
    {
      "anonymous": false,
      "inputs": [
        {
          "indexed": true,
          "internalType": "address",
          "name": "operator",
          "type": "address"
        },
        {
          "indexed": true,
          "internalType": "address",
          "name": "from",
          "type": "address"
        },
        {
          "indexed": true,
          "internalType": "address",
          "name": "to",
          "type": "address"
        },
        {
          "indexed": false,
          "internalType": "uint256[]",
          "name": "ids",
          "type": "uint256[]"
        },
        {
          "indexed": false,
          "internalType": "uint256[]",
          "name": "values",
          "type": "uint256[]"
        }
      ],
      "name": "TransferBatch",
      "type": "event"
    },
    {
      "anonymous": false,
      "inputs": [
        {
          "indexed": true,
          "internalType": "address",
          "name": "operator",
          "type": "address"
        },
        {
          "indexed": true,
          "internalType": "address",
          "name": "from",
          "type": "address"
        },
        {
          "indexed": true,
          "internalType": "address",
          "name": "to",
          "type": "address"
        },
        {
          "indexed": false,
          "internalType": "uint256",
          "name": "id",
          "type": "uint256"
        },
        {
          "indexed": false,
          "internalType": "uint256",
          "name": "value",
          "type": "uint256"
        }
      ],
      "name": "TransferSingle",
      "type": "event"
    },
    {
      "anonymous": false,
      "inputs": [
        {
          "indexed": false,
          "internalType": "string",
          "name": "value",
          "type": "string"
        },
        {
          "indexed": true,
          "internalType": "uint256",
          "name": "id",
          "type": "uint256"
        }
      ],
      "name": "URI",
      "type": "event"
    },
    {
      "anonymous": false,
      "inputs": [
        {
          "indexed": false,
          "internalType": "address",
          "name": "account",
          "type": "address"
        }
      ],
      "name": "Unpaused",
      "type": "event"
    },
    {
      "inputs": [],
      "name": "DEFAULT_ADMIN_ROLE",
      "outputs": [
        {
          "internalType": "bytes32",
          "name": "",
          "type": "bytes32"
        }
      ],
      "stateMutability": "view",
      "type": "function"
    },
    {
      "inputs": [],
      "name": "EXPIRATION_MANAGER_ROLE",
      "outputs": [
        {
          "internalType": "bytes32",
          "name": "",
          "type": "bytes32"
        }
      ],
      "stateMutability": "view",
      "type": "function"
    },
    {
      "inputs": [],
      "name": "MINTER_ROLE",
      "outputs": [
        {
          "internalType": "bytes32",
          "name": "",
          "type": "bytes32"
        }
      ],
      "stateMutability": "view",
      "type": "function"
    },
    {
      "inputs": [],
      "name": "PAUSER_ROLE",
      "outputs": [
        {
          "internalType": "bytes32",
          "name": "",
          "type": "bytes32"
        }
      ],
      "stateMutability": "view",
      "type": "function"
    },
    {
      "inputs": [],
      "name": "URI_SETTER_ROLE",
      "outputs": [
        {
          "internalType": "bytes32",
          "name": "",
          "type": "bytes32"
        }
      ],
      "stateMutability": "view",
      "type": "function"
    },
    {
      "inputs": [
        {
          "internalType": "address",
          "name": "account",
          "type": "address"
        },
        {
          "internalType": "uint256",
          "name": "id",
          "type": "uint256"
        }
      ],
      "name": "balanceOf",
      "outputs": [
        {
          "internalType": "uint256",
          "name": "",
          "type": "uint256"
        }
      ],
      "stateMutability": "view",
      "type": "function"
    },
    {
      "inputs": [
        {
          "internalType": "address[]",
          "name": "accounts",
          "type": "address[]"
        },
        {
          "internalType": "uint256[]",
          "name": "ids",
          "type": "uint256[]"
        }
      ],
      "name": "balanceOfBatch",
      "outputs": [
        {
          "internalType": "uint256[]",
          "name": "",
          "type": "uint256[]"
        }
      ],
      "stateMutability": "view",
      "type": "function"
    },
    {
      "inputs": [
        {
          "internalType": "address",
          "name": "account",
          "type": "address"
        },
        {
          "internalType": "uint256",
          "name": "id",
          "type": "uint256"
        },
        {
          "internalType": "uint256",
          "name": "value",
          "type": "uint256"
        }
      ],
      "name": "burn",
      "outputs": [],
      "stateMutability": "nonpayable",
      "type": "function"
    },
    {
      "inputs": [
        {
          "internalType": "address",
          "name": "account",
          "type": "address"
        },
        {
          "internalType": "uint256[]",
          "name": "ids",
          "type": "uint256[]"
        },
        {
          "internalType": "uint256[]",
          "name": "values",
          "type": "uint256[]"
        }
      ],
      "name": "burnBatch",
      "outputs": [],
      "stateMutability": "nonpayable",
      "type": "function"
    },
    {
      "inputs": [
        {
          "internalType": "bytes32",
          "name": "externalId",
          "type": "bytes32"
        }
      ],
      "name": "createId",
      "outputs": [],
      "stateMutability": "nonpayable",
      "type": "function"
    },
    {
      "inputs": [
        {
          "internalType": "bytes32[]",
          "name": "externalIds",
          "type": "bytes32[]"
        }
      ],
      "name": "createIds",
      "outputs": [],
      "stateMutability": "nonpayable",
      "type": "function"
    },
    {
      "inputs": [
        {
          "internalType": "uint256",
          "name": "id",
          "type": "uint256"
        }
      ],
      "name": "exists",
      "outputs": [
        {
          "internalType": "bool",
          "name": "",
          "type": "bool"
        }
      ],
      "stateMutability": "view",
      "type": "function"
    },
    {
      "inputs": [
        {
          "internalType": "address",
          "name": "account",
          "type": "address"
        },
        {
          "internalType": "uint256",
          "name": "id",
          "type": "uint256"
        }
      ],
      "name": "getExpiration",
      "outputs": [
        {
          "internalType": "uint256",
          "name": "",
          "type": "uint256"
        }
      ],
      "stateMutability": "view",
      "type": "function"
    },
    {
      "inputs": [
        {
          "internalType": "uint256",
          "name": "tokenId",
          "type": "uint256"
        }
      ],
      "name": "getExternalId",
      "outputs": [
        {
          "internalType": "bytes32",
          "name": "",
          "type": "bytes32"
        }
      ],
      "stateMutability": "view",
      "type": "function"
    },
    {
      "inputs": [
        {
          "internalType": "bytes32",
          "name": "externalId",
          "type": "bytes32"
        }
      ],
      "name": "getId",
      "outputs": [
        {
          "internalType": "uint256",
          "name": "",
          "type": "uint256"
        }
      ],
      "stateMutability": "view",
      "type": "function"
    },
    {
      "inputs": [
        {
          "internalType": "bytes32",
          "name": "role",
          "type": "bytes32"
        }
      ],
      "name": "getRoleAdmin",
      "outputs": [
        {
          "internalType": "bytes32",
          "name": "",
          "type": "bytes32"
        }
      ],
      "stateMutability": "view",
      "type": "function"
    },
    {
      "inputs": [
        {
          "internalType": "bytes32",
          "name": "role",
          "type": "bytes32"
        },
        {
          "internalType": "address",
          "name": "account",
          "type": "address"
        }
      ],
      "name": "grantRole",
      "outputs": [],
      "stateMutability": "nonpayable",
      "type": "function"
    },
    {
      "inputs": [
        {
          "internalType": "bytes32",
          "name": "role",
          "type": "bytes32"
        },
        {
          "internalType": "address",
          "name": "account",
          "type": "address"
        }
      ],
      "name": "hasRole",
      "outputs": [
        {
          "internalType": "bool",
          "name": "",
          "type": "bool"
        }
      ],
      "stateMutability": "view",
      "type": "function"
    },
    {
      "inputs": [
        {
          "internalType": "address",
          "name": "account",
          "type": "address"
        },
        {
          "internalType": "address",
          "name": "operator",
          "type": "address"
        }
      ],
      "name": "isApprovedForAll",
      "outputs": [
        {
          "internalType": "bool",
          "name": "",
          "type": "bool"
        }
      ],
      "stateMutability": "view",
      "type": "function"
    },
    {
      "inputs": [
        {
          "internalType": "address",
          "name": "account",
          "type": "address"
        },
        {
          "internalType": "uint256",
          "name": "id",
          "type": "uint256"
        }
      ],
      "name": "isExpired",
      "outputs": [
        {
          "internalType": "bool",
          "name": "",
          "type": "bool"
        }
      ],
      "stateMutability": "view",
      "type": "function"
    },
    {
      "inputs": [
        {
          "internalType": "address",
          "name": "account",
          "type": "address"
        },
        {
          "internalType": "uint256",
          "name": "id",
          "type": "uint256"
        },
        {
          "internalType": "uint256",
          "name": "amount",
          "type": "uint256"
        },
        {
          "internalType": "bytes",
          "name": "data",
          "type": "bytes"
        }
      ],
      "name": "mint",
      "outputs": [],
      "stateMutability": "nonpayable",
      "type": "function"
    },
    {
      "inputs": [
        {
          "internalType": "address",
          "name": "to",
          "type": "address"
        },
        {
          "internalType": "uint256[]",
          "name": "ids",
          "type": "uint256[]"
        },
        {
          "internalType": "uint256[]",
          "name": "amounts",
          "type": "uint256[]"
        },
        {
          "internalType": "bytes",
          "name": "data",
          "type": "bytes"
        }
      ],
      "name": "mintBatch",
      "outputs": [],
      "stateMutability": "nonpayable",
      "type": "function"
    },
    {
      "inputs": [
        {
          "internalType": "address",
          "name": "to",
          "type": "address"
        },
        {
          "internalType": "uint256[]",
          "name": "ids",
          "type": "uint256[]"
        },
        {
          "internalType": "uint256[]",
          "name": "amounts",
          "type": "uint256[]"
        },
        {
          "internalType": "uint256[]",
          "name": "expirationTimes",
          "type": "uint256[]"
        },
        {
          "internalType": "bytes",
          "name": "data",
          "type": "bytes"
        }
      ],
      "name": "mintBatchWithExpiration",
      "outputs": [],
      "stateMutability": "nonpayable",
      "type": "function"
    },
    {
      "inputs": [
        {
          "internalType": "address",
          "name": "account",
          "type": "address"
        },
        {
          "internalType": "uint256",
          "name": "id",
          "type": "uint256"
        },
        {
          "internalType": "uint256",
          "name": "amount",
          "type": "uint256"
        },
        {
          "internalType": "uint256",
          "name": "expirationTime",
          "type": "uint256"
        },
        {
          "internalType": "bytes",
          "name": "data",
          "type": "bytes"
        }
      ],
      "name": "mintWithExpiration",
      "outputs": [],
      "stateMutability": "nonpayable",
      "type": "function"
    },
    {
      "inputs": [],
      "name": "pause",
      "outputs": [],
      "stateMutability": "nonpayable",
      "type": "function"
    },
    {
      "inputs": [],
      "name": "paused",
      "outputs": [
        {
          "internalType": "bool",
          "name": "",
          "type": "bool"
        }
      ],
      "stateMutability": "view",
      "type": "function"
    },
    {
      "inputs": [
        {
          "internalType": "bytes32",
          "name": "role",
          "type": "bytes32"
        },
        {
          "internalType": "address",
          "name": "callerConfirmation",
          "type": "address"
        }
      ],
      "name": "renounceRole",
      "outputs": [],
      "stateMutability": "nonpayable",
      "type": "function"
    },
    {
      "inputs": [
        {
          "internalType": "bytes32",
          "name": "role",
          "type": "bytes32"
        },
        {
          "internalType": "address",
          "name": "account",
          "type": "address"
        }
      ],
      "name": "revokeRole",
      "outputs": [],
      "stateMutability": "nonpayable",
      "type": "function"
    },
    {
      "inputs": [
        {
          "internalType": "address",
          "name": "from",
          "type": "address"
        },
        {
          "internalType": "address",
          "name": "to",
          "type": "address"
        },
        {
          "internalType": "uint256[]",
          "name": "ids",
          "type": "uint256[]"
        },
        {
          "internalType": "uint256[]",
          "name": "values",
          "type": "uint256[]"
        },
        {
          "internalType": "bytes",
          "name": "data",
          "type": "bytes"
        }
      ],
      "name": "safeBatchTransferFrom",
      "outputs": [],
      "stateMutability": "nonpayable",
      "type": "function"
    },
    {
      "inputs": [
        {
          "internalType": "address",
          "name": "from",
          "type": "address"
        },
        {
          "internalType": "address",
          "name": "to",
          "type": "address"
        },
        {
          "internalType": "uint256",
          "name": "id",
          "type": "uint256"
        },
        {
          "internalType": "uint256",
          "name": "value",
          "type": "uint256"
        },
        {
          "internalType": "bytes",
          "name": "data",
          "type": "bytes"
        }
      ],
      "name": "safeTransferFrom",
      "outputs": [],
      "stateMutability": "nonpayable",
      "type": "function"
    },
    {
      "inputs": [
        {
          "internalType": "address",
          "name": "operator",
          "type": "address"
        },
        {
          "internalType": "bool",
          "name": "approved",
          "type": "bool"
        }
      ],
      "name": "setApprovalForAll",
      "outputs": [],
      "stateMutability": "nonpayable",
      "type": "function"
    },
    {
      "inputs": [
        {
          "internalType": "string",
          "name": "baseURI",
          "type": "string"
        }
      ],
      "name": "setBaseURI",
      "outputs": [],
      "stateMutability": "nonpayable",
      "type": "function"
    },
    {
      "inputs": [
        {
          "internalType": "address",
          "name": "account",
          "type": "address"
        },
        {
          "internalType": "uint256[]",
          "name": "ids",
          "type": "uint256[]"
        },
        {
          "internalType": "uint256[]",
          "name": "expirationTimes",
          "type": "uint256[]"
        }
      ],
      "name": "setBatchExpiration",
      "outputs": [],
      "stateMutability": "nonpayable",
      "type": "function"
    },
    {
      "inputs": [
        {
          "internalType": "address",
          "name": "account",
          "type": "address"
        },
        {
          "internalType": "uint256",
          "name": "id",
          "type": "uint256"
        },
        {
          "internalType": "uint256",
          "name": "expirationTime",
          "type": "uint256"
        }
      ],
      "name": "setExpiration",
      "outputs": [],
      "stateMutability": "nonpayable",
      "type": "function"
    },
    {
      "inputs": [
        {
          "internalType": "uint256",
          "name": "tokenId",
          "type": "uint256"
        },
        {
          "internalType": "string",
          "name": "tokenURI",
          "type": "string"
        }
      ],
      "name": "setTokenURI",
      "outputs": [],
      "stateMutability": "nonpayable",
      "type": "function"
    },
    {
      "inputs": [
        {
          "internalType": "string",
          "name": "newuri",
          "type": "string"
        }
      ],
      "name": "setURI",
      "outputs": [],
      "stateMutability": "nonpayable",
      "type": "function"
    },
    {
      "inputs": [
        {
          "internalType": "bytes4",
          "name": "interfaceId",
          "type": "bytes4"
        }
      ],
      "name": "supportsInterface",
      "outputs": [
        {
          "internalType": "bool",
          "name": "",
          "type": "bool"
        }
      ],
      "stateMutability": "view",
      "type": "function"
    },
    {
      "inputs": [],
      "name": "totalSupply",
      "outputs": [
        {
          "internalType": "uint256",
          "name": "",
          "type": "uint256"
        }
      ],
      "stateMutability": "view",
      "type": "function"
    },
    {
      "inputs": [
        {
          "internalType": "uint256",
          "name": "id",
          "type": "uint256"
        }
      ],
      "name": "totalSupply",
      "outputs": [
        {
          "internalType": "uint256",
          "name": "",
          "type": "uint256"
        }
      ],
      "stateMutability": "view",
      "type": "function"
    },
    {
      "inputs": [],
      "name": "unpause",
      "outputs": [],
      "stateMutability": "nonpayable",
      "type": "function"
    },
    {
      "inputs": [
        {
          "internalType": "uint256",
          "name": "tokenId",
          "type": "uint256"
        }
      ],
      "name": "uri",
      "outputs": [
        {
          "internalType": "string",
          "name": "",
          "type": "string"
        }
      ],
      "stateMutability": "view",
      "type": "function"
    }
  ],
  "bytecode": "0x60806040526040518060200160405280600081525060079081620000249190620005b1565b506001600b553480156200003757600080fd5b506040516200552f3803806200552f83398181016040528101906200005d919062000702565b6040518060400160405280601d81526020017f68747470733a2f2f73616665696465612e6e65742f646f632f7b69647d000000815250620000a481620001ab60201b60201c565b506000600460006101000a81548160ff021916908315150217905550620000d56000801b84620001c060201b60201c565b50620001087f7804d923f43a17d325d77e781528e0793b2edd9890ab45fc64efd7b4b427744c84620001c060201b60201c565b506200013b7f65d7a28e3265b37a6474929f336521b332c1681b933f6cb9f3376673440d862a83620001c060201b60201c565b506200016e7f9f2df0fed2c77648de5860a4cc508cd0818c85b8b8a1ab4ceeef8d981c8956a682620001c060201b60201c565b50620001a17f5bd33557d028fa6327a6c10090602e75b5763bcbc8c9d2f602672edd0eee7a0882620001c060201b60201c565b505050506200075e565b8060029081620001bc9190620005b1565b5050565b6000620001d48383620002c460201b60201c565b620002b95760016003600085815260200190815260200160002060000160008473ffffffffffffffffffffffffffffffffffffffff1673ffffffffffffffffffffffffffffffffffffffff16815260200190815260200160002060006101000a81548160ff021916908315150217905550620002556200032f60201b60201c565b73ffffffffffffffffffffffffffffffffffffffff168273ffffffffffffffffffffffffffffffffffffffff16847f2f8788117e7eff1d82e926ec794901d17c78024a50270940304540a733656f0d60405160405180910390a460019050620002be565b600090505b92915050565b60006003600084815260200190815260200160002060000160008373ffffffffffffffffffffffffffffffffffffffff1673ffffffffffffffffffffffffffffffffffffffff16815260200190815260200160002060009054906101000a900460ff16905092915050565b600033905090565b600081519050919050565b7f4e487b7100000000000000000000000000000000000000000000000000000000600052604160045260246000fd5b7f4e487b7100000000000000000000000000000000000000000000000000000000600052602260045260246000fd5b60006002820490506001821680620003b957607f821691505b602082108103620003cf57620003ce62000371565b5b50919050565b60008190508160005260206000209050919050565b60006020601f8301049050919050565b600082821b905092915050565b600060088302620004397fffffffffffffffffffffffffffffffffffffffffffffffffffffffffffffffff82620003fa565b620004458683620003fa565b95508019841693508086168417925050509392505050565b6000819050919050565b6000819050919050565b6000620004926200048c62000486846200045d565b62000467565b6200045d565b9050919050565b6000819050919050565b620004ae8362000471565b620004c6620004bd8262000499565b84845462000407565b825550505050565b600090565b620004dd620004ce565b620004ea818484620004a3565b505050565b5b81811015620005125762000506600082620004d3565b600181019050620004f0565b5050565b601f82111562000561576200052b81620003d5565b6200053684620003ea565b8101602085101562000546578190505b6200055e6200055585620003ea565b830182620004ef565b50505b505050565b600082821c905092915050565b6000620005866000198460080262000566565b1980831691505092915050565b6000620005a1838362000573565b9150826002028217905092915050565b620005bc8262000337565b67ffffffffffffffff811115620005d857620005d762000342565b5b620005e48254620003a0565b620005f182828562000516565b600060209050601f83116001811462000629576000841562000614578287015190505b62000620858262000593565b86555062000690565b601f1984166200063986620003d5565b60005b8281101562000663578489015182556001820191506020850194506020810190506200063c565b868310156200068357848901516200067f601f89168262000573565b8355505b6001600288020188555050505b505050505050565b600080fd5b600073ffffffffffffffffffffffffffffffffffffffff82169050919050565b6000620006ca826200069d565b9050919050565b620006dc81620006bd565b8114620006e857600080fd5b50565b600081519050620006fc81620006d1565b92915050565b6000806000606084860312156200071e576200071d62000698565b5b60006200072e86828701620006eb565b93505060206200074186828701620006eb565b92505060406200075486828701620006eb565b9150509250925092565b614dc1806200076e6000396000f3fe608060405234801561001057600080fd5b50600436106102525760003560e01c80635c975abb11610146578063bd85b039116100c3578063e63ab1e911610087578063e63ab1e9146106ef578063e985e9c51461070d578063ee037bf91461073d578063f07f55201461076d578063f242432a14610789578063f5298aca146107a557610252565b8063bd85b03914610639578063d4e5e76c14610669578063d539139314610685578063d547741f146106a3578063e5569773146106bf57610252565b80638456cb591161010a5780638456cb59146105a957806391d14854146105b35780639f5e61ee146105e3578063a217fddf146105ff578063a22cb4651461061d57610252565b80635c975abb1461051957806367614e62146105375780636b20c45414610553578063731133e91461056f5780637f3457101461058b57610252565b8063248a9ca3116101d45780633f4ba83a116101985780633f4ba83a146104755780634943f8f81461047f5780634e1273f41461049d5780634f558e79146104cd57806355f804b3146104fd57610252565b8063248a9ca3146103c15780632cac49c4146103f15780632eb2c2d6146104215780632f2ff15d1461043d57806336568abe1461045957610252565b8063151497931161021b578063151497931461031f578063162094c41461034f57806318160ddd1461036b5780631af189e1146103895780631f7fdffa146103a557610252565b8062fdd58e1461025757806301ffc9a71461028757806302fe5305146102b757806309dca9ce146102d35780630e89341c146102ef575b600080fd5b610271600480360381019061026c91906134b1565b6107c1565b60405161027e9190613500565b60405180910390f35b6102a1600480360381019061029c9190613573565b61089c565b6040516102ae91906135bb565b60405180910390f35b6102d160048036038101906102cc919061371c565b6108ae565b005b6102ed60048036038101906102e89190613863565b6108e5565b005b610309600480360381019061030491906138ac565b610956565b6040516103169190613958565b60405180910390f35b610339600480360381019061033491906134b1565b610968565b60405161034691906135bb565b60405180910390f35b6103696004803603810190610364919061397a565b6109d8565b005b610373610a11565b6040516103809190613500565b60405180910390f35b6103a3600480360381019061039e91906139d6565b610a1b565b005b6103bf60048036038101906103ba9190613b8d565b610b3b565b005b6103db60048036038101906103d69190613c48565b610b78565b6040516103e89190613c84565b60405180910390f35b61040b600480360381019061040691906134b1565b610b98565b6040516104189190613500565b60405180910390f35b61043b60048036038101906104369190613c9f565b610bf3565b005b61045760048036038101906104529190613d6e565b610c9b565b005b610473600480360381019061046e9190613d6e565b610cbd565b005b61047d610d38565b005b610487610d6d565b6040516104949190613c84565b60405180910390f35b6104b760048036038101906104b29190613e71565b610d91565b6040516104c49190613fa7565b60405180910390f35b6104e760048036038101906104e291906138ac565b610eaa565b6040516104f491906135bb565b60405180910390f35b6105176004803603810190610512919061371c565b610ebe565b005b610521610ef5565b60405161052e91906135bb565b60405180910390f35b610551600480360381019061054c9190613fc9565b610f0c565b005b61056d60048036038101906105689190613fc9565b611112565b005b61058960048036038101906105849190614054565b6111be565b005b6105936111fb565b6040516105a09190613c84565b60405180910390f35b6105b161121f565b005b6105cd60048036038101906105c89190613d6e565b611254565b6040516105da91906135bb565b60405180910390f35b6105fd60048036038101906105f891906140d7565b6112bf565b005b610607611491565b6040516106149190613c84565b60405180910390f35b610637600480360381019061063291906141ee565b611498565b005b610653600480360381019061064e91906138ac565b6114ae565b6040516106609190613500565b60405180910390f35b610683600480360381019061067e919061422e565b6114cb565b005b61068d6115b7565b60405161069a9190613c84565b60405180910390f35b6106bd60048036038101906106b89190613d6e565b6115db565b005b6106d960048036038101906106d49190613c48565b6115fd565b6040516106e69190613500565b60405180910390f35b6106f761161a565b6040516107049190613c84565b60405180910390f35b610727600480360381019061072291906142c5565b61163e565b60405161073491906135bb565b60405180910390f35b610757600480360381019061075291906138ac565b6116d2565b6040516107649190613c84565b60405180910390f35b61078760048036038101906107829190613c48565b6116ef565b005b6107a3600480360381019061079e9190614305565b611726565b005b6107bf60048036038101906107ba91906139d6565b6117ce565b005b6000806107ce848461187a565b9050600081148061080b5750600073ffffffffffffffffffffffffffffffffffffffff168473ffffffffffffffffffffffffffffffffffffffff16145b1561081a576000915050610896565b6000600c60008673ffffffffffffffffffffffffffffffffffffffff1673ffffffffffffffffffffffffffffffffffffffff1681526020019081526020016000206000858152602001908152602001600020549050600081141580156108805750428111155b1561089057600092505050610896565b81925050505b92915050565b60006108a7826118d4565b9050919050565b7f7804d923f43a17d325d77e781528e0793b2edd9890ab45fc64efd7b4b427744c6108d88161194e565b6108e182611962565b5050565b7f9f2df0fed2c77648de5860a4cc508cd0818c85b8b8a1ab4ceeef8d981c8956a661090f8161194e565b60005b82518110156109515761093e8382815181106109315761093061439c565b5b6020026020010151611975565b8080610949906143fa565b915050610912565b505050565b606061096182611a0e565b9050919050565b600080600c60008573ffffffffffffffffffffffffffffffffffffffff1673ffffffffffffffffffffffffffffffffffffffff1681526020019081526020016000206000848152602001908152602001600020549050600081141580156109cf5750428111155b91505092915050565b7f7804d923f43a17d325d77e781528e0793b2edd9890ab45fc64efd7b4b427744c610a028161194e565b610a0c8383611af3565b505050565b6000600654905090565b7f5bd33557d028fa6327a6c10090602e75b5763bcbc8c9d2f602672edd0eee7a08610a458161194e565b6000610a51858561187a565b11610a91576040517f08c379a0000000000000000000000000000000000000000000000000000000008152600401610a88906144b4565b60405180910390fd5b81600c60008673ffffffffffffffffffffffffffffffffffffffff1673ffffffffffffffffffffffffffffffffffffffff168152602001908152602001600020600085815260200190815260200160002081905550828473ffffffffffffffffffffffffffffffffffffffff167f1347ce935d48b1622e772cb855c5f27a0956e54f183acdd65752106fa013cd0884604051610b2d9190613500565b60405180910390a350505050565b7f9f2df0fed2c77648de5860a4cc508cd0818c85b8b8a1ab4ceeef8d981c8956a6610b658161194e565b610b7185858585611b58565b5050505050565b600060036000838152602001908152602001600020600101549050919050565b6000600c60008473ffffffffffffffffffffffffffffffffffffffff1673ffffffffffffffffffffffffffffffffffffffff168152602001908152602001600020600083815260200190815260200160002054905092915050565b6000610bfd611bde565b90508073ffffffffffffffffffffffffffffffffffffffff168673ffffffffffffffffffffffffffffffffffffffff1614158015610c425750610c40868261163e565b155b15610c865780866040517fe237d922000000000000000000000000000000000000000000000000000000008152600401610c7d9291906144e3565b60405180910390fd5b610c938686868686611be6565b505050505050565b610ca482610b78565b610cad8161194e565b610cb78383611cde565b50505050565b610cc5611bde565b73ffffffffffffffffffffffffffffffffffffffff168173ffffffffffffffffffffffffffffffffffffffff1614610d29576040517f6697b23200000000000000000000000000000000000000000000000000000000815260040160405180910390fd5b610d338282611dd0565b505050565b7f65d7a28e3265b37a6474929f336521b332c1681b933f6cb9f3376673440d862a610d628161194e565b610d6a611ec3565b50565b7f5bd33557d028fa6327a6c10090602e75b5763bcbc8c9d2f602672edd0eee7a0881565b60608151835114610dd7576040517f08c379a0000000000000000000000000000000000000000000000000000000008152600401610dce9061457e565b60405180910390fd5b6000835167ffffffffffffffff811115610df457610df36135f1565b5b604051908082528060200260200182016040528015610e225781602001602082028036833780820191505090505b50905060005b8451811015610e9f57610e6f858281518110610e4757610e4661439c565b5b6020026020010151858381518110610e6257610e6161439c565b5b60200260200101516107c1565b828281518110610e8257610e8161439c565b5b60200260200101818152505080610e98906143fa565b9050610e28565b508091505092915050565b600080610eb6836114ae565b119050919050565b7f7804d923f43a17d325d77e781528e0793b2edd9890ab45fc64efd7b4b427744c610ee88161194e565b610ef182611f26565b5050565b6000600460009054906101000a900460ff16905090565b7f5bd33557d028fa6327a6c10090602e75b5763bcbc8c9d2f602672edd0eee7a08610f368161194e565b8151835114610f7a576040517f08c379a0000000000000000000000000000000000000000000000000000000008152600401610f7190614610565b60405180910390fd5b60005b835181101561110b576000610fac86868481518110610f9f57610f9e61439c565b5b602002602001015161187a565b11610fec576040517f08c379a0000000000000000000000000000000000000000000000000000000008152600401610fe3906144b4565b60405180910390fd5b828181518110610fff57610ffe61439c565b5b6020026020010151600c60008773ffffffffffffffffffffffffffffffffffffffff1673ffffffffffffffffffffffffffffffffffffffff168152602001908152602001600020600086848151811061105b5761105a61439c565b5b60200260200101518152602001908152602001600020819055508381815181106110885761108761439c565b5b60200260200101518573ffffffffffffffffffffffffffffffffffffffff167f1347ce935d48b1622e772cb855c5f27a0956e54f183acdd65752106fa013cd088584815181106110db576110da61439c565b5b60200260200101516040516110f09190613500565b60405180910390a38080611103906143fa565b915050610f7d565b5050505050565b61111a611bde565b73ffffffffffffffffffffffffffffffffffffffff168373ffffffffffffffffffffffffffffffffffffffff161415801561116357506111618361115c611bde565b61163e565b155b156111ae57611170611bde565b836040517fe237d9220000000000000000000000000000000000000000000000000000000081526004016111a59291906144e3565b60405180910390fd5b6111b9838383611f39565b505050565b7f9f2df0fed2c77648de5860a4cc508cd0818c85b8b8a1ab4ceeef8d981c8956a66111e88161194e565b6111f485858585611fcd565b5050505050565b7f7804d923f43a17d325d77e781528e0793b2edd9890ab45fc64efd7b4b427744c81565b7f65d7a28e3265b37a6474929f336521b332c1681b933f6cb9f3376673440d862a6112498161194e565b611251612066565b50565b60006003600084815260200190815260200160002060000160008373ffffffffffffffffffffffffffffffffffffffff1673ffffffffffffffffffffffffffffffffffffffff16815260200190815260200160002060009054906101000a900460ff16905092915050565b7f9f2df0fed2c77648de5860a4cc508cd0818c85b8b8a1ab4ceeef8d981c8956a66112e98161194e565b825185511461132d576040517f08c379a000000000000000000000000000000000000000000000000000000000815260040161132490614610565b60405180910390fd5b61133986868685611b58565b60005b855181101561148857600084828151811061135a5761135961439c565b5b602002602001015111156114755783818151811061137b5761137a61439c565b5b6020026020010151600c60008973ffffffffffffffffffffffffffffffffffffffff1673ffffffffffffffffffffffffffffffffffffffff16815260200190815260200160002060008884815181106113d7576113d661439c565b5b60200260200101518152602001908152602001600020819055508581815181106114045761140361439c565b5b60200260200101518773ffffffffffffffffffffffffffffffffffffffff167f1347ce935d48b1622e772cb855c5f27a0956e54f183acdd65752106fa013cd088684815181106114575761145661439c565b5b602002602001015160405161146c9190613500565b60405180910390a35b8080611480906143fa565b91505061133c565b50505050505050565b6000801b81565b6114aa6114a3611bde565b83836120c9565b5050565b600060056000838152602001908152602001600020549050919050565b7f9f2df0fed2c77648de5860a4cc508cd0818c85b8b8a1ab4ceeef8d981c8956a66114f58161194e565b61150186868685611fcd565b60008311156115af5782600c60008873ffffffffffffffffffffffffffffffffffffffff1673ffffffffffffffffffffffffffffffffffffffff168152602001908152602001600020600087815260200190815260200160002081905550848673ffffffffffffffffffffffffffffffffffffffff167f1347ce935d48b1622e772cb855c5f27a0956e54f183acdd65752106fa013cd08856040516115a69190613500565b60405180910390a35b505050505050565b7f9f2df0fed2c77648de5860a4cc508cd0818c85b8b8a1ab4ceeef8d981c8956a681565b6115e482610b78565b6115ed8161194e565b6115f78383611dd0565b50505050565b600060096000838152602001908152602001600020549050919050565b7f65d7a28e3265b37a6474929f336521b332c1681b933f6cb9f3376673440d862a81565b6000600160008473ffffffffffffffffffffffffffffffffffffffff1673ffffffffffffffffffffffffffffffffffffffff16815260200190815260200160002060008373ffffffffffffffffffffffffffffffffffffffff1673ffffffffffffffffffffffffffffffffffffffff16815260200190815260200160002060009054906101000a900460ff16905092915050565b6000600a6000838152602001908152602001600020549050919050565b7f9f2df0fed2c77648de5860a4cc508cd0818c85b8b8a1ab4ceeef8d981c8956a66117198161194e565b61172282611975565b5050565b6000611730611bde565b90508073ffffffffffffffffffffffffffffffffffffffff168673ffffffffffffffffffffffffffffffffffffffff16141580156117755750611773868261163e565b155b156117b95780866040517fe237d9220000000000000000000000000000000000000000000000000000000081526004016117b09291906144e3565b60405180910390fd5b6117c68686868686612239565b505050505050565b6117d6611bde565b73ffffffffffffffffffffffffffffffffffffffff168373ffffffffffffffffffffffffffffffffffffffff161415801561181f575061181d83611818611bde565b61163e565b155b1561186a5761182c611bde565b836040517fe237d9220000000000000000000000000000000000000000000000000000000081526004016118619291906144e3565b60405180910390fd5b611875838383612344565b505050565b600080600083815260200190815260200160002060008473ffffffffffffffffffffffffffffffffffffffff1673ffffffffffffffffffffffffffffffffffffffff16815260200190815260200160002054905092915050565b60007f7965db0b000000000000000000000000000000000000000000000000000000007bffffffffffffffffffffffffffffffffffffffffffffffffffffffff1916827bffffffffffffffffffffffffffffffffffffffffffffffffffffffff191614806119475750611946826123eb565b5b9050919050565b61195f8161195a611bde565b6124cd565b50565b8060029081611971919061483c565b5050565b6000600960008381526020019081526020016000205403611a0b576000600b60008154809291906119a5906143fa565b91905055905080600960008481526020019081526020016000208190555081600a60008381526020019081526020016000208190555080827fea3e0acfc42d04765cb7947585765a242d0fd12a634edfb22c44cf42a363b2b860405160405180910390a3505b50565b60606000600860008481526020019081526020016000208054611a309061465f565b80601f0160208091040260200160405190810160405280929190818152602001828054611a5c9061465f565b8015611aa95780601f10611a7e57610100808354040283529160200191611aa9565b820191906000526020600020905b815481529060010190602001808311611a8c57829003601f168201915b505050505090506000815111611ac757611ac28361251e565b611aeb565b600781604051602001611adb9291906149cd565b6040516020818303038152906040525b915050919050565b80600860008481526020019081526020016000209081611b13919061483c565b50817f6bb7ff708619ba0610cba295a58592e0451dee2622938c8755667688daf3529b611b3f84610956565b604051611b4c9190613958565b60405180910390a25050565b600073ffffffffffffffffffffffffffffffffffffffff168473ffffffffffffffffffffffffffffffffffffffff1603611bca5760006040517f57f447ce000000000000000000000000000000000000000000000000000000008152600401611bc191906149f1565b60405180910390fd5b611bd86000858585856125b2565b50505050565b600033905090565b600073ffffffffffffffffffffffffffffffffffffffff168473ffffffffffffffffffffffffffffffffffffffff1603611c585760006040517f57f447ce000000000000000000000000000000000000000000000000000000008152600401611c4f91906149f1565b60405180910390fd5b600073ffffffffffffffffffffffffffffffffffffffff168573ffffffffffffffffffffffffffffffffffffffff1603611cca5760006040517f01a83514000000000000000000000000000000000000000000000000000000008152600401611cc191906149f1565b60405180910390fd5b611cd785858585856125b2565b5050505050565b6000611cea8383611254565b611dc55760016003600085815260200190815260200160002060000160008473ffffffffffffffffffffffffffffffffffffffff1673ffffffffffffffffffffffffffffffffffffffff16815260200190815260200160002060006101000a81548160ff021916908315150217905550611d62611bde565b73ffffffffffffffffffffffffffffffffffffffff168273ffffffffffffffffffffffffffffffffffffffff16847f2f8788117e7eff1d82e926ec794901d17c78024a50270940304540a733656f0d60405160405180910390a460019050611dca565b600090505b92915050565b6000611ddc8383611254565b15611eb85760006003600085815260200190815260200160002060000160008473ffffffffffffffffffffffffffffffffffffffff1673ffffffffffffffffffffffffffffffffffffffff16815260200190815260200160002060006101000a81548160ff021916908315150217905550611e55611bde565b73ffffffffffffffffffffffffffffffffffffffff168273ffffffffffffffffffffffffffffffffffffffff16847ff6391f5c32d9c69d2a47ea670b442974b53935d1edc7fd64eb21e047a839171b60405160405180910390a460019050611ebd565b600090505b92915050565b611ecb612664565b6000600460006101000a81548160ff0219169083151502179055507f5db9ee0a495bf2e6ff9c91a7834c1ba4fdd244a5e8aa4e537bd38aeae4b073aa611f0f611bde565b604051611f1c91906149f1565b60405180910390a1565b8060079081611f35919061483c565b5050565b600073ffffffffffffffffffffffffffffffffffffffff168373ffffffffffffffffffffffffffffffffffffffff1603611fab5760006040517f01a83514000000000000000000000000000000000000000000000000000000008152600401611fa291906149f1565b60405180910390fd5b611fc88360008484604051806020016040528060008152506125b2565b505050565b600073ffffffffffffffffffffffffffffffffffffffff168473ffffffffffffffffffffffffffffffffffffffff160361203f5760006040517f57f447ce00000000000000000000000000000000000000000000000000000000815260040161203691906149f1565b60405180910390fd5b60008061204c85856126a4565b9150915061205e6000878484876125b2565b505050505050565b61206e6126d4565b6001600460006101000a81548160ff0219169083151502179055507f62e78cea01bee320cd4e420270b5ea74000d11b0c9f74754ebdbfc544b05a2586120b2611bde565b6040516120bf91906149f1565b60405180910390a1565b600073ffffffffffffffffffffffffffffffffffffffff168273ffffffffffffffffffffffffffffffffffffffff160361213b5760006040517fced3e10000000000000000000000000000000000000000000000000000000000815260040161213291906149f1565b60405180910390fd5b80600160008573ffffffffffffffffffffffffffffffffffffffff1673ffffffffffffffffffffffffffffffffffffffff16815260200190815260200160002060008473ffffffffffffffffffffffffffffffffffffffff1673ffffffffffffffffffffffffffffffffffffffff16815260200190815260200160002060006101000a81548160ff0219169083151502179055508173ffffffffffffffffffffffffffffffffffffffff168373ffffffffffffffffffffffffffffffffffffffff167f17307eab39ab6107e8899845ad3d59bd9653f200f220920489ca2b5937696c318360405161222c91906135bb565b60405180910390a3505050565b600073ffffffffffffffffffffffffffffffffffffffff168473ffffffffffffffffffffffffffffffffffffffff16036122ab5760006040517f57f447ce0000000000000000000000000000000000000000000000000000000081526004016122a291906149f1565b60405180910390fd5b600073ffffffffffffffffffffffffffffffffffffffff168573ffffffffffffffffffffffffffffffffffffffff160361231d5760006040517f01a8351400000000000000000000000000000000000000000000000000000000815260040161231491906149f1565b60405180910390fd5b60008061232a85856126a4565b9150915061233b87878484876125b2565b50505050505050565b600073ffffffffffffffffffffffffffffffffffffffff168373ffffffffffffffffffffffffffffffffffffffff16036123b65760006040517f01a835140000000000000000000000000000000000000000000000000000000081526004016123ad91906149f1565b60405180910390fd5b6000806123c384846126a4565b915091506123e48560008484604051806020016040528060008152506125b2565b5050505050565b60007fd9b67a26000000000000000000000000000000000000000000000000000000007bffffffffffffffffffffffffffffffffffffffffffffffffffffffff1916827bffffffffffffffffffffffffffffffffffffffffffffffffffffffff191614806124b657507f0e89341c000000000000000000000000000000000000000000000000000000007bffffffffffffffffffffffffffffffffffffffffffffffffffffffff1916827bffffffffffffffffffffffffffffffffffffffffffffffffffffffff1916145b806124c657506124c582612715565b5b9050919050565b6124d78282611254565b61251a5780826040517fe2517d3f000000000000000000000000000000000000000000000000000000008152600401612511929190614a0c565b60405180910390fd5b5050565b60606002805461252d9061465f565b80601f01602080910402602001604051908101604052809291908181526020018280546125599061465f565b80156125a65780601f1061257b576101008083540402835291602001916125a6565b820191906000526020600020905b81548152906001019060200180831161258957829003601f168201915b50505050509050919050565b6125be8585858561277f565b600073ffffffffffffffffffffffffffffffffffffffff168473ffffffffffffffffffffffffffffffffffffffff161461265d5760006125fc611bde565b9050600184510361264c57600061261d600086612b2e90919063ffffffff16565b90506000612635600086612b2e90919063ffffffff16565b9050612645838989858589612b42565b505061265b565b61265a818787878787612cf6565b5b505b5050505050565b61266c610ef5565b6126a2576040517f8dfc202b00000000000000000000000000000000000000000000000000000000815260040160405180910390fd5b565b60608060405191506001825283602083015260408201905060018152826020820152604081016040529250929050565b6126dc610ef5565b15612713576040517fd93c066500000000000000000000000000000000000000000000000000000000815260040160405180910390fd5b565b60007f01ffc9a7000000000000000000000000000000000000000000000000000000007bffffffffffffffffffffffffffffffffffffffffffffffffffffffff1916827bffffffffffffffffffffffffffffffffffffffffffffffffffffffff1916149050919050565b600073ffffffffffffffffffffffffffffffffffffffff168473ffffffffffffffffffffffffffffffffffffffff16141580156127e95750600073ffffffffffffffffffffffffffffffffffffffff168373ffffffffffffffffffffffffffffffffffffffff1614155b1561285f5761281f7f9f2df0fed2c77648de5860a4cc508cd0818c85b8b8a1ab4ceeef8d981c8956a661281a611bde565b611254565b61285e576040517f08c379a000000000000000000000000000000000000000000000000000000000815260040161285590614aa7565b60405180910390fd5b5b600073ffffffffffffffffffffffffffffffffffffffff168473ffffffffffffffffffffffffffffffffffffffff16146129ce5760005b82518110156129cc5760008282815181106128b4576128b361439c565b5b602002602001015111156129b9576000600c60008773ffffffffffffffffffffffffffffffffffffffff1673ffffffffffffffffffffffffffffffffffffffff16815260200190815260200160002060008584815181106129185761291761439c565b5b60200260200101518152602001908152602001600020549050600081141580156129425750428111155b156129b757600073ffffffffffffffffffffffffffffffffffffffff168573ffffffffffffffffffffffffffffffffffffffff16146129b6576040517f08c379a00000000000000000000000000000000000000000000000000000000081526004016129ad90614b39565b60405180910390fd5b5b505b80806129c4906143fa565b915050612896565b505b6129da84848484612eaa565b600073ffffffffffffffffffffffffffffffffffffffff168373ffffffffffffffffffffffffffffffffffffffff1614158015612a445750600073ffffffffffffffffffffffffffffffffffffffff168473ffffffffffffffffffffffffffffffffffffffff1614155b15612b285760005b8251811015612b26576000828281518110612a6a57612a6961439c565b5b60200260200101511115612b13576000612a9e86858481518110612a9157612a9061439c565b5b602002602001015161187a565b03612b1257600c60008673ffffffffffffffffffffffffffffffffffffffff1673ffffffffffffffffffffffffffffffffffffffff1681526020019081526020016000206000848381518110612af757612af661439c565b5b60200260200101518152602001908152602001600020600090555b5b8080612b1e906143fa565b915050612a4c565b505b50505050565b600060208202602084010151905092915050565b60008473ffffffffffffffffffffffffffffffffffffffff163b1115612cee578373ffffffffffffffffffffffffffffffffffffffff1663f23a6e6187878686866040518663ffffffff1660e01b8152600401612ba3959493929190614bae565b6020604051808303816000875af1925050508015612bdf57506040513d601f19601f82011682018060405250810190612bdc9190614c1d565b60015b612c63573d8060008114612c0f576040519150601f19603f3d011682016040523d82523d6000602084013e612c14565b606091505b506000815103612c5b57846040517f57f447ce000000000000000000000000000000000000000000000000000000008152600401612c5291906149f1565b60405180910390fd5b805181602001fd5b63f23a6e6160e01b7bffffffffffffffffffffffffffffffffffffffffffffffffffffffff1916817bffffffffffffffffffffffffffffffffffffffffffffffffffffffff191614612cec57846040517f57f447ce000000000000000000000000000000000000000000000000000000008152600401612ce391906149f1565b60405180910390fd5b505b505050505050565b60008473ffffffffffffffffffffffffffffffffffffffff163b1115612ea2578373ffffffffffffffffffffffffffffffffffffffff1663bc197c8187878686866040518663ffffffff1660e01b8152600401612d57959493929190614c4a565b6020604051808303816000875af1925050508015612d9357506040513d601f19601f82011682018060405250810190612d909190614c1d565b60015b612e17573d8060008114612dc3576040519150601f19603f3d011682016040523d82523d6000602084013e612dc8565b606091505b506000815103612e0f57846040517f57f447ce000000000000000000000000000000000000000000000000000000008152600401612e0691906149f1565b60405180910390fd5b805181602001fd5b63bc197c8160e01b7bffffffffffffffffffffffffffffffffffffffffffffffffffffffff1916817bffffffffffffffffffffffffffffffffffffffffffffffffffffffff191614612ea057846040517f57f447ce000000000000000000000000000000000000000000000000000000008152600401612e9791906149f1565b60405180910390fd5b505b505050505050565b612eb684848484613041565b600073ffffffffffffffffffffffffffffffffffffffff168473ffffffffffffffffffffffffffffffffffffffff1603612f86576000805b8351811015612f6a576000612f0c8285612b2e90919063ffffffff16565b90508060056000612f268589612b2e90919063ffffffff16565b81526020019081526020016000206000828254612f439190614cb2565b925050819055508083612f569190614cb2565b92505080612f63906143fa565b9050612eee565b508060066000828254612f7d9190614cb2565b92505081905550505b600073ffffffffffffffffffffffffffffffffffffffff168373ffffffffffffffffffffffffffffffffffffffff160361303b576000805b8351811015613028576000612fdc8285612b2e90919063ffffffff16565b90508060056000612ff68589612b2e90919063ffffffff16565b81526020019081526020016000206000828254039250508190555080830192505080613021906143fa565b9050612fbe565b5080600660008282540392505081905550505b50505050565b6130496126d4565b6130558484848461305b565b50505050565b80518251146130a557815181516040517f5b05999100000000000000000000000000000000000000000000000000000000815260040161309c929190614ce6565b60405180910390fd5b60006130af611bde565b905060005b83518110156132c45760006130d28286612b2e90919063ffffffff16565b905060006130e98386612b2e90919063ffffffff16565b9050600073ffffffffffffffffffffffffffffffffffffffff168873ffffffffffffffffffffffffffffffffffffffff161461321657600080600084815260200190815260200160002060008a73ffffffffffffffffffffffffffffffffffffffff1673ffffffffffffffffffffffffffffffffffffffff168152602001908152602001600020549050818110156131be57888183856040517f03dee4c50000000000000000000000000000000000000000000000000000000081526004016131b59493929190614d0f565b60405180910390fd5b81810360008085815260200190815260200160002060008b73ffffffffffffffffffffffffffffffffffffffff1673ffffffffffffffffffffffffffffffffffffffff16815260200190815260200160002081905550505b600073ffffffffffffffffffffffffffffffffffffffff168773ffffffffffffffffffffffffffffffffffffffff16146132b1578060008084815260200190815260200160002060008973ffffffffffffffffffffffffffffffffffffffff1673ffffffffffffffffffffffffffffffffffffffff16815260200190815260200160002060008282546132a99190614cb2565b925050819055505b5050806132bd906143fa565b90506130b4565b5060018351036133835760006132e4600085612b2e90919063ffffffff16565b905060006132fc600085612b2e90919063ffffffff16565b90508573ffffffffffffffffffffffffffffffffffffffff168773ffffffffffffffffffffffffffffffffffffffff168473ffffffffffffffffffffffffffffffffffffffff167fc3d58168c5ae7397731d063d5bbf3d657854427343f4c083240f7aacaa2d0f628585604051613374929190614ce6565b60405180910390a45050613402565b8373ffffffffffffffffffffffffffffffffffffffff168573ffffffffffffffffffffffffffffffffffffffff168273ffffffffffffffffffffffffffffffffffffffff167f4a39dc06d4c0dbc64b70af90fd698a233a518aa5d07e595d983b8c0526c8f7fb86866040516133f9929190614d54565b60405180910390a45b5050505050565b6000604051905090565b600080fd5b600080fd5b600073ffffffffffffffffffffffffffffffffffffffff82169050919050565b60006134488261341d565b9050919050565b6134588161343d565b811461346357600080fd5b50565b6000813590506134758161344f565b92915050565b6000819050919050565b61348e8161347b565b811461349957600080fd5b50565b6000813590506134ab81613485565b92915050565b600080604083850312156134c8576134c7613413565b5b60006134d685828601613466565b92505060206134e78582860161349c565b9150509250929050565b6134fa8161347b565b82525050565b600060208201905061351560008301846134f1565b92915050565b60007fffffffff0000000000000000000000000000000000000000000000000000000082169050919050565b6135508161351b565b811461355b57600080fd5b50565b60008135905061356d81613547565b92915050565b60006020828403121561358957613588613413565b5b60006135978482850161355e565b91505092915050565b60008115159050919050565b6135b5816135a0565b82525050565b60006020820190506135d060008301846135ac565b92915050565b600080fd5b600080fd5b6000601f19601f8301169050919050565b7f4e487b7100000000000000000000000000000000000000000000000000000000600052604160045260246000fd5b613629826135e0565b810181811067ffffffffffffffff82111715613648576136476135f1565b5b80604052505050565b600061365b613409565b90506136678282613620565b919050565b600067ffffffffffffffff821115613687576136866135f1565b5b613690826135e0565b9050602081019050919050565b82818337600083830152505050565b60006136bf6136ba8461366c565b613651565b9050828152602081018484840111156136db576136da6135db565b5b6136e684828561369d565b509392505050565b600082601f830112613703576137026135d6565b5b81356137138482602086016136ac565b91505092915050565b60006020828403121561373257613731613413565b5b600082013567ffffffffffffffff8111156137505761374f613418565b5b61375c848285016136ee565b91505092915050565b600067ffffffffffffffff8211156137805761377f6135f1565b5b602082029050602081019050919050565b600080fd5b6000819050919050565b6137a981613796565b81146137b457600080fd5b50565b6000813590506137c6816137a0565b92915050565b60006137df6137da84613765565b613651565b9050808382526020820190506020840283018581111561380257613801613791565b5b835b8181101561382b578061381788826137b7565b845260208401935050602081019050613804565b5050509392505050565b600082601f83011261384a576138496135d6565b5b813561385a8482602086016137cc565b91505092915050565b60006020828403121561387957613878613413565b5b600082013567ffffffffffffffff81111561389757613896613418565b5b6138a384828501613835565b91505092915050565b6000602082840312156138c2576138c1613413565b5b60006138d08482850161349c565b91505092915050565b600081519050919050565b600082825260208201905092915050565b60005b838110156139135780820151818401526020810190506138f8565b60008484015250505050565b600061392a826138d9565b61393481856138e4565b93506139448185602086016138f5565b61394d816135e0565b840191505092915050565b60006020820190508181036000830152613972818461391f565b905092915050565b6000806040838503121561399157613990613413565b5b600061399f8582860161349c565b925050602083013567ffffffffffffffff8111156139c0576139bf613418565b5b6139cc858286016136ee565b9150509250929050565b6000806000606084860312156139ef576139ee613413565b5b60006139fd86828701613466565b9350506020613a0e8682870161349c565b9250506040613a1f8682870161349c565b9150509250925092565b600067ffffffffffffffff821115613a4457613a436135f1565b5b602082029050602081019050919050565b6000613a68613a6384613a29565b613651565b90508083825260208201905060208402830185811115613a8b57613a8a613791565b5b835b81811015613ab45780613aa0888261349c565b845260208401935050602081019050613a8d565b5050509392505050565b600082601f830112613ad357613ad26135d6565b5b8135613ae3848260208601613a55565b91505092915050565b600067ffffffffffffffff821115613b0757613b066135f1565b5b613b10826135e0565b9050602081019050919050565b6000613b30613b2b84613aec565b613651565b905082815260208101848484011115613b4c57613b4b6135db565b5b613b5784828561369d565b509392505050565b600082601f830112613b7457613b736135d6565b5b8135613b84848260208601613b1d565b91505092915050565b60008060008060808587031215613ba757613ba6613413565b5b6000613bb587828801613466565b945050602085013567ffffffffffffffff811115613bd657613bd5613418565b5b613be287828801613abe565b935050604085013567ffffffffffffffff811115613c0357613c02613418565b5b613c0f87828801613abe565b925050606085013567ffffffffffffffff811115613c3057613c2f613418565b5b613c3c87828801613b5f565b91505092959194509250565b600060208284031215613c5e57613c5d613413565b5b6000613c6c848285016137b7565b91505092915050565b613c7e81613796565b82525050565b6000602082019050613c996000830184613c75565b92915050565b600080600080600060a08688031215613cbb57613cba613413565b5b6000613cc988828901613466565b9550506020613cda88828901613466565b945050604086013567ffffffffffffffff811115613cfb57613cfa613418565b5b613d0788828901613abe565b935050606086013567ffffffffffffffff811115613d2857613d27613418565b5b613d3488828901613abe565b925050608086013567ffffffffffffffff811115613d5557613d54613418565b5b613d6188828901613b5f565b9150509295509295909350565b60008060408385031215613d8557613d84613413565b5b6000613d93858286016137b7565b9250506020613da485828601613466565b9150509250929050565b600067ffffffffffffffff821115613dc957613dc86135f1565b5b602082029050602081019050919050565b6000613ded613de884613dae565b613651565b90508083825260208201905060208402830185811115613e1057613e0f613791565b5b835b81811015613e395780613e258882613466565b845260208401935050602081019050613e12565b5050509392505050565b600082601f830112613e5857613e576135d6565b5b8135613e68848260208601613dda565b91505092915050565b60008060408385031215613e8857613e87613413565b5b600083013567ffffffffffffffff811115613ea657613ea5613418565b5b613eb285828601613e43565b925050602083013567ffffffffffffffff811115613ed357613ed2613418565b5b613edf85828601613abe565b9150509250929050565b600081519050919050565b600082825260208201905092915050565b6000819050602082019050919050565b613f1e8161347b565b82525050565b6000613f308383613f15565b60208301905092915050565b6000602082019050919050565b6000613f5482613ee9565b613f5e8185613ef4565b9350613f6983613f05565b8060005b83811015613f9a578151613f818882613f24565b9750613f8c83613f3c565b925050600181019050613f6d565b5085935050505092915050565b60006020820190508181036000830152613fc18184613f49565b905092915050565b600080600060608486031215613fe257613fe1613413565b5b6000613ff086828701613466565b935050602084013567ffffffffffffffff81111561401157614010613418565b5b61401d86828701613abe565b925050604084013567ffffffffffffffff81111561403e5761403d613418565b5b61404a86828701613abe565b9150509250925092565b6000806000806080858703121561406e5761406d613413565b5b600061407c87828801613466565b945050602061408d8782880161349c565b935050604061409e8782880161349c565b925050606085013567ffffffffffffffff8111156140bf576140be613418565b5b6140cb87828801613b5f565b91505092959194509250565b600080600080600060a086880312156140f3576140f2613413565b5b600061410188828901613466565b955050602086013567ffffffffffffffff81111561412257614121613418565b5b61412e88828901613abe565b945050604086013567ffffffffffffffff81111561414f5761414e613418565b5b61415b88828901613abe565b935050606086013567ffffffffffffffff81111561417c5761417b613418565b5b61418888828901613abe565b925050608086013567ffffffffffffffff8111156141a9576141a8613418565b5b6141b588828901613b5f565b9150509295509295909350565b6141cb816135a0565b81146141d657600080fd5b50565b6000813590506141e8816141c2565b92915050565b6000806040838503121561420557614204613413565b5b600061421385828601613466565b9250506020614224858286016141d9565b9150509250929050565b600080600080600060a0868803121561424a57614249613413565b5b600061425888828901613466565b95505060206142698882890161349c565b945050604061427a8882890161349c565b935050606061428b8882890161349c565b925050608086013567ffffffffffffffff8111156142ac576142ab613418565b5b6142b888828901613b5f565b9150509295509295909350565b600080604083850312156142dc576142db613413565b5b60006142ea85828601613466565b92505060206142fb85828601613466565b9150509250929050565b600080600080600060a0868803121561432157614320613413565b5b600061432f88828901613466565b955050602061434088828901613466565b94505060406143518882890161349c565b93505060606143628882890161349c565b925050608086013567ffffffffffffffff81111561438357614382613418565b5b61438f88828901613b5f565b9150509295509295909350565b7f4e487b7100000000000000000000000000000000000000000000000000000000600052603260045260246000fd5b7f4e487b7100000000000000000000000000000000000000000000000000000000600052601160045260246000fd5b60006144058261347b565b91507fffffffffffffffffffffffffffffffffffffffffffffffffffffffffffffffff8203614437576144366143cb565b5b600182019050919050565b7f4950446f6356393a204163636f756e7420686173206e6f2062616c616e63652060008201527f746f206578706972650000000000000000000000000000000000000000000000602082015250565b600061449e6029836138e4565b91506144a982614442565b604082019050919050565b600060208201905081810360008301526144cd81614491565b9050919050565b6144dd8161343d565b82525050565b60006040820190506144f860008301856144d4565b61450560208301846144d4565b9392505050565b7f4950446f6356393a206163636f756e747320616e6420696473206c656e67746860008201527f206d69736d617463680000000000000000000000000000000000000000000000602082015250565b60006145686029836138e4565b91506145738261450c565b604082019050919050565b600060208201905081810360008301526145978161455b565b9050919050565b7f4950446f6356393a2069647320616e642065787069726174696f6e54696d657360008201527f206c656e677468206d69736d6174636800000000000000000000000000000000602082015250565b60006145fa6030836138e4565b91506146058261459e565b604082019050919050565b60006020820190508181036000830152614629816145ed565b9050919050565b7f4e487b7100000000000000000000000000000000000000000000000000000000600052602260045260246000fd5b6000600282049050600182168061467757607f821691505b60208210810361468a57614689614630565b5b50919050565b60008190508160005260206000209050919050565b60006020601f8301049050919050565b600082821b905092915050565b6000600883026146f27fffffffffffffffffffffffffffffffffffffffffffffffffffffffffffffffff826146b5565b6146fc86836146b5565b95508019841693508086168417925050509392505050565b6000819050919050565b600061473961473461472f8461347b565b614714565b61347b565b9050919050565b6000819050919050565b6147538361471e565b61476761475f82614740565b8484546146c2565b825550505050565b600090565b61477c61476f565b61478781848461474a565b505050565b5b818110156147ab576147a0600082614774565b60018101905061478d565b5050565b601f8211156147f0576147c181614690565b6147ca846146a5565b810160208510156147d9578190505b6147ed6147e5856146a5565b83018261478c565b50505b505050565b600082821c905092915050565b6000614813600019846008026147f5565b1980831691505092915050565b600061482c8383614802565b9150826002028217905092915050565b614845826138d9565b67ffffffffffffffff81111561485e5761485d6135f1565b5b614868825461465f565b6148738282856147af565b600060209050601f8311600181146148a65760008415614894578287015190505b61489e8582614820565b865550614906565b601f1984166148b486614690565b60005b828110156148dc578489015182556001820191506020850194506020810190506148b7565b868310156148f957848901516148f5601f891682614802565b8355505b6001600288020188555050505b505050505050565b600081905092915050565b600081546149268161465f565b614930818661490e565b9450600182166000811461494b576001811461496057614993565b60ff1983168652811515820286019350614993565b61496985614690565b60005b8381101561498b5781548189015260018201915060208101905061496c565b838801955050505b50505092915050565b60006149a7826138d9565b6149b1818561490e565b93506149c18185602086016138f5565b80840191505092915050565b60006149d98285614919565b91506149e5828461499c565b91508190509392505050565b6000602082019050614a0660008301846144d4565b92915050565b6000604082019050614a2160008301856144d4565b614a2e6020830184613c75565b9392505050565b7f4950446f6356393a206d7573742068617665206d696e74657220726f6c65207460008201527f6f207472616e7366657200000000000000000000000000000000000000000000602082015250565b6000614a91602a836138e4565b9150614a9c82614a35565b604082019050919050565b60006020820190508181036000830152614ac081614a84565b9050919050565b7f4950446f6356393a2043616e6e6f74207472616e73666572206578706972656460008201527f20746f6b656e732065786365707420746f206275726e00000000000000000000602082015250565b6000614b236036836138e4565b9150614b2e82614ac7565b604082019050919050565b60006020820190508181036000830152614b5281614b16565b9050919050565b600081519050919050565b600082825260208201905092915050565b6000614b8082614b59565b614b8a8185614b64565b9350614b9a8185602086016138f5565b614ba3816135e0565b840191505092915050565b600060a082019050614bc360008301886144d4565b614bd060208301876144d4565b614bdd60408301866134f1565b614bea60608301856134f1565b8181036080830152614bfc8184614b75565b90509695505050505050565b600081519050614c1781613547565b92915050565b600060208284031215614c3357614c32613413565b5b6000614c4184828501614c08565b91505092915050565b600060a082019050614c5f60008301886144d4565b614c6c60208301876144d4565b8181036040830152614c7e8186613f49565b90508181036060830152614c928185613f49565b90508181036080830152614ca68184614b75565b90509695505050505050565b6000614cbd8261347b565b9150614cc88361347b565b9250828201905080821115614ce057614cdf6143cb565b5b92915050565b6000604082019050614cfb60008301856134f1565b614d0860208301846134f1565b9392505050565b6000608082019050614d2460008301876144d4565b614d3160208301866134f1565b614d3e60408301856134f1565b614d4b60608301846134f1565b95945050505050565b60006040820190508181036000830152614d6e8185613f49565b90508181036020830152614d828184613f49565b9050939250505056fea26469706673582212202cc75fa0a0db4d67bd1b06b018f9c4f420882474db1b096087fe6ae70c46a0c764736f6c63430008140033",
  "linkReferences": {},
  "deployedLinkReferences": {}
}