{"contracts/IPDocV9.sol":{"IPDocV9":{"abi":[{"inputs":[{"internalType":"address","name":"defaultAdmin","type":"address"},{"internalType":"address","name":"pauser","type":"address"},{"internalType":"address","name":"minter","type":"address"}],"stateMutability":"nonpayable","type":"constructor"},{"inputs":[],"name":"AccessControlBadConfirmation","type":"error"},{"inputs":[{"internalType":"address","name":"account","type":"address"},{"internalType":"bytes32","name":"neededRole","type":"bytes32"}],"name":"AccessControlUnauthorizedAccount","type":"error"},{"inputs":[{"internalType":"address","name":"sender","type":"address"},{"internalType":"uint256","name":"balance","type":"uint256"},{"internalType":"uint256","name":"needed","type":"uint256"},{"internalType":"uint256","name":"tokenId","type":"uint256"}],"name":"ERC1155InsufficientBalance","type":"error"},{"inputs":[{"internalType":"address","name":"approver","type":"address"}],"name":"ERC1155InvalidApprover","type":"error"},{"inputs":[{"internalType":"uint256","name":"idsLength","type":"uint256"},{"internalType":"uint256","name":"valuesLength","type":"uint256"}],"name":"ERC1155InvalidArrayLength","type":"error"},{"inputs":[{"internalType":"address","name":"operator","type":"address"}],"name":"ERC1155InvalidOperator","type":"error"},{"inputs":[{"internalType":"address","name":"receiver","type":"address"}],"name":"ERC1155InvalidReceiver","type":"error"},{"inputs":[{"internalType":"address","name":"sender","type":"address"}],"name":"ERC1155InvalidSender","type":"error"},{"inputs":[{"internalType":"address","name":"operator","type":"address"},{"internalType":"address","name":"owner","type":"address"}],"name":"ERC1155MissingApprovalForAll","type":"error"},{"inputs":[],"name":"EnforcedPause","type":"error"},{"inputs":[],"name":"ExpectedPause","type":"error"},{"anonymous":false,"inputs":[{"indexed":true,"internalType":"address","name":"account","type":"address"},{"indexed":true,"internalType":"address","name":"operator","type":"address"},{"indexed":false,"internalType":"bool","name":"approved","type":"bool"}],"name":"ApprovalForAll","type":"event"},{"anonymous":false,"inputs":[{"indexed":true,"internalType":"address","name":"account","type":"address"},{"indexed":true,"internalType":"uint256","name":"tokenId","type":"uint256"},{"indexed":false,"internalType":"uint256","name":"expirationTime","type":"uint256"}],"name":"ExpirationSet","type":"event"},{"anonymous":false,"inputs":[{"indexed":true,"internalType":"bytes32","name":"externalId","type":"bytes32"},{"indexed":true,"internalType":"uint256","name":"tokenId","type":"uint256"}],"name":"IDCreated","type":"event"},{"anonymous":false,"inputs":[{"indexed":false,"internalType":"address","name":"account","type":"address"}],"name":"Paused","type":"event"},{"anonymous":false,"inputs":[{"indexed":true,"internalType":"bytes32","name":"role","type":"bytes32"},{"indexed":true,"internalType":"bytes32","name":"previousAdminRole","type":"bytes32"},{"indexed":true,"internalType":"bytes32","name":"newAdminRole","type":"bytes32"}],"name":"RoleAdminChanged","type":"event"},{"anonymous":false,"inputs":[{"indexed":true,"internalType":"bytes32","name":"role","type":"bytes32"},{"indexed":true,"internalType":"address","name":"account","type":"address"},{"indexed":true,"internalType":"address","name":"sender","type":"address"}],"name":"RoleGranted","type":"event"},{"anonymous":false,"inputs":[{"indexed":true,"internalType":"bytes32","name":"role","type":"bytes32"},{"indexed":true,"internalType":"address","name":"account","type":"address"},{"indexed":true,"internalType":"address","name":"sender","type":"address"}],"name":"RoleRevoked","type":"event"},{"anonymous":false,"inputs":[{"indexed":true,"internalType":"address","name":"operator","type":"address"},{"indexed":true,"internalType":"address","name":"from","type":"address"},{"indexed":true,"internalType":"address","name":"to","type":"address"},{"indexed":false,"internalType":"uint256[]","name":"ids","type":"uint256[]"},{"indexed":false,"internalType":"uint256[]","name":"values","type":"uint256[]"}],"name":"TransferBatch","type":"event"},{"anonymous":false,"inputs":[{"indexed":true,"internalType":"address","name":"operator","type":"address"},{"indexed":true,"internalType":"address","name":"from","type":"address"},{"indexed":true,"internalType":"address","name":"to","type":"address"},{"indexed":false,"internalType":"uint256","name":"id","type":"uint256"},{"indexed":false,"internalType":"uint256","name":"value","type":"uint256"}],"name":"TransferSingle","type":"event"},{"anonymous":false,"inputs":[{"indexed":false,"internalType":"string","name":"value","type":"string"},{"indexed":true,"internalType":"uint256","name":"id","type":"uint256"}],"name":"URI","type":"event"},{"anonymous":false,"inputs":[{"indexed":false,"internalType":"address","name":"account","type":"address"}],"name":"Unpaused","type":"event"},{"inputs":[],"name":"DEFAULT_ADMIN_ROLE","outputs":[{"internalType":"bytes32","name":"","type":"bytes32"}],"stateMutability":"view","type":"function"},{"inputs":[],"name":"EXPIRATION_MANAGER_ROLE","outputs":[{"internalType":"bytes32","name":"","type":"bytes32"}],"stateMutability":"view","type":"function"},{"inputs":[],"name":"MINTER_ROLE","outputs":[{"internalType":"bytes32","name":"","type":"bytes32"}],"stateMutability":"view","type":"function"},{"inputs":[],"name":"PAUSER_ROLE","outputs":[{"internalType":"bytes32","name":"","type":"bytes32"}],"stateMutability":"view","type":"function"},{"inputs":[],"name":"URI_SETTER_ROLE","outputs":[{"internalType":"bytes32","name":"","type":"bytes32"}],"stateMutability":"view","type":"function"},{"inputs":[{"internalType":"address","name":"account","type":"address"},{"internalType":"uint256","name":"id","type":"uint256"}],"name":"balanceOf","outputs":[{"internalType":"uint256","name":"","type":"uint256"}],"stateMutability":"view","type":"function"},{"inputs":[{"internalType":"address[]","name":"accounts","type":"address[]"},{"internalType":"uint256[]","name":"ids","type":"uint256[]"}],"name":"balanceOfBatch","outputs":[{"internalType":"uint256[]","name":"","type":"uint256[]"}],"stateMutability":"view","type":"function"},{"inputs":[{"internalType":"address","name":"account","type":"address"},{"internalType":"uint256","name":"id","type":"uint256"},{"internalType":"uint256","name":"value","type":"uint256"}],"name":"burn","outputs":[],"stateMutability":"nonpayable","type":"function"},{"inputs":[{"internalType":"address","name":"account","type":"address"},{"internalType":"uint256[]","name":"ids","type":"uint256[]"},{"internalType":"uint256[]","name":"values","type":"uint256[]"}],"name":"burnBatch","outputs":[],"stateMutability":"nonpayable","type":"function"},{"inputs":[{"internalType":"bytes32","name":"externalId","type":"bytes32"}],"name":"createId","outputs":[],"stateMutability":"nonpayable","type":"function"},{"inputs":[{"internalType":"bytes32[]","name":"externalIds","type":"bytes32[]"}],"name":"createIds","outputs":[],"stateMutability":"nonpayable","type":"function"},{"inputs":[{"internalType":"uint256","name":"id","type":"uint256"}],"name":"exists","outputs":[{"internalType":"bool","name":"","type":"bool"}],"stateMutability":"view","type":"function"},{"inputs":[{"internalType":"address","name":"account","type":"address"},{"internalType":"uint256","name":"id","type":"uint256"}],"name":"getExpiration","outputs":[{"internalType":"uint256","name":"","type":"uint256"}],"stateMutability":"view","type":"function"},{"inputs":[{"internalType":"uint256","name":"tokenId","type":"uint256"}],"name":"getExternalId","outputs":[{"internalType":"bytes32","name":"","type":"bytes32"}],"stateMutability":"view","type":"function"},{"inputs":[{"internalType":"bytes32","name":"externalId","type":"bytes32"}],"name":"getId","outputs":[{"internalType":"uint256","name":"","type":"uint256"}],"stateMutability":"view","type":"function"},{"inputs":[{"internalType":"bytes32","name":"role","type":"bytes32"}],"name":"getRoleAdmin","outputs":[{"internalType":"bytes32","name":"","type":"bytes32"}],"stateMutability":"view","type":"function"},{"inputs":[{"internalType":"bytes32","name":"role","type":"bytes32"},{"internalType":"address","name":"account","type":"address"}],"name":"grantRole","outputs":[],"stateMutability":"nonpayable","type":"function"},{"inputs":[{"internalType":"bytes32","name":"role","type":"bytes32"},{"internalType":"address","name":"account","type":"address"}],"name":"hasRole","outputs":[{"internalType":"bool","name":"","type":"bool"}],"stateMutability":"view","type":"function"},{"inputs":[{"internalType":"address","name":"account","type":"address"},{"internalType":"address","name":"operator","type":"address"}],"name":"isApprovedForAll","outputs":[{"internalType":"bool","name":"","type":"bool"}],"stateMutability":"view","type":"function"},{"inputs":[{"internalType":"address","name":"account","type":"address"},{"internalType":"uint256","name":"id","type":"uint256"}],"name":"isExpired","outputs":[{"internalType":"bool","name":"","type":"bool"}],"stateMutability":"view","type":"function"},{"inputs":[{"internalType":"address","name":"account","type":"address"},{"internalType":"uint256","name":"id","type":"uint256"},{"internalType":"uint256","name":"amount","type":"uint256"},{"internalType":"bytes","name":"data","type":"bytes"}],"name":"mint","outputs":[],"stateMutability":"nonpayable","type":"function"},{"inputs":[{"internalType":"address","name":"to","type":"address"},{"internalType":"uint256[]","name":"ids","type":"uint256[]"},{"internalType":"uint256[]","name":"amounts","type":"uint256[]"},{"internalType":"bytes","name":"data","type":"bytes"}],"name":"mintBatch","outputs":[],"stateMutability":"nonpayable","type":"function"},{"inputs":[{"internalType":"address","name":"to","type":"address"},{"internalType":"uint256[]","name":"ids","type":"uint256[]"},{"internalType":"uint256[]","name":"amounts","type":"uint256[]"},{"internalType":"uint256[]","name":"expirationTimes","type":"uint256[]"},{"internalType":"bytes","name":"data","type":"bytes"}],"name":"mintBatchWithExpiration","outputs":[],"stateMutability":"nonpayable","type":"function"},{"inputs":[{"internalType":"address","name":"account","type":"address"},{"internalType":"uint256","name":"id","type":"uint256"},{"internalType":"uint256","name":"amount","type":"uint256"},{"internalType":"uint256","name":"expirationTime","type":"uint256"},{"internalType":"bytes","name":"data","type":"bytes"}],"name":"mintWithExpiration","outputs":[],"stateMutability":"nonpayable","type":"function"},{"inputs":[],"name":"pause","outputs":[],"stateMutability":"nonpayable","type":"function"},{"inputs":[],"name":"paused","outputs":[{"internalType":"bool","name":"","type":"bool"}],"stateMutability":"view","type":"function"},{"inputs":[{"internalType":"bytes32","name":"role","type":"bytes32"},{"internalType":"address","name":"callerConfirmation","type":"address"}],"name":"renounceRole","outputs":[],"stateMutability":"nonpayable","type":"function"},{"inputs":[{"internalType":"bytes32","name":"role","type":"bytes32"},{"internalType":"address","name":"account","type":"address"}],"name":"revokeRole","outputs":[],"stateMutability":"nonpayable","type":"function"},{"inputs":[{"internalType":"address","name":"from","type":"address"},{"internalType":"address","name":"to","type":"address"},{"internalType":"uint256[]","name":"ids","type":"uint256[]"},{"internalType":"uint256[]","name":"values","type":"uint256[]"},{"internalType":"bytes","name":"data","type":"bytes"}],"name":"safeBatchTransferFrom","outputs":[],"stateMutability":"nonpayable","type":"function"},{"inputs":[{"internalType":"address","name":"from","type":"address"},{"internalType":"address","name":"to","type":"address"},{"internalType":"uint256","name":"id","type":"uint256"},{"internalType":"uint256","name":"value","type":"uint256"},{"internalType":"bytes","name":"data","type":"bytes"}],"name":"safeTransferFrom","outputs":[],"stateMutability":"nonpayable","type":"function"},{"inputs":[{"internalType":"address","name":"operator","type":"address"},{"internalType":"bool","name":"approved","type":"bool"}],"name":"setApprovalForAll","outputs":[],"stateMutability":"nonpayable","type":"function"},{"inputs":[{"internalType":"string","name":"baseURI","type":"string"}],"name":"setBaseURI","outputs":[],"stateMutability":"nonpayable","type":"function"},{"inputs":[{"internalType":"address","name":"account","type":"address"},{"internalType":"uint256[]","name":"ids","type":"uint256[]"},{"internalType":"uint256[]","name":"expirationTimes","type":"uint256[]"}],"name":"setBatchExpiration","outputs":[],"stateMutability":"nonpayable","type":"function"},{"inputs":[{"internalType":"address","name":"account","type":"address"},{"internalType":"uint256","name":"id","type":"uint256"},{"internalType":"uint256","name":"expirationTime","type":"uint256"}],"name":"setExpiration","outputs":[],"stateMutability":"nonpayable","type":"function"},{"inputs":[{"internalType":"uint256","name":"tokenId","type":"uint256"},{"internalType":"string","name":"tokenURI","type":"string"}],"name":"setTokenURI","outputs":[],"stateMutability":"nonpayable","type":"function"},{"inputs":[{"internalType":"string","name":"newuri","type":"string"}],"name":"setURI","outputs":[],"stateMutability":"nonpayable","type":"function"},{"inputs":[{"internalType":"bytes4","name":"interfaceId","type":"bytes4"}],"name":"supportsInterface","outputs":[{"internalType":"bool","name":"","type":"bool"}],"stateMutability":"view","type":"function"},{"inputs":[],"name":"totalSupply","outputs":[{"internalType":"uint256","name":"","type":"uint256"}],"stateMutability":"view","type":"function"},{"inputs":[{"internalType":"uint256","name":"id","type":"uint256"}],"name":"totalSupply","outputs":[{"internalType":"uint256","name":"","type":"uint256"}],"stateMutability":"view","type":"function"},{"inputs":[],"name":"unpause","outputs":[],"stateMutability":"nonpayable","type":"function"},{"inputs":[{"internalType":"uint256","name":"tokenId","type":"uint256"}],"name":"uri","outputs":[{"internalType":"string","name":"","type":"string"}],"stateMutability":"view","type":"function"}],"evm":{"bytecode":{"linkReferences":{},"object":"60806040526040518060200160405280600081525060079081620000249190620005b1565b506001600b553480156200003757600080fd5b506040516200552f3803806200552f83398181016040528101906200005d919062000702565b6040518060400160405280601d81526020017f68747470733a2f2f73616665696465612e6e65742f646f632f7b69647d000000815250620000a481620001ab60201b60201c565b506000600460006101000a81548160ff021916908315150217905550620000d56000801b84620001c060201b60201c565b50620001087f7804d923f43a17d325d77e781528e0793b2edd9890ab45fc64efd7b4b427744c84620001c060201b60201c565b506200013b7f65d7a28e3265b37a6474929f336521b332c1681b933f6cb9f3376673440d862a83620001c060201b60201c565b506200016e7f9f2df0fed2c77648de5860a4cc508cd0818c85b8b8a1ab4ceeef8d981c8956a682620001c060201b60201c565b50620001a17f5bd33557d028fa6327a6c10090602e75b5763bcbc8c9d2f602672edd0eee7a0882620001c060201b60201c565b505050506200075e565b8060029081620001bc9190620005b1565b5050565b6000620001d48383620002c460201b60201c565b620002b95760016003600085815260200190815260200160002060000160008473ffffffffffffffffffffffffffffffffffffffff1673ffffffffffffffffffffffffffffffffffffffff16815260200190815260200160002060006101000a81548160ff021916908315150217905550620002556200032f60201b60201c565b73ffffffffffffffffffffffffffffffffffffffff168273ffffffffffffffffffffffffffffffffffffffff16847f2f8788117e7eff1d82e926ec794901d17c78024a50270940304540a733656f0d60405160405180910390a460019050620002be565b600090505b92915050565b60006003600084815260200190815260200160002060000160008373ffffffffffffffffffffffffffffffffffffffff1673ffffffffffffffffffffffffffffffffffffffff16815260200190815260200160002060009054906101000a900460ff16905092915050565b600033905090565b600081519050919050565b7f4e487b7100000000000000000000000000000000000000000000000000000000600052604160045260246000fd5b7f4e487b7100000000000000000000000000000000000000000000000000000000600052602260045260246000fd5b60006002820490506001821680620003b957607f821691505b602082108103620003cf57620003ce62000371565b5b50919050565b60008190508160005260206000209050919050565b60006020601f8301049050919050565b600082821b905092915050565b600060088302620004397fffffffffffffffffffffffffffffffffffffffffffffffffffffffffffffffff82620003fa565b620004458683620003fa565b95508019841693508086168417925050509392505050565b6000819050919050565b6000819050919050565b6000620004926200048c62000486846200045d565b62000467565b6200045d565b9050919050565b6000819050919050565b620004ae8362000471565b620004c6620004bd8262000499565b84845462000407565b825550505050565b600090565b620004dd620004ce565b620004ea818484620004a3565b505050565b5b81811015620005125762000506600082620004d3565b600181019050620004f0565b5050565b601f82111562000561576200052b81620003d5565b6200053684620003ea565b8101602085101562000546578190505b6200055e6200055585620003ea565b830182620004ef565b50505b505050565b600082821c905092915050565b6000620005866000198460080262000566565b1980831691505092915050565b6000620005a1838362000573565b9150826002028217905092915050565b620005bc8262000337565b67ffffffffffffffff811115620005d857620005d762000342565b5b620005e48254620003a0565b620005f182828562000516565b600060209050601f83116001811462000629576000841562000614578287015190505b62000620858262000593565b86555062000690565b601f1984166200063986620003d5565b60005b8281101562000663578489015182556001820191506020850194506020810190506200063c565b868310156200068357848901516200067f601f89168262000573565b8355505b6001600288020188555050505b505050505050565b600080fd5b600073ffffffffffffffffffffffffffffffffffffffff82169050919050565b6000620006ca826200069d565b9050919050565b620006dc81620006bd565b8114620006e857600080fd5b50565b600081519050620006fc81620006d1565b92915050565b6000806000606084860312156200071e576200071d62000698565b5b60006200072e86828701620006eb565b93505060206200074186828701620006eb565b92505060406200075486828701620006eb565b9150509250925092565b614dc1806200076e6000396000f3fe608060405234801561001057600080fd5b50600436106102525760003560e01c80635c975abb11610146578063bd85b039116100c3578063e63ab1e911610087578063e63ab1e9146106ef578063e985e9c51461070d578063ee037bf91461073d578063f07f55201461076d578063f242432a14610789578063f5298aca146107a557610252565b8063bd85b03914610639578063d4e5e76c14610669578063d539139314610685578063d547741f146106a3578063e5569773146106bf57610252565b80638456cb591161010a5780638456cb59146105a957806391d14854146105b35780639f5e61ee146105e3578063a217fddf146105ff578063a22cb4651461061d57610252565b80635c975abb1461051957806367614e62146105375780636b20c45414610553578063731133e91461056f5780637f3457101461058b57610252565b8063248a9ca3116101d45780633f4ba83a116101985780633f4ba83a146104755780634943f8f81461047f5780634e1273f41461049d5780634f558e79146104cd57806355f804b3146104fd57610252565b8063248a9ca3146103c15780632cac49c4146103f15780632eb2c2d6146104215780632f2ff15d1461043d57806336568abe1461045957610252565b8063151497931161021b578063151497931461031f578063162094c41461034f57806318160ddd1461036b5780631af189e1146103895780631f7fdffa146103a557610252565b8062fdd58e1461025757806301ffc9a71461028757806302fe5305146102b757806309dca9ce146102d35780630e89341c146102ef575b600080fd5b610271600480360381019061026c91906134b1565b6107c1565b60405161027e9190613500565b60405180910390f35b6102a1600480360381019061029c9190613573565b61089c565b6040516102ae91906135bb565b60405180910390f35b6102d160048036038101906102cc919061371c565b6108ae565b005b6102ed60048036038101906102e89190613863565b6108e5565b005b610309600480360381019061030491906138ac565b610956565b6040516103169190613958565b60405180910390f35b610339600480360381019061033491906134b1565b610968565b60405161034691906135bb565b60405180910390f35b6103696004803603810190610364919061397a565b6109d8565b005b610373610a11565b6040516103809190613500565b60405180910390f35b6103a3600480360381019061039e91906139d6565b610a1b565b005b6103bf60048036038101906103ba9190613b8d565b610b3b565b005b6103db60048036038101906103d69190613c48565b610b78565b6040516103e89190613c84565b60405180910390f35b61040b600480360381019061040691906134b1565b610b98565b6040516104189190613500565b60405180910390f35b61043b60048036038101906104369190613c9f565b610bf3565b005b61045760048036038101906104529190613d6e565b610c9b565b005b610473600480360381019061046e9190613d6e565b610cbd565b005b61047d610d38565b005b610487610d6d565b6040516104949190613c84565b60405180910390f35b6104b760048036038101906104b29190613e71565b610d91565b6040516104c49190613fa7565b60405180910390f35b6104e760048036038101906104e291906138ac565b610eaa565b6040516104f491906135bb565b60405180910390f35b6105176004803603810190610512919061371c565b610ebe565b005b610521610ef5565b60405161052e91906135bb565b60405180910390f35b610551600480360381019061054c9190613fc9565b610f0c565b005b61056d60048036038101906105689190613fc9565b611112565b005b61058960048036038101906105849190614054565b6111be565b005b6105936111fb565b6040516105a09190613c84565b60405180910390f35b6105b161121f565b005b6105cd60048036038101906105c89190613d6e565b611254565b6040516105da91906135bb565b60405180910390f35b6105fd60048036038101906105f891906140d7565b6112bf565b005b610607611491565b6040516106149190613c84565b60405180910390f35b610637600480360381019061063291906141ee565b611498565b005b610653600480360381019061064e91906138ac565b6114ae565b6040516106609190613500565b60405180910390f35b610683600480360381019061067e919061422e565b6114cb565b005b61068d6115b7565b60405161069a9190613c84565b60405180910390f35b6106bd60048036038101906106b89190613d6e565b6115db565b005b6106d960048036038101906106d49190613c48565b6115fd565b6040516106e69190613500565b60405180910390f35b6106f761161a565b6040516107049190613c84565b60405180910390f35b610727600480360381019061072291906142c5565b61163e565b60405161073491906135bb565b60405180910390f35b610757600480360381019061075291906138ac565b6116d2565b6040516107649190613c84565b60405180910390f35b61078760048036038101906107829190613c48565b6116ef565b005b6107a3600480360381019061079e9190614305565b611726565b005b6107bf60048036038101906107ba91906139d6565b6117ce565b005b6000806107ce848461187a565b9050600081148061080b5750600073ffffffffffffffffffffffffffffffffffffffff168473ffffffffffffffffffffffffffffffffffffffff16145b1561081a576000915050610896565b6000600c60008673ffffffffffffffffffffffffffffffffffffffff1673ffffffffffffffffffffffffffffffffffffffff1681526020019081526020016000206000858152602001908152602001600020549050600081141580156108805750428111155b1561089057600092505050610896565b81925050505b92915050565b60006108a7826118d4565b9050919050565b7f7804d923f43a17d325d77e781528e0793b2edd9890ab45fc64efd7b4b427744c6108d88161194e565b6108e182611962565b5050565b7f9f2df0fed2c77648de5860a4cc508cd0818c85b8b8a1ab4ceeef8d981c8956a661090f8161194e565b60005b82518110156109515761093e8382815181106109315761093061439c565b5b6020026020010151611975565b8080610949906143fa565b915050610912565b505050565b606061096182611a0e565b9050919050565b600080600c60008573ffffffffffffffffffffffffffffffffffffffff1673ffffffffffffffffffffffffffffffffffffffff1681526020019081526020016000206000848152602001908152602001600020549050600081141580156109cf5750428111155b91505092915050565b7f7804d923f43a17d325d77e781528e0793b2edd9890ab45fc64efd7b4b427744c610a028161194e565b610a0c8383611af3565b505050565b6000600654905090565b7f5bd33557d028fa6327a6c10090602e75b5763bcbc8c9d2f602672edd0eee7a08610a458161194e565b6000610a51858561187a565b11610a91576040517f08c379a0000000000000000000000000000000000000000000000000000000008152600401610a88906144b4565b60405180910390fd5b81600c60008673ffffffffffffffffffffffffffffffffffffffff1673ffffffffffffffffffffffffffffffffffffffff168152602001908152602001600020600085815260200190815260200160002081905550828473ffffffffffffffffffffffffffffffffffffffff167f1347ce935d48b1622e772cb855c5f27a0956e54f183acdd65752106fa013cd0884604051610b2d9190613500565b60405180910390a350505050565b7f9f2df0fed2c77648de5860a4cc508cd0818c85b8b8a1ab4ceeef8d981c8956a6610b658161194e565b610b7185858585611b58565b5050505050565b600060036000838152602001908152602001600020600101549050919050565b6000600c60008473ffffffffffffffffffffffffffffffffffffffff1673ffffffffffffffffffffffffffffffffffffffff168152602001908152602001600020600083815260200190815260200160002054905092915050565b6000610bfd611bde565b90508073ffffffffffffffffffffffffffffffffffffffff168673ffffffffffffffffffffffffffffffffffffffff1614158015610c425750610c40868261163e565b155b15610c865780866040517fe237d922000000000000000000000000000000000000000000000000000000008152600401610c7d9291906144e3565b60405180910390fd5b610c938686868686611be6565b505050505050565b610ca482610b78565b610cad8161194e565b610cb78383611cde565b50505050565b610cc5611bde565b73ffffffffffffffffffffffffffffffffffffffff168173ffffffffffffffffffffffffffffffffffffffff1614610d29576040517f6697b23200000000000000000000000000000000000000000000000000000000815260040160405180910390fd5b610d338282611dd0565b505050565b7f65d7a28e3265b37a6474929f336521b332c1681b933f6cb9f3376673440d862a610d628161194e565b610d6a611ec3565b50565b7f5bd33557d028fa6327a6c10090602e75b5763bcbc8c9d2f602672edd0eee7a0881565b60608151835114610dd7576040517f08c379a0000000000000000000000000000000000000000000000000000000008152600401610dce9061457e565b60405180910390fd5b6000835167ffffffffffffffff811115610df457610df36135f1565b5b604051908082528060200260200182016040528015610e225781602001602082028036833780820191505090505b50905060005b8451811015610e9f57610e6f858281518110610e4757610e4661439c565b5b6020026020010151858381518110610e6257610e6161439c565b5b60200260200101516107c1565b828281518110610e8257610e8161439c565b5b60200260200101818152505080610e98906143fa565b9050610e28565b508091505092915050565b600080610eb6836114ae565b119050919050565b7f7804d923f43a17d325d77e781528e0793b2edd9890ab45fc64efd7b4b427744c610ee88161194e565b610ef182611f26565b5050565b6000600460009054906101000a900460ff16905090565b7f5bd33557d028fa6327a6c10090602e75b5763bcbc8c9d2f602672edd0eee7a08610f368161194e565b8151835114610f7a576040517f08c379a0000000000000000000000000000000000000000000000000000000008152600401610f7190614610565b60405180910390fd5b60005b835181101561110b576000610fac86868481518110610f9f57610f9e61439c565b5b602002602001015161187a565b11610fec576040517f08c379a0000000000000000000000000000000000000000000000000000000008152600401610fe3906144b4565b60405180910390fd5b828181518110610fff57610ffe61439c565b5b6020026020010151600c60008773ffffffffffffffffffffffffffffffffffffffff1673ffffffffffffffffffffffffffffffffffffffff168152602001908152602001600020600086848151811061105b5761105a61439c565b5b60200260200101518152602001908152602001600020819055508381815181106110885761108761439c565b5b60200260200101518573ffffffffffffffffffffffffffffffffffffffff167f1347ce935d48b1622e772cb855c5f27a0956e54f183acdd65752106fa013cd088584815181106110db576110da61439c565b5b60200260200101516040516110f09190613500565b60405180910390a38080611103906143fa565b915050610f7d565b5050505050565b61111a611bde565b73ffffffffffffffffffffffffffffffffffffffff168373ffffffffffffffffffffffffffffffffffffffff161415801561116357506111618361115c611bde565b61163e565b155b156111ae57611170611bde565b836040517fe237d9220000000000000000000000000000000000000000000000000000000081526004016111a59291906144e3565b60405180910390fd5b6111b9838383611f39565b505050565b7f9f2df0fed2c77648de5860a4cc508cd0818c85b8b8a1ab4ceeef8d981c8956a66111e88161194e565b6111f485858585611fcd565b5050505050565b7f7804d923f43a17d325d77e781528e0793b2edd9890ab45fc64efd7b4b427744c81565b7f65d7a28e3265b37a6474929f336521b332c1681b933f6cb9f3376673440d862a6112498161194e565b611251612066565b50565b60006003600084815260200190815260200160002060000160008373ffffffffffffffffffffffffffffffffffffffff1673ffffffffffffffffffffffffffffffffffffffff16815260200190815260200160002060009054906101000a900460ff16905092915050565b7f9f2df0fed2c77648de5860a4cc508cd0818c85b8b8a1ab4ceeef8d981c8956a66112e98161194e565b825185511461132d576040517f08c379a000000000000000000000000000000000000000000000000000000000815260040161132490614610565b60405180910390fd5b61133986868685611b58565b60005b855181101561148857600084828151811061135a5761135961439c565b5b602002602001015111156114755783818151811061137b5761137a61439c565b5b6020026020010151600c60008973ffffffffffffffffffffffffffffffffffffffff1673ffffffffffffffffffffffffffffffffffffffff16815260200190815260200160002060008884815181106113d7576113d661439c565b5b60200260200101518152602001908152602001600020819055508581815181106114045761140361439c565b5b60200260200101518773ffffffffffffffffffffffffffffffffffffffff167f1347ce935d48b1622e772cb855c5f27a0956e54f183acdd65752106fa013cd088684815181106114575761145661439c565b5b602002602001015160405161146c9190613500565b60405180910390a35b8080611480906143fa565b91505061133c565b50505050505050565b6000801b81565b6114aa6114a3611bde565b83836120c9565b5050565b600060056000838152602001908152602001600020549050919050565b7f9f2df0fed2c77648de5860a4cc508cd0818c85b8b8a1ab4ceeef8d981c8956a66114f58161194e565b61150186868685611fcd565b60008311156115af5782600c60008873ffffffffffffffffffffffffffffffffffffffff1673ffffffffffffffffffffffffffffffffffffffff168152602001908152602001600020600087815260200190815260200160002081905550848673ffffffffffffffffffffffffffffffffffffffff167f1347ce935d48b1622e772cb855c5f27a0956e54f183acdd65752106fa013cd08856040516115a69190613500565b60405180910390a35b505050505050565b7f9f2df0fed2c77648de5860a4cc508cd0818c85b8b8a1ab4ceeef8d981c8956a681565b6115e482610b78565b6115ed8161194e565b6115f78383611dd0565b50505050565b600060096000838152602001908152602001600020549050919050565b7f65d7a28e3265b37a6474929f336521b332c1681b933f6cb9f3376673440d862a81565b6000600160008473ffffffffffffffffffffffffffffffffffffffff1673ffffffffffffffffffffffffffffffffffffffff16815260200190815260200160002060008373ffffffffffffffffffffffffffffffffffffffff1673ffffffffffffffffffffffffffffffffffffffff16815260200190815260200160002060009054906101000a900460ff16905092915050565b6000600a6000838152602001908152602001600020549050919050565b7f9f2df0fed2c77648de5860a4cc508cd0818c85b8b8a1ab4ceeef8d981c8956a66117198161194e565b61172282611975565b5050565b6000611730611bde565b90508073ffffffffffffffffffffffffffffffffffffffff168673ffffffffffffffffffffffffffffffffffffffff16141580156117755750611773868261163e565b155b156117b95780866040517fe237d9220000000000000000000000000000000000000000000000000000000081526004016117b09291906144e3565b60405180910390fd5b6117c68686868686612239565b505050505050565b6117d6611bde565b73ffffffffffffffffffffffffffffffffffffffff168373ffffffffffffffffffffffffffffffffffffffff161415801561181f575061181d83611818611bde565b61163e565b155b1561186a5761182c611bde565b836040517fe237d9220000000000000000000000000000000000000000000000000000000081526004016118619291906144e3565b60405180910390fd5b611875838383612344565b505050565b600080600083815260200190815260200160002060008473ffffffffffffffffffffffffffffffffffffffff1673ffffffffffffffffffffffffffffffffffffffff16815260200190815260200160002054905092915050565b60007f7965db0b000000000000000000000000000000000000000000000000000000007bffffffffffffffffffffffffffffffffffffffffffffffffffffffff1916827bffffffffffffffffffffffffffffffffffffffffffffffffffffffff191614806119475750611946826123eb565b5b9050919050565b61195f8161195a611bde565b6124cd565b50565b8060029081611971919061483c565b5050565b6000600960008381526020019081526020016000205403611a0b576000600b60008154809291906119a5906143fa565b91905055905080600960008481526020019081526020016000208190555081600a60008381526020019081526020016000208190555080827fea3e0acfc42d04765cb7947585765a242d0fd12a634edfb22c44cf42a363b2b860405160405180910390a3505b50565b60606000600860008481526020019081526020016000208054611a309061465f565b80601f0160208091040260200160405190810160405280929190818152602001828054611a5c9061465f565b8015611aa95780601f10611a7e57610100808354040283529160200191611aa9565b820191906000526020600020905b815481529060010190602001808311611a8c57829003601f168201915b505050505090506000815111611ac757611ac28361251e565b611aeb565b600781604051602001611adb9291906149cd565b6040516020818303038152906040525b915050919050565b80600860008481526020019081526020016000209081611b13919061483c565b50817f6bb7ff708619ba0610cba295a58592e0451dee2622938c8755667688daf3529b611b3f84610956565b604051611b4c9190613958565b60405180910390a25050565b600073ffffffffffffffffffffffffffffffffffffffff168473ffffffffffffffffffffffffffffffffffffffff1603611bca5760006040517f57f447ce000000000000000000000000000000000000000000000000000000008152600401611bc191906149f1565b60405180910390fd5b611bd86000858585856125b2565b50505050565b600033905090565b600073ffffffffffffffffffffffffffffffffffffffff168473ffffffffffffffffffffffffffffffffffffffff1603611c585760006040517f57f447ce000000000000000000000000000000000000000000000000000000008152600401611c4f91906149f1565b60405180910390fd5b600073ffffffffffffffffffffffffffffffffffffffff168573ffffffffffffffffffffffffffffffffffffffff1603611cca5760006040517f01a83514000000000000000000000000000000000000000000000000000000008152600401611cc191906149f1565b60405180910390fd5b611cd785858585856125b2565b5050505050565b6000611cea8383611254565b611dc55760016003600085815260200190815260200160002060000160008473ffffffffffffffffffffffffffffffffffffffff1673ffffffffffffffffffffffffffffffffffffffff16815260200190815260200160002060006101000a81548160ff021916908315150217905550611d62611bde565b73ffffffffffffffffffffffffffffffffffffffff168273ffffffffffffffffffffffffffffffffffffffff16847f2f8788117e7eff1d82e926ec794901d17c78024a50270940304540a733656f0d60405160405180910390a460019050611dca565b600090505b92915050565b6000611ddc8383611254565b15611eb85760006003600085815260200190815260200160002060000160008473ffffffffffffffffffffffffffffffffffffffff1673ffffffffffffffffffffffffffffffffffffffff16815260200190815260200160002060006101000a81548160ff021916908315150217905550611e55611bde565b73ffffffffffffffffffffffffffffffffffffffff168273ffffffffffffffffffffffffffffffffffffffff16847ff6391f5c32d9c69d2a47ea670b442974b53935d1edc7fd64eb21e047a839171b60405160405180910390a460019050611ebd565b600090505b92915050565b611ecb612664565b6000600460006101000a81548160ff0219169083151502179055507f5db9ee0a495bf2e6ff9c91a7834c1ba4fdd244a5e8aa4e537bd38aeae4b073aa611f0f611bde565b604051611f1c91906149f1565b60405180910390a1565b8060079081611f35919061483c565b5050565b600073ffffffffffffffffffffffffffffffffffffffff168373ffffffffffffffffffffffffffffffffffffffff1603611fab5760006040517f01a83514000000000000000000000000000000000000000000000000000000008152600401611fa291906149f1565b60405180910390fd5b611fc88360008484604051806020016040528060008152506125b2565b505050565b600073ffffffffffffffffffffffffffffffffffffffff168473ffffffffffffffffffffffffffffffffffffffff160361203f5760006040517f57f447ce00000000000000000000000000000000000000000000000000000000815260040161203691906149f1565b60405180910390fd5b60008061204c85856126a4565b9150915061205e6000878484876125b2565b505050505050565b61206e6126d4565b6001600460006101000a81548160ff0219169083151502179055507f62e78cea01bee320cd4e420270b5ea74000d11b0c9f74754ebdbfc544b05a2586120b2611bde565b6040516120bf91906149f1565b60405180910390a1565b600073ffffffffffffffffffffffffffffffffffffffff168273ffffffffffffffffffffffffffffffffffffffff160361213b5760006040517fced3e10000000000000000000000000000000000000000000000000000000000815260040161213291906149f1565b60405180910390fd5b80600160008573ffffffffffffffffffffffffffffffffffffffff1673ffffffffffffffffffffffffffffffffffffffff16815260200190815260200160002060008473ffffffffffffffffffffffffffffffffffffffff1673ffffffffffffffffffffffffffffffffffffffff16815260200190815260200160002060006101000a81548160ff0219169083151502179055508173ffffffffffffffffffffffffffffffffffffffff168373ffffffffffffffffffffffffffffffffffffffff167f17307eab39ab6107e8899845ad3d59bd9653f200f220920489ca2b5937696c318360405161222c91906135bb565b60405180910390a3505050565b600073ffffffffffffffffffffffffffffffffffffffff168473ffffffffffffffffffffffffffffffffffffffff16036122ab5760006040517f57f447ce0000000000000000000000000000000000000000000000000000000081526004016122a291906149f1565b60405180910390fd5b600073ffffffffffffffffffffffffffffffffffffffff168573ffffffffffffffffffffffffffffffffffffffff160361231d5760006040517f01a8351400000000000000000000000000000000000000000000000000000000815260040161231491906149f1565b60405180910390fd5b60008061232a85856126a4565b9150915061233b87878484876125b2565b50505050505050565b600073ffffffffffffffffffffffffffffffffffffffff168373ffffffffffffffffffffffffffffffffffffffff16036123b65760006040517f01a835140000000000000000000000000000000000000000000000000000000081526004016123ad91906149f1565b60405180910390fd5b6000806123c384846126a4565b915091506123e48560008484604051806020016040528060008152506125b2565b5050505050565b60007fd9b67a26000000000000000000000000000000000000000000000000000000007bffffffffffffffffffffffffffffffffffffffffffffffffffffffff1916827bffffffffffffffffffffffffffffffffffffffffffffffffffffffff191614806124b657507f0e89341c000000000000000000000000000000000000000000000000000000007bffffffffffffffffffffffffffffffffffffffffffffffffffffffff1916827bffffffffffffffffffffffffffffffffffffffffffffffffffffffff1916145b806124c657506124c582612715565b5b9050919050565b6124d78282611254565b61251a5780826040517fe2517d3f000000000000000000000000000000000000000000000000000000008152600401612511929190614a0c565b60405180910390fd5b5050565b60606002805461252d9061465f565b80601f01602080910402602001604051908101604052809291908181526020018280546125599061465f565b80156125a65780601f1061257b576101008083540402835291602001916125a6565b820191906000526020600020905b81548152906001019060200180831161258957829003601f168201915b50505050509050919050565b6125be8585858561277f565b600073ffffffffffffffffffffffffffffffffffffffff168473ffffffffffffffffffffffffffffffffffffffff161461265d5760006125fc611bde565b9050600184510361264c57600061261d600086612b2e90919063ffffffff16565b90506000612635600086612b2e90919063ffffffff16565b9050612645838989858589612b42565b505061265b565b61265a818787878787612cf6565b5b505b5050505050565b61266c610ef5565b6126a2576040517f8dfc202b00000000000000000000000000000000000000000000000000000000815260040160405180910390fd5b565b60608060405191506001825283602083015260408201905060018152826020820152604081016040529250929050565b6126dc610ef5565b15612713576040517fd93c066500000000000000000000000000000000000000000000000000000000815260040160405180910390fd5b565b60007f01ffc9a7000000000000000000000000000000000000000000000000000000007bffffffffffffffffffffffffffffffffffffffffffffffffffffffff1916827bffffffffffffffffffffffffffffffffffffffffffffffffffffffff1916149050919050565b600073ffffffffffffffffffffffffffffffffffffffff168473ffffffffffffffffffffffffffffffffffffffff16141580156127e95750600073ffffffffffffffffffffffffffffffffffffffff168373ffffffffffffffffffffffffffffffffffffffff1614155b1561285f5761281f7f9f2df0fed2c77648de5860a4cc508cd0818c85b8b8a1ab4ceeef8d981c8956a661281a611bde565b611254565b61285e576040517f08c379a000000000000000000000000000000000000000000000000000000000815260040161285590614aa7565b60405180910390fd5b5b600073ffffffffffffffffffffffffffffffffffffffff168473ffffffffffffffffffffffffffffffffffffffff16146129ce5760005b82518110156129cc5760008282815181106128b4576128b361439c565b5b602002602001015111156129b9576000600c60008773ffffffffffffffffffffffffffffffffffffffff1673ffffffffffffffffffffffffffffffffffffffff16815260200190815260200160002060008584815181106129185761291761439c565b5b60200260200101518152602001908152602001600020549050600081141580156129425750428111155b156129b757600073ffffffffffffffffffffffffffffffffffffffff168573ffffffffffffffffffffffffffffffffffffffff16146129b6576040517f08c379a00000000000000000000000000000000000000000000000000000000081526004016129ad90614b39565b60405180910390fd5b5b505b80806129c4906143fa565b915050612896565b505b6129da84848484612eaa565b600073ffffffffffffffffffffffffffffffffffffffff168373ffffffffffffffffffffffffffffffffffffffff1614158015612a445750600073ffffffffffffffffffffffffffffffffffffffff168473ffffffffffffffffffffffffffffffffffffffff1614155b15612b285760005b8251811015612b26576000828281518110612a6a57612a6961439c565b5b60200260200101511115612b13576000612a9e86858481518110612a9157612a9061439c565b5b602002602001015161187a565b03612b1257600c60008673ffffffffffffffffffffffffffffffffffffffff1673ffffffffffffffffffffffffffffffffffffffff1681526020019081526020016000206000848381518110612af757612af661439c565b5b60200260200101518152602001908152602001600020600090555b5b8080612b1e906143fa565b915050612a4c565b505b50505050565b600060208202602084010151905092915050565b60008473ffffffffffffffffffffffffffffffffffffffff163b1115612cee578373ffffffffffffffffffffffffffffffffffffffff1663f23a6e6187878686866040518663ffffffff1660e01b8152600401612ba3959493929190614bae565b6020604051808303816000875af1925050508015612bdf57506040513d601f19601f82011682018060405250810190612bdc9190614c1d565b60015b612c63573d8060008114612c0f576040519150601f19603f3d011682016040523d82523d6000602084013e612c14565b606091505b506000815103612c5b57846040517f57f447ce000000000000000000000000000000000000000000000000000000008152600401612c5291906149f1565b60405180910390fd5b805181602001fd5b63f23a6e6160e01b7bffffffffffffffffffffffffffffffffffffffffffffffffffffffff1916817bffffffffffffffffffffffffffffffffffffffffffffffffffffffff191614612cec57846040517f57f447ce000000000000000000000000000000000000000000000000000000008152600401612ce391906149f1565b60405180910390fd5b505b505050505050565b60008473ffffffffffffffffffffffffffffffffffffffff163b1115612ea2578373ffffffffffffffffffffffffffffffffffffffff1663bc197c8187878686866040518663ffffffff1660e01b8152600401612d57959493929190614c4a565b6020604051808303816000875af1925050508015612d9357506040513d601f19601f82011682018060405250810190612d909190614c1d565b60015b612e17573d8060008114612dc3576040519150601f19603f3d011682016040523d82523d6000602084013e612dc8565b606091505b506000815103612e0f57846040517f57f447ce000000000000000000000000000000000000000000000000000000008152600401612e0691906149f1565b60405180910390fd5b805181602001fd5b63bc197c8160e01b7bffffffffffffffffffffffffffffffffffffffffffffffffffffffff1916817bffffffffffffffffffffffffffffffffffffffffffffffffffffffff191614612ea057846040517f57f447ce000000000000000000000000000000000000000000000000000000008152600401612e9791906149f1565b60405180910390fd5b505b505050505050565b612eb684848484613041565b600073ffffffffffffffffffffffffffffffffffffffff168473ffffffffffffffffffffffffffffffffffffffff1603612f86576000805b8351811015612f6a576000612f0c8285612b2e90919063ffffffff16565b90508060056000612f268589612b2e90919063ffffffff16565b81526020019081526020016000206000828254612f439190614cb2565b925050819055508083612f569190614cb2565b92505080612f63906143fa565b9050612eee565b508060066000828254612f7d9190614cb2565b92505081905550505b600073ffffffffffffffffffffffffffffffffffffffff168373ffffffffffffffffffffffffffffffffffffffff160361303b576000805b8351811015613028576000612fdc8285612b2e90919063ffffffff16565b90508060056000612ff68589612b2e90919063ffffffff16565b81526020019081526020016000206000828254039250508190555080830192505080613021906143fa565b9050612fbe565b5080600660008282540392505081905550505b50505050565b6130496126d4565b6130558484848461305b565b50505050565b80518251146130a557815181516040517f5b05999100000000000000000000000000000000000000000000000000000000815260040161309c929190614ce6565b60405180910390fd5b60006130af611bde565b905060005b83518110156132c45760006130d28286612b2e90919063ffffffff16565b905060006130e98386612b2e90919063ffffffff16565b9050600073ffffffffffffffffffffffffffffffffffffffff168873ffffffffffffffffffffffffffffffffffffffff161461321657600080600084815260200190815260200160002060008a73ffffffffffffffffffffffffffffffffffffffff1673ffffffffffffffffffffffffffffffffffffffff168152602001908152602001600020549050818110156131be57888183856040517f03dee4c50000000000000000000000000000000000000000000000000000000081526004016131b59493929190614d0f565b60405180910390fd5b81810360008085815260200190815260200160002060008b73ffffffffffffffffffffffffffffffffffffffff1673ffffffffffffffffffffffffffffffffffffffff16815260200190815260200160002081905550505b600073ffffffffffffffffffffffffffffffffffffffff168773ffffffffffffffffffffffffffffffffffffffff16146132b1578060008084815260200190815260200160002060008973ffffffffffffffffffffffffffffffffffffffff1673ffffffffffffffffffffffffffffffffffffffff16815260200190815260200160002060008282546132a99190614cb2565b925050819055505b5050806132bd906143fa565b90506130b4565b5060018351036133835760006132e4600085612b2e90919063ffffffff16565b905060006132fc600085612b2e90919063ffffffff16565b90508573ffffffffffffffffffffffffffffffffffffffff168773ffffffffffffffffffffffffffffffffffffffff168473ffffffffffffffffffffffffffffffffffffffff167fc3d58168c5ae7397731d063d5bbf3d657854427343f4c083240f7aacaa2d0f628585604051613374929190614ce6565b60405180910390a45050613402565b8373ffffffffffffffffffffffffffffffffffffffff168573ffffffffffffffffffffffffffffffffffffffff168273ffffffffffffffffffffffffffffffffffffffff167f4a39dc06d4c0dbc64b70af90fd698a233a518aa5d07e595d983b8c0526c8f7fb86866040516133f9929190614d54565b60405180910390a45b5050505050565b6000604051905090565b600080fd5b600080fd5b600073ffffffffffffffffffffffffffffffffffffffff82169050919050565b60006134488261341d565b9050919050565b6134588161343d565b811461346357600080fd5b50565b6000813590506134758161344f565b92915050565b6000819050919050565b61348e8161347b565b811461349957600080fd5b50565b6000813590506134ab81613485565b92915050565b600080604083850312156134c8576134c7613413565b5b60006134d685828601613466565b92505060206134e78582860161349c565b9150509250929050565b6134fa8161347b565b82525050565b600060208201905061351560008301846134f1565b92915050565b60007fffffffff0000000000000000000000000000000000000000000000000000000082169050919050565b6135508161351b565b811461355b57600080fd5b50565b60008135905061356d81613547565b92915050565b60006020828403121561358957613588613413565b5b60006135978482850161355e565b91505092915050565b60008115159050919050565b6135b5816135a0565b82525050565b60006020820190506135d060008301846135ac565b92915050565b600080fd5b600080fd5b6000601f19601f8301169050919050565b7f4e487b7100000000000000000000000000000000000000000000000000000000600052604160045260246000fd5b613629826135e0565b810181811067ffffffffffffffff82111715613648576136476135f1565b5b80604052505050565b600061365b613409565b90506136678282613620565b919050565b600067ffffffffffffffff821115613687576136866135f1565b5b613690826135e0565b9050602081019050919050565b82818337600083830152505050565b60006136bf6136ba8461366c565b613651565b9050828152602081018484840111156136db576136da6135db565b5b6136e684828561369d565b509392505050565b600082601f830112613703576137026135d6565b5b81356137138482602086016136ac565b91505092915050565b60006020828403121561373257613731613413565b5b600082013567ffffffffffffffff8111156137505761374f613418565b5b61375c848285016136ee565b91505092915050565b600067ffffffffffffffff8211156137805761377f6135f1565b5b602082029050602081019050919050565b600080fd5b6000819050919050565b6137a981613796565b81146137b457600080fd5b50565b6000813590506137c6816137a0565b92915050565b60006137df6137da84613765565b613651565b9050808382526020820190506020840283018581111561380257613801613791565b5b835b8181101561382b578061381788826137b7565b845260208401935050602081019050613804565b5050509392505050565b600082601f83011261384a576138496135d6565b5b813561385a8482602086016137cc565b91505092915050565b60006020828403121561387957613878613413565b5b600082013567ffffffffffffffff81111561389757613896613418565b5b6138a384828501613835565b91505092915050565b6000602082840312156138c2576138c1613413565b5b60006138d08482850161349c565b91505092915050565b600081519050919050565b600082825260208201905092915050565b60005b838110156139135780820151818401526020810190506138f8565b60008484015250505050565b600061392a826138d9565b61393481856138e4565b93506139448185602086016138f5565b61394d816135e0565b840191505092915050565b60006020820190508181036000830152613972818461391f565b905092915050565b6000806040838503121561399157613990613413565b5b600061399f8582860161349c565b925050602083013567ffffffffffffffff8111156139c0576139bf613418565b5b6139cc858286016136ee565b9150509250929050565b6000806000606084860312156139ef576139ee613413565b5b60006139fd86828701613466565b9350506020613a0e8682870161349c565b9250506040613a1f8682870161349c565b9150509250925092565b600067ffffffffffffffff821115613a4457613a436135f1565b5b602082029050602081019050919050565b6000613a68613a6384613a29565b613651565b90508083825260208201905060208402830185811115613a8b57613a8a613791565b5b835b81811015613ab45780613aa0888261349c565b845260208401935050602081019050613a8d565b5050509392505050565b600082601f830112613ad357613ad26135d6565b5b8135613ae3848260208601613a55565b91505092915050565b600067ffffffffffffffff821115613b0757613b066135f1565b5b613b10826135e0565b9050602081019050919050565b6000613b30613b2b84613aec565b613651565b905082815260208101848484011115613b4c57613b4b6135db565b5b613b5784828561369d565b509392505050565b600082601f830112613b7457613b736135d6565b5b8135613b84848260208601613b1d565b91505092915050565b60008060008060808587031215613ba757613ba6613413565b5b6000613bb587828801613466565b945050602085013567ffffffffffffffff811115613bd657613bd5613418565b5b613be287828801613abe565b935050604085013567ffffffffffffffff811115613c0357613c02613418565b5b613c0f87828801613abe565b925050606085013567ffffffffffffffff811115613c3057613c2f613418565b5b613c3c87828801613b5f565b91505092959194509250565b600060208284031215613c5e57613c5d613413565b5b6000613c6c848285016137b7565b91505092915050565b613c7e81613796565b82525050565b6000602082019050613c996000830184613c75565b92915050565b600080600080600060a08688031215613cbb57613cba613413565b5b6000613cc988828901613466565b9550506020613cda88828901613466565b945050604086013567ffffffffffffffff811115613cfb57613cfa613418565b5b613d0788828901613abe565b935050606086013567ffffffffffffffff811115613d2857613d27613418565b5b613d3488828901613abe565b925050608086013567ffffffffffffffff811115613d5557613d54613418565b5b613d6188828901613b5f565b9150509295509295909350565b60008060408385031215613d8557613d84613413565b5b6000613d93858286016137b7565b9250506020613da485828601613466565b9150509250929050565b600067ffffffffffffffff821115613dc957613dc86135f1565b5b602082029050602081019050919050565b6000613ded613de884613dae565b613651565b90508083825260208201905060208402830185811115613e1057613e0f613791565b5b835b81811015613e395780613e258882613466565b845260208401935050602081019050613e12565b5050509392505050565b600082601f830112613e5857613e576135d6565b5b8135613e68848260208601613dda565b91505092915050565b60008060408385031215613e8857613e87613413565b5b600083013567ffffffffffffffff811115613ea657613ea5613418565b5b613eb285828601613e43565b925050602083013567ffffffffffffffff811115613ed357613ed2613418565b5b613edf85828601613abe565b9150509250929050565b600081519050919050565b600082825260208201905092915050565b6000819050602082019050919050565b613f1e8161347b565b82525050565b6000613f308383613f15565b60208301905092915050565b6000602082019050919050565b6000613f5482613ee9565b613f5e8185613ef4565b9350613f6983613f05565b8060005b83811015613f9a578151613f818882613f24565b9750613f8c83613f3c565b925050600181019050613f6d565b5085935050505092915050565b60006020820190508181036000830152613fc18184613f49565b905092915050565b600080600060608486031215613fe257613fe1613413565b5b6000613ff086828701613466565b935050602084013567ffffffffffffffff81111561401157614010613418565b5b61401d86828701613abe565b925050604084013567ffffffffffffffff81111561403e5761403d613418565b5b61404a86828701613abe565b9150509250925092565b6000806000806080858703121561406e5761406d613413565b5b600061407c87828801613466565b945050602061408d8782880161349c565b935050604061409e8782880161349c565b925050606085013567ffffffffffffffff8111156140bf576140be613418565b5b6140cb87828801613b5f565b91505092959194509250565b600080600080600060a086880312156140f3576140f2613413565b5b600061410188828901613466565b955050602086013567ffffffffffffffff81111561412257614121613418565b5b61412e88828901613abe565b945050604086013567ffffffffffffffff81111561414f5761414e613418565b5b61415b88828901613abe565b935050606086013567ffffffffffffffff81111561417c5761417b613418565b5b61418888828901613abe565b925050608086013567ffffffffffffffff8111156141a9576141a8613418565b5b6141b588828901613b5f565b9150509295509295909350565b6141cb816135a0565b81146141d657600080fd5b50565b6000813590506141e8816141c2565b92915050565b6000806040838503121561420557614204613413565b5b600061421385828601613466565b9250506020614224858286016141d9565b9150509250929050565b600080600080600060a0868803121561424a57614249613413565b5b600061425888828901613466565b95505060206142698882890161349c565b945050604061427a8882890161349c565b935050606061428b8882890161349c565b925050608086013567ffffffffffffffff8111156142ac576142ab613418565b5b6142b888828901613b5f565b9150509295509295909350565b600080604083850312156142dc576142db613413565b5b60006142ea85828601613466565b92505060206142fb85828601613466565b9150509250929050565b600080600080600060a0868803121561432157614320613413565b5b600061432f88828901613466565b955050602061434088828901613466565b94505060406143518882890161349c565b93505060606143628882890161349c565b925050608086013567ffffffffffffffff81111561438357614382613418565b5b61438f88828901613b5f565b9150509295509295909350565b7f4e487b7100000000000000000000000000000000000000000000000000000000600052603260045260246000fd5b7f4e487b7100000000000000000000000000000000000000000000000000000000600052601160045260246000fd5b60006144058261347b565b91507fffffffffffffffffffffffffffffffffffffffffffffffffffffffffffffffff8203614437576144366143cb565b5b600182019050919050565b7f4950446f6356393a204163636f756e7420686173206e6f2062616c616e63652060008201527f746f206578706972650000000000000000000000000000000000000000000000602082015250565b600061449e6029836138e4565b91506144a982614442565b604082019050919050565b600060208201905081810360008301526144cd81614491565b9050919050565b6144dd8161343d565b82525050565b60006040820190506144f860008301856144d4565b61450560208301846144d4565b9392505050565b7f4950446f6356393a206163636f756e747320616e6420696473206c656e67746860008201527f206d69736d617463680000000000000000000000000000000000000000000000602082015250565b60006145686029836138e4565b91506145738261450c565b604082019050919050565b600060208201905081810360008301526145978161455b565b9050919050565b7f4950446f6356393a2069647320616e642065787069726174696f6e54696d657360008201527f206c656e677468206d69736d6174636800000000000000000000000000000000602082015250565b60006145fa6030836138e4565b91506146058261459e565b604082019050919050565b60006020820190508181036000830152614629816145ed565b9050919050565b7f4e487b7100000000000000000000000000000000000000000000000000000000600052602260045260246000fd5b6000600282049050600182168061467757607f821691505b60208210810361468a57614689614630565b5b50919050565b60008190508160005260206000209050919050565b60006020601f8301049050919050565b600082821b905092915050565b6000600883026146f27fffffffffffffffffffffffffffffffffffffffffffffffffffffffffffffffff826146b5565b6146fc86836146b5565b95508019841693508086168417925050509392505050565b6000819050919050565b600061473961473461472f8461347b565b614714565b61347b565b9050919050565b6000819050919050565b6147538361471e565b61476761475f82614740565b8484546146c2565b825550505050565b600090565b61477c61476f565b61478781848461474a565b505050565b5b818110156147ab576147a0600082614774565b60018101905061478d565b5050565b601f8211156147f0576147c181614690565b6147ca846146a5565b810160208510156147d9578190505b6147ed6147e5856146a5565b83018261478c565b50505b505050565b600082821c905092915050565b6000614813600019846008026147f5565b1980831691505092915050565b600061482c8383614802565b9150826002028217905092915050565b614845826138d9565b67ffffffffffffffff81111561485e5761485d6135f1565b5b614868825461465f565b6148738282856147af565b600060209050601f8311600181146148a65760008415614894578287015190505b61489e8582614820565b865550614906565b601f1984166148b486614690565b60005b828110156148dc578489015182556001820191506020850194506020810190506148b7565b868310156148f957848901516148f5601f891682614802565b8355505b6001600288020188555050505b505050505050565b600081905092915050565b600081546149268161465f565b614930818661490e565b9450600182166000811461494b576001811461496057614993565b60ff1983168652811515820286019350614993565b61496985614690565b60005b8381101561498b5781548189015260018201915060208101905061496c565b838801955050505b50505092915050565b60006149a7826138d9565b6149b1818561490e565b93506149c18185602086016138f5565b80840191505092915050565b60006149d98285614919565b91506149e5828461499c565b91508190509392505050565b6000602082019050614a0660008301846144d4565b92915050565b6000604082019050614a2160008301856144d4565b614a2e6020830184613c75565b9392505050565b7f4950446f6356393a206d7573742068617665206d696e74657220726f6c65207460008201527f6f207472616e7366657200000000000000000000000000000000000000000000602082015250565b6000614a91602a836138e4565b9150614a9c82614a35565b604082019050919050565b60006020820190508181036000830152614ac081614a84565b9050919050565b7f4950446f6356393a2043616e6e6f74207472616e73666572206578706972656460008201527f20746f6b656e732065786365707420746f206275726e00000000000000000000602082015250565b6000614b236036836138e4565b9150614b2e82614ac7565b604082019050919050565b60006020820190508181036000830152614b5281614b16565b9050919050565b600081519050919050565b600082825260208201905092915050565b6000614b8082614b59565b614b8a8185614b64565b9350614b9a8185602086016138f5565b614ba3816135e0565b840191505092915050565b600060a082019050614bc360008301886144d4565b614bd060208301876144d4565b614bdd60408301866134f1565b614bea60608301856134f1565b8181036080830152614bfc8184614b75565b90509695505050505050565b600081519050614c1781613547565b92915050565b600060208284031215614c3357614c32613413565b5b6000614c4184828501614c08565b91505092915050565b600060a082019050614c5f60008301886144d4565b614c6c60208301876144d4565b8181036040830152614c7e8186613f49565b90508181036060830152614c928185613f49565b90508181036080830152614ca68184614b75565b90509695505050505050565b6000614cbd8261347b565b9150614cc88361347b565b9250828201905080821115614ce057614cdf6143cb565b5b92915050565b6000604082019050614cfb60008301856134f1565b614d0860208301846134f1565b9392505050565b6000608082019050614d2460008301876144d4565b614d3160208301866134f1565b614d3e60408301856134f1565b614d4b60608301846134f1565b95945050505050565b60006040820190508181036000830152614d6e8185613f49565b90508181036020830152614d828184613f49565b9050939250505056fea26469706673582212202cc75fa0a0db4d67bd1b06b018f9c4f420882474db1b096087fe6ae70c46a0c764736f6c63430008140033","opcodes":"PUSH1 0x80 PUSH1 0x40 MSTORE PUSH1 0x40 MLOAD DUP1 PUSH1 0x20 ADD PUSH1 0x40 MSTORE DUP1 PUSH1 0x0 DUP2 MSTORE POP PUSH1 0x7 SWAP1 DUP2 PUSH3 0x24 SWAP2 SWAP1 PUSH3 0x5B1 JUMP JUMPDEST POP PUSH1 0x1 PUSH1 0xB SSTORE CALLVALUE DUP1 ISZERO PUSH3 0x37 JUMPI PUSH1 0x0 DUP1 REVERT JUMPDEST POP PUSH1 0x40 MLOAD PUSH3 0x552F CODESIZE SUB DUP1 PUSH3 0x552F DUP4 CODECOPY DUP2 DUP2 ADD PUSH1 0x40 MSTORE DUP2 ADD SWAP1 PUSH3 0x5D SWAP2 SWAP1 PUSH3 0x702 JUMP JUMPDEST PUSH1 0x40 MLOAD DUP1 PUSH1 0x40 ADD PUSH1 0x40 MSTORE DUP1 PUSH1 0x1D DUP2 MSTORE PUSH1 0x20 ADD PUSH32 0x68747470733A2F2F73616665696465612E6E65742F646F632F7B69647D000000 DUP2 MSTORE POP PUSH3 0xA4 DUP2 PUSH3 0x1AB PUSH1 0x20 SHL PUSH1 0x20 SHR JUMP JUMPDEST POP PUSH1 0x0 PUSH1 0x4 PUSH1 0x0 PUSH2 0x100 EXP DUP2 SLOAD DUP2 PUSH1 0xFF MUL NOT AND SWAP1 DUP4 ISZERO ISZERO MUL OR SWAP1 SSTORE POP PUSH3 0xD5 PUSH1 0x0 DUP1 SHL DUP5 PUSH3 0x1C0 PUSH1 0x20 SHL PUSH1 0x20 SHR JUMP JUMPDEST POP PUSH3 0x108 PUSH32 0x7804D923F43A17D325D77E781528E0793B2EDD9890AB45FC64EFD7B4B427744C DUP5 PUSH3 0x1C0 PUSH1 0x20 SHL PUSH1 0x20 SHR JUMP JUMPDEST POP PUSH3 0x13B PUSH32 0x65D7A28E3265B37A6474929F336521B332C1681B933F6CB9F3376673440D862A DUP4 PUSH3 0x1C0 PUSH1 0x20 SHL PUSH1 0x20 SHR JUMP JUMPDEST POP PUSH3 0x16E PUSH32 0x9F2DF0FED2C77648DE5860A4CC508CD0818C85B8B8A1AB4CEEEF8D981C8956A6 DUP3 PUSH3 0x1C0 PUSH1 0x20 SHL PUSH1 0x20 SHR JUMP JUMPDEST POP PUSH3 0x1A1 PUSH32 0x5BD33557D028FA6327A6C10090602E75B5763BCBC8C9D2F602672EDD0EEE7A08 DUP3 PUSH3 0x1C0 PUSH1 0x20 SHL PUSH1 0x20 SHR JUMP JUMPDEST POP POP POP POP PUSH3 0x75E JUMP JUMPDEST DUP1 PUSH1 0x2 SWAP1 DUP2 PUSH3 0x1BC SWAP2 SWAP1 PUSH3 0x5B1 JUMP JUMPDEST POP POP JUMP JUMPDEST PUSH1 0x0 PUSH3 0x1D4 DUP4 DUP4 PUSH3 0x2C4 PUSH1 0x20 SHL PUSH1 0x20 SHR JUMP JUMPDEST PUSH3 0x2B9 JUMPI PUSH1 0x1 PUSH1 0x3 PUSH1 0x0 DUP6 DUP2 MSTORE PUSH1 0x20 ADD SWAP1 DUP2 MSTORE PUSH1 0x20 ADD PUSH1 0x0 KECCAK256 PUSH1 0x0 ADD PUSH1 0x0 DUP5 PUSH20 0xFFFFFFFFFFFFFFFFFFFFFFFFFFFFFFFFFFFFFFFF AND PUSH20 0xFFFFFFFFFFFFFFFFFFFFFFFFFFFFFFFFFFFFFFFF AND DUP2 MSTORE PUSH1 0x20 ADD SWAP1 DUP2 MSTORE PUSH1 0x20 ADD PUSH1 0x0 KECCAK256 PUSH1 0x0 PUSH2 0x100 EXP DUP2 SLOAD DUP2 PUSH1 0xFF MUL NOT AND SWAP1 DUP4 ISZERO ISZERO MUL OR SWAP1 SSTORE POP PUSH3 0x255 PUSH3 0x32F PUSH1 0x20 SHL PUSH1 0x20 SHR JUMP JUMPDEST PUSH20 0xFFFFFFFFFFFFFFFFFFFFFFFFFFFFFFFFFFFFFFFF AND DUP3 PUSH20 0xFFFFFFFFFFFFFFFFFFFFFFFFFFFFFFFFFFFFFFFF AND DUP5 PUSH32 0x2F8788117E7EFF1D82E926EC794901D17C78024A50270940304540A733656F0D PUSH1 0x40 MLOAD PUSH1 0x40 MLOAD DUP1 SWAP2 SUB SWAP1 LOG4 PUSH1 0x1 SWAP1 POP PUSH3 0x2BE JUMP JUMPDEST PUSH1 0x0 SWAP1 POP JUMPDEST SWAP3 SWAP2 POP POP JUMP JUMPDEST PUSH1 0x0 PUSH1 0x3 PUSH1 0x0 DUP5 DUP2 MSTORE PUSH1 0x20 ADD SWAP1 DUP2 MSTORE PUSH1 0x20 ADD PUSH1 0x0 KECCAK256 PUSH1 0x0 ADD PUSH1 0x0 DUP4 PUSH20 0xFFFFFFFFFFFFFFFFFFFFFFFFFFFFFFFFFFFFFFFF AND PUSH20 0xFFFFFFFFFFFFFFFFFFFFFFFFFFFFFFFFFFFFFFFF AND DUP2 MSTORE PUSH1 0x20 ADD SWAP1 DUP2 MSTORE PUSH1 0x20 ADD PUSH1 0x0 KECCAK256 PUSH1 0x0 SWAP1 SLOAD SWAP1 PUSH2 0x100 EXP SWAP1 DIV PUSH1 0xFF AND SWAP1 POP SWAP3 SWAP2 POP POP JUMP JUMPDEST PUSH1 0x0 CALLER SWAP1 POP SWAP1 JUMP JUMPDEST PUSH1 0x0 DUP2 MLOAD SWAP1 POP SWAP2 SWAP1 POP JUMP JUMPDEST PUSH32 0x4E487B7100000000000000000000000000000000000000000000000000000000 PUSH1 0x0 MSTORE PUSH1 0x41 PUSH1 0x4 MSTORE PUSH1 0x24 PUSH1 0x0 REVERT JUMPDEST PUSH32 0x4E487B7100000000000000000000000000000000000000000000000000000000 PUSH1 0x0 MSTORE PUSH1 0x22 PUSH1 0x4 MSTORE PUSH1 0x24 PUSH1 0x0 REVERT JUMPDEST PUSH1 0x0 PUSH1 0x2 DUP3 DIV SWAP1 POP PUSH1 0x1 DUP3 AND DUP1 PUSH3 0x3B9 JUMPI PUSH1 0x7F DUP3 AND SWAP2 POP JUMPDEST PUSH1 0x20 DUP3 LT DUP2 SUB PUSH3 0x3CF JUMPI PUSH3 0x3CE PUSH3 0x371 JUMP JUMPDEST JUMPDEST POP SWAP2 SWAP1 POP JUMP JUMPDEST PUSH1 0x0 DUP2 SWAP1 POP DUP2 PUSH1 0x0 MSTORE PUSH1 0x20 PUSH1 0x0 KECCAK256 SWAP1 POP SWAP2 SWAP1 POP JUMP JUMPDEST PUSH1 0x0 PUSH1 0x20 PUSH1 0x1F DUP4 ADD DIV SWAP1 POP SWAP2 SWAP1 POP JUMP JUMPDEST PUSH1 0x0 DUP3 DUP3 SHL SWAP1 POP SWAP3 SWAP2 POP POP JUMP JUMPDEST PUSH1 0x0 PUSH1 0x8 DUP4 MUL PUSH3 0x439 PUSH32 0xFFFFFFFFFFFFFFFFFFFFFFFFFFFFFFFFFFFFFFFFFFFFFFFFFFFFFFFFFFFFFFFF DUP3 PUSH3 0x3FA JUMP JUMPDEST PUSH3 0x445 DUP7 DUP4 PUSH3 0x3FA JUMP JUMPDEST SWAP6 POP DUP1 NOT DUP5 AND SWAP4 POP DUP1 DUP7 AND DUP5 OR SWAP3 POP POP POP SWAP4 SWAP3 POP POP POP JUMP JUMPDEST PUSH1 0x0 DUP2 SWAP1 POP SWAP2 SWAP1 POP JUMP JUMPDEST PUSH1 0x0 DUP2 SWAP1 POP SWAP2 SWAP1 POP JUMP JUMPDEST PUSH1 0x0 PUSH3 0x492 PUSH3 0x48C PUSH3 0x486 DUP5 PUSH3 0x45D JUMP JUMPDEST PUSH3 0x467 JUMP JUMPDEST PUSH3 0x45D JUMP JUMPDEST SWAP1 POP SWAP2 SWAP1 POP JUMP JUMPDEST PUSH1 0x0 DUP2 SWAP1 POP SWAP2 SWAP1 POP JUMP JUMPDEST PUSH3 0x4AE DUP4 PUSH3 0x471 JUMP JUMPDEST PUSH3 0x4C6 PUSH3 0x4BD DUP3 PUSH3 0x499 JUMP JUMPDEST DUP5 DUP5 SLOAD PUSH3 0x407 JUMP JUMPDEST DUP3 SSTORE POP POP POP POP JUMP JUMPDEST PUSH1 0x0 SWAP1 JUMP JUMPDEST PUSH3 0x4DD PUSH3 0x4CE JUMP JUMPDEST PUSH3 0x4EA DUP2 DUP5 DUP5 PUSH3 0x4A3 JUMP JUMPDEST POP POP POP JUMP JUMPDEST JUMPDEST DUP2 DUP2 LT ISZERO PUSH3 0x512 JUMPI PUSH3 0x506 PUSH1 0x0 DUP3 PUSH3 0x4D3 JUMP JUMPDEST PUSH1 0x1 DUP2 ADD SWAP1 POP PUSH3 0x4F0 JUMP JUMPDEST POP POP JUMP JUMPDEST PUSH1 0x1F DUP3 GT ISZERO PUSH3 0x561 JUMPI PUSH3 0x52B DUP2 PUSH3 0x3D5 JUMP JUMPDEST PUSH3 0x536 DUP5 PUSH3 0x3EA JUMP JUMPDEST DUP2 ADD PUSH1 0x20 DUP6 LT ISZERO PUSH3 0x546 JUMPI DUP2 SWAP1 POP JUMPDEST PUSH3 0x55E PUSH3 0x555 DUP6 PUSH3 0x3EA JUMP JUMPDEST DUP4 ADD DUP3 PUSH3 0x4EF JUMP JUMPDEST POP POP JUMPDEST POP POP POP JUMP JUMPDEST PUSH1 0x0 DUP3 DUP3 SHR SWAP1 POP SWAP3 SWAP2 POP POP JUMP JUMPDEST PUSH1 0x0 PUSH3 0x586 PUSH1 0x0 NOT DUP5 PUSH1 0x8 MUL PUSH3 0x566 JUMP JUMPDEST NOT DUP1 DUP4 AND SWAP2 POP POP SWAP3 SWAP2 POP POP JUMP JUMPDEST PUSH1 0x0 PUSH3 0x5A1 DUP4 DUP4 PUSH3 0x573 JUMP JUMPDEST SWAP2 POP DUP3 PUSH1 0x2 MUL DUP3 OR SWAP1 POP SWAP3 SWAP2 POP POP JUMP JUMPDEST PUSH3 0x5BC DUP3 PUSH3 0x337 JUMP JUMPDEST PUSH8 0xFFFFFFFFFFFFFFFF DUP2 GT ISZERO PUSH3 0x5D8 JUMPI PUSH3 0x5D7 PUSH3 0x342 JUMP JUMPDEST JUMPDEST PUSH3 0x5E4 DUP3 SLOAD PUSH3 0x3A0 JUMP JUMPDEST PUSH3 0x5F1 DUP3 DUP3 DUP6 PUSH3 0x516 JUMP JUMPDEST PUSH1 0x0 PUSH1 0x20 SWAP1 POP PUSH1 0x1F DUP4 GT PUSH1 0x1 DUP2 EQ PUSH3 0x629 JUMPI PUSH1 0x0 DUP5 ISZERO PUSH3 0x614 JUMPI DUP3 DUP8 ADD MLOAD SWAP1 POP JUMPDEST PUSH3 0x620 DUP6 DUP3 PUSH3 0x593 JUMP JUMPDEST DUP7 SSTORE POP PUSH3 0x690 JUMP JUMPDEST PUSH1 0x1F NOT DUP5 AND PUSH3 0x639 DUP7 PUSH3 0x3D5 JUMP JUMPDEST PUSH1 0x0 JUMPDEST DUP3 DUP2 LT ISZERO PUSH3 0x663 JUMPI DUP5 DUP10 ADD MLOAD DUP3 SSTORE PUSH1 0x1 DUP3 ADD SWAP2 POP PUSH1 0x20 DUP6 ADD SWAP5 POP PUSH1 0x20 DUP2 ADD SWAP1 POP PUSH3 0x63C JUMP JUMPDEST DUP7 DUP4 LT ISZERO PUSH3 0x683 JUMPI DUP5 DUP10 ADD MLOAD PUSH3 0x67F PUSH1 0x1F DUP10 AND DUP3 PUSH3 0x573 JUMP JUMPDEST DUP4 SSTORE POP JUMPDEST PUSH1 0x1 PUSH1 0x2 DUP9 MUL ADD DUP9 SSTORE POP POP POP JUMPDEST POP POP POP POP POP POP JUMP JUMPDEST PUSH1 0x0 DUP1 REVERT JUMPDEST PUSH1 0x0 PUSH20 0xFFFFFFFFFFFFFFFFFFFFFFFFFFFFFFFFFFFFFFFF DUP3 AND SWAP1 POP SWAP2 SWAP1 POP JUMP JUMPDEST PUSH1 0x0 PUSH3 0x6CA DUP3 PUSH3 0x69D JUMP JUMPDEST SWAP1 POP SWAP2 SWAP1 POP JUMP JUMPDEST PUSH3 0x6DC DUP2 PUSH3 0x6BD JUMP JUMPDEST DUP2 EQ PUSH3 0x6E8 JUMPI PUSH1 0x0 DUP1 REVERT JUMPDEST POP JUMP JUMPDEST PUSH1 0x0 DUP2 MLOAD SWAP1 POP PUSH3 0x6FC DUP2 PUSH3 0x6D1 JUMP JUMPDEST SWAP3 SWAP2 POP POP JUMP JUMPDEST PUSH1 0x0 DUP1 PUSH1 0x0 PUSH1 0x60 DUP5 DUP7 SUB SLT ISZERO PUSH3 0x71E JUMPI PUSH3 0x71D PUSH3 0x698 JUMP JUMPDEST JUMPDEST PUSH1 0x0 PUSH3 0x72E DUP7 DUP3 DUP8 ADD PUSH3 0x6EB JUMP JUMPDEST SWAP4 POP POP PUSH1 0x20 PUSH3 0x741 DUP7 DUP3 DUP8 ADD PUSH3 0x6EB JUMP JUMPDEST SWAP3 POP POP PUSH1 0x40 PUSH3 0x754 DUP7 DUP3 DUP8 ADD PUSH3 0x6EB JUMP JUMPDEST SWAP2 POP POP SWAP3 POP SWAP3 POP SWAP3 JUMP JUMPDEST PUSH2 0x4DC1 DUP1 PUSH3 0x76E PUSH1 0x0 CODECOPY PUSH1 0x0 RETURN INVALID PUSH1 0x80 PUSH1 0x40 MSTORE CALLVALUE DUP1 ISZERO PUSH2 0x10 JUMPI PUSH1 0x0 DUP1 REVERT JUMPDEST POP PUSH1 0x4 CALLDATASIZE LT PUSH2 0x252 JUMPI PUSH1 0x0 CALLDATALOAD PUSH1 0xE0 SHR DUP1 PUSH4 0x5C975ABB GT PUSH2 0x146 JUMPI DUP1 PUSH4 0xBD85B039 GT PUSH2 0xC3 JUMPI DUP1 PUSH4 0xE63AB1E9 GT PUSH2 0x87 JUMPI DUP1 PUSH4 0xE63AB1E9 EQ PUSH2 0x6EF JUMPI DUP1 PUSH4 0xE985E9C5 EQ PUSH2 0x70D JUMPI DUP1 PUSH4 0xEE037BF9 EQ PUSH2 0x73D JUMPI DUP1 PUSH4 0xF07F5520 EQ PUSH2 0x76D JUMPI DUP1 PUSH4 0xF242432A EQ PUSH2 0x789 JUMPI DUP1 PUSH4 0xF5298ACA EQ PUSH2 0x7A5 JUMPI PUSH2 0x252 JUMP JUMPDEST DUP1 PUSH4 0xBD85B039 EQ PUSH2 0x639 JUMPI DUP1 PUSH4 0xD4E5E76C EQ PUSH2 0x669 JUMPI DUP1 PUSH4 0xD5391393 EQ PUSH2 0x685 JUMPI DUP1 PUSH4 0xD547741F EQ PUSH2 0x6A3 JUMPI DUP1 PUSH4 0xE5569773 EQ PUSH2 0x6BF JUMPI PUSH2 0x252 JUMP JUMPDEST DUP1 PUSH4 0x8456CB59 GT PUSH2 0x10A JUMPI DUP1 PUSH4 0x8456CB59 EQ PUSH2 0x5A9 JUMPI DUP1 PUSH4 0x91D14854 EQ PUSH2 0x5B3 JUMPI DUP1 PUSH4 0x9F5E61EE EQ PUSH2 0x5E3 JUMPI DUP1 PUSH4 0xA217FDDF EQ PUSH2 0x5FF JUMPI DUP1 PUSH4 0xA22CB465 EQ PUSH2 0x61D JUMPI PUSH2 0x252 JUMP JUMPDEST DUP1 PUSH4 0x5C975ABB EQ PUSH2 0x519 JUMPI DUP1 PUSH4 0x67614E62 EQ PUSH2 0x537 JUMPI DUP1 PUSH4 0x6B20C454 EQ PUSH2 0x553 JUMPI DUP1 PUSH4 0x731133E9 EQ PUSH2 0x56F JUMPI DUP1 PUSH4 0x7F345710 EQ PUSH2 0x58B JUMPI PUSH2 0x252 JUMP JUMPDEST DUP1 PUSH4 0x248A9CA3 GT PUSH2 0x1D4 JUMPI DUP1 PUSH4 0x3F4BA83A GT PUSH2 0x198 JUMPI DUP1 PUSH4 0x3F4BA83A EQ PUSH2 0x475 JUMPI DUP1 PUSH4 0x4943F8F8 EQ PUSH2 0x47F JUMPI DUP1 PUSH4 0x4E1273F4 EQ PUSH2 0x49D JUMPI DUP1 PUSH4 0x4F558E79 EQ PUSH2 0x4CD JUMPI DUP1 PUSH4 0x55F804B3 EQ PUSH2 0x4FD JUMPI PUSH2 0x252 JUMP JUMPDEST DUP1 PUSH4 0x248A9CA3 EQ PUSH2 0x3C1 JUMPI DUP1 PUSH4 0x2CAC49C4 EQ PUSH2 0x3F1 JUMPI DUP1 PUSH4 0x2EB2C2D6 EQ PUSH2 0x421 JUMPI DUP1 PUSH4 0x2F2FF15D EQ PUSH2 0x43D JUMPI DUP1 PUSH4 0x36568ABE EQ PUSH2 0x459 JUMPI PUSH2 0x252 JUMP JUMPDEST DUP1 PUSH4 0x15149793 GT PUSH2 0x21B JUMPI DUP1 PUSH4 0x15149793 EQ PUSH2 0x31F JUMPI DUP1 PUSH4 0x162094C4 EQ PUSH2 0x34F JUMPI DUP1 PUSH4 0x18160DDD EQ PUSH2 0x36B JUMPI DUP1 PUSH4 0x1AF189E1 EQ PUSH2 0x389 JUMPI DUP1 PUSH4 0x1F7FDFFA EQ PUSH2 0x3A5 JUMPI PUSH2 0x252 JUMP JUMPDEST DUP1 PUSH3 0xFDD58E EQ PUSH2 0x257 JUMPI DUP1 PUSH4 0x1FFC9A7 EQ PUSH2 0x287 JUMPI DUP1 PUSH4 0x2FE5305 EQ PUSH2 0x2B7 JUMPI DUP1 PUSH4 0x9DCA9CE EQ PUSH2 0x2D3 JUMPI DUP1 PUSH4 0xE89341C EQ PUSH2 0x2EF JUMPI JUMPDEST PUSH1 0x0 DUP1 REVERT JUMPDEST PUSH2 0x271 PUSH1 0x4 DUP1 CALLDATASIZE SUB DUP2 ADD SWAP1 PUSH2 0x26C SWAP2 SWAP1 PUSH2 0x34B1 JUMP JUMPDEST PUSH2 0x7C1 JUMP JUMPDEST PUSH1 0x40 MLOAD PUSH2 0x27E SWAP2 SWAP1 PUSH2 0x3500 JUMP JUMPDEST PUSH1 0x40 MLOAD DUP1 SWAP2 SUB SWAP1 RETURN JUMPDEST PUSH2 0x2A1 PUSH1 0x4 DUP1 CALLDATASIZE SUB DUP2 ADD SWAP1 PUSH2 0x29C SWAP2 SWAP1 PUSH2 0x3573 JUMP JUMPDEST PUSH2 0x89C JUMP JUMPDEST PUSH1 0x40 MLOAD PUSH2 0x2AE SWAP2 SWAP1 PUSH2 0x35BB JUMP JUMPDEST PUSH1 0x40 MLOAD DUP1 SWAP2 SUB SWAP1 RETURN JUMPDEST PUSH2 0x2D1 PUSH1 0x4 DUP1 CALLDATASIZE SUB DUP2 ADD SWAP1 PUSH2 0x2CC SWAP2 SWAP1 PUSH2 0x371C JUMP JUMPDEST PUSH2 0x8AE JUMP JUMPDEST STOP JUMPDEST PUSH2 0x2ED PUSH1 0x4 DUP1 CALLDATASIZE SUB DUP2 ADD SWAP1 PUSH2 0x2E8 SWAP2 SWAP1 PUSH2 0x3863 JUMP JUMPDEST PUSH2 0x8E5 JUMP JUMPDEST STOP JUMPDEST PUSH2 0x309 PUSH1 0x4 DUP1 CALLDATASIZE SUB DUP2 ADD SWAP1 PUSH2 0x304 SWAP2 SWAP1 PUSH2 0x38AC JUMP JUMPDEST PUSH2 0x956 JUMP JUMPDEST PUSH1 0x40 MLOAD PUSH2 0x316 SWAP2 SWAP1 PUSH2 0x3958 JUMP JUMPDEST PUSH1 0x40 MLOAD DUP1 SWAP2 SUB SWAP1 RETURN JUMPDEST PUSH2 0x339 PUSH1 0x4 DUP1 CALLDATASIZE SUB DUP2 ADD SWAP1 PUSH2 0x334 SWAP2 SWAP1 PUSH2 0x34B1 JUMP JUMPDEST PUSH2 0x968 JUMP JUMPDEST PUSH1 0x40 MLOAD PUSH2 0x346 SWAP2 SWAP1 PUSH2 0x35BB JUMP JUMPDEST PUSH1 0x40 MLOAD DUP1 SWAP2 SUB SWAP1 RETURN JUMPDEST PUSH2 0x369 PUSH1 0x4 DUP1 CALLDATASIZE SUB DUP2 ADD SWAP1 PUSH2 0x364 SWAP2 SWAP1 PUSH2 0x397A JUMP JUMPDEST PUSH2 0x9D8 JUMP JUMPDEST STOP JUMPDEST PUSH2 0x373 PUSH2 0xA11 JUMP JUMPDEST PUSH1 0x40 MLOAD PUSH2 0x380 SWAP2 SWAP1 PUSH2 0x3500 JUMP JUMPDEST PUSH1 0x40 MLOAD DUP1 SWAP2 SUB SWAP1 RETURN JUMPDEST PUSH2 0x3A3 PUSH1 0x4 DUP1 CALLDATASIZE SUB DUP2 ADD SWAP1 PUSH2 0x39E SWAP2 SWAP1 PUSH2 0x39D6 JUMP JUMPDEST PUSH2 0xA1B JUMP JUMPDEST STOP JUMPDEST PUSH2 0x3BF PUSH1 0x4 DUP1 CALLDATASIZE SUB DUP2 ADD SWAP1 PUSH2 0x3BA SWAP2 SWAP1 PUSH2 0x3B8D JUMP JUMPDEST PUSH2 0xB3B JUMP JUMPDEST STOP JUMPDEST PUSH2 0x3DB PUSH1 0x4 DUP1 CALLDATASIZE SUB DUP2 ADD SWAP1 PUSH2 0x3D6 SWAP2 SWAP1 PUSH2 0x3C48 JUMP JUMPDEST PUSH2 0xB78 JUMP JUMPDEST PUSH1 0x40 MLOAD PUSH2 0x3E8 SWAP2 SWAP1 PUSH2 0x3C84 JUMP JUMPDEST PUSH1 0x40 MLOAD DUP1 SWAP2 SUB SWAP1 RETURN JUMPDEST PUSH2 0x40B PUSH1 0x4 DUP1 CALLDATASIZE SUB DUP2 ADD SWAP1 PUSH2 0x406 SWAP2 SWAP1 PUSH2 0x34B1 JUMP JUMPDEST PUSH2 0xB98 JUMP JUMPDEST PUSH1 0x40 MLOAD PUSH2 0x418 SWAP2 SWAP1 PUSH2 0x3500 JUMP JUMPDEST PUSH1 0x40 MLOAD DUP1 SWAP2 SUB SWAP1 RETURN JUMPDEST PUSH2 0x43B PUSH1 0x4 DUP1 CALLDATASIZE SUB DUP2 ADD SWAP1 PUSH2 0x436 SWAP2 SWAP1 PUSH2 0x3C9F JUMP JUMPDEST PUSH2 0xBF3 JUMP JUMPDEST STOP JUMPDEST PUSH2 0x457 PUSH1 0x4 DUP1 CALLDATASIZE SUB DUP2 ADD SWAP1 PUSH2 0x452 SWAP2 SWAP1 PUSH2 0x3D6E JUMP JUMPDEST PUSH2 0xC9B JUMP JUMPDEST STOP JUMPDEST PUSH2 0x473 PUSH1 0x4 DUP1 CALLDATASIZE SUB DUP2 ADD SWAP1 PUSH2 0x46E SWAP2 SWAP1 PUSH2 0x3D6E JUMP JUMPDEST PUSH2 0xCBD JUMP JUMPDEST STOP JUMPDEST PUSH2 0x47D PUSH2 0xD38 JUMP JUMPDEST STOP JUMPDEST PUSH2 0x487 PUSH2 0xD6D JUMP JUMPDEST PUSH1 0x40 MLOAD PUSH2 0x494 SWAP2 SWAP1 PUSH2 0x3C84 JUMP JUMPDEST PUSH1 0x40 MLOAD DUP1 SWAP2 SUB SWAP1 RETURN JUMPDEST PUSH2 0x4B7 PUSH1 0x4 DUP1 CALLDATASIZE SUB DUP2 ADD SWAP1 PUSH2 0x4B2 SWAP2 SWAP1 PUSH2 0x3E71 JUMP JUMPDEST PUSH2 0xD91 JUMP JUMPDEST PUSH1 0x40 MLOAD PUSH2 0x4C4 SWAP2 SWAP1 PUSH2 0x3FA7 JUMP JUMPDEST PUSH1 0x40 MLOAD DUP1 SWAP2 SUB SWAP1 RETURN JUMPDEST PUSH2 0x4E7 PUSH1 0x4 DUP1 CALLDATASIZE SUB DUP2 ADD SWAP1 PUSH2 0x4E2 SWAP2 SWAP1 PUSH2 0x38AC JUMP JUMPDEST PUSH2 0xEAA JUMP JUMPDEST PUSH1 0x40 MLOAD PUSH2 0x4F4 SWAP2 SWAP1 PUSH2 0x35BB JUMP JUMPDEST PUSH1 0x40 MLOAD DUP1 SWAP2 SUB SWAP1 RETURN JUMPDEST PUSH2 0x517 PUSH1 0x4 DUP1 CALLDATASIZE SUB DUP2 ADD SWAP1 PUSH2 0x512 SWAP2 SWAP1 PUSH2 0x371C JUMP JUMPDEST PUSH2 0xEBE JUMP JUMPDEST STOP JUMPDEST PUSH2 0x521 PUSH2 0xEF5 JUMP JUMPDEST PUSH1 0x40 MLOAD PUSH2 0x52E SWAP2 SWAP1 PUSH2 0x35BB JUMP JUMPDEST PUSH1 0x40 MLOAD DUP1 SWAP2 SUB SWAP1 RETURN JUMPDEST PUSH2 0x551 PUSH1 0x4 DUP1 CALLDATASIZE SUB DUP2 ADD SWAP1 PUSH2 0x54C SWAP2 SWAP1 PUSH2 0x3FC9 JUMP JUMPDEST PUSH2 0xF0C JUMP JUMPDEST STOP JUMPDEST PUSH2 0x56D PUSH1 0x4 DUP1 CALLDATASIZE SUB DUP2 ADD SWAP1 PUSH2 0x568 SWAP2 SWAP1 PUSH2 0x3FC9 JUMP JUMPDEST PUSH2 0x1112 JUMP JUMPDEST STOP JUMPDEST PUSH2 0x589 PUSH1 0x4 DUP1 CALLDATASIZE SUB DUP2 ADD SWAP1 PUSH2 0x584 SWAP2 SWAP1 PUSH2 0x4054 JUMP JUMPDEST PUSH2 0x11BE JUMP JUMPDEST STOP JUMPDEST PUSH2 0x593 PUSH2 0x11FB JUMP JUMPDEST PUSH1 0x40 MLOAD PUSH2 0x5A0 SWAP2 SWAP1 PUSH2 0x3C84 JUMP JUMPDEST PUSH1 0x40 MLOAD DUP1 SWAP2 SUB SWAP1 RETURN JUMPDEST PUSH2 0x5B1 PUSH2 0x121F JUMP JUMPDEST STOP JUMPDEST PUSH2 0x5CD PUSH1 0x4 DUP1 CALLDATASIZE SUB DUP2 ADD SWAP1 PUSH2 0x5C8 SWAP2 SWAP1 PUSH2 0x3D6E JUMP JUMPDEST PUSH2 0x1254 JUMP JUMPDEST PUSH1 0x40 MLOAD PUSH2 0x5DA SWAP2 SWAP1 PUSH2 0x35BB JUMP JUMPDEST PUSH1 0x40 MLOAD DUP1 SWAP2 SUB SWAP1 RETURN JUMPDEST PUSH2 0x5FD PUSH1 0x4 DUP1 CALLDATASIZE SUB DUP2 ADD SWAP1 PUSH2 0x5F8 SWAP2 SWAP1 PUSH2 0x40D7 JUMP JUMPDEST PUSH2 0x12BF JUMP JUMPDEST STOP JUMPDEST PUSH2 0x607 PUSH2 0x1491 JUMP JUMPDEST PUSH1 0x40 MLOAD PUSH2 0x614 SWAP2 SWAP1 PUSH2 0x3C84 JUMP JUMPDEST PUSH1 0x40 MLOAD DUP1 SWAP2 SUB SWAP1 RETURN JUMPDEST PUSH2 0x637 PUSH1 0x4 DUP1 CALLDATASIZE SUB DUP2 ADD SWAP1 PUSH2 0x632 SWAP2 SWAP1 PUSH2 0x41EE JUMP JUMPDEST PUSH2 0x1498 JUMP JUMPDEST STOP JUMPDEST PUSH2 0x653 PUSH1 0x4 DUP1 CALLDATASIZE SUB DUP2 ADD SWAP1 PUSH2 0x64E SWAP2 SWAP1 PUSH2 0x38AC JUMP JUMPDEST PUSH2 0x14AE JUMP JUMPDEST PUSH1 0x40 MLOAD PUSH2 0x660 SWAP2 SWAP1 PUSH2 0x3500 JUMP JUMPDEST PUSH1 0x40 MLOAD DUP1 SWAP2 SUB SWAP1 RETURN JUMPDEST PUSH2 0x683 PUSH1 0x4 DUP1 CALLDATASIZE SUB DUP2 ADD SWAP1 PUSH2 0x67E SWAP2 SWAP1 PUSH2 0x422E JUMP JUMPDEST PUSH2 0x14CB JUMP JUMPDEST STOP JUMPDEST PUSH2 0x68D PUSH2 0x15B7 JUMP JUMPDEST PUSH1 0x40 MLOAD PUSH2 0x69A SWAP2 SWAP1 PUSH2 0x3C84 JUMP JUMPDEST PUSH1 0x40 MLOAD DUP1 SWAP2 SUB SWAP1 RETURN JUMPDEST PUSH2 0x6BD PUSH1 0x4 DUP1 CALLDATASIZE SUB DUP2 ADD SWAP1 PUSH2 0x6B8 SWAP2 SWAP1 PUSH2 0x3D6E JUMP JUMPDEST PUSH2 0x15DB JUMP JUMPDEST STOP JUMPDEST PUSH2 0x6D9 PUSH1 0x4 DUP1 CALLDATASIZE SUB DUP2 ADD SWAP1 PUSH2 0x6D4 SWAP2 SWAP1 PUSH2 0x3C48 JUMP JUMPDEST PUSH2 0x15FD JUMP JUMPDEST PUSH1 0x40 MLOAD PUSH2 0x6E6 SWAP2 SWAP1 PUSH2 0x3500 JUMP JUMPDEST PUSH1 0x40 MLOAD DUP1 SWAP2 SUB SWAP1 RETURN JUMPDEST PUSH2 0x6F7 PUSH2 0x161A JUMP JUMPDEST PUSH1 0x40 MLOAD PUSH2 0x704 SWAP2 SWAP1 PUSH2 0x3C84 JUMP JUMPDEST PUSH1 0x40 MLOAD DUP1 SWAP2 SUB SWAP1 RETURN JUMPDEST PUSH2 0x727 PUSH1 0x4 DUP1 CALLDATASIZE SUB DUP2 ADD SWAP1 PUSH2 0x722 SWAP2 SWAP1 PUSH2 0x42C5 JUMP JUMPDEST PUSH2 0x163E JUMP JUMPDEST PUSH1 0x40 MLOAD PUSH2 0x734 SWAP2 SWAP1 PUSH2 0x35BB JUMP JUMPDEST PUSH1 0x40 MLOAD DUP1 SWAP2 SUB SWAP1 RETURN JUMPDEST PUSH2 0x757 PUSH1 0x4 DUP1 CALLDATASIZE SUB DUP2 ADD SWAP1 PUSH2 0x752 SWAP2 SWAP1 PUSH2 0x38AC JUMP JUMPDEST PUSH2 0x16D2 JUMP JUMPDEST PUSH1 0x40 MLOAD PUSH2 0x764 SWAP2 SWAP1 PUSH2 0x3C84 JUMP JUMPDEST PUSH1 0x40 MLOAD DUP1 SWAP2 SUB SWAP1 RETURN JUMPDEST PUSH2 0x787 PUSH1 0x4 DUP1 CALLDATASIZE SUB DUP2 ADD SWAP1 PUSH2 0x782 SWAP2 SWAP1 PUSH2 0x3C48 JUMP JUMPDEST PUSH2 0x16EF JUMP JUMPDEST STOP JUMPDEST PUSH2 0x7A3 PUSH1 0x4 DUP1 CALLDATASIZE SUB DUP2 ADD SWAP1 PUSH2 0x79E SWAP2 SWAP1 PUSH2 0x4305 JUMP JUMPDEST PUSH2 0x1726 JUMP JUMPDEST STOP JUMPDEST PUSH2 0x7BF PUSH1 0x4 DUP1 CALLDATASIZE SUB DUP2 ADD SWAP1 PUSH2 0x7BA SWAP2 SWAP1 PUSH2 0x39D6 JUMP JUMPDEST PUSH2 0x17CE JUMP JUMPDEST STOP JUMPDEST PUSH1 0x0 DUP1 PUSH2 0x7CE DUP5 DUP5 PUSH2 0x187A JUMP JUMPDEST SWAP1 POP PUSH1 0x0 DUP2 EQ DUP1 PUSH2 0x80B JUMPI POP PUSH1 0x0 PUSH20 0xFFFFFFFFFFFFFFFFFFFFFFFFFFFFFFFFFFFFFFFF AND DUP5 PUSH20 0xFFFFFFFFFFFFFFFFFFFFFFFFFFFFFFFFFFFFFFFF AND EQ JUMPDEST ISZERO PUSH2 0x81A JUMPI PUSH1 0x0 SWAP2 POP POP PUSH2 0x896 JUMP JUMPDEST PUSH1 0x0 PUSH1 0xC PUSH1 0x0 DUP7 PUSH20 0xFFFFFFFFFFFFFFFFFFFFFFFFFFFFFFFFFFFFFFFF AND PUSH20 0xFFFFFFFFFFFFFFFFFFFFFFFFFFFFFFFFFFFFFFFF AND DUP2 MSTORE PUSH1 0x20 ADD SWAP1 DUP2 MSTORE PUSH1 0x20 ADD PUSH1 0x0 KECCAK256 PUSH1 0x0 DUP6 DUP2 MSTORE PUSH1 0x20 ADD SWAP1 DUP2 MSTORE PUSH1 0x20 ADD PUSH1 0x0 KECCAK256 SLOAD SWAP1 POP PUSH1 0x0 DUP2 EQ ISZERO DUP1 ISZERO PUSH2 0x880 JUMPI POP TIMESTAMP DUP2 GT ISZERO JUMPDEST ISZERO PUSH2 0x890 JUMPI PUSH1 0x0 SWAP3 POP POP POP PUSH2 0x896 JUMP JUMPDEST DUP2 SWAP3 POP POP POP JUMPDEST SWAP3 SWAP2 POP POP JUMP JUMPDEST PUSH1 0x0 PUSH2 0x8A7 DUP3 PUSH2 0x18D4 JUMP JUMPDEST SWAP1 POP SWAP2 SWAP1 POP JUMP JUMPDEST PUSH32 0x7804D923F43A17D325D77E781528E0793B2EDD9890AB45FC64EFD7B4B427744C PUSH2 0x8D8 DUP2 PUSH2 0x194E JUMP JUMPDEST PUSH2 0x8E1 DUP3 PUSH2 0x1962 JUMP JUMPDEST POP POP JUMP JUMPDEST PUSH32 0x9F2DF0FED2C77648DE5860A4CC508CD0818C85B8B8A1AB4CEEEF8D981C8956A6 PUSH2 0x90F DUP2 PUSH2 0x194E JUMP JUMPDEST PUSH1 0x0 JUMPDEST DUP3 MLOAD DUP2 LT ISZERO PUSH2 0x951 JUMPI PUSH2 0x93E DUP4 DUP3 DUP2 MLOAD DUP2 LT PUSH2 0x931 JUMPI PUSH2 0x930 PUSH2 0x439C JUMP JUMPDEST JUMPDEST PUSH1 0x20 MUL PUSH1 0x20 ADD ADD MLOAD PUSH2 0x1975 JUMP JUMPDEST DUP1 DUP1 PUSH2 0x949 SWAP1 PUSH2 0x43FA JUMP JUMPDEST SWAP2 POP POP PUSH2 0x912 JUMP JUMPDEST POP POP POP JUMP JUMPDEST PUSH1 0x60 PUSH2 0x961 DUP3 PUSH2 0x1A0E JUMP JUMPDEST SWAP1 POP SWAP2 SWAP1 POP JUMP JUMPDEST PUSH1 0x0 DUP1 PUSH1 0xC PUSH1 0x0 DUP6 PUSH20 0xFFFFFFFFFFFFFFFFFFFFFFFFFFFFFFFFFFFFFFFF AND PUSH20 0xFFFFFFFFFFFFFFFFFFFFFFFFFFFFFFFFFFFFFFFF AND DUP2 MSTORE PUSH1 0x20 ADD SWAP1 DUP2 MSTORE PUSH1 0x20 ADD PUSH1 0x0 KECCAK256 PUSH1 0x0 DUP5 DUP2 MSTORE PUSH1 0x20 ADD SWAP1 DUP2 MSTORE PUSH1 0x20 ADD PUSH1 0x0 KECCAK256 SLOAD SWAP1 POP PUSH1 0x0 DUP2 EQ ISZERO DUP1 ISZERO PUSH2 0x9CF JUMPI POP TIMESTAMP DUP2 GT ISZERO JUMPDEST SWAP2 POP POP SWAP3 SWAP2 POP POP JUMP JUMPDEST PUSH32 0x7804D923F43A17D325D77E781528E0793B2EDD9890AB45FC64EFD7B4B427744C PUSH2 0xA02 DUP2 PUSH2 0x194E JUMP JUMPDEST PUSH2 0xA0C DUP4 DUP4 PUSH2 0x1AF3 JUMP JUMPDEST POP POP POP JUMP JUMPDEST PUSH1 0x0 PUSH1 0x6 SLOAD SWAP1 POP SWAP1 JUMP JUMPDEST PUSH32 0x5BD33557D028FA6327A6C10090602E75B5763BCBC8C9D2F602672EDD0EEE7A08 PUSH2 0xA45 DUP2 PUSH2 0x194E JUMP JUMPDEST PUSH1 0x0 PUSH2 0xA51 DUP6 DUP6 PUSH2 0x187A JUMP JUMPDEST GT PUSH2 0xA91 JUMPI PUSH1 0x40 MLOAD PUSH32 0x8C379A000000000000000000000000000000000000000000000000000000000 DUP2 MSTORE PUSH1 0x4 ADD PUSH2 0xA88 SWAP1 PUSH2 0x44B4 JUMP JUMPDEST PUSH1 0x40 MLOAD DUP1 SWAP2 SUB SWAP1 REVERT JUMPDEST DUP2 PUSH1 0xC PUSH1 0x0 DUP7 PUSH20 0xFFFFFFFFFFFFFFFFFFFFFFFFFFFFFFFFFFFFFFFF AND PUSH20 0xFFFFFFFFFFFFFFFFFFFFFFFFFFFFFFFFFFFFFFFF AND DUP2 MSTORE PUSH1 0x20 ADD SWAP1 DUP2 MSTORE PUSH1 0x20 ADD PUSH1 0x0 KECCAK256 PUSH1 0x0 DUP6 DUP2 MSTORE PUSH1 0x20 ADD SWAP1 DUP2 MSTORE PUSH1 0x20 ADD PUSH1 0x0 KECCAK256 DUP2 SWAP1 SSTORE POP DUP3 DUP5 PUSH20 0xFFFFFFFFFFFFFFFFFFFFFFFFFFFFFFFFFFFFFFFF AND PUSH32 0x1347CE935D48B1622E772CB855C5F27A0956E54F183ACDD65752106FA013CD08 DUP5 PUSH1 0x40 MLOAD PUSH2 0xB2D SWAP2 SWAP1 PUSH2 0x3500 JUMP JUMPDEST PUSH1 0x40 MLOAD DUP1 SWAP2 SUB SWAP1 LOG3 POP POP POP POP JUMP JUMPDEST PUSH32 0x9F2DF0FED2C77648DE5860A4CC508CD0818C85B8B8A1AB4CEEEF8D981C8956A6 PUSH2 0xB65 DUP2 PUSH2 0x194E JUMP JUMPDEST PUSH2 0xB71 DUP6 DUP6 DUP6 DUP6 PUSH2 0x1B58 JUMP JUMPDEST POP POP POP POP POP JUMP JUMPDEST PUSH1 0x0 PUSH1 0x3 PUSH1 0x0 DUP4 DUP2 MSTORE PUSH1 0x20 ADD SWAP1 DUP2 MSTORE PUSH1 0x20 ADD PUSH1 0x0 KECCAK256 PUSH1 0x1 ADD SLOAD SWAP1 POP SWAP2 SWAP1 POP JUMP JUMPDEST PUSH1 0x0 PUSH1 0xC PUSH1 0x0 DUP5 PUSH20 0xFFFFFFFFFFFFFFFFFFFFFFFFFFFFFFFFFFFFFFFF AND PUSH20 0xFFFFFFFFFFFFFFFFFFFFFFFFFFFFFFFFFFFFFFFF AND DUP2 MSTORE PUSH1 0x20 ADD SWAP1 DUP2 MSTORE PUSH1 0x20 ADD PUSH1 0x0 KECCAK256 PUSH1 0x0 DUP4 DUP2 MSTORE PUSH1 0x20 ADD SWAP1 DUP2 MSTORE PUSH1 0x20 ADD PUSH1 0x0 KECCAK256 SLOAD SWAP1 POP SWAP3 SWAP2 POP POP JUMP JUMPDEST PUSH1 0x0 PUSH2 0xBFD PUSH2 0x1BDE JUMP JUMPDEST SWAP1 POP DUP1 PUSH20 0xFFFFFFFFFFFFFFFFFFFFFFFFFFFFFFFFFFFFFFFF AND DUP7 PUSH20 0xFFFFFFFFFFFFFFFFFFFFFFFFFFFFFFFFFFFFFFFF AND EQ ISZERO DUP1 ISZERO PUSH2 0xC42 JUMPI POP PUSH2 0xC40 DUP7 DUP3 PUSH2 0x163E JUMP JUMPDEST ISZERO JUMPDEST ISZERO PUSH2 0xC86 JUMPI DUP1 DUP7 PUSH1 0x40 MLOAD PUSH32 0xE237D92200000000000000000000000000000000000000000000000000000000 DUP2 MSTORE PUSH1 0x4 ADD PUSH2 0xC7D SWAP3 SWAP2 SWAP1 PUSH2 0x44E3 JUMP JUMPDEST PUSH1 0x40 MLOAD DUP1 SWAP2 SUB SWAP1 REVERT JUMPDEST PUSH2 0xC93 DUP7 DUP7 DUP7 DUP7 DUP7 PUSH2 0x1BE6 JUMP JUMPDEST POP POP POP POP POP POP JUMP JUMPDEST PUSH2 0xCA4 DUP3 PUSH2 0xB78 JUMP JUMPDEST PUSH2 0xCAD DUP2 PUSH2 0x194E JUMP JUMPDEST PUSH2 0xCB7 DUP4 DUP4 PUSH2 0x1CDE JUMP JUMPDEST POP POP POP POP JUMP JUMPDEST PUSH2 0xCC5 PUSH2 0x1BDE JUMP JUMPDEST PUSH20 0xFFFFFFFFFFFFFFFFFFFFFFFFFFFFFFFFFFFFFFFF AND DUP2 PUSH20 0xFFFFFFFFFFFFFFFFFFFFFFFFFFFFFFFFFFFFFFFF AND EQ PUSH2 0xD29 JUMPI PUSH1 0x40 MLOAD PUSH32 0x6697B23200000000000000000000000000000000000000000000000000000000 DUP2 MSTORE PUSH1 0x4 ADD PUSH1 0x40 MLOAD DUP1 SWAP2 SUB SWAP1 REVERT JUMPDEST PUSH2 0xD33 DUP3 DUP3 PUSH2 0x1DD0 JUMP JUMPDEST POP POP POP JUMP JUMPDEST PUSH32 0x65D7A28E3265B37A6474929F336521B332C1681B933F6CB9F3376673440D862A PUSH2 0xD62 DUP2 PUSH2 0x194E JUMP JUMPDEST PUSH2 0xD6A PUSH2 0x1EC3 JUMP JUMPDEST POP JUMP JUMPDEST PUSH32 0x5BD33557D028FA6327A6C10090602E75B5763BCBC8C9D2F602672EDD0EEE7A08 DUP2 JUMP JUMPDEST PUSH1 0x60 DUP2 MLOAD DUP4 MLOAD EQ PUSH2 0xDD7 JUMPI PUSH1 0x40 MLOAD PUSH32 0x8C379A000000000000000000000000000000000000000000000000000000000 DUP2 MSTORE PUSH1 0x4 ADD PUSH2 0xDCE SWAP1 PUSH2 0x457E JUMP JUMPDEST PUSH1 0x40 MLOAD DUP1 SWAP2 SUB SWAP1 REVERT JUMPDEST PUSH1 0x0 DUP4 MLOAD PUSH8 0xFFFFFFFFFFFFFFFF DUP2 GT ISZERO PUSH2 0xDF4 JUMPI PUSH2 0xDF3 PUSH2 0x35F1 JUMP JUMPDEST JUMPDEST PUSH1 0x40 MLOAD SWAP1 DUP1 DUP3 MSTORE DUP1 PUSH1 0x20 MUL PUSH1 0x20 ADD DUP3 ADD PUSH1 0x40 MSTORE DUP1 ISZERO PUSH2 0xE22 JUMPI DUP2 PUSH1 0x20 ADD PUSH1 0x20 DUP3 MUL DUP1 CALLDATASIZE DUP4 CALLDATACOPY DUP1 DUP3 ADD SWAP2 POP POP SWAP1 POP JUMPDEST POP SWAP1 POP PUSH1 0x0 JUMPDEST DUP5 MLOAD DUP2 LT ISZERO PUSH2 0xE9F JUMPI PUSH2 0xE6F DUP6 DUP3 DUP2 MLOAD DUP2 LT PUSH2 0xE47 JUMPI PUSH2 0xE46 PUSH2 0x439C JUMP JUMPDEST JUMPDEST PUSH1 0x20 MUL PUSH1 0x20 ADD ADD MLOAD DUP6 DUP4 DUP2 MLOAD DUP2 LT PUSH2 0xE62 JUMPI PUSH2 0xE61 PUSH2 0x439C JUMP JUMPDEST JUMPDEST PUSH1 0x20 MUL PUSH1 0x20 ADD ADD MLOAD PUSH2 0x7C1 JUMP JUMPDEST DUP3 DUP3 DUP2 MLOAD DUP2 LT PUSH2 0xE82 JUMPI PUSH2 0xE81 PUSH2 0x439C JUMP JUMPDEST JUMPDEST PUSH1 0x20 MUL PUSH1 0x20 ADD ADD DUP2 DUP2 MSTORE POP POP DUP1 PUSH2 0xE98 SWAP1 PUSH2 0x43FA JUMP JUMPDEST SWAP1 POP PUSH2 0xE28 JUMP JUMPDEST POP DUP1 SWAP2 POP POP SWAP3 SWAP2 POP POP JUMP JUMPDEST PUSH1 0x0 DUP1 PUSH2 0xEB6 DUP4 PUSH2 0x14AE JUMP JUMPDEST GT SWAP1 POP SWAP2 SWAP1 POP JUMP JUMPDEST PUSH32 0x7804D923F43A17D325D77E781528E0793B2EDD9890AB45FC64EFD7B4B427744C PUSH2 0xEE8 DUP2 PUSH2 0x194E JUMP JUMPDEST PUSH2 0xEF1 DUP3 PUSH2 0x1F26 JUMP JUMPDEST POP POP JUMP JUMPDEST PUSH1 0x0 PUSH1 0x4 PUSH1 0x0 SWAP1 SLOAD SWAP1 PUSH2 0x100 EXP SWAP1 DIV PUSH1 0xFF AND SWAP1 POP SWAP1 JUMP JUMPDEST PUSH32 0x5BD33557D028FA6327A6C10090602E75B5763BCBC8C9D2F602672EDD0EEE7A08 PUSH2 0xF36 DUP2 PUSH2 0x194E JUMP JUMPDEST DUP2 MLOAD DUP4 MLOAD EQ PUSH2 0xF7A JUMPI PUSH1 0x40 MLOAD PUSH32 0x8C379A000000000000000000000000000000000000000000000000000000000 DUP2 MSTORE PUSH1 0x4 ADD PUSH2 0xF71 SWAP1 PUSH2 0x4610 JUMP JUMPDEST PUSH1 0x40 MLOAD DUP1 SWAP2 SUB SWAP1 REVERT JUMPDEST PUSH1 0x0 JUMPDEST DUP4 MLOAD DUP2 LT ISZERO PUSH2 0x110B JUMPI PUSH1 0x0 PUSH2 0xFAC DUP7 DUP7 DUP5 DUP2 MLOAD DUP2 LT PUSH2 0xF9F JUMPI PUSH2 0xF9E PUSH2 0x439C JUMP JUMPDEST JUMPDEST PUSH1 0x20 MUL PUSH1 0x20 ADD ADD MLOAD PUSH2 0x187A JUMP JUMPDEST GT PUSH2 0xFEC JUMPI PUSH1 0x40 MLOAD PUSH32 0x8C379A000000000000000000000000000000000000000000000000000000000 DUP2 MSTORE PUSH1 0x4 ADD PUSH2 0xFE3 SWAP1 PUSH2 0x44B4 JUMP JUMPDEST PUSH1 0x40 MLOAD DUP1 SWAP2 SUB SWAP1 REVERT JUMPDEST DUP3 DUP2 DUP2 MLOAD DUP2 LT PUSH2 0xFFF JUMPI PUSH2 0xFFE PUSH2 0x439C JUMP JUMPDEST JUMPDEST PUSH1 0x20 MUL PUSH1 0x20 ADD ADD MLOAD PUSH1 0xC PUSH1 0x0 DUP8 PUSH20 0xFFFFFFFFFFFFFFFFFFFFFFFFFFFFFFFFFFFFFFFF AND PUSH20 0xFFFFFFFFFFFFFFFFFFFFFFFFFFFFFFFFFFFFFFFF AND DUP2 MSTORE PUSH1 0x20 ADD SWAP1 DUP2 MSTORE PUSH1 0x20 ADD PUSH1 0x0 KECCAK256 PUSH1 0x0 DUP7 DUP5 DUP2 MLOAD DUP2 LT PUSH2 0x105B JUMPI PUSH2 0x105A PUSH2 0x439C JUMP JUMPDEST JUMPDEST PUSH1 0x20 MUL PUSH1 0x20 ADD ADD MLOAD DUP2 MSTORE PUSH1 0x20 ADD SWAP1 DUP2 MSTORE PUSH1 0x20 ADD PUSH1 0x0 KECCAK256 DUP2 SWAP1 SSTORE POP DUP4 DUP2 DUP2 MLOAD DUP2 LT PUSH2 0x1088 JUMPI PUSH2 0x1087 PUSH2 0x439C JUMP JUMPDEST JUMPDEST PUSH1 0x20 MUL PUSH1 0x20 ADD ADD MLOAD DUP6 PUSH20 0xFFFFFFFFFFFFFFFFFFFFFFFFFFFFFFFFFFFFFFFF AND PUSH32 0x1347CE935D48B1622E772CB855C5F27A0956E54F183ACDD65752106FA013CD08 DUP6 DUP5 DUP2 MLOAD DUP2 LT PUSH2 0x10DB JUMPI PUSH2 0x10DA PUSH2 0x439C JUMP JUMPDEST JUMPDEST PUSH1 0x20 MUL PUSH1 0x20 ADD ADD MLOAD PUSH1 0x40 MLOAD PUSH2 0x10F0 SWAP2 SWAP1 PUSH2 0x3500 JUMP JUMPDEST PUSH1 0x40 MLOAD DUP1 SWAP2 SUB SWAP1 LOG3 DUP1 DUP1 PUSH2 0x1103 SWAP1 PUSH2 0x43FA JUMP JUMPDEST SWAP2 POP POP PUSH2 0xF7D JUMP JUMPDEST POP POP POP POP POP JUMP JUMPDEST PUSH2 0x111A PUSH2 0x1BDE JUMP JUMPDEST PUSH20 0xFFFFFFFFFFFFFFFFFFFFFFFFFFFFFFFFFFFFFFFF AND DUP4 PUSH20 0xFFFFFFFFFFFFFFFFFFFFFFFFFFFFFFFFFFFFFFFF AND EQ ISZERO DUP1 ISZERO PUSH2 0x1163 JUMPI POP PUSH2 0x1161 DUP4 PUSH2 0x115C PUSH2 0x1BDE JUMP JUMPDEST PUSH2 0x163E JUMP JUMPDEST ISZERO JUMPDEST ISZERO PUSH2 0x11AE JUMPI PUSH2 0x1170 PUSH2 0x1BDE JUMP JUMPDEST DUP4 PUSH1 0x40 MLOAD PUSH32 0xE237D92200000000000000000000000000000000000000000000000000000000 DUP2 MSTORE PUSH1 0x4 ADD PUSH2 0x11A5 SWAP3 SWAP2 SWAP1 PUSH2 0x44E3 JUMP JUMPDEST PUSH1 0x40 MLOAD DUP1 SWAP2 SUB SWAP1 REVERT JUMPDEST PUSH2 0x11B9 DUP4 DUP4 DUP4 PUSH2 0x1F39 JUMP JUMPDEST POP POP POP JUMP JUMPDEST PUSH32 0x9F2DF0FED2C77648DE5860A4CC508CD0818C85B8B8A1AB4CEEEF8D981C8956A6 PUSH2 0x11E8 DUP2 PUSH2 0x194E JUMP JUMPDEST PUSH2 0x11F4 DUP6 DUP6 DUP6 DUP6 PUSH2 0x1FCD JUMP JUMPDEST POP POP POP POP POP JUMP JUMPDEST PUSH32 0x7804D923F43A17D325D77E781528E0793B2EDD9890AB45FC64EFD7B4B427744C DUP2 JUMP JUMPDEST PUSH32 0x65D7A28E3265B37A6474929F336521B332C1681B933F6CB9F3376673440D862A PUSH2 0x1249 DUP2 PUSH2 0x194E JUMP JUMPDEST PUSH2 0x1251 PUSH2 0x2066 JUMP JUMPDEST POP JUMP JUMPDEST PUSH1 0x0 PUSH1 0x3 PUSH1 0x0 DUP5 DUP2 MSTORE PUSH1 0x20 ADD SWAP1 DUP2 MSTORE PUSH1 0x20 ADD PUSH1 0x0 KECCAK256 PUSH1 0x0 ADD PUSH1 0x0 DUP4 PUSH20 0xFFFFFFFFFFFFFFFFFFFFFFFFFFFFFFFFFFFFFFFF AND PUSH20 0xFFFFFFFFFFFFFFFFFFFFFFFFFFFFFFFFFFFFFFFF AND DUP2 MSTORE PUSH1 0x20 ADD SWAP1 DUP2 MSTORE PUSH1 0x20 ADD PUSH1 0x0 KECCAK256 PUSH1 0x0 SWAP1 SLOAD SWAP1 PUSH2 0x100 EXP SWAP1 DIV PUSH1 0xFF AND SWAP1 POP SWAP3 SWAP2 POP POP JUMP JUMPDEST PUSH32 0x9F2DF0FED2C77648DE5860A4CC508CD0818C85B8B8A1AB4CEEEF8D981C8956A6 PUSH2 0x12E9 DUP2 PUSH2 0x194E JUMP JUMPDEST DUP3 MLOAD DUP6 MLOAD EQ PUSH2 0x132D JUMPI PUSH1 0x40 MLOAD PUSH32 0x8C379A000000000000000000000000000000000000000000000000000000000 DUP2 MSTORE PUSH1 0x4 ADD PUSH2 0x1324 SWAP1 PUSH2 0x4610 JUMP JUMPDEST PUSH1 0x40 MLOAD DUP1 SWAP2 SUB SWAP1 REVERT JUMPDEST PUSH2 0x1339 DUP7 DUP7 DUP7 DUP6 PUSH2 0x1B58 JUMP JUMPDEST PUSH1 0x0 JUMPDEST DUP6 MLOAD DUP2 LT ISZERO PUSH2 0x1488 JUMPI PUSH1 0x0 DUP5 DUP3 DUP2 MLOAD DUP2 LT PUSH2 0x135A JUMPI PUSH2 0x1359 PUSH2 0x439C JUMP JUMPDEST JUMPDEST PUSH1 0x20 MUL PUSH1 0x20 ADD ADD MLOAD GT ISZERO PUSH2 0x1475 JUMPI DUP4 DUP2 DUP2 MLOAD DUP2 LT PUSH2 0x137B JUMPI PUSH2 0x137A PUSH2 0x439C JUMP JUMPDEST JUMPDEST PUSH1 0x20 MUL PUSH1 0x20 ADD ADD MLOAD PUSH1 0xC PUSH1 0x0 DUP10 PUSH20 0xFFFFFFFFFFFFFFFFFFFFFFFFFFFFFFFFFFFFFFFF AND PUSH20 0xFFFFFFFFFFFFFFFFFFFFFFFFFFFFFFFFFFFFFFFF AND DUP2 MSTORE PUSH1 0x20 ADD SWAP1 DUP2 MSTORE PUSH1 0x20 ADD PUSH1 0x0 KECCAK256 PUSH1 0x0 DUP9 DUP5 DUP2 MLOAD DUP2 LT PUSH2 0x13D7 JUMPI PUSH2 0x13D6 PUSH2 0x439C JUMP JUMPDEST JUMPDEST PUSH1 0x20 MUL PUSH1 0x20 ADD ADD MLOAD DUP2 MSTORE PUSH1 0x20 ADD SWAP1 DUP2 MSTORE PUSH1 0x20 ADD PUSH1 0x0 KECCAK256 DUP2 SWAP1 SSTORE POP DUP6 DUP2 DUP2 MLOAD DUP2 LT PUSH2 0x1404 JUMPI PUSH2 0x1403 PUSH2 0x439C JUMP JUMPDEST JUMPDEST PUSH1 0x20 MUL PUSH1 0x20 ADD ADD MLOAD DUP8 PUSH20 0xFFFFFFFFFFFFFFFFFFFFFFFFFFFFFFFFFFFFFFFF AND PUSH32 0x1347CE935D48B1622E772CB855C5F27A0956E54F183ACDD65752106FA013CD08 DUP7 DUP5 DUP2 MLOAD DUP2 LT PUSH2 0x1457 JUMPI PUSH2 0x1456 PUSH2 0x439C JUMP JUMPDEST JUMPDEST PUSH1 0x20 MUL PUSH1 0x20 ADD ADD MLOAD PUSH1 0x40 MLOAD PUSH2 0x146C SWAP2 SWAP1 PUSH2 0x3500 JUMP JUMPDEST PUSH1 0x40 MLOAD DUP1 SWAP2 SUB SWAP1 LOG3 JUMPDEST DUP1 DUP1 PUSH2 0x1480 SWAP1 PUSH2 0x43FA JUMP JUMPDEST SWAP2 POP POP PUSH2 0x133C JUMP JUMPDEST POP POP POP POP POP POP POP JUMP JUMPDEST PUSH1 0x0 DUP1 SHL DUP2 JUMP JUMPDEST PUSH2 0x14AA PUSH2 0x14A3 PUSH2 0x1BDE JUMP JUMPDEST DUP4 DUP4 PUSH2 0x20C9 JUMP JUMPDEST POP POP JUMP JUMPDEST PUSH1 0x0 PUSH1 0x5 PUSH1 0x0 DUP4 DUP2 MSTORE PUSH1 0x20 ADD SWAP1 DUP2 MSTORE PUSH1 0x20 ADD PUSH1 0x0 KECCAK256 SLOAD SWAP1 POP SWAP2 SWAP1 POP JUMP JUMPDEST PUSH32 0x9F2DF0FED2C77648DE5860A4CC508CD0818C85B8B8A1AB4CEEEF8D981C8956A6 PUSH2 0x14F5 DUP2 PUSH2 0x194E JUMP JUMPDEST PUSH2 0x1501 DUP7 DUP7 DUP7 DUP6 PUSH2 0x1FCD JUMP JUMPDEST PUSH1 0x0 DUP4 GT ISZERO PUSH2 0x15AF JUMPI DUP3 PUSH1 0xC PUSH1 0x0 DUP9 PUSH20 0xFFFFFFFFFFFFFFFFFFFFFFFFFFFFFFFFFFFFFFFF AND PUSH20 0xFFFFFFFFFFFFFFFFFFFFFFFFFFFFFFFFFFFFFFFF AND DUP2 MSTORE PUSH1 0x20 ADD SWAP1 DUP2 MSTORE PUSH1 0x20 ADD PUSH1 0x0 KECCAK256 PUSH1 0x0 DUP8 DUP2 MSTORE PUSH1 0x20 ADD SWAP1 DUP2 MSTORE PUSH1 0x20 ADD PUSH1 0x0 KECCAK256 DUP2 SWAP1 SSTORE POP DUP5 DUP7 PUSH20 0xFFFFFFFFFFFFFFFFFFFFFFFFFFFFFFFFFFFFFFFF AND PUSH32 0x1347CE935D48B1622E772CB855C5F27A0956E54F183ACDD65752106FA013CD08 DUP6 PUSH1 0x40 MLOAD PUSH2 0x15A6 SWAP2 SWAP1 PUSH2 0x3500 JUMP JUMPDEST PUSH1 0x40 MLOAD DUP1 SWAP2 SUB SWAP1 LOG3 JUMPDEST POP POP POP POP POP POP JUMP JUMPDEST PUSH32 0x9F2DF0FED2C77648DE5860A4CC508CD0818C85B8B8A1AB4CEEEF8D981C8956A6 DUP2 JUMP JUMPDEST PUSH2 0x15E4 DUP3 PUSH2 0xB78 JUMP JUMPDEST PUSH2 0x15ED DUP2 PUSH2 0x194E JUMP JUMPDEST PUSH2 0x15F7 DUP4 DUP4 PUSH2 0x1DD0 JUMP JUMPDEST POP POP POP POP JUMP JUMPDEST PUSH1 0x0 PUSH1 0x9 PUSH1 0x0 DUP4 DUP2 MSTORE PUSH1 0x20 ADD SWAP1 DUP2 MSTORE PUSH1 0x20 ADD PUSH1 0x0 KECCAK256 SLOAD SWAP1 POP SWAP2 SWAP1 POP JUMP JUMPDEST PUSH32 0x65D7A28E3265B37A6474929F336521B332C1681B933F6CB9F3376673440D862A DUP2 JUMP JUMPDEST PUSH1 0x0 PUSH1 0x1 PUSH1 0x0 DUP5 PUSH20 0xFFFFFFFFFFFFFFFFFFFFFFFFFFFFFFFFFFFFFFFF AND PUSH20 0xFFFFFFFFFFFFFFFFFFFFFFFFFFFFFFFFFFFFFFFF AND DUP2 MSTORE PUSH1 0x20 ADD SWAP1 DUP2 MSTORE PUSH1 0x20 ADD PUSH1 0x0 KECCAK256 PUSH1 0x0 DUP4 PUSH20 0xFFFFFFFFFFFFFFFFFFFFFFFFFFFFFFFFFFFFFFFF AND PUSH20 0xFFFFFFFFFFFFFFFFFFFFFFFFFFFFFFFFFFFFFFFF AND DUP2 MSTORE PUSH1 0x20 ADD SWAP1 DUP2 MSTORE PUSH1 0x20 ADD PUSH1 0x0 KECCAK256 PUSH1 0x0 SWAP1 SLOAD SWAP1 PUSH2 0x100 EXP SWAP1 DIV PUSH1 0xFF AND SWAP1 POP SWAP3 SWAP2 POP POP JUMP JUMPDEST PUSH1 0x0 PUSH1 0xA PUSH1 0x0 DUP4 DUP2 MSTORE PUSH1 0x20 ADD SWAP1 DUP2 MSTORE PUSH1 0x20 ADD PUSH1 0x0 KECCAK256 SLOAD SWAP1 POP SWAP2 SWAP1 POP JUMP JUMPDEST PUSH32 0x9F2DF0FED2C77648DE5860A4CC508CD0818C85B8B8A1AB4CEEEF8D981C8956A6 PUSH2 0x1719 DUP2 PUSH2 0x194E JUMP JUMPDEST PUSH2 0x1722 DUP3 PUSH2 0x1975 JUMP JUMPDEST POP POP JUMP JUMPDEST PUSH1 0x0 PUSH2 0x1730 PUSH2 0x1BDE JUMP JUMPDEST SWAP1 POP DUP1 PUSH20 0xFFFFFFFFFFFFFFFFFFFFFFFFFFFFFFFFFFFFFFFF AND DUP7 PUSH20 0xFFFFFFFFFFFFFFFFFFFFFFFFFFFFFFFFFFFFFFFF AND EQ ISZERO DUP1 ISZERO PUSH2 0x1775 JUMPI POP PUSH2 0x1773 DUP7 DUP3 PUSH2 0x163E JUMP JUMPDEST ISZERO JUMPDEST ISZERO PUSH2 0x17B9 JUMPI DUP1 DUP7 PUSH1 0x40 MLOAD PUSH32 0xE237D92200000000000000000000000000000000000000000000000000000000 DUP2 MSTORE PUSH1 0x4 ADD PUSH2 0x17B0 SWAP3 SWAP2 SWAP1 PUSH2 0x44E3 JUMP JUMPDEST PUSH1 0x40 MLOAD DUP1 SWAP2 SUB SWAP1 REVERT JUMPDEST PUSH2 0x17C6 DUP7 DUP7 DUP7 DUP7 DUP7 PUSH2 0x2239 JUMP JUMPDEST POP POP POP POP POP POP JUMP JUMPDEST PUSH2 0x17D6 PUSH2 0x1BDE JUMP JUMPDEST PUSH20 0xFFFFFFFFFFFFFFFFFFFFFFFFFFFFFFFFFFFFFFFF AND DUP4 PUSH20 0xFFFFFFFFFFFFFFFFFFFFFFFFFFFFFFFFFFFFFFFF AND EQ ISZERO DUP1 ISZERO PUSH2 0x181F JUMPI POP PUSH2 0x181D DUP4 PUSH2 0x1818 PUSH2 0x1BDE JUMP JUMPDEST PUSH2 0x163E JUMP JUMPDEST ISZERO JUMPDEST ISZERO PUSH2 0x186A JUMPI PUSH2 0x182C PUSH2 0x1BDE JUMP JUMPDEST DUP4 PUSH1 0x40 MLOAD PUSH32 0xE237D92200000000000000000000000000000000000000000000000000000000 DUP2 MSTORE PUSH1 0x4 ADD PUSH2 0x1861 SWAP3 SWAP2 SWAP1 PUSH2 0x44E3 JUMP JUMPDEST PUSH1 0x40 MLOAD DUP1 SWAP2 SUB SWAP1 REVERT JUMPDEST PUSH2 0x1875 DUP4 DUP4 DUP4 PUSH2 0x2344 JUMP JUMPDEST POP POP POP JUMP JUMPDEST PUSH1 0x0 DUP1 PUSH1 0x0 DUP4 DUP2 MSTORE PUSH1 0x20 ADD SWAP1 DUP2 MSTORE PUSH1 0x20 ADD PUSH1 0x0 KECCAK256 PUSH1 0x0 DUP5 PUSH20 0xFFFFFFFFFFFFFFFFFFFFFFFFFFFFFFFFFFFFFFFF AND PUSH20 0xFFFFFFFFFFFFFFFFFFFFFFFFFFFFFFFFFFFFFFFF AND DUP2 MSTORE PUSH1 0x20 ADD SWAP1 DUP2 MSTORE PUSH1 0x20 ADD PUSH1 0x0 KECCAK256 SLOAD SWAP1 POP SWAP3 SWAP2 POP POP JUMP JUMPDEST PUSH1 0x0 PUSH32 0x7965DB0B00000000000000000000000000000000000000000000000000000000 PUSH28 0xFFFFFFFFFFFFFFFFFFFFFFFFFFFFFFFFFFFFFFFFFFFFFFFFFFFFFFFF NOT AND DUP3 PUSH28 0xFFFFFFFFFFFFFFFFFFFFFFFFFFFFFFFFFFFFFFFFFFFFFFFFFFFFFFFF NOT AND EQ DUP1 PUSH2 0x1947 JUMPI POP PUSH2 0x1946 DUP3 PUSH2 0x23EB JUMP JUMPDEST JUMPDEST SWAP1 POP SWAP2 SWAP1 POP JUMP JUMPDEST PUSH2 0x195F DUP2 PUSH2 0x195A PUSH2 0x1BDE JUMP JUMPDEST PUSH2 0x24CD JUMP JUMPDEST POP JUMP JUMPDEST DUP1 PUSH1 0x2 SWAP1 DUP2 PUSH2 0x1971 SWAP2 SWAP1 PUSH2 0x483C JUMP JUMPDEST POP POP JUMP JUMPDEST PUSH1 0x0 PUSH1 0x9 PUSH1 0x0 DUP4 DUP2 MSTORE PUSH1 0x20 ADD SWAP1 DUP2 MSTORE PUSH1 0x20 ADD PUSH1 0x0 KECCAK256 SLOAD SUB PUSH2 0x1A0B JUMPI PUSH1 0x0 PUSH1 0xB PUSH1 0x0 DUP2 SLOAD DUP1 SWAP3 SWAP2 SWAP1 PUSH2 0x19A5 SWAP1 PUSH2 0x43FA JUMP JUMPDEST SWAP2 SWAP1 POP SSTORE SWAP1 POP DUP1 PUSH1 0x9 PUSH1 0x0 DUP5 DUP2 MSTORE PUSH1 0x20 ADD SWAP1 DUP2 MSTORE PUSH1 0x20 ADD PUSH1 0x0 KECCAK256 DUP2 SWAP1 SSTORE POP DUP2 PUSH1 0xA PUSH1 0x0 DUP4 DUP2 MSTORE PUSH1 0x20 ADD SWAP1 DUP2 MSTORE PUSH1 0x20 ADD PUSH1 0x0 KECCAK256 DUP2 SWAP1 SSTORE POP DUP1 DUP3 PUSH32 0xEA3E0ACFC42D04765CB7947585765A242D0FD12A634EDFB22C44CF42A363B2B8 PUSH1 0x40 MLOAD PUSH1 0x40 MLOAD DUP1 SWAP2 SUB SWAP1 LOG3 POP JUMPDEST POP JUMP JUMPDEST PUSH1 0x60 PUSH1 0x0 PUSH1 0x8 PUSH1 0x0 DUP5 DUP2 MSTORE PUSH1 0x20 ADD SWAP1 DUP2 MSTORE PUSH1 0x20 ADD PUSH1 0x0 KECCAK256 DUP1 SLOAD PUSH2 0x1A30 SWAP1 PUSH2 0x465F JUMP JUMPDEST DUP1 PUSH1 0x1F ADD PUSH1 0x20 DUP1 SWAP2 DIV MUL PUSH1 0x20 ADD PUSH1 0x40 MLOAD SWAP1 DUP2 ADD PUSH1 0x40 MSTORE DUP1 SWAP3 SWAP2 SWAP1 DUP2 DUP2 MSTORE PUSH1 0x20 ADD DUP3 DUP1 SLOAD PUSH2 0x1A5C SWAP1 PUSH2 0x465F JUMP JUMPDEST DUP1 ISZERO PUSH2 0x1AA9 JUMPI DUP1 PUSH1 0x1F LT PUSH2 0x1A7E JUMPI PUSH2 0x100 DUP1 DUP4 SLOAD DIV MUL DUP4 MSTORE SWAP2 PUSH1 0x20 ADD SWAP2 PUSH2 0x1AA9 JUMP JUMPDEST DUP3 ADD SWAP2 SWAP1 PUSH1 0x0 MSTORE PUSH1 0x20 PUSH1 0x0 KECCAK256 SWAP1 JUMPDEST DUP2 SLOAD DUP2 MSTORE SWAP1 PUSH1 0x1 ADD SWAP1 PUSH1 0x20 ADD DUP1 DUP4 GT PUSH2 0x1A8C JUMPI DUP3 SWAP1 SUB PUSH1 0x1F AND DUP3 ADD SWAP2 JUMPDEST POP POP POP POP POP SWAP1 POP PUSH1 0x0 DUP2 MLOAD GT PUSH2 0x1AC7 JUMPI PUSH2 0x1AC2 DUP4 PUSH2 0x251E JUMP JUMPDEST PUSH2 0x1AEB JUMP JUMPDEST PUSH1 0x7 DUP2 PUSH1 0x40 MLOAD PUSH1 0x20 ADD PUSH2 0x1ADB SWAP3 SWAP2 SWAP1 PUSH2 0x49CD JUMP JUMPDEST PUSH1 0x40 MLOAD PUSH1 0x20 DUP2 DUP4 SUB SUB DUP2 MSTORE SWAP1 PUSH1 0x40 MSTORE JUMPDEST SWAP2 POP POP SWAP2 SWAP1 POP JUMP JUMPDEST DUP1 PUSH1 0x8 PUSH1 0x0 DUP5 DUP2 MSTORE PUSH1 0x20 ADD SWAP1 DUP2 MSTORE PUSH1 0x20 ADD PUSH1 0x0 KECCAK256 SWAP1 DUP2 PUSH2 0x1B13 SWAP2 SWAP1 PUSH2 0x483C JUMP JUMPDEST POP DUP2 PUSH32 0x6BB7FF708619BA0610CBA295A58592E0451DEE2622938C8755667688DAF3529B PUSH2 0x1B3F DUP5 PUSH2 0x956 JUMP JUMPDEST PUSH1 0x40 MLOAD PUSH2 0x1B4C SWAP2 SWAP1 PUSH2 0x3958 JUMP JUMPDEST PUSH1 0x40 MLOAD DUP1 SWAP2 SUB SWAP1 LOG2 POP POP JUMP JUMPDEST PUSH1 0x0 PUSH20 0xFFFFFFFFFFFFFFFFFFFFFFFFFFFFFFFFFFFFFFFF AND DUP5 PUSH20 0xFFFFFFFFFFFFFFFFFFFFFFFFFFFFFFFFFFFFFFFF AND SUB PUSH2 0x1BCA JUMPI PUSH1 0x0 PUSH1 0x40 MLOAD PUSH32 0x57F447CE00000000000000000000000000000000000000000000000000000000 DUP2 MSTORE PUSH1 0x4 ADD PUSH2 0x1BC1 SWAP2 SWAP1 PUSH2 0x49F1 JUMP JUMPDEST PUSH1 0x40 MLOAD DUP1 SWAP2 SUB SWAP1 REVERT JUMPDEST PUSH2 0x1BD8 PUSH1 0x0 DUP6 DUP6 DUP6 DUP6 PUSH2 0x25B2 JUMP JUMPDEST POP POP POP POP JUMP JUMPDEST PUSH1 0x0 CALLER SWAP1 POP SWAP1 JUMP JUMPDEST PUSH1 0x0 PUSH20 0xFFFFFFFFFFFFFFFFFFFFFFFFFFFFFFFFFFFFFFFF AND DUP5 PUSH20 0xFFFFFFFFFFFFFFFFFFFFFFFFFFFFFFFFFFFFFFFF AND SUB PUSH2 0x1C58 JUMPI PUSH1 0x0 PUSH1 0x40 MLOAD PUSH32 0x57F447CE00000000000000000000000000000000000000000000000000000000 DUP2 MSTORE PUSH1 0x4 ADD PUSH2 0x1C4F SWAP2 SWAP1 PUSH2 0x49F1 JUMP JUMPDEST PUSH1 0x40 MLOAD DUP1 SWAP2 SUB SWAP1 REVERT JUMPDEST PUSH1 0x0 PUSH20 0xFFFFFFFFFFFFFFFFFFFFFFFFFFFFFFFFFFFFFFFF AND DUP6 PUSH20 0xFFFFFFFFFFFFFFFFFFFFFFFFFFFFFFFFFFFFFFFF AND SUB PUSH2 0x1CCA JUMPI PUSH1 0x0 PUSH1 0x40 MLOAD PUSH32 0x1A8351400000000000000000000000000000000000000000000000000000000 DUP2 MSTORE PUSH1 0x4 ADD PUSH2 0x1CC1 SWAP2 SWAP1 PUSH2 0x49F1 JUMP JUMPDEST PUSH1 0x40 MLOAD DUP1 SWAP2 SUB SWAP1 REVERT JUMPDEST PUSH2 0x1CD7 DUP6 DUP6 DUP6 DUP6 DUP6 PUSH2 0x25B2 JUMP JUMPDEST POP POP POP POP POP JUMP JUMPDEST PUSH1 0x0 PUSH2 0x1CEA DUP4 DUP4 PUSH2 0x1254 JUMP JUMPDEST PUSH2 0x1DC5 JUMPI PUSH1 0x1 PUSH1 0x3 PUSH1 0x0 DUP6 DUP2 MSTORE PUSH1 0x20 ADD SWAP1 DUP2 MSTORE PUSH1 0x20 ADD PUSH1 0x0 KECCAK256 PUSH1 0x0 ADD PUSH1 0x0 DUP5 PUSH20 0xFFFFFFFFFFFFFFFFFFFFFFFFFFFFFFFFFFFFFFFF AND PUSH20 0xFFFFFFFFFFFFFFFFFFFFFFFFFFFFFFFFFFFFFFFF AND DUP2 MSTORE PUSH1 0x20 ADD SWAP1 DUP2 MSTORE PUSH1 0x20 ADD PUSH1 0x0 KECCAK256 PUSH1 0x0 PUSH2 0x100 EXP DUP2 SLOAD DUP2 PUSH1 0xFF MUL NOT AND SWAP1 DUP4 ISZERO ISZERO MUL OR SWAP1 SSTORE POP PUSH2 0x1D62 PUSH2 0x1BDE JUMP JUMPDEST PUSH20 0xFFFFFFFFFFFFFFFFFFFFFFFFFFFFFFFFFFFFFFFF AND DUP3 PUSH20 0xFFFFFFFFFFFFFFFFFFFFFFFFFFFFFFFFFFFFFFFF AND DUP5 PUSH32 0x2F8788117E7EFF1D82E926EC794901D17C78024A50270940304540A733656F0D PUSH1 0x40 MLOAD PUSH1 0x40 MLOAD DUP1 SWAP2 SUB SWAP1 LOG4 PUSH1 0x1 SWAP1 POP PUSH2 0x1DCA JUMP JUMPDEST PUSH1 0x0 SWAP1 POP JUMPDEST SWAP3 SWAP2 POP POP JUMP JUMPDEST PUSH1 0x0 PUSH2 0x1DDC DUP4 DUP4 PUSH2 0x1254 JUMP JUMPDEST ISZERO PUSH2 0x1EB8 JUMPI PUSH1 0x0 PUSH1 0x3 PUSH1 0x0 DUP6 DUP2 MSTORE PUSH1 0x20 ADD SWAP1 DUP2 MSTORE PUSH1 0x20 ADD PUSH1 0x0 KECCAK256 PUSH1 0x0 ADD PUSH1 0x0 DUP5 PUSH20 0xFFFFFFFFFFFFFFFFFFFFFFFFFFFFFFFFFFFFFFFF AND PUSH20 0xFFFFFFFFFFFFFFFFFFFFFFFFFFFFFFFFFFFFFFFF AND DUP2 MSTORE PUSH1 0x20 ADD SWAP1 DUP2 MSTORE PUSH1 0x20 ADD PUSH1 0x0 KECCAK256 PUSH1 0x0 PUSH2 0x100 EXP DUP2 SLOAD DUP2 PUSH1 0xFF MUL NOT AND SWAP1 DUP4 ISZERO ISZERO MUL OR SWAP1 SSTORE POP PUSH2 0x1E55 PUSH2 0x1BDE JUMP JUMPDEST PUSH20 0xFFFFFFFFFFFFFFFFFFFFFFFFFFFFFFFFFFFFFFFF AND DUP3 PUSH20 0xFFFFFFFFFFFFFFFFFFFFFFFFFFFFFFFFFFFFFFFF AND DUP5 PUSH32 0xF6391F5C32D9C69D2A47EA670B442974B53935D1EDC7FD64EB21E047A839171B PUSH1 0x40 MLOAD PUSH1 0x40 MLOAD DUP1 SWAP2 SUB SWAP1 LOG4 PUSH1 0x1 SWAP1 POP PUSH2 0x1EBD JUMP JUMPDEST PUSH1 0x0 SWAP1 POP JUMPDEST SWAP3 SWAP2 POP POP JUMP JUMPDEST PUSH2 0x1ECB PUSH2 0x2664 JUMP JUMPDEST PUSH1 0x0 PUSH1 0x4 PUSH1 0x0 PUSH2 0x100 EXP DUP2 SLOAD DUP2 PUSH1 0xFF MUL NOT AND SWAP1 DUP4 ISZERO ISZERO MUL OR SWAP1 SSTORE POP PUSH32 0x5DB9EE0A495BF2E6FF9C91A7834C1BA4FDD244A5E8AA4E537BD38AEAE4B073AA PUSH2 0x1F0F PUSH2 0x1BDE JUMP JUMPDEST PUSH1 0x40 MLOAD PUSH2 0x1F1C SWAP2 SWAP1 PUSH2 0x49F1 JUMP JUMPDEST PUSH1 0x40 MLOAD DUP1 SWAP2 SUB SWAP1 LOG1 JUMP JUMPDEST DUP1 PUSH1 0x7 SWAP1 DUP2 PUSH2 0x1F35 SWAP2 SWAP1 PUSH2 0x483C JUMP JUMPDEST POP POP JUMP JUMPDEST PUSH1 0x0 PUSH20 0xFFFFFFFFFFFFFFFFFFFFFFFFFFFFFFFFFFFFFFFF AND DUP4 PUSH20 0xFFFFFFFFFFFFFFFFFFFFFFFFFFFFFFFFFFFFFFFF AND SUB PUSH2 0x1FAB JUMPI PUSH1 0x0 PUSH1 0x40 MLOAD PUSH32 0x1A8351400000000000000000000000000000000000000000000000000000000 DUP2 MSTORE PUSH1 0x4 ADD PUSH2 0x1FA2 SWAP2 SWAP1 PUSH2 0x49F1 JUMP JUMPDEST PUSH1 0x40 MLOAD DUP1 SWAP2 SUB SWAP1 REVERT JUMPDEST PUSH2 0x1FC8 DUP4 PUSH1 0x0 DUP5 DUP5 PUSH1 0x40 MLOAD DUP1 PUSH1 0x20 ADD PUSH1 0x40 MSTORE DUP1 PUSH1 0x0 DUP2 MSTORE POP PUSH2 0x25B2 JUMP JUMPDEST POP POP POP JUMP JUMPDEST PUSH1 0x0 PUSH20 0xFFFFFFFFFFFFFFFFFFFFFFFFFFFFFFFFFFFFFFFF AND DUP5 PUSH20 0xFFFFFFFFFFFFFFFFFFFFFFFFFFFFFFFFFFFFFFFF AND SUB PUSH2 0x203F JUMPI PUSH1 0x0 PUSH1 0x40 MLOAD PUSH32 0x57F447CE00000000000000000000000000000000000000000000000000000000 DUP2 MSTORE PUSH1 0x4 ADD PUSH2 0x2036 SWAP2 SWAP1 PUSH2 0x49F1 JUMP JUMPDEST PUSH1 0x40 MLOAD DUP1 SWAP2 SUB SWAP1 REVERT JUMPDEST PUSH1 0x0 DUP1 PUSH2 0x204C DUP6 DUP6 PUSH2 0x26A4 JUMP JUMPDEST SWAP2 POP SWAP2 POP PUSH2 0x205E PUSH1 0x0 DUP8 DUP5 DUP5 DUP8 PUSH2 0x25B2 JUMP JUMPDEST POP POP POP POP POP POP JUMP JUMPDEST PUSH2 0x206E PUSH2 0x26D4 JUMP JUMPDEST PUSH1 0x1 PUSH1 0x4 PUSH1 0x0 PUSH2 0x100 EXP DUP2 SLOAD DUP2 PUSH1 0xFF MUL NOT AND SWAP1 DUP4 ISZERO ISZERO MUL OR SWAP1 SSTORE POP PUSH32 0x62E78CEA01BEE320CD4E420270B5EA74000D11B0C9F74754EBDBFC544B05A258 PUSH2 0x20B2 PUSH2 0x1BDE JUMP JUMPDEST PUSH1 0x40 MLOAD PUSH2 0x20BF SWAP2 SWAP1 PUSH2 0x49F1 JUMP JUMPDEST PUSH1 0x40 MLOAD DUP1 SWAP2 SUB SWAP1 LOG1 JUMP JUMPDEST PUSH1 0x0 PUSH20 0xFFFFFFFFFFFFFFFFFFFFFFFFFFFFFFFFFFFFFFFF AND DUP3 PUSH20 0xFFFFFFFFFFFFFFFFFFFFFFFFFFFFFFFFFFFFFFFF AND SUB PUSH2 0x213B JUMPI PUSH1 0x0 PUSH1 0x40 MLOAD PUSH32 0xCED3E10000000000000000000000000000000000000000000000000000000000 DUP2 MSTORE PUSH1 0x4 ADD PUSH2 0x2132 SWAP2 SWAP1 PUSH2 0x49F1 JUMP JUMPDEST PUSH1 0x40 MLOAD DUP1 SWAP2 SUB SWAP1 REVERT JUMPDEST DUP1 PUSH1 0x1 PUSH1 0x0 DUP6 PUSH20 0xFFFFFFFFFFFFFFFFFFFFFFFFFFFFFFFFFFFFFFFF AND PUSH20 0xFFFFFFFFFFFFFFFFFFFFFFFFFFFFFFFFFFFFFFFF AND DUP2 MSTORE PUSH1 0x20 ADD SWAP1 DUP2 MSTORE PUSH1 0x20 ADD PUSH1 0x0 KECCAK256 PUSH1 0x0 DUP5 PUSH20 0xFFFFFFFFFFFFFFFFFFFFFFFFFFFFFFFFFFFFFFFF AND PUSH20 0xFFFFFFFFFFFFFFFFFFFFFFFFFFFFFFFFFFFFFFFF AND DUP2 MSTORE PUSH1 0x20 ADD SWAP1 DUP2 MSTORE PUSH1 0x20 ADD PUSH1 0x0 KECCAK256 PUSH1 0x0 PUSH2 0x100 EXP DUP2 SLOAD DUP2 PUSH1 0xFF MUL NOT AND SWAP1 DUP4 ISZERO ISZERO MUL OR SWAP1 SSTORE POP DUP2 PUSH20 0xFFFFFFFFFFFFFFFFFFFFFFFFFFFFFFFFFFFFFFFF AND DUP4 PUSH20 0xFFFFFFFFFFFFFFFFFFFFFFFFFFFFFFFFFFFFFFFF AND PUSH32 0x17307EAB39AB6107E8899845AD3D59BD9653F200F220920489CA2B5937696C31 DUP4 PUSH1 0x40 MLOAD PUSH2 0x222C SWAP2 SWAP1 PUSH2 0x35BB JUMP JUMPDEST PUSH1 0x40 MLOAD DUP1 SWAP2 SUB SWAP1 LOG3 POP POP POP JUMP JUMPDEST PUSH1 0x0 PUSH20 0xFFFFFFFFFFFFFFFFFFFFFFFFFFFFFFFFFFFFFFFF AND DUP5 PUSH20 0xFFFFFFFFFFFFFFFFFFFFFFFFFFFFFFFFFFFFFFFF AND SUB PUSH2 0x22AB JUMPI PUSH1 0x0 PUSH1 0x40 MLOAD PUSH32 0x57F447CE00000000000000000000000000000000000000000000000000000000 DUP2 MSTORE PUSH1 0x4 ADD PUSH2 0x22A2 SWAP2 SWAP1 PUSH2 0x49F1 JUMP JUMPDEST PUSH1 0x40 MLOAD DUP1 SWAP2 SUB SWAP1 REVERT JUMPDEST PUSH1 0x0 PUSH20 0xFFFFFFFFFFFFFFFFFFFFFFFFFFFFFFFFFFFFFFFF AND DUP6 PUSH20 0xFFFFFFFFFFFFFFFFFFFFFFFFFFFFFFFFFFFFFFFF AND SUB PUSH2 0x231D JUMPI PUSH1 0x0 PUSH1 0x40 MLOAD PUSH32 0x1A8351400000000000000000000000000000000000000000000000000000000 DUP2 MSTORE PUSH1 0x4 ADD PUSH2 0x2314 SWAP2 SWAP1 PUSH2 0x49F1 JUMP JUMPDEST PUSH1 0x40 MLOAD DUP1 SWAP2 SUB SWAP1 REVERT JUMPDEST PUSH1 0x0 DUP1 PUSH2 0x232A DUP6 DUP6 PUSH2 0x26A4 JUMP JUMPDEST SWAP2 POP SWAP2 POP PUSH2 0x233B DUP8 DUP8 DUP5 DUP5 DUP8 PUSH2 0x25B2 JUMP JUMPDEST POP POP POP POP POP POP POP JUMP JUMPDEST PUSH1 0x0 PUSH20 0xFFFFFFFFFFFFFFFFFFFFFFFFFFFFFFFFFFFFFFFF AND DUP4 PUSH20 0xFFFFFFFFFFFFFFFFFFFFFFFFFFFFFFFFFFFFFFFF AND SUB PUSH2 0x23B6 JUMPI PUSH1 0x0 PUSH1 0x40 MLOAD PUSH32 0x1A8351400000000000000000000000000000000000000000000000000000000 DUP2 MSTORE PUSH1 0x4 ADD PUSH2 0x23AD SWAP2 SWAP1 PUSH2 0x49F1 JUMP JUMPDEST PUSH1 0x40 MLOAD DUP1 SWAP2 SUB SWAP1 REVERT JUMPDEST PUSH1 0x0 DUP1 PUSH2 0x23C3 DUP5 DUP5 PUSH2 0x26A4 JUMP JUMPDEST SWAP2 POP SWAP2 POP PUSH2 0x23E4 DUP6 PUSH1 0x0 DUP5 DUP5 PUSH1 0x40 MLOAD DUP1 PUSH1 0x20 ADD PUSH1 0x40 MSTORE DUP1 PUSH1 0x0 DUP2 MSTORE POP PUSH2 0x25B2 JUMP JUMPDEST POP POP POP POP POP JUMP JUMPDEST PUSH1 0x0 PUSH32 0xD9B67A2600000000000000000000000000000000000000000000000000000000 PUSH28 0xFFFFFFFFFFFFFFFFFFFFFFFFFFFFFFFFFFFFFFFFFFFFFFFFFFFFFFFF NOT AND DUP3 PUSH28 0xFFFFFFFFFFFFFFFFFFFFFFFFFFFFFFFFFFFFFFFFFFFFFFFFFFFFFFFF NOT AND EQ DUP1 PUSH2 0x24B6 JUMPI POP PUSH32 0xE89341C00000000000000000000000000000000000000000000000000000000 PUSH28 0xFFFFFFFFFFFFFFFFFFFFFFFFFFFFFFFFFFFFFFFFFFFFFFFFFFFFFFFF NOT AND DUP3 PUSH28 0xFFFFFFFFFFFFFFFFFFFFFFFFFFFFFFFFFFFFFFFFFFFFFFFFFFFFFFFF NOT AND EQ JUMPDEST DUP1 PUSH2 0x24C6 JUMPI POP PUSH2 0x24C5 DUP3 PUSH2 0x2715 JUMP JUMPDEST JUMPDEST SWAP1 POP SWAP2 SWAP1 POP JUMP JUMPDEST PUSH2 0x24D7 DUP3 DUP3 PUSH2 0x1254 JUMP JUMPDEST PUSH2 0x251A JUMPI DUP1 DUP3 PUSH1 0x40 MLOAD PUSH32 0xE2517D3F00000000000000000000000000000000000000000000000000000000 DUP2 MSTORE PUSH1 0x4 ADD PUSH2 0x2511 SWAP3 SWAP2 SWAP1 PUSH2 0x4A0C JUMP JUMPDEST PUSH1 0x40 MLOAD DUP1 SWAP2 SUB SWAP1 REVERT JUMPDEST POP POP JUMP JUMPDEST PUSH1 0x60 PUSH1 0x2 DUP1 SLOAD PUSH2 0x252D SWAP1 PUSH2 0x465F JUMP JUMPDEST DUP1 PUSH1 0x1F ADD PUSH1 0x20 DUP1 SWAP2 DIV MUL PUSH1 0x20 ADD PUSH1 0x40 MLOAD SWAP1 DUP2 ADD PUSH1 0x40 MSTORE DUP1 SWAP3 SWAP2 SWAP1 DUP2 DUP2 MSTORE PUSH1 0x20 ADD DUP3 DUP1 SLOAD PUSH2 0x2559 SWAP1 PUSH2 0x465F JUMP JUMPDEST DUP1 ISZERO PUSH2 0x25A6 JUMPI DUP1 PUSH1 0x1F LT PUSH2 0x257B JUMPI PUSH2 0x100 DUP1 DUP4 SLOAD DIV MUL DUP4 MSTORE SWAP2 PUSH1 0x20 ADD SWAP2 PUSH2 0x25A6 JUMP JUMPDEST DUP3 ADD SWAP2 SWAP1 PUSH1 0x0 MSTORE PUSH1 0x20 PUSH1 0x0 KECCAK256 SWAP1 JUMPDEST DUP2 SLOAD DUP2 MSTORE SWAP1 PUSH1 0x1 ADD SWAP1 PUSH1 0x20 ADD DUP1 DUP4 GT PUSH2 0x2589 JUMPI DUP3 SWAP1 SUB PUSH1 0x1F AND DUP3 ADD SWAP2 JUMPDEST POP POP POP POP POP SWAP1 POP SWAP2 SWAP1 POP JUMP JUMPDEST PUSH2 0x25BE DUP6 DUP6 DUP6 DUP6 PUSH2 0x277F JUMP JUMPDEST PUSH1 0x0 PUSH20 0xFFFFFFFFFFFFFFFFFFFFFFFFFFFFFFFFFFFFFFFF AND DUP5 PUSH20 0xFFFFFFFFFFFFFFFFFFFFFFFFFFFFFFFFFFFFFFFF AND EQ PUSH2 0x265D JUMPI PUSH1 0x0 PUSH2 0x25FC PUSH2 0x1BDE JUMP JUMPDEST SWAP1 POP PUSH1 0x1 DUP5 MLOAD SUB PUSH2 0x264C JUMPI PUSH1 0x0 PUSH2 0x261D PUSH1 0x0 DUP7 PUSH2 0x2B2E SWAP1 SWAP2 SWAP1 PUSH4 0xFFFFFFFF AND JUMP JUMPDEST SWAP1 POP PUSH1 0x0 PUSH2 0x2635 PUSH1 0x0 DUP7 PUSH2 0x2B2E SWAP1 SWAP2 SWAP1 PUSH4 0xFFFFFFFF AND JUMP JUMPDEST SWAP1 POP PUSH2 0x2645 DUP4 DUP10 DUP10 DUP6 DUP6 DUP10 PUSH2 0x2B42 JUMP JUMPDEST POP POP PUSH2 0x265B JUMP JUMPDEST PUSH2 0x265A DUP2 DUP8 DUP8 DUP8 DUP8 DUP8 PUSH2 0x2CF6 JUMP JUMPDEST JUMPDEST POP JUMPDEST POP POP POP POP POP JUMP JUMPDEST PUSH2 0x266C PUSH2 0xEF5 JUMP JUMPDEST PUSH2 0x26A2 JUMPI PUSH1 0x40 MLOAD PUSH32 0x8DFC202B00000000000000000000000000000000000000000000000000000000 DUP2 MSTORE PUSH1 0x4 ADD PUSH1 0x40 MLOAD DUP1 SWAP2 SUB SWAP1 REVERT JUMPDEST JUMP JUMPDEST PUSH1 0x60 DUP1 PUSH1 0x40 MLOAD SWAP2 POP PUSH1 0x1 DUP3 MSTORE DUP4 PUSH1 0x20 DUP4 ADD MSTORE PUSH1 0x40 DUP3 ADD SWAP1 POP PUSH1 0x1 DUP2 MSTORE DUP3 PUSH1 0x20 DUP3 ADD MSTORE PUSH1 0x40 DUP2 ADD PUSH1 0x40 MSTORE SWAP3 POP SWAP3 SWAP1 POP JUMP JUMPDEST PUSH2 0x26DC PUSH2 0xEF5 JUMP JUMPDEST ISZERO PUSH2 0x2713 JUMPI PUSH1 0x40 MLOAD PUSH32 0xD93C066500000000000000000000000000000000000000000000000000000000 DUP2 MSTORE PUSH1 0x4 ADD PUSH1 0x40 MLOAD DUP1 SWAP2 SUB SWAP1 REVERT JUMPDEST JUMP JUMPDEST PUSH1 0x0 PUSH32 0x1FFC9A700000000000000000000000000000000000000000000000000000000 PUSH28 0xFFFFFFFFFFFFFFFFFFFFFFFFFFFFFFFFFFFFFFFFFFFFFFFFFFFFFFFF NOT AND DUP3 PUSH28 0xFFFFFFFFFFFFFFFFFFFFFFFFFFFFFFFFFFFFFFFFFFFFFFFFFFFFFFFF NOT AND EQ SWAP1 POP SWAP2 SWAP1 POP JUMP JUMPDEST PUSH1 0x0 PUSH20 0xFFFFFFFFFFFFFFFFFFFFFFFFFFFFFFFFFFFFFFFF AND DUP5 PUSH20 0xFFFFFFFFFFFFFFFFFFFFFFFFFFFFFFFFFFFFFFFF AND EQ ISZERO DUP1 ISZERO PUSH2 0x27E9 JUMPI POP PUSH1 0x0 PUSH20 0xFFFFFFFFFFFFFFFFFFFFFFFFFFFFFFFFFFFFFFFF AND DUP4 PUSH20 0xFFFFFFFFFFFFFFFFFFFFFFFFFFFFFFFFFFFFFFFF AND EQ ISZERO JUMPDEST ISZERO PUSH2 0x285F JUMPI PUSH2 0x281F PUSH32 0x9F2DF0FED2C77648DE5860A4CC508CD0818C85B8B8A1AB4CEEEF8D981C8956A6 PUSH2 0x281A PUSH2 0x1BDE JUMP JUMPDEST PUSH2 0x1254 JUMP JUMPDEST PUSH2 0x285E JUMPI PUSH1 0x40 MLOAD PUSH32 0x8C379A000000000000000000000000000000000000000000000000000000000 DUP2 MSTORE PUSH1 0x4 ADD PUSH2 0x2855 SWAP1 PUSH2 0x4AA7 JUMP JUMPDEST PUSH1 0x40 MLOAD DUP1 SWAP2 SUB SWAP1 REVERT JUMPDEST JUMPDEST PUSH1 0x0 PUSH20 0xFFFFFFFFFFFFFFFFFFFFFFFFFFFFFFFFFFFFFFFF AND DUP5 PUSH20 0xFFFFFFFFFFFFFFFFFFFFFFFFFFFFFFFFFFFFFFFF AND EQ PUSH2 0x29CE JUMPI PUSH1 0x0 JUMPDEST DUP3 MLOAD DUP2 LT ISZERO PUSH2 0x29CC JUMPI PUSH1 0x0 DUP3 DUP3 DUP2 MLOAD DUP2 LT PUSH2 0x28B4 JUMPI PUSH2 0x28B3 PUSH2 0x439C JUMP JUMPDEST JUMPDEST PUSH1 0x20 MUL PUSH1 0x20 ADD ADD MLOAD GT ISZERO PUSH2 0x29B9 JUMPI PUSH1 0x0 PUSH1 0xC PUSH1 0x0 DUP8 PUSH20 0xFFFFFFFFFFFFFFFFFFFFFFFFFFFFFFFFFFFFFFFF AND PUSH20 0xFFFFFFFFFFFFFFFFFFFFFFFFFFFFFFFFFFFFFFFF AND DUP2 MSTORE PUSH1 0x20 ADD SWAP1 DUP2 MSTORE PUSH1 0x20 ADD PUSH1 0x0 KECCAK256 PUSH1 0x0 DUP6 DUP5 DUP2 MLOAD DUP2 LT PUSH2 0x2918 JUMPI PUSH2 0x2917 PUSH2 0x439C JUMP JUMPDEST JUMPDEST PUSH1 0x20 MUL PUSH1 0x20 ADD ADD MLOAD DUP2 MSTORE PUSH1 0x20 ADD SWAP1 DUP2 MSTORE PUSH1 0x20 ADD PUSH1 0x0 KECCAK256 SLOAD SWAP1 POP PUSH1 0x0 DUP2 EQ ISZERO DUP1 ISZERO PUSH2 0x2942 JUMPI POP TIMESTAMP DUP2 GT ISZERO JUMPDEST ISZERO PUSH2 0x29B7 JUMPI PUSH1 0x0 PUSH20 0xFFFFFFFFFFFFFFFFFFFFFFFFFFFFFFFFFFFFFFFF AND DUP6 PUSH20 0xFFFFFFFFFFFFFFFFFFFFFFFFFFFFFFFFFFFFFFFF AND EQ PUSH2 0x29B6 JUMPI PUSH1 0x40 MLOAD PUSH32 0x8C379A000000000000000000000000000000000000000000000000000000000 DUP2 MSTORE PUSH1 0x4 ADD PUSH2 0x29AD SWAP1 PUSH2 0x4B39 JUMP JUMPDEST PUSH1 0x40 MLOAD DUP1 SWAP2 SUB SWAP1 REVERT JUMPDEST JUMPDEST POP JUMPDEST DUP1 DUP1 PUSH2 0x29C4 SWAP1 PUSH2 0x43FA JUMP JUMPDEST SWAP2 POP POP PUSH2 0x2896 JUMP JUMPDEST POP JUMPDEST PUSH2 0x29DA DUP5 DUP5 DUP5 DUP5 PUSH2 0x2EAA JUMP JUMPDEST PUSH1 0x0 PUSH20 0xFFFFFFFFFFFFFFFFFFFFFFFFFFFFFFFFFFFFFFFF AND DUP4 PUSH20 0xFFFFFFFFFFFFFFFFFFFFFFFFFFFFFFFFFFFFFFFF AND EQ ISZERO DUP1 ISZERO PUSH2 0x2A44 JUMPI POP PUSH1 0x0 PUSH20 0xFFFFFFFFFFFFFFFFFFFFFFFFFFFFFFFFFFFFFFFF AND DUP5 PUSH20 0xFFFFFFFFFFFFFFFFFFFFFFFFFFFFFFFFFFFFFFFF AND EQ ISZERO JUMPDEST ISZERO PUSH2 0x2B28 JUMPI PUSH1 0x0 JUMPDEST DUP3 MLOAD DUP2 LT ISZERO PUSH2 0x2B26 JUMPI PUSH1 0x0 DUP3 DUP3 DUP2 MLOAD DUP2 LT PUSH2 0x2A6A JUMPI PUSH2 0x2A69 PUSH2 0x439C JUMP JUMPDEST JUMPDEST PUSH1 0x20 MUL PUSH1 0x20 ADD ADD MLOAD GT ISZERO PUSH2 0x2B13 JUMPI PUSH1 0x0 PUSH2 0x2A9E DUP7 DUP6 DUP5 DUP2 MLOAD DUP2 LT PUSH2 0x2A91 JUMPI PUSH2 0x2A90 PUSH2 0x439C JUMP JUMPDEST JUMPDEST PUSH1 0x20 MUL PUSH1 0x20 ADD ADD MLOAD PUSH2 0x187A JUMP JUMPDEST SUB PUSH2 0x2B12 JUMPI PUSH1 0xC PUSH1 0x0 DUP7 PUSH20 0xFFFFFFFFFFFFFFFFFFFFFFFFFFFFFFFFFFFFFFFF AND PUSH20 0xFFFFFFFFFFFFFFFFFFFFFFFFFFFFFFFFFFFFFFFF AND DUP2 MSTORE PUSH1 0x20 ADD SWAP1 DUP2 MSTORE PUSH1 0x20 ADD PUSH1 0x0 KECCAK256 PUSH1 0x0 DUP5 DUP4 DUP2 MLOAD DUP2 LT PUSH2 0x2AF7 JUMPI PUSH2 0x2AF6 PUSH2 0x439C JUMP JUMPDEST JUMPDEST PUSH1 0x20 MUL PUSH1 0x20 ADD ADD MLOAD DUP2 MSTORE PUSH1 0x20 ADD SWAP1 DUP2 MSTORE PUSH1 0x20 ADD PUSH1 0x0 KECCAK256 PUSH1 0x0 SWAP1 SSTORE JUMPDEST JUMPDEST DUP1 DUP1 PUSH2 0x2B1E SWAP1 PUSH2 0x43FA JUMP JUMPDEST SWAP2 POP POP PUSH2 0x2A4C JUMP JUMPDEST POP JUMPDEST POP POP POP POP JUMP JUMPDEST PUSH1 0x0 PUSH1 0x20 DUP3 MUL PUSH1 0x20 DUP5 ADD ADD MLOAD SWAP1 POP SWAP3 SWAP2 POP POP JUMP JUMPDEST PUSH1 0x0 DUP5 PUSH20 0xFFFFFFFFFFFFFFFFFFFFFFFFFFFFFFFFFFFFFFFF AND EXTCODESIZE GT ISZERO PUSH2 0x2CEE JUMPI DUP4 PUSH20 0xFFFFFFFFFFFFFFFFFFFFFFFFFFFFFFFFFFFFFFFF AND PUSH4 0xF23A6E61 DUP8 DUP8 DUP7 DUP7 DUP7 PUSH1 0x40 MLOAD DUP7 PUSH4 0xFFFFFFFF AND PUSH1 0xE0 SHL DUP2 MSTORE PUSH1 0x4 ADD PUSH2 0x2BA3 SWAP6 SWAP5 SWAP4 SWAP3 SWAP2 SWAP1 PUSH2 0x4BAE JUMP JUMPDEST PUSH1 0x20 PUSH1 0x40 MLOAD DUP1 DUP4 SUB DUP2 PUSH1 0x0 DUP8 GAS CALL SWAP3 POP POP POP DUP1 ISZERO PUSH2 0x2BDF JUMPI POP PUSH1 0x40 MLOAD RETURNDATASIZE PUSH1 0x1F NOT PUSH1 0x1F DUP3 ADD AND DUP3 ADD DUP1 PUSH1 0x40 MSTORE POP DUP2 ADD SWAP1 PUSH2 0x2BDC SWAP2 SWAP1 PUSH2 0x4C1D JUMP JUMPDEST PUSH1 0x1 JUMPDEST PUSH2 0x2C63 JUMPI RETURNDATASIZE DUP1 PUSH1 0x0 DUP2 EQ PUSH2 0x2C0F JUMPI PUSH1 0x40 MLOAD SWAP2 POP PUSH1 0x1F NOT PUSH1 0x3F RETURNDATASIZE ADD AND DUP3 ADD PUSH1 0x40 MSTORE RETURNDATASIZE DUP3 MSTORE RETURNDATASIZE PUSH1 0x0 PUSH1 0x20 DUP5 ADD RETURNDATACOPY PUSH2 0x2C14 JUMP JUMPDEST PUSH1 0x60 SWAP2 POP JUMPDEST POP PUSH1 0x0 DUP2 MLOAD SUB PUSH2 0x2C5B JUMPI DUP5 PUSH1 0x40 MLOAD PUSH32 0x57F447CE00000000000000000000000000000000000000000000000000000000 DUP2 MSTORE PUSH1 0x4 ADD PUSH2 0x2C52 SWAP2 SWAP1 PUSH2 0x49F1 JUMP JUMPDEST PUSH1 0x40 MLOAD DUP1 SWAP2 SUB SWAP1 REVERT JUMPDEST DUP1 MLOAD DUP2 PUSH1 0x20 ADD REVERT JUMPDEST PUSH4 0xF23A6E61 PUSH1 0xE0 SHL PUSH28 0xFFFFFFFFFFFFFFFFFFFFFFFFFFFFFFFFFFFFFFFFFFFFFFFFFFFFFFFF NOT AND DUP2 PUSH28 0xFFFFFFFFFFFFFFFFFFFFFFFFFFFFFFFFFFFFFFFFFFFFFFFFFFFFFFFF NOT AND EQ PUSH2 0x2CEC JUMPI DUP5 PUSH1 0x40 MLOAD PUSH32 0x57F447CE00000000000000000000000000000000000000000000000000000000 DUP2 MSTORE PUSH1 0x4 ADD PUSH2 0x2CE3 SWAP2 SWAP1 PUSH2 0x49F1 JUMP JUMPDEST PUSH1 0x40 MLOAD DUP1 SWAP2 SUB SWAP1 REVERT JUMPDEST POP JUMPDEST POP POP POP POP POP POP JUMP JUMPDEST PUSH1 0x0 DUP5 PUSH20 0xFFFFFFFFFFFFFFFFFFFFFFFFFFFFFFFFFFFFFFFF AND EXTCODESIZE GT ISZERO PUSH2 0x2EA2 JUMPI DUP4 PUSH20 0xFFFFFFFFFFFFFFFFFFFFFFFFFFFFFFFFFFFFFFFF AND PUSH4 0xBC197C81 DUP8 DUP8 DUP7 DUP7 DUP7 PUSH1 0x40 MLOAD DUP7 PUSH4 0xFFFFFFFF AND PUSH1 0xE0 SHL DUP2 MSTORE PUSH1 0x4 ADD PUSH2 0x2D57 SWAP6 SWAP5 SWAP4 SWAP3 SWAP2 SWAP1 PUSH2 0x4C4A JUMP JUMPDEST PUSH1 0x20 PUSH1 0x40 MLOAD DUP1 DUP4 SUB DUP2 PUSH1 0x0 DUP8 GAS CALL SWAP3 POP POP POP DUP1 ISZERO PUSH2 0x2D93 JUMPI POP PUSH1 0x40 MLOAD RETURNDATASIZE PUSH1 0x1F NOT PUSH1 0x1F DUP3 ADD AND DUP3 ADD DUP1 PUSH1 0x40 MSTORE POP DUP2 ADD SWAP1 PUSH2 0x2D90 SWAP2 SWAP1 PUSH2 0x4C1D JUMP JUMPDEST PUSH1 0x1 JUMPDEST PUSH2 0x2E17 JUMPI RETURNDATASIZE DUP1 PUSH1 0x0 DUP2 EQ PUSH2 0x2DC3 JUMPI PUSH1 0x40 MLOAD SWAP2 POP PUSH1 0x1F NOT PUSH1 0x3F RETURNDATASIZE ADD AND DUP3 ADD PUSH1 0x40 MSTORE RETURNDATASIZE DUP3 MSTORE RETURNDATASIZE PUSH1 0x0 PUSH1 0x20 DUP5 ADD RETURNDATACOPY PUSH2 0x2DC8 JUMP JUMPDEST PUSH1 0x60 SWAP2 POP JUMPDEST POP PUSH1 0x0 DUP2 MLOAD SUB PUSH2 0x2E0F JUMPI DUP5 PUSH1 0x40 MLOAD PUSH32 0x57F447CE00000000000000000000000000000000000000000000000000000000 DUP2 MSTORE PUSH1 0x4 ADD PUSH2 0x2E06 SWAP2 SWAP1 PUSH2 0x49F1 JUMP JUMPDEST PUSH1 0x40 MLOAD DUP1 SWAP2 SUB SWAP1 REVERT JUMPDEST DUP1 MLOAD DUP2 PUSH1 0x20 ADD REVERT JUMPDEST PUSH4 0xBC197C81 PUSH1 0xE0 SHL PUSH28 0xFFFFFFFFFFFFFFFFFFFFFFFFFFFFFFFFFFFFFFFFFFFFFFFFFFFFFFFF NOT AND DUP2 PUSH28 0xFFFFFFFFFFFFFFFFFFFFFFFFFFFFFFFFFFFFFFFFFFFFFFFFFFFFFFFF NOT AND EQ PUSH2 0x2EA0 JUMPI DUP5 PUSH1 0x40 MLOAD PUSH32 0x57F447CE00000000000000000000000000000000000000000000000000000000 DUP2 MSTORE PUSH1 0x4 ADD PUSH2 0x2E97 SWAP2 SWAP1 PUSH2 0x49F1 JUMP JUMPDEST PUSH1 0x40 MLOAD DUP1 SWAP2 SUB SWAP1 REVERT JUMPDEST POP JUMPDEST POP POP POP POP POP POP JUMP JUMPDEST PUSH2 0x2EB6 DUP5 DUP5 DUP5 DUP5 PUSH2 0x3041 JUMP JUMPDEST PUSH1 0x0 PUSH20 0xFFFFFFFFFFFFFFFFFFFFFFFFFFFFFFFFFFFFFFFF AND DUP5 PUSH20 0xFFFFFFFFFFFFFFFFFFFFFFFFFFFFFFFFFFFFFFFF AND SUB PUSH2 0x2F86 JUMPI PUSH1 0x0 DUP1 JUMPDEST DUP4 MLOAD DUP2 LT ISZERO PUSH2 0x2F6A JUMPI PUSH1 0x0 PUSH2 0x2F0C DUP3 DUP6 PUSH2 0x2B2E SWAP1 SWAP2 SWAP1 PUSH4 0xFFFFFFFF AND JUMP JUMPDEST SWAP1 POP DUP1 PUSH1 0x5 PUSH1 0x0 PUSH2 0x2F26 DUP6 DUP10 PUSH2 0x2B2E SWAP1 SWAP2 SWAP1 PUSH4 0xFFFFFFFF AND JUMP JUMPDEST DUP2 MSTORE PUSH1 0x20 ADD SWAP1 DUP2 MSTORE PUSH1 0x20 ADD PUSH1 0x0 KECCAK256 PUSH1 0x0 DUP3 DUP3 SLOAD PUSH2 0x2F43 SWAP2 SWAP1 PUSH2 0x4CB2 JUMP JUMPDEST SWAP3 POP POP DUP2 SWAP1 SSTORE POP DUP1 DUP4 PUSH2 0x2F56 SWAP2 SWAP1 PUSH2 0x4CB2 JUMP JUMPDEST SWAP3 POP POP DUP1 PUSH2 0x2F63 SWAP1 PUSH2 0x43FA JUMP JUMPDEST SWAP1 POP PUSH2 0x2EEE JUMP JUMPDEST POP DUP1 PUSH1 0x6 PUSH1 0x0 DUP3 DUP3 SLOAD PUSH2 0x2F7D SWAP2 SWAP1 PUSH2 0x4CB2 JUMP JUMPDEST SWAP3 POP POP DUP2 SWAP1 SSTORE POP POP JUMPDEST PUSH1 0x0 PUSH20 0xFFFFFFFFFFFFFFFFFFFFFFFFFFFFFFFFFFFFFFFF AND DUP4 PUSH20 0xFFFFFFFFFFFFFFFFFFFFFFFFFFFFFFFFFFFFFFFF AND SUB PUSH2 0x303B JUMPI PUSH1 0x0 DUP1 JUMPDEST DUP4 MLOAD DUP2 LT ISZERO PUSH2 0x3028 JUMPI PUSH1 0x0 PUSH2 0x2FDC DUP3 DUP6 PUSH2 0x2B2E SWAP1 SWAP2 SWAP1 PUSH4 0xFFFFFFFF AND JUMP JUMPDEST SWAP1 POP DUP1 PUSH1 0x5 PUSH1 0x0 PUSH2 0x2FF6 DUP6 DUP10 PUSH2 0x2B2E SWAP1 SWAP2 SWAP1 PUSH4 0xFFFFFFFF AND JUMP JUMPDEST DUP2 MSTORE PUSH1 0x20 ADD SWAP1 DUP2 MSTORE PUSH1 0x20 ADD PUSH1 0x0 KECCAK256 PUSH1 0x0 DUP3 DUP3 SLOAD SUB SWAP3 POP POP DUP2 SWAP1 SSTORE POP DUP1 DUP4 ADD SWAP3 POP POP DUP1 PUSH2 0x3021 SWAP1 PUSH2 0x43FA JUMP JUMPDEST SWAP1 POP PUSH2 0x2FBE JUMP JUMPDEST POP DUP1 PUSH1 0x6 PUSH1 0x0 DUP3 DUP3 SLOAD SUB SWAP3 POP POP DUP2 SWAP1 SSTORE POP POP JUMPDEST POP POP POP POP JUMP JUMPDEST PUSH2 0x3049 PUSH2 0x26D4 JUMP JUMPDEST PUSH2 0x3055 DUP5 DUP5 DUP5 DUP5 PUSH2 0x305B JUMP JUMPDEST POP POP POP POP JUMP JUMPDEST DUP1 MLOAD DUP3 MLOAD EQ PUSH2 0x30A5 JUMPI DUP2 MLOAD DUP2 MLOAD PUSH1 0x40 MLOAD PUSH32 0x5B05999100000000000000000000000000000000000000000000000000000000 DUP2 MSTORE PUSH1 0x4 ADD PUSH2 0x309C SWAP3 SWAP2 SWAP1 PUSH2 0x4CE6 JUMP JUMPDEST PUSH1 0x40 MLOAD DUP1 SWAP2 SUB SWAP1 REVERT JUMPDEST PUSH1 0x0 PUSH2 0x30AF PUSH2 0x1BDE JUMP JUMPDEST SWAP1 POP PUSH1 0x0 JUMPDEST DUP4 MLOAD DUP2 LT ISZERO PUSH2 0x32C4 JUMPI PUSH1 0x0 PUSH2 0x30D2 DUP3 DUP7 PUSH2 0x2B2E SWAP1 SWAP2 SWAP1 PUSH4 0xFFFFFFFF AND JUMP JUMPDEST SWAP1 POP PUSH1 0x0 PUSH2 0x30E9 DUP4 DUP7 PUSH2 0x2B2E SWAP1 SWAP2 SWAP1 PUSH4 0xFFFFFFFF AND JUMP JUMPDEST SWAP1 POP PUSH1 0x0 PUSH20 0xFFFFFFFFFFFFFFFFFFFFFFFFFFFFFFFFFFFFFFFF AND DUP9 PUSH20 0xFFFFFFFFFFFFFFFFFFFFFFFFFFFFFFFFFFFFFFFF AND EQ PUSH2 0x3216 JUMPI PUSH1 0x0 DUP1 PUSH1 0x0 DUP5 DUP2 MSTORE PUSH1 0x20 ADD SWAP1 DUP2 MSTORE PUSH1 0x20 ADD PUSH1 0x0 KECCAK256 PUSH1 0x0 DUP11 PUSH20 0xFFFFFFFFFFFFFFFFFFFFFFFFFFFFFFFFFFFFFFFF AND PUSH20 0xFFFFFFFFFFFFFFFFFFFFFFFFFFFFFFFFFFFFFFFF AND DUP2 MSTORE PUSH1 0x20 ADD SWAP1 DUP2 MSTORE PUSH1 0x20 ADD PUSH1 0x0 KECCAK256 SLOAD SWAP1 POP DUP2 DUP2 LT ISZERO PUSH2 0x31BE JUMPI DUP9 DUP2 DUP4 DUP6 PUSH1 0x40 MLOAD PUSH32 0x3DEE4C500000000000000000000000000000000000000000000000000000000 DUP2 MSTORE PUSH1 0x4 ADD PUSH2 0x31B5 SWAP5 SWAP4 SWAP3 SWAP2 SWAP1 PUSH2 0x4D0F JUMP JUMPDEST PUSH1 0x40 MLOAD DUP1 SWAP2 SUB SWAP1 REVERT JUMPDEST DUP2 DUP2 SUB PUSH1 0x0 DUP1 DUP6 DUP2 MSTORE PUSH1 0x20 ADD SWAP1 DUP2 MSTORE PUSH1 0x20 ADD PUSH1 0x0 KECCAK256 PUSH1 0x0 DUP12 PUSH20 0xFFFFFFFFFFFFFFFFFFFFFFFFFFFFFFFFFFFFFFFF AND PUSH20 0xFFFFFFFFFFFFFFFFFFFFFFFFFFFFFFFFFFFFFFFF AND DUP2 MSTORE PUSH1 0x20 ADD SWAP1 DUP2 MSTORE PUSH1 0x20 ADD PUSH1 0x0 KECCAK256 DUP2 SWAP1 SSTORE POP POP JUMPDEST PUSH1 0x0 PUSH20 0xFFFFFFFFFFFFFFFFFFFFFFFFFFFFFFFFFFFFFFFF AND DUP8 PUSH20 0xFFFFFFFFFFFFFFFFFFFFFFFFFFFFFFFFFFFFFFFF AND EQ PUSH2 0x32B1 JUMPI DUP1 PUSH1 0x0 DUP1 DUP5 DUP2 MSTORE PUSH1 0x20 ADD SWAP1 DUP2 MSTORE PUSH1 0x20 ADD PUSH1 0x0 KECCAK256 PUSH1 0x0 DUP10 PUSH20 0xFFFFFFFFFFFFFFFFFFFFFFFFFFFFFFFFFFFFFFFF AND PUSH20 0xFFFFFFFFFFFFFFFFFFFFFFFFFFFFFFFFFFFFFFFF AND DUP2 MSTORE PUSH1 0x20 ADD SWAP1 DUP2 MSTORE PUSH1 0x20 ADD PUSH1 0x0 KECCAK256 PUSH1 0x0 DUP3 DUP3 SLOAD PUSH2 0x32A9 SWAP2 SWAP1 PUSH2 0x4CB2 JUMP JUMPDEST SWAP3 POP POP DUP2 SWAP1 SSTORE POP JUMPDEST POP POP DUP1 PUSH2 0x32BD SWAP1 PUSH2 0x43FA JUMP JUMPDEST SWAP1 POP PUSH2 0x30B4 JUMP JUMPDEST POP PUSH1 0x1 DUP4 MLOAD SUB PUSH2 0x3383 JUMPI PUSH1 0x0 PUSH2 0x32E4 PUSH1 0x0 DUP6 PUSH2 0x2B2E SWAP1 SWAP2 SWAP1 PUSH4 0xFFFFFFFF AND JUMP JUMPDEST SWAP1 POP PUSH1 0x0 PUSH2 0x32FC PUSH1 0x0 DUP6 PUSH2 0x2B2E SWAP1 SWAP2 SWAP1 PUSH4 0xFFFFFFFF AND JUMP JUMPDEST SWAP1 POP DUP6 PUSH20 0xFFFFFFFFFFFFFFFFFFFFFFFFFFFFFFFFFFFFFFFF AND DUP8 PUSH20 0xFFFFFFFFFFFFFFFFFFFFFFFFFFFFFFFFFFFFFFFF AND DUP5 PUSH20 0xFFFFFFFFFFFFFFFFFFFFFFFFFFFFFFFFFFFFFFFF AND PUSH32 0xC3D58168C5AE7397731D063D5BBF3D657854427343F4C083240F7AACAA2D0F62 DUP6 DUP6 PUSH1 0x40 MLOAD PUSH2 0x3374 SWAP3 SWAP2 SWAP1 PUSH2 0x4CE6 JUMP JUMPDEST PUSH1 0x40 MLOAD DUP1 SWAP2 SUB SWAP1 LOG4 POP POP PUSH2 0x3402 JUMP JUMPDEST DUP4 PUSH20 0xFFFFFFFFFFFFFFFFFFFFFFFFFFFFFFFFFFFFFFFF AND DUP6 PUSH20 0xFFFFFFFFFFFFFFFFFFFFFFFFFFFFFFFFFFFFFFFF AND DUP3 PUSH20 0xFFFFFFFFFFFFFFFFFFFFFFFFFFFFFFFFFFFFFFFF AND PUSH32 0x4A39DC06D4C0DBC64B70AF90FD698A233A518AA5D07E595D983B8C0526C8F7FB DUP7 DUP7 PUSH1 0x40 MLOAD PUSH2 0x33F9 SWAP3 SWAP2 SWAP1 PUSH2 0x4D54 JUMP JUMPDEST PUSH1 0x40 MLOAD DUP1 SWAP2 SUB SWAP1 LOG4 JUMPDEST POP POP POP POP POP JUMP JUMPDEST PUSH1 0x0 PUSH1 0x40 MLOAD SWAP1 POP SWAP1 JUMP JUMPDEST PUSH1 0x0 DUP1 REVERT JUMPDEST PUSH1 0x0 DUP1 REVERT JUMPDEST PUSH1 0x0 PUSH20 0xFFFFFFFFFFFFFFFFFFFFFFFFFFFFFFFFFFFFFFFF DUP3 AND SWAP1 POP SWAP2 SWAP1 POP JUMP JUMPDEST PUSH1 0x0 PUSH2 0x3448 DUP3 PUSH2 0x341D JUMP JUMPDEST SWAP1 POP SWAP2 SWAP1 POP JUMP JUMPDEST PUSH2 0x3458 DUP2 PUSH2 0x343D JUMP JUMPDEST DUP2 EQ PUSH2 0x3463 JUMPI PUSH1 0x0 DUP1 REVERT JUMPDEST POP JUMP JUMPDEST PUSH1 0x0 DUP2 CALLDATALOAD SWAP1 POP PUSH2 0x3475 DUP2 PUSH2 0x344F JUMP JUMPDEST SWAP3 SWAP2 POP POP JUMP JUMPDEST PUSH1 0x0 DUP2 SWAP1 POP SWAP2 SWAP1 POP JUMP JUMPDEST PUSH2 0x348E DUP2 PUSH2 0x347B JUMP JUMPDEST DUP2 EQ PUSH2 0x3499 JUMPI PUSH1 0x0 DUP1 REVERT JUMPDEST POP JUMP JUMPDEST PUSH1 0x0 DUP2 CALLDATALOAD SWAP1 POP PUSH2 0x34AB DUP2 PUSH2 0x3485 JUMP JUMPDEST SWAP3 SWAP2 POP POP JUMP JUMPDEST PUSH1 0x0 DUP1 PUSH1 0x40 DUP4 DUP6 SUB SLT ISZERO PUSH2 0x34C8 JUMPI PUSH2 0x34C7 PUSH2 0x3413 JUMP JUMPDEST JUMPDEST PUSH1 0x0 PUSH2 0x34D6 DUP6 DUP3 DUP7 ADD PUSH2 0x3466 JUMP JUMPDEST SWAP3 POP POP PUSH1 0x20 PUSH2 0x34E7 DUP6 DUP3 DUP7 ADD PUSH2 0x349C JUMP JUMPDEST SWAP2 POP POP SWAP3 POP SWAP3 SWAP1 POP JUMP JUMPDEST PUSH2 0x34FA DUP2 PUSH2 0x347B JUMP JUMPDEST DUP3 MSTORE POP POP JUMP JUMPDEST PUSH1 0x0 PUSH1 0x20 DUP3 ADD SWAP1 POP PUSH2 0x3515 PUSH1 0x0 DUP4 ADD DUP5 PUSH2 0x34F1 JUMP JUMPDEST SWAP3 SWAP2 POP POP JUMP JUMPDEST PUSH1 0x0 PUSH32 0xFFFFFFFF00000000000000000000000000000000000000000000000000000000 DUP3 AND SWAP1 POP SWAP2 SWAP1 POP JUMP JUMPDEST PUSH2 0x3550 DUP2 PUSH2 0x351B JUMP JUMPDEST DUP2 EQ PUSH2 0x355B JUMPI PUSH1 0x0 DUP1 REVERT JUMPDEST POP JUMP JUMPDEST PUSH1 0x0 DUP2 CALLDATALOAD SWAP1 POP PUSH2 0x356D DUP2 PUSH2 0x3547 JUMP JUMPDEST SWAP3 SWAP2 POP POP JUMP JUMPDEST PUSH1 0x0 PUSH1 0x20 DUP3 DUP5 SUB SLT ISZERO PUSH2 0x3589 JUMPI PUSH2 0x3588 PUSH2 0x3413 JUMP JUMPDEST JUMPDEST PUSH1 0x0 PUSH2 0x3597 DUP5 DUP3 DUP6 ADD PUSH2 0x355E JUMP JUMPDEST SWAP2 POP POP SWAP3 SWAP2 POP POP JUMP JUMPDEST PUSH1 0x0 DUP2 ISZERO ISZERO SWAP1 POP SWAP2 SWAP1 POP JUMP JUMPDEST PUSH2 0x35B5 DUP2 PUSH2 0x35A0 JUMP JUMPDEST DUP3 MSTORE POP POP JUMP JUMPDEST PUSH1 0x0 PUSH1 0x20 DUP3 ADD SWAP1 POP PUSH2 0x35D0 PUSH1 0x0 DUP4 ADD DUP5 PUSH2 0x35AC JUMP JUMPDEST SWAP3 SWAP2 POP POP JUMP JUMPDEST PUSH1 0x0 DUP1 REVERT JUMPDEST PUSH1 0x0 DUP1 REVERT JUMPDEST PUSH1 0x0 PUSH1 0x1F NOT PUSH1 0x1F DUP4 ADD AND SWAP1 POP SWAP2 SWAP1 POP JUMP JUMPDEST PUSH32 0x4E487B7100000000000000000000000000000000000000000000000000000000 PUSH1 0x0 MSTORE PUSH1 0x41 PUSH1 0x4 MSTORE PUSH1 0x24 PUSH1 0x0 REVERT JUMPDEST PUSH2 0x3629 DUP3 PUSH2 0x35E0 JUMP JUMPDEST DUP2 ADD DUP2 DUP2 LT PUSH8 0xFFFFFFFFFFFFFFFF DUP3 GT OR ISZERO PUSH2 0x3648 JUMPI PUSH2 0x3647 PUSH2 0x35F1 JUMP JUMPDEST JUMPDEST DUP1 PUSH1 0x40 MSTORE POP POP POP JUMP JUMPDEST PUSH1 0x0 PUSH2 0x365B PUSH2 0x3409 JUMP JUMPDEST SWAP1 POP PUSH2 0x3667 DUP3 DUP3 PUSH2 0x3620 JUMP JUMPDEST SWAP2 SWAP1 POP JUMP JUMPDEST PUSH1 0x0 PUSH8 0xFFFFFFFFFFFFFFFF DUP3 GT ISZERO PUSH2 0x3687 JUMPI PUSH2 0x3686 PUSH2 0x35F1 JUMP JUMPDEST JUMPDEST PUSH2 0x3690 DUP3 PUSH2 0x35E0 JUMP JUMPDEST SWAP1 POP PUSH1 0x20 DUP2 ADD SWAP1 POP SWAP2 SWAP1 POP JUMP JUMPDEST DUP3 DUP2 DUP4 CALLDATACOPY PUSH1 0x0 DUP4 DUP4 ADD MSTORE POP POP POP JUMP JUMPDEST PUSH1 0x0 PUSH2 0x36BF PUSH2 0x36BA DUP5 PUSH2 0x366C JUMP JUMPDEST PUSH2 0x3651 JUMP JUMPDEST SWAP1 POP DUP3 DUP2 MSTORE PUSH1 0x20 DUP2 ADD DUP5 DUP5 DUP5 ADD GT ISZERO PUSH2 0x36DB JUMPI PUSH2 0x36DA PUSH2 0x35DB JUMP JUMPDEST JUMPDEST PUSH2 0x36E6 DUP5 DUP3 DUP6 PUSH2 0x369D JUMP JUMPDEST POP SWAP4 SWAP3 POP POP POP JUMP JUMPDEST PUSH1 0x0 DUP3 PUSH1 0x1F DUP4 ADD SLT PUSH2 0x3703 JUMPI PUSH2 0x3702 PUSH2 0x35D6 JUMP JUMPDEST JUMPDEST DUP2 CALLDATALOAD PUSH2 0x3713 DUP5 DUP3 PUSH1 0x20 DUP7 ADD PUSH2 0x36AC JUMP JUMPDEST SWAP2 POP POP SWAP3 SWAP2 POP POP JUMP JUMPDEST PUSH1 0x0 PUSH1 0x20 DUP3 DUP5 SUB SLT ISZERO PUSH2 0x3732 JUMPI PUSH2 0x3731 PUSH2 0x3413 JUMP JUMPDEST JUMPDEST PUSH1 0x0 DUP3 ADD CALLDATALOAD PUSH8 0xFFFFFFFFFFFFFFFF DUP2 GT ISZERO PUSH2 0x3750 JUMPI PUSH2 0x374F PUSH2 0x3418 JUMP JUMPDEST JUMPDEST PUSH2 0x375C DUP5 DUP3 DUP6 ADD PUSH2 0x36EE JUMP JUMPDEST SWAP2 POP POP SWAP3 SWAP2 POP POP JUMP JUMPDEST PUSH1 0x0 PUSH8 0xFFFFFFFFFFFFFFFF DUP3 GT ISZERO PUSH2 0x3780 JUMPI PUSH2 0x377F PUSH2 0x35F1 JUMP JUMPDEST JUMPDEST PUSH1 0x20 DUP3 MUL SWAP1 POP PUSH1 0x20 DUP2 ADD SWAP1 POP SWAP2 SWAP1 POP JUMP JUMPDEST PUSH1 0x0 DUP1 REVERT JUMPDEST PUSH1 0x0 DUP2 SWAP1 POP SWAP2 SWAP1 POP JUMP JUMPDEST PUSH2 0x37A9 DUP2 PUSH2 0x3796 JUMP JUMPDEST DUP2 EQ PUSH2 0x37B4 JUMPI PUSH1 0x0 DUP1 REVERT JUMPDEST POP JUMP JUMPDEST PUSH1 0x0 DUP2 CALLDATALOAD SWAP1 POP PUSH2 0x37C6 DUP2 PUSH2 0x37A0 JUMP JUMPDEST SWAP3 SWAP2 POP POP JUMP JUMPDEST PUSH1 0x0 PUSH2 0x37DF PUSH2 0x37DA DUP5 PUSH2 0x3765 JUMP JUMPDEST PUSH2 0x3651 JUMP JUMPDEST SWAP1 POP DUP1 DUP4 DUP3 MSTORE PUSH1 0x20 DUP3 ADD SWAP1 POP PUSH1 0x20 DUP5 MUL DUP4 ADD DUP6 DUP2 GT ISZERO PUSH2 0x3802 JUMPI PUSH2 0x3801 PUSH2 0x3791 JUMP JUMPDEST JUMPDEST DUP4 JUMPDEST DUP2 DUP2 LT ISZERO PUSH2 0x382B JUMPI DUP1 PUSH2 0x3817 DUP9 DUP3 PUSH2 0x37B7 JUMP JUMPDEST DUP5 MSTORE PUSH1 0x20 DUP5 ADD SWAP4 POP POP PUSH1 0x20 DUP2 ADD SWAP1 POP PUSH2 0x3804 JUMP JUMPDEST POP POP POP SWAP4 SWAP3 POP POP POP JUMP JUMPDEST PUSH1 0x0 DUP3 PUSH1 0x1F DUP4 ADD SLT PUSH2 0x384A JUMPI PUSH2 0x3849 PUSH2 0x35D6 JUMP JUMPDEST JUMPDEST DUP2 CALLDATALOAD PUSH2 0x385A DUP5 DUP3 PUSH1 0x20 DUP7 ADD PUSH2 0x37CC JUMP JUMPDEST SWAP2 POP POP SWAP3 SWAP2 POP POP JUMP JUMPDEST PUSH1 0x0 PUSH1 0x20 DUP3 DUP5 SUB SLT ISZERO PUSH2 0x3879 JUMPI PUSH2 0x3878 PUSH2 0x3413 JUMP JUMPDEST JUMPDEST PUSH1 0x0 DUP3 ADD CALLDATALOAD PUSH8 0xFFFFFFFFFFFFFFFF DUP2 GT ISZERO PUSH2 0x3897 JUMPI PUSH2 0x3896 PUSH2 0x3418 JUMP JUMPDEST JUMPDEST PUSH2 0x38A3 DUP5 DUP3 DUP6 ADD PUSH2 0x3835 JUMP JUMPDEST SWAP2 POP POP SWAP3 SWAP2 POP POP JUMP JUMPDEST PUSH1 0x0 PUSH1 0x20 DUP3 DUP5 SUB SLT ISZERO PUSH2 0x38C2 JUMPI PUSH2 0x38C1 PUSH2 0x3413 JUMP JUMPDEST JUMPDEST PUSH1 0x0 PUSH2 0x38D0 DUP5 DUP3 DUP6 ADD PUSH2 0x349C JUMP JUMPDEST SWAP2 POP POP SWAP3 SWAP2 POP POP JUMP JUMPDEST PUSH1 0x0 DUP2 MLOAD SWAP1 POP SWAP2 SWAP1 POP JUMP JUMPDEST PUSH1 0x0 DUP3 DUP3 MSTORE PUSH1 0x20 DUP3 ADD SWAP1 POP SWAP3 SWAP2 POP POP JUMP JUMPDEST PUSH1 0x0 JUMPDEST DUP4 DUP2 LT ISZERO PUSH2 0x3913 JUMPI DUP1 DUP3 ADD MLOAD DUP2 DUP5 ADD MSTORE PUSH1 0x20 DUP2 ADD SWAP1 POP PUSH2 0x38F8 JUMP JUMPDEST PUSH1 0x0 DUP5 DUP5 ADD MSTORE POP POP POP POP JUMP JUMPDEST PUSH1 0x0 PUSH2 0x392A DUP3 PUSH2 0x38D9 JUMP JUMPDEST PUSH2 0x3934 DUP2 DUP6 PUSH2 0x38E4 JUMP JUMPDEST SWAP4 POP PUSH2 0x3944 DUP2 DUP6 PUSH1 0x20 DUP7 ADD PUSH2 0x38F5 JUMP JUMPDEST PUSH2 0x394D DUP2 PUSH2 0x35E0 JUMP JUMPDEST DUP5 ADD SWAP2 POP POP SWAP3 SWAP2 POP POP JUMP JUMPDEST PUSH1 0x0 PUSH1 0x20 DUP3 ADD SWAP1 POP DUP2 DUP2 SUB PUSH1 0x0 DUP4 ADD MSTORE PUSH2 0x3972 DUP2 DUP5 PUSH2 0x391F JUMP JUMPDEST SWAP1 POP SWAP3 SWAP2 POP POP JUMP JUMPDEST PUSH1 0x0 DUP1 PUSH1 0x40 DUP4 DUP6 SUB SLT ISZERO PUSH2 0x3991 JUMPI PUSH2 0x3990 PUSH2 0x3413 JUMP JUMPDEST JUMPDEST PUSH1 0x0 PUSH2 0x399F DUP6 DUP3 DUP7 ADD PUSH2 0x349C JUMP JUMPDEST SWAP3 POP POP PUSH1 0x20 DUP4 ADD CALLDATALOAD PUSH8 0xFFFFFFFFFFFFFFFF DUP2 GT ISZERO PUSH2 0x39C0 JUMPI PUSH2 0x39BF PUSH2 0x3418 JUMP JUMPDEST JUMPDEST PUSH2 0x39CC DUP6 DUP3 DUP7 ADD PUSH2 0x36EE JUMP JUMPDEST SWAP2 POP POP SWAP3 POP SWAP3 SWAP1 POP JUMP JUMPDEST PUSH1 0x0 DUP1 PUSH1 0x0 PUSH1 0x60 DUP5 DUP7 SUB SLT ISZERO PUSH2 0x39EF JUMPI PUSH2 0x39EE PUSH2 0x3413 JUMP JUMPDEST JUMPDEST PUSH1 0x0 PUSH2 0x39FD DUP7 DUP3 DUP8 ADD PUSH2 0x3466 JUMP JUMPDEST SWAP4 POP POP PUSH1 0x20 PUSH2 0x3A0E DUP7 DUP3 DUP8 ADD PUSH2 0x349C JUMP JUMPDEST SWAP3 POP POP PUSH1 0x40 PUSH2 0x3A1F DUP7 DUP3 DUP8 ADD PUSH2 0x349C JUMP JUMPDEST SWAP2 POP POP SWAP3 POP SWAP3 POP SWAP3 JUMP JUMPDEST PUSH1 0x0 PUSH8 0xFFFFFFFFFFFFFFFF DUP3 GT ISZERO PUSH2 0x3A44 JUMPI PUSH2 0x3A43 PUSH2 0x35F1 JUMP JUMPDEST JUMPDEST PUSH1 0x20 DUP3 MUL SWAP1 POP PUSH1 0x20 DUP2 ADD SWAP1 POP SWAP2 SWAP1 POP JUMP JUMPDEST PUSH1 0x0 PUSH2 0x3A68 PUSH2 0x3A63 DUP5 PUSH2 0x3A29 JUMP JUMPDEST PUSH2 0x3651 JUMP JUMPDEST SWAP1 POP DUP1 DUP4 DUP3 MSTORE PUSH1 0x20 DUP3 ADD SWAP1 POP PUSH1 0x20 DUP5 MUL DUP4 ADD DUP6 DUP2 GT ISZERO PUSH2 0x3A8B JUMPI PUSH2 0x3A8A PUSH2 0x3791 JUMP JUMPDEST JUMPDEST DUP4 JUMPDEST DUP2 DUP2 LT ISZERO PUSH2 0x3AB4 JUMPI DUP1 PUSH2 0x3AA0 DUP9 DUP3 PUSH2 0x349C JUMP JUMPDEST DUP5 MSTORE PUSH1 0x20 DUP5 ADD SWAP4 POP POP PUSH1 0x20 DUP2 ADD SWAP1 POP PUSH2 0x3A8D JUMP JUMPDEST POP POP POP SWAP4 SWAP3 POP POP POP JUMP JUMPDEST PUSH1 0x0 DUP3 PUSH1 0x1F DUP4 ADD SLT PUSH2 0x3AD3 JUMPI PUSH2 0x3AD2 PUSH2 0x35D6 JUMP JUMPDEST JUMPDEST DUP2 CALLDATALOAD PUSH2 0x3AE3 DUP5 DUP3 PUSH1 0x20 DUP7 ADD PUSH2 0x3A55 JUMP JUMPDEST SWAP2 POP POP SWAP3 SWAP2 POP POP JUMP JUMPDEST PUSH1 0x0 PUSH8 0xFFFFFFFFFFFFFFFF DUP3 GT ISZERO PUSH2 0x3B07 JUMPI PUSH2 0x3B06 PUSH2 0x35F1 JUMP JUMPDEST JUMPDEST PUSH2 0x3B10 DUP3 PUSH2 0x35E0 JUMP JUMPDEST SWAP1 POP PUSH1 0x20 DUP2 ADD SWAP1 POP SWAP2 SWAP1 POP JUMP JUMPDEST PUSH1 0x0 PUSH2 0x3B30 PUSH2 0x3B2B DUP5 PUSH2 0x3AEC JUMP JUMPDEST PUSH2 0x3651 JUMP JUMPDEST SWAP1 POP DUP3 DUP2 MSTORE PUSH1 0x20 DUP2 ADD DUP5 DUP5 DUP5 ADD GT ISZERO PUSH2 0x3B4C JUMPI PUSH2 0x3B4B PUSH2 0x35DB JUMP JUMPDEST JUMPDEST PUSH2 0x3B57 DUP5 DUP3 DUP6 PUSH2 0x369D JUMP JUMPDEST POP SWAP4 SWAP3 POP POP POP JUMP JUMPDEST PUSH1 0x0 DUP3 PUSH1 0x1F DUP4 ADD SLT PUSH2 0x3B74 JUMPI PUSH2 0x3B73 PUSH2 0x35D6 JUMP JUMPDEST JUMPDEST DUP2 CALLDATALOAD PUSH2 0x3B84 DUP5 DUP3 PUSH1 0x20 DUP7 ADD PUSH2 0x3B1D JUMP JUMPDEST SWAP2 POP POP SWAP3 SWAP2 POP POP JUMP JUMPDEST PUSH1 0x0 DUP1 PUSH1 0x0 DUP1 PUSH1 0x80 DUP6 DUP8 SUB SLT ISZERO PUSH2 0x3BA7 JUMPI PUSH2 0x3BA6 PUSH2 0x3413 JUMP JUMPDEST JUMPDEST PUSH1 0x0 PUSH2 0x3BB5 DUP8 DUP3 DUP9 ADD PUSH2 0x3466 JUMP JUMPDEST SWAP5 POP POP PUSH1 0x20 DUP6 ADD CALLDATALOAD PUSH8 0xFFFFFFFFFFFFFFFF DUP2 GT ISZERO PUSH2 0x3BD6 JUMPI PUSH2 0x3BD5 PUSH2 0x3418 JUMP JUMPDEST JUMPDEST PUSH2 0x3BE2 DUP8 DUP3 DUP9 ADD PUSH2 0x3ABE JUMP JUMPDEST SWAP4 POP POP PUSH1 0x40 DUP6 ADD CALLDATALOAD PUSH8 0xFFFFFFFFFFFFFFFF DUP2 GT ISZERO PUSH2 0x3C03 JUMPI PUSH2 0x3C02 PUSH2 0x3418 JUMP JUMPDEST JUMPDEST PUSH2 0x3C0F DUP8 DUP3 DUP9 ADD PUSH2 0x3ABE JUMP JUMPDEST SWAP3 POP POP PUSH1 0x60 DUP6 ADD CALLDATALOAD PUSH8 0xFFFFFFFFFFFFFFFF DUP2 GT ISZERO PUSH2 0x3C30 JUMPI PUSH2 0x3C2F PUSH2 0x3418 JUMP JUMPDEST JUMPDEST PUSH2 0x3C3C DUP8 DUP3 DUP9 ADD PUSH2 0x3B5F JUMP JUMPDEST SWAP2 POP POP SWAP3 SWAP6 SWAP2 SWAP5 POP SWAP3 POP JUMP JUMPDEST PUSH1 0x0 PUSH1 0x20 DUP3 DUP5 SUB SLT ISZERO PUSH2 0x3C5E JUMPI PUSH2 0x3C5D PUSH2 0x3413 JUMP JUMPDEST JUMPDEST PUSH1 0x0 PUSH2 0x3C6C DUP5 DUP3 DUP6 ADD PUSH2 0x37B7 JUMP JUMPDEST SWAP2 POP POP SWAP3 SWAP2 POP POP JUMP JUMPDEST PUSH2 0x3C7E DUP2 PUSH2 0x3796 JUMP JUMPDEST DUP3 MSTORE POP POP JUMP JUMPDEST PUSH1 0x0 PUSH1 0x20 DUP3 ADD SWAP1 POP PUSH2 0x3C99 PUSH1 0x0 DUP4 ADD DUP5 PUSH2 0x3C75 JUMP JUMPDEST SWAP3 SWAP2 POP POP JUMP JUMPDEST PUSH1 0x0 DUP1 PUSH1 0x0 DUP1 PUSH1 0x0 PUSH1 0xA0 DUP7 DUP9 SUB SLT ISZERO PUSH2 0x3CBB JUMPI PUSH2 0x3CBA PUSH2 0x3413 JUMP JUMPDEST JUMPDEST PUSH1 0x0 PUSH2 0x3CC9 DUP9 DUP3 DUP10 ADD PUSH2 0x3466 JUMP JUMPDEST SWAP6 POP POP PUSH1 0x20 PUSH2 0x3CDA DUP9 DUP3 DUP10 ADD PUSH2 0x3466 JUMP JUMPDEST SWAP5 POP POP PUSH1 0x40 DUP7 ADD CALLDATALOAD PUSH8 0xFFFFFFFFFFFFFFFF DUP2 GT ISZERO PUSH2 0x3CFB JUMPI PUSH2 0x3CFA PUSH2 0x3418 JUMP JUMPDEST JUMPDEST PUSH2 0x3D07 DUP9 DUP3 DUP10 ADD PUSH2 0x3ABE JUMP JUMPDEST SWAP4 POP POP PUSH1 0x60 DUP7 ADD CALLDATALOAD PUSH8 0xFFFFFFFFFFFFFFFF DUP2 GT ISZERO PUSH2 0x3D28 JUMPI PUSH2 0x3D27 PUSH2 0x3418 JUMP JUMPDEST JUMPDEST PUSH2 0x3D34 DUP9 DUP3 DUP10 ADD PUSH2 0x3ABE JUMP JUMPDEST SWAP3 POP POP PUSH1 0x80 DUP7 ADD CALLDATALOAD PUSH8 0xFFFFFFFFFFFFFFFF DUP2 GT ISZERO PUSH2 0x3D55 JUMPI PUSH2 0x3D54 PUSH2 0x3418 JUMP JUMPDEST JUMPDEST PUSH2 0x3D61 DUP9 DUP3 DUP10 ADD PUSH2 0x3B5F JUMP JUMPDEST SWAP2 POP POP SWAP3 SWAP6 POP SWAP3 SWAP6 SWAP1 SWAP4 POP JUMP JUMPDEST PUSH1 0x0 DUP1 PUSH1 0x40 DUP4 DUP6 SUB SLT ISZERO PUSH2 0x3D85 JUMPI PUSH2 0x3D84 PUSH2 0x3413 JUMP JUMPDEST JUMPDEST PUSH1 0x0 PUSH2 0x3D93 DUP6 DUP3 DUP7 ADD PUSH2 0x37B7 JUMP JUMPDEST SWAP3 POP POP PUSH1 0x20 PUSH2 0x3DA4 DUP6 DUP3 DUP7 ADD PUSH2 0x3466 JUMP JUMPDEST SWAP2 POP POP SWAP3 POP SWAP3 SWAP1 POP JUMP JUMPDEST PUSH1 0x0 PUSH8 0xFFFFFFFFFFFFFFFF DUP3 GT ISZERO PUSH2 0x3DC9 JUMPI PUSH2 0x3DC8 PUSH2 0x35F1 JUMP JUMPDEST JUMPDEST PUSH1 0x20 DUP3 MUL SWAP1 POP PUSH1 0x20 DUP2 ADD SWAP1 POP SWAP2 SWAP1 POP JUMP JUMPDEST PUSH1 0x0 PUSH2 0x3DED PUSH2 0x3DE8 DUP5 PUSH2 0x3DAE JUMP JUMPDEST PUSH2 0x3651 JUMP JUMPDEST SWAP1 POP DUP1 DUP4 DUP3 MSTORE PUSH1 0x20 DUP3 ADD SWAP1 POP PUSH1 0x20 DUP5 MUL DUP4 ADD DUP6 DUP2 GT ISZERO PUSH2 0x3E10 JUMPI PUSH2 0x3E0F PUSH2 0x3791 JUMP JUMPDEST JUMPDEST DUP4 JUMPDEST DUP2 DUP2 LT ISZERO PUSH2 0x3E39 JUMPI DUP1 PUSH2 0x3E25 DUP9 DUP3 PUSH2 0x3466 JUMP JUMPDEST DUP5 MSTORE PUSH1 0x20 DUP5 ADD SWAP4 POP POP PUSH1 0x20 DUP2 ADD SWAP1 POP PUSH2 0x3E12 JUMP JUMPDEST POP POP POP SWAP4 SWAP3 POP POP POP JUMP JUMPDEST PUSH1 0x0 DUP3 PUSH1 0x1F DUP4 ADD SLT PUSH2 0x3E58 JUMPI PUSH2 0x3E57 PUSH2 0x35D6 JUMP JUMPDEST JUMPDEST DUP2 CALLDATALOAD PUSH2 0x3E68 DUP5 DUP3 PUSH1 0x20 DUP7 ADD PUSH2 0x3DDA JUMP JUMPDEST SWAP2 POP POP SWAP3 SWAP2 POP POP JUMP JUMPDEST PUSH1 0x0 DUP1 PUSH1 0x40 DUP4 DUP6 SUB SLT ISZERO PUSH2 0x3E88 JUMPI PUSH2 0x3E87 PUSH2 0x3413 JUMP JUMPDEST JUMPDEST PUSH1 0x0 DUP4 ADD CALLDATALOAD PUSH8 0xFFFFFFFFFFFFFFFF DUP2 GT ISZERO PUSH2 0x3EA6 JUMPI PUSH2 0x3EA5 PUSH2 0x3418 JUMP JUMPDEST JUMPDEST PUSH2 0x3EB2 DUP6 DUP3 DUP7 ADD PUSH2 0x3E43 JUMP JUMPDEST SWAP3 POP POP PUSH1 0x20 DUP4 ADD CALLDATALOAD PUSH8 0xFFFFFFFFFFFFFFFF DUP2 GT ISZERO PUSH2 0x3ED3 JUMPI PUSH2 0x3ED2 PUSH2 0x3418 JUMP JUMPDEST JUMPDEST PUSH2 0x3EDF DUP6 DUP3 DUP7 ADD PUSH2 0x3ABE JUMP JUMPDEST SWAP2 POP POP SWAP3 POP SWAP3 SWAP1 POP JUMP JUMPDEST PUSH1 0x0 DUP2 MLOAD SWAP1 POP SWAP2 SWAP1 POP JUMP JUMPDEST PUSH1 0x0 DUP3 DUP3 MSTORE PUSH1 0x20 DUP3 ADD SWAP1 POP SWAP3 SWAP2 POP POP JUMP JUMPDEST PUSH1 0x0 DUP2 SWAP1 POP PUSH1 0x20 DUP3 ADD SWAP1 POP SWAP2 SWAP1 POP JUMP JUMPDEST PUSH2 0x3F1E DUP2 PUSH2 0x347B JUMP JUMPDEST DUP3 MSTORE POP POP JUMP JUMPDEST PUSH1 0x0 PUSH2 0x3F30 DUP4 DUP4 PUSH2 0x3F15 JUMP JUMPDEST PUSH1 0x20 DUP4 ADD SWAP1 POP SWAP3 SWAP2 POP POP JUMP JUMPDEST PUSH1 0x0 PUSH1 0x20 DUP3 ADD SWAP1 POP SWAP2 SWAP1 POP JUMP JUMPDEST PUSH1 0x0 PUSH2 0x3F54 DUP3 PUSH2 0x3EE9 JUMP JUMPDEST PUSH2 0x3F5E DUP2 DUP6 PUSH2 0x3EF4 JUMP JUMPDEST SWAP4 POP PUSH2 0x3F69 DUP4 PUSH2 0x3F05 JUMP JUMPDEST DUP1 PUSH1 0x0 JUMPDEST DUP4 DUP2 LT ISZERO PUSH2 0x3F9A JUMPI DUP2 MLOAD PUSH2 0x3F81 DUP9 DUP3 PUSH2 0x3F24 JUMP JUMPDEST SWAP8 POP PUSH2 0x3F8C DUP4 PUSH2 0x3F3C JUMP JUMPDEST SWAP3 POP POP PUSH1 0x1 DUP2 ADD SWAP1 POP PUSH2 0x3F6D JUMP JUMPDEST POP DUP6 SWAP4 POP POP POP POP SWAP3 SWAP2 POP POP JUMP JUMPDEST PUSH1 0x0 PUSH1 0x20 DUP3 ADD SWAP1 POP DUP2 DUP2 SUB PUSH1 0x0 DUP4 ADD MSTORE PUSH2 0x3FC1 DUP2 DUP5 PUSH2 0x3F49 JUMP JUMPDEST SWAP1 POP SWAP3 SWAP2 POP POP JUMP JUMPDEST PUSH1 0x0 DUP1 PUSH1 0x0 PUSH1 0x60 DUP5 DUP7 SUB SLT ISZERO PUSH2 0x3FE2 JUMPI PUSH2 0x3FE1 PUSH2 0x3413 JUMP JUMPDEST JUMPDEST PUSH1 0x0 PUSH2 0x3FF0 DUP7 DUP3 DUP8 ADD PUSH2 0x3466 JUMP JUMPDEST SWAP4 POP POP PUSH1 0x20 DUP5 ADD CALLDATALOAD PUSH8 0xFFFFFFFFFFFFFFFF DUP2 GT ISZERO PUSH2 0x4011 JUMPI PUSH2 0x4010 PUSH2 0x3418 JUMP JUMPDEST JUMPDEST PUSH2 0x401D DUP7 DUP3 DUP8 ADD PUSH2 0x3ABE JUMP JUMPDEST SWAP3 POP POP PUSH1 0x40 DUP5 ADD CALLDATALOAD PUSH8 0xFFFFFFFFFFFFFFFF DUP2 GT ISZERO PUSH2 0x403E JUMPI PUSH2 0x403D PUSH2 0x3418 JUMP JUMPDEST JUMPDEST PUSH2 0x404A DUP7 DUP3 DUP8 ADD PUSH2 0x3ABE JUMP JUMPDEST SWAP2 POP POP SWAP3 POP SWAP3 POP SWAP3 JUMP JUMPDEST PUSH1 0x0 DUP1 PUSH1 0x0 DUP1 PUSH1 0x80 DUP6 DUP8 SUB SLT ISZERO PUSH2 0x406E JUMPI PUSH2 0x406D PUSH2 0x3413 JUMP JUMPDEST JUMPDEST PUSH1 0x0 PUSH2 0x407C DUP8 DUP3 DUP9 ADD PUSH2 0x3466 JUMP JUMPDEST SWAP5 POP POP PUSH1 0x20 PUSH2 0x408D DUP8 DUP3 DUP9 ADD PUSH2 0x349C JUMP JUMPDEST SWAP4 POP POP PUSH1 0x40 PUSH2 0x409E DUP8 DUP3 DUP9 ADD PUSH2 0x349C JUMP JUMPDEST SWAP3 POP POP PUSH1 0x60 DUP6 ADD CALLDATALOAD PUSH8 0xFFFFFFFFFFFFFFFF DUP2 GT ISZERO PUSH2 0x40BF JUMPI PUSH2 0x40BE PUSH2 0x3418 JUMP JUMPDEST JUMPDEST PUSH2 0x40CB DUP8 DUP3 DUP9 ADD PUSH2 0x3B5F JUMP JUMPDEST SWAP2 POP POP SWAP3 SWAP6 SWAP2 SWAP5 POP SWAP3 POP JUMP JUMPDEST PUSH1 0x0 DUP1 PUSH1 0x0 DUP1 PUSH1 0x0 PUSH1 0xA0 DUP7 DUP9 SUB SLT ISZERO PUSH2 0x40F3 JUMPI PUSH2 0x40F2 PUSH2 0x3413 JUMP JUMPDEST JUMPDEST PUSH1 0x0 PUSH2 0x4101 DUP9 DUP3 DUP10 ADD PUSH2 0x3466 JUMP JUMPDEST SWAP6 POP POP PUSH1 0x20 DUP7 ADD CALLDATALOAD PUSH8 0xFFFFFFFFFFFFFFFF DUP2 GT ISZERO PUSH2 0x4122 JUMPI PUSH2 0x4121 PUSH2 0x3418 JUMP JUMPDEST JUMPDEST PUSH2 0x412E DUP9 DUP3 DUP10 ADD PUSH2 0x3ABE JUMP JUMPDEST SWAP5 POP POP PUSH1 0x40 DUP7 ADD CALLDATALOAD PUSH8 0xFFFFFFFFFFFFFFFF DUP2 GT ISZERO PUSH2 0x414F JUMPI PUSH2 0x414E PUSH2 0x3418 JUMP JUMPDEST JUMPDEST PUSH2 0x415B DUP9 DUP3 DUP10 ADD PUSH2 0x3ABE JUMP JUMPDEST SWAP4 POP POP PUSH1 0x60 DUP7 ADD CALLDATALOAD PUSH8 0xFFFFFFFFFFFFFFFF DUP2 GT ISZERO PUSH2 0x417C JUMPI PUSH2 0x417B PUSH2 0x3418 JUMP JUMPDEST JUMPDEST PUSH2 0x4188 DUP9 DUP3 DUP10 ADD PUSH2 0x3ABE JUMP JUMPDEST SWAP3 POP POP PUSH1 0x80 DUP7 ADD CALLDATALOAD PUSH8 0xFFFFFFFFFFFFFFFF DUP2 GT ISZERO PUSH2 0x41A9 JUMPI PUSH2 0x41A8 PUSH2 0x3418 JUMP JUMPDEST JUMPDEST PUSH2 0x41B5 DUP9 DUP3 DUP10 ADD PUSH2 0x3B5F JUMP JUMPDEST SWAP2 POP POP SWAP3 SWAP6 POP SWAP3 SWAP6 SWAP1 SWAP4 POP JUMP JUMPDEST PUSH2 0x41CB DUP2 PUSH2 0x35A0 JUMP JUMPDEST DUP2 EQ PUSH2 0x41D6 JUMPI PUSH1 0x0 DUP1 REVERT JUMPDEST POP JUMP JUMPDEST PUSH1 0x0 DUP2 CALLDATALOAD SWAP1 POP PUSH2 0x41E8 DUP2 PUSH2 0x41C2 JUMP JUMPDEST SWAP3 SWAP2 POP POP JUMP JUMPDEST PUSH1 0x0 DUP1 PUSH1 0x40 DUP4 DUP6 SUB SLT ISZERO PUSH2 0x4205 JUMPI PUSH2 0x4204 PUSH2 0x3413 JUMP JUMPDEST JUMPDEST PUSH1 0x0 PUSH2 0x4213 DUP6 DUP3 DUP7 ADD PUSH2 0x3466 JUMP JUMPDEST SWAP3 POP POP PUSH1 0x20 PUSH2 0x4224 DUP6 DUP3 DUP7 ADD PUSH2 0x41D9 JUMP JUMPDEST SWAP2 POP POP SWAP3 POP SWAP3 SWAP1 POP JUMP JUMPDEST PUSH1 0x0 DUP1 PUSH1 0x0 DUP1 PUSH1 0x0 PUSH1 0xA0 DUP7 DUP9 SUB SLT ISZERO PUSH2 0x424A JUMPI PUSH2 0x4249 PUSH2 0x3413 JUMP JUMPDEST JUMPDEST PUSH1 0x0 PUSH2 0x4258 DUP9 DUP3 DUP10 ADD PUSH2 0x3466 JUMP JUMPDEST SWAP6 POP POP PUSH1 0x20 PUSH2 0x4269 DUP9 DUP3 DUP10 ADD PUSH2 0x349C JUMP JUMPDEST SWAP5 POP POP PUSH1 0x40 PUSH2 0x427A DUP9 DUP3 DUP10 ADD PUSH2 0x349C JUMP JUMPDEST SWAP4 POP POP PUSH1 0x60 PUSH2 0x428B DUP9 DUP3 DUP10 ADD PUSH2 0x349C JUMP JUMPDEST SWAP3 POP POP PUSH1 0x80 DUP7 ADD CALLDATALOAD PUSH8 0xFFFFFFFFFFFFFFFF DUP2 GT ISZERO PUSH2 0x42AC JUMPI PUSH2 0x42AB PUSH2 0x3418 JUMP JUMPDEST JUMPDEST PUSH2 0x42B8 DUP9 DUP3 DUP10 ADD PUSH2 0x3B5F JUMP JUMPDEST SWAP2 POP POP SWAP3 SWAP6 POP SWAP3 SWAP6 SWAP1 SWAP4 POP JUMP JUMPDEST PUSH1 0x0 DUP1 PUSH1 0x40 DUP4 DUP6 SUB SLT ISZERO PUSH2 0x42DC JUMPI PUSH2 0x42DB PUSH2 0x3413 JUMP JUMPDEST JUMPDEST PUSH1 0x0 PUSH2 0x42EA DUP6 DUP3 DUP7 ADD PUSH2 0x3466 JUMP JUMPDEST SWAP3 POP POP PUSH1 0x20 PUSH2 0x42FB DUP6 DUP3 DUP7 ADD PUSH2 0x3466 JUMP JUMPDEST SWAP2 POP POP SWAP3 POP SWAP3 SWAP1 POP JUMP JUMPDEST PUSH1 0x0 DUP1 PUSH1 0x0 DUP1 PUSH1 0x0 PUSH1 0xA0 DUP7 DUP9 SUB SLT ISZERO PUSH2 0x4321 JUMPI PUSH2 0x4320 PUSH2 0x3413 JUMP JUMPDEST JUMPDEST PUSH1 0x0 PUSH2 0x432F DUP9 DUP3 DUP10 ADD PUSH2 0x3466 JUMP JUMPDEST SWAP6 POP POP PUSH1 0x20 PUSH2 0x4340 DUP9 DUP3 DUP10 ADD PUSH2 0x3466 JUMP JUMPDEST SWAP5 POP POP PUSH1 0x40 PUSH2 0x4351 DUP9 DUP3 DUP10 ADD PUSH2 0x349C JUMP JUMPDEST SWAP4 POP POP PUSH1 0x60 PUSH2 0x4362 DUP9 DUP3 DUP10 ADD PUSH2 0x349C JUMP JUMPDEST SWAP3 POP POP PUSH1 0x80 DUP7 ADD CALLDATALOAD PUSH8 0xFFFFFFFFFFFFFFFF DUP2 GT ISZERO PUSH2 0x4383 JUMPI PUSH2 0x4382 PUSH2 0x3418 JUMP JUMPDEST JUMPDEST PUSH2 0x438F DUP9 DUP3 DUP10 ADD PUSH2 0x3B5F JUMP JUMPDEST SWAP2 POP POP SWAP3 SWAP6 POP SWAP3 SWAP6 SWAP1 SWAP4 POP JUMP JUMPDEST PUSH32 0x4E487B7100000000000000000000000000000000000000000000000000000000 PUSH1 0x0 MSTORE PUSH1 0x32 PUSH1 0x4 MSTORE PUSH1 0x24 PUSH1 0x0 REVERT JUMPDEST PUSH32 0x4E487B7100000000000000000000000000000000000000000000000000000000 PUSH1 0x0 MSTORE PUSH1 0x11 PUSH1 0x4 MSTORE PUSH1 0x24 PUSH1 0x0 REVERT JUMPDEST PUSH1 0x0 PUSH2 0x4405 DUP3 PUSH2 0x347B JUMP JUMPDEST SWAP2 POP PUSH32 0xFFFFFFFFFFFFFFFFFFFFFFFFFFFFFFFFFFFFFFFFFFFFFFFFFFFFFFFFFFFFFFFF DUP3 SUB PUSH2 0x4437 JUMPI PUSH2 0x4436 PUSH2 0x43CB JUMP JUMPDEST JUMPDEST PUSH1 0x1 DUP3 ADD SWAP1 POP SWAP2 SWAP1 POP JUMP JUMPDEST PUSH32 0x4950446F6356393A204163636F756E7420686173206E6F2062616C616E636520 PUSH1 0x0 DUP3 ADD MSTORE PUSH32 0x746F206578706972650000000000000000000000000000000000000000000000 PUSH1 0x20 DUP3 ADD MSTORE POP JUMP JUMPDEST PUSH1 0x0 PUSH2 0x449E PUSH1 0x29 DUP4 PUSH2 0x38E4 JUMP JUMPDEST SWAP2 POP PUSH2 0x44A9 DUP3 PUSH2 0x4442 JUMP JUMPDEST PUSH1 0x40 DUP3 ADD SWAP1 POP SWAP2 SWAP1 POP JUMP JUMPDEST PUSH1 0x0 PUSH1 0x20 DUP3 ADD SWAP1 POP DUP2 DUP2 SUB PUSH1 0x0 DUP4 ADD MSTORE PUSH2 0x44CD DUP2 PUSH2 0x4491 JUMP JUMPDEST SWAP1 POP SWAP2 SWAP1 POP JUMP JUMPDEST PUSH2 0x44DD DUP2 PUSH2 0x343D JUMP JUMPDEST DUP3 MSTORE POP POP JUMP JUMPDEST PUSH1 0x0 PUSH1 0x40 DUP3 ADD SWAP1 POP PUSH2 0x44F8 PUSH1 0x0 DUP4 ADD DUP6 PUSH2 0x44D4 JUMP JUMPDEST PUSH2 0x4505 PUSH1 0x20 DUP4 ADD DUP5 PUSH2 0x44D4 JUMP JUMPDEST SWAP4 SWAP3 POP POP POP JUMP JUMPDEST PUSH32 0x4950446F6356393A206163636F756E747320616E6420696473206C656E677468 PUSH1 0x0 DUP3 ADD MSTORE PUSH32 0x206D69736D617463680000000000000000000000000000000000000000000000 PUSH1 0x20 DUP3 ADD MSTORE POP JUMP JUMPDEST PUSH1 0x0 PUSH2 0x4568 PUSH1 0x29 DUP4 PUSH2 0x38E4 JUMP JUMPDEST SWAP2 POP PUSH2 0x4573 DUP3 PUSH2 0x450C JUMP JUMPDEST PUSH1 0x40 DUP3 ADD SWAP1 POP SWAP2 SWAP1 POP JUMP JUMPDEST PUSH1 0x0 PUSH1 0x20 DUP3 ADD SWAP1 POP DUP2 DUP2 SUB PUSH1 0x0 DUP4 ADD MSTORE PUSH2 0x4597 DUP2 PUSH2 0x455B JUMP JUMPDEST SWAP1 POP SWAP2 SWAP1 POP JUMP JUMPDEST PUSH32 0x4950446F6356393A2069647320616E642065787069726174696F6E54696D6573 PUSH1 0x0 DUP3 ADD MSTORE PUSH32 0x206C656E677468206D69736D6174636800000000000000000000000000000000 PUSH1 0x20 DUP3 ADD MSTORE POP JUMP JUMPDEST PUSH1 0x0 PUSH2 0x45FA PUSH1 0x30 DUP4 PUSH2 0x38E4 JUMP JUMPDEST SWAP2 POP PUSH2 0x4605 DUP3 PUSH2 0x459E JUMP JUMPDEST PUSH1 0x40 DUP3 ADD SWAP1 POP SWAP2 SWAP1 POP JUMP JUMPDEST PUSH1 0x0 PUSH1 0x20 DUP3 ADD SWAP1 POP DUP2 DUP2 SUB PUSH1 0x0 DUP4 ADD MSTORE PUSH2 0x4629 DUP2 PUSH2 0x45ED JUMP JUMPDEST SWAP1 POP SWAP2 SWAP1 POP JUMP JUMPDEST PUSH32 0x4E487B7100000000000000000000000000000000000000000000000000000000 PUSH1 0x0 MSTORE PUSH1 0x22 PUSH1 0x4 MSTORE PUSH1 0x24 PUSH1 0x0 REVERT JUMPDEST PUSH1 0x0 PUSH1 0x2 DUP3 DIV SWAP1 POP PUSH1 0x1 DUP3 AND DUP1 PUSH2 0x4677 JUMPI PUSH1 0x7F DUP3 AND SWAP2 POP JUMPDEST PUSH1 0x20 DUP3 LT DUP2 SUB PUSH2 0x468A JUMPI PUSH2 0x4689 PUSH2 0x4630 JUMP JUMPDEST JUMPDEST POP SWAP2 SWAP1 POP JUMP JUMPDEST PUSH1 0x0 DUP2 SWAP1 POP DUP2 PUSH1 0x0 MSTORE PUSH1 0x20 PUSH1 0x0 KECCAK256 SWAP1 POP SWAP2 SWAP1 POP JUMP JUMPDEST PUSH1 0x0 PUSH1 0x20 PUSH1 0x1F DUP4 ADD DIV SWAP1 POP SWAP2 SWAP1 POP JUMP JUMPDEST PUSH1 0x0 DUP3 DUP3 SHL SWAP1 POP SWAP3 SWAP2 POP POP JUMP JUMPDEST PUSH1 0x0 PUSH1 0x8 DUP4 MUL PUSH2 0x46F2 PUSH32 0xFFFFFFFFFFFFFFFFFFFFFFFFFFFFFFFFFFFFFFFFFFFFFFFFFFFFFFFFFFFFFFFF DUP3 PUSH2 0x46B5 JUMP JUMPDEST PUSH2 0x46FC DUP7 DUP4 PUSH2 0x46B5 JUMP JUMPDEST SWAP6 POP DUP1 NOT DUP5 AND SWAP4 POP DUP1 DUP7 AND DUP5 OR SWAP3 POP POP POP SWAP4 SWAP3 POP POP POP JUMP JUMPDEST PUSH1 0x0 DUP2 SWAP1 POP SWAP2 SWAP1 POP JUMP JUMPDEST PUSH1 0x0 PUSH2 0x4739 PUSH2 0x4734 PUSH2 0x472F DUP5 PUSH2 0x347B JUMP JUMPDEST PUSH2 0x4714 JUMP JUMPDEST PUSH2 0x347B JUMP JUMPDEST SWAP1 POP SWAP2 SWAP1 POP JUMP JUMPDEST PUSH1 0x0 DUP2 SWAP1 POP SWAP2 SWAP1 POP JUMP JUMPDEST PUSH2 0x4753 DUP4 PUSH2 0x471E JUMP JUMPDEST PUSH2 0x4767 PUSH2 0x475F DUP3 PUSH2 0x4740 JUMP JUMPDEST DUP5 DUP5 SLOAD PUSH2 0x46C2 JUMP JUMPDEST DUP3 SSTORE POP POP POP POP JUMP JUMPDEST PUSH1 0x0 SWAP1 JUMP JUMPDEST PUSH2 0x477C PUSH2 0x476F JUMP JUMPDEST PUSH2 0x4787 DUP2 DUP5 DUP5 PUSH2 0x474A JUMP JUMPDEST POP POP POP JUMP JUMPDEST JUMPDEST DUP2 DUP2 LT ISZERO PUSH2 0x47AB JUMPI PUSH2 0x47A0 PUSH1 0x0 DUP3 PUSH2 0x4774 JUMP JUMPDEST PUSH1 0x1 DUP2 ADD SWAP1 POP PUSH2 0x478D JUMP JUMPDEST POP POP JUMP JUMPDEST PUSH1 0x1F DUP3 GT ISZERO PUSH2 0x47F0 JUMPI PUSH2 0x47C1 DUP2 PUSH2 0x4690 JUMP JUMPDEST PUSH2 0x47CA DUP5 PUSH2 0x46A5 JUMP JUMPDEST DUP2 ADD PUSH1 0x20 DUP6 LT ISZERO PUSH2 0x47D9 JUMPI DUP2 SWAP1 POP JUMPDEST PUSH2 0x47ED PUSH2 0x47E5 DUP6 PUSH2 0x46A5 JUMP JUMPDEST DUP4 ADD DUP3 PUSH2 0x478C JUMP JUMPDEST POP POP JUMPDEST POP POP POP JUMP JUMPDEST PUSH1 0x0 DUP3 DUP3 SHR SWAP1 POP SWAP3 SWAP2 POP POP JUMP JUMPDEST PUSH1 0x0 PUSH2 0x4813 PUSH1 0x0 NOT DUP5 PUSH1 0x8 MUL PUSH2 0x47F5 JUMP JUMPDEST NOT DUP1 DUP4 AND SWAP2 POP POP SWAP3 SWAP2 POP POP JUMP JUMPDEST PUSH1 0x0 PUSH2 0x482C DUP4 DUP4 PUSH2 0x4802 JUMP JUMPDEST SWAP2 POP DUP3 PUSH1 0x2 MUL DUP3 OR SWAP1 POP SWAP3 SWAP2 POP POP JUMP JUMPDEST PUSH2 0x4845 DUP3 PUSH2 0x38D9 JUMP JUMPDEST PUSH8 0xFFFFFFFFFFFFFFFF DUP2 GT ISZERO PUSH2 0x485E JUMPI PUSH2 0x485D PUSH2 0x35F1 JUMP JUMPDEST JUMPDEST PUSH2 0x4868 DUP3 SLOAD PUSH2 0x465F JUMP JUMPDEST PUSH2 0x4873 DUP3 DUP3 DUP6 PUSH2 0x47AF JUMP JUMPDEST PUSH1 0x0 PUSH1 0x20 SWAP1 POP PUSH1 0x1F DUP4 GT PUSH1 0x1 DUP2 EQ PUSH2 0x48A6 JUMPI PUSH1 0x0 DUP5 ISZERO PUSH2 0x4894 JUMPI DUP3 DUP8 ADD MLOAD SWAP1 POP JUMPDEST PUSH2 0x489E DUP6 DUP3 PUSH2 0x4820 JUMP JUMPDEST DUP7 SSTORE POP PUSH2 0x4906 JUMP JUMPDEST PUSH1 0x1F NOT DUP5 AND PUSH2 0x48B4 DUP7 PUSH2 0x4690 JUMP JUMPDEST PUSH1 0x0 JUMPDEST DUP3 DUP2 LT ISZERO PUSH2 0x48DC JUMPI DUP5 DUP10 ADD MLOAD DUP3 SSTORE PUSH1 0x1 DUP3 ADD SWAP2 POP PUSH1 0x20 DUP6 ADD SWAP5 POP PUSH1 0x20 DUP2 ADD SWAP1 POP PUSH2 0x48B7 JUMP JUMPDEST DUP7 DUP4 LT ISZERO PUSH2 0x48F9 JUMPI DUP5 DUP10 ADD MLOAD PUSH2 0x48F5 PUSH1 0x1F DUP10 AND DUP3 PUSH2 0x4802 JUMP JUMPDEST DUP4 SSTORE POP JUMPDEST PUSH1 0x1 PUSH1 0x2 DUP9 MUL ADD DUP9 SSTORE POP POP POP JUMPDEST POP POP POP POP POP POP JUMP JUMPDEST PUSH1 0x0 DUP2 SWAP1 POP SWAP3 SWAP2 POP POP JUMP JUMPDEST PUSH1 0x0 DUP2 SLOAD PUSH2 0x4926 DUP2 PUSH2 0x465F JUMP JUMPDEST PUSH2 0x4930 DUP2 DUP7 PUSH2 0x490E JUMP JUMPDEST SWAP5 POP PUSH1 0x1 DUP3 AND PUSH1 0x0 DUP2 EQ PUSH2 0x494B JUMPI PUSH1 0x1 DUP2 EQ PUSH2 0x4960 JUMPI PUSH2 0x4993 JUMP JUMPDEST PUSH1 0xFF NOT DUP4 AND DUP7 MSTORE DUP2 ISZERO ISZERO DUP3 MUL DUP7 ADD SWAP4 POP PUSH2 0x4993 JUMP JUMPDEST PUSH2 0x4969 DUP6 PUSH2 0x4690 JUMP JUMPDEST PUSH1 0x0 JUMPDEST DUP4 DUP2 LT ISZERO PUSH2 0x498B JUMPI DUP2 SLOAD DUP2 DUP10 ADD MSTORE PUSH1 0x1 DUP3 ADD SWAP2 POP PUSH1 0x20 DUP2 ADD SWAP1 POP PUSH2 0x496C JUMP JUMPDEST DUP4 DUP9 ADD SWAP6 POP POP POP JUMPDEST POP POP POP SWAP3 SWAP2 POP POP JUMP JUMPDEST PUSH1 0x0 PUSH2 0x49A7 DUP3 PUSH2 0x38D9 JUMP JUMPDEST PUSH2 0x49B1 DUP2 DUP6 PUSH2 0x490E JUMP JUMPDEST SWAP4 POP PUSH2 0x49C1 DUP2 DUP6 PUSH1 0x20 DUP7 ADD PUSH2 0x38F5 JUMP JUMPDEST DUP1 DUP5 ADD SWAP2 POP POP SWAP3 SWAP2 POP POP JUMP JUMPDEST PUSH1 0x0 PUSH2 0x49D9 DUP3 DUP6 PUSH2 0x4919 JUMP JUMPDEST SWAP2 POP PUSH2 0x49E5 DUP3 DUP5 PUSH2 0x499C JUMP JUMPDEST SWAP2 POP DUP2 SWAP1 POP SWAP4 SWAP3 POP POP POP JUMP JUMPDEST PUSH1 0x0 PUSH1 0x20 DUP3 ADD SWAP1 POP PUSH2 0x4A06 PUSH1 0x0 DUP4 ADD DUP5 PUSH2 0x44D4 JUMP JUMPDEST SWAP3 SWAP2 POP POP JUMP JUMPDEST PUSH1 0x0 PUSH1 0x40 DUP3 ADD SWAP1 POP PUSH2 0x4A21 PUSH1 0x0 DUP4 ADD DUP6 PUSH2 0x44D4 JUMP JUMPDEST PUSH2 0x4A2E PUSH1 0x20 DUP4 ADD DUP5 PUSH2 0x3C75 JUMP JUMPDEST SWAP4 SWAP3 POP POP POP JUMP JUMPDEST PUSH32 0x4950446F6356393A206D7573742068617665206D696E74657220726F6C652074 PUSH1 0x0 DUP3 ADD MSTORE PUSH32 0x6F207472616E7366657200000000000000000000000000000000000000000000 PUSH1 0x20 DUP3 ADD MSTORE POP JUMP JUMPDEST PUSH1 0x0 PUSH2 0x4A91 PUSH1 0x2A DUP4 PUSH2 0x38E4 JUMP JUMPDEST SWAP2 POP PUSH2 0x4A9C DUP3 PUSH2 0x4A35 JUMP JUMPDEST PUSH1 0x40 DUP3 ADD SWAP1 POP SWAP2 SWAP1 POP JUMP JUMPDEST PUSH1 0x0 PUSH1 0x20 DUP3 ADD SWAP1 POP DUP2 DUP2 SUB PUSH1 0x0 DUP4 ADD MSTORE PUSH2 0x4AC0 DUP2 PUSH2 0x4A84 JUMP JUMPDEST SWAP1 POP SWAP2 SWAP1 POP JUMP JUMPDEST PUSH32 0x4950446F6356393A2043616E6E6F74207472616E736665722065787069726564 PUSH1 0x0 DUP3 ADD MSTORE PUSH32 0x20746F6B656E732065786365707420746F206275726E00000000000000000000 PUSH1 0x20 DUP3 ADD MSTORE POP JUMP JUMPDEST PUSH1 0x0 PUSH2 0x4B23 PUSH1 0x36 DUP4 PUSH2 0x38E4 JUMP JUMPDEST SWAP2 POP PUSH2 0x4B2E DUP3 PUSH2 0x4AC7 JUMP JUMPDEST PUSH1 0x40 DUP3 ADD SWAP1 POP SWAP2 SWAP1 POP JUMP JUMPDEST PUSH1 0x0 PUSH1 0x20 DUP3 ADD SWAP1 POP DUP2 DUP2 SUB PUSH1 0x0 DUP4 ADD MSTORE PUSH2 0x4B52 DUP2 PUSH2 0x4B16 JUMP JUMPDEST SWAP1 POP SWAP2 SWAP1 POP JUMP JUMPDEST PUSH1 0x0 DUP2 MLOAD SWAP1 POP SWAP2 SWAP1 POP JUMP JUMPDEST PUSH1 0x0 DUP3 DUP3 MSTORE PUSH1 0x20 DUP3 ADD SWAP1 POP SWAP3 SWAP2 POP POP JUMP JUMPDEST PUSH1 0x0 PUSH2 0x4B80 DUP3 PUSH2 0x4B59 JUMP JUMPDEST PUSH2 0x4B8A DUP2 DUP6 PUSH2 0x4B64 JUMP JUMPDEST SWAP4 POP PUSH2 0x4B9A DUP2 DUP6 PUSH1 0x20 DUP7 ADD PUSH2 0x38F5 JUMP JUMPDEST PUSH2 0x4BA3 DUP2 PUSH2 0x35E0 JUMP JUMPDEST DUP5 ADD SWAP2 POP POP SWAP3 SWAP2 POP POP JUMP JUMPDEST PUSH1 0x0 PUSH1 0xA0 DUP3 ADD SWAP1 POP PUSH2 0x4BC3 PUSH1 0x0 DUP4 ADD DUP9 PUSH2 0x44D4 JUMP JUMPDEST PUSH2 0x4BD0 PUSH1 0x20 DUP4 ADD DUP8 PUSH2 0x44D4 JUMP JUMPDEST PUSH2 0x4BDD PUSH1 0x40 DUP4 ADD DUP7 PUSH2 0x34F1 JUMP JUMPDEST PUSH2 0x4BEA PUSH1 0x60 DUP4 ADD DUP6 PUSH2 0x34F1 JUMP JUMPDEST DUP2 DUP2 SUB PUSH1 0x80 DUP4 ADD MSTORE PUSH2 0x4BFC DUP2 DUP5 PUSH2 0x4B75 JUMP JUMPDEST SWAP1 POP SWAP7 SWAP6 POP POP POP POP POP POP JUMP JUMPDEST PUSH1 0x0 DUP2 MLOAD SWAP1 POP PUSH2 0x4C17 DUP2 PUSH2 0x3547 JUMP JUMPDEST SWAP3 SWAP2 POP POP JUMP JUMPDEST PUSH1 0x0 PUSH1 0x20 DUP3 DUP5 SUB SLT ISZERO PUSH2 0x4C33 JUMPI PUSH2 0x4C32 PUSH2 0x3413 JUMP JUMPDEST JUMPDEST PUSH1 0x0 PUSH2 0x4C41 DUP5 DUP3 DUP6 ADD PUSH2 0x4C08 JUMP JUMPDEST SWAP2 POP POP SWAP3 SWAP2 POP POP JUMP JUMPDEST PUSH1 0x0 PUSH1 0xA0 DUP3 ADD SWAP1 POP PUSH2 0x4C5F PUSH1 0x0 DUP4 ADD DUP9 PUSH2 0x44D4 JUMP JUMPDEST PUSH2 0x4C6C PUSH1 0x20 DUP4 ADD DUP8 PUSH2 0x44D4 JUMP JUMPDEST DUP2 DUP2 SUB PUSH1 0x40 DUP4 ADD MSTORE PUSH2 0x4C7E DUP2 DUP7 PUSH2 0x3F49 JUMP JUMPDEST SWAP1 POP DUP2 DUP2 SUB PUSH1 0x60 DUP4 ADD MSTORE PUSH2 0x4C92 DUP2 DUP6 PUSH2 0x3F49 JUMP JUMPDEST SWAP1 POP DUP2 DUP2 SUB PUSH1 0x80 DUP4 ADD MSTORE PUSH2 0x4CA6 DUP2 DUP5 PUSH2 0x4B75 JUMP JUMPDEST SWAP1 POP SWAP7 SWAP6 POP POP POP POP POP POP JUMP JUMPDEST PUSH1 0x0 PUSH2 0x4CBD DUP3 PUSH2 0x347B JUMP JUMPDEST SWAP2 POP PUSH2 0x4CC8 DUP4 PUSH2 0x347B JUMP JUMPDEST SWAP3 POP DUP3 DUP3 ADD SWAP1 POP DUP1 DUP3 GT ISZERO PUSH2 0x4CE0 JUMPI PUSH2 0x4CDF PUSH2 0x43CB JUMP JUMPDEST JUMPDEST SWAP3 SWAP2 POP POP JUMP JUMPDEST PUSH1 0x0 PUSH1 0x40 DUP3 ADD SWAP1 POP PUSH2 0x4CFB PUSH1 0x0 DUP4 ADD DUP6 PUSH2 0x34F1 JUMP JUMPDEST PUSH2 0x4D08 PUSH1 0x20 DUP4 ADD DUP5 PUSH2 0x34F1 JUMP JUMPDEST SWAP4 SWAP3 POP POP POP JUMP JUMPDEST PUSH1 0x0 PUSH1 0x80 DUP3 ADD SWAP1 POP PUSH2 0x4D24 PUSH1 0x0 DUP4 ADD DUP8 PUSH2 0x44D4 JUMP JUMPDEST PUSH2 0x4D31 PUSH1 0x20 DUP4 ADD DUP7 PUSH2 0x34F1 JUMP JUMPDEST PUSH2 0x4D3E PUSH1 0x40 DUP4 ADD DUP6 PUSH2 0x34F1 JUMP JUMPDEST PUSH2 0x4D4B PUSH1 0x60 DUP4 ADD DUP5 PUSH2 0x34F1 JUMP JUMPDEST SWAP6 SWAP5 POP POP POP POP POP JUMP JUMPDEST PUSH1 0x0 PUSH1 0x40 DUP3 ADD SWAP1 POP DUP2 DUP2 SUB PUSH1 0x0 DUP4 ADD MSTORE PUSH2 0x4D6E DUP2 DUP6 PUSH2 0x3F49 JUMP JUMPDEST SWAP1 POP DUP2 DUP2 SUB PUSH1 0x20 DUP4 ADD MSTORE PUSH2 0x4D82 DUP2 DUP5 PUSH2 0x3F49 JUMP JUMPDEST SWAP1 POP SWAP4 SWAP3 POP POP POP JUMP INVALID LOG2 PUSH5 0x6970667358 0x22 SLT KECCAK256 0x2C 0xC7 PUSH0 LOG0 LOG0 0xDB 0x4D PUSH8 0xBD1B06B018F9C4F4 KECCAK256 DUP9 0x24 PUSH21 0xDB1B096087FE6AE70C46A0C764736F6C6343000814 STOP CALLER "},"methodIdentifiers":{"DEFAULT_ADMIN_ROLE()":"a217fddf","EXPIRATION_MANAGER_ROLE()":"4943f8f8","MINTER_ROLE()":"d5391393","PAUSER_ROLE()":"e63ab1e9","URI_SETTER_ROLE()":"7f345710","balanceOf(address,uint256)":"00fdd58e","balanceOfBatch(address[],uint256[])":"4e1273f4","burn(address,uint256,uint256)":"f5298aca","burnBatch(address,uint256[],uint256[])":"6b20c454","createId(bytes32)":"f07f5520","createIds(bytes32[])":"09dca9ce","exists(uint256)":"4f558e79","getExpiration(address,uint256)":"2cac49c4","getExternalId(uint256)":"ee037bf9","getId(bytes32)":"e5569773","getRoleAdmin(bytes32)":"248a9ca3","grantRole(bytes32,address)":"2f2ff15d","hasRole(bytes32,address)":"91d14854","isApprovedForAll(address,address)":"e985e9c5","isExpired(address,uint256)":"15149793","mint(address,uint256,uint256,bytes)":"731133e9","mintBatch(address,uint256[],uint256[],bytes)":"1f7fdffa","mintBatchWithExpiration(address,uint256[],uint256[],uint256[],bytes)":"9f5e61ee","mintWithExpiration(address,uint256,uint256,uint256,bytes)":"d4e5e76c","pause()":"8456cb59","paused()":"5c975abb","renounceRole(bytes32,address)":"36568abe","revokeRole(bytes32,address)":"d547741f","safeBatchTransferFrom(address,address,uint256[],uint256[],bytes)":"2eb2c2d6","safeTransferFrom(address,address,uint256,uint256,bytes)":"f242432a","setApprovalForAll(address,bool)":"a22cb465","setBaseURI(string)":"55f804b3","setBatchExpiration(address,uint256[],uint256[])":"67614e62","setExpiration(address,uint256,uint256)":"1af189e1","setTokenURI(uint256,string)":"162094c4","setURI(string)":"02fe5305","supportsInterface(bytes4)":"01ffc9a7","totalSupply()":"18160ddd","totalSupply(uint256)":"bd85b039","unpause()":"3f4ba83a","uri(uint256)":"0e89341c"}}}}}