{"contracts/IPDocV10.sol":{"IPDocV10":{"abi":[{"inputs":[{"internalType":"address","name":"defaultAdmin","type":"address"},{"internalType":"address","name":"pauser","type":"address"},{"internalType":"address","name":"minter","type":"address"}],"stateMutability":"nonpayable","type":"constructor"},{"inputs":[],"name":"AccessControlBadConfirmation","type":"error"},{"inputs":[{"internalType":"address","name":"account","type":"address"},{"internalType":"bytes32","name":"neededRole","type":"bytes32"}],"name":"AccessControlUnauthorizedAccount","type":"error"},{"inputs":[{"internalType":"address","name":"sender","type":"address"},{"internalType":"uint256","name":"balance","type":"uint256"},{"internalType":"uint256","name":"needed","type":"uint256"},{"internalType":"uint256","name":"tokenId","type":"uint256"}],"name":"ERC1155InsufficientBalance","type":"error"},{"inputs":[{"internalType":"address","name":"approver","type":"address"}],"name":"ERC1155InvalidApprover","type":"error"},{"inputs":[{"internalType":"uint256","name":"idsLength","type":"uint256"},{"internalType":"uint256","name":"valuesLength","type":"uint256"}],"name":"ERC1155InvalidArrayLength","type":"error"},{"inputs":[{"internalType":"address","name":"operator","type":"address"}],"name":"ERC1155InvalidOperator","type":"error"},{"inputs":[{"internalType":"address","name":"receiver","type":"address"}],"name":"ERC1155InvalidReceiver","type":"error"},{"inputs":[{"internalType":"address","name":"sender","type":"address"}],"name":"ERC1155InvalidSender","type":"error"},{"inputs":[{"internalType":"address","name":"operator","type":"address"},{"internalType":"address","name":"owner","type":"address"}],"name":"ERC1155MissingApprovalForAll","type":"error"},{"inputs":[],"name":"EnforcedPause","type":"error"},{"inputs":[],"name":"ExpectedPause","type":"error"},{"anonymous":false,"inputs":[{"indexed":true,"internalType":"address","name":"account","type":"address"},{"indexed":true,"internalType":"address","name":"operator","type":"address"},{"indexed":false,"internalType":"bool","name":"approved","type":"bool"}],"name":"ApprovalForAll","type":"event"},{"anonymous":false,"inputs":[{"indexed":true,"internalType":"address","name":"account","type":"address"},{"indexed":true,"internalType":"uint256","name":"tokenId","type":"uint256"},{"indexed":false,"internalType":"uint256","name":"expirationTime","type":"uint256"}],"name":"ExpirationSet","type":"event"},{"anonymous":false,"inputs":[{"indexed":true,"internalType":"bytes32","name":"externalId","type":"bytes32"},{"indexed":true,"internalType":"uint256","name":"tokenId","type":"uint256"}],"name":"IDCreated","type":"event"},{"anonymous":false,"inputs":[{"indexed":false,"internalType":"address","name":"account","type":"address"}],"name":"Paused","type":"event"},{"anonymous":false,"inputs":[{"indexed":true,"internalType":"bytes32","name":"role","type":"bytes32"},{"indexed":true,"internalType":"bytes32","name":"previousAdminRole","type":"bytes32"},{"indexed":true,"internalType":"bytes32","name":"newAdminRole","type":"bytes32"}],"name":"RoleAdminChanged","type":"event"},{"anonymous":false,"inputs":[{"indexed":true,"internalType":"bytes32","name":"role","type":"bytes32"},{"indexed":true,"internalType":"address","name":"account","type":"address"},{"indexed":true,"internalType":"address","name":"sender","type":"address"}],"name":"RoleGranted","type":"event"},{"anonymous":false,"inputs":[{"indexed":true,"internalType":"bytes32","name":"role","type":"bytes32"},{"indexed":true,"internalType":"address","name":"account","type":"address"},{"indexed":true,"internalType":"address","name":"sender","type":"address"}],"name":"RoleRevoked","type":"event"},{"anonymous":false,"inputs":[{"indexed":true,"internalType":"address","name":"operator","type":"address"},{"indexed":true,"internalType":"address","name":"from","type":"address"},{"indexed":true,"internalType":"address","name":"to","type":"address"},{"indexed":false,"internalType":"uint256[]","name":"ids","type":"uint256[]"},{"indexed":false,"internalType":"uint256[]","name":"values","type":"uint256[]"}],"name":"TransferBatch","type":"event"},{"anonymous":false,"inputs":[{"indexed":true,"internalType":"address","name":"operator","type":"address"},{"indexed":true,"internalType":"address","name":"from","type":"address"},{"indexed":true,"internalType":"address","name":"to","type":"address"},{"indexed":false,"internalType":"uint256","name":"id","type":"uint256"},{"indexed":false,"internalType":"uint256","name":"value","type":"uint256"}],"name":"TransferSingle","type":"event"},{"anonymous":false,"inputs":[{"indexed":false,"internalType":"string","name":"value","type":"string"},{"indexed":true,"internalType":"uint256","name":"id","type":"uint256"}],"name":"URI","type":"event"},{"anonymous":false,"inputs":[{"indexed":false,"internalType":"address","name":"account","type":"address"}],"name":"Unpaused","type":"event"},{"inputs":[],"name":"DEFAULT_ADMIN_ROLE","outputs":[{"internalType":"bytes32","name":"","type":"bytes32"}],"stateMutability":"view","type":"function"},{"inputs":[],"name":"EXPIRATION_MANAGER_ROLE","outputs":[{"internalType":"bytes32","name":"","type":"bytes32"}],"stateMutability":"view","type":"function"},{"inputs":[],"name":"MINTER_ROLE","outputs":[{"internalType":"bytes32","name":"","type":"bytes32"}],"stateMutability":"view","type":"function"},{"inputs":[],"name":"PAUSER_ROLE","outputs":[{"internalType":"bytes32","name":"","type":"bytes32"}],"stateMutability":"view","type":"function"},{"inputs":[],"name":"URI_SETTER_ROLE","outputs":[{"internalType":"bytes32","name":"","type":"bytes32"}],"stateMutability":"view","type":"function"},{"inputs":[{"internalType":"address","name":"account","type":"address"},{"internalType":"uint256","name":"id","type":"uint256"}],"name":"balanceOf","outputs":[{"internalType":"uint256","name":"","type":"uint256"}],"stateMutability":"view","type":"function"},{"inputs":[{"internalType":"address[]","name":"accounts","type":"address[]"},{"internalType":"uint256[]","name":"ids","type":"uint256[]"}],"name":"balanceOfBatch","outputs":[{"internalType":"uint256[]","name":"","type":"uint256[]"}],"stateMutability":"view","type":"function"},{"inputs":[{"internalType":"address","name":"account","type":"address"},{"internalType":"uint256","name":"id","type":"uint256"},{"internalType":"uint256","name":"value","type":"uint256"}],"name":"burn","outputs":[],"stateMutability":"nonpayable","type":"function"},{"inputs":[{"internalType":"address","name":"account","type":"address"},{"internalType":"uint256[]","name":"ids","type":"uint256[]"},{"internalType":"uint256[]","name":"values","type":"uint256[]"}],"name":"burnBatch","outputs":[],"stateMutability":"nonpayable","type":"function"},{"inputs":[{"internalType":"bytes32","name":"externalId","type":"bytes32"}],"name":"createId","outputs":[],"stateMutability":"nonpayable","type":"function"},{"inputs":[{"internalType":"bytes32[]","name":"externalIds","type":"bytes32[]"}],"name":"createIds","outputs":[],"stateMutability":"nonpayable","type":"function"},{"inputs":[{"internalType":"uint256","name":"id","type":"uint256"}],"name":"exists","outputs":[{"internalType":"bool","name":"","type":"bool"}],"stateMutability":"view","type":"function"},{"inputs":[{"internalType":"address","name":"account","type":"address"},{"internalType":"uint256","name":"id","type":"uint256"}],"name":"getExpiration","outputs":[{"internalType":"uint256","name":"","type":"uint256"}],"stateMutability":"view","type":"function"},{"inputs":[{"internalType":"uint256","name":"tokenId","type":"uint256"}],"name":"getExternalId","outputs":[{"internalType":"bytes32","name":"","type":"bytes32"}],"stateMutability":"view","type":"function"},{"inputs":[{"internalType":"bytes32","name":"externalId","type":"bytes32"}],"name":"getId","outputs":[{"internalType":"uint256","name":"","type":"uint256"}],"stateMutability":"view","type":"function"},{"inputs":[{"internalType":"bytes32","name":"role","type":"bytes32"}],"name":"getRoleAdmin","outputs":[{"internalType":"bytes32","name":"","type":"bytes32"}],"stateMutability":"view","type":"function"},{"inputs":[{"internalType":"bytes32","name":"role","type":"bytes32"},{"internalType":"address","name":"account","type":"address"}],"name":"grantRole","outputs":[],"stateMutability":"nonpayable","type":"function"},{"inputs":[{"internalType":"bytes32","name":"role","type":"bytes32"},{"internalType":"address","name":"account","type":"address"}],"name":"hasRole","outputs":[{"internalType":"bool","name":"","type":"bool"}],"stateMutability":"view","type":"function"},{"inputs":[{"internalType":"address","name":"account","type":"address"},{"internalType":"address","name":"operator","type":"address"}],"name":"isApprovedForAll","outputs":[{"internalType":"bool","name":"","type":"bool"}],"stateMutability":"view","type":"function"},{"inputs":[{"internalType":"address","name":"account","type":"address"},{"internalType":"uint256","name":"id","type":"uint256"}],"name":"isExpired","outputs":[{"internalType":"bool","name":"","type":"bool"}],"stateMutability":"view","type":"function"},{"inputs":[{"internalType":"address","name":"account","type":"address"},{"internalType":"uint256","name":"id","type":"uint256"},{"internalType":"uint256","name":"amount","type":"uint256"},{"internalType":"bytes","name":"data","type":"bytes"}],"name":"mint","outputs":[],"stateMutability":"nonpayable","type":"function"},{"inputs":[{"internalType":"address","name":"to","type":"address"},{"internalType":"uint256[]","name":"ids","type":"uint256[]"},{"internalType":"uint256[]","name":"amounts","type":"uint256[]"},{"internalType":"bytes","name":"data","type":"bytes"}],"name":"mintBatch","outputs":[],"stateMutability":"nonpayable","type":"function"},{"inputs":[{"internalType":"address","name":"to","type":"address"},{"internalType":"bytes32[]","name":"externalIds","type":"bytes32[]"},{"internalType":"uint256[]","name":"amounts","type":"uint256[]"},{"internalType":"bytes","name":"data","type":"bytes"}],"name":"mintBatchWithExternalIds","outputs":[{"internalType":"uint256[]","name":"","type":"uint256[]"}],"stateMutability":"nonpayable","type":"function"},{"inputs":[{"internalType":"address","name":"account","type":"address"},{"internalType":"bytes32","name":"externalId","type":"bytes32"},{"internalType":"uint256","name":"amount","type":"uint256"},{"internalType":"bytes","name":"data","type":"bytes"}],"name":"mintWithExternalId","outputs":[{"internalType":"uint256","name":"","type":"uint256"}],"stateMutability":"nonpayable","type":"function"},{"inputs":[],"name":"pause","outputs":[],"stateMutability":"nonpayable","type":"function"},{"inputs":[],"name":"paused","outputs":[{"internalType":"bool","name":"","type":"bool"}],"stateMutability":"view","type":"function"},{"inputs":[{"internalType":"bytes32","name":"role","type":"bytes32"},{"internalType":"address","name":"callerConfirmation","type":"address"}],"name":"renounceRole","outputs":[],"stateMutability":"nonpayable","type":"function"},{"inputs":[{"internalType":"bytes32","name":"role","type":"bytes32"},{"internalType":"address","name":"account","type":"address"}],"name":"revokeRole","outputs":[],"stateMutability":"nonpayable","type":"function"},{"inputs":[{"internalType":"address","name":"from","type":"address"},{"internalType":"address","name":"to","type":"address"},{"internalType":"uint256[]","name":"ids","type":"uint256[]"},{"internalType":"uint256[]","name":"values","type":"uint256[]"},{"internalType":"bytes","name":"data","type":"bytes"}],"name":"safeBatchTransferFrom","outputs":[],"stateMutability":"nonpayable","type":"function"},{"inputs":[{"internalType":"address","name":"from","type":"address"},{"internalType":"address","name":"to","type":"address"},{"internalType":"uint256[]","name":"ids","type":"uint256[]"},{"internalType":"uint256[]","name":"amounts","type":"uint256[]"},{"internalType":"uint256[]","name":"expirationTimes","type":"uint256[]"},{"internalType":"bytes","name":"data","type":"bytes"}],"name":"safeBatchTransferFromWithExpiration","outputs":[],"stateMutability":"nonpayable","type":"function"},{"inputs":[{"internalType":"address","name":"from","type":"address"},{"internalType":"address","name":"to","type":"address"},{"internalType":"uint256","name":"id","type":"uint256"},{"internalType":"uint256","name":"value","type":"uint256"},{"internalType":"bytes","name":"data","type":"bytes"}],"name":"safeTransferFrom","outputs":[],"stateMutability":"nonpayable","type":"function"},{"inputs":[{"internalType":"address","name":"from","type":"address"},{"internalType":"address","name":"to","type":"address"},{"internalType":"uint256","name":"id","type":"uint256"},{"internalType":"uint256","name":"amount","type":"uint256"},{"internalType":"uint256","name":"expirationTime","type":"uint256"},{"internalType":"bytes","name":"data","type":"bytes"}],"name":"safeTransferFromWithExpiration","outputs":[],"stateMutability":"nonpayable","type":"function"},{"inputs":[{"internalType":"address","name":"operator","type":"address"},{"internalType":"bool","name":"approved","type":"bool"}],"name":"setApprovalForAll","outputs":[],"stateMutability":"nonpayable","type":"function"},{"inputs":[{"internalType":"string","name":"baseURI","type":"string"}],"name":"setBaseURI","outputs":[],"stateMutability":"nonpayable","type":"function"},{"inputs":[{"internalType":"address","name":"account","type":"address"},{"internalType":"uint256[]","name":"ids","type":"uint256[]"},{"internalType":"uint256[]","name":"expirationTimes","type":"uint256[]"}],"name":"setBatchExpiration","outputs":[],"stateMutability":"nonpayable","type":"function"},{"inputs":[{"internalType":"address","name":"account","type":"address"},{"internalType":"uint256","name":"id","type":"uint256"},{"internalType":"uint256","name":"expirationTime","type":"uint256"}],"name":"setExpiration","outputs":[],"stateMutability":"nonpayable","type":"function"},{"inputs":[{"internalType":"uint256","name":"tokenId","type":"uint256"},{"internalType":"string","name":"tokenURI","type":"string"}],"name":"setTokenURI","outputs":[],"stateMutability":"nonpayable","type":"function"},{"inputs":[{"internalType":"string","name":"newuri","type":"string"}],"name":"setURI","outputs":[],"stateMutability":"nonpayable","type":"function"},{"inputs":[{"internalType":"bytes4","name":"interfaceId","type":"bytes4"}],"name":"supportsInterface","outputs":[{"internalType":"bool","name":"","type":"bool"}],"stateMutability":"view","type":"function"},{"inputs":[],"name":"totalSupply","outputs":[{"internalType":"uint256","name":"","type":"uint256"}],"stateMutability":"view","type":"function"},{"inputs":[{"internalType":"uint256","name":"id","type":"uint256"}],"name":"totalSupply","outputs":[{"internalType":"uint256","name":"","type":"uint256"}],"stateMutability":"view","type":"function"},{"inputs":[],"name":"unpause","outputs":[],"stateMutability":"nonpayable","type":"function"},{"inputs":[{"internalType":"uint256","name":"tokenId","type":"uint256"}],"name":"uri","outputs":[{"internalType":"string","name":"","type":"string"}],"stateMutability":"view","type":"function"}],"evm":{"bytecode":{"linkReferences":{},"object":"60806040526040518060200160405280600081525060079081620000249190620005b1565b506001600b553480156200003757600080fd5b506040516200596a3803806200596a83398181016040528101906200005d919062000702565b6040518060400160405280601d81526020017f68747470733a2f2f73616665696465612e6e65742f646f632f7b69647d000000815250620000a481620001ab60201b60201c565b506000600460006101000a81548160ff021916908315150217905550620000d56000801b84620001c060201b60201c565b50620001087f7804d923f43a17d325d77e781528e0793b2edd9890ab45fc64efd7b4b427744c84620001c060201b60201c565b506200013b7f65d7a28e3265b37a6474929f336521b332c1681b933f6cb9f3376673440d862a83620001c060201b60201c565b506200016e7f9f2df0fed2c77648de5860a4cc508cd0818c85b8b8a1ab4ceeef8d981c8956a682620001c060201b60201c565b50620001a17f5bd33557d028fa6327a6c10090602e75b5763bcbc8c9d2f602672edd0eee7a0882620001c060201b60201c565b505050506200075e565b8060029081620001bc9190620005b1565b5050565b6000620001d48383620002c460201b60201c565b620002b95760016003600085815260200190815260200160002060000160008473ffffffffffffffffffffffffffffffffffffffff1673ffffffffffffffffffffffffffffffffffffffff16815260200190815260200160002060006101000a81548160ff021916908315150217905550620002556200032f60201b60201c565b73ffffffffffffffffffffffffffffffffffffffff168273ffffffffffffffffffffffffffffffffffffffff16847f2f8788117e7eff1d82e926ec794901d17c78024a50270940304540a733656f0d60405160405180910390a460019050620002be565b600090505b92915050565b60006003600084815260200190815260200160002060000160008373ffffffffffffffffffffffffffffffffffffffff1673ffffffffffffffffffffffffffffffffffffffff16815260200190815260200160002060009054906101000a900460ff16905092915050565b600033905090565b600081519050919050565b7f4e487b7100000000000000000000000000000000000000000000000000000000600052604160045260246000fd5b7f4e487b7100000000000000000000000000000000000000000000000000000000600052602260045260246000fd5b60006002820490506001821680620003b957607f821691505b602082108103620003cf57620003ce62000371565b5b50919050565b60008190508160005260206000209050919050565b60006020601f8301049050919050565b600082821b905092915050565b600060088302620004397fffffffffffffffffffffffffffffffffffffffffffffffffffffffffffffffff82620003fa565b620004458683620003fa565b95508019841693508086168417925050509392505050565b6000819050919050565b6000819050919050565b6000620004926200048c62000486846200045d565b62000467565b6200045d565b9050919050565b6000819050919050565b620004ae8362000471565b620004c6620004bd8262000499565b84845462000407565b825550505050565b600090565b620004dd620004ce565b620004ea818484620004a3565b505050565b5b81811015620005125762000506600082620004d3565b600181019050620004f0565b5050565b601f82111562000561576200052b81620003d5565b6200053684620003ea565b8101602085101562000546578190505b6200055e6200055585620003ea565b830182620004ef565b50505b505050565b600082821c905092915050565b6000620005866000198460080262000566565b1980831691505092915050565b6000620005a1838362000573565b9150826002028217905092915050565b620005bc8262000337565b67ffffffffffffffff811115620005d857620005d762000342565b5b620005e48254620003a0565b620005f182828562000516565b600060209050601f83116001811462000629576000841562000614578287015190505b62000620858262000593565b86555062000690565b601f1984166200063986620003d5565b60005b8281101562000663578489015182556001820191506020850194506020810190506200063c565b868310156200068357848901516200067f601f89168262000573565b8355505b6001600288020188555050505b505050505050565b600080fd5b600073ffffffffffffffffffffffffffffffffffffffff82169050919050565b6000620006ca826200069d565b9050919050565b620006dc81620006bd565b8114620006e857600080fd5b50565b600081519050620006fc81620006d1565b92915050565b6000806000606084860312156200071e576200071d62000698565b5b60006200072e86828701620006eb565b93505060206200074186828701620006eb565b92505060406200075486828701620006eb565b9150509250925092565b6151fc806200076e6000396000f3fe608060405234801561001057600080fd5b50600436106102685760003560e01c806355f804b311610151578063a22cb465116100c3578063e63ab1e911610087578063e63ab1e914610765578063e985e9c514610783578063ee037bf9146107b3578063f07f5520146107e3578063f242432a146107ff578063f5298aca1461081b57610268565b8063a22cb465146106af578063bd85b039146106cb578063d5391393146106fb578063d547741f14610719578063e55697731461073557610268565b8063731133e911610115578063731133e9146105ed5780637f345710146106095780638456cb59146106275780638cadedce1461063157806391d1485414610661578063a217fddf1461069157610268565b806355f804b31461054b5780635c975abb1461056757806367614e62146105855780636a805813146105a15780636b20c454146105d157610268565b80631af189e1116101ea5780632f2ff15d116101ae5780632f2ff15d1461048b57806336568abe146104a75780633f4ba83a146104c35780634943f8f8146104cd5780634e1273f4146104eb5780634f558e791461051b57610268565b80631af189e1146103d75780631f7fdffa146103f3578063248a9ca31461040f5780632cac49c41461043f5780632eb2c2d61461046f57610268565b80630e89341c116102315780630e89341c146103215780631514979314610351578063162094c41461038157806318160ddd1461039d5780631a69d180146103bb57610268565b8062fdd58e1461026d57806301ffc9a71461029d57806302fe5305146102cd5780630866be00146102e957806309dca9ce14610305575b600080fd5b610287600480360381019061028291906136f8565b610837565b6040516102949190613747565b60405180910390f35b6102b760048036038101906102b291906137ba565b610912565b6040516102c49190613802565b60405180910390f35b6102e760048036038101906102e29190613963565b610924565b005b61030360048036038101906102fe9190613b15565b61095b565b005b61031f600480360381019061031a9190613d0b565b610b2f565b005b61033b60048036038101906103369190613d54565b610ba0565b6040516103489190613e00565b60405180910390f35b61036b600480360381019061036691906136f8565b610bb2565b6040516103789190613802565b60405180910390f35b61039b60048036038101906103969190613e22565b610c22565b005b6103a5610c5b565b6040516103b29190613747565b60405180910390f35b6103d560048036038101906103d09190613e7e565b610c65565b005b6103f160048036038101906103ec9190613f27565b610d53565b005b61040d60048036038101906104089190613f7a565b610e73565b005b61042960048036038101906104249190614035565b610eb0565b6040516104369190614071565b60405180910390f35b610459600480360381019061045491906136f8565b610ed0565b6040516104669190613747565b60405180910390f35b6104896004803603810190610484919061408c565b610f2b565b005b6104a560048036038101906104a0919061415b565b610fd3565b005b6104c160048036038101906104bc919061415b565b610ff5565b005b6104cb611070565b005b6104d56110a5565b6040516104e29190614071565b60405180910390f35b6105056004803603810190610500919061425e565b6110c9565b6040516105129190614394565b60405180910390f35b61053560048036038101906105309190613d54565b6111e2565b6040516105429190613802565b60405180910390f35b61056560048036038101906105609190613963565b6111f6565b005b61056f61122d565b60405161057c9190613802565b60405180910390f35b61059f600480360381019061059a91906143b6565b611244565b005b6105bb60048036038101906105b69190614441565b61144a565b6040516105c89190614394565b60405180910390f35b6105eb60048036038101906105e691906143b6565b6115b1565b005b610607600480360381019061060291906144fc565b61165d565b005b61061161169a565b60405161061e9190614071565b60405180910390f35b61062f6116be565b005b61064b6004803603810190610646919061457f565b6116f3565b6040516106589190613747565b60405180910390f35b61067b6004803603810190610676919061415b565b611759565b6040516106889190613802565b60405180910390f35b6106996117c4565b6040516106a69190614071565b60405180910390f35b6106c960048036038101906106c4919061462e565b6117cb565b005b6106e560048036038101906106e09190613d54565b6117e1565b6040516106f29190613747565b60405180910390f35b6107036117fe565b6040516107109190614071565b60405180910390f35b610733600480360381019061072e919061415b565b611822565b005b61074f600480360381019061074a9190614035565b611844565b60405161075c9190613747565b60405180910390f35b61076d611861565b60405161077a9190614071565b60405180910390f35b61079d6004803603810190610798919061466e565b611885565b6040516107aa9190613802565b60405180910390f35b6107cd60048036038101906107c89190613d54565b611919565b6040516107da9190614071565b60405180910390f35b6107fd60048036038101906107f89190614035565b611936565b005b610819600480360381019061081491906146ae565b61196d565b005b61083560048036038101906108309190613f27565b611a15565b005b6000806108448484611ac1565b905060008114806108815750600073ffffffffffffffffffffffffffffffffffffffff168473ffffffffffffffffffffffffffffffffffffffff16145b1561089057600091505061090c565b6000600c60008673ffffffffffffffffffffffffffffffffffffffff1673ffffffffffffffffffffffffffffffffffffffff1681526020019081526020016000206000858152602001908152602001600020549050600081141580156108f65750428111155b156109065760009250505061090c565b81925050505b92915050565b600061091d82611b1b565b9050919050565b7f7804d923f43a17d325d77e781528e0793b2edd9890ab45fc64efd7b4b427744c61094e81611b95565b61095782611ba9565b5050565b7f9f2df0fed2c77648de5860a4cc508cd0818c85b8b8a1ab4ceeef8d981c8956a661098581611b95565b82518551146109c9576040517f08c379a00000000000000000000000000000000000000000000000000000000081526004016109c0906147b7565b60405180910390fd5b6109d68787878786610f2b565b60005b8551811015610b255760008482815181106109f7576109f66147d7565b5b60200260200101511115610b1257838181518110610a1857610a176147d7565b5b6020026020010151600c60008973ffffffffffffffffffffffffffffffffffffffff1673ffffffffffffffffffffffffffffffffffffffff1681526020019081526020016000206000888481518110610a7457610a736147d7565b5b6020026020010151815260200190815260200160002081905550858181518110610aa157610aa06147d7565b5b60200260200101518773ffffffffffffffffffffffffffffffffffffffff167f1347ce935d48b1622e772cb855c5f27a0956e54f183acdd65752106fa013cd08868481518110610af457610af36147d7565b5b6020026020010151604051610b099190613747565b60405180910390a35b8080610b1d90614835565b9150506109d9565b5050505050505050565b7f9f2df0fed2c77648de5860a4cc508cd0818c85b8b8a1ab4ceeef8d981c8956a6610b5981611b95565b60005b8251811015610b9b57610b88838281518110610b7b57610b7a6147d7565b5b6020026020010151611bbc565b8080610b9390614835565b915050610b5c565b505050565b6060610bab82611c55565b9050919050565b600080600c60008573ffffffffffffffffffffffffffffffffffffffff1673ffffffffffffffffffffffffffffffffffffffff168152602001908152602001600020600084815260200190815260200160002054905060008114158015610c195750428111155b91505092915050565b7f7804d923f43a17d325d77e781528e0793b2edd9890ab45fc64efd7b4b427744c610c4c81611b95565b610c568383611d3a565b505050565b6000600654905090565b7f9f2df0fed2c77648de5860a4cc508cd0818c85b8b8a1ab4ceeef8d981c8956a6610c8f81611b95565b610c9c878787878661196d565b6000831115610d4a5782600c60008873ffffffffffffffffffffffffffffffffffffffff1673ffffffffffffffffffffffffffffffffffffffff168152602001908152602001600020600087815260200190815260200160002081905550848673ffffffffffffffffffffffffffffffffffffffff167f1347ce935d48b1622e772cb855c5f27a0956e54f183acdd65752106fa013cd0885604051610d419190613747565b60405180910390a35b50505050505050565b7f5bd33557d028fa6327a6c10090602e75b5763bcbc8c9d2f602672edd0eee7a08610d7d81611b95565b6000610d898585611ac1565b11610dc9576040517f08c379a0000000000000000000000000000000000000000000000000000000008152600401610dc0906148ef565b60405180910390fd5b81600c60008673ffffffffffffffffffffffffffffffffffffffff1673ffffffffffffffffffffffffffffffffffffffff168152602001908152602001600020600085815260200190815260200160002081905550828473ffffffffffffffffffffffffffffffffffffffff167f1347ce935d48b1622e772cb855c5f27a0956e54f183acdd65752106fa013cd0884604051610e659190613747565b60405180910390a350505050565b7f9f2df0fed2c77648de5860a4cc508cd0818c85b8b8a1ab4ceeef8d981c8956a6610e9d81611b95565b610ea985858585611d9f565b5050505050565b600060036000838152602001908152602001600020600101549050919050565b6000600c60008473ffffffffffffffffffffffffffffffffffffffff1673ffffffffffffffffffffffffffffffffffffffff168152602001908152602001600020600083815260200190815260200160002054905092915050565b6000610f35611e25565b90508073ffffffffffffffffffffffffffffffffffffffff168673ffffffffffffffffffffffffffffffffffffffff1614158015610f7a5750610f788682611885565b155b15610fbe5780866040517fe237d922000000000000000000000000000000000000000000000000000000008152600401610fb592919061491e565b60405180910390fd5b610fcb8686868686611e2d565b505050505050565b610fdc82610eb0565b610fe581611b95565b610fef8383611f25565b50505050565b610ffd611e25565b73ffffffffffffffffffffffffffffffffffffffff168173ffffffffffffffffffffffffffffffffffffffff1614611061576040517f6697b23200000000000000000000000000000000000000000000000000000000815260040160405180910390fd5b61106b8282612017565b505050565b7f65d7a28e3265b37a6474929f336521b332c1681b933f6cb9f3376673440d862a61109a81611b95565b6110a261210a565b50565b7f5bd33557d028fa6327a6c10090602e75b5763bcbc8c9d2f602672edd0eee7a0881565b6060815183511461110f576040517f08c379a0000000000000000000000000000000000000000000000000000000008152600401611106906149b9565b60405180910390fd5b6000835167ffffffffffffffff81111561112c5761112b613838565b5b60405190808252806020026020018201604052801561115a5781602001602082028036833780820191505090505b50905060005b84518110156111d7576111a785828151811061117f5761117e6147d7565b5b602002602001015185838151811061119a576111996147d7565b5b6020026020010151610837565b8282815181106111ba576111b96147d7565b5b602002602001018181525050806111d090614835565b9050611160565b508091505092915050565b6000806111ee836117e1565b119050919050565b7f7804d923f43a17d325d77e781528e0793b2edd9890ab45fc64efd7b4b427744c61122081611b95565b6112298261216d565b5050565b6000600460009054906101000a900460ff16905090565b7f5bd33557d028fa6327a6c10090602e75b5763bcbc8c9d2f602672edd0eee7a0861126e81611b95565b81518351146112b2576040517f08c379a00000000000000000000000000000000000000000000000000000000081526004016112a9906147b7565b60405180910390fd5b60005b83518110156114435760006112e4868684815181106112d7576112d66147d7565b5b6020026020010151611ac1565b11611324576040517f08c379a000000000000000000000000000000000000000000000000000000000815260040161131b906148ef565b60405180910390fd5b828181518110611337576113366147d7565b5b6020026020010151600c60008773ffffffffffffffffffffffffffffffffffffffff1673ffffffffffffffffffffffffffffffffffffffff1681526020019081526020016000206000868481518110611393576113926147d7565b5b60200260200101518152602001908152602001600020819055508381815181106113c0576113bf6147d7565b5b60200260200101518573ffffffffffffffffffffffffffffffffffffffff167f1347ce935d48b1622e772cb855c5f27a0956e54f183acdd65752106fa013cd08858481518110611413576114126147d7565b5b60200260200101516040516114289190613747565b60405180910390a3808061143b90614835565b9150506112b5565b5050505050565b60607f9f2df0fed2c77648de5860a4cc508cd0818c85b8b8a1ab4ceeef8d981c8956a661147681611b95565b83518551146114ba576040517f08c379a00000000000000000000000000000000000000000000000000000000081526004016114b190614a4b565b60405180910390fd5b6000855167ffffffffffffffff8111156114d7576114d6613838565b5b6040519080825280602002602001820160405280156115055781602001602082028036833780820191505090505b50905060005b86518110156115975761153787828151811061152a576115296147d7565b5b6020026020010151611bbc565b6009600088838151811061154e5761154d6147d7565b5b6020026020010151815260200190815260200160002054828281518110611578576115776147d7565b5b602002602001018181525050808061158f90614835565b91505061150b565b506115a487828787611d9f565b8092505050949350505050565b6115b9611e25565b73ffffffffffffffffffffffffffffffffffffffff168373ffffffffffffffffffffffffffffffffffffffff16141580156116025750611600836115fb611e25565b611885565b155b1561164d5761160f611e25565b836040517fe237d92200000000000000000000000000000000000000000000000000000000815260040161164492919061491e565b60405180910390fd5b611658838383612180565b505050565b7f9f2df0fed2c77648de5860a4cc508cd0818c85b8b8a1ab4ceeef8d981c8956a661168781611b95565b61169385858585612214565b5050505050565b7f7804d923f43a17d325d77e781528e0793b2edd9890ab45fc64efd7b4b427744c81565b7f65d7a28e3265b37a6474929f336521b332c1681b933f6cb9f3376673440d862a6116e881611b95565b6116f06122ad565b50565b60007f9f2df0fed2c77648de5860a4cc508cd0818c85b8b8a1ab4ceeef8d981c8956a661171f81611b95565b61172885611bbc565b60006009600087815260200190815260200160002054905061174c87828787612214565b8092505050949350505050565b60006003600084815260200190815260200160002060000160008373ffffffffffffffffffffffffffffffffffffffff1673ffffffffffffffffffffffffffffffffffffffff16815260200190815260200160002060009054906101000a900460ff16905092915050565b6000801b81565b6117dd6117d6611e25565b8383612310565b5050565b600060056000838152602001908152602001600020549050919050565b7f9f2df0fed2c77648de5860a4cc508cd0818c85b8b8a1ab4ceeef8d981c8956a681565b61182b82610eb0565b61183481611b95565b61183e8383612017565b50505050565b600060096000838152602001908152602001600020549050919050565b7f65d7a28e3265b37a6474929f336521b332c1681b933f6cb9f3376673440d862a81565b6000600160008473ffffffffffffffffffffffffffffffffffffffff1673ffffffffffffffffffffffffffffffffffffffff16815260200190815260200160002060008373ffffffffffffffffffffffffffffffffffffffff1673ffffffffffffffffffffffffffffffffffffffff16815260200190815260200160002060009054906101000a900460ff16905092915050565b6000600a6000838152602001908152602001600020549050919050565b7f9f2df0fed2c77648de5860a4cc508cd0818c85b8b8a1ab4ceeef8d981c8956a661196081611b95565b61196982611bbc565b5050565b6000611977611e25565b90508073ffffffffffffffffffffffffffffffffffffffff168673ffffffffffffffffffffffffffffffffffffffff16141580156119bc57506119ba8682611885565b155b15611a005780866040517fe237d9220000000000000000000000000000000000000000000000000000000081526004016119f792919061491e565b60405180910390fd5b611a0d8686868686612480565b505050505050565b611a1d611e25565b73ffffffffffffffffffffffffffffffffffffffff168373ffffffffffffffffffffffffffffffffffffffff1614158015611a665750611a6483611a5f611e25565b611885565b155b15611ab157611a73611e25565b836040517fe237d922000000000000000000000000000000000000000000000000000000008152600401611aa892919061491e565b60405180910390fd5b611abc83838361258b565b505050565b600080600083815260200190815260200160002060008473ffffffffffffffffffffffffffffffffffffffff1673ffffffffffffffffffffffffffffffffffffffff16815260200190815260200160002054905092915050565b60007f7965db0b000000000000000000000000000000000000000000000000000000007bffffffffffffffffffffffffffffffffffffffffffffffffffffffff1916827bffffffffffffffffffffffffffffffffffffffffffffffffffffffff19161480611b8e5750611b8d82612632565b5b9050919050565b611ba681611ba1611e25565b612714565b50565b8060029081611bb89190614c77565b5050565b6000600960008381526020019081526020016000205403611c52576000600b6000815480929190611bec90614835565b91905055905080600960008481526020019081526020016000208190555081600a60008381526020019081526020016000208190555080827fea3e0acfc42d04765cb7947585765a242d0fd12a634edfb22c44cf42a363b2b860405160405180910390a3505b50565b60606000600860008481526020019081526020016000208054611c7790614a9a565b80601f0160208091040260200160405190810160405280929190818152602001828054611ca390614a9a565b8015611cf05780601f10611cc557610100808354040283529160200191611cf0565b820191906000526020600020905b815481529060010190602001808311611cd357829003601f168201915b505050505090506000815111611d0e57611d0983612765565b611d32565b600781604051602001611d22929190614e08565b6040516020818303038152906040525b915050919050565b80600860008481526020019081526020016000209081611d5a9190614c77565b50817f6bb7ff708619ba0610cba295a58592e0451dee2622938c8755667688daf3529b611d8684610ba0565b604051611d939190613e00565b60405180910390a25050565b600073ffffffffffffffffffffffffffffffffffffffff168473ffffffffffffffffffffffffffffffffffffffff1603611e115760006040517f57f447ce000000000000000000000000000000000000000000000000000000008152600401611e089190614e2c565b60405180910390fd5b611e1f6000858585856127f9565b50505050565b600033905090565b600073ffffffffffffffffffffffffffffffffffffffff168473ffffffffffffffffffffffffffffffffffffffff1603611e9f5760006040517f57f447ce000000000000000000000000000000000000000000000000000000008152600401611e969190614e2c565b60405180910390fd5b600073ffffffffffffffffffffffffffffffffffffffff168573ffffffffffffffffffffffffffffffffffffffff1603611f115760006040517f01a83514000000000000000000000000000000000000000000000000000000008152600401611f089190614e2c565b60405180910390fd5b611f1e85858585856127f9565b5050505050565b6000611f318383611759565b61200c5760016003600085815260200190815260200160002060000160008473ffffffffffffffffffffffffffffffffffffffff1673ffffffffffffffffffffffffffffffffffffffff16815260200190815260200160002060006101000a81548160ff021916908315150217905550611fa9611e25565b73ffffffffffffffffffffffffffffffffffffffff168273ffffffffffffffffffffffffffffffffffffffff16847f2f8788117e7eff1d82e926ec794901d17c78024a50270940304540a733656f0d60405160405180910390a460019050612011565b600090505b92915050565b60006120238383611759565b156120ff5760006003600085815260200190815260200160002060000160008473ffffffffffffffffffffffffffffffffffffffff1673ffffffffffffffffffffffffffffffffffffffff16815260200190815260200160002060006101000a81548160ff02191690831515021790555061209c611e25565b73ffffffffffffffffffffffffffffffffffffffff168273ffffffffffffffffffffffffffffffffffffffff16847ff6391f5c32d9c69d2a47ea670b442974b53935d1edc7fd64eb21e047a839171b60405160405180910390a460019050612104565b600090505b92915050565b6121126128ab565b6000600460006101000a81548160ff0219169083151502179055507f5db9ee0a495bf2e6ff9c91a7834c1ba4fdd244a5e8aa4e537bd38aeae4b073aa612156611e25565b6040516121639190614e2c565b60405180910390a1565b806007908161217c9190614c77565b5050565b600073ffffffffffffffffffffffffffffffffffffffff168373ffffffffffffffffffffffffffffffffffffffff16036121f25760006040517f01a835140000000000000000000000000000000000000000000000000000000081526004016121e99190614e2c565b60405180910390fd5b61220f8360008484604051806020016040528060008152506127f9565b505050565b600073ffffffffffffffffffffffffffffffffffffffff168473ffffffffffffffffffffffffffffffffffffffff16036122865760006040517f57f447ce00000000000000000000000000000000000000000000000000000000815260040161227d9190614e2c565b60405180910390fd5b60008061229385856128eb565b915091506122a56000878484876127f9565b505050505050565b6122b561291b565b6001600460006101000a81548160ff0219169083151502179055507f62e78cea01bee320cd4e420270b5ea74000d11b0c9f74754ebdbfc544b05a2586122f9611e25565b6040516123069190614e2c565b60405180910390a1565b600073ffffffffffffffffffffffffffffffffffffffff168273ffffffffffffffffffffffffffffffffffffffff16036123825760006040517fced3e1000000000000000000000000000000000000000000000000000000000081526004016123799190614e2c565b60405180910390fd5b80600160008573ffffffffffffffffffffffffffffffffffffffff1673ffffffffffffffffffffffffffffffffffffffff16815260200190815260200160002060008473ffffffffffffffffffffffffffffffffffffffff1673ffffffffffffffffffffffffffffffffffffffff16815260200190815260200160002060006101000a81548160ff0219169083151502179055508173ffffffffffffffffffffffffffffffffffffffff168373ffffffffffffffffffffffffffffffffffffffff167f17307eab39ab6107e8899845ad3d59bd9653f200f220920489ca2b5937696c31836040516124739190613802565b60405180910390a3505050565b600073ffffffffffffffffffffffffffffffffffffffff168473ffffffffffffffffffffffffffffffffffffffff16036124f25760006040517f57f447ce0000000000000000000000000000000000000000000000000000000081526004016124e99190614e2c565b60405180910390fd5b600073ffffffffffffffffffffffffffffffffffffffff168573ffffffffffffffffffffffffffffffffffffffff16036125645760006040517f01a8351400000000000000000000000000000000000000000000000000000000815260040161255b9190614e2c565b60405180910390fd5b60008061257185856128eb565b9150915061258287878484876127f9565b50505050505050565b600073ffffffffffffffffffffffffffffffffffffffff168373ffffffffffffffffffffffffffffffffffffffff16036125fd5760006040517f01a835140000000000000000000000000000000000000000000000000000000081526004016125f49190614e2c565b60405180910390fd5b60008061260a84846128eb565b9150915061262b8560008484604051806020016040528060008152506127f9565b5050505050565b60007fd9b67a26000000000000000000000000000000000000000000000000000000007bffffffffffffffffffffffffffffffffffffffffffffffffffffffff1916827bffffffffffffffffffffffffffffffffffffffffffffffffffffffff191614806126fd57507f0e89341c000000000000000000000000000000000000000000000000000000007bffffffffffffffffffffffffffffffffffffffffffffffffffffffff1916827bffffffffffffffffffffffffffffffffffffffffffffffffffffffff1916145b8061270d575061270c8261295c565b5b9050919050565b61271e8282611759565b6127615780826040517fe2517d3f000000000000000000000000000000000000000000000000000000008152600401612758929190614e47565b60405180910390fd5b5050565b60606002805461277490614a9a565b80601f01602080910402602001604051908101604052809291908181526020018280546127a090614a9a565b80156127ed5780601f106127c2576101008083540402835291602001916127ed565b820191906000526020600020905b8154815290600101906020018083116127d057829003601f168201915b50505050509050919050565b612805858585856129c6565b600073ffffffffffffffffffffffffffffffffffffffff168473ffffffffffffffffffffffffffffffffffffffff16146128a4576000612843611e25565b90506001845103612893576000612864600086612d7590919063ffffffff16565b9050600061287c600086612d7590919063ffffffff16565b905061288c838989858589612d89565b50506128a2565b6128a1818787878787612f3d565b5b505b5050505050565b6128b361122d565b6128e9576040517f8dfc202b00000000000000000000000000000000000000000000000000000000815260040160405180910390fd5b565b60608060405191506001825283602083015260408201905060018152826020820152604081016040529250929050565b61292361122d565b1561295a576040517fd93c066500000000000000000000000000000000000000000000000000000000815260040160405180910390fd5b565b60007f01ffc9a7000000000000000000000000000000000000000000000000000000007bffffffffffffffffffffffffffffffffffffffffffffffffffffffff1916827bffffffffffffffffffffffffffffffffffffffffffffffffffffffff1916149050919050565b600073ffffffffffffffffffffffffffffffffffffffff168473ffffffffffffffffffffffffffffffffffffffff1614158015612a305750600073ffffffffffffffffffffffffffffffffffffffff168373ffffffffffffffffffffffffffffffffffffffff1614155b15612aa657612a667f9f2df0fed2c77648de5860a4cc508cd0818c85b8b8a1ab4ceeef8d981c8956a6612a61611e25565b611759565b612aa5576040517f08c379a0000000000000000000000000000000000000000000000000000000008152600401612a9c90614ee2565b60405180910390fd5b5b600073ffffffffffffffffffffffffffffffffffffffff168473ffffffffffffffffffffffffffffffffffffffff1614612c155760005b8251811015612c13576000828281518110612afb57612afa6147d7565b5b60200260200101511115612c00576000600c60008773ffffffffffffffffffffffffffffffffffffffff1673ffffffffffffffffffffffffffffffffffffffff1681526020019081526020016000206000858481518110612b5f57612b5e6147d7565b5b6020026020010151815260200190815260200160002054905060008114158015612b895750428111155b15612bfe57600073ffffffffffffffffffffffffffffffffffffffff168573ffffffffffffffffffffffffffffffffffffffff1614612bfd576040517f08c379a0000000000000000000000000000000000000000000000000000000008152600401612bf490614f74565b60405180910390fd5b5b505b8080612c0b90614835565b915050612add565b505b612c21848484846130f1565b600073ffffffffffffffffffffffffffffffffffffffff168373ffffffffffffffffffffffffffffffffffffffff1614158015612c8b5750600073ffffffffffffffffffffffffffffffffffffffff168473ffffffffffffffffffffffffffffffffffffffff1614155b15612d6f5760005b8251811015612d6d576000828281518110612cb157612cb06147d7565b5b60200260200101511115612d5a576000612ce586858481518110612cd857612cd76147d7565b5b6020026020010151611ac1565b03612d5957600c60008673ffffffffffffffffffffffffffffffffffffffff1673ffffffffffffffffffffffffffffffffffffffff1681526020019081526020016000206000848381518110612d3e57612d3d6147d7565b5b60200260200101518152602001908152602001600020600090555b5b8080612d6590614835565b915050612c93565b505b50505050565b600060208202602084010151905092915050565b60008473ffffffffffffffffffffffffffffffffffffffff163b1115612f35578373ffffffffffffffffffffffffffffffffffffffff1663f23a6e6187878686866040518663ffffffff1660e01b8152600401612dea959493929190614fe9565b6020604051808303816000875af1925050508015612e2657506040513d601f19601f82011682018060405250810190612e239190615058565b60015b612eaa573d8060008114612e56576040519150601f19603f3d011682016040523d82523d6000602084013e612e5b565b606091505b506000815103612ea257846040517f57f447ce000000000000000000000000000000000000000000000000000000008152600401612e999190614e2c565b60405180910390fd5b805181602001fd5b63f23a6e6160e01b7bffffffffffffffffffffffffffffffffffffffffffffffffffffffff1916817bffffffffffffffffffffffffffffffffffffffffffffffffffffffff191614612f3357846040517f57f447ce000000000000000000000000000000000000000000000000000000008152600401612f2a9190614e2c565b60405180910390fd5b505b505050505050565b60008473ffffffffffffffffffffffffffffffffffffffff163b11156130e9578373ffffffffffffffffffffffffffffffffffffffff1663bc197c8187878686866040518663ffffffff1660e01b8152600401612f9e959493929190615085565b6020604051808303816000875af1925050508015612fda57506040513d601f19601f82011682018060405250810190612fd79190615058565b60015b61305e573d806000811461300a576040519150601f19603f3d011682016040523d82523d6000602084013e61300f565b606091505b50600081510361305657846040517f57f447ce00000000000000000000000000000000000000000000000000000000815260040161304d9190614e2c565b60405180910390fd5b805181602001fd5b63bc197c8160e01b7bffffffffffffffffffffffffffffffffffffffffffffffffffffffff1916817bffffffffffffffffffffffffffffffffffffffffffffffffffffffff1916146130e757846040517f57f447ce0000000000000000000000000000000000000000000000000000000081526004016130de9190614e2c565b60405180910390fd5b505b505050505050565b6130fd84848484613288565b600073ffffffffffffffffffffffffffffffffffffffff168473ffffffffffffffffffffffffffffffffffffffff16036131cd576000805b83518110156131b15760006131538285612d7590919063ffffffff16565b9050806005600061316d8589612d7590919063ffffffff16565b8152602001908152602001600020600082825461318a91906150ed565b92505081905550808361319d91906150ed565b925050806131aa90614835565b9050613135565b5080600660008282546131c491906150ed565b92505081905550505b600073ffffffffffffffffffffffffffffffffffffffff168373ffffffffffffffffffffffffffffffffffffffff1603613282576000805b835181101561326f5760006132238285612d7590919063ffffffff16565b9050806005600061323d8589612d7590919063ffffffff16565b8152602001908152602001600020600082825403925050819055508083019250508061326890614835565b9050613205565b5080600660008282540392505081905550505b50505050565b61329061291b565b61329c848484846132a2565b50505050565b80518251146132ec57815181516040517f5b0599910000000000000000000000000000000000000000000000000000000081526004016132e3929190615121565b60405180910390fd5b60006132f6611e25565b905060005b835181101561350b5760006133198286612d7590919063ffffffff16565b905060006133308386612d7590919063ffffffff16565b9050600073ffffffffffffffffffffffffffffffffffffffff168873ffffffffffffffffffffffffffffffffffffffff161461345d57600080600084815260200190815260200160002060008a73ffffffffffffffffffffffffffffffffffffffff1673ffffffffffffffffffffffffffffffffffffffff1681526020019081526020016000205490508181101561340557888183856040517f03dee4c50000000000000000000000000000000000000000000000000000000081526004016133fc949392919061514a565b60405180910390fd5b81810360008085815260200190815260200160002060008b73ffffffffffffffffffffffffffffffffffffffff1673ffffffffffffffffffffffffffffffffffffffff16815260200190815260200160002081905550505b600073ffffffffffffffffffffffffffffffffffffffff168773ffffffffffffffffffffffffffffffffffffffff16146134f8578060008084815260200190815260200160002060008973ffffffffffffffffffffffffffffffffffffffff1673ffffffffffffffffffffffffffffffffffffffff16815260200190815260200160002060008282546134f091906150ed565b925050819055505b50508061350490614835565b90506132fb565b5060018351036135ca57600061352b600085612d7590919063ffffffff16565b90506000613543600085612d7590919063ffffffff16565b90508573ffffffffffffffffffffffffffffffffffffffff168773ffffffffffffffffffffffffffffffffffffffff168473ffffffffffffffffffffffffffffffffffffffff167fc3d58168c5ae7397731d063d5bbf3d657854427343f4c083240f7aacaa2d0f6285856040516135bb929190615121565b60405180910390a45050613649565b8373ffffffffffffffffffffffffffffffffffffffff168573ffffffffffffffffffffffffffffffffffffffff168273ffffffffffffffffffffffffffffffffffffffff167f4a39dc06d4c0dbc64b70af90fd698a233a518aa5d07e595d983b8c0526c8f7fb868660405161364092919061518f565b60405180910390a45b5050505050565b6000604051905090565b600080fd5b600080fd5b600073ffffffffffffffffffffffffffffffffffffffff82169050919050565b600061368f82613664565b9050919050565b61369f81613684565b81146136aa57600080fd5b50565b6000813590506136bc81613696565b92915050565b6000819050919050565b6136d5816136c2565b81146136e057600080fd5b50565b6000813590506136f2816136cc565b92915050565b6000806040838503121561370f5761370e61365a565b5b600061371d858286016136ad565b925050602061372e858286016136e3565b9150509250929050565b613741816136c2565b82525050565b600060208201905061375c6000830184613738565b92915050565b60007fffffffff0000000000000000000000000000000000000000000000000000000082169050919050565b61379781613762565b81146137a257600080fd5b50565b6000813590506137b48161378e565b92915050565b6000602082840312156137d0576137cf61365a565b5b60006137de848285016137a5565b91505092915050565b60008115159050919050565b6137fc816137e7565b82525050565b600060208201905061381760008301846137f3565b92915050565b600080fd5b600080fd5b6000601f19601f8301169050919050565b7f4e487b7100000000000000000000000000000000000000000000000000000000600052604160045260246000fd5b61387082613827565b810181811067ffffffffffffffff8211171561388f5761388e613838565b5b80604052505050565b60006138a2613650565b90506138ae8282613867565b919050565b600067ffffffffffffffff8211156138ce576138cd613838565b5b6138d782613827565b9050602081019050919050565b82818337600083830152505050565b6000613906613901846138b3565b613898565b90508281526020810184848401111561392257613921613822565b5b61392d8482856138e4565b509392505050565b600082601f83011261394a5761394961381d565b5b813561395a8482602086016138f3565b91505092915050565b6000602082840312156139795761397861365a565b5b600082013567ffffffffffffffff8111156139975761399661365f565b5b6139a384828501613935565b91505092915050565b600067ffffffffffffffff8211156139c7576139c6613838565b5b602082029050602081019050919050565b600080fd5b60006139f06139eb846139ac565b613898565b90508083825260208201905060208402830185811115613a1357613a126139d8565b5b835b81811015613a3c5780613a2888826136e3565b845260208401935050602081019050613a15565b5050509392505050565b600082601f830112613a5b57613a5a61381d565b5b8135613a6b8482602086016139dd565b91505092915050565b600067ffffffffffffffff821115613a8f57613a8e613838565b5b613a9882613827565b9050602081019050919050565b6000613ab8613ab384613a74565b613898565b905082815260208101848484011115613ad457613ad3613822565b5b613adf8482856138e4565b509392505050565b600082601f830112613afc57613afb61381d565b5b8135613b0c848260208601613aa5565b91505092915050565b60008060008060008060c08789031215613b3257613b3161365a565b5b6000613b4089828a016136ad565b9650506020613b5189828a016136ad565b955050604087013567ffffffffffffffff811115613b7257613b7161365f565b5b613b7e89828a01613a46565b945050606087013567ffffffffffffffff811115613b9f57613b9e61365f565b5b613bab89828a01613a46565b935050608087013567ffffffffffffffff811115613bcc57613bcb61365f565b5b613bd889828a01613a46565b92505060a087013567ffffffffffffffff811115613bf957613bf861365f565b5b613c0589828a01613ae7565b9150509295509295509295565b600067ffffffffffffffff821115613c2d57613c2c613838565b5b602082029050602081019050919050565b6000819050919050565b613c5181613c3e565b8114613c5c57600080fd5b50565b600081359050613c6e81613c48565b92915050565b6000613c87613c8284613c12565b613898565b90508083825260208201905060208402830185811115613caa57613ca96139d8565b5b835b81811015613cd35780613cbf8882613c5f565b845260208401935050602081019050613cac565b5050509392505050565b600082601f830112613cf257613cf161381d565b5b8135613d02848260208601613c74565b91505092915050565b600060208284031215613d2157613d2061365a565b5b600082013567ffffffffffffffff811115613d3f57613d3e61365f565b5b613d4b84828501613cdd565b91505092915050565b600060208284031215613d6a57613d6961365a565b5b6000613d78848285016136e3565b91505092915050565b600081519050919050565b600082825260208201905092915050565b60005b83811015613dbb578082015181840152602081019050613da0565b60008484015250505050565b6000613dd282613d81565b613ddc8185613d8c565b9350613dec818560208601613d9d565b613df581613827565b840191505092915050565b60006020820190508181036000830152613e1a8184613dc7565b905092915050565b60008060408385031215613e3957613e3861365a565b5b6000613e47858286016136e3565b925050602083013567ffffffffffffffff811115613e6857613e6761365f565b5b613e7485828601613935565b9150509250929050565b60008060008060008060c08789031215613e9b57613e9a61365a565b5b6000613ea989828a016136ad565b9650506020613eba89828a016136ad565b9550506040613ecb89828a016136e3565b9450506060613edc89828a016136e3565b9350506080613eed89828a016136e3565b92505060a087013567ffffffffffffffff811115613f0e57613f0d61365f565b5b613f1a89828a01613ae7565b9150509295509295509295565b600080600060608486031215613f4057613f3f61365a565b5b6000613f4e868287016136ad565b9350506020613f5f868287016136e3565b9250506040613f70868287016136e3565b9150509250925092565b60008060008060808587031215613f9457613f9361365a565b5b6000613fa2878288016136ad565b945050602085013567ffffffffffffffff811115613fc357613fc261365f565b5b613fcf87828801613a46565b935050604085013567ffffffffffffffff811115613ff057613fef61365f565b5b613ffc87828801613a46565b925050606085013567ffffffffffffffff81111561401d5761401c61365f565b5b61402987828801613ae7565b91505092959194509250565b60006020828403121561404b5761404a61365a565b5b600061405984828501613c5f565b91505092915050565b61406b81613c3e565b82525050565b60006020820190506140866000830184614062565b92915050565b600080600080600060a086880312156140a8576140a761365a565b5b60006140b6888289016136ad565b95505060206140c7888289016136ad565b945050604086013567ffffffffffffffff8111156140e8576140e761365f565b5b6140f488828901613a46565b935050606086013567ffffffffffffffff8111156141155761411461365f565b5b61412188828901613a46565b925050608086013567ffffffffffffffff8111156141425761414161365f565b5b61414e88828901613ae7565b9150509295509295909350565b600080604083850312156141725761417161365a565b5b600061418085828601613c5f565b9250506020614191858286016136ad565b9150509250929050565b600067ffffffffffffffff8211156141b6576141b5613838565b5b602082029050602081019050919050565b60006141da6141d58461419b565b613898565b905080838252602082019050602084028301858111156141fd576141fc6139d8565b5b835b81811015614226578061421288826136ad565b8452602084019350506020810190506141ff565b5050509392505050565b600082601f8301126142455761424461381d565b5b81356142558482602086016141c7565b91505092915050565b600080604083850312156142755761427461365a565b5b600083013567ffffffffffffffff8111156142935761429261365f565b5b61429f85828601614230565b925050602083013567ffffffffffffffff8111156142c0576142bf61365f565b5b6142cc85828601613a46565b9150509250929050565b600081519050919050565b600082825260208201905092915050565b6000819050602082019050919050565b61430b816136c2565b82525050565b600061431d8383614302565b60208301905092915050565b6000602082019050919050565b6000614341826142d6565b61434b81856142e1565b9350614356836142f2565b8060005b8381101561438757815161436e8882614311565b975061437983614329565b92505060018101905061435a565b5085935050505092915050565b600060208201905081810360008301526143ae8184614336565b905092915050565b6000806000606084860312156143cf576143ce61365a565b5b60006143dd868287016136ad565b935050602084013567ffffffffffffffff8111156143fe576143fd61365f565b5b61440a86828701613a46565b925050604084013567ffffffffffffffff81111561442b5761442a61365f565b5b61443786828701613a46565b9150509250925092565b6000806000806080858703121561445b5761445a61365a565b5b6000614469878288016136ad565b945050602085013567ffffffffffffffff81111561448a5761448961365f565b5b61449687828801613cdd565b935050604085013567ffffffffffffffff8111156144b7576144b661365f565b5b6144c387828801613a46565b925050606085013567ffffffffffffffff8111156144e4576144e361365f565b5b6144f087828801613ae7565b91505092959194509250565b600080600080608085870312156145165761451561365a565b5b6000614524878288016136ad565b9450506020614535878288016136e3565b9350506040614546878288016136e3565b925050606085013567ffffffffffffffff8111156145675761456661365f565b5b61457387828801613ae7565b91505092959194509250565b600080600080608085870312156145995761459861365a565b5b60006145a7878288016136ad565b94505060206145b887828801613c5f565b93505060406145c9878288016136e3565b925050606085013567ffffffffffffffff8111156145ea576145e961365f565b5b6145f687828801613ae7565b91505092959194509250565b61460b816137e7565b811461461657600080fd5b50565b60008135905061462881614602565b92915050565b600080604083850312156146455761464461365a565b5b6000614653858286016136ad565b925050602061466485828601614619565b9150509250929050565b600080604083850312156146855761468461365a565b5b6000614693858286016136ad565b92505060206146a4858286016136ad565b9150509250929050565b600080600080600060a086880312156146ca576146c961365a565b5b60006146d8888289016136ad565b95505060206146e9888289016136ad565b94505060406146fa888289016136e3565b935050606061470b888289016136e3565b925050608086013567ffffffffffffffff81111561472c5761472b61365f565b5b61473888828901613ae7565b9150509295509295909350565b7f4950446f635631303a2069647320616e642065787069726174696f6e54696d6560008201527f73206c656e677468206d69736d61746368000000000000000000000000000000602082015250565b60006147a1603183613d8c565b91506147ac82614745565b604082019050919050565b600060208201905081810360008301526147d081614794565b9050919050565b7f4e487b7100000000000000000000000000000000000000000000000000000000600052603260045260246000fd5b7f4e487b7100000000000000000000000000000000000000000000000000000000600052601160045260246000fd5b6000614840826136c2565b91507fffffffffffffffffffffffffffffffffffffffffffffffffffffffffffffffff820361487257614871614806565b5b600182019050919050565b7f4950446f635631303a204163636f756e7420686173206e6f2062616c616e636560008201527f20746f2065787069726500000000000000000000000000000000000000000000602082015250565b60006148d9602a83613d8c565b91506148e48261487d565b604082019050919050565b60006020820190508181036000830152614908816148cc565b9050919050565b61491881613684565b82525050565b6000604082019050614933600083018561490f565b614940602083018461490f565b9392505050565b7f4950446f635631303a206163636f756e747320616e6420696473206c656e677460008201527f68206d69736d6174636800000000000000000000000000000000000000000000602082015250565b60006149a3602a83613d8c565b91506149ae82614947565b604082019050919050565b600060208201905081810360008301526149d281614996565b9050919050565b7f4950446f635631303a2065787465726e616c49647320616e6420616d6f756e7460008201527f73206c656e677468206d69736d61746368000000000000000000000000000000602082015250565b6000614a35603183613d8c565b9150614a40826149d9565b604082019050919050565b60006020820190508181036000830152614a6481614a28565b9050919050565b7f4e487b7100000000000000000000000000000000000000000000000000000000600052602260045260246000fd5b60006002820490506001821680614ab257607f821691505b602082108103614ac557614ac4614a6b565b5b50919050565b60008190508160005260206000209050919050565b60006020601f8301049050919050565b600082821b905092915050565b600060088302614b2d7fffffffffffffffffffffffffffffffffffffffffffffffffffffffffffffffff82614af0565b614b378683614af0565b95508019841693508086168417925050509392505050565b6000819050919050565b6000614b74614b6f614b6a846136c2565b614b4f565b6136c2565b9050919050565b6000819050919050565b614b8e83614b59565b614ba2614b9a82614b7b565b848454614afd565b825550505050565b600090565b614bb7614baa565b614bc2818484614b85565b505050565b5b81811015614be657614bdb600082614baf565b600181019050614bc8565b5050565b601f821115614c2b57614bfc81614acb565b614c0584614ae0565b81016020851015614c14578190505b614c28614c2085614ae0565b830182614bc7565b50505b505050565b600082821c905092915050565b6000614c4e60001984600802614c30565b1980831691505092915050565b6000614c678383614c3d565b9150826002028217905092915050565b614c8082613d81565b67ffffffffffffffff811115614c9957614c98613838565b5b614ca38254614a9a565b614cae828285614bea565b600060209050601f831160018114614ce15760008415614ccf578287015190505b614cd98582614c5b565b865550614d41565b601f198416614cef86614acb565b60005b82811015614d1757848901518255600182019150602085019450602081019050614cf2565b86831015614d345784890151614d30601f891682614c3d565b8355505b6001600288020188555050505b505050505050565b600081905092915050565b60008154614d6181614a9a565b614d6b8186614d49565b94506001821660008114614d865760018114614d9b57614dce565b60ff1983168652811515820286019350614dce565b614da485614acb565b60005b83811015614dc657815481890152600182019150602081019050614da7565b838801955050505b50505092915050565b6000614de282613d81565b614dec8185614d49565b9350614dfc818560208601613d9d565b80840191505092915050565b6000614e148285614d54565b9150614e208284614dd7565b91508190509392505050565b6000602082019050614e41600083018461490f565b92915050565b6000604082019050614e5c600083018561490f565b614e696020830184614062565b9392505050565b7f4950446f635631303a206d7573742068617665206d696e74657220726f6c652060008201527f746f207472616e73666572000000000000000000000000000000000000000000602082015250565b6000614ecc602b83613d8c565b9150614ed782614e70565b604082019050919050565b60006020820190508181036000830152614efb81614ebf565b9050919050565b7f4950446f635631303a2043616e6e6f74207472616e736665722065787069726560008201527f6420746f6b656e732065786365707420746f206275726e000000000000000000602082015250565b6000614f5e603783613d8c565b9150614f6982614f02565b604082019050919050565b60006020820190508181036000830152614f8d81614f51565b9050919050565b600081519050919050565b600082825260208201905092915050565b6000614fbb82614f94565b614fc58185614f9f565b9350614fd5818560208601613d9d565b614fde81613827565b840191505092915050565b600060a082019050614ffe600083018861490f565b61500b602083018761490f565b6150186040830186613738565b6150256060830185613738565b81810360808301526150378184614fb0565b90509695505050505050565b6000815190506150528161378e565b92915050565b60006020828403121561506e5761506d61365a565b5b600061507c84828501615043565b91505092915050565b600060a08201905061509a600083018861490f565b6150a7602083018761490f565b81810360408301526150b98186614336565b905081810360608301526150cd8185614336565b905081810360808301526150e18184614fb0565b90509695505050505050565b60006150f8826136c2565b9150615103836136c2565b925082820190508082111561511b5761511a614806565b5b92915050565b60006040820190506151366000830185613738565b6151436020830184613738565b9392505050565b600060808201905061515f600083018761490f565b61516c6020830186613738565b6151796040830185613738565b6151866060830184613738565b95945050505050565b600060408201905081810360008301526151a98185614336565b905081810360208301526151bd8184614336565b9050939250505056fea2646970667358221220c344f1bed1a30e13839cadbca824ae4b7b90b9ff3dbf80282a48c940c0a4908c64736f6c63430008140033","opcodes":"PUSH1 0x80 PUSH1 0x40 MSTORE PUSH1 0x40 MLOAD DUP1 PUSH1 0x20 ADD PUSH1 0x40 MSTORE DUP1 PUSH1 0x0 DUP2 MSTORE POP PUSH1 0x7 SWAP1 DUP2 PUSH3 0x24 SWAP2 SWAP1 PUSH3 0x5B1 JUMP JUMPDEST POP PUSH1 0x1 PUSH1 0xB SSTORE CALLVALUE DUP1 ISZERO PUSH3 0x37 JUMPI PUSH1 0x0 DUP1 REVERT JUMPDEST POP PUSH1 0x40 MLOAD PUSH3 0x596A CODESIZE SUB DUP1 PUSH3 0x596A DUP4 CODECOPY DUP2 DUP2 ADD PUSH1 0x40 MSTORE DUP2 ADD SWAP1 PUSH3 0x5D SWAP2 SWAP1 PUSH3 0x702 JUMP JUMPDEST PUSH1 0x40 MLOAD DUP1 PUSH1 0x40 ADD PUSH1 0x40 MSTORE DUP1 PUSH1 0x1D DUP2 MSTORE PUSH1 0x20 ADD PUSH32 0x68747470733A2F2F73616665696465612E6E65742F646F632F7B69647D000000 DUP2 MSTORE POP PUSH3 0xA4 DUP2 PUSH3 0x1AB PUSH1 0x20 SHL PUSH1 0x20 SHR JUMP JUMPDEST POP PUSH1 0x0 PUSH1 0x4 PUSH1 0x0 PUSH2 0x100 EXP DUP2 SLOAD DUP2 PUSH1 0xFF MUL NOT AND SWAP1 DUP4 ISZERO ISZERO MUL OR SWAP1 SSTORE POP PUSH3 0xD5 PUSH1 0x0 DUP1 SHL DUP5 PUSH3 0x1C0 PUSH1 0x20 SHL PUSH1 0x20 SHR JUMP JUMPDEST POP PUSH3 0x108 PUSH32 0x7804D923F43A17D325D77E781528E0793B2EDD9890AB45FC64EFD7B4B427744C DUP5 PUSH3 0x1C0 PUSH1 0x20 SHL PUSH1 0x20 SHR JUMP JUMPDEST POP PUSH3 0x13B PUSH32 0x65D7A28E3265B37A6474929F336521B332C1681B933F6CB9F3376673440D862A DUP4 PUSH3 0x1C0 PUSH1 0x20 SHL PUSH1 0x20 SHR JUMP JUMPDEST POP PUSH3 0x16E PUSH32 0x9F2DF0FED2C77648DE5860A4CC508CD0818C85B8B8A1AB4CEEEF8D981C8956A6 DUP3 PUSH3 0x1C0 PUSH1 0x20 SHL PUSH1 0x20 SHR JUMP JUMPDEST POP PUSH3 0x1A1 PUSH32 0x5BD33557D028FA6327A6C10090602E75B5763BCBC8C9D2F602672EDD0EEE7A08 DUP3 PUSH3 0x1C0 PUSH1 0x20 SHL PUSH1 0x20 SHR JUMP JUMPDEST POP POP POP POP PUSH3 0x75E JUMP JUMPDEST DUP1 PUSH1 0x2 SWAP1 DUP2 PUSH3 0x1BC SWAP2 SWAP1 PUSH3 0x5B1 JUMP JUMPDEST POP POP JUMP JUMPDEST PUSH1 0x0 PUSH3 0x1D4 DUP4 DUP4 PUSH3 0x2C4 PUSH1 0x20 SHL PUSH1 0x20 SHR JUMP JUMPDEST PUSH3 0x2B9 JUMPI PUSH1 0x1 PUSH1 0x3 PUSH1 0x0 DUP6 DUP2 MSTORE PUSH1 0x20 ADD SWAP1 DUP2 MSTORE PUSH1 0x20 ADD PUSH1 0x0 KECCAK256 PUSH1 0x0 ADD PUSH1 0x0 DUP5 PUSH20 0xFFFFFFFFFFFFFFFFFFFFFFFFFFFFFFFFFFFFFFFF AND PUSH20 0xFFFFFFFFFFFFFFFFFFFFFFFFFFFFFFFFFFFFFFFF AND DUP2 MSTORE PUSH1 0x20 ADD SWAP1 DUP2 MSTORE PUSH1 0x20 ADD PUSH1 0x0 KECCAK256 PUSH1 0x0 PUSH2 0x100 EXP DUP2 SLOAD DUP2 PUSH1 0xFF MUL NOT AND SWAP1 DUP4 ISZERO ISZERO MUL OR SWAP1 SSTORE POP PUSH3 0x255 PUSH3 0x32F PUSH1 0x20 SHL PUSH1 0x20 SHR JUMP JUMPDEST PUSH20 0xFFFFFFFFFFFFFFFFFFFFFFFFFFFFFFFFFFFFFFFF AND DUP3 PUSH20 0xFFFFFFFFFFFFFFFFFFFFFFFFFFFFFFFFFFFFFFFF AND DUP5 PUSH32 0x2F8788117E7EFF1D82E926EC794901D17C78024A50270940304540A733656F0D PUSH1 0x40 MLOAD PUSH1 0x40 MLOAD DUP1 SWAP2 SUB SWAP1 LOG4 PUSH1 0x1 SWAP1 POP PUSH3 0x2BE JUMP JUMPDEST PUSH1 0x0 SWAP1 POP JUMPDEST SWAP3 SWAP2 POP POP JUMP JUMPDEST PUSH1 0x0 PUSH1 0x3 PUSH1 0x0 DUP5 DUP2 MSTORE PUSH1 0x20 ADD SWAP1 DUP2 MSTORE PUSH1 0x20 ADD PUSH1 0x0 KECCAK256 PUSH1 0x0 ADD PUSH1 0x0 DUP4 PUSH20 0xFFFFFFFFFFFFFFFFFFFFFFFFFFFFFFFFFFFFFFFF AND PUSH20 0xFFFFFFFFFFFFFFFFFFFFFFFFFFFFFFFFFFFFFFFF AND DUP2 MSTORE PUSH1 0x20 ADD SWAP1 DUP2 MSTORE PUSH1 0x20 ADD PUSH1 0x0 KECCAK256 PUSH1 0x0 SWAP1 SLOAD SWAP1 PUSH2 0x100 EXP SWAP1 DIV PUSH1 0xFF AND SWAP1 POP SWAP3 SWAP2 POP POP JUMP JUMPDEST PUSH1 0x0 CALLER SWAP1 POP SWAP1 JUMP JUMPDEST PUSH1 0x0 DUP2 MLOAD SWAP1 POP SWAP2 SWAP1 POP JUMP JUMPDEST PUSH32 0x4E487B7100000000000000000000000000000000000000000000000000000000 PUSH1 0x0 MSTORE PUSH1 0x41 PUSH1 0x4 MSTORE PUSH1 0x24 PUSH1 0x0 REVERT JUMPDEST PUSH32 0x4E487B7100000000000000000000000000000000000000000000000000000000 PUSH1 0x0 MSTORE PUSH1 0x22 PUSH1 0x4 MSTORE PUSH1 0x24 PUSH1 0x0 REVERT JUMPDEST PUSH1 0x0 PUSH1 0x2 DUP3 DIV SWAP1 POP PUSH1 0x1 DUP3 AND DUP1 PUSH3 0x3B9 JUMPI PUSH1 0x7F DUP3 AND SWAP2 POP JUMPDEST PUSH1 0x20 DUP3 LT DUP2 SUB PUSH3 0x3CF JUMPI PUSH3 0x3CE PUSH3 0x371 JUMP JUMPDEST JUMPDEST POP SWAP2 SWAP1 POP JUMP JUMPDEST PUSH1 0x0 DUP2 SWAP1 POP DUP2 PUSH1 0x0 MSTORE PUSH1 0x20 PUSH1 0x0 KECCAK256 SWAP1 POP SWAP2 SWAP1 POP JUMP JUMPDEST PUSH1 0x0 PUSH1 0x20 PUSH1 0x1F DUP4 ADD DIV SWAP1 POP SWAP2 SWAP1 POP JUMP JUMPDEST PUSH1 0x0 DUP3 DUP3 SHL SWAP1 POP SWAP3 SWAP2 POP POP JUMP JUMPDEST PUSH1 0x0 PUSH1 0x8 DUP4 MUL PUSH3 0x439 PUSH32 0xFFFFFFFFFFFFFFFFFFFFFFFFFFFFFFFFFFFFFFFFFFFFFFFFFFFFFFFFFFFFFFFF DUP3 PUSH3 0x3FA JUMP JUMPDEST PUSH3 0x445 DUP7 DUP4 PUSH3 0x3FA JUMP JUMPDEST SWAP6 POP DUP1 NOT DUP5 AND SWAP4 POP DUP1 DUP7 AND DUP5 OR SWAP3 POP POP POP SWAP4 SWAP3 POP POP POP JUMP JUMPDEST PUSH1 0x0 DUP2 SWAP1 POP SWAP2 SWAP1 POP JUMP JUMPDEST PUSH1 0x0 DUP2 SWAP1 POP SWAP2 SWAP1 POP JUMP JUMPDEST PUSH1 0x0 PUSH3 0x492 PUSH3 0x48C PUSH3 0x486 DUP5 PUSH3 0x45D JUMP JUMPDEST PUSH3 0x467 JUMP JUMPDEST PUSH3 0x45D JUMP JUMPDEST SWAP1 POP SWAP2 SWAP1 POP JUMP JUMPDEST PUSH1 0x0 DUP2 SWAP1 POP SWAP2 SWAP1 POP JUMP JUMPDEST PUSH3 0x4AE DUP4 PUSH3 0x471 JUMP JUMPDEST PUSH3 0x4C6 PUSH3 0x4BD DUP3 PUSH3 0x499 JUMP JUMPDEST DUP5 DUP5 SLOAD PUSH3 0x407 JUMP JUMPDEST DUP3 SSTORE POP POP POP POP JUMP JUMPDEST PUSH1 0x0 SWAP1 JUMP JUMPDEST PUSH3 0x4DD PUSH3 0x4CE JUMP JUMPDEST PUSH3 0x4EA DUP2 DUP5 DUP5 PUSH3 0x4A3 JUMP JUMPDEST POP POP POP JUMP JUMPDEST JUMPDEST DUP2 DUP2 LT ISZERO PUSH3 0x512 JUMPI PUSH3 0x506 PUSH1 0x0 DUP3 PUSH3 0x4D3 JUMP JUMPDEST PUSH1 0x1 DUP2 ADD SWAP1 POP PUSH3 0x4F0 JUMP JUMPDEST POP POP JUMP JUMPDEST PUSH1 0x1F DUP3 GT ISZERO PUSH3 0x561 JUMPI PUSH3 0x52B DUP2 PUSH3 0x3D5 JUMP JUMPDEST PUSH3 0x536 DUP5 PUSH3 0x3EA JUMP JUMPDEST DUP2 ADD PUSH1 0x20 DUP6 LT ISZERO PUSH3 0x546 JUMPI DUP2 SWAP1 POP JUMPDEST PUSH3 0x55E PUSH3 0x555 DUP6 PUSH3 0x3EA JUMP JUMPDEST DUP4 ADD DUP3 PUSH3 0x4EF JUMP JUMPDEST POP POP JUMPDEST POP POP POP JUMP JUMPDEST PUSH1 0x0 DUP3 DUP3 SHR SWAP1 POP SWAP3 SWAP2 POP POP JUMP JUMPDEST PUSH1 0x0 PUSH3 0x586 PUSH1 0x0 NOT DUP5 PUSH1 0x8 MUL PUSH3 0x566 JUMP JUMPDEST NOT DUP1 DUP4 AND SWAP2 POP POP SWAP3 SWAP2 POP POP JUMP JUMPDEST PUSH1 0x0 PUSH3 0x5A1 DUP4 DUP4 PUSH3 0x573 JUMP JUMPDEST SWAP2 POP DUP3 PUSH1 0x2 MUL DUP3 OR SWAP1 POP SWAP3 SWAP2 POP POP JUMP JUMPDEST PUSH3 0x5BC DUP3 PUSH3 0x337 JUMP JUMPDEST PUSH8 0xFFFFFFFFFFFFFFFF DUP2 GT ISZERO PUSH3 0x5D8 JUMPI PUSH3 0x5D7 PUSH3 0x342 JUMP JUMPDEST JUMPDEST PUSH3 0x5E4 DUP3 SLOAD PUSH3 0x3A0 JUMP JUMPDEST PUSH3 0x5F1 DUP3 DUP3 DUP6 PUSH3 0x516 JUMP JUMPDEST PUSH1 0x0 PUSH1 0x20 SWAP1 POP PUSH1 0x1F DUP4 GT PUSH1 0x1 DUP2 EQ PUSH3 0x629 JUMPI PUSH1 0x0 DUP5 ISZERO PUSH3 0x614 JUMPI DUP3 DUP8 ADD MLOAD SWAP1 POP JUMPDEST PUSH3 0x620 DUP6 DUP3 PUSH3 0x593 JUMP JUMPDEST DUP7 SSTORE POP PUSH3 0x690 JUMP JUMPDEST PUSH1 0x1F NOT DUP5 AND PUSH3 0x639 DUP7 PUSH3 0x3D5 JUMP JUMPDEST PUSH1 0x0 JUMPDEST DUP3 DUP2 LT ISZERO PUSH3 0x663 JUMPI DUP5 DUP10 ADD MLOAD DUP3 SSTORE PUSH1 0x1 DUP3 ADD SWAP2 POP PUSH1 0x20 DUP6 ADD SWAP5 POP PUSH1 0x20 DUP2 ADD SWAP1 POP PUSH3 0x63C JUMP JUMPDEST DUP7 DUP4 LT ISZERO PUSH3 0x683 JUMPI DUP5 DUP10 ADD MLOAD PUSH3 0x67F PUSH1 0x1F DUP10 AND DUP3 PUSH3 0x573 JUMP JUMPDEST DUP4 SSTORE POP JUMPDEST PUSH1 0x1 PUSH1 0x2 DUP9 MUL ADD DUP9 SSTORE POP POP POP JUMPDEST POP POP POP POP POP POP JUMP JUMPDEST PUSH1 0x0 DUP1 REVERT JUMPDEST PUSH1 0x0 PUSH20 0xFFFFFFFFFFFFFFFFFFFFFFFFFFFFFFFFFFFFFFFF DUP3 AND SWAP1 POP SWAP2 SWAP1 POP JUMP JUMPDEST PUSH1 0x0 PUSH3 0x6CA DUP3 PUSH3 0x69D JUMP JUMPDEST SWAP1 POP SWAP2 SWAP1 POP JUMP JUMPDEST PUSH3 0x6DC DUP2 PUSH3 0x6BD JUMP JUMPDEST DUP2 EQ PUSH3 0x6E8 JUMPI PUSH1 0x0 DUP1 REVERT JUMPDEST POP JUMP JUMPDEST PUSH1 0x0 DUP2 MLOAD SWAP1 POP PUSH3 0x6FC DUP2 PUSH3 0x6D1 JUMP JUMPDEST SWAP3 SWAP2 POP POP JUMP JUMPDEST PUSH1 0x0 DUP1 PUSH1 0x0 PUSH1 0x60 DUP5 DUP7 SUB SLT ISZERO PUSH3 0x71E JUMPI PUSH3 0x71D PUSH3 0x698 JUMP JUMPDEST JUMPDEST PUSH1 0x0 PUSH3 0x72E DUP7 DUP3 DUP8 ADD PUSH3 0x6EB JUMP JUMPDEST SWAP4 POP POP PUSH1 0x20 PUSH3 0x741 DUP7 DUP3 DUP8 ADD PUSH3 0x6EB JUMP JUMPDEST SWAP3 POP POP PUSH1 0x40 PUSH3 0x754 DUP7 DUP3 DUP8 ADD PUSH3 0x6EB JUMP JUMPDEST SWAP2 POP POP SWAP3 POP SWAP3 POP SWAP3 JUMP JUMPDEST PUSH2 0x51FC DUP1 PUSH3 0x76E PUSH1 0x0 CODECOPY PUSH1 0x0 RETURN INVALID PUSH1 0x80 PUSH1 0x40 MSTORE CALLVALUE DUP1 ISZERO PUSH2 0x10 JUMPI PUSH1 0x0 DUP1 REVERT JUMPDEST POP PUSH1 0x4 CALLDATASIZE LT PUSH2 0x268 JUMPI PUSH1 0x0 CALLDATALOAD PUSH1 0xE0 SHR DUP1 PUSH4 0x55F804B3 GT PUSH2 0x151 JUMPI DUP1 PUSH4 0xA22CB465 GT PUSH2 0xC3 JUMPI DUP1 PUSH4 0xE63AB1E9 GT PUSH2 0x87 JUMPI DUP1 PUSH4 0xE63AB1E9 EQ PUSH2 0x765 JUMPI DUP1 PUSH4 0xE985E9C5 EQ PUSH2 0x783 JUMPI DUP1 PUSH4 0xEE037BF9 EQ PUSH2 0x7B3 JUMPI DUP1 PUSH4 0xF07F5520 EQ PUSH2 0x7E3 JUMPI DUP1 PUSH4 0xF242432A EQ PUSH2 0x7FF JUMPI DUP1 PUSH4 0xF5298ACA EQ PUSH2 0x81B JUMPI PUSH2 0x268 JUMP JUMPDEST DUP1 PUSH4 0xA22CB465 EQ PUSH2 0x6AF JUMPI DUP1 PUSH4 0xBD85B039 EQ PUSH2 0x6CB JUMPI DUP1 PUSH4 0xD5391393 EQ PUSH2 0x6FB JUMPI DUP1 PUSH4 0xD547741F EQ PUSH2 0x719 JUMPI DUP1 PUSH4 0xE5569773 EQ PUSH2 0x735 JUMPI PUSH2 0x268 JUMP JUMPDEST DUP1 PUSH4 0x731133E9 GT PUSH2 0x115 JUMPI DUP1 PUSH4 0x731133E9 EQ PUSH2 0x5ED JUMPI DUP1 PUSH4 0x7F345710 EQ PUSH2 0x609 JUMPI DUP1 PUSH4 0x8456CB59 EQ PUSH2 0x627 JUMPI DUP1 PUSH4 0x8CADEDCE EQ PUSH2 0x631 JUMPI DUP1 PUSH4 0x91D14854 EQ PUSH2 0x661 JUMPI DUP1 PUSH4 0xA217FDDF EQ PUSH2 0x691 JUMPI PUSH2 0x268 JUMP JUMPDEST DUP1 PUSH4 0x55F804B3 EQ PUSH2 0x54B JUMPI DUP1 PUSH4 0x5C975ABB EQ PUSH2 0x567 JUMPI DUP1 PUSH4 0x67614E62 EQ PUSH2 0x585 JUMPI DUP1 PUSH4 0x6A805813 EQ PUSH2 0x5A1 JUMPI DUP1 PUSH4 0x6B20C454 EQ PUSH2 0x5D1 JUMPI PUSH2 0x268 JUMP JUMPDEST DUP1 PUSH4 0x1AF189E1 GT PUSH2 0x1EA JUMPI DUP1 PUSH4 0x2F2FF15D GT PUSH2 0x1AE JUMPI DUP1 PUSH4 0x2F2FF15D EQ PUSH2 0x48B JUMPI DUP1 PUSH4 0x36568ABE EQ PUSH2 0x4A7 JUMPI DUP1 PUSH4 0x3F4BA83A EQ PUSH2 0x4C3 JUMPI DUP1 PUSH4 0x4943F8F8 EQ PUSH2 0x4CD JUMPI DUP1 PUSH4 0x4E1273F4 EQ PUSH2 0x4EB JUMPI DUP1 PUSH4 0x4F558E79 EQ PUSH2 0x51B JUMPI PUSH2 0x268 JUMP JUMPDEST DUP1 PUSH4 0x1AF189E1 EQ PUSH2 0x3D7 JUMPI DUP1 PUSH4 0x1F7FDFFA EQ PUSH2 0x3F3 JUMPI DUP1 PUSH4 0x248A9CA3 EQ PUSH2 0x40F JUMPI DUP1 PUSH4 0x2CAC49C4 EQ PUSH2 0x43F JUMPI DUP1 PUSH4 0x2EB2C2D6 EQ PUSH2 0x46F JUMPI PUSH2 0x268 JUMP JUMPDEST DUP1 PUSH4 0xE89341C GT PUSH2 0x231 JUMPI DUP1 PUSH4 0xE89341C EQ PUSH2 0x321 JUMPI DUP1 PUSH4 0x15149793 EQ PUSH2 0x351 JUMPI DUP1 PUSH4 0x162094C4 EQ PUSH2 0x381 JUMPI DUP1 PUSH4 0x18160DDD EQ PUSH2 0x39D JUMPI DUP1 PUSH4 0x1A69D180 EQ PUSH2 0x3BB JUMPI PUSH2 0x268 JUMP JUMPDEST DUP1 PUSH3 0xFDD58E EQ PUSH2 0x26D JUMPI DUP1 PUSH4 0x1FFC9A7 EQ PUSH2 0x29D JUMPI DUP1 PUSH4 0x2FE5305 EQ PUSH2 0x2CD JUMPI DUP1 PUSH4 0x866BE00 EQ PUSH2 0x2E9 JUMPI DUP1 PUSH4 0x9DCA9CE EQ PUSH2 0x305 JUMPI JUMPDEST PUSH1 0x0 DUP1 REVERT JUMPDEST PUSH2 0x287 PUSH1 0x4 DUP1 CALLDATASIZE SUB DUP2 ADD SWAP1 PUSH2 0x282 SWAP2 SWAP1 PUSH2 0x36F8 JUMP JUMPDEST PUSH2 0x837 JUMP JUMPDEST PUSH1 0x40 MLOAD PUSH2 0x294 SWAP2 SWAP1 PUSH2 0x3747 JUMP JUMPDEST PUSH1 0x40 MLOAD DUP1 SWAP2 SUB SWAP1 RETURN JUMPDEST PUSH2 0x2B7 PUSH1 0x4 DUP1 CALLDATASIZE SUB DUP2 ADD SWAP1 PUSH2 0x2B2 SWAP2 SWAP1 PUSH2 0x37BA JUMP JUMPDEST PUSH2 0x912 JUMP JUMPDEST PUSH1 0x40 MLOAD PUSH2 0x2C4 SWAP2 SWAP1 PUSH2 0x3802 JUMP JUMPDEST PUSH1 0x40 MLOAD DUP1 SWAP2 SUB SWAP1 RETURN JUMPDEST PUSH2 0x2E7 PUSH1 0x4 DUP1 CALLDATASIZE SUB DUP2 ADD SWAP1 PUSH2 0x2E2 SWAP2 SWAP1 PUSH2 0x3963 JUMP JUMPDEST PUSH2 0x924 JUMP JUMPDEST STOP JUMPDEST PUSH2 0x303 PUSH1 0x4 DUP1 CALLDATASIZE SUB DUP2 ADD SWAP1 PUSH2 0x2FE SWAP2 SWAP1 PUSH2 0x3B15 JUMP JUMPDEST PUSH2 0x95B JUMP JUMPDEST STOP JUMPDEST PUSH2 0x31F PUSH1 0x4 DUP1 CALLDATASIZE SUB DUP2 ADD SWAP1 PUSH2 0x31A SWAP2 SWAP1 PUSH2 0x3D0B JUMP JUMPDEST PUSH2 0xB2F JUMP JUMPDEST STOP JUMPDEST PUSH2 0x33B PUSH1 0x4 DUP1 CALLDATASIZE SUB DUP2 ADD SWAP1 PUSH2 0x336 SWAP2 SWAP1 PUSH2 0x3D54 JUMP JUMPDEST PUSH2 0xBA0 JUMP JUMPDEST PUSH1 0x40 MLOAD PUSH2 0x348 SWAP2 SWAP1 PUSH2 0x3E00 JUMP JUMPDEST PUSH1 0x40 MLOAD DUP1 SWAP2 SUB SWAP1 RETURN JUMPDEST PUSH2 0x36B PUSH1 0x4 DUP1 CALLDATASIZE SUB DUP2 ADD SWAP1 PUSH2 0x366 SWAP2 SWAP1 PUSH2 0x36F8 JUMP JUMPDEST PUSH2 0xBB2 JUMP JUMPDEST PUSH1 0x40 MLOAD PUSH2 0x378 SWAP2 SWAP1 PUSH2 0x3802 JUMP JUMPDEST PUSH1 0x40 MLOAD DUP1 SWAP2 SUB SWAP1 RETURN JUMPDEST PUSH2 0x39B PUSH1 0x4 DUP1 CALLDATASIZE SUB DUP2 ADD SWAP1 PUSH2 0x396 SWAP2 SWAP1 PUSH2 0x3E22 JUMP JUMPDEST PUSH2 0xC22 JUMP JUMPDEST STOP JUMPDEST PUSH2 0x3A5 PUSH2 0xC5B JUMP JUMPDEST PUSH1 0x40 MLOAD PUSH2 0x3B2 SWAP2 SWAP1 PUSH2 0x3747 JUMP JUMPDEST PUSH1 0x40 MLOAD DUP1 SWAP2 SUB SWAP1 RETURN JUMPDEST PUSH2 0x3D5 PUSH1 0x4 DUP1 CALLDATASIZE SUB DUP2 ADD SWAP1 PUSH2 0x3D0 SWAP2 SWAP1 PUSH2 0x3E7E JUMP JUMPDEST PUSH2 0xC65 JUMP JUMPDEST STOP JUMPDEST PUSH2 0x3F1 PUSH1 0x4 DUP1 CALLDATASIZE SUB DUP2 ADD SWAP1 PUSH2 0x3EC SWAP2 SWAP1 PUSH2 0x3F27 JUMP JUMPDEST PUSH2 0xD53 JUMP JUMPDEST STOP JUMPDEST PUSH2 0x40D PUSH1 0x4 DUP1 CALLDATASIZE SUB DUP2 ADD SWAP1 PUSH2 0x408 SWAP2 SWAP1 PUSH2 0x3F7A JUMP JUMPDEST PUSH2 0xE73 JUMP JUMPDEST STOP JUMPDEST PUSH2 0x429 PUSH1 0x4 DUP1 CALLDATASIZE SUB DUP2 ADD SWAP1 PUSH2 0x424 SWAP2 SWAP1 PUSH2 0x4035 JUMP JUMPDEST PUSH2 0xEB0 JUMP JUMPDEST PUSH1 0x40 MLOAD PUSH2 0x436 SWAP2 SWAP1 PUSH2 0x4071 JUMP JUMPDEST PUSH1 0x40 MLOAD DUP1 SWAP2 SUB SWAP1 RETURN JUMPDEST PUSH2 0x459 PUSH1 0x4 DUP1 CALLDATASIZE SUB DUP2 ADD SWAP1 PUSH2 0x454 SWAP2 SWAP1 PUSH2 0x36F8 JUMP JUMPDEST PUSH2 0xED0 JUMP JUMPDEST PUSH1 0x40 MLOAD PUSH2 0x466 SWAP2 SWAP1 PUSH2 0x3747 JUMP JUMPDEST PUSH1 0x40 MLOAD DUP1 SWAP2 SUB SWAP1 RETURN JUMPDEST PUSH2 0x489 PUSH1 0x4 DUP1 CALLDATASIZE SUB DUP2 ADD SWAP1 PUSH2 0x484 SWAP2 SWAP1 PUSH2 0x408C JUMP JUMPDEST PUSH2 0xF2B JUMP JUMPDEST STOP JUMPDEST PUSH2 0x4A5 PUSH1 0x4 DUP1 CALLDATASIZE SUB DUP2 ADD SWAP1 PUSH2 0x4A0 SWAP2 SWAP1 PUSH2 0x415B JUMP JUMPDEST PUSH2 0xFD3 JUMP JUMPDEST STOP JUMPDEST PUSH2 0x4C1 PUSH1 0x4 DUP1 CALLDATASIZE SUB DUP2 ADD SWAP1 PUSH2 0x4BC SWAP2 SWAP1 PUSH2 0x415B JUMP JUMPDEST PUSH2 0xFF5 JUMP JUMPDEST STOP JUMPDEST PUSH2 0x4CB PUSH2 0x1070 JUMP JUMPDEST STOP JUMPDEST PUSH2 0x4D5 PUSH2 0x10A5 JUMP JUMPDEST PUSH1 0x40 MLOAD PUSH2 0x4E2 SWAP2 SWAP1 PUSH2 0x4071 JUMP JUMPDEST PUSH1 0x40 MLOAD DUP1 SWAP2 SUB SWAP1 RETURN JUMPDEST PUSH2 0x505 PUSH1 0x4 DUP1 CALLDATASIZE SUB DUP2 ADD SWAP1 PUSH2 0x500 SWAP2 SWAP1 PUSH2 0x425E JUMP JUMPDEST PUSH2 0x10C9 JUMP JUMPDEST PUSH1 0x40 MLOAD PUSH2 0x512 SWAP2 SWAP1 PUSH2 0x4394 JUMP JUMPDEST PUSH1 0x40 MLOAD DUP1 SWAP2 SUB SWAP1 RETURN JUMPDEST PUSH2 0x535 PUSH1 0x4 DUP1 CALLDATASIZE SUB DUP2 ADD SWAP1 PUSH2 0x530 SWAP2 SWAP1 PUSH2 0x3D54 JUMP JUMPDEST PUSH2 0x11E2 JUMP JUMPDEST PUSH1 0x40 MLOAD PUSH2 0x542 SWAP2 SWAP1 PUSH2 0x3802 JUMP JUMPDEST PUSH1 0x40 MLOAD DUP1 SWAP2 SUB SWAP1 RETURN JUMPDEST PUSH2 0x565 PUSH1 0x4 DUP1 CALLDATASIZE SUB DUP2 ADD SWAP1 PUSH2 0x560 SWAP2 SWAP1 PUSH2 0x3963 JUMP JUMPDEST PUSH2 0x11F6 JUMP JUMPDEST STOP JUMPDEST PUSH2 0x56F PUSH2 0x122D JUMP JUMPDEST PUSH1 0x40 MLOAD PUSH2 0x57C SWAP2 SWAP1 PUSH2 0x3802 JUMP JUMPDEST PUSH1 0x40 MLOAD DUP1 SWAP2 SUB SWAP1 RETURN JUMPDEST PUSH2 0x59F PUSH1 0x4 DUP1 CALLDATASIZE SUB DUP2 ADD SWAP1 PUSH2 0x59A SWAP2 SWAP1 PUSH2 0x43B6 JUMP JUMPDEST PUSH2 0x1244 JUMP JUMPDEST STOP JUMPDEST PUSH2 0x5BB PUSH1 0x4 DUP1 CALLDATASIZE SUB DUP2 ADD SWAP1 PUSH2 0x5B6 SWAP2 SWAP1 PUSH2 0x4441 JUMP JUMPDEST PUSH2 0x144A JUMP JUMPDEST PUSH1 0x40 MLOAD PUSH2 0x5C8 SWAP2 SWAP1 PUSH2 0x4394 JUMP JUMPDEST PUSH1 0x40 MLOAD DUP1 SWAP2 SUB SWAP1 RETURN JUMPDEST PUSH2 0x5EB PUSH1 0x4 DUP1 CALLDATASIZE SUB DUP2 ADD SWAP1 PUSH2 0x5E6 SWAP2 SWAP1 PUSH2 0x43B6 JUMP JUMPDEST PUSH2 0x15B1 JUMP JUMPDEST STOP JUMPDEST PUSH2 0x607 PUSH1 0x4 DUP1 CALLDATASIZE SUB DUP2 ADD SWAP1 PUSH2 0x602 SWAP2 SWAP1 PUSH2 0x44FC JUMP JUMPDEST PUSH2 0x165D JUMP JUMPDEST STOP JUMPDEST PUSH2 0x611 PUSH2 0x169A JUMP JUMPDEST PUSH1 0x40 MLOAD PUSH2 0x61E SWAP2 SWAP1 PUSH2 0x4071 JUMP JUMPDEST PUSH1 0x40 MLOAD DUP1 SWAP2 SUB SWAP1 RETURN JUMPDEST PUSH2 0x62F PUSH2 0x16BE JUMP JUMPDEST STOP JUMPDEST PUSH2 0x64B PUSH1 0x4 DUP1 CALLDATASIZE SUB DUP2 ADD SWAP1 PUSH2 0x646 SWAP2 SWAP1 PUSH2 0x457F JUMP JUMPDEST PUSH2 0x16F3 JUMP JUMPDEST PUSH1 0x40 MLOAD PUSH2 0x658 SWAP2 SWAP1 PUSH2 0x3747 JUMP JUMPDEST PUSH1 0x40 MLOAD DUP1 SWAP2 SUB SWAP1 RETURN JUMPDEST PUSH2 0x67B PUSH1 0x4 DUP1 CALLDATASIZE SUB DUP2 ADD SWAP1 PUSH2 0x676 SWAP2 SWAP1 PUSH2 0x415B JUMP JUMPDEST PUSH2 0x1759 JUMP JUMPDEST PUSH1 0x40 MLOAD PUSH2 0x688 SWAP2 SWAP1 PUSH2 0x3802 JUMP JUMPDEST PUSH1 0x40 MLOAD DUP1 SWAP2 SUB SWAP1 RETURN JUMPDEST PUSH2 0x699 PUSH2 0x17C4 JUMP JUMPDEST PUSH1 0x40 MLOAD PUSH2 0x6A6 SWAP2 SWAP1 PUSH2 0x4071 JUMP JUMPDEST PUSH1 0x40 MLOAD DUP1 SWAP2 SUB SWAP1 RETURN JUMPDEST PUSH2 0x6C9 PUSH1 0x4 DUP1 CALLDATASIZE SUB DUP2 ADD SWAP1 PUSH2 0x6C4 SWAP2 SWAP1 PUSH2 0x462E JUMP JUMPDEST PUSH2 0x17CB JUMP JUMPDEST STOP JUMPDEST PUSH2 0x6E5 PUSH1 0x4 DUP1 CALLDATASIZE SUB DUP2 ADD SWAP1 PUSH2 0x6E0 SWAP2 SWAP1 PUSH2 0x3D54 JUMP JUMPDEST PUSH2 0x17E1 JUMP JUMPDEST PUSH1 0x40 MLOAD PUSH2 0x6F2 SWAP2 SWAP1 PUSH2 0x3747 JUMP JUMPDEST PUSH1 0x40 MLOAD DUP1 SWAP2 SUB SWAP1 RETURN JUMPDEST PUSH2 0x703 PUSH2 0x17FE JUMP JUMPDEST PUSH1 0x40 MLOAD PUSH2 0x710 SWAP2 SWAP1 PUSH2 0x4071 JUMP JUMPDEST PUSH1 0x40 MLOAD DUP1 SWAP2 SUB SWAP1 RETURN JUMPDEST PUSH2 0x733 PUSH1 0x4 DUP1 CALLDATASIZE SUB DUP2 ADD SWAP1 PUSH2 0x72E SWAP2 SWAP1 PUSH2 0x415B JUMP JUMPDEST PUSH2 0x1822 JUMP JUMPDEST STOP JUMPDEST PUSH2 0x74F PUSH1 0x4 DUP1 CALLDATASIZE SUB DUP2 ADD SWAP1 PUSH2 0x74A SWAP2 SWAP1 PUSH2 0x4035 JUMP JUMPDEST PUSH2 0x1844 JUMP JUMPDEST PUSH1 0x40 MLOAD PUSH2 0x75C SWAP2 SWAP1 PUSH2 0x3747 JUMP JUMPDEST PUSH1 0x40 MLOAD DUP1 SWAP2 SUB SWAP1 RETURN JUMPDEST PUSH2 0x76D PUSH2 0x1861 JUMP JUMPDEST PUSH1 0x40 MLOAD PUSH2 0x77A SWAP2 SWAP1 PUSH2 0x4071 JUMP JUMPDEST PUSH1 0x40 MLOAD DUP1 SWAP2 SUB SWAP1 RETURN JUMPDEST PUSH2 0x79D PUSH1 0x4 DUP1 CALLDATASIZE SUB DUP2 ADD SWAP1 PUSH2 0x798 SWAP2 SWAP1 PUSH2 0x466E JUMP JUMPDEST PUSH2 0x1885 JUMP JUMPDEST PUSH1 0x40 MLOAD PUSH2 0x7AA SWAP2 SWAP1 PUSH2 0x3802 JUMP JUMPDEST PUSH1 0x40 MLOAD DUP1 SWAP2 SUB SWAP1 RETURN JUMPDEST PUSH2 0x7CD PUSH1 0x4 DUP1 CALLDATASIZE SUB DUP2 ADD SWAP1 PUSH2 0x7C8 SWAP2 SWAP1 PUSH2 0x3D54 JUMP JUMPDEST PUSH2 0x1919 JUMP JUMPDEST PUSH1 0x40 MLOAD PUSH2 0x7DA SWAP2 SWAP1 PUSH2 0x4071 JUMP JUMPDEST PUSH1 0x40 MLOAD DUP1 SWAP2 SUB SWAP1 RETURN JUMPDEST PUSH2 0x7FD PUSH1 0x4 DUP1 CALLDATASIZE SUB DUP2 ADD SWAP1 PUSH2 0x7F8 SWAP2 SWAP1 PUSH2 0x4035 JUMP JUMPDEST PUSH2 0x1936 JUMP JUMPDEST STOP JUMPDEST PUSH2 0x819 PUSH1 0x4 DUP1 CALLDATASIZE SUB DUP2 ADD SWAP1 PUSH2 0x814 SWAP2 SWAP1 PUSH2 0x46AE JUMP JUMPDEST PUSH2 0x196D JUMP JUMPDEST STOP JUMPDEST PUSH2 0x835 PUSH1 0x4 DUP1 CALLDATASIZE SUB DUP2 ADD SWAP1 PUSH2 0x830 SWAP2 SWAP1 PUSH2 0x3F27 JUMP JUMPDEST PUSH2 0x1A15 JUMP JUMPDEST STOP JUMPDEST PUSH1 0x0 DUP1 PUSH2 0x844 DUP5 DUP5 PUSH2 0x1AC1 JUMP JUMPDEST SWAP1 POP PUSH1 0x0 DUP2 EQ DUP1 PUSH2 0x881 JUMPI POP PUSH1 0x0 PUSH20 0xFFFFFFFFFFFFFFFFFFFFFFFFFFFFFFFFFFFFFFFF AND DUP5 PUSH20 0xFFFFFFFFFFFFFFFFFFFFFFFFFFFFFFFFFFFFFFFF AND EQ JUMPDEST ISZERO PUSH2 0x890 JUMPI PUSH1 0x0 SWAP2 POP POP PUSH2 0x90C JUMP JUMPDEST PUSH1 0x0 PUSH1 0xC PUSH1 0x0 DUP7 PUSH20 0xFFFFFFFFFFFFFFFFFFFFFFFFFFFFFFFFFFFFFFFF AND PUSH20 0xFFFFFFFFFFFFFFFFFFFFFFFFFFFFFFFFFFFFFFFF AND DUP2 MSTORE PUSH1 0x20 ADD SWAP1 DUP2 MSTORE PUSH1 0x20 ADD PUSH1 0x0 KECCAK256 PUSH1 0x0 DUP6 DUP2 MSTORE PUSH1 0x20 ADD SWAP1 DUP2 MSTORE PUSH1 0x20 ADD PUSH1 0x0 KECCAK256 SLOAD SWAP1 POP PUSH1 0x0 DUP2 EQ ISZERO DUP1 ISZERO PUSH2 0x8F6 JUMPI POP TIMESTAMP DUP2 GT ISZERO JUMPDEST ISZERO PUSH2 0x906 JUMPI PUSH1 0x0 SWAP3 POP POP POP PUSH2 0x90C JUMP JUMPDEST DUP2 SWAP3 POP POP POP JUMPDEST SWAP3 SWAP2 POP POP JUMP JUMPDEST PUSH1 0x0 PUSH2 0x91D DUP3 PUSH2 0x1B1B JUMP JUMPDEST SWAP1 POP SWAP2 SWAP1 POP JUMP JUMPDEST PUSH32 0x7804D923F43A17D325D77E781528E0793B2EDD9890AB45FC64EFD7B4B427744C PUSH2 0x94E DUP2 PUSH2 0x1B95 JUMP JUMPDEST PUSH2 0x957 DUP3 PUSH2 0x1BA9 JUMP JUMPDEST POP POP JUMP JUMPDEST PUSH32 0x9F2DF0FED2C77648DE5860A4CC508CD0818C85B8B8A1AB4CEEEF8D981C8956A6 PUSH2 0x985 DUP2 PUSH2 0x1B95 JUMP JUMPDEST DUP3 MLOAD DUP6 MLOAD EQ PUSH2 0x9C9 JUMPI PUSH1 0x40 MLOAD PUSH32 0x8C379A000000000000000000000000000000000000000000000000000000000 DUP2 MSTORE PUSH1 0x4 ADD PUSH2 0x9C0 SWAP1 PUSH2 0x47B7 JUMP JUMPDEST PUSH1 0x40 MLOAD DUP1 SWAP2 SUB SWAP1 REVERT JUMPDEST PUSH2 0x9D6 DUP8 DUP8 DUP8 DUP8 DUP7 PUSH2 0xF2B JUMP JUMPDEST PUSH1 0x0 JUMPDEST DUP6 MLOAD DUP2 LT ISZERO PUSH2 0xB25 JUMPI PUSH1 0x0 DUP5 DUP3 DUP2 MLOAD DUP2 LT PUSH2 0x9F7 JUMPI PUSH2 0x9F6 PUSH2 0x47D7 JUMP JUMPDEST JUMPDEST PUSH1 0x20 MUL PUSH1 0x20 ADD ADD MLOAD GT ISZERO PUSH2 0xB12 JUMPI DUP4 DUP2 DUP2 MLOAD DUP2 LT PUSH2 0xA18 JUMPI PUSH2 0xA17 PUSH2 0x47D7 JUMP JUMPDEST JUMPDEST PUSH1 0x20 MUL PUSH1 0x20 ADD ADD MLOAD PUSH1 0xC PUSH1 0x0 DUP10 PUSH20 0xFFFFFFFFFFFFFFFFFFFFFFFFFFFFFFFFFFFFFFFF AND PUSH20 0xFFFFFFFFFFFFFFFFFFFFFFFFFFFFFFFFFFFFFFFF AND DUP2 MSTORE PUSH1 0x20 ADD SWAP1 DUP2 MSTORE PUSH1 0x20 ADD PUSH1 0x0 KECCAK256 PUSH1 0x0 DUP9 DUP5 DUP2 MLOAD DUP2 LT PUSH2 0xA74 JUMPI PUSH2 0xA73 PUSH2 0x47D7 JUMP JUMPDEST JUMPDEST PUSH1 0x20 MUL PUSH1 0x20 ADD ADD MLOAD DUP2 MSTORE PUSH1 0x20 ADD SWAP1 DUP2 MSTORE PUSH1 0x20 ADD PUSH1 0x0 KECCAK256 DUP2 SWAP1 SSTORE POP DUP6 DUP2 DUP2 MLOAD DUP2 LT PUSH2 0xAA1 JUMPI PUSH2 0xAA0 PUSH2 0x47D7 JUMP JUMPDEST JUMPDEST PUSH1 0x20 MUL PUSH1 0x20 ADD ADD MLOAD DUP8 PUSH20 0xFFFFFFFFFFFFFFFFFFFFFFFFFFFFFFFFFFFFFFFF AND PUSH32 0x1347CE935D48B1622E772CB855C5F27A0956E54F183ACDD65752106FA013CD08 DUP7 DUP5 DUP2 MLOAD DUP2 LT PUSH2 0xAF4 JUMPI PUSH2 0xAF3 PUSH2 0x47D7 JUMP JUMPDEST JUMPDEST PUSH1 0x20 MUL PUSH1 0x20 ADD ADD MLOAD PUSH1 0x40 MLOAD PUSH2 0xB09 SWAP2 SWAP1 PUSH2 0x3747 JUMP JUMPDEST PUSH1 0x40 MLOAD DUP1 SWAP2 SUB SWAP1 LOG3 JUMPDEST DUP1 DUP1 PUSH2 0xB1D SWAP1 PUSH2 0x4835 JUMP JUMPDEST SWAP2 POP POP PUSH2 0x9D9 JUMP JUMPDEST POP POP POP POP POP POP POP POP JUMP JUMPDEST PUSH32 0x9F2DF0FED2C77648DE5860A4CC508CD0818C85B8B8A1AB4CEEEF8D981C8956A6 PUSH2 0xB59 DUP2 PUSH2 0x1B95 JUMP JUMPDEST PUSH1 0x0 JUMPDEST DUP3 MLOAD DUP2 LT ISZERO PUSH2 0xB9B JUMPI PUSH2 0xB88 DUP4 DUP3 DUP2 MLOAD DUP2 LT PUSH2 0xB7B JUMPI PUSH2 0xB7A PUSH2 0x47D7 JUMP JUMPDEST JUMPDEST PUSH1 0x20 MUL PUSH1 0x20 ADD ADD MLOAD PUSH2 0x1BBC JUMP JUMPDEST DUP1 DUP1 PUSH2 0xB93 SWAP1 PUSH2 0x4835 JUMP JUMPDEST SWAP2 POP POP PUSH2 0xB5C JUMP JUMPDEST POP POP POP JUMP JUMPDEST PUSH1 0x60 PUSH2 0xBAB DUP3 PUSH2 0x1C55 JUMP JUMPDEST SWAP1 POP SWAP2 SWAP1 POP JUMP JUMPDEST PUSH1 0x0 DUP1 PUSH1 0xC PUSH1 0x0 DUP6 PUSH20 0xFFFFFFFFFFFFFFFFFFFFFFFFFFFFFFFFFFFFFFFF AND PUSH20 0xFFFFFFFFFFFFFFFFFFFFFFFFFFFFFFFFFFFFFFFF AND DUP2 MSTORE PUSH1 0x20 ADD SWAP1 DUP2 MSTORE PUSH1 0x20 ADD PUSH1 0x0 KECCAK256 PUSH1 0x0 DUP5 DUP2 MSTORE PUSH1 0x20 ADD SWAP1 DUP2 MSTORE PUSH1 0x20 ADD PUSH1 0x0 KECCAK256 SLOAD SWAP1 POP PUSH1 0x0 DUP2 EQ ISZERO DUP1 ISZERO PUSH2 0xC19 JUMPI POP TIMESTAMP DUP2 GT ISZERO JUMPDEST SWAP2 POP POP SWAP3 SWAP2 POP POP JUMP JUMPDEST PUSH32 0x7804D923F43A17D325D77E781528E0793B2EDD9890AB45FC64EFD7B4B427744C PUSH2 0xC4C DUP2 PUSH2 0x1B95 JUMP JUMPDEST PUSH2 0xC56 DUP4 DUP4 PUSH2 0x1D3A JUMP JUMPDEST POP POP POP JUMP JUMPDEST PUSH1 0x0 PUSH1 0x6 SLOAD SWAP1 POP SWAP1 JUMP JUMPDEST PUSH32 0x9F2DF0FED2C77648DE5860A4CC508CD0818C85B8B8A1AB4CEEEF8D981C8956A6 PUSH2 0xC8F DUP2 PUSH2 0x1B95 JUMP JUMPDEST PUSH2 0xC9C DUP8 DUP8 DUP8 DUP8 DUP7 PUSH2 0x196D JUMP JUMPDEST PUSH1 0x0 DUP4 GT ISZERO PUSH2 0xD4A JUMPI DUP3 PUSH1 0xC PUSH1 0x0 DUP9 PUSH20 0xFFFFFFFFFFFFFFFFFFFFFFFFFFFFFFFFFFFFFFFF AND PUSH20 0xFFFFFFFFFFFFFFFFFFFFFFFFFFFFFFFFFFFFFFFF AND DUP2 MSTORE PUSH1 0x20 ADD SWAP1 DUP2 MSTORE PUSH1 0x20 ADD PUSH1 0x0 KECCAK256 PUSH1 0x0 DUP8 DUP2 MSTORE PUSH1 0x20 ADD SWAP1 DUP2 MSTORE PUSH1 0x20 ADD PUSH1 0x0 KECCAK256 DUP2 SWAP1 SSTORE POP DUP5 DUP7 PUSH20 0xFFFFFFFFFFFFFFFFFFFFFFFFFFFFFFFFFFFFFFFF AND PUSH32 0x1347CE935D48B1622E772CB855C5F27A0956E54F183ACDD65752106FA013CD08 DUP6 PUSH1 0x40 MLOAD PUSH2 0xD41 SWAP2 SWAP1 PUSH2 0x3747 JUMP JUMPDEST PUSH1 0x40 MLOAD DUP1 SWAP2 SUB SWAP1 LOG3 JUMPDEST POP POP POP POP POP POP POP JUMP JUMPDEST PUSH32 0x5BD33557D028FA6327A6C10090602E75B5763BCBC8C9D2F602672EDD0EEE7A08 PUSH2 0xD7D DUP2 PUSH2 0x1B95 JUMP JUMPDEST PUSH1 0x0 PUSH2 0xD89 DUP6 DUP6 PUSH2 0x1AC1 JUMP JUMPDEST GT PUSH2 0xDC9 JUMPI PUSH1 0x40 MLOAD PUSH32 0x8C379A000000000000000000000000000000000000000000000000000000000 DUP2 MSTORE PUSH1 0x4 ADD PUSH2 0xDC0 SWAP1 PUSH2 0x48EF JUMP JUMPDEST PUSH1 0x40 MLOAD DUP1 SWAP2 SUB SWAP1 REVERT JUMPDEST DUP2 PUSH1 0xC PUSH1 0x0 DUP7 PUSH20 0xFFFFFFFFFFFFFFFFFFFFFFFFFFFFFFFFFFFFFFFF AND PUSH20 0xFFFFFFFFFFFFFFFFFFFFFFFFFFFFFFFFFFFFFFFF AND DUP2 MSTORE PUSH1 0x20 ADD SWAP1 DUP2 MSTORE PUSH1 0x20 ADD PUSH1 0x0 KECCAK256 PUSH1 0x0 DUP6 DUP2 MSTORE PUSH1 0x20 ADD SWAP1 DUP2 MSTORE PUSH1 0x20 ADD PUSH1 0x0 KECCAK256 DUP2 SWAP1 SSTORE POP DUP3 DUP5 PUSH20 0xFFFFFFFFFFFFFFFFFFFFFFFFFFFFFFFFFFFFFFFF AND PUSH32 0x1347CE935D48B1622E772CB855C5F27A0956E54F183ACDD65752106FA013CD08 DUP5 PUSH1 0x40 MLOAD PUSH2 0xE65 SWAP2 SWAP1 PUSH2 0x3747 JUMP JUMPDEST PUSH1 0x40 MLOAD DUP1 SWAP2 SUB SWAP1 LOG3 POP POP POP POP JUMP JUMPDEST PUSH32 0x9F2DF0FED2C77648DE5860A4CC508CD0818C85B8B8A1AB4CEEEF8D981C8956A6 PUSH2 0xE9D DUP2 PUSH2 0x1B95 JUMP JUMPDEST PUSH2 0xEA9 DUP6 DUP6 DUP6 DUP6 PUSH2 0x1D9F JUMP JUMPDEST POP POP POP POP POP JUMP JUMPDEST PUSH1 0x0 PUSH1 0x3 PUSH1 0x0 DUP4 DUP2 MSTORE PUSH1 0x20 ADD SWAP1 DUP2 MSTORE PUSH1 0x20 ADD PUSH1 0x0 KECCAK256 PUSH1 0x1 ADD SLOAD SWAP1 POP SWAP2 SWAP1 POP JUMP JUMPDEST PUSH1 0x0 PUSH1 0xC PUSH1 0x0 DUP5 PUSH20 0xFFFFFFFFFFFFFFFFFFFFFFFFFFFFFFFFFFFFFFFF AND PUSH20 0xFFFFFFFFFFFFFFFFFFFFFFFFFFFFFFFFFFFFFFFF AND DUP2 MSTORE PUSH1 0x20 ADD SWAP1 DUP2 MSTORE PUSH1 0x20 ADD PUSH1 0x0 KECCAK256 PUSH1 0x0 DUP4 DUP2 MSTORE PUSH1 0x20 ADD SWAP1 DUP2 MSTORE PUSH1 0x20 ADD PUSH1 0x0 KECCAK256 SLOAD SWAP1 POP SWAP3 SWAP2 POP POP JUMP JUMPDEST PUSH1 0x0 PUSH2 0xF35 PUSH2 0x1E25 JUMP JUMPDEST SWAP1 POP DUP1 PUSH20 0xFFFFFFFFFFFFFFFFFFFFFFFFFFFFFFFFFFFFFFFF AND DUP7 PUSH20 0xFFFFFFFFFFFFFFFFFFFFFFFFFFFFFFFFFFFFFFFF AND EQ ISZERO DUP1 ISZERO PUSH2 0xF7A JUMPI POP PUSH2 0xF78 DUP7 DUP3 PUSH2 0x1885 JUMP JUMPDEST ISZERO JUMPDEST ISZERO PUSH2 0xFBE JUMPI DUP1 DUP7 PUSH1 0x40 MLOAD PUSH32 0xE237D92200000000000000000000000000000000000000000000000000000000 DUP2 MSTORE PUSH1 0x4 ADD PUSH2 0xFB5 SWAP3 SWAP2 SWAP1 PUSH2 0x491E JUMP JUMPDEST PUSH1 0x40 MLOAD DUP1 SWAP2 SUB SWAP1 REVERT JUMPDEST PUSH2 0xFCB DUP7 DUP7 DUP7 DUP7 DUP7 PUSH2 0x1E2D JUMP JUMPDEST POP POP POP POP POP POP JUMP JUMPDEST PUSH2 0xFDC DUP3 PUSH2 0xEB0 JUMP JUMPDEST PUSH2 0xFE5 DUP2 PUSH2 0x1B95 JUMP JUMPDEST PUSH2 0xFEF DUP4 DUP4 PUSH2 0x1F25 JUMP JUMPDEST POP POP POP POP JUMP JUMPDEST PUSH2 0xFFD PUSH2 0x1E25 JUMP JUMPDEST PUSH20 0xFFFFFFFFFFFFFFFFFFFFFFFFFFFFFFFFFFFFFFFF AND DUP2 PUSH20 0xFFFFFFFFFFFFFFFFFFFFFFFFFFFFFFFFFFFFFFFF AND EQ PUSH2 0x1061 JUMPI PUSH1 0x40 MLOAD PUSH32 0x6697B23200000000000000000000000000000000000000000000000000000000 DUP2 MSTORE PUSH1 0x4 ADD PUSH1 0x40 MLOAD DUP1 SWAP2 SUB SWAP1 REVERT JUMPDEST PUSH2 0x106B DUP3 DUP3 PUSH2 0x2017 JUMP JUMPDEST POP POP POP JUMP JUMPDEST PUSH32 0x65D7A28E3265B37A6474929F336521B332C1681B933F6CB9F3376673440D862A PUSH2 0x109A DUP2 PUSH2 0x1B95 JUMP JUMPDEST PUSH2 0x10A2 PUSH2 0x210A JUMP JUMPDEST POP JUMP JUMPDEST PUSH32 0x5BD33557D028FA6327A6C10090602E75B5763BCBC8C9D2F602672EDD0EEE7A08 DUP2 JUMP JUMPDEST PUSH1 0x60 DUP2 MLOAD DUP4 MLOAD EQ PUSH2 0x110F JUMPI PUSH1 0x40 MLOAD PUSH32 0x8C379A000000000000000000000000000000000000000000000000000000000 DUP2 MSTORE PUSH1 0x4 ADD PUSH2 0x1106 SWAP1 PUSH2 0x49B9 JUMP JUMPDEST PUSH1 0x40 MLOAD DUP1 SWAP2 SUB SWAP1 REVERT JUMPDEST PUSH1 0x0 DUP4 MLOAD PUSH8 0xFFFFFFFFFFFFFFFF DUP2 GT ISZERO PUSH2 0x112C JUMPI PUSH2 0x112B PUSH2 0x3838 JUMP JUMPDEST JUMPDEST PUSH1 0x40 MLOAD SWAP1 DUP1 DUP3 MSTORE DUP1 PUSH1 0x20 MUL PUSH1 0x20 ADD DUP3 ADD PUSH1 0x40 MSTORE DUP1 ISZERO PUSH2 0x115A JUMPI DUP2 PUSH1 0x20 ADD PUSH1 0x20 DUP3 MUL DUP1 CALLDATASIZE DUP4 CALLDATACOPY DUP1 DUP3 ADD SWAP2 POP POP SWAP1 POP JUMPDEST POP SWAP1 POP PUSH1 0x0 JUMPDEST DUP5 MLOAD DUP2 LT ISZERO PUSH2 0x11D7 JUMPI PUSH2 0x11A7 DUP6 DUP3 DUP2 MLOAD DUP2 LT PUSH2 0x117F JUMPI PUSH2 0x117E PUSH2 0x47D7 JUMP JUMPDEST JUMPDEST PUSH1 0x20 MUL PUSH1 0x20 ADD ADD MLOAD DUP6 DUP4 DUP2 MLOAD DUP2 LT PUSH2 0x119A JUMPI PUSH2 0x1199 PUSH2 0x47D7 JUMP JUMPDEST JUMPDEST PUSH1 0x20 MUL PUSH1 0x20 ADD ADD MLOAD PUSH2 0x837 JUMP JUMPDEST DUP3 DUP3 DUP2 MLOAD DUP2 LT PUSH2 0x11BA JUMPI PUSH2 0x11B9 PUSH2 0x47D7 JUMP JUMPDEST JUMPDEST PUSH1 0x20 MUL PUSH1 0x20 ADD ADD DUP2 DUP2 MSTORE POP POP DUP1 PUSH2 0x11D0 SWAP1 PUSH2 0x4835 JUMP JUMPDEST SWAP1 POP PUSH2 0x1160 JUMP JUMPDEST POP DUP1 SWAP2 POP POP SWAP3 SWAP2 POP POP JUMP JUMPDEST PUSH1 0x0 DUP1 PUSH2 0x11EE DUP4 PUSH2 0x17E1 JUMP JUMPDEST GT SWAP1 POP SWAP2 SWAP1 POP JUMP JUMPDEST PUSH32 0x7804D923F43A17D325D77E781528E0793B2EDD9890AB45FC64EFD7B4B427744C PUSH2 0x1220 DUP2 PUSH2 0x1B95 JUMP JUMPDEST PUSH2 0x1229 DUP3 PUSH2 0x216D JUMP JUMPDEST POP POP JUMP JUMPDEST PUSH1 0x0 PUSH1 0x4 PUSH1 0x0 SWAP1 SLOAD SWAP1 PUSH2 0x100 EXP SWAP1 DIV PUSH1 0xFF AND SWAP1 POP SWAP1 JUMP JUMPDEST PUSH32 0x5BD33557D028FA6327A6C10090602E75B5763BCBC8C9D2F602672EDD0EEE7A08 PUSH2 0x126E DUP2 PUSH2 0x1B95 JUMP JUMPDEST DUP2 MLOAD DUP4 MLOAD EQ PUSH2 0x12B2 JUMPI PUSH1 0x40 MLOAD PUSH32 0x8C379A000000000000000000000000000000000000000000000000000000000 DUP2 MSTORE PUSH1 0x4 ADD PUSH2 0x12A9 SWAP1 PUSH2 0x47B7 JUMP JUMPDEST PUSH1 0x40 MLOAD DUP1 SWAP2 SUB SWAP1 REVERT JUMPDEST PUSH1 0x0 JUMPDEST DUP4 MLOAD DUP2 LT ISZERO PUSH2 0x1443 JUMPI PUSH1 0x0 PUSH2 0x12E4 DUP7 DUP7 DUP5 DUP2 MLOAD DUP2 LT PUSH2 0x12D7 JUMPI PUSH2 0x12D6 PUSH2 0x47D7 JUMP JUMPDEST JUMPDEST PUSH1 0x20 MUL PUSH1 0x20 ADD ADD MLOAD PUSH2 0x1AC1 JUMP JUMPDEST GT PUSH2 0x1324 JUMPI PUSH1 0x40 MLOAD PUSH32 0x8C379A000000000000000000000000000000000000000000000000000000000 DUP2 MSTORE PUSH1 0x4 ADD PUSH2 0x131B SWAP1 PUSH2 0x48EF JUMP JUMPDEST PUSH1 0x40 MLOAD DUP1 SWAP2 SUB SWAP1 REVERT JUMPDEST DUP3 DUP2 DUP2 MLOAD DUP2 LT PUSH2 0x1337 JUMPI PUSH2 0x1336 PUSH2 0x47D7 JUMP JUMPDEST JUMPDEST PUSH1 0x20 MUL PUSH1 0x20 ADD ADD MLOAD PUSH1 0xC PUSH1 0x0 DUP8 PUSH20 0xFFFFFFFFFFFFFFFFFFFFFFFFFFFFFFFFFFFFFFFF AND PUSH20 0xFFFFFFFFFFFFFFFFFFFFFFFFFFFFFFFFFFFFFFFF AND DUP2 MSTORE PUSH1 0x20 ADD SWAP1 DUP2 MSTORE PUSH1 0x20 ADD PUSH1 0x0 KECCAK256 PUSH1 0x0 DUP7 DUP5 DUP2 MLOAD DUP2 LT PUSH2 0x1393 JUMPI PUSH2 0x1392 PUSH2 0x47D7 JUMP JUMPDEST JUMPDEST PUSH1 0x20 MUL PUSH1 0x20 ADD ADD MLOAD DUP2 MSTORE PUSH1 0x20 ADD SWAP1 DUP2 MSTORE PUSH1 0x20 ADD PUSH1 0x0 KECCAK256 DUP2 SWAP1 SSTORE POP DUP4 DUP2 DUP2 MLOAD DUP2 LT PUSH2 0x13C0 JUMPI PUSH2 0x13BF PUSH2 0x47D7 JUMP JUMPDEST JUMPDEST PUSH1 0x20 MUL PUSH1 0x20 ADD ADD MLOAD DUP6 PUSH20 0xFFFFFFFFFFFFFFFFFFFFFFFFFFFFFFFFFFFFFFFF AND PUSH32 0x1347CE935D48B1622E772CB855C5F27A0956E54F183ACDD65752106FA013CD08 DUP6 DUP5 DUP2 MLOAD DUP2 LT PUSH2 0x1413 JUMPI PUSH2 0x1412 PUSH2 0x47D7 JUMP JUMPDEST JUMPDEST PUSH1 0x20 MUL PUSH1 0x20 ADD ADD MLOAD PUSH1 0x40 MLOAD PUSH2 0x1428 SWAP2 SWAP1 PUSH2 0x3747 JUMP JUMPDEST PUSH1 0x40 MLOAD DUP1 SWAP2 SUB SWAP1 LOG3 DUP1 DUP1 PUSH2 0x143B SWAP1 PUSH2 0x4835 JUMP JUMPDEST SWAP2 POP POP PUSH2 0x12B5 JUMP JUMPDEST POP POP POP POP POP JUMP JUMPDEST PUSH1 0x60 PUSH32 0x9F2DF0FED2C77648DE5860A4CC508CD0818C85B8B8A1AB4CEEEF8D981C8956A6 PUSH2 0x1476 DUP2 PUSH2 0x1B95 JUMP JUMPDEST DUP4 MLOAD DUP6 MLOAD EQ PUSH2 0x14BA JUMPI PUSH1 0x40 MLOAD PUSH32 0x8C379A000000000000000000000000000000000000000000000000000000000 DUP2 MSTORE PUSH1 0x4 ADD PUSH2 0x14B1 SWAP1 PUSH2 0x4A4B JUMP JUMPDEST PUSH1 0x40 MLOAD DUP1 SWAP2 SUB SWAP1 REVERT JUMPDEST PUSH1 0x0 DUP6 MLOAD PUSH8 0xFFFFFFFFFFFFFFFF DUP2 GT ISZERO PUSH2 0x14D7 JUMPI PUSH2 0x14D6 PUSH2 0x3838 JUMP JUMPDEST JUMPDEST PUSH1 0x40 MLOAD SWAP1 DUP1 DUP3 MSTORE DUP1 PUSH1 0x20 MUL PUSH1 0x20 ADD DUP3 ADD PUSH1 0x40 MSTORE DUP1 ISZERO PUSH2 0x1505 JUMPI DUP2 PUSH1 0x20 ADD PUSH1 0x20 DUP3 MUL DUP1 CALLDATASIZE DUP4 CALLDATACOPY DUP1 DUP3 ADD SWAP2 POP POP SWAP1 POP JUMPDEST POP SWAP1 POP PUSH1 0x0 JUMPDEST DUP7 MLOAD DUP2 LT ISZERO PUSH2 0x1597 JUMPI PUSH2 0x1537 DUP8 DUP3 DUP2 MLOAD DUP2 LT PUSH2 0x152A JUMPI PUSH2 0x1529 PUSH2 0x47D7 JUMP JUMPDEST JUMPDEST PUSH1 0x20 MUL PUSH1 0x20 ADD ADD MLOAD PUSH2 0x1BBC JUMP JUMPDEST PUSH1 0x9 PUSH1 0x0 DUP9 DUP4 DUP2 MLOAD DUP2 LT PUSH2 0x154E JUMPI PUSH2 0x154D PUSH2 0x47D7 JUMP JUMPDEST JUMPDEST PUSH1 0x20 MUL PUSH1 0x20 ADD ADD MLOAD DUP2 MSTORE PUSH1 0x20 ADD SWAP1 DUP2 MSTORE PUSH1 0x20 ADD PUSH1 0x0 KECCAK256 SLOAD DUP3 DUP3 DUP2 MLOAD DUP2 LT PUSH2 0x1578 JUMPI PUSH2 0x1577 PUSH2 0x47D7 JUMP JUMPDEST JUMPDEST PUSH1 0x20 MUL PUSH1 0x20 ADD ADD DUP2 DUP2 MSTORE POP POP DUP1 DUP1 PUSH2 0x158F SWAP1 PUSH2 0x4835 JUMP JUMPDEST SWAP2 POP POP PUSH2 0x150B JUMP JUMPDEST POP PUSH2 0x15A4 DUP8 DUP3 DUP8 DUP8 PUSH2 0x1D9F JUMP JUMPDEST DUP1 SWAP3 POP POP POP SWAP5 SWAP4 POP POP POP POP JUMP JUMPDEST PUSH2 0x15B9 PUSH2 0x1E25 JUMP JUMPDEST PUSH20 0xFFFFFFFFFFFFFFFFFFFFFFFFFFFFFFFFFFFFFFFF AND DUP4 PUSH20 0xFFFFFFFFFFFFFFFFFFFFFFFFFFFFFFFFFFFFFFFF AND EQ ISZERO DUP1 ISZERO PUSH2 0x1602 JUMPI POP PUSH2 0x1600 DUP4 PUSH2 0x15FB PUSH2 0x1E25 JUMP JUMPDEST PUSH2 0x1885 JUMP JUMPDEST ISZERO JUMPDEST ISZERO PUSH2 0x164D JUMPI PUSH2 0x160F PUSH2 0x1E25 JUMP JUMPDEST DUP4 PUSH1 0x40 MLOAD PUSH32 0xE237D92200000000000000000000000000000000000000000000000000000000 DUP2 MSTORE PUSH1 0x4 ADD PUSH2 0x1644 SWAP3 SWAP2 SWAP1 PUSH2 0x491E JUMP JUMPDEST PUSH1 0x40 MLOAD DUP1 SWAP2 SUB SWAP1 REVERT JUMPDEST PUSH2 0x1658 DUP4 DUP4 DUP4 PUSH2 0x2180 JUMP JUMPDEST POP POP POP JUMP JUMPDEST PUSH32 0x9F2DF0FED2C77648DE5860A4CC508CD0818C85B8B8A1AB4CEEEF8D981C8956A6 PUSH2 0x1687 DUP2 PUSH2 0x1B95 JUMP JUMPDEST PUSH2 0x1693 DUP6 DUP6 DUP6 DUP6 PUSH2 0x2214 JUMP JUMPDEST POP POP POP POP POP JUMP JUMPDEST PUSH32 0x7804D923F43A17D325D77E781528E0793B2EDD9890AB45FC64EFD7B4B427744C DUP2 JUMP JUMPDEST PUSH32 0x65D7A28E3265B37A6474929F336521B332C1681B933F6CB9F3376673440D862A PUSH2 0x16E8 DUP2 PUSH2 0x1B95 JUMP JUMPDEST PUSH2 0x16F0 PUSH2 0x22AD JUMP JUMPDEST POP JUMP JUMPDEST PUSH1 0x0 PUSH32 0x9F2DF0FED2C77648DE5860A4CC508CD0818C85B8B8A1AB4CEEEF8D981C8956A6 PUSH2 0x171F DUP2 PUSH2 0x1B95 JUMP JUMPDEST PUSH2 0x1728 DUP6 PUSH2 0x1BBC JUMP JUMPDEST PUSH1 0x0 PUSH1 0x9 PUSH1 0x0 DUP8 DUP2 MSTORE PUSH1 0x20 ADD SWAP1 DUP2 MSTORE PUSH1 0x20 ADD PUSH1 0x0 KECCAK256 SLOAD SWAP1 POP PUSH2 0x174C DUP8 DUP3 DUP8 DUP8 PUSH2 0x2214 JUMP JUMPDEST DUP1 SWAP3 POP POP POP SWAP5 SWAP4 POP POP POP POP JUMP JUMPDEST PUSH1 0x0 PUSH1 0x3 PUSH1 0x0 DUP5 DUP2 MSTORE PUSH1 0x20 ADD SWAP1 DUP2 MSTORE PUSH1 0x20 ADD PUSH1 0x0 KECCAK256 PUSH1 0x0 ADD PUSH1 0x0 DUP4 PUSH20 0xFFFFFFFFFFFFFFFFFFFFFFFFFFFFFFFFFFFFFFFF AND PUSH20 0xFFFFFFFFFFFFFFFFFFFFFFFFFFFFFFFFFFFFFFFF AND DUP2 MSTORE PUSH1 0x20 ADD SWAP1 DUP2 MSTORE PUSH1 0x20 ADD PUSH1 0x0 KECCAK256 PUSH1 0x0 SWAP1 SLOAD SWAP1 PUSH2 0x100 EXP SWAP1 DIV PUSH1 0xFF AND SWAP1 POP SWAP3 SWAP2 POP POP JUMP JUMPDEST PUSH1 0x0 DUP1 SHL DUP2 JUMP JUMPDEST PUSH2 0x17DD PUSH2 0x17D6 PUSH2 0x1E25 JUMP JUMPDEST DUP4 DUP4 PUSH2 0x2310 JUMP JUMPDEST POP POP JUMP JUMPDEST PUSH1 0x0 PUSH1 0x5 PUSH1 0x0 DUP4 DUP2 MSTORE PUSH1 0x20 ADD SWAP1 DUP2 MSTORE PUSH1 0x20 ADD PUSH1 0x0 KECCAK256 SLOAD SWAP1 POP SWAP2 SWAP1 POP JUMP JUMPDEST PUSH32 0x9F2DF0FED2C77648DE5860A4CC508CD0818C85B8B8A1AB4CEEEF8D981C8956A6 DUP2 JUMP JUMPDEST PUSH2 0x182B DUP3 PUSH2 0xEB0 JUMP JUMPDEST PUSH2 0x1834 DUP2 PUSH2 0x1B95 JUMP JUMPDEST PUSH2 0x183E DUP4 DUP4 PUSH2 0x2017 JUMP JUMPDEST POP POP POP POP JUMP JUMPDEST PUSH1 0x0 PUSH1 0x9 PUSH1 0x0 DUP4 DUP2 MSTORE PUSH1 0x20 ADD SWAP1 DUP2 MSTORE PUSH1 0x20 ADD PUSH1 0x0 KECCAK256 SLOAD SWAP1 POP SWAP2 SWAP1 POP JUMP JUMPDEST PUSH32 0x65D7A28E3265B37A6474929F336521B332C1681B933F6CB9F3376673440D862A DUP2 JUMP JUMPDEST PUSH1 0x0 PUSH1 0x1 PUSH1 0x0 DUP5 PUSH20 0xFFFFFFFFFFFFFFFFFFFFFFFFFFFFFFFFFFFFFFFF AND PUSH20 0xFFFFFFFFFFFFFFFFFFFFFFFFFFFFFFFFFFFFFFFF AND DUP2 MSTORE PUSH1 0x20 ADD SWAP1 DUP2 MSTORE PUSH1 0x20 ADD PUSH1 0x0 KECCAK256 PUSH1 0x0 DUP4 PUSH20 0xFFFFFFFFFFFFFFFFFFFFFFFFFFFFFFFFFFFFFFFF AND PUSH20 0xFFFFFFFFFFFFFFFFFFFFFFFFFFFFFFFFFFFFFFFF AND DUP2 MSTORE PUSH1 0x20 ADD SWAP1 DUP2 MSTORE PUSH1 0x20 ADD PUSH1 0x0 KECCAK256 PUSH1 0x0 SWAP1 SLOAD SWAP1 PUSH2 0x100 EXP SWAP1 DIV PUSH1 0xFF AND SWAP1 POP SWAP3 SWAP2 POP POP JUMP JUMPDEST PUSH1 0x0 PUSH1 0xA PUSH1 0x0 DUP4 DUP2 MSTORE PUSH1 0x20 ADD SWAP1 DUP2 MSTORE PUSH1 0x20 ADD PUSH1 0x0 KECCAK256 SLOAD SWAP1 POP SWAP2 SWAP1 POP JUMP JUMPDEST PUSH32 0x9F2DF0FED2C77648DE5860A4CC508CD0818C85B8B8A1AB4CEEEF8D981C8956A6 PUSH2 0x1960 DUP2 PUSH2 0x1B95 JUMP JUMPDEST PUSH2 0x1969 DUP3 PUSH2 0x1BBC JUMP JUMPDEST POP POP JUMP JUMPDEST PUSH1 0x0 PUSH2 0x1977 PUSH2 0x1E25 JUMP JUMPDEST SWAP1 POP DUP1 PUSH20 0xFFFFFFFFFFFFFFFFFFFFFFFFFFFFFFFFFFFFFFFF AND DUP7 PUSH20 0xFFFFFFFFFFFFFFFFFFFFFFFFFFFFFFFFFFFFFFFF AND EQ ISZERO DUP1 ISZERO PUSH2 0x19BC JUMPI POP PUSH2 0x19BA DUP7 DUP3 PUSH2 0x1885 JUMP JUMPDEST ISZERO JUMPDEST ISZERO PUSH2 0x1A00 JUMPI DUP1 DUP7 PUSH1 0x40 MLOAD PUSH32 0xE237D92200000000000000000000000000000000000000000000000000000000 DUP2 MSTORE PUSH1 0x4 ADD PUSH2 0x19F7 SWAP3 SWAP2 SWAP1 PUSH2 0x491E JUMP JUMPDEST PUSH1 0x40 MLOAD DUP1 SWAP2 SUB SWAP1 REVERT JUMPDEST PUSH2 0x1A0D DUP7 DUP7 DUP7 DUP7 DUP7 PUSH2 0x2480 JUMP JUMPDEST POP POP POP POP POP POP JUMP JUMPDEST PUSH2 0x1A1D PUSH2 0x1E25 JUMP JUMPDEST PUSH20 0xFFFFFFFFFFFFFFFFFFFFFFFFFFFFFFFFFFFFFFFF AND DUP4 PUSH20 0xFFFFFFFFFFFFFFFFFFFFFFFFFFFFFFFFFFFFFFFF AND EQ ISZERO DUP1 ISZERO PUSH2 0x1A66 JUMPI POP PUSH2 0x1A64 DUP4 PUSH2 0x1A5F PUSH2 0x1E25 JUMP JUMPDEST PUSH2 0x1885 JUMP JUMPDEST ISZERO JUMPDEST ISZERO PUSH2 0x1AB1 JUMPI PUSH2 0x1A73 PUSH2 0x1E25 JUMP JUMPDEST DUP4 PUSH1 0x40 MLOAD PUSH32 0xE237D92200000000000000000000000000000000000000000000000000000000 DUP2 MSTORE PUSH1 0x4 ADD PUSH2 0x1AA8 SWAP3 SWAP2 SWAP1 PUSH2 0x491E JUMP JUMPDEST PUSH1 0x40 MLOAD DUP1 SWAP2 SUB SWAP1 REVERT JUMPDEST PUSH2 0x1ABC DUP4 DUP4 DUP4 PUSH2 0x258B JUMP JUMPDEST POP POP POP JUMP JUMPDEST PUSH1 0x0 DUP1 PUSH1 0x0 DUP4 DUP2 MSTORE PUSH1 0x20 ADD SWAP1 DUP2 MSTORE PUSH1 0x20 ADD PUSH1 0x0 KECCAK256 PUSH1 0x0 DUP5 PUSH20 0xFFFFFFFFFFFFFFFFFFFFFFFFFFFFFFFFFFFFFFFF AND PUSH20 0xFFFFFFFFFFFFFFFFFFFFFFFFFFFFFFFFFFFFFFFF AND DUP2 MSTORE PUSH1 0x20 ADD SWAP1 DUP2 MSTORE PUSH1 0x20 ADD PUSH1 0x0 KECCAK256 SLOAD SWAP1 POP SWAP3 SWAP2 POP POP JUMP JUMPDEST PUSH1 0x0 PUSH32 0x7965DB0B00000000000000000000000000000000000000000000000000000000 PUSH28 0xFFFFFFFFFFFFFFFFFFFFFFFFFFFFFFFFFFFFFFFFFFFFFFFFFFFFFFFF NOT AND DUP3 PUSH28 0xFFFFFFFFFFFFFFFFFFFFFFFFFFFFFFFFFFFFFFFFFFFFFFFFFFFFFFFF NOT AND EQ DUP1 PUSH2 0x1B8E JUMPI POP PUSH2 0x1B8D DUP3 PUSH2 0x2632 JUMP JUMPDEST JUMPDEST SWAP1 POP SWAP2 SWAP1 POP JUMP JUMPDEST PUSH2 0x1BA6 DUP2 PUSH2 0x1BA1 PUSH2 0x1E25 JUMP JUMPDEST PUSH2 0x2714 JUMP JUMPDEST POP JUMP JUMPDEST DUP1 PUSH1 0x2 SWAP1 DUP2 PUSH2 0x1BB8 SWAP2 SWAP1 PUSH2 0x4C77 JUMP JUMPDEST POP POP JUMP JUMPDEST PUSH1 0x0 PUSH1 0x9 PUSH1 0x0 DUP4 DUP2 MSTORE PUSH1 0x20 ADD SWAP1 DUP2 MSTORE PUSH1 0x20 ADD PUSH1 0x0 KECCAK256 SLOAD SUB PUSH2 0x1C52 JUMPI PUSH1 0x0 PUSH1 0xB PUSH1 0x0 DUP2 SLOAD DUP1 SWAP3 SWAP2 SWAP1 PUSH2 0x1BEC SWAP1 PUSH2 0x4835 JUMP JUMPDEST SWAP2 SWAP1 POP SSTORE SWAP1 POP DUP1 PUSH1 0x9 PUSH1 0x0 DUP5 DUP2 MSTORE PUSH1 0x20 ADD SWAP1 DUP2 MSTORE PUSH1 0x20 ADD PUSH1 0x0 KECCAK256 DUP2 SWAP1 SSTORE POP DUP2 PUSH1 0xA PUSH1 0x0 DUP4 DUP2 MSTORE PUSH1 0x20 ADD SWAP1 DUP2 MSTORE PUSH1 0x20 ADD PUSH1 0x0 KECCAK256 DUP2 SWAP1 SSTORE POP DUP1 DUP3 PUSH32 0xEA3E0ACFC42D04765CB7947585765A242D0FD12A634EDFB22C44CF42A363B2B8 PUSH1 0x40 MLOAD PUSH1 0x40 MLOAD DUP1 SWAP2 SUB SWAP1 LOG3 POP JUMPDEST POP JUMP JUMPDEST PUSH1 0x60 PUSH1 0x0 PUSH1 0x8 PUSH1 0x0 DUP5 DUP2 MSTORE PUSH1 0x20 ADD SWAP1 DUP2 MSTORE PUSH1 0x20 ADD PUSH1 0x0 KECCAK256 DUP1 SLOAD PUSH2 0x1C77 SWAP1 PUSH2 0x4A9A JUMP JUMPDEST DUP1 PUSH1 0x1F ADD PUSH1 0x20 DUP1 SWAP2 DIV MUL PUSH1 0x20 ADD PUSH1 0x40 MLOAD SWAP1 DUP2 ADD PUSH1 0x40 MSTORE DUP1 SWAP3 SWAP2 SWAP1 DUP2 DUP2 MSTORE PUSH1 0x20 ADD DUP3 DUP1 SLOAD PUSH2 0x1CA3 SWAP1 PUSH2 0x4A9A JUMP JUMPDEST DUP1 ISZERO PUSH2 0x1CF0 JUMPI DUP1 PUSH1 0x1F LT PUSH2 0x1CC5 JUMPI PUSH2 0x100 DUP1 DUP4 SLOAD DIV MUL DUP4 MSTORE SWAP2 PUSH1 0x20 ADD SWAP2 PUSH2 0x1CF0 JUMP JUMPDEST DUP3 ADD SWAP2 SWAP1 PUSH1 0x0 MSTORE PUSH1 0x20 PUSH1 0x0 KECCAK256 SWAP1 JUMPDEST DUP2 SLOAD DUP2 MSTORE SWAP1 PUSH1 0x1 ADD SWAP1 PUSH1 0x20 ADD DUP1 DUP4 GT PUSH2 0x1CD3 JUMPI DUP3 SWAP1 SUB PUSH1 0x1F AND DUP3 ADD SWAP2 JUMPDEST POP POP POP POP POP SWAP1 POP PUSH1 0x0 DUP2 MLOAD GT PUSH2 0x1D0E JUMPI PUSH2 0x1D09 DUP4 PUSH2 0x2765 JUMP JUMPDEST PUSH2 0x1D32 JUMP JUMPDEST PUSH1 0x7 DUP2 PUSH1 0x40 MLOAD PUSH1 0x20 ADD PUSH2 0x1D22 SWAP3 SWAP2 SWAP1 PUSH2 0x4E08 JUMP JUMPDEST PUSH1 0x40 MLOAD PUSH1 0x20 DUP2 DUP4 SUB SUB DUP2 MSTORE SWAP1 PUSH1 0x40 MSTORE JUMPDEST SWAP2 POP POP SWAP2 SWAP1 POP JUMP JUMPDEST DUP1 PUSH1 0x8 PUSH1 0x0 DUP5 DUP2 MSTORE PUSH1 0x20 ADD SWAP1 DUP2 MSTORE PUSH1 0x20 ADD PUSH1 0x0 KECCAK256 SWAP1 DUP2 PUSH2 0x1D5A SWAP2 SWAP1 PUSH2 0x4C77 JUMP JUMPDEST POP DUP2 PUSH32 0x6BB7FF708619BA0610CBA295A58592E0451DEE2622938C8755667688DAF3529B PUSH2 0x1D86 DUP5 PUSH2 0xBA0 JUMP JUMPDEST PUSH1 0x40 MLOAD PUSH2 0x1D93 SWAP2 SWAP1 PUSH2 0x3E00 JUMP JUMPDEST PUSH1 0x40 MLOAD DUP1 SWAP2 SUB SWAP1 LOG2 POP POP JUMP JUMPDEST PUSH1 0x0 PUSH20 0xFFFFFFFFFFFFFFFFFFFFFFFFFFFFFFFFFFFFFFFF AND DUP5 PUSH20 0xFFFFFFFFFFFFFFFFFFFFFFFFFFFFFFFFFFFFFFFF AND SUB PUSH2 0x1E11 JUMPI PUSH1 0x0 PUSH1 0x40 MLOAD PUSH32 0x57F447CE00000000000000000000000000000000000000000000000000000000 DUP2 MSTORE PUSH1 0x4 ADD PUSH2 0x1E08 SWAP2 SWAP1 PUSH2 0x4E2C JUMP JUMPDEST PUSH1 0x40 MLOAD DUP1 SWAP2 SUB SWAP1 REVERT JUMPDEST PUSH2 0x1E1F PUSH1 0x0 DUP6 DUP6 DUP6 DUP6 PUSH2 0x27F9 JUMP JUMPDEST POP POP POP POP JUMP JUMPDEST PUSH1 0x0 CALLER SWAP1 POP SWAP1 JUMP JUMPDEST PUSH1 0x0 PUSH20 0xFFFFFFFFFFFFFFFFFFFFFFFFFFFFFFFFFFFFFFFF AND DUP5 PUSH20 0xFFFFFFFFFFFFFFFFFFFFFFFFFFFFFFFFFFFFFFFF AND SUB PUSH2 0x1E9F JUMPI PUSH1 0x0 PUSH1 0x40 MLOAD PUSH32 0x57F447CE00000000000000000000000000000000000000000000000000000000 DUP2 MSTORE PUSH1 0x4 ADD PUSH2 0x1E96 SWAP2 SWAP1 PUSH2 0x4E2C JUMP JUMPDEST PUSH1 0x40 MLOAD DUP1 SWAP2 SUB SWAP1 REVERT JUMPDEST PUSH1 0x0 PUSH20 0xFFFFFFFFFFFFFFFFFFFFFFFFFFFFFFFFFFFFFFFF AND DUP6 PUSH20 0xFFFFFFFFFFFFFFFFFFFFFFFFFFFFFFFFFFFFFFFF AND SUB PUSH2 0x1F11 JUMPI PUSH1 0x0 PUSH1 0x40 MLOAD PUSH32 0x1A8351400000000000000000000000000000000000000000000000000000000 DUP2 MSTORE PUSH1 0x4 ADD PUSH2 0x1F08 SWAP2 SWAP1 PUSH2 0x4E2C JUMP JUMPDEST PUSH1 0x40 MLOAD DUP1 SWAP2 SUB SWAP1 REVERT JUMPDEST PUSH2 0x1F1E DUP6 DUP6 DUP6 DUP6 DUP6 PUSH2 0x27F9 JUMP JUMPDEST POP POP POP POP POP JUMP JUMPDEST PUSH1 0x0 PUSH2 0x1F31 DUP4 DUP4 PUSH2 0x1759 JUMP JUMPDEST PUSH2 0x200C JUMPI PUSH1 0x1 PUSH1 0x3 PUSH1 0x0 DUP6 DUP2 MSTORE PUSH1 0x20 ADD SWAP1 DUP2 MSTORE PUSH1 0x20 ADD PUSH1 0x0 KECCAK256 PUSH1 0x0 ADD PUSH1 0x0 DUP5 PUSH20 0xFFFFFFFFFFFFFFFFFFFFFFFFFFFFFFFFFFFFFFFF AND PUSH20 0xFFFFFFFFFFFFFFFFFFFFFFFFFFFFFFFFFFFFFFFF AND DUP2 MSTORE PUSH1 0x20 ADD SWAP1 DUP2 MSTORE PUSH1 0x20 ADD PUSH1 0x0 KECCAK256 PUSH1 0x0 PUSH2 0x100 EXP DUP2 SLOAD DUP2 PUSH1 0xFF MUL NOT AND SWAP1 DUP4 ISZERO ISZERO MUL OR SWAP1 SSTORE POP PUSH2 0x1FA9 PUSH2 0x1E25 JUMP JUMPDEST PUSH20 0xFFFFFFFFFFFFFFFFFFFFFFFFFFFFFFFFFFFFFFFF AND DUP3 PUSH20 0xFFFFFFFFFFFFFFFFFFFFFFFFFFFFFFFFFFFFFFFF AND DUP5 PUSH32 0x2F8788117E7EFF1D82E926EC794901D17C78024A50270940304540A733656F0D PUSH1 0x40 MLOAD PUSH1 0x40 MLOAD DUP1 SWAP2 SUB SWAP1 LOG4 PUSH1 0x1 SWAP1 POP PUSH2 0x2011 JUMP JUMPDEST PUSH1 0x0 SWAP1 POP JUMPDEST SWAP3 SWAP2 POP POP JUMP JUMPDEST PUSH1 0x0 PUSH2 0x2023 DUP4 DUP4 PUSH2 0x1759 JUMP JUMPDEST ISZERO PUSH2 0x20FF JUMPI PUSH1 0x0 PUSH1 0x3 PUSH1 0x0 DUP6 DUP2 MSTORE PUSH1 0x20 ADD SWAP1 DUP2 MSTORE PUSH1 0x20 ADD PUSH1 0x0 KECCAK256 PUSH1 0x0 ADD PUSH1 0x0 DUP5 PUSH20 0xFFFFFFFFFFFFFFFFFFFFFFFFFFFFFFFFFFFFFFFF AND PUSH20 0xFFFFFFFFFFFFFFFFFFFFFFFFFFFFFFFFFFFFFFFF AND DUP2 MSTORE PUSH1 0x20 ADD SWAP1 DUP2 MSTORE PUSH1 0x20 ADD PUSH1 0x0 KECCAK256 PUSH1 0x0 PUSH2 0x100 EXP DUP2 SLOAD DUP2 PUSH1 0xFF MUL NOT AND SWAP1 DUP4 ISZERO ISZERO MUL OR SWAP1 SSTORE POP PUSH2 0x209C PUSH2 0x1E25 JUMP JUMPDEST PUSH20 0xFFFFFFFFFFFFFFFFFFFFFFFFFFFFFFFFFFFFFFFF AND DUP3 PUSH20 0xFFFFFFFFFFFFFFFFFFFFFFFFFFFFFFFFFFFFFFFF AND DUP5 PUSH32 0xF6391F5C32D9C69D2A47EA670B442974B53935D1EDC7FD64EB21E047A839171B PUSH1 0x40 MLOAD PUSH1 0x40 MLOAD DUP1 SWAP2 SUB SWAP1 LOG4 PUSH1 0x1 SWAP1 POP PUSH2 0x2104 JUMP JUMPDEST PUSH1 0x0 SWAP1 POP JUMPDEST SWAP3 SWAP2 POP POP JUMP JUMPDEST PUSH2 0x2112 PUSH2 0x28AB JUMP JUMPDEST PUSH1 0x0 PUSH1 0x4 PUSH1 0x0 PUSH2 0x100 EXP DUP2 SLOAD DUP2 PUSH1 0xFF MUL NOT AND SWAP1 DUP4 ISZERO ISZERO MUL OR SWAP1 SSTORE POP PUSH32 0x5DB9EE0A495BF2E6FF9C91A7834C1BA4FDD244A5E8AA4E537BD38AEAE4B073AA PUSH2 0x2156 PUSH2 0x1E25 JUMP JUMPDEST PUSH1 0x40 MLOAD PUSH2 0x2163 SWAP2 SWAP1 PUSH2 0x4E2C JUMP JUMPDEST PUSH1 0x40 MLOAD DUP1 SWAP2 SUB SWAP1 LOG1 JUMP JUMPDEST DUP1 PUSH1 0x7 SWAP1 DUP2 PUSH2 0x217C SWAP2 SWAP1 PUSH2 0x4C77 JUMP JUMPDEST POP POP JUMP JUMPDEST PUSH1 0x0 PUSH20 0xFFFFFFFFFFFFFFFFFFFFFFFFFFFFFFFFFFFFFFFF AND DUP4 PUSH20 0xFFFFFFFFFFFFFFFFFFFFFFFFFFFFFFFFFFFFFFFF AND SUB PUSH2 0x21F2 JUMPI PUSH1 0x0 PUSH1 0x40 MLOAD PUSH32 0x1A8351400000000000000000000000000000000000000000000000000000000 DUP2 MSTORE PUSH1 0x4 ADD PUSH2 0x21E9 SWAP2 SWAP1 PUSH2 0x4E2C JUMP JUMPDEST PUSH1 0x40 MLOAD DUP1 SWAP2 SUB SWAP1 REVERT JUMPDEST PUSH2 0x220F DUP4 PUSH1 0x0 DUP5 DUP5 PUSH1 0x40 MLOAD DUP1 PUSH1 0x20 ADD PUSH1 0x40 MSTORE DUP1 PUSH1 0x0 DUP2 MSTORE POP PUSH2 0x27F9 JUMP JUMPDEST POP POP POP JUMP JUMPDEST PUSH1 0x0 PUSH20 0xFFFFFFFFFFFFFFFFFFFFFFFFFFFFFFFFFFFFFFFF AND DUP5 PUSH20 0xFFFFFFFFFFFFFFFFFFFFFFFFFFFFFFFFFFFFFFFF AND SUB PUSH2 0x2286 JUMPI PUSH1 0x0 PUSH1 0x40 MLOAD PUSH32 0x57F447CE00000000000000000000000000000000000000000000000000000000 DUP2 MSTORE PUSH1 0x4 ADD PUSH2 0x227D SWAP2 SWAP1 PUSH2 0x4E2C JUMP JUMPDEST PUSH1 0x40 MLOAD DUP1 SWAP2 SUB SWAP1 REVERT JUMPDEST PUSH1 0x0 DUP1 PUSH2 0x2293 DUP6 DUP6 PUSH2 0x28EB JUMP JUMPDEST SWAP2 POP SWAP2 POP PUSH2 0x22A5 PUSH1 0x0 DUP8 DUP5 DUP5 DUP8 PUSH2 0x27F9 JUMP JUMPDEST POP POP POP POP POP POP JUMP JUMPDEST PUSH2 0x22B5 PUSH2 0x291B JUMP JUMPDEST PUSH1 0x1 PUSH1 0x4 PUSH1 0x0 PUSH2 0x100 EXP DUP2 SLOAD DUP2 PUSH1 0xFF MUL NOT AND SWAP1 DUP4 ISZERO ISZERO MUL OR SWAP1 SSTORE POP PUSH32 0x62E78CEA01BEE320CD4E420270B5EA74000D11B0C9F74754EBDBFC544B05A258 PUSH2 0x22F9 PUSH2 0x1E25 JUMP JUMPDEST PUSH1 0x40 MLOAD PUSH2 0x2306 SWAP2 SWAP1 PUSH2 0x4E2C JUMP JUMPDEST PUSH1 0x40 MLOAD DUP1 SWAP2 SUB SWAP1 LOG1 JUMP JUMPDEST PUSH1 0x0 PUSH20 0xFFFFFFFFFFFFFFFFFFFFFFFFFFFFFFFFFFFFFFFF AND DUP3 PUSH20 0xFFFFFFFFFFFFFFFFFFFFFFFFFFFFFFFFFFFFFFFF AND SUB PUSH2 0x2382 JUMPI PUSH1 0x0 PUSH1 0x40 MLOAD PUSH32 0xCED3E10000000000000000000000000000000000000000000000000000000000 DUP2 MSTORE PUSH1 0x4 ADD PUSH2 0x2379 SWAP2 SWAP1 PUSH2 0x4E2C JUMP JUMPDEST PUSH1 0x40 MLOAD DUP1 SWAP2 SUB SWAP1 REVERT JUMPDEST DUP1 PUSH1 0x1 PUSH1 0x0 DUP6 PUSH20 0xFFFFFFFFFFFFFFFFFFFFFFFFFFFFFFFFFFFFFFFF AND PUSH20 0xFFFFFFFFFFFFFFFFFFFFFFFFFFFFFFFFFFFFFFFF AND DUP2 MSTORE PUSH1 0x20 ADD SWAP1 DUP2 MSTORE PUSH1 0x20 ADD PUSH1 0x0 KECCAK256 PUSH1 0x0 DUP5 PUSH20 0xFFFFFFFFFFFFFFFFFFFFFFFFFFFFFFFFFFFFFFFF AND PUSH20 0xFFFFFFFFFFFFFFFFFFFFFFFFFFFFFFFFFFFFFFFF AND DUP2 MSTORE PUSH1 0x20 ADD SWAP1 DUP2 MSTORE PUSH1 0x20 ADD PUSH1 0x0 KECCAK256 PUSH1 0x0 PUSH2 0x100 EXP DUP2 SLOAD DUP2 PUSH1 0xFF MUL NOT AND SWAP1 DUP4 ISZERO ISZERO MUL OR SWAP1 SSTORE POP DUP2 PUSH20 0xFFFFFFFFFFFFFFFFFFFFFFFFFFFFFFFFFFFFFFFF AND DUP4 PUSH20 0xFFFFFFFFFFFFFFFFFFFFFFFFFFFFFFFFFFFFFFFF AND PUSH32 0x17307EAB39AB6107E8899845AD3D59BD9653F200F220920489CA2B5937696C31 DUP4 PUSH1 0x40 MLOAD PUSH2 0x2473 SWAP2 SWAP1 PUSH2 0x3802 JUMP JUMPDEST PUSH1 0x40 MLOAD DUP1 SWAP2 SUB SWAP1 LOG3 POP POP POP JUMP JUMPDEST PUSH1 0x0 PUSH20 0xFFFFFFFFFFFFFFFFFFFFFFFFFFFFFFFFFFFFFFFF AND DUP5 PUSH20 0xFFFFFFFFFFFFFFFFFFFFFFFFFFFFFFFFFFFFFFFF AND SUB PUSH2 0x24F2 JUMPI PUSH1 0x0 PUSH1 0x40 MLOAD PUSH32 0x57F447CE00000000000000000000000000000000000000000000000000000000 DUP2 MSTORE PUSH1 0x4 ADD PUSH2 0x24E9 SWAP2 SWAP1 PUSH2 0x4E2C JUMP JUMPDEST PUSH1 0x40 MLOAD DUP1 SWAP2 SUB SWAP1 REVERT JUMPDEST PUSH1 0x0 PUSH20 0xFFFFFFFFFFFFFFFFFFFFFFFFFFFFFFFFFFFFFFFF AND DUP6 PUSH20 0xFFFFFFFFFFFFFFFFFFFFFFFFFFFFFFFFFFFFFFFF AND SUB PUSH2 0x2564 JUMPI PUSH1 0x0 PUSH1 0x40 MLOAD PUSH32 0x1A8351400000000000000000000000000000000000000000000000000000000 DUP2 MSTORE PUSH1 0x4 ADD PUSH2 0x255B SWAP2 SWAP1 PUSH2 0x4E2C JUMP JUMPDEST PUSH1 0x40 MLOAD DUP1 SWAP2 SUB SWAP1 REVERT JUMPDEST PUSH1 0x0 DUP1 PUSH2 0x2571 DUP6 DUP6 PUSH2 0x28EB JUMP JUMPDEST SWAP2 POP SWAP2 POP PUSH2 0x2582 DUP8 DUP8 DUP5 DUP5 DUP8 PUSH2 0x27F9 JUMP JUMPDEST POP POP POP POP POP POP POP JUMP JUMPDEST PUSH1 0x0 PUSH20 0xFFFFFFFFFFFFFFFFFFFFFFFFFFFFFFFFFFFFFFFF AND DUP4 PUSH20 0xFFFFFFFFFFFFFFFFFFFFFFFFFFFFFFFFFFFFFFFF AND SUB PUSH2 0x25FD JUMPI PUSH1 0x0 PUSH1 0x40 MLOAD PUSH32 0x1A8351400000000000000000000000000000000000000000000000000000000 DUP2 MSTORE PUSH1 0x4 ADD PUSH2 0x25F4 SWAP2 SWAP1 PUSH2 0x4E2C JUMP JUMPDEST PUSH1 0x40 MLOAD DUP1 SWAP2 SUB SWAP1 REVERT JUMPDEST PUSH1 0x0 DUP1 PUSH2 0x260A DUP5 DUP5 PUSH2 0x28EB JUMP JUMPDEST SWAP2 POP SWAP2 POP PUSH2 0x262B DUP6 PUSH1 0x0 DUP5 DUP5 PUSH1 0x40 MLOAD DUP1 PUSH1 0x20 ADD PUSH1 0x40 MSTORE DUP1 PUSH1 0x0 DUP2 MSTORE POP PUSH2 0x27F9 JUMP JUMPDEST POP POP POP POP POP JUMP JUMPDEST PUSH1 0x0 PUSH32 0xD9B67A2600000000000000000000000000000000000000000000000000000000 PUSH28 0xFFFFFFFFFFFFFFFFFFFFFFFFFFFFFFFFFFFFFFFFFFFFFFFFFFFFFFFF NOT AND DUP3 PUSH28 0xFFFFFFFFFFFFFFFFFFFFFFFFFFFFFFFFFFFFFFFFFFFFFFFFFFFFFFFF NOT AND EQ DUP1 PUSH2 0x26FD JUMPI POP PUSH32 0xE89341C00000000000000000000000000000000000000000000000000000000 PUSH28 0xFFFFFFFFFFFFFFFFFFFFFFFFFFFFFFFFFFFFFFFFFFFFFFFFFFFFFFFF NOT AND DUP3 PUSH28 0xFFFFFFFFFFFFFFFFFFFFFFFFFFFFFFFFFFFFFFFFFFFFFFFFFFFFFFFF NOT AND EQ JUMPDEST DUP1 PUSH2 0x270D JUMPI POP PUSH2 0x270C DUP3 PUSH2 0x295C JUMP JUMPDEST JUMPDEST SWAP1 POP SWAP2 SWAP1 POP JUMP JUMPDEST PUSH2 0x271E DUP3 DUP3 PUSH2 0x1759 JUMP JUMPDEST PUSH2 0x2761 JUMPI DUP1 DUP3 PUSH1 0x40 MLOAD PUSH32 0xE2517D3F00000000000000000000000000000000000000000000000000000000 DUP2 MSTORE PUSH1 0x4 ADD PUSH2 0x2758 SWAP3 SWAP2 SWAP1 PUSH2 0x4E47 JUMP JUMPDEST PUSH1 0x40 MLOAD DUP1 SWAP2 SUB SWAP1 REVERT JUMPDEST POP POP JUMP JUMPDEST PUSH1 0x60 PUSH1 0x2 DUP1 SLOAD PUSH2 0x2774 SWAP1 PUSH2 0x4A9A JUMP JUMPDEST DUP1 PUSH1 0x1F ADD PUSH1 0x20 DUP1 SWAP2 DIV MUL PUSH1 0x20 ADD PUSH1 0x40 MLOAD SWAP1 DUP2 ADD PUSH1 0x40 MSTORE DUP1 SWAP3 SWAP2 SWAP1 DUP2 DUP2 MSTORE PUSH1 0x20 ADD DUP3 DUP1 SLOAD PUSH2 0x27A0 SWAP1 PUSH2 0x4A9A JUMP JUMPDEST DUP1 ISZERO PUSH2 0x27ED JUMPI DUP1 PUSH1 0x1F LT PUSH2 0x27C2 JUMPI PUSH2 0x100 DUP1 DUP4 SLOAD DIV MUL DUP4 MSTORE SWAP2 PUSH1 0x20 ADD SWAP2 PUSH2 0x27ED JUMP JUMPDEST DUP3 ADD SWAP2 SWAP1 PUSH1 0x0 MSTORE PUSH1 0x20 PUSH1 0x0 KECCAK256 SWAP1 JUMPDEST DUP2 SLOAD DUP2 MSTORE SWAP1 PUSH1 0x1 ADD SWAP1 PUSH1 0x20 ADD DUP1 DUP4 GT PUSH2 0x27D0 JUMPI DUP3 SWAP1 SUB PUSH1 0x1F AND DUP3 ADD SWAP2 JUMPDEST POP POP POP POP POP SWAP1 POP SWAP2 SWAP1 POP JUMP JUMPDEST PUSH2 0x2805 DUP6 DUP6 DUP6 DUP6 PUSH2 0x29C6 JUMP JUMPDEST PUSH1 0x0 PUSH20 0xFFFFFFFFFFFFFFFFFFFFFFFFFFFFFFFFFFFFFFFF AND DUP5 PUSH20 0xFFFFFFFFFFFFFFFFFFFFFFFFFFFFFFFFFFFFFFFF AND EQ PUSH2 0x28A4 JUMPI PUSH1 0x0 PUSH2 0x2843 PUSH2 0x1E25 JUMP JUMPDEST SWAP1 POP PUSH1 0x1 DUP5 MLOAD SUB PUSH2 0x2893 JUMPI PUSH1 0x0 PUSH2 0x2864 PUSH1 0x0 DUP7 PUSH2 0x2D75 SWAP1 SWAP2 SWAP1 PUSH4 0xFFFFFFFF AND JUMP JUMPDEST SWAP1 POP PUSH1 0x0 PUSH2 0x287C PUSH1 0x0 DUP7 PUSH2 0x2D75 SWAP1 SWAP2 SWAP1 PUSH4 0xFFFFFFFF AND JUMP JUMPDEST SWAP1 POP PUSH2 0x288C DUP4 DUP10 DUP10 DUP6 DUP6 DUP10 PUSH2 0x2D89 JUMP JUMPDEST POP POP PUSH2 0x28A2 JUMP JUMPDEST PUSH2 0x28A1 DUP2 DUP8 DUP8 DUP8 DUP8 DUP8 PUSH2 0x2F3D JUMP JUMPDEST JUMPDEST POP JUMPDEST POP POP POP POP POP JUMP JUMPDEST PUSH2 0x28B3 PUSH2 0x122D JUMP JUMPDEST PUSH2 0x28E9 JUMPI PUSH1 0x40 MLOAD PUSH32 0x8DFC202B00000000000000000000000000000000000000000000000000000000 DUP2 MSTORE PUSH1 0x4 ADD PUSH1 0x40 MLOAD DUP1 SWAP2 SUB SWAP1 REVERT JUMPDEST JUMP JUMPDEST PUSH1 0x60 DUP1 PUSH1 0x40 MLOAD SWAP2 POP PUSH1 0x1 DUP3 MSTORE DUP4 PUSH1 0x20 DUP4 ADD MSTORE PUSH1 0x40 DUP3 ADD SWAP1 POP PUSH1 0x1 DUP2 MSTORE DUP3 PUSH1 0x20 DUP3 ADD MSTORE PUSH1 0x40 DUP2 ADD PUSH1 0x40 MSTORE SWAP3 POP SWAP3 SWAP1 POP JUMP JUMPDEST PUSH2 0x2923 PUSH2 0x122D JUMP JUMPDEST ISZERO PUSH2 0x295A JUMPI PUSH1 0x40 MLOAD PUSH32 0xD93C066500000000000000000000000000000000000000000000000000000000 DUP2 MSTORE PUSH1 0x4 ADD PUSH1 0x40 MLOAD DUP1 SWAP2 SUB SWAP1 REVERT JUMPDEST JUMP JUMPDEST PUSH1 0x0 PUSH32 0x1FFC9A700000000000000000000000000000000000000000000000000000000 PUSH28 0xFFFFFFFFFFFFFFFFFFFFFFFFFFFFFFFFFFFFFFFFFFFFFFFFFFFFFFFF NOT AND DUP3 PUSH28 0xFFFFFFFFFFFFFFFFFFFFFFFFFFFFFFFFFFFFFFFFFFFFFFFFFFFFFFFF NOT AND EQ SWAP1 POP SWAP2 SWAP1 POP JUMP JUMPDEST PUSH1 0x0 PUSH20 0xFFFFFFFFFFFFFFFFFFFFFFFFFFFFFFFFFFFFFFFF AND DUP5 PUSH20 0xFFFFFFFFFFFFFFFFFFFFFFFFFFFFFFFFFFFFFFFF AND EQ ISZERO DUP1 ISZERO PUSH2 0x2A30 JUMPI POP PUSH1 0x0 PUSH20 0xFFFFFFFFFFFFFFFFFFFFFFFFFFFFFFFFFFFFFFFF AND DUP4 PUSH20 0xFFFFFFFFFFFFFFFFFFFFFFFFFFFFFFFFFFFFFFFF AND EQ ISZERO JUMPDEST ISZERO PUSH2 0x2AA6 JUMPI PUSH2 0x2A66 PUSH32 0x9F2DF0FED2C77648DE5860A4CC508CD0818C85B8B8A1AB4CEEEF8D981C8956A6 PUSH2 0x2A61 PUSH2 0x1E25 JUMP JUMPDEST PUSH2 0x1759 JUMP JUMPDEST PUSH2 0x2AA5 JUMPI PUSH1 0x40 MLOAD PUSH32 0x8C379A000000000000000000000000000000000000000000000000000000000 DUP2 MSTORE PUSH1 0x4 ADD PUSH2 0x2A9C SWAP1 PUSH2 0x4EE2 JUMP JUMPDEST PUSH1 0x40 MLOAD DUP1 SWAP2 SUB SWAP1 REVERT JUMPDEST JUMPDEST PUSH1 0x0 PUSH20 0xFFFFFFFFFFFFFFFFFFFFFFFFFFFFFFFFFFFFFFFF AND DUP5 PUSH20 0xFFFFFFFFFFFFFFFFFFFFFFFFFFFFFFFFFFFFFFFF AND EQ PUSH2 0x2C15 JUMPI PUSH1 0x0 JUMPDEST DUP3 MLOAD DUP2 LT ISZERO PUSH2 0x2C13 JUMPI PUSH1 0x0 DUP3 DUP3 DUP2 MLOAD DUP2 LT PUSH2 0x2AFB JUMPI PUSH2 0x2AFA PUSH2 0x47D7 JUMP JUMPDEST JUMPDEST PUSH1 0x20 MUL PUSH1 0x20 ADD ADD MLOAD GT ISZERO PUSH2 0x2C00 JUMPI PUSH1 0x0 PUSH1 0xC PUSH1 0x0 DUP8 PUSH20 0xFFFFFFFFFFFFFFFFFFFFFFFFFFFFFFFFFFFFFFFF AND PUSH20 0xFFFFFFFFFFFFFFFFFFFFFFFFFFFFFFFFFFFFFFFF AND DUP2 MSTORE PUSH1 0x20 ADD SWAP1 DUP2 MSTORE PUSH1 0x20 ADD PUSH1 0x0 KECCAK256 PUSH1 0x0 DUP6 DUP5 DUP2 MLOAD DUP2 LT PUSH2 0x2B5F JUMPI PUSH2 0x2B5E PUSH2 0x47D7 JUMP JUMPDEST JUMPDEST PUSH1 0x20 MUL PUSH1 0x20 ADD ADD MLOAD DUP2 MSTORE PUSH1 0x20 ADD SWAP1 DUP2 MSTORE PUSH1 0x20 ADD PUSH1 0x0 KECCAK256 SLOAD SWAP1 POP PUSH1 0x0 DUP2 EQ ISZERO DUP1 ISZERO PUSH2 0x2B89 JUMPI POP TIMESTAMP DUP2 GT ISZERO JUMPDEST ISZERO PUSH2 0x2BFE JUMPI PUSH1 0x0 PUSH20 0xFFFFFFFFFFFFFFFFFFFFFFFFFFFFFFFFFFFFFFFF AND DUP6 PUSH20 0xFFFFFFFFFFFFFFFFFFFFFFFFFFFFFFFFFFFFFFFF AND EQ PUSH2 0x2BFD JUMPI PUSH1 0x40 MLOAD PUSH32 0x8C379A000000000000000000000000000000000000000000000000000000000 DUP2 MSTORE PUSH1 0x4 ADD PUSH2 0x2BF4 SWAP1 PUSH2 0x4F74 JUMP JUMPDEST PUSH1 0x40 MLOAD DUP1 SWAP2 SUB SWAP1 REVERT JUMPDEST JUMPDEST POP JUMPDEST DUP1 DUP1 PUSH2 0x2C0B SWAP1 PUSH2 0x4835 JUMP JUMPDEST SWAP2 POP POP PUSH2 0x2ADD JUMP JUMPDEST POP JUMPDEST PUSH2 0x2C21 DUP5 DUP5 DUP5 DUP5 PUSH2 0x30F1 JUMP JUMPDEST PUSH1 0x0 PUSH20 0xFFFFFFFFFFFFFFFFFFFFFFFFFFFFFFFFFFFFFFFF AND DUP4 PUSH20 0xFFFFFFFFFFFFFFFFFFFFFFFFFFFFFFFFFFFFFFFF AND EQ ISZERO DUP1 ISZERO PUSH2 0x2C8B JUMPI POP PUSH1 0x0 PUSH20 0xFFFFFFFFFFFFFFFFFFFFFFFFFFFFFFFFFFFFFFFF AND DUP5 PUSH20 0xFFFFFFFFFFFFFFFFFFFFFFFFFFFFFFFFFFFFFFFF AND EQ ISZERO JUMPDEST ISZERO PUSH2 0x2D6F JUMPI PUSH1 0x0 JUMPDEST DUP3 MLOAD DUP2 LT ISZERO PUSH2 0x2D6D JUMPI PUSH1 0x0 DUP3 DUP3 DUP2 MLOAD DUP2 LT PUSH2 0x2CB1 JUMPI PUSH2 0x2CB0 PUSH2 0x47D7 JUMP JUMPDEST JUMPDEST PUSH1 0x20 MUL PUSH1 0x20 ADD ADD MLOAD GT ISZERO PUSH2 0x2D5A JUMPI PUSH1 0x0 PUSH2 0x2CE5 DUP7 DUP6 DUP5 DUP2 MLOAD DUP2 LT PUSH2 0x2CD8 JUMPI PUSH2 0x2CD7 PUSH2 0x47D7 JUMP JUMPDEST JUMPDEST PUSH1 0x20 MUL PUSH1 0x20 ADD ADD MLOAD PUSH2 0x1AC1 JUMP JUMPDEST SUB PUSH2 0x2D59 JUMPI PUSH1 0xC PUSH1 0x0 DUP7 PUSH20 0xFFFFFFFFFFFFFFFFFFFFFFFFFFFFFFFFFFFFFFFF AND PUSH20 0xFFFFFFFFFFFFFFFFFFFFFFFFFFFFFFFFFFFFFFFF AND DUP2 MSTORE PUSH1 0x20 ADD SWAP1 DUP2 MSTORE PUSH1 0x20 ADD PUSH1 0x0 KECCAK256 PUSH1 0x0 DUP5 DUP4 DUP2 MLOAD DUP2 LT PUSH2 0x2D3E JUMPI PUSH2 0x2D3D PUSH2 0x47D7 JUMP JUMPDEST JUMPDEST PUSH1 0x20 MUL PUSH1 0x20 ADD ADD MLOAD DUP2 MSTORE PUSH1 0x20 ADD SWAP1 DUP2 MSTORE PUSH1 0x20 ADD PUSH1 0x0 KECCAK256 PUSH1 0x0 SWAP1 SSTORE JUMPDEST JUMPDEST DUP1 DUP1 PUSH2 0x2D65 SWAP1 PUSH2 0x4835 JUMP JUMPDEST SWAP2 POP POP PUSH2 0x2C93 JUMP JUMPDEST POP JUMPDEST POP POP POP POP JUMP JUMPDEST PUSH1 0x0 PUSH1 0x20 DUP3 MUL PUSH1 0x20 DUP5 ADD ADD MLOAD SWAP1 POP SWAP3 SWAP2 POP POP JUMP JUMPDEST PUSH1 0x0 DUP5 PUSH20 0xFFFFFFFFFFFFFFFFFFFFFFFFFFFFFFFFFFFFFFFF AND EXTCODESIZE GT ISZERO PUSH2 0x2F35 JUMPI DUP4 PUSH20 0xFFFFFFFFFFFFFFFFFFFFFFFFFFFFFFFFFFFFFFFF AND PUSH4 0xF23A6E61 DUP8 DUP8 DUP7 DUP7 DUP7 PUSH1 0x40 MLOAD DUP7 PUSH4 0xFFFFFFFF AND PUSH1 0xE0 SHL DUP2 MSTORE PUSH1 0x4 ADD PUSH2 0x2DEA SWAP6 SWAP5 SWAP4 SWAP3 SWAP2 SWAP1 PUSH2 0x4FE9 JUMP JUMPDEST PUSH1 0x20 PUSH1 0x40 MLOAD DUP1 DUP4 SUB DUP2 PUSH1 0x0 DUP8 GAS CALL SWAP3 POP POP POP DUP1 ISZERO PUSH2 0x2E26 JUMPI POP PUSH1 0x40 MLOAD RETURNDATASIZE PUSH1 0x1F NOT PUSH1 0x1F DUP3 ADD AND DUP3 ADD DUP1 PUSH1 0x40 MSTORE POP DUP2 ADD SWAP1 PUSH2 0x2E23 SWAP2 SWAP1 PUSH2 0x5058 JUMP JUMPDEST PUSH1 0x1 JUMPDEST PUSH2 0x2EAA JUMPI RETURNDATASIZE DUP1 PUSH1 0x0 DUP2 EQ PUSH2 0x2E56 JUMPI PUSH1 0x40 MLOAD SWAP2 POP PUSH1 0x1F NOT PUSH1 0x3F RETURNDATASIZE ADD AND DUP3 ADD PUSH1 0x40 MSTORE RETURNDATASIZE DUP3 MSTORE RETURNDATASIZE PUSH1 0x0 PUSH1 0x20 DUP5 ADD RETURNDATACOPY PUSH2 0x2E5B JUMP JUMPDEST PUSH1 0x60 SWAP2 POP JUMPDEST POP PUSH1 0x0 DUP2 MLOAD SUB PUSH2 0x2EA2 JUMPI DUP5 PUSH1 0x40 MLOAD PUSH32 0x57F447CE00000000000000000000000000000000000000000000000000000000 DUP2 MSTORE PUSH1 0x4 ADD PUSH2 0x2E99 SWAP2 SWAP1 PUSH2 0x4E2C JUMP JUMPDEST PUSH1 0x40 MLOAD DUP1 SWAP2 SUB SWAP1 REVERT JUMPDEST DUP1 MLOAD DUP2 PUSH1 0x20 ADD REVERT JUMPDEST PUSH4 0xF23A6E61 PUSH1 0xE0 SHL PUSH28 0xFFFFFFFFFFFFFFFFFFFFFFFFFFFFFFFFFFFFFFFFFFFFFFFFFFFFFFFF NOT AND DUP2 PUSH28 0xFFFFFFFFFFFFFFFFFFFFFFFFFFFFFFFFFFFFFFFFFFFFFFFFFFFFFFFF NOT AND EQ PUSH2 0x2F33 JUMPI DUP5 PUSH1 0x40 MLOAD PUSH32 0x57F447CE00000000000000000000000000000000000000000000000000000000 DUP2 MSTORE PUSH1 0x4 ADD PUSH2 0x2F2A SWAP2 SWAP1 PUSH2 0x4E2C JUMP JUMPDEST PUSH1 0x40 MLOAD DUP1 SWAP2 SUB SWAP1 REVERT JUMPDEST POP JUMPDEST POP POP POP POP POP POP JUMP JUMPDEST PUSH1 0x0 DUP5 PUSH20 0xFFFFFFFFFFFFFFFFFFFFFFFFFFFFFFFFFFFFFFFF AND EXTCODESIZE GT ISZERO PUSH2 0x30E9 JUMPI DUP4 PUSH20 0xFFFFFFFFFFFFFFFFFFFFFFFFFFFFFFFFFFFFFFFF AND PUSH4 0xBC197C81 DUP8 DUP8 DUP7 DUP7 DUP7 PUSH1 0x40 MLOAD DUP7 PUSH4 0xFFFFFFFF AND PUSH1 0xE0 SHL DUP2 MSTORE PUSH1 0x4 ADD PUSH2 0x2F9E SWAP6 SWAP5 SWAP4 SWAP3 SWAP2 SWAP1 PUSH2 0x5085 JUMP JUMPDEST PUSH1 0x20 PUSH1 0x40 MLOAD DUP1 DUP4 SUB DUP2 PUSH1 0x0 DUP8 GAS CALL SWAP3 POP POP POP DUP1 ISZERO PUSH2 0x2FDA JUMPI POP PUSH1 0x40 MLOAD RETURNDATASIZE PUSH1 0x1F NOT PUSH1 0x1F DUP3 ADD AND DUP3 ADD DUP1 PUSH1 0x40 MSTORE POP DUP2 ADD SWAP1 PUSH2 0x2FD7 SWAP2 SWAP1 PUSH2 0x5058 JUMP JUMPDEST PUSH1 0x1 JUMPDEST PUSH2 0x305E JUMPI RETURNDATASIZE DUP1 PUSH1 0x0 DUP2 EQ PUSH2 0x300A JUMPI PUSH1 0x40 MLOAD SWAP2 POP PUSH1 0x1F NOT PUSH1 0x3F RETURNDATASIZE ADD AND DUP3 ADD PUSH1 0x40 MSTORE RETURNDATASIZE DUP3 MSTORE RETURNDATASIZE PUSH1 0x0 PUSH1 0x20 DUP5 ADD RETURNDATACOPY PUSH2 0x300F JUMP JUMPDEST PUSH1 0x60 SWAP2 POP JUMPDEST POP PUSH1 0x0 DUP2 MLOAD SUB PUSH2 0x3056 JUMPI DUP5 PUSH1 0x40 MLOAD PUSH32 0x57F447CE00000000000000000000000000000000000000000000000000000000 DUP2 MSTORE PUSH1 0x4 ADD PUSH2 0x304D SWAP2 SWAP1 PUSH2 0x4E2C JUMP JUMPDEST PUSH1 0x40 MLOAD DUP1 SWAP2 SUB SWAP1 REVERT JUMPDEST DUP1 MLOAD DUP2 PUSH1 0x20 ADD REVERT JUMPDEST PUSH4 0xBC197C81 PUSH1 0xE0 SHL PUSH28 0xFFFFFFFFFFFFFFFFFFFFFFFFFFFFFFFFFFFFFFFFFFFFFFFFFFFFFFFF NOT AND DUP2 PUSH28 0xFFFFFFFFFFFFFFFFFFFFFFFFFFFFFFFFFFFFFFFFFFFFFFFFFFFFFFFF NOT AND EQ PUSH2 0x30E7 JUMPI DUP5 PUSH1 0x40 MLOAD PUSH32 0x57F447CE00000000000000000000000000000000000000000000000000000000 DUP2 MSTORE PUSH1 0x4 ADD PUSH2 0x30DE SWAP2 SWAP1 PUSH2 0x4E2C JUMP JUMPDEST PUSH1 0x40 MLOAD DUP1 SWAP2 SUB SWAP1 REVERT JUMPDEST POP JUMPDEST POP POP POP POP POP POP JUMP JUMPDEST PUSH2 0x30FD DUP5 DUP5 DUP5 DUP5 PUSH2 0x3288 JUMP JUMPDEST PUSH1 0x0 PUSH20 0xFFFFFFFFFFFFFFFFFFFFFFFFFFFFFFFFFFFFFFFF AND DUP5 PUSH20 0xFFFFFFFFFFFFFFFFFFFFFFFFFFFFFFFFFFFFFFFF AND SUB PUSH2 0x31CD JUMPI PUSH1 0x0 DUP1 JUMPDEST DUP4 MLOAD DUP2 LT ISZERO PUSH2 0x31B1 JUMPI PUSH1 0x0 PUSH2 0x3153 DUP3 DUP6 PUSH2 0x2D75 SWAP1 SWAP2 SWAP1 PUSH4 0xFFFFFFFF AND JUMP JUMPDEST SWAP1 POP DUP1 PUSH1 0x5 PUSH1 0x0 PUSH2 0x316D DUP6 DUP10 PUSH2 0x2D75 SWAP1 SWAP2 SWAP1 PUSH4 0xFFFFFFFF AND JUMP JUMPDEST DUP2 MSTORE PUSH1 0x20 ADD SWAP1 DUP2 MSTORE PUSH1 0x20 ADD PUSH1 0x0 KECCAK256 PUSH1 0x0 DUP3 DUP3 SLOAD PUSH2 0x318A SWAP2 SWAP1 PUSH2 0x50ED JUMP JUMPDEST SWAP3 POP POP DUP2 SWAP1 SSTORE POP DUP1 DUP4 PUSH2 0x319D SWAP2 SWAP1 PUSH2 0x50ED JUMP JUMPDEST SWAP3 POP POP DUP1 PUSH2 0x31AA SWAP1 PUSH2 0x4835 JUMP JUMPDEST SWAP1 POP PUSH2 0x3135 JUMP JUMPDEST POP DUP1 PUSH1 0x6 PUSH1 0x0 DUP3 DUP3 SLOAD PUSH2 0x31C4 SWAP2 SWAP1 PUSH2 0x50ED JUMP JUMPDEST SWAP3 POP POP DUP2 SWAP1 SSTORE POP POP JUMPDEST PUSH1 0x0 PUSH20 0xFFFFFFFFFFFFFFFFFFFFFFFFFFFFFFFFFFFFFFFF AND DUP4 PUSH20 0xFFFFFFFFFFFFFFFFFFFFFFFFFFFFFFFFFFFFFFFF AND SUB PUSH2 0x3282 JUMPI PUSH1 0x0 DUP1 JUMPDEST DUP4 MLOAD DUP2 LT ISZERO PUSH2 0x326F JUMPI PUSH1 0x0 PUSH2 0x3223 DUP3 DUP6 PUSH2 0x2D75 SWAP1 SWAP2 SWAP1 PUSH4 0xFFFFFFFF AND JUMP JUMPDEST SWAP1 POP DUP1 PUSH1 0x5 PUSH1 0x0 PUSH2 0x323D DUP6 DUP10 PUSH2 0x2D75 SWAP1 SWAP2 SWAP1 PUSH4 0xFFFFFFFF AND JUMP JUMPDEST DUP2 MSTORE PUSH1 0x20 ADD SWAP1 DUP2 MSTORE PUSH1 0x20 ADD PUSH1 0x0 KECCAK256 PUSH1 0x0 DUP3 DUP3 SLOAD SUB SWAP3 POP POP DUP2 SWAP1 SSTORE POP DUP1 DUP4 ADD SWAP3 POP POP DUP1 PUSH2 0x3268 SWAP1 PUSH2 0x4835 JUMP JUMPDEST SWAP1 POP PUSH2 0x3205 JUMP JUMPDEST POP DUP1 PUSH1 0x6 PUSH1 0x0 DUP3 DUP3 SLOAD SUB SWAP3 POP POP DUP2 SWAP1 SSTORE POP POP JUMPDEST POP POP POP POP JUMP JUMPDEST PUSH2 0x3290 PUSH2 0x291B JUMP JUMPDEST PUSH2 0x329C DUP5 DUP5 DUP5 DUP5 PUSH2 0x32A2 JUMP JUMPDEST POP POP POP POP JUMP JUMPDEST DUP1 MLOAD DUP3 MLOAD EQ PUSH2 0x32EC JUMPI DUP2 MLOAD DUP2 MLOAD PUSH1 0x40 MLOAD PUSH32 0x5B05999100000000000000000000000000000000000000000000000000000000 DUP2 MSTORE PUSH1 0x4 ADD PUSH2 0x32E3 SWAP3 SWAP2 SWAP1 PUSH2 0x5121 JUMP JUMPDEST PUSH1 0x40 MLOAD DUP1 SWAP2 SUB SWAP1 REVERT JUMPDEST PUSH1 0x0 PUSH2 0x32F6 PUSH2 0x1E25 JUMP JUMPDEST SWAP1 POP PUSH1 0x0 JUMPDEST DUP4 MLOAD DUP2 LT ISZERO PUSH2 0x350B JUMPI PUSH1 0x0 PUSH2 0x3319 DUP3 DUP7 PUSH2 0x2D75 SWAP1 SWAP2 SWAP1 PUSH4 0xFFFFFFFF AND JUMP JUMPDEST SWAP1 POP PUSH1 0x0 PUSH2 0x3330 DUP4 DUP7 PUSH2 0x2D75 SWAP1 SWAP2 SWAP1 PUSH4 0xFFFFFFFF AND JUMP JUMPDEST SWAP1 POP PUSH1 0x0 PUSH20 0xFFFFFFFFFFFFFFFFFFFFFFFFFFFFFFFFFFFFFFFF AND DUP9 PUSH20 0xFFFFFFFFFFFFFFFFFFFFFFFFFFFFFFFFFFFFFFFF AND EQ PUSH2 0x345D JUMPI PUSH1 0x0 DUP1 PUSH1 0x0 DUP5 DUP2 MSTORE PUSH1 0x20 ADD SWAP1 DUP2 MSTORE PUSH1 0x20 ADD PUSH1 0x0 KECCAK256 PUSH1 0x0 DUP11 PUSH20 0xFFFFFFFFFFFFFFFFFFFFFFFFFFFFFFFFFFFFFFFF AND PUSH20 0xFFFFFFFFFFFFFFFFFFFFFFFFFFFFFFFFFFFFFFFF AND DUP2 MSTORE PUSH1 0x20 ADD SWAP1 DUP2 MSTORE PUSH1 0x20 ADD PUSH1 0x0 KECCAK256 SLOAD SWAP1 POP DUP2 DUP2 LT ISZERO PUSH2 0x3405 JUMPI DUP9 DUP2 DUP4 DUP6 PUSH1 0x40 MLOAD PUSH32 0x3DEE4C500000000000000000000000000000000000000000000000000000000 DUP2 MSTORE PUSH1 0x4 ADD PUSH2 0x33FC SWAP5 SWAP4 SWAP3 SWAP2 SWAP1 PUSH2 0x514A JUMP JUMPDEST PUSH1 0x40 MLOAD DUP1 SWAP2 SUB SWAP1 REVERT JUMPDEST DUP2 DUP2 SUB PUSH1 0x0 DUP1 DUP6 DUP2 MSTORE PUSH1 0x20 ADD SWAP1 DUP2 MSTORE PUSH1 0x20 ADD PUSH1 0x0 KECCAK256 PUSH1 0x0 DUP12 PUSH20 0xFFFFFFFFFFFFFFFFFFFFFFFFFFFFFFFFFFFFFFFF AND PUSH20 0xFFFFFFFFFFFFFFFFFFFFFFFFFFFFFFFFFFFFFFFF AND DUP2 MSTORE PUSH1 0x20 ADD SWAP1 DUP2 MSTORE PUSH1 0x20 ADD PUSH1 0x0 KECCAK256 DUP2 SWAP1 SSTORE POP POP JUMPDEST PUSH1 0x0 PUSH20 0xFFFFFFFFFFFFFFFFFFFFFFFFFFFFFFFFFFFFFFFF AND DUP8 PUSH20 0xFFFFFFFFFFFFFFFFFFFFFFFFFFFFFFFFFFFFFFFF AND EQ PUSH2 0x34F8 JUMPI DUP1 PUSH1 0x0 DUP1 DUP5 DUP2 MSTORE PUSH1 0x20 ADD SWAP1 DUP2 MSTORE PUSH1 0x20 ADD PUSH1 0x0 KECCAK256 PUSH1 0x0 DUP10 PUSH20 0xFFFFFFFFFFFFFFFFFFFFFFFFFFFFFFFFFFFFFFFF AND PUSH20 0xFFFFFFFFFFFFFFFFFFFFFFFFFFFFFFFFFFFFFFFF AND DUP2 MSTORE PUSH1 0x20 ADD SWAP1 DUP2 MSTORE PUSH1 0x20 ADD PUSH1 0x0 KECCAK256 PUSH1 0x0 DUP3 DUP3 SLOAD PUSH2 0x34F0 SWAP2 SWAP1 PUSH2 0x50ED JUMP JUMPDEST SWAP3 POP POP DUP2 SWAP1 SSTORE POP JUMPDEST POP POP DUP1 PUSH2 0x3504 SWAP1 PUSH2 0x4835 JUMP JUMPDEST SWAP1 POP PUSH2 0x32FB JUMP JUMPDEST POP PUSH1 0x1 DUP4 MLOAD SUB PUSH2 0x35CA JUMPI PUSH1 0x0 PUSH2 0x352B PUSH1 0x0 DUP6 PUSH2 0x2D75 SWAP1 SWAP2 SWAP1 PUSH4 0xFFFFFFFF AND JUMP JUMPDEST SWAP1 POP PUSH1 0x0 PUSH2 0x3543 PUSH1 0x0 DUP6 PUSH2 0x2D75 SWAP1 SWAP2 SWAP1 PUSH4 0xFFFFFFFF AND JUMP JUMPDEST SWAP1 POP DUP6 PUSH20 0xFFFFFFFFFFFFFFFFFFFFFFFFFFFFFFFFFFFFFFFF AND DUP8 PUSH20 0xFFFFFFFFFFFFFFFFFFFFFFFFFFFFFFFFFFFFFFFF AND DUP5 PUSH20 0xFFFFFFFFFFFFFFFFFFFFFFFFFFFFFFFFFFFFFFFF AND PUSH32 0xC3D58168C5AE7397731D063D5BBF3D657854427343F4C083240F7AACAA2D0F62 DUP6 DUP6 PUSH1 0x40 MLOAD PUSH2 0x35BB SWAP3 SWAP2 SWAP1 PUSH2 0x5121 JUMP JUMPDEST PUSH1 0x40 MLOAD DUP1 SWAP2 SUB SWAP1 LOG4 POP POP PUSH2 0x3649 JUMP JUMPDEST DUP4 PUSH20 0xFFFFFFFFFFFFFFFFFFFFFFFFFFFFFFFFFFFFFFFF AND DUP6 PUSH20 0xFFFFFFFFFFFFFFFFFFFFFFFFFFFFFFFFFFFFFFFF AND DUP3 PUSH20 0xFFFFFFFFFFFFFFFFFFFFFFFFFFFFFFFFFFFFFFFF AND PUSH32 0x4A39DC06D4C0DBC64B70AF90FD698A233A518AA5D07E595D983B8C0526C8F7FB DUP7 DUP7 PUSH1 0x40 MLOAD PUSH2 0x3640 SWAP3 SWAP2 SWAP1 PUSH2 0x518F JUMP JUMPDEST PUSH1 0x40 MLOAD DUP1 SWAP2 SUB SWAP1 LOG4 JUMPDEST POP POP POP POP POP JUMP JUMPDEST PUSH1 0x0 PUSH1 0x40 MLOAD SWAP1 POP SWAP1 JUMP JUMPDEST PUSH1 0x0 DUP1 REVERT JUMPDEST PUSH1 0x0 DUP1 REVERT JUMPDEST PUSH1 0x0 PUSH20 0xFFFFFFFFFFFFFFFFFFFFFFFFFFFFFFFFFFFFFFFF DUP3 AND SWAP1 POP SWAP2 SWAP1 POP JUMP JUMPDEST PUSH1 0x0 PUSH2 0x368F DUP3 PUSH2 0x3664 JUMP JUMPDEST SWAP1 POP SWAP2 SWAP1 POP JUMP JUMPDEST PUSH2 0x369F DUP2 PUSH2 0x3684 JUMP JUMPDEST DUP2 EQ PUSH2 0x36AA JUMPI PUSH1 0x0 DUP1 REVERT JUMPDEST POP JUMP JUMPDEST PUSH1 0x0 DUP2 CALLDATALOAD SWAP1 POP PUSH2 0x36BC DUP2 PUSH2 0x3696 JUMP JUMPDEST SWAP3 SWAP2 POP POP JUMP JUMPDEST PUSH1 0x0 DUP2 SWAP1 POP SWAP2 SWAP1 POP JUMP JUMPDEST PUSH2 0x36D5 DUP2 PUSH2 0x36C2 JUMP JUMPDEST DUP2 EQ PUSH2 0x36E0 JUMPI PUSH1 0x0 DUP1 REVERT JUMPDEST POP JUMP JUMPDEST PUSH1 0x0 DUP2 CALLDATALOAD SWAP1 POP PUSH2 0x36F2 DUP2 PUSH2 0x36CC JUMP JUMPDEST SWAP3 SWAP2 POP POP JUMP JUMPDEST PUSH1 0x0 DUP1 PUSH1 0x40 DUP4 DUP6 SUB SLT ISZERO PUSH2 0x370F JUMPI PUSH2 0x370E PUSH2 0x365A JUMP JUMPDEST JUMPDEST PUSH1 0x0 PUSH2 0x371D DUP6 DUP3 DUP7 ADD PUSH2 0x36AD JUMP JUMPDEST SWAP3 POP POP PUSH1 0x20 PUSH2 0x372E DUP6 DUP3 DUP7 ADD PUSH2 0x36E3 JUMP JUMPDEST SWAP2 POP POP SWAP3 POP SWAP3 SWAP1 POP JUMP JUMPDEST PUSH2 0x3741 DUP2 PUSH2 0x36C2 JUMP JUMPDEST DUP3 MSTORE POP POP JUMP JUMPDEST PUSH1 0x0 PUSH1 0x20 DUP3 ADD SWAP1 POP PUSH2 0x375C PUSH1 0x0 DUP4 ADD DUP5 PUSH2 0x3738 JUMP JUMPDEST SWAP3 SWAP2 POP POP JUMP JUMPDEST PUSH1 0x0 PUSH32 0xFFFFFFFF00000000000000000000000000000000000000000000000000000000 DUP3 AND SWAP1 POP SWAP2 SWAP1 POP JUMP JUMPDEST PUSH2 0x3797 DUP2 PUSH2 0x3762 JUMP JUMPDEST DUP2 EQ PUSH2 0x37A2 JUMPI PUSH1 0x0 DUP1 REVERT JUMPDEST POP JUMP JUMPDEST PUSH1 0x0 DUP2 CALLDATALOAD SWAP1 POP PUSH2 0x37B4 DUP2 PUSH2 0x378E JUMP JUMPDEST SWAP3 SWAP2 POP POP JUMP JUMPDEST PUSH1 0x0 PUSH1 0x20 DUP3 DUP5 SUB SLT ISZERO PUSH2 0x37D0 JUMPI PUSH2 0x37CF PUSH2 0x365A JUMP JUMPDEST JUMPDEST PUSH1 0x0 PUSH2 0x37DE DUP5 DUP3 DUP6 ADD PUSH2 0x37A5 JUMP JUMPDEST SWAP2 POP POP SWAP3 SWAP2 POP POP JUMP JUMPDEST PUSH1 0x0 DUP2 ISZERO ISZERO SWAP1 POP SWAP2 SWAP1 POP JUMP JUMPDEST PUSH2 0x37FC DUP2 PUSH2 0x37E7 JUMP JUMPDEST DUP3 MSTORE POP POP JUMP JUMPDEST PUSH1 0x0 PUSH1 0x20 DUP3 ADD SWAP1 POP PUSH2 0x3817 PUSH1 0x0 DUP4 ADD DUP5 PUSH2 0x37F3 JUMP JUMPDEST SWAP3 SWAP2 POP POP JUMP JUMPDEST PUSH1 0x0 DUP1 REVERT JUMPDEST PUSH1 0x0 DUP1 REVERT JUMPDEST PUSH1 0x0 PUSH1 0x1F NOT PUSH1 0x1F DUP4 ADD AND SWAP1 POP SWAP2 SWAP1 POP JUMP JUMPDEST PUSH32 0x4E487B7100000000000000000000000000000000000000000000000000000000 PUSH1 0x0 MSTORE PUSH1 0x41 PUSH1 0x4 MSTORE PUSH1 0x24 PUSH1 0x0 REVERT JUMPDEST PUSH2 0x3870 DUP3 PUSH2 0x3827 JUMP JUMPDEST DUP2 ADD DUP2 DUP2 LT PUSH8 0xFFFFFFFFFFFFFFFF DUP3 GT OR ISZERO PUSH2 0x388F JUMPI PUSH2 0x388E PUSH2 0x3838 JUMP JUMPDEST JUMPDEST DUP1 PUSH1 0x40 MSTORE POP POP POP JUMP JUMPDEST PUSH1 0x0 PUSH2 0x38A2 PUSH2 0x3650 JUMP JUMPDEST SWAP1 POP PUSH2 0x38AE DUP3 DUP3 PUSH2 0x3867 JUMP JUMPDEST SWAP2 SWAP1 POP JUMP JUMPDEST PUSH1 0x0 PUSH8 0xFFFFFFFFFFFFFFFF DUP3 GT ISZERO PUSH2 0x38CE JUMPI PUSH2 0x38CD PUSH2 0x3838 JUMP JUMPDEST JUMPDEST PUSH2 0x38D7 DUP3 PUSH2 0x3827 JUMP JUMPDEST SWAP1 POP PUSH1 0x20 DUP2 ADD SWAP1 POP SWAP2 SWAP1 POP JUMP JUMPDEST DUP3 DUP2 DUP4 CALLDATACOPY PUSH1 0x0 DUP4 DUP4 ADD MSTORE POP POP POP JUMP JUMPDEST PUSH1 0x0 PUSH2 0x3906 PUSH2 0x3901 DUP5 PUSH2 0x38B3 JUMP JUMPDEST PUSH2 0x3898 JUMP JUMPDEST SWAP1 POP DUP3 DUP2 MSTORE PUSH1 0x20 DUP2 ADD DUP5 DUP5 DUP5 ADD GT ISZERO PUSH2 0x3922 JUMPI PUSH2 0x3921 PUSH2 0x3822 JUMP JUMPDEST JUMPDEST PUSH2 0x392D DUP5 DUP3 DUP6 PUSH2 0x38E4 JUMP JUMPDEST POP SWAP4 SWAP3 POP POP POP JUMP JUMPDEST PUSH1 0x0 DUP3 PUSH1 0x1F DUP4 ADD SLT PUSH2 0x394A JUMPI PUSH2 0x3949 PUSH2 0x381D JUMP JUMPDEST JUMPDEST DUP2 CALLDATALOAD PUSH2 0x395A DUP5 DUP3 PUSH1 0x20 DUP7 ADD PUSH2 0x38F3 JUMP JUMPDEST SWAP2 POP POP SWAP3 SWAP2 POP POP JUMP JUMPDEST PUSH1 0x0 PUSH1 0x20 DUP3 DUP5 SUB SLT ISZERO PUSH2 0x3979 JUMPI PUSH2 0x3978 PUSH2 0x365A JUMP JUMPDEST JUMPDEST PUSH1 0x0 DUP3 ADD CALLDATALOAD PUSH8 0xFFFFFFFFFFFFFFFF DUP2 GT ISZERO PUSH2 0x3997 JUMPI PUSH2 0x3996 PUSH2 0x365F JUMP JUMPDEST JUMPDEST PUSH2 0x39A3 DUP5 DUP3 DUP6 ADD PUSH2 0x3935 JUMP JUMPDEST SWAP2 POP POP SWAP3 SWAP2 POP POP JUMP JUMPDEST PUSH1 0x0 PUSH8 0xFFFFFFFFFFFFFFFF DUP3 GT ISZERO PUSH2 0x39C7 JUMPI PUSH2 0x39C6 PUSH2 0x3838 JUMP JUMPDEST JUMPDEST PUSH1 0x20 DUP3 MUL SWAP1 POP PUSH1 0x20 DUP2 ADD SWAP1 POP SWAP2 SWAP1 POP JUMP JUMPDEST PUSH1 0x0 DUP1 REVERT JUMPDEST PUSH1 0x0 PUSH2 0x39F0 PUSH2 0x39EB DUP5 PUSH2 0x39AC JUMP JUMPDEST PUSH2 0x3898 JUMP JUMPDEST SWAP1 POP DUP1 DUP4 DUP3 MSTORE PUSH1 0x20 DUP3 ADD SWAP1 POP PUSH1 0x20 DUP5 MUL DUP4 ADD DUP6 DUP2 GT ISZERO PUSH2 0x3A13 JUMPI PUSH2 0x3A12 PUSH2 0x39D8 JUMP JUMPDEST JUMPDEST DUP4 JUMPDEST DUP2 DUP2 LT ISZERO PUSH2 0x3A3C JUMPI DUP1 PUSH2 0x3A28 DUP9 DUP3 PUSH2 0x36E3 JUMP JUMPDEST DUP5 MSTORE PUSH1 0x20 DUP5 ADD SWAP4 POP POP PUSH1 0x20 DUP2 ADD SWAP1 POP PUSH2 0x3A15 JUMP JUMPDEST POP POP POP SWAP4 SWAP3 POP POP POP JUMP JUMPDEST PUSH1 0x0 DUP3 PUSH1 0x1F DUP4 ADD SLT PUSH2 0x3A5B JUMPI PUSH2 0x3A5A PUSH2 0x381D JUMP JUMPDEST JUMPDEST DUP2 CALLDATALOAD PUSH2 0x3A6B DUP5 DUP3 PUSH1 0x20 DUP7 ADD PUSH2 0x39DD JUMP JUMPDEST SWAP2 POP POP SWAP3 SWAP2 POP POP JUMP JUMPDEST PUSH1 0x0 PUSH8 0xFFFFFFFFFFFFFFFF DUP3 GT ISZERO PUSH2 0x3A8F JUMPI PUSH2 0x3A8E PUSH2 0x3838 JUMP JUMPDEST JUMPDEST PUSH2 0x3A98 DUP3 PUSH2 0x3827 JUMP JUMPDEST SWAP1 POP PUSH1 0x20 DUP2 ADD SWAP1 POP SWAP2 SWAP1 POP JUMP JUMPDEST PUSH1 0x0 PUSH2 0x3AB8 PUSH2 0x3AB3 DUP5 PUSH2 0x3A74 JUMP JUMPDEST PUSH2 0x3898 JUMP JUMPDEST SWAP1 POP DUP3 DUP2 MSTORE PUSH1 0x20 DUP2 ADD DUP5 DUP5 DUP5 ADD GT ISZERO PUSH2 0x3AD4 JUMPI PUSH2 0x3AD3 PUSH2 0x3822 JUMP JUMPDEST JUMPDEST PUSH2 0x3ADF DUP5 DUP3 DUP6 PUSH2 0x38E4 JUMP JUMPDEST POP SWAP4 SWAP3 POP POP POP JUMP JUMPDEST PUSH1 0x0 DUP3 PUSH1 0x1F DUP4 ADD SLT PUSH2 0x3AFC JUMPI PUSH2 0x3AFB PUSH2 0x381D JUMP JUMPDEST JUMPDEST DUP2 CALLDATALOAD PUSH2 0x3B0C DUP5 DUP3 PUSH1 0x20 DUP7 ADD PUSH2 0x3AA5 JUMP JUMPDEST SWAP2 POP POP SWAP3 SWAP2 POP POP JUMP JUMPDEST PUSH1 0x0 DUP1 PUSH1 0x0 DUP1 PUSH1 0x0 DUP1 PUSH1 0xC0 DUP8 DUP10 SUB SLT ISZERO PUSH2 0x3B32 JUMPI PUSH2 0x3B31 PUSH2 0x365A JUMP JUMPDEST JUMPDEST PUSH1 0x0 PUSH2 0x3B40 DUP10 DUP3 DUP11 ADD PUSH2 0x36AD JUMP JUMPDEST SWAP7 POP POP PUSH1 0x20 PUSH2 0x3B51 DUP10 DUP3 DUP11 ADD PUSH2 0x36AD JUMP JUMPDEST SWAP6 POP POP PUSH1 0x40 DUP8 ADD CALLDATALOAD PUSH8 0xFFFFFFFFFFFFFFFF DUP2 GT ISZERO PUSH2 0x3B72 JUMPI PUSH2 0x3B71 PUSH2 0x365F JUMP JUMPDEST JUMPDEST PUSH2 0x3B7E DUP10 DUP3 DUP11 ADD PUSH2 0x3A46 JUMP JUMPDEST SWAP5 POP POP PUSH1 0x60 DUP8 ADD CALLDATALOAD PUSH8 0xFFFFFFFFFFFFFFFF DUP2 GT ISZERO PUSH2 0x3B9F JUMPI PUSH2 0x3B9E PUSH2 0x365F JUMP JUMPDEST JUMPDEST PUSH2 0x3BAB DUP10 DUP3 DUP11 ADD PUSH2 0x3A46 JUMP JUMPDEST SWAP4 POP POP PUSH1 0x80 DUP8 ADD CALLDATALOAD PUSH8 0xFFFFFFFFFFFFFFFF DUP2 GT ISZERO PUSH2 0x3BCC JUMPI PUSH2 0x3BCB PUSH2 0x365F JUMP JUMPDEST JUMPDEST PUSH2 0x3BD8 DUP10 DUP3 DUP11 ADD PUSH2 0x3A46 JUMP JUMPDEST SWAP3 POP POP PUSH1 0xA0 DUP8 ADD CALLDATALOAD PUSH8 0xFFFFFFFFFFFFFFFF DUP2 GT ISZERO PUSH2 0x3BF9 JUMPI PUSH2 0x3BF8 PUSH2 0x365F JUMP JUMPDEST JUMPDEST PUSH2 0x3C05 DUP10 DUP3 DUP11 ADD PUSH2 0x3AE7 JUMP JUMPDEST SWAP2 POP POP SWAP3 SWAP6 POP SWAP3 SWAP6 POP SWAP3 SWAP6 JUMP JUMPDEST PUSH1 0x0 PUSH8 0xFFFFFFFFFFFFFFFF DUP3 GT ISZERO PUSH2 0x3C2D JUMPI PUSH2 0x3C2C PUSH2 0x3838 JUMP JUMPDEST JUMPDEST PUSH1 0x20 DUP3 MUL SWAP1 POP PUSH1 0x20 DUP2 ADD SWAP1 POP SWAP2 SWAP1 POP JUMP JUMPDEST PUSH1 0x0 DUP2 SWAP1 POP SWAP2 SWAP1 POP JUMP JUMPDEST PUSH2 0x3C51 DUP2 PUSH2 0x3C3E JUMP JUMPDEST DUP2 EQ PUSH2 0x3C5C JUMPI PUSH1 0x0 DUP1 REVERT JUMPDEST POP JUMP JUMPDEST PUSH1 0x0 DUP2 CALLDATALOAD SWAP1 POP PUSH2 0x3C6E DUP2 PUSH2 0x3C48 JUMP JUMPDEST SWAP3 SWAP2 POP POP JUMP JUMPDEST PUSH1 0x0 PUSH2 0x3C87 PUSH2 0x3C82 DUP5 PUSH2 0x3C12 JUMP JUMPDEST PUSH2 0x3898 JUMP JUMPDEST SWAP1 POP DUP1 DUP4 DUP3 MSTORE PUSH1 0x20 DUP3 ADD SWAP1 POP PUSH1 0x20 DUP5 MUL DUP4 ADD DUP6 DUP2 GT ISZERO PUSH2 0x3CAA JUMPI PUSH2 0x3CA9 PUSH2 0x39D8 JUMP JUMPDEST JUMPDEST DUP4 JUMPDEST DUP2 DUP2 LT ISZERO PUSH2 0x3CD3 JUMPI DUP1 PUSH2 0x3CBF DUP9 DUP3 PUSH2 0x3C5F JUMP JUMPDEST DUP5 MSTORE PUSH1 0x20 DUP5 ADD SWAP4 POP POP PUSH1 0x20 DUP2 ADD SWAP1 POP PUSH2 0x3CAC JUMP JUMPDEST POP POP POP SWAP4 SWAP3 POP POP POP JUMP JUMPDEST PUSH1 0x0 DUP3 PUSH1 0x1F DUP4 ADD SLT PUSH2 0x3CF2 JUMPI PUSH2 0x3CF1 PUSH2 0x381D JUMP JUMPDEST JUMPDEST DUP2 CALLDATALOAD PUSH2 0x3D02 DUP5 DUP3 PUSH1 0x20 DUP7 ADD PUSH2 0x3C74 JUMP JUMPDEST SWAP2 POP POP SWAP3 SWAP2 POP POP JUMP JUMPDEST PUSH1 0x0 PUSH1 0x20 DUP3 DUP5 SUB SLT ISZERO PUSH2 0x3D21 JUMPI PUSH2 0x3D20 PUSH2 0x365A JUMP JUMPDEST JUMPDEST PUSH1 0x0 DUP3 ADD CALLDATALOAD PUSH8 0xFFFFFFFFFFFFFFFF DUP2 GT ISZERO PUSH2 0x3D3F JUMPI PUSH2 0x3D3E PUSH2 0x365F JUMP JUMPDEST JUMPDEST PUSH2 0x3D4B DUP5 DUP3 DUP6 ADD PUSH2 0x3CDD JUMP JUMPDEST SWAP2 POP POP SWAP3 SWAP2 POP POP JUMP JUMPDEST PUSH1 0x0 PUSH1 0x20 DUP3 DUP5 SUB SLT ISZERO PUSH2 0x3D6A JUMPI PUSH2 0x3D69 PUSH2 0x365A JUMP JUMPDEST JUMPDEST PUSH1 0x0 PUSH2 0x3D78 DUP5 DUP3 DUP6 ADD PUSH2 0x36E3 JUMP JUMPDEST SWAP2 POP POP SWAP3 SWAP2 POP POP JUMP JUMPDEST PUSH1 0x0 DUP2 MLOAD SWAP1 POP SWAP2 SWAP1 POP JUMP JUMPDEST PUSH1 0x0 DUP3 DUP3 MSTORE PUSH1 0x20 DUP3 ADD SWAP1 POP SWAP3 SWAP2 POP POP JUMP JUMPDEST PUSH1 0x0 JUMPDEST DUP4 DUP2 LT ISZERO PUSH2 0x3DBB JUMPI DUP1 DUP3 ADD MLOAD DUP2 DUP5 ADD MSTORE PUSH1 0x20 DUP2 ADD SWAP1 POP PUSH2 0x3DA0 JUMP JUMPDEST PUSH1 0x0 DUP5 DUP5 ADD MSTORE POP POP POP POP JUMP JUMPDEST PUSH1 0x0 PUSH2 0x3DD2 DUP3 PUSH2 0x3D81 JUMP JUMPDEST PUSH2 0x3DDC DUP2 DUP6 PUSH2 0x3D8C JUMP JUMPDEST SWAP4 POP PUSH2 0x3DEC DUP2 DUP6 PUSH1 0x20 DUP7 ADD PUSH2 0x3D9D JUMP JUMPDEST PUSH2 0x3DF5 DUP2 PUSH2 0x3827 JUMP JUMPDEST DUP5 ADD SWAP2 POP POP SWAP3 SWAP2 POP POP JUMP JUMPDEST PUSH1 0x0 PUSH1 0x20 DUP3 ADD SWAP1 POP DUP2 DUP2 SUB PUSH1 0x0 DUP4 ADD MSTORE PUSH2 0x3E1A DUP2 DUP5 PUSH2 0x3DC7 JUMP JUMPDEST SWAP1 POP SWAP3 SWAP2 POP POP JUMP JUMPDEST PUSH1 0x0 DUP1 PUSH1 0x40 DUP4 DUP6 SUB SLT ISZERO PUSH2 0x3E39 JUMPI PUSH2 0x3E38 PUSH2 0x365A JUMP JUMPDEST JUMPDEST PUSH1 0x0 PUSH2 0x3E47 DUP6 DUP3 DUP7 ADD PUSH2 0x36E3 JUMP JUMPDEST SWAP3 POP POP PUSH1 0x20 DUP4 ADD CALLDATALOAD PUSH8 0xFFFFFFFFFFFFFFFF DUP2 GT ISZERO PUSH2 0x3E68 JUMPI PUSH2 0x3E67 PUSH2 0x365F JUMP JUMPDEST JUMPDEST PUSH2 0x3E74 DUP6 DUP3 DUP7 ADD PUSH2 0x3935 JUMP JUMPDEST SWAP2 POP POP SWAP3 POP SWAP3 SWAP1 POP JUMP JUMPDEST PUSH1 0x0 DUP1 PUSH1 0x0 DUP1 PUSH1 0x0 DUP1 PUSH1 0xC0 DUP8 DUP10 SUB SLT ISZERO PUSH2 0x3E9B JUMPI PUSH2 0x3E9A PUSH2 0x365A JUMP JUMPDEST JUMPDEST PUSH1 0x0 PUSH2 0x3EA9 DUP10 DUP3 DUP11 ADD PUSH2 0x36AD JUMP JUMPDEST SWAP7 POP POP PUSH1 0x20 PUSH2 0x3EBA DUP10 DUP3 DUP11 ADD PUSH2 0x36AD JUMP JUMPDEST SWAP6 POP POP PUSH1 0x40 PUSH2 0x3ECB DUP10 DUP3 DUP11 ADD PUSH2 0x36E3 JUMP JUMPDEST SWAP5 POP POP PUSH1 0x60 PUSH2 0x3EDC DUP10 DUP3 DUP11 ADD PUSH2 0x36E3 JUMP JUMPDEST SWAP4 POP POP PUSH1 0x80 PUSH2 0x3EED DUP10 DUP3 DUP11 ADD PUSH2 0x36E3 JUMP JUMPDEST SWAP3 POP POP PUSH1 0xA0 DUP8 ADD CALLDATALOAD PUSH8 0xFFFFFFFFFFFFFFFF DUP2 GT ISZERO PUSH2 0x3F0E JUMPI PUSH2 0x3F0D PUSH2 0x365F JUMP JUMPDEST JUMPDEST PUSH2 0x3F1A DUP10 DUP3 DUP11 ADD PUSH2 0x3AE7 JUMP JUMPDEST SWAP2 POP POP SWAP3 SWAP6 POP SWAP3 SWAP6 POP SWAP3 SWAP6 JUMP JUMPDEST PUSH1 0x0 DUP1 PUSH1 0x0 PUSH1 0x60 DUP5 DUP7 SUB SLT ISZERO PUSH2 0x3F40 JUMPI PUSH2 0x3F3F PUSH2 0x365A JUMP JUMPDEST JUMPDEST PUSH1 0x0 PUSH2 0x3F4E DUP7 DUP3 DUP8 ADD PUSH2 0x36AD JUMP JUMPDEST SWAP4 POP POP PUSH1 0x20 PUSH2 0x3F5F DUP7 DUP3 DUP8 ADD PUSH2 0x36E3 JUMP JUMPDEST SWAP3 POP POP PUSH1 0x40 PUSH2 0x3F70 DUP7 DUP3 DUP8 ADD PUSH2 0x36E3 JUMP JUMPDEST SWAP2 POP POP SWAP3 POP SWAP3 POP SWAP3 JUMP JUMPDEST PUSH1 0x0 DUP1 PUSH1 0x0 DUP1 PUSH1 0x80 DUP6 DUP8 SUB SLT ISZERO PUSH2 0x3F94 JUMPI PUSH2 0x3F93 PUSH2 0x365A JUMP JUMPDEST JUMPDEST PUSH1 0x0 PUSH2 0x3FA2 DUP8 DUP3 DUP9 ADD PUSH2 0x36AD JUMP JUMPDEST SWAP5 POP POP PUSH1 0x20 DUP6 ADD CALLDATALOAD PUSH8 0xFFFFFFFFFFFFFFFF DUP2 GT ISZERO PUSH2 0x3FC3 JUMPI PUSH2 0x3FC2 PUSH2 0x365F JUMP JUMPDEST JUMPDEST PUSH2 0x3FCF DUP8 DUP3 DUP9 ADD PUSH2 0x3A46 JUMP JUMPDEST SWAP4 POP POP PUSH1 0x40 DUP6 ADD CALLDATALOAD PUSH8 0xFFFFFFFFFFFFFFFF DUP2 GT ISZERO PUSH2 0x3FF0 JUMPI PUSH2 0x3FEF PUSH2 0x365F JUMP JUMPDEST JUMPDEST PUSH2 0x3FFC DUP8 DUP3 DUP9 ADD PUSH2 0x3A46 JUMP JUMPDEST SWAP3 POP POP PUSH1 0x60 DUP6 ADD CALLDATALOAD PUSH8 0xFFFFFFFFFFFFFFFF DUP2 GT ISZERO PUSH2 0x401D JUMPI PUSH2 0x401C PUSH2 0x365F JUMP JUMPDEST JUMPDEST PUSH2 0x4029 DUP8 DUP3 DUP9 ADD PUSH2 0x3AE7 JUMP JUMPDEST SWAP2 POP POP SWAP3 SWAP6 SWAP2 SWAP5 POP SWAP3 POP JUMP JUMPDEST PUSH1 0x0 PUSH1 0x20 DUP3 DUP5 SUB SLT ISZERO PUSH2 0x404B JUMPI PUSH2 0x404A PUSH2 0x365A JUMP JUMPDEST JUMPDEST PUSH1 0x0 PUSH2 0x4059 DUP5 DUP3 DUP6 ADD PUSH2 0x3C5F JUMP JUMPDEST SWAP2 POP POP SWAP3 SWAP2 POP POP JUMP JUMPDEST PUSH2 0x406B DUP2 PUSH2 0x3C3E JUMP JUMPDEST DUP3 MSTORE POP POP JUMP JUMPDEST PUSH1 0x0 PUSH1 0x20 DUP3 ADD SWAP1 POP PUSH2 0x4086 PUSH1 0x0 DUP4 ADD DUP5 PUSH2 0x4062 JUMP JUMPDEST SWAP3 SWAP2 POP POP JUMP JUMPDEST PUSH1 0x0 DUP1 PUSH1 0x0 DUP1 PUSH1 0x0 PUSH1 0xA0 DUP7 DUP9 SUB SLT ISZERO PUSH2 0x40A8 JUMPI PUSH2 0x40A7 PUSH2 0x365A JUMP JUMPDEST JUMPDEST PUSH1 0x0 PUSH2 0x40B6 DUP9 DUP3 DUP10 ADD PUSH2 0x36AD JUMP JUMPDEST SWAP6 POP POP PUSH1 0x20 PUSH2 0x40C7 DUP9 DUP3 DUP10 ADD PUSH2 0x36AD JUMP JUMPDEST SWAP5 POP POP PUSH1 0x40 DUP7 ADD CALLDATALOAD PUSH8 0xFFFFFFFFFFFFFFFF DUP2 GT ISZERO PUSH2 0x40E8 JUMPI PUSH2 0x40E7 PUSH2 0x365F JUMP JUMPDEST JUMPDEST PUSH2 0x40F4 DUP9 DUP3 DUP10 ADD PUSH2 0x3A46 JUMP JUMPDEST SWAP4 POP POP PUSH1 0x60 DUP7 ADD CALLDATALOAD PUSH8 0xFFFFFFFFFFFFFFFF DUP2 GT ISZERO PUSH2 0x4115 JUMPI PUSH2 0x4114 PUSH2 0x365F JUMP JUMPDEST JUMPDEST PUSH2 0x4121 DUP9 DUP3 DUP10 ADD PUSH2 0x3A46 JUMP JUMPDEST SWAP3 POP POP PUSH1 0x80 DUP7 ADD CALLDATALOAD PUSH8 0xFFFFFFFFFFFFFFFF DUP2 GT ISZERO PUSH2 0x4142 JUMPI PUSH2 0x4141 PUSH2 0x365F JUMP JUMPDEST JUMPDEST PUSH2 0x414E DUP9 DUP3 DUP10 ADD PUSH2 0x3AE7 JUMP JUMPDEST SWAP2 POP POP SWAP3 SWAP6 POP SWAP3 SWAP6 SWAP1 SWAP4 POP JUMP JUMPDEST PUSH1 0x0 DUP1 PUSH1 0x40 DUP4 DUP6 SUB SLT ISZERO PUSH2 0x4172 JUMPI PUSH2 0x4171 PUSH2 0x365A JUMP JUMPDEST JUMPDEST PUSH1 0x0 PUSH2 0x4180 DUP6 DUP3 DUP7 ADD PUSH2 0x3C5F JUMP JUMPDEST SWAP3 POP POP PUSH1 0x20 PUSH2 0x4191 DUP6 DUP3 DUP7 ADD PUSH2 0x36AD JUMP JUMPDEST SWAP2 POP POP SWAP3 POP SWAP3 SWAP1 POP JUMP JUMPDEST PUSH1 0x0 PUSH8 0xFFFFFFFFFFFFFFFF DUP3 GT ISZERO PUSH2 0x41B6 JUMPI PUSH2 0x41B5 PUSH2 0x3838 JUMP JUMPDEST JUMPDEST PUSH1 0x20 DUP3 MUL SWAP1 POP PUSH1 0x20 DUP2 ADD SWAP1 POP SWAP2 SWAP1 POP JUMP JUMPDEST PUSH1 0x0 PUSH2 0x41DA PUSH2 0x41D5 DUP5 PUSH2 0x419B JUMP JUMPDEST PUSH2 0x3898 JUMP JUMPDEST SWAP1 POP DUP1 DUP4 DUP3 MSTORE PUSH1 0x20 DUP3 ADD SWAP1 POP PUSH1 0x20 DUP5 MUL DUP4 ADD DUP6 DUP2 GT ISZERO PUSH2 0x41FD JUMPI PUSH2 0x41FC PUSH2 0x39D8 JUMP JUMPDEST JUMPDEST DUP4 JUMPDEST DUP2 DUP2 LT ISZERO PUSH2 0x4226 JUMPI DUP1 PUSH2 0x4212 DUP9 DUP3 PUSH2 0x36AD JUMP JUMPDEST DUP5 MSTORE PUSH1 0x20 DUP5 ADD SWAP4 POP POP PUSH1 0x20 DUP2 ADD SWAP1 POP PUSH2 0x41FF JUMP JUMPDEST POP POP POP SWAP4 SWAP3 POP POP POP JUMP JUMPDEST PUSH1 0x0 DUP3 PUSH1 0x1F DUP4 ADD SLT PUSH2 0x4245 JUMPI PUSH2 0x4244 PUSH2 0x381D JUMP JUMPDEST JUMPDEST DUP2 CALLDATALOAD PUSH2 0x4255 DUP5 DUP3 PUSH1 0x20 DUP7 ADD PUSH2 0x41C7 JUMP JUMPDEST SWAP2 POP POP SWAP3 SWAP2 POP POP JUMP JUMPDEST PUSH1 0x0 DUP1 PUSH1 0x40 DUP4 DUP6 SUB SLT ISZERO PUSH2 0x4275 JUMPI PUSH2 0x4274 PUSH2 0x365A JUMP JUMPDEST JUMPDEST PUSH1 0x0 DUP4 ADD CALLDATALOAD PUSH8 0xFFFFFFFFFFFFFFFF DUP2 GT ISZERO PUSH2 0x4293 JUMPI PUSH2 0x4292 PUSH2 0x365F JUMP JUMPDEST JUMPDEST PUSH2 0x429F DUP6 DUP3 DUP7 ADD PUSH2 0x4230 JUMP JUMPDEST SWAP3 POP POP PUSH1 0x20 DUP4 ADD CALLDATALOAD PUSH8 0xFFFFFFFFFFFFFFFF DUP2 GT ISZERO PUSH2 0x42C0 JUMPI PUSH2 0x42BF PUSH2 0x365F JUMP JUMPDEST JUMPDEST PUSH2 0x42CC DUP6 DUP3 DUP7 ADD PUSH2 0x3A46 JUMP JUMPDEST SWAP2 POP POP SWAP3 POP SWAP3 SWAP1 POP JUMP JUMPDEST PUSH1 0x0 DUP2 MLOAD SWAP1 POP SWAP2 SWAP1 POP JUMP JUMPDEST PUSH1 0x0 DUP3 DUP3 MSTORE PUSH1 0x20 DUP3 ADD SWAP1 POP SWAP3 SWAP2 POP POP JUMP JUMPDEST PUSH1 0x0 DUP2 SWAP1 POP PUSH1 0x20 DUP3 ADD SWAP1 POP SWAP2 SWAP1 POP JUMP JUMPDEST PUSH2 0x430B DUP2 PUSH2 0x36C2 JUMP JUMPDEST DUP3 MSTORE POP POP JUMP JUMPDEST PUSH1 0x0 PUSH2 0x431D DUP4 DUP4 PUSH2 0x4302 JUMP JUMPDEST PUSH1 0x20 DUP4 ADD SWAP1 POP SWAP3 SWAP2 POP POP JUMP JUMPDEST PUSH1 0x0 PUSH1 0x20 DUP3 ADD SWAP1 POP SWAP2 SWAP1 POP JUMP JUMPDEST PUSH1 0x0 PUSH2 0x4341 DUP3 PUSH2 0x42D6 JUMP JUMPDEST PUSH2 0x434B DUP2 DUP6 PUSH2 0x42E1 JUMP JUMPDEST SWAP4 POP PUSH2 0x4356 DUP4 PUSH2 0x42F2 JUMP JUMPDEST DUP1 PUSH1 0x0 JUMPDEST DUP4 DUP2 LT ISZERO PUSH2 0x4387 JUMPI DUP2 MLOAD PUSH2 0x436E DUP9 DUP3 PUSH2 0x4311 JUMP JUMPDEST SWAP8 POP PUSH2 0x4379 DUP4 PUSH2 0x4329 JUMP JUMPDEST SWAP3 POP POP PUSH1 0x1 DUP2 ADD SWAP1 POP PUSH2 0x435A JUMP JUMPDEST POP DUP6 SWAP4 POP POP POP POP SWAP3 SWAP2 POP POP JUMP JUMPDEST PUSH1 0x0 PUSH1 0x20 DUP3 ADD SWAP1 POP DUP2 DUP2 SUB PUSH1 0x0 DUP4 ADD MSTORE PUSH2 0x43AE DUP2 DUP5 PUSH2 0x4336 JUMP JUMPDEST SWAP1 POP SWAP3 SWAP2 POP POP JUMP JUMPDEST PUSH1 0x0 DUP1 PUSH1 0x0 PUSH1 0x60 DUP5 DUP7 SUB SLT ISZERO PUSH2 0x43CF JUMPI PUSH2 0x43CE PUSH2 0x365A JUMP JUMPDEST JUMPDEST PUSH1 0x0 PUSH2 0x43DD DUP7 DUP3 DUP8 ADD PUSH2 0x36AD JUMP JUMPDEST SWAP4 POP POP PUSH1 0x20 DUP5 ADD CALLDATALOAD PUSH8 0xFFFFFFFFFFFFFFFF DUP2 GT ISZERO PUSH2 0x43FE JUMPI PUSH2 0x43FD PUSH2 0x365F JUMP JUMPDEST JUMPDEST PUSH2 0x440A DUP7 DUP3 DUP8 ADD PUSH2 0x3A46 JUMP JUMPDEST SWAP3 POP POP PUSH1 0x40 DUP5 ADD CALLDATALOAD PUSH8 0xFFFFFFFFFFFFFFFF DUP2 GT ISZERO PUSH2 0x442B JUMPI PUSH2 0x442A PUSH2 0x365F JUMP JUMPDEST JUMPDEST PUSH2 0x4437 DUP7 DUP3 DUP8 ADD PUSH2 0x3A46 JUMP JUMPDEST SWAP2 POP POP SWAP3 POP SWAP3 POP SWAP3 JUMP JUMPDEST PUSH1 0x0 DUP1 PUSH1 0x0 DUP1 PUSH1 0x80 DUP6 DUP8 SUB SLT ISZERO PUSH2 0x445B JUMPI PUSH2 0x445A PUSH2 0x365A JUMP JUMPDEST JUMPDEST PUSH1 0x0 PUSH2 0x4469 DUP8 DUP3 DUP9 ADD PUSH2 0x36AD JUMP JUMPDEST SWAP5 POP POP PUSH1 0x20 DUP6 ADD CALLDATALOAD PUSH8 0xFFFFFFFFFFFFFFFF DUP2 GT ISZERO PUSH2 0x448A JUMPI PUSH2 0x4489 PUSH2 0x365F JUMP JUMPDEST JUMPDEST PUSH2 0x4496 DUP8 DUP3 DUP9 ADD PUSH2 0x3CDD JUMP JUMPDEST SWAP4 POP POP PUSH1 0x40 DUP6 ADD CALLDATALOAD PUSH8 0xFFFFFFFFFFFFFFFF DUP2 GT ISZERO PUSH2 0x44B7 JUMPI PUSH2 0x44B6 PUSH2 0x365F JUMP JUMPDEST JUMPDEST PUSH2 0x44C3 DUP8 DUP3 DUP9 ADD PUSH2 0x3A46 JUMP JUMPDEST SWAP3 POP POP PUSH1 0x60 DUP6 ADD CALLDATALOAD PUSH8 0xFFFFFFFFFFFFFFFF DUP2 GT ISZERO PUSH2 0x44E4 JUMPI PUSH2 0x44E3 PUSH2 0x365F JUMP JUMPDEST JUMPDEST PUSH2 0x44F0 DUP8 DUP3 DUP9 ADD PUSH2 0x3AE7 JUMP JUMPDEST SWAP2 POP POP SWAP3 SWAP6 SWAP2 SWAP5 POP SWAP3 POP JUMP JUMPDEST PUSH1 0x0 DUP1 PUSH1 0x0 DUP1 PUSH1 0x80 DUP6 DUP8 SUB SLT ISZERO PUSH2 0x4516 JUMPI PUSH2 0x4515 PUSH2 0x365A JUMP JUMPDEST JUMPDEST PUSH1 0x0 PUSH2 0x4524 DUP8 DUP3 DUP9 ADD PUSH2 0x36AD JUMP JUMPDEST SWAP5 POP POP PUSH1 0x20 PUSH2 0x4535 DUP8 DUP3 DUP9 ADD PUSH2 0x36E3 JUMP JUMPDEST SWAP4 POP POP PUSH1 0x40 PUSH2 0x4546 DUP8 DUP3 DUP9 ADD PUSH2 0x36E3 JUMP JUMPDEST SWAP3 POP POP PUSH1 0x60 DUP6 ADD CALLDATALOAD PUSH8 0xFFFFFFFFFFFFFFFF DUP2 GT ISZERO PUSH2 0x4567 JUMPI PUSH2 0x4566 PUSH2 0x365F JUMP JUMPDEST JUMPDEST PUSH2 0x4573 DUP8 DUP3 DUP9 ADD PUSH2 0x3AE7 JUMP JUMPDEST SWAP2 POP POP SWAP3 SWAP6 SWAP2 SWAP5 POP SWAP3 POP JUMP JUMPDEST PUSH1 0x0 DUP1 PUSH1 0x0 DUP1 PUSH1 0x80 DUP6 DUP8 SUB SLT ISZERO PUSH2 0x4599 JUMPI PUSH2 0x4598 PUSH2 0x365A JUMP JUMPDEST JUMPDEST PUSH1 0x0 PUSH2 0x45A7 DUP8 DUP3 DUP9 ADD PUSH2 0x36AD JUMP JUMPDEST SWAP5 POP POP PUSH1 0x20 PUSH2 0x45B8 DUP8 DUP3 DUP9 ADD PUSH2 0x3C5F JUMP JUMPDEST SWAP4 POP POP PUSH1 0x40 PUSH2 0x45C9 DUP8 DUP3 DUP9 ADD PUSH2 0x36E3 JUMP JUMPDEST SWAP3 POP POP PUSH1 0x60 DUP6 ADD CALLDATALOAD PUSH8 0xFFFFFFFFFFFFFFFF DUP2 GT ISZERO PUSH2 0x45EA JUMPI PUSH2 0x45E9 PUSH2 0x365F JUMP JUMPDEST JUMPDEST PUSH2 0x45F6 DUP8 DUP3 DUP9 ADD PUSH2 0x3AE7 JUMP JUMPDEST SWAP2 POP POP SWAP3 SWAP6 SWAP2 SWAP5 POP SWAP3 POP JUMP JUMPDEST PUSH2 0x460B DUP2 PUSH2 0x37E7 JUMP JUMPDEST DUP2 EQ PUSH2 0x4616 JUMPI PUSH1 0x0 DUP1 REVERT JUMPDEST POP JUMP JUMPDEST PUSH1 0x0 DUP2 CALLDATALOAD SWAP1 POP PUSH2 0x4628 DUP2 PUSH2 0x4602 JUMP JUMPDEST SWAP3 SWAP2 POP POP JUMP JUMPDEST PUSH1 0x0 DUP1 PUSH1 0x40 DUP4 DUP6 SUB SLT ISZERO PUSH2 0x4645 JUMPI PUSH2 0x4644 PUSH2 0x365A JUMP JUMPDEST JUMPDEST PUSH1 0x0 PUSH2 0x4653 DUP6 DUP3 DUP7 ADD PUSH2 0x36AD JUMP JUMPDEST SWAP3 POP POP PUSH1 0x20 PUSH2 0x4664 DUP6 DUP3 DUP7 ADD PUSH2 0x4619 JUMP JUMPDEST SWAP2 POP POP SWAP3 POP SWAP3 SWAP1 POP JUMP JUMPDEST PUSH1 0x0 DUP1 PUSH1 0x40 DUP4 DUP6 SUB SLT ISZERO PUSH2 0x4685 JUMPI PUSH2 0x4684 PUSH2 0x365A JUMP JUMPDEST JUMPDEST PUSH1 0x0 PUSH2 0x4693 DUP6 DUP3 DUP7 ADD PUSH2 0x36AD JUMP JUMPDEST SWAP3 POP POP PUSH1 0x20 PUSH2 0x46A4 DUP6 DUP3 DUP7 ADD PUSH2 0x36AD JUMP JUMPDEST SWAP2 POP POP SWAP3 POP SWAP3 SWAP1 POP JUMP JUMPDEST PUSH1 0x0 DUP1 PUSH1 0x0 DUP1 PUSH1 0x0 PUSH1 0xA0 DUP7 DUP9 SUB SLT ISZERO PUSH2 0x46CA JUMPI PUSH2 0x46C9 PUSH2 0x365A JUMP JUMPDEST JUMPDEST PUSH1 0x0 PUSH2 0x46D8 DUP9 DUP3 DUP10 ADD PUSH2 0x36AD JUMP JUMPDEST SWAP6 POP POP PUSH1 0x20 PUSH2 0x46E9 DUP9 DUP3 DUP10 ADD PUSH2 0x36AD JUMP JUMPDEST SWAP5 POP POP PUSH1 0x40 PUSH2 0x46FA DUP9 DUP3 DUP10 ADD PUSH2 0x36E3 JUMP JUMPDEST SWAP4 POP POP PUSH1 0x60 PUSH2 0x470B DUP9 DUP3 DUP10 ADD PUSH2 0x36E3 JUMP JUMPDEST SWAP3 POP POP PUSH1 0x80 DUP7 ADD CALLDATALOAD PUSH8 0xFFFFFFFFFFFFFFFF DUP2 GT ISZERO PUSH2 0x472C JUMPI PUSH2 0x472B PUSH2 0x365F JUMP JUMPDEST JUMPDEST PUSH2 0x4738 DUP9 DUP3 DUP10 ADD PUSH2 0x3AE7 JUMP JUMPDEST SWAP2 POP POP SWAP3 SWAP6 POP SWAP3 SWAP6 SWAP1 SWAP4 POP JUMP JUMPDEST PUSH32 0x4950446F635631303A2069647320616E642065787069726174696F6E54696D65 PUSH1 0x0 DUP3 ADD MSTORE PUSH32 0x73206C656E677468206D69736D61746368000000000000000000000000000000 PUSH1 0x20 DUP3 ADD MSTORE POP JUMP JUMPDEST PUSH1 0x0 PUSH2 0x47A1 PUSH1 0x31 DUP4 PUSH2 0x3D8C JUMP JUMPDEST SWAP2 POP PUSH2 0x47AC DUP3 PUSH2 0x4745 JUMP JUMPDEST PUSH1 0x40 DUP3 ADD SWAP1 POP SWAP2 SWAP1 POP JUMP JUMPDEST PUSH1 0x0 PUSH1 0x20 DUP3 ADD SWAP1 POP DUP2 DUP2 SUB PUSH1 0x0 DUP4 ADD MSTORE PUSH2 0x47D0 DUP2 PUSH2 0x4794 JUMP JUMPDEST SWAP1 POP SWAP2 SWAP1 POP JUMP JUMPDEST PUSH32 0x4E487B7100000000000000000000000000000000000000000000000000000000 PUSH1 0x0 MSTORE PUSH1 0x32 PUSH1 0x4 MSTORE PUSH1 0x24 PUSH1 0x0 REVERT JUMPDEST PUSH32 0x4E487B7100000000000000000000000000000000000000000000000000000000 PUSH1 0x0 MSTORE PUSH1 0x11 PUSH1 0x4 MSTORE PUSH1 0x24 PUSH1 0x0 REVERT JUMPDEST PUSH1 0x0 PUSH2 0x4840 DUP3 PUSH2 0x36C2 JUMP JUMPDEST SWAP2 POP PUSH32 0xFFFFFFFFFFFFFFFFFFFFFFFFFFFFFFFFFFFFFFFFFFFFFFFFFFFFFFFFFFFFFFFF DUP3 SUB PUSH2 0x4872 JUMPI PUSH2 0x4871 PUSH2 0x4806 JUMP JUMPDEST JUMPDEST PUSH1 0x1 DUP3 ADD SWAP1 POP SWAP2 SWAP1 POP JUMP JUMPDEST PUSH32 0x4950446F635631303A204163636F756E7420686173206E6F2062616C616E6365 PUSH1 0x0 DUP3 ADD MSTORE PUSH32 0x20746F2065787069726500000000000000000000000000000000000000000000 PUSH1 0x20 DUP3 ADD MSTORE POP JUMP JUMPDEST PUSH1 0x0 PUSH2 0x48D9 PUSH1 0x2A DUP4 PUSH2 0x3D8C JUMP JUMPDEST SWAP2 POP PUSH2 0x48E4 DUP3 PUSH2 0x487D JUMP JUMPDEST PUSH1 0x40 DUP3 ADD SWAP1 POP SWAP2 SWAP1 POP JUMP JUMPDEST PUSH1 0x0 PUSH1 0x20 DUP3 ADD SWAP1 POP DUP2 DUP2 SUB PUSH1 0x0 DUP4 ADD MSTORE PUSH2 0x4908 DUP2 PUSH2 0x48CC JUMP JUMPDEST SWAP1 POP SWAP2 SWAP1 POP JUMP JUMPDEST PUSH2 0x4918 DUP2 PUSH2 0x3684 JUMP JUMPDEST DUP3 MSTORE POP POP JUMP JUMPDEST PUSH1 0x0 PUSH1 0x40 DUP3 ADD SWAP1 POP PUSH2 0x4933 PUSH1 0x0 DUP4 ADD DUP6 PUSH2 0x490F JUMP JUMPDEST PUSH2 0x4940 PUSH1 0x20 DUP4 ADD DUP5 PUSH2 0x490F JUMP JUMPDEST SWAP4 SWAP3 POP POP POP JUMP JUMPDEST PUSH32 0x4950446F635631303A206163636F756E747320616E6420696473206C656E6774 PUSH1 0x0 DUP3 ADD MSTORE PUSH32 0x68206D69736D6174636800000000000000000000000000000000000000000000 PUSH1 0x20 DUP3 ADD MSTORE POP JUMP JUMPDEST PUSH1 0x0 PUSH2 0x49A3 PUSH1 0x2A DUP4 PUSH2 0x3D8C JUMP JUMPDEST SWAP2 POP PUSH2 0x49AE DUP3 PUSH2 0x4947 JUMP JUMPDEST PUSH1 0x40 DUP3 ADD SWAP1 POP SWAP2 SWAP1 POP JUMP JUMPDEST PUSH1 0x0 PUSH1 0x20 DUP3 ADD SWAP1 POP DUP2 DUP2 SUB PUSH1 0x0 DUP4 ADD MSTORE PUSH2 0x49D2 DUP2 PUSH2 0x4996 JUMP JUMPDEST SWAP1 POP SWAP2 SWAP1 POP JUMP JUMPDEST PUSH32 0x4950446F635631303A2065787465726E616C49647320616E6420616D6F756E74 PUSH1 0x0 DUP3 ADD MSTORE PUSH32 0x73206C656E677468206D69736D61746368000000000000000000000000000000 PUSH1 0x20 DUP3 ADD MSTORE POP JUMP JUMPDEST PUSH1 0x0 PUSH2 0x4A35 PUSH1 0x31 DUP4 PUSH2 0x3D8C JUMP JUMPDEST SWAP2 POP PUSH2 0x4A40 DUP3 PUSH2 0x49D9 JUMP JUMPDEST PUSH1 0x40 DUP3 ADD SWAP1 POP SWAP2 SWAP1 POP JUMP JUMPDEST PUSH1 0x0 PUSH1 0x20 DUP3 ADD SWAP1 POP DUP2 DUP2 SUB PUSH1 0x0 DUP4 ADD MSTORE PUSH2 0x4A64 DUP2 PUSH2 0x4A28 JUMP JUMPDEST SWAP1 POP SWAP2 SWAP1 POP JUMP JUMPDEST PUSH32 0x4E487B7100000000000000000000000000000000000000000000000000000000 PUSH1 0x0 MSTORE PUSH1 0x22 PUSH1 0x4 MSTORE PUSH1 0x24 PUSH1 0x0 REVERT JUMPDEST PUSH1 0x0 PUSH1 0x2 DUP3 DIV SWAP1 POP PUSH1 0x1 DUP3 AND DUP1 PUSH2 0x4AB2 JUMPI PUSH1 0x7F DUP3 AND SWAP2 POP JUMPDEST PUSH1 0x20 DUP3 LT DUP2 SUB PUSH2 0x4AC5 JUMPI PUSH2 0x4AC4 PUSH2 0x4A6B JUMP JUMPDEST JUMPDEST POP SWAP2 SWAP1 POP JUMP JUMPDEST PUSH1 0x0 DUP2 SWAP1 POP DUP2 PUSH1 0x0 MSTORE PUSH1 0x20 PUSH1 0x0 KECCAK256 SWAP1 POP SWAP2 SWAP1 POP JUMP JUMPDEST PUSH1 0x0 PUSH1 0x20 PUSH1 0x1F DUP4 ADD DIV SWAP1 POP SWAP2 SWAP1 POP JUMP JUMPDEST PUSH1 0x0 DUP3 DUP3 SHL SWAP1 POP SWAP3 SWAP2 POP POP JUMP JUMPDEST PUSH1 0x0 PUSH1 0x8 DUP4 MUL PUSH2 0x4B2D PUSH32 0xFFFFFFFFFFFFFFFFFFFFFFFFFFFFFFFFFFFFFFFFFFFFFFFFFFFFFFFFFFFFFFFF DUP3 PUSH2 0x4AF0 JUMP JUMPDEST PUSH2 0x4B37 DUP7 DUP4 PUSH2 0x4AF0 JUMP JUMPDEST SWAP6 POP DUP1 NOT DUP5 AND SWAP4 POP DUP1 DUP7 AND DUP5 OR SWAP3 POP POP POP SWAP4 SWAP3 POP POP POP JUMP JUMPDEST PUSH1 0x0 DUP2 SWAP1 POP SWAP2 SWAP1 POP JUMP JUMPDEST PUSH1 0x0 PUSH2 0x4B74 PUSH2 0x4B6F PUSH2 0x4B6A DUP5 PUSH2 0x36C2 JUMP JUMPDEST PUSH2 0x4B4F JUMP JUMPDEST PUSH2 0x36C2 JUMP JUMPDEST SWAP1 POP SWAP2 SWAP1 POP JUMP JUMPDEST PUSH1 0x0 DUP2 SWAP1 POP SWAP2 SWAP1 POP JUMP JUMPDEST PUSH2 0x4B8E DUP4 PUSH2 0x4B59 JUMP JUMPDEST PUSH2 0x4BA2 PUSH2 0x4B9A DUP3 PUSH2 0x4B7B JUMP JUMPDEST DUP5 DUP5 SLOAD PUSH2 0x4AFD JUMP JUMPDEST DUP3 SSTORE POP POP POP POP JUMP JUMPDEST PUSH1 0x0 SWAP1 JUMP JUMPDEST PUSH2 0x4BB7 PUSH2 0x4BAA JUMP JUMPDEST PUSH2 0x4BC2 DUP2 DUP5 DUP5 PUSH2 0x4B85 JUMP JUMPDEST POP POP POP JUMP JUMPDEST JUMPDEST DUP2 DUP2 LT ISZERO PUSH2 0x4BE6 JUMPI PUSH2 0x4BDB PUSH1 0x0 DUP3 PUSH2 0x4BAF JUMP JUMPDEST PUSH1 0x1 DUP2 ADD SWAP1 POP PUSH2 0x4BC8 JUMP JUMPDEST POP POP JUMP JUMPDEST PUSH1 0x1F DUP3 GT ISZERO PUSH2 0x4C2B JUMPI PUSH2 0x4BFC DUP2 PUSH2 0x4ACB JUMP JUMPDEST PUSH2 0x4C05 DUP5 PUSH2 0x4AE0 JUMP JUMPDEST DUP2 ADD PUSH1 0x20 DUP6 LT ISZERO PUSH2 0x4C14 JUMPI DUP2 SWAP1 POP JUMPDEST PUSH2 0x4C28 PUSH2 0x4C20 DUP6 PUSH2 0x4AE0 JUMP JUMPDEST DUP4 ADD DUP3 PUSH2 0x4BC7 JUMP JUMPDEST POP POP JUMPDEST POP POP POP JUMP JUMPDEST PUSH1 0x0 DUP3 DUP3 SHR SWAP1 POP SWAP3 SWAP2 POP POP JUMP JUMPDEST PUSH1 0x0 PUSH2 0x4C4E PUSH1 0x0 NOT DUP5 PUSH1 0x8 MUL PUSH2 0x4C30 JUMP JUMPDEST NOT DUP1 DUP4 AND SWAP2 POP POP SWAP3 SWAP2 POP POP JUMP JUMPDEST PUSH1 0x0 PUSH2 0x4C67 DUP4 DUP4 PUSH2 0x4C3D JUMP JUMPDEST SWAP2 POP DUP3 PUSH1 0x2 MUL DUP3 OR SWAP1 POP SWAP3 SWAP2 POP POP JUMP JUMPDEST PUSH2 0x4C80 DUP3 PUSH2 0x3D81 JUMP JUMPDEST PUSH8 0xFFFFFFFFFFFFFFFF DUP2 GT ISZERO PUSH2 0x4C99 JUMPI PUSH2 0x4C98 PUSH2 0x3838 JUMP JUMPDEST JUMPDEST PUSH2 0x4CA3 DUP3 SLOAD PUSH2 0x4A9A JUMP JUMPDEST PUSH2 0x4CAE DUP3 DUP3 DUP6 PUSH2 0x4BEA JUMP JUMPDEST PUSH1 0x0 PUSH1 0x20 SWAP1 POP PUSH1 0x1F DUP4 GT PUSH1 0x1 DUP2 EQ PUSH2 0x4CE1 JUMPI PUSH1 0x0 DUP5 ISZERO PUSH2 0x4CCF JUMPI DUP3 DUP8 ADD MLOAD SWAP1 POP JUMPDEST PUSH2 0x4CD9 DUP6 DUP3 PUSH2 0x4C5B JUMP JUMPDEST DUP7 SSTORE POP PUSH2 0x4D41 JUMP JUMPDEST PUSH1 0x1F NOT DUP5 AND PUSH2 0x4CEF DUP7 PUSH2 0x4ACB JUMP JUMPDEST PUSH1 0x0 JUMPDEST DUP3 DUP2 LT ISZERO PUSH2 0x4D17 JUMPI DUP5 DUP10 ADD MLOAD DUP3 SSTORE PUSH1 0x1 DUP3 ADD SWAP2 POP PUSH1 0x20 DUP6 ADD SWAP5 POP PUSH1 0x20 DUP2 ADD SWAP1 POP PUSH2 0x4CF2 JUMP JUMPDEST DUP7 DUP4 LT ISZERO PUSH2 0x4D34 JUMPI DUP5 DUP10 ADD MLOAD PUSH2 0x4D30 PUSH1 0x1F DUP10 AND DUP3 PUSH2 0x4C3D JUMP JUMPDEST DUP4 SSTORE POP JUMPDEST PUSH1 0x1 PUSH1 0x2 DUP9 MUL ADD DUP9 SSTORE POP POP POP JUMPDEST POP POP POP POP POP POP JUMP JUMPDEST PUSH1 0x0 DUP2 SWAP1 POP SWAP3 SWAP2 POP POP JUMP JUMPDEST PUSH1 0x0 DUP2 SLOAD PUSH2 0x4D61 DUP2 PUSH2 0x4A9A JUMP JUMPDEST PUSH2 0x4D6B DUP2 DUP7 PUSH2 0x4D49 JUMP JUMPDEST SWAP5 POP PUSH1 0x1 DUP3 AND PUSH1 0x0 DUP2 EQ PUSH2 0x4D86 JUMPI PUSH1 0x1 DUP2 EQ PUSH2 0x4D9B JUMPI PUSH2 0x4DCE JUMP JUMPDEST PUSH1 0xFF NOT DUP4 AND DUP7 MSTORE DUP2 ISZERO ISZERO DUP3 MUL DUP7 ADD SWAP4 POP PUSH2 0x4DCE JUMP JUMPDEST PUSH2 0x4DA4 DUP6 PUSH2 0x4ACB JUMP JUMPDEST PUSH1 0x0 JUMPDEST DUP4 DUP2 LT ISZERO PUSH2 0x4DC6 JUMPI DUP2 SLOAD DUP2 DUP10 ADD MSTORE PUSH1 0x1 DUP3 ADD SWAP2 POP PUSH1 0x20 DUP2 ADD SWAP1 POP PUSH2 0x4DA7 JUMP JUMPDEST DUP4 DUP9 ADD SWAP6 POP POP POP JUMPDEST POP POP POP SWAP3 SWAP2 POP POP JUMP JUMPDEST PUSH1 0x0 PUSH2 0x4DE2 DUP3 PUSH2 0x3D81 JUMP JUMPDEST PUSH2 0x4DEC DUP2 DUP6 PUSH2 0x4D49 JUMP JUMPDEST SWAP4 POP PUSH2 0x4DFC DUP2 DUP6 PUSH1 0x20 DUP7 ADD PUSH2 0x3D9D JUMP JUMPDEST DUP1 DUP5 ADD SWAP2 POP POP SWAP3 SWAP2 POP POP JUMP JUMPDEST PUSH1 0x0 PUSH2 0x4E14 DUP3 DUP6 PUSH2 0x4D54 JUMP JUMPDEST SWAP2 POP PUSH2 0x4E20 DUP3 DUP5 PUSH2 0x4DD7 JUMP JUMPDEST SWAP2 POP DUP2 SWAP1 POP SWAP4 SWAP3 POP POP POP JUMP JUMPDEST PUSH1 0x0 PUSH1 0x20 DUP3 ADD SWAP1 POP PUSH2 0x4E41 PUSH1 0x0 DUP4 ADD DUP5 PUSH2 0x490F JUMP JUMPDEST SWAP3 SWAP2 POP POP JUMP JUMPDEST PUSH1 0x0 PUSH1 0x40 DUP3 ADD SWAP1 POP PUSH2 0x4E5C PUSH1 0x0 DUP4 ADD DUP6 PUSH2 0x490F JUMP JUMPDEST PUSH2 0x4E69 PUSH1 0x20 DUP4 ADD DUP5 PUSH2 0x4062 JUMP JUMPDEST SWAP4 SWAP3 POP POP POP JUMP JUMPDEST PUSH32 0x4950446F635631303A206D7573742068617665206D696E74657220726F6C6520 PUSH1 0x0 DUP3 ADD MSTORE PUSH32 0x746F207472616E73666572000000000000000000000000000000000000000000 PUSH1 0x20 DUP3 ADD MSTORE POP JUMP JUMPDEST PUSH1 0x0 PUSH2 0x4ECC PUSH1 0x2B DUP4 PUSH2 0x3D8C JUMP JUMPDEST SWAP2 POP PUSH2 0x4ED7 DUP3 PUSH2 0x4E70 JUMP JUMPDEST PUSH1 0x40 DUP3 ADD SWAP1 POP SWAP2 SWAP1 POP JUMP JUMPDEST PUSH1 0x0 PUSH1 0x20 DUP3 ADD SWAP1 POP DUP2 DUP2 SUB PUSH1 0x0 DUP4 ADD MSTORE PUSH2 0x4EFB DUP2 PUSH2 0x4EBF JUMP JUMPDEST SWAP1 POP SWAP2 SWAP1 POP JUMP JUMPDEST PUSH32 0x4950446F635631303A2043616E6E6F74207472616E7366657220657870697265 PUSH1 0x0 DUP3 ADD MSTORE PUSH32 0x6420746F6B656E732065786365707420746F206275726E000000000000000000 PUSH1 0x20 DUP3 ADD MSTORE POP JUMP JUMPDEST PUSH1 0x0 PUSH2 0x4F5E PUSH1 0x37 DUP4 PUSH2 0x3D8C JUMP JUMPDEST SWAP2 POP PUSH2 0x4F69 DUP3 PUSH2 0x4F02 JUMP JUMPDEST PUSH1 0x40 DUP3 ADD SWAP1 POP SWAP2 SWAP1 POP JUMP JUMPDEST PUSH1 0x0 PUSH1 0x20 DUP3 ADD SWAP1 POP DUP2 DUP2 SUB PUSH1 0x0 DUP4 ADD MSTORE PUSH2 0x4F8D DUP2 PUSH2 0x4F51 JUMP JUMPDEST SWAP1 POP SWAP2 SWAP1 POP JUMP JUMPDEST PUSH1 0x0 DUP2 MLOAD SWAP1 POP SWAP2 SWAP1 POP JUMP JUMPDEST PUSH1 0x0 DUP3 DUP3 MSTORE PUSH1 0x20 DUP3 ADD SWAP1 POP SWAP3 SWAP2 POP POP JUMP JUMPDEST PUSH1 0x0 PUSH2 0x4FBB DUP3 PUSH2 0x4F94 JUMP JUMPDEST PUSH2 0x4FC5 DUP2 DUP6 PUSH2 0x4F9F JUMP JUMPDEST SWAP4 POP PUSH2 0x4FD5 DUP2 DUP6 PUSH1 0x20 DUP7 ADD PUSH2 0x3D9D JUMP JUMPDEST PUSH2 0x4FDE DUP2 PUSH2 0x3827 JUMP JUMPDEST DUP5 ADD SWAP2 POP POP SWAP3 SWAP2 POP POP JUMP JUMPDEST PUSH1 0x0 PUSH1 0xA0 DUP3 ADD SWAP1 POP PUSH2 0x4FFE PUSH1 0x0 DUP4 ADD DUP9 PUSH2 0x490F JUMP JUMPDEST PUSH2 0x500B PUSH1 0x20 DUP4 ADD DUP8 PUSH2 0x490F JUMP JUMPDEST PUSH2 0x5018 PUSH1 0x40 DUP4 ADD DUP7 PUSH2 0x3738 JUMP JUMPDEST PUSH2 0x5025 PUSH1 0x60 DUP4 ADD DUP6 PUSH2 0x3738 JUMP JUMPDEST DUP2 DUP2 SUB PUSH1 0x80 DUP4 ADD MSTORE PUSH2 0x5037 DUP2 DUP5 PUSH2 0x4FB0 JUMP JUMPDEST SWAP1 POP SWAP7 SWAP6 POP POP POP POP POP POP JUMP JUMPDEST PUSH1 0x0 DUP2 MLOAD SWAP1 POP PUSH2 0x5052 DUP2 PUSH2 0x378E JUMP JUMPDEST SWAP3 SWAP2 POP POP JUMP JUMPDEST PUSH1 0x0 PUSH1 0x20 DUP3 DUP5 SUB SLT ISZERO PUSH2 0x506E JUMPI PUSH2 0x506D PUSH2 0x365A JUMP JUMPDEST JUMPDEST PUSH1 0x0 PUSH2 0x507C DUP5 DUP3 DUP6 ADD PUSH2 0x5043 JUMP JUMPDEST SWAP2 POP POP SWAP3 SWAP2 POP POP JUMP JUMPDEST PUSH1 0x0 PUSH1 0xA0 DUP3 ADD SWAP1 POP PUSH2 0x509A PUSH1 0x0 DUP4 ADD DUP9 PUSH2 0x490F JUMP JUMPDEST PUSH2 0x50A7 PUSH1 0x20 DUP4 ADD DUP8 PUSH2 0x490F JUMP JUMPDEST DUP2 DUP2 SUB PUSH1 0x40 DUP4 ADD MSTORE PUSH2 0x50B9 DUP2 DUP7 PUSH2 0x4336 JUMP JUMPDEST SWAP1 POP DUP2 DUP2 SUB PUSH1 0x60 DUP4 ADD MSTORE PUSH2 0x50CD DUP2 DUP6 PUSH2 0x4336 JUMP JUMPDEST SWAP1 POP DUP2 DUP2 SUB PUSH1 0x80 DUP4 ADD MSTORE PUSH2 0x50E1 DUP2 DUP5 PUSH2 0x4FB0 JUMP JUMPDEST SWAP1 POP SWAP7 SWAP6 POP POP POP POP POP POP JUMP JUMPDEST PUSH1 0x0 PUSH2 0x50F8 DUP3 PUSH2 0x36C2 JUMP JUMPDEST SWAP2 POP PUSH2 0x5103 DUP4 PUSH2 0x36C2 JUMP JUMPDEST SWAP3 POP DUP3 DUP3 ADD SWAP1 POP DUP1 DUP3 GT ISZERO PUSH2 0x511B JUMPI PUSH2 0x511A PUSH2 0x4806 JUMP JUMPDEST JUMPDEST SWAP3 SWAP2 POP POP JUMP JUMPDEST PUSH1 0x0 PUSH1 0x40 DUP3 ADD SWAP1 POP PUSH2 0x5136 PUSH1 0x0 DUP4 ADD DUP6 PUSH2 0x3738 JUMP JUMPDEST PUSH2 0x5143 PUSH1 0x20 DUP4 ADD DUP5 PUSH2 0x3738 JUMP JUMPDEST SWAP4 SWAP3 POP POP POP JUMP JUMPDEST PUSH1 0x0 PUSH1 0x80 DUP3 ADD SWAP1 POP PUSH2 0x515F PUSH1 0x0 DUP4 ADD DUP8 PUSH2 0x490F JUMP JUMPDEST PUSH2 0x516C PUSH1 0x20 DUP4 ADD DUP7 PUSH2 0x3738 JUMP JUMPDEST PUSH2 0x5179 PUSH1 0x40 DUP4 ADD DUP6 PUSH2 0x3738 JUMP JUMPDEST PUSH2 0x5186 PUSH1 0x60 DUP4 ADD DUP5 PUSH2 0x3738 JUMP JUMPDEST SWAP6 SWAP5 POP POP POP POP POP JUMP JUMPDEST PUSH1 0x0 PUSH1 0x40 DUP3 ADD SWAP1 POP DUP2 DUP2 SUB PUSH1 0x0 DUP4 ADD MSTORE PUSH2 0x51A9 DUP2 DUP6 PUSH2 0x4336 JUMP JUMPDEST SWAP1 POP DUP2 DUP2 SUB PUSH1 0x20 DUP4 ADD MSTORE PUSH2 0x51BD DUP2 DUP5 PUSH2 0x4336 JUMP JUMPDEST SWAP1 POP SWAP4 SWAP3 POP POP POP JUMP INVALID LOG2 PUSH5 0x6970667358 0x22 SLT KECCAK256 0xC3 PREVRANDAO CALL 0xBE 0xD1 LOG3 0xE SGT DUP4 SWAP13 0xAD 0xBC 0xA8 0x24 0xAE 0x4B PUSH28 0x90B9FF3DBF80282A48C940C0A4908C64736F6C634300081400330000 "},"methodIdentifiers":{"DEFAULT_ADMIN_ROLE()":"a217fddf","EXPIRATION_MANAGER_ROLE()":"4943f8f8","MINTER_ROLE()":"d5391393","PAUSER_ROLE()":"e63ab1e9","URI_SETTER_ROLE()":"7f345710","balanceOf(address,uint256)":"00fdd58e","balanceOfBatch(address[],uint256[])":"4e1273f4","burn(address,uint256,uint256)":"f5298aca","burnBatch(address,uint256[],uint256[])":"6b20c454","createId(bytes32)":"f07f5520","createIds(bytes32[])":"09dca9ce","exists(uint256)":"4f558e79","getExpiration(address,uint256)":"2cac49c4","getExternalId(uint256)":"ee037bf9","getId(bytes32)":"e5569773","getRoleAdmin(bytes32)":"248a9ca3","grantRole(bytes32,address)":"2f2ff15d","hasRole(bytes32,address)":"91d14854","isApprovedForAll(address,address)":"e985e9c5","isExpired(address,uint256)":"15149793","mint(address,uint256,uint256,bytes)":"731133e9","mintBatch(address,uint256[],uint256[],bytes)":"1f7fdffa","mintBatchWithExternalIds(address,bytes32[],uint256[],bytes)":"6a805813","mintWithExternalId(address,bytes32,uint256,bytes)":"8cadedce","pause()":"8456cb59","paused()":"5c975abb","renounceRole(bytes32,address)":"36568abe","revokeRole(bytes32,address)":"d547741f","safeBatchTransferFrom(address,address,uint256[],uint256[],bytes)":"2eb2c2d6","safeBatchTransferFromWithExpiration(address,address,uint256[],uint256[],uint256[],bytes)":"0866be00","safeTransferFrom(address,address,uint256,uint256,bytes)":"f242432a","safeTransferFromWithExpiration(address,address,uint256,uint256,uint256,bytes)":"1a69d180","setApprovalForAll(address,bool)":"a22cb465","setBaseURI(string)":"55f804b3","setBatchExpiration(address,uint256[],uint256[])":"67614e62","setExpiration(address,uint256,uint256)":"1af189e1","setTokenURI(uint256,string)":"162094c4","setURI(string)":"02fe5305","supportsInterface(bytes4)":"01ffc9a7","totalSupply()":"18160ddd","totalSupply(uint256)":"bd85b039","unpause()":"3f4ba83a","uri(uint256)":"0e89341c"}}}}}